{"abi":[{"inputs":[{"internalType":"address","name":"priceFeedAddress","type":"address"}],"stateMutability":"nonpayable","type":"constructor","name":"constructor"},{"inputs":[{"internalType":"uint256","name":"orderId","type":"uint256"},{"internalType":"uint256","name":"maxPreparationTime","type":"uint256"}],"name":"acceptOrder","outputs":[],"stateMutability":"nonpayable","type":"function"},{"inputs":[{"internalType":"string","name":"name","type":"string"},{"internalType":"string","name":"description","type":"string"},{"internalType":"uint256","name":"price","type":"uint256"}],"name":"addItem","outputs":[{"internalType":"uint256","name":"","type":"uint256"}],"stateMutability":"nonpayable","type":"function"},{"inputs":[{"internalType":"uint256","name":"orderId","type":"uint256"}],"name":"cancelOrder","outputs":[],"stateMutability":"nonpayable","type":"function"},{"inputs":[{"internalType":"address","name":"","type":"address"}],"name":"clients","outputs":[{"internalType":"address","name":"addr","type":"address"},{"internalType":"string","name":"name","type":"string"}],"stateMutability":"view","type":"function"},{"inputs":[{"internalType":"uint256","name":"","type":"uint256"}],"name":"clientsAddr","outputs":[{"internalType":"address","name":"","type":"address"}],"stateMutability":"view","type":"function"},{"inputs":[{"internalType":"address","name":"","type":"address"},{"internalType":"uint256","name":"","type":"uint256"}],"name":"clientsToOrdersMapping","outputs":[{"internalType":"uint256","name":"","type":"uint256"}],"stateMutability":"view","type":"function"},{"inputs":[{"internalType":"address","name":"","type":"address"},{"internalType":"uint256","name":"","type":"uint256"}],"name":"couriersToOrdersMapping","outputs":[{"internalType":"uint256","name":"","type":"uint256"}],"stateMutability":"view","type":"function"},{"inputs":[{"internalType":"uint256","name":"orderId","type":"uint256"}],"name":"declineOrder","outputs":[],"stateMutability":"nonpayable","type":"function"},{"inputs":[{"internalType":"uint256","name":"itemId","type":"uint256"}],"name":"disableItem","outputs":[],"stateMutability":"nonpayable","type":"function"},{"inputs":[{"internalType":"uint256","name":"itemId","type":"uint256"}],"name":"enableItem","outputs":[],"stateMutability":"nonpayable","type":"function"},{"inputs":[],"name":"ethUsdPriceFeed","outputs":[{"internalType":"contract AggregatorV3Interface","name":"","type":"address"}],"stateMutability":"view","type":"function"},{"inputs":[{"internalType":"address","name":"clientAddr","type":"address"}],"name":"getAllOrdersForClient","outputs":[{"components":[{"internalType":"uint256","name":"id","type":"uint256"},{"internalType":"address","name":"restaurantAddr","type":"address"},{"internalType":"address","name":"clientAddr","type":"address"},{"internalType":"address","name":"courierAddr","type":"address"},{"internalType":"uint256[]","name":"itemIndices","type":"uint256[]"},{"internalType":"uint256[]","name":"quantities","type":"uint256[]"},{"internalType":"uint256","name":"deliveryFee","type":"uint256"},{"internalType":"uint256","name":"totalPrice","type":"uint256"},{"internalType":"string","name":"deliveryAddress","type":"string"},{"internalType":"enum FoodDelivery.OrderStatus","name":"status","type":"uint8"},{"internalType":"uint256","name":"maxPreparationTime","type":"uint256"},{"internalType":"uint256","name":"maxDeliveryTime","type":"uint256"},{"internalType":"uint256","name":"preparationStartTime","type":"uint256"},{"internalType":"uint256","name":"deliveryStartTime","type":"uint256"},{"internalType":"uint256","name":"refundAmount","type":"uint256"}],"internalType":"struct FoodDelivery.Order[]","name":"","type":"tuple[]"}],"stateMutability":"view","type":"function"},{"inputs":[{"internalType":"address","name":"restaurantAddr","type":"address"}],"name":"getAllOrdersForRestaurant","outputs":[{"components":[{"internalType":"uint256","name":"id","type":"uint256"},{"internalType":"address","name":"restaurantAddr","type":"address"},{"internalType":"address","name":"clientAddr","type":"address"},{"internalType":"address","name":"courierAddr","type":"address"},{"internalType":"uint256[]","name":"itemIndices","type":"uint256[]"},{"internalType":"uint256[]","name":"quantities","type":"uint256[]"},{"internalType":"uint256","name":"deliveryFee","type":"uint256"},{"internalType":"uint256","name":"totalPrice","type":"uint256"},{"internalType":"string","name":"deliveryAddress","type":"string"},{"internalType":"enum FoodDelivery.OrderStatus","name":"status","type":"uint8"},{"internalType":"uint256","name":"maxPreparationTime","type":"uint256"},{"internalType":"uint256","name":"maxDeliveryTime","type":"uint256"},{"internalType":"uint256","name":"preparationStartTime","type":"uint256"},{"internalType":"uint256","name":"deliveryStartTime","type":"uint256"},{"internalType":"uint256","name":"refundAmount","type":"uint256"}],"internalType":"struct FoodDelivery.Order[]","name":"","type":"tuple[]"}],"stateMutability":"view","type":"function"},{"inputs":[],"name":"getAllRestaurants","outputs":[{"components":[{"internalType":"address","name":"addr","type":"address"},{"internalType":"string","name":"name","type":"string"},{"internalType":"string","name":"description","type":"string"},{"internalType":"string","name":"physicalAddress","type":"string"},{"components":[{"internalType":"uint256","name":"id","type":"uint256"},{"internalType":"string","name":"name","type":"string"},{"internalType":"string","name":"description","type":"string"},{"internalType":"uint256","name":"price","type":"uint256"},{"internalType":"bool","name":"available","type":"bool"}],"internalType":"struct FoodDelivery.Item[]","name":"items","type":"tuple[]"}],"internalType":"struct FoodDelivery.Restaurant[]","name":"","type":"tuple[]"}],"stateMutability":"view","type":"function"},{"inputs":[{"internalType":"address","name":"restaurantAddr","type":"address"}],"name":"getAverageRatingForRestaurant","outputs":[{"internalType":"uint256","name":"","type":"uint256"}],"stateMutability":"view","type":"function"},{"inputs":[{"internalType":"address","name":"restaurant","type":"address"},{"internalType":"uint256","name":"index","type":"uint256"}],"name":"getMenuEntryAtIndex","outputs":[{"components":[{"internalType":"uint256","name":"id","type":"uint256"},{"internalType":"string","name":"name","type":"string"},{"internalType":"string","name":"description","type":"string"},{"internalType":"uint256","name":"price","type":"uint256"},{"internalType":"bool","name":"available","type":"bool"}],"internalType":"struct FoodDelivery.Item","name":"","type":"tuple"}],"stateMutability":"view","type":"function"},{"inputs":[],"name":"getNumberOfClients","outputs":[{"internalType":"uint256","name":"","type":"uint256"}],"stateMutability":"view","type":"function"},{"inputs":[{"internalType":"address","name":"restaurant","type":"address"}],"name":"getNumberOfItemsInMenu","outputs":[{"internalType":"uint256","name":"","type":"uint256"}],"stateMutability":"view","type":"function"},{"inputs":[{"internalType":"address","name":"client","type":"address"}],"name":"getNumberOfOrderForClient","outputs":[{"internalType":"uint256","name":"","type":"uint256"}],"stateMutability":"view","type":"function"},{"inputs":[{"internalType":"address","name":"restaurant","type":"address"}],"name":"getNumberOfOrderForRestaurant","outputs":[{"internalType":"uint256","name":"","type":"uint256"}],"stateMutability":"view","type":"function"},{"inputs":[{"internalType":"address","name":"courier","type":"address"}],"name":"getNumberOfOrdersForCourier","outputs":[{"internalType":"uint256","name":"","type":"uint256"}],"stateMutability":"view","type":"function"},{"inputs":[],"name":"getNumberOfOrdersWaitingForCourier","outputs":[{"internalType":"uint256","name":"","type":"uint256"}],"stateMutability":"view","type":"function"},{"inputs":[],"name":"getNumberOfRestaurants","outputs":[{"internalType":"uint256","name":"","type":"uint256"}],"stateMutability":"view","type":"function"},{"inputs":[{"internalType":"uint256","name":"orderId","type":"uint256"}],"name":"getOrderItemsAndQuantities","outputs":[{"components":[{"internalType":"uint256","name":"id","type":"uint256"},{"internalType":"string","name":"name","type":"string"},{"internalType":"string","name":"description","type":"string"},{"internalType":"uint256","name":"price","type":"uint256"},{"internalType":"bool","name":"available","type":"bool"}],"internalType":"struct FoodDelivery.Item[]","name":"","type":"tuple[]"},{"internalType":"uint256[]","name":"","type":"uint256[]"}],"stateMutability":"view","type":"function"},{"inputs":[{"internalType":"enum FoodDelivery.OrderStatus","name":"status","type":"uint8"}],"name":"getOrdersByStatus","outputs":[{"components":[{"internalType":"uint256","name":"id","type":"uint256"},{"internalType":"address","name":"restaurantAddr","type":"address"},{"internalType":"address","name":"clientAddr","type":"address"},{"internalType":"address","name":"courierAddr","type":"address"},{"internalType":"uint256[]","name":"itemIndices","type":"uint256[]"},{"internalType":"uint256[]","name":"quantities","type":"uint256[]"},{"internalType":"uint256","name":"deliveryFee","type":"uint256"},{"internalType":"uint256","name":"totalPrice","type":"uint256"},{"internalType":"string","name":"deliveryAddress","type":"string"},{"internalType":"enum FoodDelivery.OrderStatus","name":"status","type":"uint8"},{"internalType":"uint256","name":"maxPreparationTime","type":"uint256"},{"internalType":"uint256","name":"maxDeliveryTime","type":"uint256"},{"internalType":"uint256","name":"preparationStartTime","type":"uint256"},{"internalType":"uint256","name":"deliveryStartTime","type":"uint256"},{"internalType":"uint256","name":"refundAmount","type":"uint256"}],"internalType":"struct FoodDelivery.Order[]","name":"","type":"tuple[]"}],"stateMutability":"view","type":"function"},{"inputs":[{"internalType":"address","name":"courierAddr","type":"address"}],"name":"getOrdersForCouriers","outputs":[{"components":[{"internalType":"uint256","name":"id","type":"uint256"},{"internalType":"address","name":"restaurantAddr","type":"address"},{"internalType":"address","name":"clientAddr","type":"address"},{"internalType":"address","name":"courierAddr","type":"address"},{"internalType":"uint256[]","name":"itemIndices","type":"uint256[]"},{"internalType":"uint256[]","name":"quantities","type":"uint256[]"},{"internalType":"uint256","name":"deliveryFee","type":"uint256"},{"internalType":"uint256","name":"totalPrice","type":"uint256"},{"internalType":"string","name":"deliveryAddress","type":"string"},{"internalType":"enum FoodDelivery.OrderStatus","name":"status","type":"uint8"},{"internalType":"uint256","name":"maxPreparationTime","type":"uint256"},{"internalType":"uint256","name":"maxDeliveryTime","type":"uint256"},{"internalType":"uint256","name":"preparationStartTime","type":"uint256"},{"internalType":"uint256","name":"deliveryStartTime","type":"uint256"},{"internalType":"uint256","name":"refundAmount","type":"uint256"}],"internalType":"struct FoodDelivery.Order[]","name":"","type":"tuple[]"}],"stateMutability":"view","type":"function"},{"inputs":[{"internalType":"uint256","name":"usdPrice","type":"uint256"}],"name":"getPriceInEth","outputs":[{"internalType":"uint256","name":"","type":"uint256"}],"stateMutability":"view","type":"function"},{"inputs":[{"internalType":"uint256","name":"orderId","type":"uint256"}],"name":"getReview","outputs":[{"components":[{"internalType":"uint256","name":"orderId","type":"uint256"},{"internalType":"uint256","name":"rating","type":"uint256"},{"internalType":"string","name":"comment","type":"string"}],"internalType":"struct FoodDelivery.Review","name":"","type":"tuple"}],"stateMutability":"view","type":"function"},{"inputs":[{"internalType":"address","name":"restaurantAddr","type":"address"},{"internalType":"uint256[]","name":"itemIds","type":"uint256[]"},{"internalType":"uint256[]","name":"quantities","type":"uint256[]"},{"internalType":"uint256","name":"deliveryFee","type":"uint256"}],"name":"getWeiPriceForOrder","outputs":[{"internalType":"uint256","name":"","type":"uint256"},{"internalType":"uint256","name":"","type":"uint256"}],"stateMutability":"view","type":"function"},{"inputs":[{"internalType":"uint256","name":"orderId","type":"uint256"}],"name":"increaseDeliveryFee","outputs":[],"stateMutability":"payable","type":"function"},{"inputs":[{"internalType":"uint256","name":"orderId","type":"uint256"}],"name":"orderDelivered","outputs":[],"stateMutability":"nonpayable","type":"function"},{"inputs":[{"internalType":"uint256","name":"orderId","type":"uint256"}],"name":"orderDelivering","outputs":[],"stateMutability":"nonpayable","type":"function"},{"inputs":[{"internalType":"uint256","name":"orderId","type":"uint256"}],"name":"orderReadyToDeliver","outputs":[],"stateMutability":"nonpayable","type":"function"},{"inputs":[{"internalType":"uint256","name":"","type":"uint256"}],"name":"orders","outputs":[{"internalType":"uint256","name":"id","type":"uint256"},{"internalType":"address","name":"restaurantAddr","type":"address"},{"internalType":"address","name":"clientAddr","type":"address"},{"internalType":"address","name":"courierAddr","type":"address"},{"internalType":"uint256","name":"deliveryFee","type":"uint256"},{"internalType":"uint256","name":"totalPrice","type":"uint256"},{"internalType":"string","name":"deliveryAddress","type":"string"},{"internalType":"enum FoodDelivery.OrderStatus","name":"status","type":"uint8"},{"internalType":"uint256","name":"maxPreparationTime","type":"uint256"},{"internalType":"uint256","name":"maxDeliveryTime","type":"uint256"},{"internalType":"uint256","name":"preparationStartTime","type":"uint256"},{"internalType":"uint256","name":"deliveryStartTime","type":"uint256"},{"internalType":"uint256","name":"refundAmount","type":"uint256"}],"stateMutability":"view","type":"function"},{"inputs":[{"internalType":"uint256","name":"","type":"uint256"}],"name":"ordersWaitingForCourier","outputs":[{"internalType":"uint256","name":"","type":"uint256"}],"stateMutability":"view","type":"function"},{"inputs":[{"internalType":"address","name":"restaurantAddr","type":"address"},{"internalType":"uint256[]","name":"itemIds","type":"uint256[]"},{"internalType":"uint256[]","name":"quantities","type":"uint256[]"},{"internalType":"uint256","name":"deliveryFee","type":"uint256"},{"internalType":"string","name":"deliveryAddress","type":"string"}],"name":"placeOrder","outputs":[],"stateMutability":"payable","type":"function"},{"inputs":[{"internalType":"uint256","name":"orderId","type":"uint256"},{"internalType":"uint256","name":"rating","type":"uint256"},{"internalType":"string","name":"comment","type":"string"}],"name":"placeReview","outputs":[],"stateMutability":"nonpayable","type":"function"},{"inputs":[{"internalType":"string","name":"name","type":"string"}],"name":"registerClient","outputs":[],"stateMutability":"nonpayable","type":"function"},{"inputs":[{"internalType":"string","name":"name","type":"string"},{"internalType":"string","name":"description","type":"string"},{"internalType":"string","name":"physicalAddress","type":"string"}],"name":"registerRestaurant","outputs":[],"stateMutability":"nonpayable","type":"function"},{"inputs":[{"internalType":"address","name":"","type":"address"},{"internalType":"uint256","name":"","type":"uint256"}],"name":"restaurantToOrdersIds","outputs":[{"internalType":"uint256","name":"","type":"uint256"}],"stateMutability":"view","type":"function"},{"inputs":[{"internalType":"address","name":"","type":"address"}],"name":"restaurants","outputs":[{"internalType":"address","name":"addr","type":"address"},{"internalType":"string","name":"name","type":"string"},{"internalType":"string","name":"description","type":"string"},{"internalType":"string","name":"physicalAddress","type":"string"}],"stateMutability":"view","type":"function"},{"inputs":[{"internalType":"uint256","name":"","type":"uint256"}],"name":"restaurantsAddr","outputs":[{"internalType":"address","name":"","type":"address"}],"stateMutability":"view","type":"function"},{"inputs":[{"internalType":"uint256","name":"","type":"uint256"}],"name":"reviews","outputs":[{"internalType":"uint256","name":"orderId","type":"uint256"},{"internalType":"uint256","name":"rating","type":"uint256"},{"internalType":"string","name":"comment","type":"string"}],"stateMutability":"view","type":"function"},{"inputs":[{"internalType":"uint256","name":"orderId","type":"uint256"},{"internalType":"uint256","name":"maxDeliveryTime","type":"uint256"}],"name":"takeOrder","outputs":[],"stateMutability":"nonpayable","type":"function"},{"inputs":[{"internalType":"uint256","name":"id","type":"uint256"},{"internalType":"string","name":"name","type":"string"},{"internalType":"string","name":"description","type":"string"},{"internalType":"uint256","name":"price","type":"uint256"}],"name":"updateItem","outputs":[{"internalType":"uint256","name":"","type":"uint256"}],"stateMutability":"nonpayable","type":"function"}],"bytecode":"60806040526000600a553480156200001657600080fd5b50604051620052973803806200529783398101604081905262000039916200005f565b600b80546001600160a01b0319166001600160a01b039290921691909117905562000091565b6000602082840312156200007257600080fd5b81516001600160a01b03811681146200008a57600080fd5b9392505050565b6151f680620000a16000396000f3fe6080604052600436106102725760003560e01c8063747cf8c61161014f578063bdace182116100c1578063e742a1821161007a578063e742a18214610832578063e83ddcea14610852578063eff6ed6b14610881578063f13b84b614610896578063f59ac62a146108b6578063fedf1a87146108d657600080fd5b8063bdace1821461074e578063be47dca11461076e578063c59c521a14610783578063ccbdb85c146107bc578063d3168a66146107dc578063dee9e1641461081257600080fd5b80639827e44d116101135780639827e44d14610682578063990581b6146106a25780639b51bd21146106cf5780639cbcfed5146106e2578063a85c38ef14610702578063abfd06871461073b57600080fd5b8063747cf8c6146105e057806385b6ec061461060057806387734400146106205780638ce2ec791461064257806392184bfb1461066257600080fd5b80633d05a334116101e857806361eed2a9116101ac57806361eed2a914610503578063626e388b1461053157806364432eb81461055e57806368ad5b831461057e5780636d4166e9146105ab578063708d2612146105c057600080fd5b80633d05a3341461043557806342f6fb29146104555780634c6448fe1461048d5780634d649a42146104ad578063514fcac7146104e357600080fd5b80631ae78a851161023a5780631ae78a8514610342578063226affb814610362578063236cd7dc146103825780632eab93cb146103b257806337a3f817146103d25780633a2d20d11461040057600080fd5b8063026828931461027757806306a6034f146102aa5780630bbacb20146102ca5780630bdc3b22146102ec5780631569e85814610322575b600080fd5b34801561028357600080fd5b50610297610292366004614370565b6108f6565b6040519081526020015b60405180910390f35b3480156102b657600080fd5b506102976102c53660046143e2565b610927565b3480156102d657600080fd5b506102ea6102e5366004614463565b610a4f565b005b3480156102f857600080fd5b506102976103073660046144b5565b6001600160a01b031660009081526005602052604090205490565b34801561032e57600080fd5b506102ea61033d3660046144d7565b610c24565b34801561034e57600080fd5b506102ea61035d366004614570565b610cbf565b34801561036e57600080fd5b5061029761037d366004614570565b610dbf565b34801561038e57600080fd5b506103a261039d3660046144b5565b610ef0565b6040516102a194939291906145cf565b3480156103be57600080fd5b506102ea6103cd366004614624565b6110bb565b3480156103de57600080fd5b506103f26103ed366004614570565b6111e0565b6040516102a192919061472e565b34801561040c57600080fd5b5061042061041b366004614797565b61150e565b604080519283526020830191909152016102a1565b34801561044157600080fd5b506102ea610450366004614624565b61163d565b34801561046157600080fd5b50600b54610475906001600160a01b031681565b6040516001600160a01b0390911681526020016102a1565b34801561049957600080fd5b506102ea6104a8366004614807565b6117de565b3480156104b957600080fd5b506102976104c83660046144b5565b6001600160a01b031660009081526004602052604090205490565b3480156104ef57600080fd5b506102ea6104fe366004614570565b611856565b34801561050f57600080fd5b5061052361051e3660046144b5565b611c6d565b6040516102a1929190614848565b34801561053d57600080fd5b5061055161054c3660046144b5565b611d1d565b6040516102a191906148a4565b34801561056a57600080fd5b506102976105793660046149e5565b612056565b34801561058a57600080fd5b5061059e610599366004614370565b612172565b6040516102a19190614a58565b3480156105b757600080fd5b50600854610297565b3480156105cc57600080fd5b506102976105db366004614570565b61233d565b3480156105ec57600080fd5b506105516105fb3660046144b5565b61235e565b34801561060c57600080fd5b5061047561061b366004614570565b61268f565b34801561062c57600080fd5b506106356126b9565b6040516102a19190614a6b565b34801561064e57600080fd5b5061055161065d366004614b2f565b612b44565b34801561066e57600080fd5b506102ea61067d366004614570565b612ede565b34801561068e57600080fd5b5061029761069d366004614370565b612f2c565b3480156106ae57600080fd5b506106c26106bd366004614570565b612f48565b6040516102a19190614b50565b6102ea6106dd366004614570565b613037565b3480156106ee57600080fd5b506102ea6106fd366004614570565b613138565b34801561070e57600080fd5b5061072261071d366004614570565b613161565b6040516102a19d9c9b9a99989796959493929190614b7f565b6102ea610749366004614c0b565b613277565b34801561075a57600080fd5b50610475610769366004614570565b6136b8565b34801561077a57600080fd5b50600954610297565b34801561078f57600080fd5b5061029761079e3660046144b5565b6001600160a01b031660009081526020819052604090206004015490565b3480156107c857600080fd5b506102ea6107d7366004614570565b6136c8565b3480156107e857600080fd5b506102976107f73660046144b5565b6001600160a01b031660009081526002602052604090205490565b34801561081e57600080fd5b5061029761082d366004614370565b61384e565b34801561083e57600080fd5b506102ea61084d366004614570565b61386a565b34801561085e57600080fd5b5061087261086d366004614570565b613bc9565b6040516102a193929190614cbe565b34801561088d57600080fd5b50600654610297565b3480156108a257600080fd5b506102976108b13660046144b5565b613c74565b3480156108c257600080fd5b506105516108d13660046144b5565b613d52565b3480156108e257600080fd5b506102ea6108f1366004614570565b614083565b6004602052816000526040600020818154811061091257600080fd5b90600052602060002001600091509150505481565b33600090815260208181526040808320815160a0810183528a81528251601f8a0185900485028101850190935288835290929091828201918a908a9081908401838280828437600092019190915250505090825250604080516020601f8901819004810282018101909252878152918101919088908890819084018382808284376000920191909152505050908252506020810185905260016040909101526004820180548a9081106109dc576109dc614cdd565b9060005260206000209060050201600082015181600001556020820151816001019081610a099190614d8b565b5060408201516002820190610a1e9082614d8b565b50606082015160038201556080909101516004909101805460ff191691151591909117905550959695505050505050565b600060078581548110610a6457610a64614cdd565b90600052602060002090600f0201905084816000015414610aa05760405162461bcd60e51b8152600401610a9790614e4a565b60405180910390fd5b60028101546001600160a01b03163314610b225760405162461bcd60e51b815260206004820152603760248201527f4f6e6c792074686520636c69656e742077686f20706c6163656420746865206f60448201527f726465722063616e206c656176652061207265766965770000000000000000006064820152608401610a97565b6005600982015460ff166006811115610b3d57610b3d61486c565b14610b985760405162461bcd60e51b815260206004820152602560248201527f4f6e6c792064656c697665726564206f72646572732063616e206265207265766044820152641a595dd95960da1b6064820152608401610a97565b604051806060016040528086815260200185815260200184848080601f01602080910402602001604051908101604052809392919081815260200183838082843760009201829052509390945250508781526003602090815260409182902084518155908401516001820155908301519091506002820190610c1a9082614d8b565b5050505050505050565b33600081815260208190526040902080546001600160a01b031916909117815560018101610c53878983614e8c565b5060028101610c63858783614e8c565b5060038101610c73838583614e8c565b5050600880546001810182556000919091527ff3f7a9fe364faab93b216da50a3214154f22a0a2b415b23a84c8169e8b636ee30180546001600160a01b03191633179055505050505050565b600060078281548110610cd457610cd4614cdd565b90600052602060002090600f0201905081816000015414610d075760405162461bcd60e51b8152600401610a9790614e4a565b6003600982015460ff166006811115610d2257610d2261486c565b14610d2c57600080fd5b60038101546001600160a01b03163314610da45760405162461bcd60e51b815260206004820152603360248201527f4f72646572206d7573742062652064656c69766572656420627920636f757269604482015272195c881d1a185d081858d8d95c1d1959081a5d606a1b6064820152608401610a97565b6009810180546004919060ff19166001835b02179055505050565b600080600b60009054906101000a90046001600160a01b03166001600160a01b031663feaf968c6040518163ffffffff1660e01b815260040160a060405180830381865afa158015610e15573d6000803e3d6000fd5b505050506040513d601f19601f82011682018060405250810190610e399190614f66565b5050509150506000600b60009054906101000a90046001600160a01b03166001600160a01b031663313ce5676040518163ffffffff1660e01b8152600401602060405180830381865afa158015610e94573d6000803e3d6000fd5b505050506040513d601f19601f82011682018060405250810190610eb89190614fb6565b9050600082610ec8836012614fef565b610ed390600a6150ec565b610edd90876150fb565b610ee79190615112565b95945050505050565b600060208190529081526040902080546001820180546001600160a01b039092169291610f1c90614d09565b80601f0160208091040260200160405190810160405280929190818152602001828054610f4890614d09565b8015610f955780601f10610f6a57610100808354040283529160200191610f95565b820191906000526020600020905b815481529060010190602001808311610f7857829003601f168201915b505050505090806002018054610faa90614d09565b80601f0160208091040260200160405190810160405280929190818152602001828054610fd690614d09565b80156110235780601f10610ff857610100808354040283529160200191611023565b820191906000526020600020905b81548152906001019060200180831161100657829003601f168201915b50505050509080600301805461103890614d09565b80601f016020809104026020016040519081016040528092919081815260200182805461106490614d09565b80156110b15780601f10611086576101008083540402835291602001916110b1565b820191906000526020600020905b81548152906001019060200180831161109457829003601f168201915b5050505050905084565b6000600783815481106110d0576110d0614cdd565b90600052602060002090600f02019050828160000154146111035760405162461bcd60e51b8152600401610a9790614e4a565b6001600982015460ff16600681111561111e5761111e61486c565b146111795760405162461bcd60e51b815260206004820152602560248201527f4f72646572206d75737420626520696e207468652070726f63657373696e6720604482015264737461746560d81b6064820152608401610a97565b600381018054336001600160a01b03199091168117909155600b820183905542600d83015560098201805460ff19166002179055600090815260056020908152604082208354815460018101835591845291909220909101556111db83614196565b505050565b6060806000600784815481106111f8576111f8614cdd565b90600052602060002090600f020190508381600001541461122b5760405162461bcd60e51b8152600401610a9790614e4a565b60018101546001600160a01b0316600090815260208190526040812060048301549091906001600160401b0381111561126657611266614cf3565b6040519080825280602002602001820160405280156112cb57816020015b6112b86040518060a00160405280600081526020016060815260200160608152602001600081526020016000151581525090565b8152602001906001900390816112845790505b50905060005b60048401548110156114aa5760008460040182815481106112f4576112f4614cdd565b9060005260206000200154905083600401818154811061131657611316614cdd565b90600052602060002090600502016040518060a00160405290816000820154815260200160018201805461134990614d09565b80601f016020809104026020016040519081016040528092919081815260200182805461137590614d09565b80156113c25780601f10611397576101008083540402835291602001916113c2565b820191906000526020600020905b8154815290600101906020018083116113a557829003601f168201915b505050505081526020016002820180546113db90614d09565b80601f016020809104026020016040519081016040528092919081815260200182805461140790614d09565b80156114545780601f1061142957610100808354040283529160200191611454565b820191906000526020600020905b81548152906001019060200180831161143757829003601f168201915b50505091835250506003820154602082015260049091015460ff161515604090910152835184908490811061148b5761148b614cdd565b60200260200101819052505080806114a290615134565b9150506112d1565b508083600501808054806020026020016040519081016040528092919081815260200182805480156114fb57602002820191906000526020600020905b8154815260200190600101908083116114e7575b5050505050905094509450505050915091565b6001600160a01b0386166000908152602081905260408120819081805b8881101561161f5760048301548a8a8381811061154a5761154a614cdd565b90506020020135106115905760405162461bcd60e51b815260206004820152600f60248201526e125b9d985b1a59081a5d195b481251608a1b6044820152606401610a97565b6000836004018b8b848181106115a8576115a8614cdd565b90506020020135815481106115bf576115bf614cdd565b906000526020600020906005020190508888838181106115e1576115e1614cdd565b905060200201356115f58260030154610dbf565b6115ff91906150fb565b611609908461514d565b925050808061161790615134565b91505061152b565b50600061162b86610dbf565b919b919a509098505050505050505050565b60006007838154811061165257611652614cdd565b90600052602060002090600f02019050828160000154146116855760405162461bcd60e51b8152600401610a9790614e4a565b60018101546001600160a01b031633146117075760405162461bcd60e51b815260206004820152603e60248201527f4f6e6c79207468652072657374617572616e7420666f7220776869636820746860448201527f65206f7264657220776173206d6164652063616e2061636365707420697400006064820152608401610a97565b6000600982015460ff1660068111156117225761172261486c565b1461178e5760405162461bcd60e51b815260206004820152603660248201527f43616e206f6e6c7920616363657074206f726465727320666f7220776869636860448201527520746865207374617475732069732050454e44494e4760501b6064820152608401610a97565b600a81019190915542600c820155600901805460ff191660019081179091556006805491820181556000527ff652222313e28459528d920b65115c16c04f3efc82aaedc97be59f3f377c0d3f0155565b33600081815260016020819052604090912080546001600160a01b0319169092178255810161180e838583614e8c565b5050600980546001810182556000919091527f6e1540171b6c0c960b71a7020d9f60077f6af931a8bbf590da0223dacf75c7af0180546001600160a01b031916331790555050565b60006007828154811061186b5761186b614cdd565b90600052602060002090600f020190508181600001541461189e5760405162461bcd60e51b8152600401610a9790614e4a565b60028101546001600160a01b031633146119045760405162461bcd60e51b815260206004820152602160248201527f4f72646572206d7573742062652063616e63656c6c656420627920636c69656e6044820152601d60fa1b6064820152608401610a97565b6005600982015460ff16600681111561191f5761191f61486c565b1415801561194657506006600982015460ff1660068111156119435761194361486c565b14155b6119b85760405162461bcd60e51b815260206004820152603860248201527f4f726465722063616e6e6f7420626520696e2044454c495645524544206f722060448201527f43414e43454c4c45442073746174757320616c726561647900000000000000006064820152608401610a97565b600281015460018201546001600160a01b0391821691166000600984015460ff1660068111156119ea576119ea61486c565b1480611a0e57506001600984015460ff166006811115611a0c57611a0c61486c565b145b80611a3157506002600984015460ff166006811115611a2f57611a2f61486c565b145b15611a8f57816001600160a01b03166108fc84600601548560070154611a57919061514d565b6040518115909202916000818181858888f19350505050611a8a5760405162461bcd60e51b8152600401610a9790615160565b611c5a565b6003600984015460ff166006811115611aaa57611aaa61486c565b03611b675760078301546040516001600160a01b0383169180156108fc02916000818181858888f19350505050611b235760405162461bcd60e51b815260206004820152601b60248201527f4661696c656420746f20726566756e642072657374617572616e7400000000006044820152606401610a97565b60068301546040516001600160a01b0384169180156108fc02916000818181858888f19350505050611a8a5760405162461bcd60e51b8152600401610a9790615160565b600283015460078401546040516001600160a01b039283169284169180156108fc02916000818181858888f19350505050611be45760405162461bcd60e51b815260206004820152601b60248201527f4661696c656420746f20726566756e642072657374617572616e7400000000006044820152606401610a97565b60068401546040516001600160a01b0383169180156108fc02916000818181858888f19350505050611c585760405162461bcd60e51b815260206004820152601860248201527f4661696c656420746f20726566756e6420636f757269657200000000000000006044820152606401610a97565b505b5050600901805460ff1916600617905550565b6001602081905260009182526040909120805491810180546001600160a01b0390931692611c9a90614d09565b80601f0160208091040260200160405190810160405280929190818152602001828054611cc690614d09565b8015611d135780601f10611ce857610100808354040283529160200191611d13565b820191906000526020600020905b815481529060010190602001808311611cf657829003601f168201915b5050505050905082565b6001600160a01b0381166000908152600460209081526040808320805482518185028101850190935280835260609493830182828015611d7c57602002820191906000526020600020905b815481526020019060010190808311611d68575b50505050509050600081516001600160401b03811115611d9e57611d9e614cf3565b604051908082528060200260200182016040528015611dd757816020015b611dc4614252565b815260200190600190039081611dbc5790505b50905060005b825181101561204e576000838281518110611dfa57611dfa614cdd565b6020026020010151905060078181548110611e1757611e17614cdd565b6000918252602091829020604080516101e081018252600f9093029091018054835260018101546001600160a01b03908116848601526002820154811684840152600382015416606084015260048101805483518187028101870190945280845293949193608086019392830182828015611eb157602002820191906000526020600020905b815481526020019060010190808311611e9d575b5050505050815260200160058201805480602002602001604051908101604052809291908181526020018280548015611f0957602002820191906000526020600020905b815481526020019060010190808311611ef5575b505050505081526020016006820154815260200160078201548152602001600882018054611f3690614d09565b80601f0160208091040260200160405190810160405280929190818152602001828054611f6290614d09565b8015611faf5780601f10611f8457610100808354040283529160200191611faf565b820191906000526020600020905b815481529060010190602001808311611f9257829003601f168201915b5050509183525050600982015460209091019060ff166006811115611fd657611fd661486c565b6006811115611fe757611fe761486c565b8152602001600a8201548152602001600b8201548152602001600c8201548152602001600d8201548152602001600e8201548152505083838151811061202f5761202f614cdd565b602002602001018190525050808061204690615134565b915050611ddd565b509392505050565b33600090815260208181526040808320600481018054835160a0810185528181528451601f8c018790048702810187019095528a855292949093919291828201918c908c9081908401838280828437600092019190915250505090825250604080516020601f8b0181900481028201810190925289815291810191908a908a90819084018382808284376000920182905250938552505050602080830189905260016040909301839052845480840186559482529081902083516005909502019384558201519192919082019061212d9082614d8b565b50604082015160028201906121429082614d8b565b50606082015160038201556080909101516004909101805460ff1916911515919091179055979650505050505050565b6121a66040518060a00160405280600081526020016060815260200160608152602001600081526020016000151581525090565b6001600160a01b03831660009081526020819052604090206004018054839081106121d3576121d3614cdd565b90600052602060002090600502016040518060a00160405290816000820154815260200160018201805461220690614d09565b80601f016020809104026020016040519081016040528092919081815260200182805461223290614d09565b801561227f5780601f106122545761010080835404028352916020019161227f565b820191906000526020600020905b81548152906001019060200180831161226257829003601f168201915b5050505050815260200160028201805461229890614d09565b80601f01602080910402602001604051908101604052809291908181526020018280546122c490614d09565b80156123115780601f106122e657610100808354040283529160200191612311565b820191906000526020600020905b8154815290600101906020018083116122f457829003601f168201915b50505091835250506003820154602082015260049091015460ff16151560409091015290505b92915050565b6006818154811061234d57600080fd5b600091825260209091200154905081565b6001600160a01b03811660009081526002602090815260408083208054825181850281018501909352808352606094938301828280156123bd57602002820191906000526020600020905b8154815260200190600101908083116123a9575b50505050509050600081516001600160401b038111156123df576123df614cf3565b60405190808252806020026020018201604052801561241857816020015b612405614252565b8152602001906001900390816123fd5790505b50905060005b825181101561204e57600083828151811061243b5761243b614cdd565b602002602001015190506007818154811061245857612458614cdd565b6000918252602091829020604080516101e081018252600f9093029091018054835260018101546001600160a01b039081168486015260028201548116848401526003820154166060840152600481018054835181870281018701909452808452939491936080860193928301828280156124f257602002820191906000526020600020905b8154815260200190600101908083116124de575b505050505081526020016005820180548060200260200160405190810160405280929190818152602001828054801561254a57602002820191906000526020600020905b815481526020019060010190808311612536575b50505050508152602001600682015481526020016007820154815260200160088201805461257790614d09565b80601f01602080910402602001604051908101604052809291908181526020018280546125a390614d09565b80156125f05780601f106125c5576101008083540402835291602001916125f0565b820191906000526020600020905b8154815290600101906020018083116125d357829003601f168201915b5050509183525050600982015460209091019060ff1660068111156126175761261761486c565b60068111156126285761262861486c565b8152602001600a8201548152602001600b8201548152602001600c8201548152602001600d8201548152602001600e8201548152505083838151811061267057612670614cdd565b602002602001018190525050808061268790615134565b91505061241e565b6008818154811061269f57600080fd5b6000918252602090912001546001600160a01b0316905081565b6008546060906000906001600160401b038111156126d9576126d9614cf3565b60405190808252806020026020018201604052801561274557816020015b6127326040518060a0016040528060006001600160a01b03168152602001606081526020016060815260200160608152602001606081525090565b8152602001906001900390816126f75790505b50905060005b600854811015612b3e5760006008828154811061276a5761276a614cdd565b60009182526020808320909101546001600160a01b03908116808452838352604093849020845160a08101909552805490921684526001820180549195509193928492908401916127ba90614d09565b80601f01602080910402602001604051908101604052809291908181526020018280546127e690614d09565b80156128335780601f1061280857610100808354040283529160200191612833565b820191906000526020600020905b81548152906001019060200180831161281657829003601f168201915b5050505050815260200160028201805461284c90614d09565b80601f016020809104026020016040519081016040528092919081815260200182805461287890614d09565b80156128c55780601f1061289a576101008083540402835291602001916128c5565b820191906000526020600020905b8154815290600101906020018083116128a857829003601f168201915b505050505081526020016003820180546128de90614d09565b80601f016020809104026020016040519081016040528092919081815260200182805461290a90614d09565b80156129575780601f1061292c57610100808354040283529160200191612957565b820191906000526020600020905b81548152906001019060200180831161293a57829003601f168201915b5050505050815260200160048201805480602002602001604051908101604052809291908181526020016000905b82821015612b0457838290600052602060002090600502016040518060a0016040529081600082015481526020016001820180546129c290614d09565b80601f01602080910402602001604051908101604052809291908181526020018280546129ee90614d09565b8015612a3b5780601f10612a1057610100808354040283529160200191612a3b565b820191906000526020600020905b815481529060010190602001808311612a1e57829003601f168201915b50505050508152602001600282018054612a5490614d09565b80601f0160208091040260200160405190810160405280929190818152602001828054612a8090614d09565b8015612acd5780601f10612aa257610100808354040283529160200191612acd565b820191906000526020600020905b815481529060010190602001808311612ab057829003601f168201915b5050509183525050600382015460208083019190915260049092015460ff1615156040909101529082526001929092019101612985565b5050505081525050848481518110612b1e57612b1e614cdd565b602002602001018190525050508080612b3690615134565b91505061274b565b50919050565b60606000805b600754811015612bc657836006811115612b6657612b6661486c565b60078281548110612b7957612b79614cdd565b600091825260209091206009600f90920201015460ff166006811115612ba157612ba161486c565b03612bb45781612bb081615134565b9250505b80612bbe81615134565b915050612b4a565b506000816001600160401b03811115612be157612be1614cf3565b604051908082528060200260200182016040528015612c1a57816020015b612c07614252565b815260200190600190039081612bff5790505b5090506000805b600754811015612ed457856006811115612c3d57612c3d61486c565b60078281548110612c5057612c50614cdd565b600091825260209091206009600f90920201015460ff166006811115612c7857612c7861486c565b03612ec25760078181548110612c9057612c90614cdd565b6000918252602091829020604080516101e081018252600f9093029091018054835260018101546001600160a01b03908116848601526002820154811684840152600382015416606084015260048101805483518187028101870190945280845293949193608086019392830182828015612d2a57602002820191906000526020600020905b815481526020019060010190808311612d16575b5050505050815260200160058201805480602002602001604051908101604052809291908181526020018280548015612d8257602002820191906000526020600020905b815481526020019060010190808311612d6e575b505050505081526020016006820154815260200160078201548152602001600882018054612daf90614d09565b80601f0160208091040260200160405190810160405280929190818152602001828054612ddb90614d09565b8015612e285780601f10612dfd57610100808354040283529160200191612e28565b820191906000526020600020905b815481529060010190602001808311612e0b57829003601f168201915b5050509183525050600982015460209091019060ff166006811115612e4f57612e4f61486c565b6006811115612e6057612e6061486c565b8152602001600a8201548152602001600b8201548152602001600c8201548152602001600d8201548152602001600e82015481525050838381518110612ea857612ea8614cdd565b60200260200101819052508180612ebe90615134565b9250505b80612ecc81615134565b915050612c21565b5090949350505050565b33600090815260208190526040812060048101805491929184908110612f0657612f06614cdd565b60009182526020909120600590910201600401805460ff19169115159190911790555050565b6005602052816000526040600020818154811061091257600080fd5b612f6c60405180606001604052806000815260200160008152602001606081525090565b600360008381526020019081526020016000206040518060600160405290816000820154815260200160018201548152602001600282018054612fae90614d09565b80601f0160208091040260200160405190810160405280929190818152602001828054612fda90614d09565b80156130275780601f10612ffc57610100808354040283529160200191613027565b820191906000526020600020905b81548152906001019060200180831161300a57829003601f168201915b5050505050815250509050919050565b60006007828154811061304c5761304c614cdd565b90600052602060002090600f020190508181600001541461307f5760405162461bcd60e51b8152600401610a9790614e4a565b6001600982015460ff16600681111561309a5761309a61486c565b146130a457600080fd5b60028101546001600160a01b0316331461311b5760405162461bcd60e51b815260206004820152603260248201527f4f726465722064656c697665727920666565206d75737420626520696e637265604482015271185cd95908189e481d1a194818db1a595b9d60721b6064820152608401610a97565b3481600601600082825461312f919061514d565b90915550505050565b3360009081526020819052604090206004810180546001919084908110612f0657612f06614cdd565b6007818154811061317157600080fd5b60009182526020909120600f909102018054600182015460028301546003840154600685015460078601546008870180549698506001600160a01b03958616979486169695909316949193909290916131c990614d09565b80601f01602080910402602001604051908101604052809291908181526020018280546131f590614d09565b80156132425780601f1061321757610100808354040283529160200191613242565b820191906000526020600020905b81548152906001019060200180831161322557829003601f168201915b5050506009840154600a850154600b860154600c870154600d880154600e90980154969760ff9094169692955090935091908d565b6001600160a01b03808916600090815260208190526040902080549091166132e15760405162461bcd60e51b815260206004820152601a60248201527f496e76616c69642072657374617572616e7420616464726573730000000000006044820152606401610a97565b60005b8781101561339d578160040189898381811061330257613302614cdd565b905060200201358154811061331957613319614cdd565b600091825260209091206004600590920201015460ff16151560011461338d5760405162461bcd60e51b815260206004820152602360248201527f4f7264657220636f6e7461696e7320756e617661696c61626c65206974656d7360448201526217171760e91b6064820152608401610a97565b61339681615134565b90506132e4565b506000806133af8b8b8b8b8b8b61150e565b90925090506133be818361514d565b3410156134055760405162461bcd60e51b8152602060048201526015602482015274125b98dbdc9c9958dd08185b5bdd5b9d081c185a59605a1b6044820152606401610a97565b600060078054905090506007604051806101e001604052808381526020018e6001600160a01b03168152602001336001600160a01b0316815260200160006001600160a01b031681526020018d8d808060200260200160405190810160405280939291908181526020018383602002808284376000920191909152505050908252506040805160208d810282810182019093528d82529283019290918e918e918291850190849080828437600092019190915250505090825250602080820186905260408083018890528051601f8b01839004830281018301909152898152606090920191908a908a90819084018382808284376000920182905250938552505050602080830182905260408084018390526060808501849052608080860185905260a0860185905260c0909501849052865460018082018955978552938390208651600f909502019384558583015196840180546001600160a01b039889166001600160a01b0319918216179091559186015160028501805491891691841691909117905585015160038401805491909716911617909455908201518051929391926135b892600485019201906142f4565b5060a082015180516135d49160058401916020909101906142f4565b5060c0820151600682015560e0820151600782015561010082015160088201906135fe9082614d8b565b5061012082015160098201805460ff191660018360068111156136235761362361486c565b0217905550610140820151600a820155610160820151600b820155610180820151600c8201556101a0820151600d8201556101c090910151600e90910155336000908152600260209081526040808320805460018181018355918552838520018590556001600160a01b039f909f16835260048252822080549e8f01815582529020909b019a909a5550505050505050505050565b6009818154811061269f57600080fd5b6000600782815481106136dd576136dd614cdd565b90600052602060002090600f02019050818160000154146137105760405162461bcd60e51b8152600401610a9790614e4a565b60018101546001600160a01b0316331461377e5760405162461bcd60e51b815260206004820152602960248201527f4f6e6c79207468652072657374617572616e742063616e206465636c696e65206044820152683a34329037b93232b960b91b6064820152608401610a97565b6000600982015460ff1660068111156137995761379961486c565b146137de5760405162461bcd60e51b81526020600482015260156024820152744f72646572206d7573742062652070656e64696e6760581b6044820152606401610a97565b6002810154600682015460078301546001600160a01b039092169182916108fc91613809919061514d565b6040518115909202916000818181858888f1935050505061383c5760405162461bcd60e51b8152600401610a9790615160565b50600901805460ff1916600617905550565b6002602052816000526040600020818154811061091257600080fd5b60006007828154811061387f5761387f614cdd565b90600052602060002090600f02019050818160000154146138b25760405162461bcd60e51b8152600401610a9790614e4a565b6004600982015460ff1660068111156138cd576138cd61486c565b146138d757600080fd5b60028101546001600160a01b031633146139465760405162461bcd60e51b815260206004820152602a60248201527f4f726465722064656c6976657279206d75737420626520636f6e6669726d656460448201526908189e4818db1a595b9d60b21b6064820152608401610a97565b600081600c015482600d015461395c9190615197565b9050600082600d0154426139709190615197565b9050600083600601548460070154613988919061514d565b9050600080600080600a905087600a01548711156139bf5760648860070154826139b291906150fb565b6139bc9190615112565b92505b87600b01548611156139ea5760648860060154826139dd91906150fb565b6139e79190615112565b91505b6001880154600389015460028a015460078b01546001600160a01b03938416939283169290911690600090613a20908890615197565b90506000868d60060154613a349190615197565b6040519091506001600160a01b0386169083156108fc029084906000818181858888f19350505050613ab45760405162461bcd60e51b8152602060048201526024808201527f4661696c656420746f2073656e64207061796d656e7420746f207265737461756044820152631c985b9d60e21b6064820152608401610a97565b6040516001600160a01b0385169082156108fc029083906000818181858888f19350505050613b2f5760405162461bcd60e51b815260206004820152602160248201527f4661696c656420746f2073656e64207061796d656e7420746f20636f757269656044820152603960f91b6064820152608401610a97565b6001600160a01b0383166108fc613b46898b61514d565b6040518115909202916000818181858888f19350505050613ba95760405162461bcd60e51b815260206004820181905260248201527f4661696c656420746f2073656e64207061796d656e7420746f20636c69656e746044820152606401610a97565b50505050600998909801805460ff19166005179055505050505050505050565b60036020526000908152604090208054600182015460028301805492939192613bf190614d09565b80601f0160208091040260200160405190810160405280929190818152602001828054613c1d90614d09565b8015613c6a5780601f10613c3f57610100808354040283529160200191613c6a565b820191906000526020600020905b815481529060010190602001808311613c4d57829003601f168201915b5050505050905083565b60008080805b6001600160a01b038516600090815260046020526040902054811015613d2d576001600160a01b0385166000908152600460205260408120805483908110613cc457613cc4614cdd565b9060005260206000200154905080600360008381526020019081526020016000206000015403613d1a57600081815260036020526040902060010154613d0a908561514d565b935082613d1681615134565b9350505b5080613d2581615134565b915050613c7a565b5080600003613d40575060009392505050565b613d4a8183615112565b949350505050565b6001600160a01b0381166000908152600560209081526040808320805482518185028101850190935280835260609493830182828015613db157602002820191906000526020600020905b815481526020019060010190808311613d9d575b50505050509050600081516001600160401b03811115613dd357613dd3614cf3565b604051908082528060200260200182016040528015613e0c57816020015b613df9614252565b815260200190600190039081613df15790505b50905060005b825181101561204e576000838281518110613e2f57613e2f614cdd565b6020026020010151905060078181548110613e4c57613e4c614cdd565b6000918252602091829020604080516101e081018252600f9093029091018054835260018101546001600160a01b03908116848601526002820154811684840152600382015416606084015260048101805483518187028101870190945280845293949193608086019392830182828015613ee657602002820191906000526020600020905b815481526020019060010190808311613ed2575b5050505050815260200160058201805480602002602001604051908101604052809291908181526020018280548015613f3e57602002820191906000526020600020905b815481526020019060010190808311613f2a575b505050505081526020016006820154815260200160078201548152602001600882018054613f6b90614d09565b80601f0160208091040260200160405190810160405280929190818152602001828054613f9790614d09565b8015613fe45780601f10613fb957610100808354040283529160200191613fe4565b820191906000526020600020905b815481529060010190602001808311613fc757829003601f168201915b5050509183525050600982015460209091019060ff16600681111561400b5761400b61486c565b600681111561401c5761401c61486c565b8152602001600a8201548152602001600b8201548152602001600c8201548152602001600d8201548152602001600e8201548152505083838151811061406457614064614cdd565b602002602001018190525050808061407b90615134565b915050613e12565b60006007828154811061409857614098614cdd565b90600052602060002090600f02019050818160000154146140cb5760405162461bcd60e51b8152600401610a9790614e4a565b6002600982015460ff1660068111156140e6576140e661486c565b146140f057600080fd5b60018101546001600160a01b031633146141805760405162461bcd60e51b8152602060048201526044602482018190527f4f72646572206d757374206265206d61726b656420726561647920746f206465908201527f6c69766572206279207468652072657374617572616e74206f6620746865206f606482015263393232b960e11b608482015260a401610a97565b6009810180546003919060ff1916600183610db6565b60005b60065481101561424e5781600682815481106141b7576141b7614cdd565b90600052602060002001540361423c57600680546141d790600190615197565b815481106141e7576141e7614cdd565b90600052602060002001546006828154811061420557614205614cdd565b6000918252602090912001556006805480614222576142226151aa565b600190038181906000526020600020016000905590555050565b8061424681615134565b915050614199565b5050565b604051806101e001604052806000815260200160006001600160a01b0316815260200160006001600160a01b0316815260200160006001600160a01b031681526020016060815260200160608152602001600081526020016000815260200160608152602001600060068111156142cb576142cb61486c565b815260200160008152602001600081526020016000815260200160008152602001600081525090565b82805482825590600052602060002090810192821561432f579160200282015b8281111561432f578251825591602001919060010190614314565b5061433b92915061433f565b5090565b5b8082111561433b5760008155600101614340565b80356001600160a01b038116811461436b57600080fd5b919050565b6000806040838503121561438357600080fd5b61438c83614354565b946020939093013593505050565b60008083601f8401126143ac57600080fd5b5081356001600160401b038111156143c357600080fd5b6020830191508360208285010111156143db57600080fd5b9250929050565b600080600080600080608087890312156143fb57600080fd5b8635955060208701356001600160401b038082111561441957600080fd5b6144258a838b0161439a565b9097509550604089013591508082111561443e57600080fd5b5061444b89828a0161439a565b979a9699509497949695606090950135949350505050565b6000806000806060858703121561447957600080fd5b843593506020850135925060408501356001600160401b0381111561449d57600080fd5b6144a98782880161439a565b95989497509550505050565b6000602082840312156144c757600080fd5b6144d082614354565b9392505050565b600080600080600080606087890312156144f057600080fd5b86356001600160401b038082111561450757600080fd5b6145138a838b0161439a565b9098509650602089013591508082111561452c57600080fd5b6145388a838b0161439a565b9096509450604089013591508082111561455157600080fd5b5061455e89828a0161439a565b979a9699509497509295939492505050565b60006020828403121561458257600080fd5b5035919050565b6000815180845260005b818110156145af57602081850181015186830182015201614593565b506000602082860101526020601f19601f83011685010191505092915050565b6001600160a01b03851681526080602082018190526000906145f390830186614589565b82810360408401526146058186614589565b905082810360608401526146198185614589565b979650505050505050565b6000806040838503121561463757600080fd5b50508035926020909101359150565b805182526000602082015160a0602085015261466560a0850182614589565b90506040830151848203604086015261467e8282614589565b915050606083015160608501526080830151151560808501528091505092915050565b6000815180845260208085019450848260051b860182860160005b858110156146e65783830389526146d4838351614646565b988501989250908401906001016146bc565b5090979650505050505050565b600081518084526020808501945080840160005b8381101561472357815187529582019590820190600101614707565b509495945050505050565b60408152600061474160408301856146a1565b8281036020840152610ee781856146f3565b60008083601f84011261476557600080fd5b5081356001600160401b0381111561477c57600080fd5b6020830191508360208260051b85010111156143db57600080fd5b600080600080600080608087890312156147b057600080fd5b6147b987614354565b955060208701356001600160401b03808211156147d557600080fd5b6147e18a838b01614753565b909750955060408901359150808211156147fa57600080fd5b5061444b89828a01614753565b6000806020838503121561481a57600080fd5b82356001600160401b0381111561483057600080fd5b61483c8582860161439a565b90969095509350505050565b6001600160a01b0383168152604060208201819052600090613d4a90830184614589565b634e487b7160e01b600052602160045260246000fd5b600781106148a057634e487b7160e01b600052602160045260246000fd5b9052565b60006020808301818452808551808352604092508286019150828160051b87010184880160005b838110156149d757603f19898403018552815180518452878101516001600160a01b039081168986015287820151811688860152606080830151909116908501526080808201516101e08287018190529190614929838801826146f3565b9250505060a0808301518683038288015261494483826146f3565b9250505060c080830151818701525060e080830151818701525061010080830151868303828801526149768382614589565b925050506101208083015161498d82880182614882565b50506101408281015190860152610160808301519086015261018080830151908601526101a080830151908601526101c091820151919094015293860193908601906001016148cb565b509098975050505050505050565b6000806000806000606086880312156149fd57600080fd5b85356001600160401b0380821115614a1457600080fd5b614a2089838a0161439a565b90975095506020880135915080821115614a3957600080fd5b50614a468882890161439a565b96999598509660400135949350505050565b6020815260006144d06020830184614646565b60006020808301818452808551808352604092508286019150828160051b87010184880160005b838110156149d757888303603f19018552815180516001600160a01b031684528781015160a089860181905290614acb82870182614589565b9150508782015185820389870152614ae38282614589565b91505060608083015186830382880152614afd8382614589565b9250505060808083015192508582038187015250614b1b81836146a1565b968901969450505090860190600101614a92565b600060208284031215614b4157600080fd5b8135600781106144d057600080fd5b60208152815160208201526020820151604082015260006040830151606080840152613d4a6080840182614589565b8d81526001600160a01b038d811660208301528c811660408301528b166060820152608081018a905260a081018990526101a060c08201819052600090614bc89083018a614589565b9050614bd760e0830189614882565b6101008201969096526101208101949094526101408401929092526101608301526101809091015298975050505050505050565b60008060008060008060008060a0898b031215614c2757600080fd5b614c3089614354565b975060208901356001600160401b0380821115614c4c57600080fd5b614c588c838d01614753565b909950975060408b0135915080821115614c7157600080fd5b614c7d8c838d01614753565b909750955060608b0135945060808b0135915080821115614c9d57600080fd5b50614caa8b828c0161439a565b999c989b5096995094979396929594505050565b838152826020820152606060408201526000610ee76060830184614589565b634e487b7160e01b600052603260045260246000fd5b634e487b7160e01b600052604160045260246000fd5b600181811c90821680614d1d57607f821691505b602082108103612b3e57634e487b7160e01b600052602260045260246000fd5b601f8211156111db57600081815260208120601f850160051c81016020861015614d645750805b601f850160051c820191505b81811015614d8357828155600101614d70565b505050505050565b81516001600160401b03811115614da457614da4614cf3565b614db881614db28454614d09565b84614d3d565b602080601f831160018114614ded5760008415614dd55750858301515b600019600386901b1c1916600185901b178555614d83565b600085815260208120601f198616915b82811015614e1c57888601518255948401946001909101908401614dfd565b5085821015614e3a5787850151600019600388901b60f8161c191681555b5050505050600190811b01905550565b60208082526022908201527f4f72646572207769746820676976656e20696420646f6573206e6f74206578696040820152611cdd60f21b606082015260800190565b6001600160401b03831115614ea357614ea3614cf3565b614eb783614eb18354614d09565b83614d3d565b6000601f841160018114614eeb5760008515614ed35750838201355b600019600387901b1c1916600186901b178355614f45565b600083815260209020601f19861690835b82811015614f1c5786850135825560209485019460019092019101614efc565b5086821015614f395760001960f88860031b161c19848701351681555b505060018560011b0183555b5050505050565b805169ffffffffffffffffffff8116811461436b57600080fd5b600080600080600060a08688031215614f7e57600080fd5b614f8786614f4c565b9450602086015193506040860151925060608601519150614faa60808701614f4c565b90509295509295909350565b600060208284031215614fc857600080fd5b815160ff811681146144d057600080fd5b634e487b7160e01b600052601160045260246000fd5b60ff818116838216019081111561233757612337614fd9565b600181815b8085111561504357816000190482111561502957615029614fd9565b8085161561503657918102915b93841c939080029061500d565b509250929050565b60008261505a57506001612337565b8161506757506000612337565b816001811461507d5760028114615087576150a3565b6001915050612337565b60ff84111561509857615098614fd9565b50506001821b612337565b5060208310610133831016604e8410600b84101617156150c6575081810a612337565b6150d08383615008565b80600019048211156150e4576150e4614fd9565b029392505050565b60006144d060ff84168361504b565b808202811582820484141761233757612337614fd9565b60008261512f57634e487b7160e01b600052601260045260246000fd5b500490565b60006001820161514657615146614fd9565b5060010190565b8082018082111561233757612337614fd9565b60208082526017908201527f4661696c656420746f20726566756e6420636c69656e74000000000000000000604082015260600190565b8181038181111561233757612337614fd9565b634e487b7160e01b600052603160045260246000fdfea264697066735822122078bfc1252131d6e422491e0b1a830cb931cb7a1a7dc80e63ca1a74db2019205364736f6c63430008110033","bytecodeSha1":"66023edbc0dc5d3f627b311a6febc5be2216f5ce","compiler":{"evm_version":"istanbul","optimizer":{"enabled":true,"runs":200},"version":"0.8.17+commit.8df45f5f"},"contractName":"FoodDelivery","language":"Solidity","natspec":{"kind":"dev","methods":{},"version":1},"opcodes":"PUSH1 0x80 PUSH1 0x40 MSTORE PUSH1 0x4 CALLDATASIZE LT PUSH2 0x272 JUMPI PUSH1 0x0 CALLDATALOAD PUSH1 0xE0 SHR DUP1 PUSH4 0x747CF8C6 GT PUSH2 0x14F JUMPI DUP1 PUSH4 0xBDACE182 GT PUSH2 0xC1 JUMPI DUP1 PUSH4 0xE742A182 GT PUSH2 0x7A JUMPI DUP1 PUSH4 0xE742A182 EQ PUSH2 0x832 JUMPI DUP1 PUSH4 0xE83DDCEA EQ PUSH2 0x852 JUMPI DUP1 PUSH4 0xEFF6ED6B EQ PUSH2 0x881 JUMPI DUP1 PUSH4 0xF13B84B6 EQ PUSH2 0x896 JUMPI DUP1 PUSH4 0xF59AC62A EQ PUSH2 0x8B6 JUMPI DUP1 PUSH4 0xFEDF1A87 EQ PUSH2 0x8D6 JUMPI PUSH1 0x0 DUP1 REVERT JUMPDEST DUP1 PUSH4 0xBDACE182 EQ PUSH2 0x74E JUMPI DUP1 PUSH4 0xBE47DCA1 EQ PUSH2 0x76E JUMPI DUP1 PUSH4 0xC59C521A EQ PUSH2 0x783 JUMPI DUP1 PUSH4 0xCCBDB85C EQ PUSH2 0x7BC JUMPI DUP1 PUSH4 0xD3168A66 EQ PUSH2 0x7DC JUMPI DUP1 PUSH4 0xDEE9E164 EQ PUSH2 0x812 JUMPI PUSH1 0x0 DUP1 REVERT JUMPDEST DUP1 PUSH4 0x9827E44D GT PUSH2 0x113 JUMPI DUP1 PUSH4 0x9827E44D EQ PUSH2 0x682 JUMPI DUP1 PUSH4 0x990581B6 EQ PUSH2 0x6A2 JUMPI DUP1 PUSH4 0x9B51BD21 EQ PUSH2 0x6CF JUMPI DUP1 PUSH4 0x9CBCFED5 EQ PUSH2 0x6E2 JUMPI DUP1 PUSH4 0xA85C38EF EQ PUSH2 0x702 JUMPI DUP1 PUSH4 0xABFD0687 EQ PUSH2 0x73B JUMPI PUSH1 0x0 DUP1 REVERT JUMPDEST DUP1 PUSH4 0x747CF8C6 EQ PUSH2 0x5E0 JUMPI DUP1 PUSH4 0x85B6EC06 EQ PUSH2 0x600 JUMPI DUP1 PUSH4 0x87734400 EQ PUSH2 0x620 JUMPI DUP1 PUSH4 0x8CE2EC79 EQ PUSH2 0x642 JUMPI DUP1 PUSH4 0x92184BFB EQ PUSH2 0x662 JUMPI PUSH1 0x0 DUP1 REVERT JUMPDEST DUP1 PUSH4 0x3D05A334 GT PUSH2 0x1E8 JUMPI DUP1 PUSH4 0x61EED2A9 GT PUSH2 0x1AC JUMPI DUP1 PUSH4 0x61EED2A9 EQ PUSH2 0x503 JUMPI DUP1 PUSH4 0x626E388B EQ PUSH2 0x531 JUMPI DUP1 PUSH4 0x64432EB8 EQ PUSH2 0x55E JUMPI DUP1 PUSH4 0x68AD5B83 EQ PUSH2 0x57E JUMPI DUP1 PUSH4 0x6D4166E9 EQ PUSH2 0x5AB JUMPI DUP1 PUSH4 0x708D2612 EQ PUSH2 0x5C0 JUMPI PUSH1 0x0 DUP1 REVERT JUMPDEST DUP1 PUSH4 0x3D05A334 EQ PUSH2 0x435 JUMPI DUP1 PUSH4 0x42F6FB29 EQ PUSH2 0x455 JUMPI DUP1 PUSH4 0x4C6448FE EQ PUSH2 0x48D JUMPI DUP1 PUSH4 0x4D649A42 EQ PUSH2 0x4AD JUMPI DUP1 PUSH4 0x514FCAC7 EQ PUSH2 0x4E3 JUMPI PUSH1 0x0 DUP1 REVERT JUMPDEST DUP1 PUSH4 0x1AE78A85 GT PUSH2 0x23A JUMPI DUP1 PUSH4 0x1AE78A85 EQ PUSH2 0x342 JUMPI DUP1 PUSH4 0x226AFFB8 EQ PUSH2 0x362 JUMPI DUP1 PUSH4 0x236CD7DC EQ PUSH2 0x382 JUMPI DUP1 PUSH4 0x2EAB93CB EQ PUSH2 0x3B2 JUMPI DUP1 PUSH4 0x37A3F817 EQ PUSH2 0x3D2 JUMPI DUP1 PUSH4 0x3A2D20D1 EQ PUSH2 0x400 JUMPI PUSH1 0x0 DUP1 REVERT JUMPDEST DUP1 PUSH4 0x2682893 EQ PUSH2 0x277 JUMPI DUP1 PUSH4 0x6A6034F EQ PUSH2 0x2AA JUMPI DUP1 PUSH4 0xBBACB20 EQ PUSH2 0x2CA JUMPI DUP1 PUSH4 0xBDC3B22 EQ PUSH2 0x2EC JUMPI DUP1 PUSH4 0x1569E858 EQ PUSH2 0x322 JUMPI JUMPDEST PUSH1 0x0 DUP1 REVERT JUMPDEST CALLVALUE DUP1 ISZERO PUSH2 0x283 JUMPI PUSH1 0x0 DUP1 REVERT JUMPDEST POP PUSH2 0x297 PUSH2 0x292 CALLDATASIZE PUSH1 0x4 PUSH2 0x4370 JUMP JUMPDEST PUSH2 0x8F6 JUMP JUMPDEST PUSH1 0x40 MLOAD SWAP1 DUP2 MSTORE PUSH1 0x20 ADD JUMPDEST PUSH1 0x40 MLOAD DUP1 SWAP2 SUB SWAP1 RETURN JUMPDEST CALLVALUE DUP1 ISZERO PUSH2 0x2B6 JUMPI PUSH1 0x0 DUP1 REVERT JUMPDEST POP PUSH2 0x297 PUSH2 0x2C5 CALLDATASIZE PUSH1 0x4 PUSH2 0x43E2 JUMP JUMPDEST PUSH2 0x927 JUMP JUMPDEST CALLVALUE DUP1 ISZERO PUSH2 0x2D6 JUMPI PUSH1 0x0 DUP1 REVERT JUMPDEST POP PUSH2 0x2EA PUSH2 0x2E5 CALLDATASIZE PUSH1 0x4 PUSH2 0x4463 JUMP JUMPDEST PUSH2 0xA4F JUMP JUMPDEST STOP JUMPDEST CALLVALUE DUP1 ISZERO PUSH2 0x2F8 JUMPI PUSH1 0x0 DUP1 REVERT JUMPDEST POP PUSH2 0x297 PUSH2 0x307 CALLDATASIZE PUSH1 0x4 PUSH2 0x44B5 JUMP JUMPDEST PUSH1 0x1 PUSH1 0x1 PUSH1 0xA0 SHL SUB AND PUSH1 0x0 SWAP1 DUP2 MSTORE PUSH1 0x5 PUSH1 0x20 MSTORE PUSH1 0x40 SWAP1 KECCAK256 SLOAD SWAP1 JUMP JUMPDEST CALLVALUE DUP1 ISZERO PUSH2 0x32E JUMPI PUSH1 0x0 DUP1 REVERT JUMPDEST POP PUSH2 0x2EA PUSH2 0x33D CALLDATASIZE PUSH1 0x4 PUSH2 0x44D7 JUMP JUMPDEST PUSH2 0xC24 JUMP JUMPDEST CALLVALUE DUP1 ISZERO PUSH2 0x34E JUMPI PUSH1 0x0 DUP1 REVERT JUMPDEST POP PUSH2 0x2EA PUSH2 0x35D CALLDATASIZE PUSH1 0x4 PUSH2 0x4570 JUMP JUMPDEST PUSH2 0xCBF JUMP JUMPDEST CALLVALUE DUP1 ISZERO PUSH2 0x36E JUMPI PUSH1 0x0 DUP1 REVERT JUMPDEST POP PUSH2 0x297 PUSH2 0x37D CALLDATASIZE PUSH1 0x4 PUSH2 0x4570 JUMP JUMPDEST PUSH2 0xDBF JUMP JUMPDEST CALLVALUE DUP1 ISZERO PUSH2 0x38E JUMPI PUSH1 0x0 DUP1 REVERT JUMPDEST POP PUSH2 0x3A2 PUSH2 0x39D CALLDATASIZE PUSH1 0x4 PUSH2 0x44B5 JUMP JUMPDEST PUSH2 0xEF0 JUMP JUMPDEST PUSH1 0x40 MLOAD PUSH2 0x2A1 SWAP5 SWAP4 SWAP3 SWAP2 SWAP1 PUSH2 0x45CF JUMP JUMPDEST CALLVALUE DUP1 ISZERO PUSH2 0x3BE JUMPI PUSH1 0x0 DUP1 REVERT JUMPDEST POP PUSH2 0x2EA PUSH2 0x3CD CALLDATASIZE PUSH1 0x4 PUSH2 0x4624 JUMP JUMPDEST PUSH2 0x10BB JUMP JUMPDEST CALLVALUE DUP1 ISZERO PUSH2 0x3DE JUMPI PUSH1 0x0 DUP1 REVERT JUMPDEST POP PUSH2 0x3F2 PUSH2 0x3ED CALLDATASIZE PUSH1 0x4 PUSH2 0x4570 JUMP JUMPDEST PUSH2 0x11E0 JUMP JUMPDEST PUSH1 0x40 MLOAD PUSH2 0x2A1 SWAP3 SWAP2 SWAP1 PUSH2 0x472E JUMP JUMPDEST CALLVALUE DUP1 ISZERO PUSH2 0x40C JUMPI PUSH1 0x0 DUP1 REVERT JUMPDEST POP PUSH2 0x420 PUSH2 0x41B CALLDATASIZE PUSH1 0x4 PUSH2 0x4797 JUMP JUMPDEST PUSH2 0x150E JUMP JUMPDEST PUSH1 0x40 DUP1 MLOAD SWAP3 DUP4 MSTORE PUSH1 0x20 DUP4 ADD SWAP2 SWAP1 SWAP2 MSTORE ADD PUSH2 0x2A1 JUMP JUMPDEST CALLVALUE DUP1 ISZERO PUSH2 0x441 JUMPI PUSH1 0x0 DUP1 REVERT JUMPDEST POP PUSH2 0x2EA PUSH2 0x450 CALLDATASIZE PUSH1 0x4 PUSH2 0x4624 JUMP JUMPDEST PUSH2 0x163D JUMP JUMPDEST CALLVALUE DUP1 ISZERO PUSH2 0x461 JUMPI PUSH1 0x0 DUP1 REVERT JUMPDEST POP PUSH1 0xB SLOAD PUSH2 0x475 SWAP1 PUSH1 0x1 PUSH1 0x1 PUSH1 0xA0 SHL SUB AND DUP2 JUMP JUMPDEST PUSH1 0x40 MLOAD PUSH1 0x1 PUSH1 0x1 PUSH1 0xA0 SHL SUB SWAP1 SWAP2 AND DUP2 MSTORE PUSH1 0x20 ADD PUSH2 0x2A1 JUMP JUMPDEST CALLVALUE DUP1 ISZERO PUSH2 0x499 JUMPI PUSH1 0x0 DUP1 REVERT JUMPDEST POP PUSH2 0x2EA PUSH2 0x4A8 CALLDATASIZE PUSH1 0x4 PUSH2 0x4807 JUMP JUMPDEST PUSH2 0x17DE JUMP JUMPDEST CALLVALUE DUP1 ISZERO PUSH2 0x4B9 JUMPI PUSH1 0x0 DUP1 REVERT JUMPDEST POP PUSH2 0x297 PUSH2 0x4C8 CALLDATASIZE PUSH1 0x4 PUSH2 0x44B5 JUMP JUMPDEST PUSH1 0x1 PUSH1 0x1 PUSH1 0xA0 SHL SUB AND PUSH1 0x0 SWAP1 DUP2 MSTORE PUSH1 0x4 PUSH1 0x20 MSTORE PUSH1 0x40 SWAP1 KECCAK256 SLOAD SWAP1 JUMP JUMPDEST CALLVALUE DUP1 ISZERO PUSH2 0x4EF JUMPI PUSH1 0x0 DUP1 REVERT JUMPDEST POP PUSH2 0x2EA PUSH2 0x4FE CALLDATASIZE PUSH1 0x4 PUSH2 0x4570 JUMP JUMPDEST PUSH2 0x1856 JUMP JUMPDEST CALLVALUE DUP1 ISZERO PUSH2 0x50F JUMPI PUSH1 0x0 DUP1 REVERT JUMPDEST POP PUSH2 0x523 PUSH2 0x51E CALLDATASIZE PUSH1 0x4 PUSH2 0x44B5 JUMP JUMPDEST PUSH2 0x1C6D JUMP JUMPDEST PUSH1 0x40 MLOAD PUSH2 0x2A1 SWAP3 SWAP2 SWAP1 PUSH2 0x4848 JUMP JUMPDEST CALLVALUE DUP1 ISZERO PUSH2 0x53D JUMPI PUSH1 0x0 DUP1 REVERT JUMPDEST POP PUSH2 0x551 PUSH2 0x54C CALLDATASIZE PUSH1 0x4 PUSH2 0x44B5 JUMP JUMPDEST PUSH2 0x1D1D JUMP JUMPDEST PUSH1 0x40 MLOAD PUSH2 0x2A1 SWAP2 SWAP1 PUSH2 0x48A4 JUMP JUMPDEST CALLVALUE DUP1 ISZERO PUSH2 0x56A JUMPI PUSH1 0x0 DUP1 REVERT JUMPDEST POP PUSH2 0x297 PUSH2 0x579 CALLDATASIZE PUSH1 0x4 PUSH2 0x49E5 JUMP JUMPDEST PUSH2 0x2056 JUMP JUMPDEST CALLVALUE DUP1 ISZERO PUSH2 0x58A JUMPI PUSH1 0x0 DUP1 REVERT JUMPDEST POP PUSH2 0x59E PUSH2 0x599 CALLDATASIZE PUSH1 0x4 PUSH2 0x4370 JUMP JUMPDEST PUSH2 0x2172 JUMP JUMPDEST PUSH1 0x40 MLOAD PUSH2 0x2A1 SWAP2 SWAP1 PUSH2 0x4A58 JUMP JUMPDEST CALLVALUE DUP1 ISZERO PUSH2 0x5B7 JUMPI PUSH1 0x0 DUP1 REVERT JUMPDEST POP PUSH1 0x8 SLOAD PUSH2 0x297 JUMP JUMPDEST CALLVALUE DUP1 ISZERO PUSH2 0x5CC JUMPI PUSH1 0x0 DUP1 REVERT JUMPDEST POP PUSH2 0x297 PUSH2 0x5DB CALLDATASIZE PUSH1 0x4 PUSH2 0x4570 JUMP JUMPDEST PUSH2 0x233D JUMP JUMPDEST CALLVALUE DUP1 ISZERO PUSH2 0x5EC JUMPI PUSH1 0x0 DUP1 REVERT JUMPDEST POP PUSH2 0x551 PUSH2 0x5FB CALLDATASIZE PUSH1 0x4 PUSH2 0x44B5 JUMP JUMPDEST PUSH2 0x235E JUMP JUMPDEST CALLVALUE DUP1 ISZERO PUSH2 0x60C JUMPI PUSH1 0x0 DUP1 REVERT JUMPDEST POP PUSH2 0x475 PUSH2 0x61B CALLDATASIZE PUSH1 0x4 PUSH2 0x4570 JUMP JUMPDEST PUSH2 0x268F JUMP JUMPDEST CALLVALUE DUP1 ISZERO PUSH2 0x62C JUMPI PUSH1 0x0 DUP1 REVERT JUMPDEST POP PUSH2 0x635 PUSH2 0x26B9 JUMP JUMPDEST PUSH1 0x40 MLOAD PUSH2 0x2A1 SWAP2 SWAP1 PUSH2 0x4A6B JUMP JUMPDEST CALLVALUE DUP1 ISZERO PUSH2 0x64E JUMPI PUSH1 0x0 DUP1 REVERT JUMPDEST POP PUSH2 0x551 PUSH2 0x65D CALLDATASIZE PUSH1 0x4 PUSH2 0x4B2F JUMP JUMPDEST PUSH2 0x2B44 JUMP JUMPDEST CALLVALUE DUP1 ISZERO PUSH2 0x66E JUMPI PUSH1 0x0 DUP1 REVERT JUMPDEST POP PUSH2 0x2EA PUSH2 0x67D CALLDATASIZE PUSH1 0x4 PUSH2 0x4570 JUMP JUMPDEST PUSH2 0x2EDE JUMP JUMPDEST CALLVALUE DUP1 ISZERO PUSH2 0x68E JUMPI PUSH1 0x0 DUP1 REVERT JUMPDEST POP PUSH2 0x297 PUSH2 0x69D CALLDATASIZE PUSH1 0x4 PUSH2 0x4370 JUMP JUMPDEST PUSH2 0x2F2C JUMP JUMPDEST CALLVALUE DUP1 ISZERO PUSH2 0x6AE JUMPI PUSH1 0x0 DUP1 REVERT JUMPDEST POP PUSH2 0x6C2 PUSH2 0x6BD CALLDATASIZE PUSH1 0x4 PUSH2 0x4570 JUMP JUMPDEST PUSH2 0x2F48 JUMP JUMPDEST PUSH1 0x40 MLOAD PUSH2 0x2A1 SWAP2 SWAP1 PUSH2 0x4B50 JUMP JUMPDEST PUSH2 0x2EA PUSH2 0x6DD CALLDATASIZE PUSH1 0x4 PUSH2 0x4570 JUMP JUMPDEST PUSH2 0x3037 JUMP JUMPDEST CALLVALUE DUP1 ISZERO PUSH2 0x6EE JUMPI PUSH1 0x0 DUP1 REVERT JUMPDEST POP PUSH2 0x2EA PUSH2 0x6FD CALLDATASIZE PUSH1 0x4 PUSH2 0x4570 JUMP JUMPDEST PUSH2 0x3138 JUMP JUMPDEST CALLVALUE DUP1 ISZERO PUSH2 0x70E JUMPI PUSH1 0x0 DUP1 REVERT JUMPDEST POP PUSH2 0x722 PUSH2 0x71D CALLDATASIZE PUSH1 0x4 PUSH2 0x4570 JUMP JUMPDEST PUSH2 0x3161 JUMP JUMPDEST PUSH1 0x40 MLOAD PUSH2 0x2A1 SWAP14 SWAP13 SWAP12 SWAP11 SWAP10 SWAP9 SWAP8 SWAP7 SWAP6 SWAP5 SWAP4 SWAP3 SWAP2 SWAP1 PUSH2 0x4B7F JUMP JUMPDEST PUSH2 0x2EA PUSH2 0x749 CALLDATASIZE PUSH1 0x4 PUSH2 0x4C0B JUMP JUMPDEST PUSH2 0x3277 JUMP JUMPDEST CALLVALUE DUP1 ISZERO PUSH2 0x75A JUMPI PUSH1 0x0 DUP1 REVERT JUMPDEST POP PUSH2 0x475 PUSH2 0x769 CALLDATASIZE PUSH1 0x4 PUSH2 0x4570 JUMP JUMPDEST PUSH2 0x36B8 JUMP JUMPDEST CALLVALUE DUP1 ISZERO PUSH2 0x77A JUMPI PUSH1 0x0 DUP1 REVERT JUMPDEST POP PUSH1 0x9 SLOAD PUSH2 0x297 JUMP JUMPDEST CALLVALUE DUP1 ISZERO PUSH2 0x78F JUMPI PUSH1 0x0 DUP1 REVERT JUMPDEST POP PUSH2 0x297 PUSH2 0x79E CALLDATASIZE PUSH1 0x4 PUSH2 0x44B5 JUMP JUMPDEST PUSH1 0x1 PUSH1 0x1 PUSH1 0xA0 SHL SUB AND PUSH1 0x0 SWAP1 DUP2 MSTORE PUSH1 0x20 DUP2 SWAP1 MSTORE PUSH1 0x40 SWAP1 KECCAK256 PUSH1 0x4 ADD SLOAD SWAP1 JUMP JUMPDEST CALLVALUE DUP1 ISZERO PUSH2 0x7C8 JUMPI PUSH1 0x0 DUP1 REVERT JUMPDEST POP PUSH2 0x2EA PUSH2 0x7D7 CALLDATASIZE PUSH1 0x4 PUSH2 0x4570 JUMP JUMPDEST PUSH2 0x36C8 JUMP JUMPDEST CALLVALUE DUP1 ISZERO PUSH2 0x7E8 JUMPI PUSH1 0x0 DUP1 REVERT JUMPDEST POP PUSH2 0x297 PUSH2 0x7F7 CALLDATASIZE PUSH1 0x4 PUSH2 0x44B5 JUMP JUMPDEST PUSH1 0x1 PUSH1 0x1 PUSH1 0xA0 SHL SUB AND PUSH1 0x0 SWAP1 DUP2 MSTORE PUSH1 0x2 PUSH1 0x20 MSTORE PUSH1 0x40 SWAP1 KECCAK256 SLOAD SWAP1 JUMP JUMPDEST CALLVALUE DUP1 ISZERO PUSH2 0x81E JUMPI PUSH1 0x0 DUP1 REVERT JUMPDEST POP PUSH2 0x297 PUSH2 0x82D CALLDATASIZE PUSH1 0x4 PUSH2 0x4370 JUMP JUMPDEST PUSH2 0x384E JUMP JUMPDEST CALLVALUE DUP1 ISZERO PUSH2 0x83E JUMPI PUSH1 0x0 DUP1 REVERT JUMPDEST POP PUSH2 0x2EA PUSH2 0x84D CALLDATASIZE PUSH1 0x4 PUSH2 0x4570 JUMP JUMPDEST PUSH2 0x386A JUMP JUMPDEST CALLVALUE DUP1 ISZERO PUSH2 0x85E JUMPI PUSH1 0x0 DUP1 REVERT JUMPDEST POP PUSH2 0x872 PUSH2 0x86D CALLDATASIZE PUSH1 0x4 PUSH2 0x4570 JUMP JUMPDEST PUSH2 0x3BC9 JUMP JUMPDEST PUSH1 0x40 MLOAD PUSH2 0x2A1 SWAP4 SWAP3 SWAP2 SWAP1 PUSH2 0x4CBE JUMP JUMPDEST CALLVALUE DUP1 ISZERO PUSH2 0x88D JUMPI PUSH1 0x0 DUP1 REVERT JUMPDEST POP PUSH1 0x6 SLOAD PUSH2 0x297 JUMP JUMPDEST CALLVALUE DUP1 ISZERO PUSH2 0x8A2 JUMPI PUSH1 0x0 DUP1 REVERT JUMPDEST POP PUSH2 0x297 PUSH2 0x8B1 CALLDATASIZE PUSH1 0x4 PUSH2 0x44B5 JUMP JUMPDEST PUSH2 0x3C74 JUMP JUMPDEST CALLVALUE DUP1 ISZERO PUSH2 0x8C2 JUMPI PUSH1 0x0 DUP1 REVERT JUMPDEST POP PUSH2 0x551 PUSH2 0x8D1 CALLDATASIZE PUSH1 0x4 PUSH2 0x44B5 JUMP JUMPDEST PUSH2 0x3D52 JUMP JUMPDEST CALLVALUE DUP1 ISZERO PUSH2 0x8E2 JUMPI PUSH1 0x0 DUP1 REVERT JUMPDEST POP PUSH2 0x2EA PUSH2 0x8F1 CALLDATASIZE PUSH1 0x4 PUSH2 0x4570 JUMP JUMPDEST PUSH2 0x4083 JUMP JUMPDEST PUSH1 0x4 PUSH1 0x20 MSTORE DUP2 PUSH1 0x0 MSTORE PUSH1 0x40 PUSH1 0x0 KECCAK256 DUP2 DUP2 SLOAD DUP2 LT PUSH2 0x912 JUMPI PUSH1 0x0 DUP1 REVERT JUMPDEST SWAP1 PUSH1 0x0 MSTORE PUSH1 0x20 PUSH1 0x0 KECCAK256 ADD PUSH1 0x0 SWAP2 POP SWAP2 POP POP SLOAD DUP2 JUMP JUMPDEST CALLER PUSH1 0x0 SWAP1 DUP2 MSTORE PUSH1 0x20 DUP2 DUP2 MSTORE PUSH1 0x40 DUP1 DUP4 KECCAK256 DUP2 MLOAD PUSH1 0xA0 DUP2 ADD DUP4 MSTORE DUP11 DUP2 MSTORE DUP3 MLOAD PUSH1 0x1F DUP11 ADD DUP6 SWAP1 DIV DUP6 MUL DUP2 ADD DUP6 ADD SWAP1 SWAP4 MSTORE DUP9 DUP4 MSTORE SWAP1 SWAP3 SWAP1 SWAP2 DUP3 DUP3 ADD SWAP2 DUP11 SWAP1 DUP11 SWAP1 DUP2 SWAP1 DUP5 ADD DUP4 DUP3 DUP1 DUP3 DUP5 CALLDATACOPY PUSH1 0x0 SWAP3 ADD SWAP2 SWAP1 SWAP2 MSTORE POP POP POP SWAP1 DUP3 MSTORE POP PUSH1 0x40 DUP1 MLOAD PUSH1 0x20 PUSH1 0x1F DUP10 ADD DUP2 SWAP1 DIV DUP2 MUL DUP3 ADD DUP2 ADD SWAP1 SWAP3 MSTORE DUP8 DUP2 MSTORE SWAP2 DUP2 ADD SWAP2 SWAP1 DUP9 SWAP1 DUP9 SWAP1 DUP2 SWAP1 DUP5 ADD DUP4 DUP3 DUP1 DUP3 DUP5 CALLDATACOPY PUSH1 0x0 SWAP3 ADD SWAP2 SWAP1 SWAP2 MSTORE POP POP POP SWAP1 DUP3 MSTORE POP PUSH1 0x20 DUP2 ADD DUP6 SWAP1 MSTORE PUSH1 0x1 PUSH1 0x40 SWAP1 SWAP2 ADD MSTORE PUSH1 0x4 DUP3 ADD DUP1 SLOAD DUP11 SWAP1 DUP2 LT PUSH2 0x9DC JUMPI PUSH2 0x9DC PUSH2 0x4CDD JUMP JUMPDEST SWAP1 PUSH1 0x0 MSTORE PUSH1 0x20 PUSH1 0x0 KECCAK256 SWAP1 PUSH1 0x5 MUL ADD PUSH1 0x0 DUP3 ADD MLOAD DUP2 PUSH1 0x0 ADD SSTORE PUSH1 0x20 DUP3 ADD MLOAD DUP2 PUSH1 0x1 ADD SWAP1 DUP2 PUSH2 0xA09 SWAP2 SWAP1 PUSH2 0x4D8B JUMP JUMPDEST POP PUSH1 0x40 DUP3 ADD MLOAD PUSH1 0x2 DUP3 ADD SWAP1 PUSH2 0xA1E SWAP1 DUP3 PUSH2 0x4D8B JUMP JUMPDEST POP PUSH1 0x60 DUP3 ADD MLOAD PUSH1 0x3 DUP3 ADD SSTORE PUSH1 0x80 SWAP1 SWAP2 ADD MLOAD PUSH1 0x4 SWAP1 SWAP2 ADD DUP1 SLOAD PUSH1 0xFF NOT AND SWAP2 ISZERO ISZERO SWAP2 SWAP1 SWAP2 OR SWAP1 SSTORE POP SWAP6 SWAP7 SWAP6 POP POP POP POP POP POP JUMP JUMPDEST PUSH1 0x0 PUSH1 0x7 DUP6 DUP2 SLOAD DUP2 LT PUSH2 0xA64 JUMPI PUSH2 0xA64 PUSH2 0x4CDD JUMP JUMPDEST SWAP1 PUSH1 0x0 MSTORE PUSH1 0x20 PUSH1 0x0 KECCAK256 SWAP1 PUSH1 0xF MUL ADD SWAP1 POP DUP5 DUP2 PUSH1 0x0 ADD SLOAD EQ PUSH2 0xAA0 JUMPI PUSH1 0x40 MLOAD PUSH3 0x461BCD PUSH1 0xE5 SHL DUP2 MSTORE PUSH1 0x4 ADD PUSH2 0xA97 SWAP1 PUSH2 0x4E4A JUMP JUMPDEST PUSH1 0x40 MLOAD DUP1 SWAP2 SUB SWAP1 REVERT JUMPDEST PUSH1 0x2 DUP2 ADD SLOAD PUSH1 0x1 PUSH1 0x1 PUSH1 0xA0 SHL SUB AND CALLER EQ PUSH2 0xB22 JUMPI PUSH1 0x40 MLOAD PUSH3 0x461BCD PUSH1 0xE5 SHL DUP2 MSTORE PUSH1 0x20 PUSH1 0x4 DUP3 ADD MSTORE PUSH1 0x37 PUSH1 0x24 DUP3 ADD MSTORE PUSH32 0x4F6E6C792074686520636C69656E742077686F20706C6163656420746865206F PUSH1 0x44 DUP3 ADD MSTORE PUSH32 0x726465722063616E206C65617665206120726576696577000000000000000000 PUSH1 0x64 DUP3 ADD MSTORE PUSH1 0x84 ADD PUSH2 0xA97 JUMP JUMPDEST PUSH1 0x5 PUSH1 0x9 DUP3 ADD SLOAD PUSH1 0xFF AND PUSH1 0x6 DUP2 GT ISZERO PUSH2 0xB3D JUMPI PUSH2 0xB3D PUSH2 0x486C JUMP JUMPDEST EQ PUSH2 0xB98 JUMPI PUSH1 0x40 MLOAD PUSH3 0x461BCD PUSH1 0xE5 SHL DUP2 MSTORE PUSH1 0x20 PUSH1 0x4 DUP3 ADD MSTORE PUSH1 0x25 PUSH1 0x24 DUP3 ADD MSTORE PUSH32 0x4F6E6C792064656C697665726564206F72646572732063616E20626520726576 PUSH1 0x44 DUP3 ADD MSTORE PUSH5 0x1A595DD959 PUSH1 0xDA SHL PUSH1 0x64 DUP3 ADD MSTORE PUSH1 0x84 ADD PUSH2 0xA97 JUMP JUMPDEST PUSH1 0x40 MLOAD DUP1 PUSH1 0x60 ADD PUSH1 0x40 MSTORE DUP1 DUP7 DUP2 MSTORE PUSH1 0x20 ADD DUP6 DUP2 MSTORE PUSH1 0x20 ADD DUP5 DUP5 DUP1 DUP1 PUSH1 0x1F ADD PUSH1 0x20 DUP1 SWAP2 DIV MUL PUSH1 0x20 ADD PUSH1 0x40 MLOAD SWAP1 DUP2 ADD PUSH1 0x40 MSTORE DUP1 SWAP4 SWAP3 SWAP2 SWAP1 DUP2 DUP2 MSTORE PUSH1 0x20 ADD DUP4 DUP4 DUP1 DUP3 DUP5 CALLDATACOPY PUSH1 0x0 SWAP3 ADD DUP3 SWAP1 MSTORE POP SWAP4 SWAP1 SWAP5 MSTORE POP POP DUP8 DUP2 MSTORE PUSH1 0x3 PUSH1 0x20 SWAP1 DUP2 MSTORE PUSH1 0x40 SWAP2 DUP3 SWAP1 KECCAK256 DUP5 MLOAD DUP2 SSTORE SWAP1 DUP5 ADD MLOAD PUSH1 0x1 DUP3 ADD SSTORE SWAP1 DUP4 ADD MLOAD SWAP1 SWAP2 POP PUSH1 0x2 DUP3 ADD SWAP1 PUSH2 0xC1A SWAP1 DUP3 PUSH2 0x4D8B JUMP JUMPDEST POP POP POP POP POP POP POP POP JUMP JUMPDEST CALLER PUSH1 0x0 DUP2 DUP2 MSTORE PUSH1 0x20 DUP2 SWAP1 MSTORE PUSH1 0x40 SWAP1 KECCAK256 DUP1 SLOAD PUSH1 0x1 PUSH1 0x1 PUSH1 0xA0 SHL SUB NOT AND SWAP1 SWAP2 OR DUP2 SSTORE PUSH1 0x1 DUP2 ADD PUSH2 0xC53 DUP8 DUP10 DUP4 PUSH2 0x4E8C JUMP JUMPDEST POP PUSH1 0x2 DUP2 ADD PUSH2 0xC63 DUP6 DUP8 DUP4 PUSH2 0x4E8C JUMP JUMPDEST POP PUSH1 0x3 DUP2 ADD PUSH2 0xC73 DUP4 DUP6 DUP4 PUSH2 0x4E8C JUMP JUMPDEST POP POP PUSH1 0x8 DUP1 SLOAD PUSH1 0x1 DUP2 ADD DUP3 SSTORE PUSH1 0x0 SWAP2 SWAP1 SWAP2 MSTORE PUSH32 0xF3F7A9FE364FAAB93B216DA50A3214154F22A0A2B415B23A84C8169E8B636EE3 ADD DUP1 SLOAD PUSH1 0x1 PUSH1 0x1 PUSH1 0xA0 SHL SUB NOT AND CALLER OR SWAP1 SSTORE POP POP POP POP POP POP JUMP JUMPDEST PUSH1 0x0 PUSH1 0x7 DUP3 DUP2 SLOAD DUP2 LT PUSH2 0xCD4 JUMPI PUSH2 0xCD4 PUSH2 0x4CDD JUMP JUMPDEST SWAP1 PUSH1 0x0 MSTORE PUSH1 0x20 PUSH1 0x0 KECCAK256 SWAP1 PUSH1 0xF MUL ADD SWAP1 POP DUP2 DUP2 PUSH1 0x0 ADD SLOAD EQ PUSH2 0xD07 JUMPI PUSH1 0x40 MLOAD PUSH3 0x461BCD PUSH1 0xE5 SHL DUP2 MSTORE PUSH1 0x4 ADD PUSH2 0xA97 SWAP1 PUSH2 0x4E4A JUMP JUMPDEST PUSH1 0x3 PUSH1 0x9 DUP3 ADD SLOAD PUSH1 0xFF AND PUSH1 0x6 DUP2 GT ISZERO PUSH2 0xD22 JUMPI PUSH2 0xD22 PUSH2 0x486C JUMP JUMPDEST EQ PUSH2 0xD2C JUMPI PUSH1 0x0 DUP1 REVERT JUMPDEST PUSH1 0x3 DUP2 ADD SLOAD PUSH1 0x1 PUSH1 0x1 PUSH1 0xA0 SHL SUB AND CALLER EQ PUSH2 0xDA4 JUMPI PUSH1 0x40 MLOAD PUSH3 0x461BCD PUSH1 0xE5 SHL DUP2 MSTORE PUSH1 0x20 PUSH1 0x4 DUP3 ADD MSTORE PUSH1 0x33 PUSH1 0x24 DUP3 ADD MSTORE PUSH32 0x4F72646572206D7573742062652064656C69766572656420627920636F757269 PUSH1 0x44 DUP3 ADD MSTORE PUSH19 0x195C881D1A185D081858D8D95C1D1959081A5D PUSH1 0x6A SHL PUSH1 0x64 DUP3 ADD MSTORE PUSH1 0x84 ADD PUSH2 0xA97 JUMP JUMPDEST PUSH1 0x9 DUP2 ADD DUP1 SLOAD PUSH1 0x4 SWAP2 SWAP1 PUSH1 0xFF NOT AND PUSH1 0x1 DUP4 JUMPDEST MUL OR SWAP1 SSTORE POP POP POP JUMP JUMPDEST PUSH1 0x0 DUP1 PUSH1 0xB PUSH1 0x0 SWAP1 SLOAD SWAP1 PUSH2 0x100 EXP SWAP1 DIV PUSH1 0x1 PUSH1 0x1 PUSH1 0xA0 SHL SUB AND PUSH1 0x1 PUSH1 0x1 PUSH1 0xA0 SHL SUB AND PUSH4 0xFEAF968C PUSH1 0x40 MLOAD DUP2 PUSH4 0xFFFFFFFF AND PUSH1 0xE0 SHL DUP2 MSTORE PUSH1 0x4 ADD PUSH1 0xA0 PUSH1 0x40 MLOAD DUP1 DUP4 SUB DUP2 DUP7 GAS STATICCALL ISZERO DUP1 ISZERO PUSH2 0xE15 JUMPI RETURNDATASIZE PUSH1 0x0 DUP1 RETURNDATACOPY RETURNDATASIZE PUSH1 0x0 REVERT JUMPDEST POP POP POP POP PUSH1 0x40 MLOAD RETURNDATASIZE PUSH1 0x1F NOT PUSH1 0x1F DUP3 ADD AND DUP3 ADD DUP1 PUSH1 0x40 MSTORE POP DUP2 ADD SWAP1 PUSH2 0xE39 SWAP2 SWAP1 PUSH2 0x4F66 JUMP JUMPDEST POP POP POP SWAP2 POP POP PUSH1 0x0 PUSH1 0xB PUSH1 0x0 SWAP1 SLOAD SWAP1 PUSH2 0x100 EXP SWAP1 DIV PUSH1 0x1 PUSH1 0x1 PUSH1 0xA0 SHL SUB AND PUSH1 0x1 PUSH1 0x1 PUSH1 0xA0 SHL SUB AND PUSH4 0x313CE567 PUSH1 0x40 MLOAD DUP2 PUSH4 0xFFFFFFFF AND PUSH1 0xE0 SHL DUP2 MSTORE PUSH1 0x4 ADD PUSH1 0x20 PUSH1 0x40 MLOAD DUP1 DUP4 SUB DUP2 DUP7 GAS STATICCALL ISZERO DUP1 ISZERO PUSH2 0xE94 JUMPI RETURNDATASIZE PUSH1 0x0 DUP1 RETURNDATACOPY RETURNDATASIZE PUSH1 0x0 REVERT JUMPDEST POP POP POP POP PUSH1 0x40 MLOAD RETURNDATASIZE PUSH1 0x1F NOT PUSH1 0x1F DUP3 ADD AND DUP3 ADD DUP1 PUSH1 0x40 MSTORE POP DUP2 ADD SWAP1 PUSH2 0xEB8 SWAP2 SWAP1 PUSH2 0x4FB6 JUMP JUMPDEST SWAP1 POP PUSH1 0x0 DUP3 PUSH2 0xEC8 DUP4 PUSH1 0x12 PUSH2 0x4FEF JUMP JUMPDEST PUSH2 0xED3 SWAP1 PUSH1 0xA PUSH2 0x50EC JUMP JUMPDEST PUSH2 0xEDD SWAP1 DUP8 PUSH2 0x50FB JUMP JUMPDEST PUSH2 0xEE7 SWAP2 SWAP1 PUSH2 0x5112 JUMP JUMPDEST SWAP6 SWAP5 POP POP POP POP POP JUMP JUMPDEST PUSH1 0x0 PUSH1 0x20 DUP2 SWAP1 MSTORE SWAP1 DUP2 MSTORE PUSH1 0x40 SWAP1 KECCAK256 DUP1 SLOAD PUSH1 0x1 DUP3 ADD DUP1 SLOAD PUSH1 0x1 PUSH1 0x1 PUSH1 0xA0 SHL SUB SWAP1 SWAP3 AND SWAP3 SWAP2 PUSH2 0xF1C SWAP1 PUSH2 0x4D09 JUMP JUMPDEST DUP1 PUSH1 0x1F ADD PUSH1 0x20 DUP1 SWAP2 DIV MUL PUSH1 0x20 ADD PUSH1 0x40 MLOAD SWAP1 DUP2 ADD PUSH1 0x40 MSTORE DUP1 SWAP3 SWAP2 SWAP1 DUP2 DUP2 MSTORE PUSH1 0x20 ADD DUP3 DUP1 SLOAD PUSH2 0xF48 SWAP1 PUSH2 0x4D09 JUMP JUMPDEST DUP1 ISZERO PUSH2 0xF95 JUMPI DUP1 PUSH1 0x1F LT PUSH2 0xF6A JUMPI PUSH2 0x100 DUP1 DUP4 SLOAD DIV MUL DUP4 MSTORE SWAP2 PUSH1 0x20 ADD SWAP2 PUSH2 0xF95 JUMP JUMPDEST DUP3 ADD SWAP2 SWAP1 PUSH1 0x0 MSTORE PUSH1 0x20 PUSH1 0x0 KECCAK256 SWAP1 JUMPDEST DUP2 SLOAD DUP2 MSTORE SWAP1 PUSH1 0x1 ADD SWAP1 PUSH1 0x20 ADD DUP1 DUP4 GT PUSH2 0xF78 JUMPI DUP3 SWAP1 SUB PUSH1 0x1F AND DUP3 ADD SWAP2 JUMPDEST POP POP POP POP POP SWAP1 DUP1 PUSH1 0x2 ADD DUP1 SLOAD PUSH2 0xFAA SWAP1 PUSH2 0x4D09 JUMP JUMPDEST DUP1 PUSH1 0x1F ADD PUSH1 0x20 DUP1 SWAP2 DIV MUL PUSH1 0x20 ADD PUSH1 0x40 MLOAD SWAP1 DUP2 ADD PUSH1 0x40 MSTORE DUP1 SWAP3 SWAP2 SWAP1 DUP2 DUP2 MSTORE PUSH1 0x20 ADD DUP3 DUP1 SLOAD PUSH2 0xFD6 SWAP1 PUSH2 0x4D09 JUMP JUMPDEST DUP1 ISZERO PUSH2 0x1023 JUMPI DUP1 PUSH1 0x1F LT PUSH2 0xFF8 JUMPI PUSH2 0x100 DUP1 DUP4 SLOAD DIV MUL DUP4 MSTORE SWAP2 PUSH1 0x20 ADD SWAP2 PUSH2 0x1023 JUMP JUMPDEST DUP3 ADD SWAP2 SWAP1 PUSH1 0x0 MSTORE PUSH1 0x20 PUSH1 0x0 KECCAK256 SWAP1 JUMPDEST DUP2 SLOAD DUP2 MSTORE SWAP1 PUSH1 0x1 ADD SWAP1 PUSH1 0x20 ADD DUP1 DUP4 GT PUSH2 0x1006 JUMPI DUP3 SWAP1 SUB PUSH1 0x1F AND DUP3 ADD SWAP2 JUMPDEST POP POP POP POP POP SWAP1 DUP1 PUSH1 0x3 ADD DUP1 SLOAD PUSH2 0x1038 SWAP1 PUSH2 0x4D09 JUMP JUMPDEST DUP1 PUSH1 0x1F ADD PUSH1 0x20 DUP1 SWAP2 DIV MUL PUSH1 0x20 ADD PUSH1 0x40 MLOAD SWAP1 DUP2 ADD PUSH1 0x40 MSTORE DUP1 SWAP3 SWAP2 SWAP1 DUP2 DUP2 MSTORE PUSH1 0x20 ADD DUP3 DUP1 SLOAD PUSH2 0x1064 SWAP1 PUSH2 0x4D09 JUMP JUMPDEST DUP1 ISZERO PUSH2 0x10B1 JUMPI DUP1 PUSH1 0x1F LT PUSH2 0x1086 JUMPI PUSH2 0x100 DUP1 DUP4 SLOAD DIV MUL DUP4 MSTORE SWAP2 PUSH1 0x20 ADD SWAP2 PUSH2 0x10B1 JUMP JUMPDEST DUP3 ADD SWAP2 SWAP1 PUSH1 0x0 MSTORE PUSH1 0x20 PUSH1 0x0 KECCAK256 SWAP1 JUMPDEST DUP2 SLOAD DUP2 MSTORE SWAP1 PUSH1 0x1 ADD SWAP1 PUSH1 0x20 ADD DUP1 DUP4 GT PUSH2 0x1094 JUMPI DUP3 SWAP1 SUB PUSH1 0x1F AND DUP3 ADD SWAP2 JUMPDEST POP POP POP POP POP SWAP1 POP DUP5 JUMP JUMPDEST PUSH1 0x0 PUSH1 0x7 DUP4 DUP2 SLOAD DUP2 LT PUSH2 0x10D0 JUMPI PUSH2 0x10D0 PUSH2 0x4CDD JUMP JUMPDEST SWAP1 PUSH1 0x0 MSTORE PUSH1 0x20 PUSH1 0x0 KECCAK256 SWAP1 PUSH1 0xF MUL ADD SWAP1 POP DUP3 DUP2 PUSH1 0x0 ADD SLOAD EQ PUSH2 0x1103 JUMPI PUSH1 0x40 MLOAD PUSH3 0x461BCD PUSH1 0xE5 SHL DUP2 MSTORE PUSH1 0x4 ADD PUSH2 0xA97 SWAP1 PUSH2 0x4E4A JUMP JUMPDEST PUSH1 0x1 PUSH1 0x9 DUP3 ADD SLOAD PUSH1 0xFF AND PUSH1 0x6 DUP2 GT ISZERO PUSH2 0x111E JUMPI PUSH2 0x111E PUSH2 0x486C JUMP JUMPDEST EQ PUSH2 0x1179 JUMPI PUSH1 0x40 MLOAD PUSH3 0x461BCD PUSH1 0xE5 SHL DUP2 MSTORE PUSH1 0x20 PUSH1 0x4 DUP3 ADD MSTORE PUSH1 0x25 PUSH1 0x24 DUP3 ADD MSTORE PUSH32 0x4F72646572206D75737420626520696E207468652070726F63657373696E6720 PUSH1 0x44 DUP3 ADD MSTORE PUSH5 0x7374617465 PUSH1 0xD8 SHL PUSH1 0x64 DUP3 ADD MSTORE PUSH1 0x84 ADD PUSH2 0xA97 JUMP JUMPDEST PUSH1 0x3 DUP2 ADD DUP1 SLOAD CALLER PUSH1 0x1 PUSH1 0x1 PUSH1 0xA0 SHL SUB NOT SWAP1 SWAP2 AND DUP2 OR SWAP1 SWAP2 SSTORE PUSH1 0xB DUP3 ADD DUP4 SWAP1 SSTORE TIMESTAMP PUSH1 0xD DUP4 ADD SSTORE PUSH1 0x9 DUP3 ADD DUP1 SLOAD PUSH1 0xFF NOT AND PUSH1 0x2 OR SWAP1 SSTORE PUSH1 0x0 SWAP1 DUP2 MSTORE PUSH1 0x5 PUSH1 0x20 SWAP1 DUP2 MSTORE PUSH1 0x40 DUP3 KECCAK256 DUP4 SLOAD DUP2 SLOAD PUSH1 0x1 DUP2 ADD DUP4 SSTORE SWAP2 DUP5 MSTORE SWAP2 SWAP1 SWAP3 KECCAK256 SWAP1 SWAP2 ADD SSTORE PUSH2 0x11DB DUP4 PUSH2 0x4196 JUMP JUMPDEST POP POP POP JUMP JUMPDEST PUSH1 0x60 DUP1 PUSH1 0x0 PUSH1 0x7 DUP5 DUP2 SLOAD DUP2 LT PUSH2 0x11F8 JUMPI PUSH2 0x11F8 PUSH2 0x4CDD JUMP JUMPDEST SWAP1 PUSH1 0x0 MSTORE PUSH1 0x20 PUSH1 0x0 KECCAK256 SWAP1 PUSH1 0xF MUL ADD SWAP1 POP DUP4 DUP2 PUSH1 0x0 ADD SLOAD EQ PUSH2 0x122B JUMPI PUSH1 0x40 MLOAD PUSH3 0x461BCD PUSH1 0xE5 SHL DUP2 MSTORE PUSH1 0x4 ADD PUSH2 0xA97 SWAP1 PUSH2 0x4E4A JUMP JUMPDEST PUSH1 0x1 DUP2 ADD SLOAD PUSH1 0x1 PUSH1 0x1 PUSH1 0xA0 SHL SUB AND PUSH1 0x0 SWAP1 DUP2 MSTORE PUSH1 0x20 DUP2 SWAP1 MSTORE PUSH1 0x40 DUP2 KECCAK256 PUSH1 0x4 DUP4 ADD SLOAD SWAP1 SWAP2 SWAP1 PUSH1 0x1 PUSH1 0x1 PUSH1 0x40 SHL SUB DUP2 GT ISZERO PUSH2 0x1266 JUMPI PUSH2 0x1266 PUSH2 0x4CF3 JUMP JUMPDEST PUSH1 0x40 MLOAD SWAP1 DUP1 DUP3 MSTORE DUP1 PUSH1 0x20 MUL PUSH1 0x20 ADD DUP3 ADD PUSH1 0x40 MSTORE DUP1 ISZERO PUSH2 0x12CB JUMPI DUP2 PUSH1 0x20 ADD JUMPDEST PUSH2 0x12B8 PUSH1 0x40 MLOAD DUP1 PUSH1 0xA0 ADD PUSH1 0x40 MSTORE DUP1 PUSH1 0x0 DUP2 MSTORE PUSH1 0x20 ADD PUSH1 0x60 DUP2 MSTORE PUSH1 0x20 ADD PUSH1 0x60 DUP2 MSTORE PUSH1 0x20 ADD PUSH1 0x0 DUP2 MSTORE PUSH1 0x20 ADD PUSH1 0x0 ISZERO ISZERO DUP2 MSTORE POP SWAP1 JUMP JUMPDEST DUP2 MSTORE PUSH1 0x20 ADD SWAP1 PUSH1 0x1 SWAP1 SUB SWAP1 DUP2 PUSH2 0x1284 JUMPI SWAP1 POP JUMPDEST POP SWAP1 POP PUSH1 0x0 JUMPDEST PUSH1 0x4 DUP5 ADD SLOAD DUP2 LT ISZERO PUSH2 0x14AA JUMPI PUSH1 0x0 DUP5 PUSH1 0x4 ADD DUP3 DUP2 SLOAD DUP2 LT PUSH2 0x12F4 JUMPI PUSH2 0x12F4 PUSH2 0x4CDD JUMP JUMPDEST SWAP1 PUSH1 0x0 MSTORE PUSH1 0x20 PUSH1 0x0 KECCAK256 ADD SLOAD SWAP1 POP DUP4 PUSH1 0x4 ADD DUP2 DUP2 SLOAD DUP2 LT PUSH2 0x1316 JUMPI PUSH2 0x1316 PUSH2 0x4CDD JUMP JUMPDEST SWAP1 PUSH1 0x0 MSTORE PUSH1 0x20 PUSH1 0x0 KECCAK256 SWAP1 PUSH1 0x5 MUL ADD PUSH1 0x40 MLOAD DUP1 PUSH1 0xA0 ADD PUSH1 0x40 MSTORE SWAP1 DUP2 PUSH1 0x0 DUP3 ADD SLOAD DUP2 MSTORE PUSH1 0x20 ADD PUSH1 0x1 DUP3 ADD DUP1 SLOAD PUSH2 0x1349 SWAP1 PUSH2 0x4D09 JUMP JUMPDEST DUP1 PUSH1 0x1F ADD PUSH1 0x20 DUP1 SWAP2 DIV MUL PUSH1 0x20 ADD PUSH1 0x40 MLOAD SWAP1 DUP2 ADD PUSH1 0x40 MSTORE DUP1 SWAP3 SWAP2 SWAP1 DUP2 DUP2 MSTORE PUSH1 0x20 ADD DUP3 DUP1 SLOAD PUSH2 0x1375 SWAP1 PUSH2 0x4D09 JUMP JUMPDEST DUP1 ISZERO PUSH2 0x13C2 JUMPI DUP1 PUSH1 0x1F LT PUSH2 0x1397 JUMPI PUSH2 0x100 DUP1 DUP4 SLOAD DIV MUL DUP4 MSTORE SWAP2 PUSH1 0x20 ADD SWAP2 PUSH2 0x13C2 JUMP JUMPDEST DUP3 ADD SWAP2 SWAP1 PUSH1 0x0 MSTORE PUSH1 0x20 PUSH1 0x0 KECCAK256 SWAP1 JUMPDEST DUP2 SLOAD DUP2 MSTORE SWAP1 PUSH1 0x1 ADD SWAP1 PUSH1 0x20 ADD DUP1 DUP4 GT PUSH2 0x13A5 JUMPI DUP3 SWAP1 SUB PUSH1 0x1F AND DUP3 ADD SWAP2 JUMPDEST POP POP POP POP POP DUP2 MSTORE PUSH1 0x20 ADD PUSH1 0x2 DUP3 ADD DUP1 SLOAD PUSH2 0x13DB SWAP1 PUSH2 0x4D09 JUMP JUMPDEST DUP1 PUSH1 0x1F ADD PUSH1 0x20 DUP1 SWAP2 DIV MUL PUSH1 0x20 ADD PUSH1 0x40 MLOAD SWAP1 DUP2 ADD PUSH1 0x40 MSTORE DUP1 SWAP3 SWAP2 SWAP1 DUP2 DUP2 MSTORE PUSH1 0x20 ADD DUP3 DUP1 SLOAD PUSH2 0x1407 SWAP1 PUSH2 0x4D09 JUMP JUMPDEST DUP1 ISZERO PUSH2 0x1454 JUMPI DUP1 PUSH1 0x1F LT PUSH2 0x1429 JUMPI PUSH2 0x100 DUP1 DUP4 SLOAD DIV MUL DUP4 MSTORE SWAP2 PUSH1 0x20 ADD SWAP2 PUSH2 0x1454 JUMP JUMPDEST DUP3 ADD SWAP2 SWAP1 PUSH1 0x0 MSTORE PUSH1 0x20 PUSH1 0x0 KECCAK256 SWAP1 JUMPDEST DUP2 SLOAD DUP2 MSTORE SWAP1 PUSH1 0x1 ADD SWAP1 PUSH1 0x20 ADD DUP1 DUP4 GT PUSH2 0x1437 JUMPI DUP3 SWAP1 SUB PUSH1 0x1F AND DUP3 ADD SWAP2 JUMPDEST POP POP POP SWAP2 DUP4 MSTORE POP POP PUSH1 0x3 DUP3 ADD SLOAD PUSH1 0x20 DUP3 ADD MSTORE PUSH1 0x4 SWAP1 SWAP2 ADD SLOAD PUSH1 0xFF AND ISZERO ISZERO PUSH1 0x40 SWAP1 SWAP2 ADD MSTORE DUP4 MLOAD DUP5 SWAP1 DUP5 SWAP1 DUP2 LT PUSH2 0x148B JUMPI PUSH2 0x148B PUSH2 0x4CDD JUMP JUMPDEST PUSH1 0x20 MUL PUSH1 0x20 ADD ADD DUP2 SWAP1 MSTORE POP POP DUP1 DUP1 PUSH2 0x14A2 SWAP1 PUSH2 0x5134 JUMP JUMPDEST SWAP2 POP POP PUSH2 0x12D1 JUMP JUMPDEST POP DUP1 DUP4 PUSH1 0x5 ADD DUP1 DUP1 SLOAD DUP1 PUSH1 0x20 MUL PUSH1 0x20 ADD PUSH1 0x40 MLOAD SWAP1 DUP2 ADD PUSH1 0x40 MSTORE DUP1 SWAP3 SWAP2 SWAP1 DUP2 DUP2 MSTORE PUSH1 0x20 ADD DUP3 DUP1 SLOAD DUP1 ISZERO PUSH2 0x14FB JUMPI PUSH1 0x20 MUL DUP3 ADD SWAP2 SWAP1 PUSH1 0x0 MSTORE PUSH1 0x20 PUSH1 0x0 KECCAK256 SWAP1 JUMPDEST DUP2 SLOAD DUP2 MSTORE PUSH1 0x20 ADD SWAP1 PUSH1 0x1 ADD SWAP1 DUP1 DUP4 GT PUSH2 0x14E7 JUMPI JUMPDEST POP POP POP POP POP SWAP1 POP SWAP5 POP SWAP5 POP POP POP POP SWAP2 POP SWAP2 JUMP JUMPDEST PUSH1 0x1 PUSH1 0x1 PUSH1 0xA0 SHL SUB DUP7 AND PUSH1 0x0 SWAP1 DUP2 MSTORE PUSH1 0x20 DUP2 SWAP1 MSTORE PUSH1 0x40 DUP2 KECCAK256 DUP2 SWAP1 DUP2 DUP1 JUMPDEST DUP9 DUP2 LT ISZERO PUSH2 0x161F JUMPI PUSH1 0x4 DUP4 ADD SLOAD DUP11 DUP11 DUP4 DUP2 DUP2 LT PUSH2 0x154A JUMPI PUSH2 0x154A PUSH2 0x4CDD JUMP JUMPDEST SWAP1 POP PUSH1 0x20 MUL ADD CALLDATALOAD LT PUSH2 0x1590 JUMPI PUSH1 0x40 MLOAD PUSH3 0x461BCD PUSH1 0xE5 SHL DUP2 MSTORE PUSH1 0x20 PUSH1 0x4 DUP3 ADD MSTORE PUSH1 0xF PUSH1 0x24 DUP3 ADD MSTORE PUSH15 0x125B9D985B1A59081A5D195B481251 PUSH1 0x8A SHL PUSH1 0x44 DUP3 ADD MSTORE PUSH1 0x64 ADD PUSH2 0xA97 JUMP JUMPDEST PUSH1 0x0 DUP4 PUSH1 0x4 ADD DUP12 DUP12 DUP5 DUP2 DUP2 LT PUSH2 0x15A8 JUMPI PUSH2 0x15A8 PUSH2 0x4CDD JUMP JUMPDEST SWAP1 POP PUSH1 0x20 MUL ADD CALLDATALOAD DUP2 SLOAD DUP2 LT PUSH2 0x15BF JUMPI PUSH2 0x15BF PUSH2 0x4CDD JUMP JUMPDEST SWAP1 PUSH1 0x0 MSTORE PUSH1 0x20 PUSH1 0x0 KECCAK256 SWAP1 PUSH1 0x5 MUL ADD SWAP1 POP DUP9 DUP9 DUP4 DUP2 DUP2 LT PUSH2 0x15E1 JUMPI PUSH2 0x15E1 PUSH2 0x4CDD JUMP JUMPDEST SWAP1 POP PUSH1 0x20 MUL ADD CALLDATALOAD PUSH2 0x15F5 DUP3 PUSH1 0x3 ADD SLOAD PUSH2 0xDBF JUMP JUMPDEST PUSH2 0x15FF SWAP2 SWAP1 PUSH2 0x50FB JUMP JUMPDEST PUSH2 0x1609 SWAP1 DUP5 PUSH2 0x514D JUMP JUMPDEST SWAP3 POP POP DUP1 DUP1 PUSH2 0x1617 SWAP1 PUSH2 0x5134 JUMP JUMPDEST SWAP2 POP POP PUSH2 0x152B JUMP JUMPDEST POP PUSH1 0x0 PUSH2 0x162B DUP7 PUSH2 0xDBF JUMP JUMPDEST SWAP2 SWAP12 SWAP2 SWAP11 POP SWAP1 SWAP9 POP POP POP POP POP POP POP POP POP JUMP JUMPDEST PUSH1 0x0 PUSH1 0x7 DUP4 DUP2 SLOAD DUP2 LT PUSH2 0x1652 JUMPI PUSH2 0x1652 PUSH2 0x4CDD JUMP JUMPDEST SWAP1 PUSH1 0x0 MSTORE PUSH1 0x20 PUSH1 0x0 KECCAK256 SWAP1 PUSH1 0xF MUL ADD SWAP1 POP DUP3 DUP2 PUSH1 0x0 ADD SLOAD EQ PUSH2 0x1685 JUMPI PUSH1 0x40 MLOAD PUSH3 0x461BCD PUSH1 0xE5 SHL DUP2 MSTORE PUSH1 0x4 ADD PUSH2 0xA97 SWAP1 PUSH2 0x4E4A JUMP JUMPDEST PUSH1 0x1 DUP2 ADD SLOAD PUSH1 0x1 PUSH1 0x1 PUSH1 0xA0 SHL SUB AND CALLER EQ PUSH2 0x1707 JUMPI PUSH1 0x40 MLOAD PUSH3 0x461BCD PUSH1 0xE5 SHL DUP2 MSTORE PUSH1 0x20 PUSH1 0x4 DUP3 ADD MSTORE PUSH1 0x3E PUSH1 0x24 DUP3 ADD MSTORE PUSH32 0x4F6E6C79207468652072657374617572616E7420666F72207768696368207468 PUSH1 0x44 DUP3 ADD MSTORE PUSH32 0x65206F7264657220776173206D6164652063616E206163636570742069740000 PUSH1 0x64 DUP3 ADD MSTORE PUSH1 0x84 ADD PUSH2 0xA97 JUMP JUMPDEST PUSH1 0x0 PUSH1 0x9 DUP3 ADD SLOAD PUSH1 0xFF AND PUSH1 0x6 DUP2 GT ISZERO PUSH2 0x1722 JUMPI PUSH2 0x1722 PUSH2 0x486C JUMP JUMPDEST EQ PUSH2 0x178E JUMPI PUSH1 0x40 MLOAD PUSH3 0x461BCD PUSH1 0xE5 SHL DUP2 MSTORE PUSH1 0x20 PUSH1 0x4 DUP3 ADD MSTORE PUSH1 0x36 PUSH1 0x24 DUP3 ADD MSTORE PUSH32 0x43616E206F6E6C7920616363657074206F726465727320666F72207768696368 PUSH1 0x44 DUP3 ADD MSTORE PUSH22 0x20746865207374617475732069732050454E44494E47 PUSH1 0x50 SHL PUSH1 0x64 DUP3 ADD MSTORE PUSH1 0x84 ADD PUSH2 0xA97 JUMP JUMPDEST PUSH1 0xA DUP2 ADD SWAP2 SWAP1 SWAP2 SSTORE TIMESTAMP PUSH1 0xC DUP3 ADD SSTORE PUSH1 0x9 ADD DUP1 SLOAD PUSH1 0xFF NOT AND PUSH1 0x1 SWAP1 DUP2 OR SWAP1 SWAP2 SSTORE PUSH1 0x6 DUP1 SLOAD SWAP2 DUP3 ADD DUP2 SSTORE PUSH1 0x0 MSTORE PUSH32 0xF652222313E28459528D920B65115C16C04F3EFC82AAEDC97BE59F3F377C0D3F ADD SSTORE JUMP JUMPDEST CALLER PUSH1 0x0 DUP2 DUP2 MSTORE PUSH1 0x1 PUSH1 0x20 DUP2 SWAP1 MSTORE PUSH1 0x40 SWAP1 SWAP2 KECCAK256 DUP1 SLOAD PUSH1 0x1 PUSH1 0x1 PUSH1 0xA0 SHL SUB NOT AND SWAP1 SWAP3 OR DUP3 SSTORE DUP2 ADD PUSH2 0x180E DUP4 DUP6 DUP4 PUSH2 0x4E8C JUMP JUMPDEST POP POP PUSH1 0x9 DUP1 SLOAD PUSH1 0x1 DUP2 ADD DUP3 SSTORE PUSH1 0x0 SWAP2 SWAP1 SWAP2 MSTORE PUSH32 0x6E1540171B6C0C960B71A7020D9F60077F6AF931A8BBF590DA0223DACF75C7AF ADD DUP1 SLOAD PUSH1 0x1 PUSH1 0x1 PUSH1 0xA0 SHL SUB NOT AND CALLER OR SWAP1 SSTORE POP POP JUMP JUMPDEST PUSH1 0x0 PUSH1 0x7 DUP3 DUP2 SLOAD DUP2 LT PUSH2 0x186B JUMPI PUSH2 0x186B PUSH2 0x4CDD JUMP JUMPDEST SWAP1 PUSH1 0x0 MSTORE PUSH1 0x20 PUSH1 0x0 KECCAK256 SWAP1 PUSH1 0xF MUL ADD SWAP1 POP DUP2 DUP2 PUSH1 0x0 ADD SLOAD EQ PUSH2 0x189E JUMPI PUSH1 0x40 MLOAD PUSH3 0x461BCD PUSH1 0xE5 SHL DUP2 MSTORE PUSH1 0x4 ADD PUSH2 0xA97 SWAP1 PUSH2 0x4E4A JUMP JUMPDEST PUSH1 0x2 DUP2 ADD SLOAD PUSH1 0x1 PUSH1 0x1 PUSH1 0xA0 SHL SUB AND CALLER EQ PUSH2 0x1904 JUMPI PUSH1 0x40 MLOAD PUSH3 0x461BCD PUSH1 0xE5 SHL DUP2 MSTORE PUSH1 0x20 PUSH1 0x4 DUP3 ADD MSTORE PUSH1 0x21 PUSH1 0x24 DUP3 ADD MSTORE PUSH32 0x4F72646572206D7573742062652063616E63656C6C656420627920636C69656E PUSH1 0x44 DUP3 ADD MSTORE PUSH1 0x1D PUSH1 0xFA SHL PUSH1 0x64 DUP3 ADD MSTORE PUSH1 0x84 ADD PUSH2 0xA97 JUMP JUMPDEST PUSH1 0x5 PUSH1 0x9 DUP3 ADD SLOAD PUSH1 0xFF AND PUSH1 0x6 DUP2 GT ISZERO PUSH2 0x191F JUMPI PUSH2 0x191F PUSH2 0x486C JUMP JUMPDEST EQ ISZERO DUP1 ISZERO PUSH2 0x1946 JUMPI POP PUSH1 0x6 PUSH1 0x9 DUP3 ADD SLOAD PUSH1 0xFF AND PUSH1 0x6 DUP2 GT ISZERO PUSH2 0x1943 JUMPI PUSH2 0x1943 PUSH2 0x486C JUMP JUMPDEST EQ ISZERO JUMPDEST PUSH2 0x19B8 JUMPI PUSH1 0x40 MLOAD PUSH3 0x461BCD PUSH1 0xE5 SHL DUP2 MSTORE PUSH1 0x20 PUSH1 0x4 DUP3 ADD MSTORE PUSH1 0x38 PUSH1 0x24 DUP3 ADD MSTORE PUSH32 0x4F726465722063616E6E6F7420626520696E2044454C495645524544206F7220 PUSH1 0x44 DUP3 ADD MSTORE PUSH32 0x43414E43454C4C45442073746174757320616C72656164790000000000000000 PUSH1 0x64 DUP3 ADD MSTORE PUSH1 0x84 ADD PUSH2 0xA97 JUMP JUMPDEST PUSH1 0x2 DUP2 ADD SLOAD PUSH1 0x1 DUP3 ADD SLOAD PUSH1 0x1 PUSH1 0x1 PUSH1 0xA0 SHL SUB SWAP2 DUP3 AND SWAP2 AND PUSH1 0x0 PUSH1 0x9 DUP5 ADD SLOAD PUSH1 0xFF AND PUSH1 0x6 DUP2 GT ISZERO PUSH2 0x19EA JUMPI PUSH2 0x19EA PUSH2 0x486C JUMP JUMPDEST EQ DUP1 PUSH2 0x1A0E JUMPI POP PUSH1 0x1 PUSH1 0x9 DUP5 ADD SLOAD PUSH1 0xFF AND PUSH1 0x6 DUP2 GT ISZERO PUSH2 0x1A0C JUMPI PUSH2 0x1A0C PUSH2 0x486C JUMP JUMPDEST EQ JUMPDEST DUP1 PUSH2 0x1A31 JUMPI POP PUSH1 0x2 PUSH1 0x9 DUP5 ADD SLOAD PUSH1 0xFF AND PUSH1 0x6 DUP2 GT ISZERO PUSH2 0x1A2F JUMPI PUSH2 0x1A2F PUSH2 0x486C JUMP JUMPDEST EQ JUMPDEST ISZERO PUSH2 0x1A8F JUMPI DUP2 PUSH1 0x1 PUSH1 0x1 PUSH1 0xA0 SHL SUB AND PUSH2 0x8FC DUP5 PUSH1 0x6 ADD SLOAD DUP6 PUSH1 0x7 ADD SLOAD PUSH2 0x1A57 SWAP2 SWAP1 PUSH2 0x514D JUMP JUMPDEST PUSH1 0x40 MLOAD DUP2 ISZERO SWAP1 SWAP3 MUL SWAP2 PUSH1 0x0 DUP2 DUP2 DUP2 DUP6 DUP9 DUP9 CALL SWAP4 POP POP POP POP PUSH2 0x1A8A JUMPI PUSH1 0x40 MLOAD PUSH3 0x461BCD PUSH1 0xE5 SHL DUP2 MSTORE PUSH1 0x4 ADD PUSH2 0xA97 SWAP1 PUSH2 0x5160 JUMP JUMPDEST PUSH2 0x1C5A JUMP JUMPDEST PUSH1 0x3 PUSH1 0x9 DUP5 ADD SLOAD PUSH1 0xFF AND PUSH1 0x6 DUP2 GT ISZERO PUSH2 0x1AAA JUMPI PUSH2 0x1AAA PUSH2 0x486C JUMP JUMPDEST SUB PUSH2 0x1B67 JUMPI PUSH1 0x7 DUP4 ADD SLOAD PUSH1 0x40 MLOAD PUSH1 0x1 PUSH1 0x1 PUSH1 0xA0 SHL SUB DUP4 AND SWAP2 DUP1 ISZERO PUSH2 0x8FC MUL SWAP2 PUSH1 0x0 DUP2 DUP2 DUP2 DUP6 DUP9 DUP9 CALL SWAP4 POP POP POP POP PUSH2 0x1B23 JUMPI PUSH1 0x40 MLOAD PUSH3 0x461BCD PUSH1 0xE5 SHL DUP2 MSTORE PUSH1 0x20 PUSH1 0x4 DUP3 ADD MSTORE PUSH1 0x1B PUSH1 0x24 DUP3 ADD MSTORE PUSH32 0x4661696C656420746F20726566756E642072657374617572616E740000000000 PUSH1 0x44 DUP3 ADD MSTORE PUSH1 0x64 ADD PUSH2 0xA97 JUMP JUMPDEST PUSH1 0x6 DUP4 ADD SLOAD PUSH1 0x40 MLOAD PUSH1 0x1 PUSH1 0x1 PUSH1 0xA0 SHL SUB DUP5 AND SWAP2 DUP1 ISZERO PUSH2 0x8FC MUL SWAP2 PUSH1 0x0 DUP2 DUP2 DUP2 DUP6 DUP9 DUP9 CALL SWAP4 POP POP POP POP PUSH2 0x1A8A JUMPI PUSH1 0x40 MLOAD PUSH3 0x461BCD PUSH1 0xE5 SHL DUP2 MSTORE PUSH1 0x4 ADD PUSH2 0xA97 SWAP1 PUSH2 0x5160 JUMP JUMPDEST PUSH1 0x2 DUP4 ADD SLOAD PUSH1 0x7 DUP5 ADD SLOAD PUSH1 0x40 MLOAD PUSH1 0x1 PUSH1 0x1 PUSH1 0xA0 SHL SUB SWAP3 DUP4 AND SWAP3 DUP5 AND SWAP2 DUP1 ISZERO PUSH2 0x8FC MUL SWAP2 PUSH1 0x0 DUP2 DUP2 DUP2 DUP6 DUP9 DUP9 CALL SWAP4 POP POP POP POP PUSH2 0x1BE4 JUMPI PUSH1 0x40 MLOAD PUSH3 0x461BCD PUSH1 0xE5 SHL DUP2 MSTORE PUSH1 0x20 PUSH1 0x4 DUP3 ADD MSTORE PUSH1 0x1B PUSH1 0x24 DUP3 ADD MSTORE PUSH32 0x4661696C656420746F20726566756E642072657374617572616E740000000000 PUSH1 0x44 DUP3 ADD MSTORE PUSH1 0x64 ADD PUSH2 0xA97 JUMP JUMPDEST PUSH1 0x6 DUP5 ADD SLOAD PUSH1 0x40 MLOAD PUSH1 0x1 PUSH1 0x1 PUSH1 0xA0 SHL SUB DUP4 AND SWAP2 DUP1 ISZERO PUSH2 0x8FC MUL SWAP2 PUSH1 0x0 DUP2 DUP2 DUP2 DUP6 DUP9 DUP9 CALL SWAP4 POP POP POP POP PUSH2 0x1C58 JUMPI PUSH1 0x40 MLOAD PUSH3 0x461BCD PUSH1 0xE5 SHL DUP2 MSTORE PUSH1 0x20 PUSH1 0x4 DUP3 ADD MSTORE PUSH1 0x18 PUSH1 0x24 DUP3 ADD MSTORE PUSH32 0x4661696C656420746F20726566756E6420636F75726965720000000000000000 PUSH1 0x44 DUP3 ADD MSTORE PUSH1 0x64 ADD PUSH2 0xA97 JUMP JUMPDEST POP JUMPDEST POP POP PUSH1 0x9 ADD DUP1 SLOAD PUSH1 0xFF NOT AND PUSH1 0x6 OR SWAP1 SSTORE POP JUMP JUMPDEST PUSH1 0x1 PUSH1 0x20 DUP2 SWAP1 MSTORE PUSH1 0x0 SWAP2 DUP3 MSTORE PUSH1 0x40 SWAP1 SWAP2 KECCAK256 DUP1 SLOAD SWAP2 DUP2 ADD DUP1 SLOAD PUSH1 0x1 PUSH1 0x1 PUSH1 0xA0 SHL SUB SWAP1 SWAP4 AND SWAP3 PUSH2 0x1C9A SWAP1 PUSH2 0x4D09 JUMP JUMPDEST DUP1 PUSH1 0x1F ADD PUSH1 0x20 DUP1 SWAP2 DIV MUL PUSH1 0x20 ADD PUSH1 0x40 MLOAD SWAP1 DUP2 ADD PUSH1 0x40 MSTORE DUP1 SWAP3 SWAP2 SWAP1 DUP2 DUP2 MSTORE PUSH1 0x20 ADD DUP3 DUP1 SLOAD PUSH2 0x1CC6 SWAP1 PUSH2 0x4D09 JUMP JUMPDEST DUP1 ISZERO PUSH2 0x1D13 JUMPI DUP1 PUSH1 0x1F LT PUSH2 0x1CE8 JUMPI PUSH2 0x100 DUP1 DUP4 SLOAD DIV MUL DUP4 MSTORE SWAP2 PUSH1 0x20 ADD SWAP2 PUSH2 0x1D13 JUMP JUMPDEST DUP3 ADD SWAP2 SWAP1 PUSH1 0x0 MSTORE PUSH1 0x20 PUSH1 0x0 KECCAK256 SWAP1 JUMPDEST DUP2 SLOAD DUP2 MSTORE SWAP1 PUSH1 0x1 ADD SWAP1 PUSH1 0x20 ADD DUP1 DUP4 GT PUSH2 0x1CF6 JUMPI DUP3 SWAP1 SUB PUSH1 0x1F AND DUP3 ADD SWAP2 JUMPDEST POP POP POP POP POP SWAP1 POP DUP3 JUMP JUMPDEST PUSH1 0x1 PUSH1 0x1 PUSH1 0xA0 SHL SUB DUP2 AND PUSH1 0x0 SWAP1 DUP2 MSTORE PUSH1 0x4 PUSH1 0x20 SWAP1 DUP2 MSTORE PUSH1 0x40 DUP1 DUP4 KECCAK256 DUP1 SLOAD DUP3 MLOAD DUP2 DUP6 MUL DUP2 ADD DUP6 ADD SWAP1 SWAP4 MSTORE DUP1 DUP4 MSTORE PUSH1 0x60 SWAP5 SWAP4 DUP4 ADD DUP3 DUP3 DUP1 ISZERO PUSH2 0x1D7C JUMPI PUSH1 0x20 MUL DUP3 ADD SWAP2 SWAP1 PUSH1 0x0 MSTORE PUSH1 0x20 PUSH1 0x0 KECCAK256 SWAP1 JUMPDEST DUP2 SLOAD DUP2 MSTORE PUSH1 0x20 ADD SWAP1 PUSH1 0x1 ADD SWAP1 DUP1 DUP4 GT PUSH2 0x1D68 JUMPI JUMPDEST POP POP POP POP POP SWAP1 POP PUSH1 0x0 DUP2 MLOAD PUSH1 0x1 PUSH1 0x1 PUSH1 0x40 SHL SUB DUP2 GT ISZERO PUSH2 0x1D9E JUMPI PUSH2 0x1D9E PUSH2 0x4CF3 JUMP JUMPDEST PUSH1 0x40 MLOAD SWAP1 DUP1 DUP3 MSTORE DUP1 PUSH1 0x20 MUL PUSH1 0x20 ADD DUP3 ADD PUSH1 0x40 MSTORE DUP1 ISZERO PUSH2 0x1DD7 JUMPI DUP2 PUSH1 0x20 ADD JUMPDEST PUSH2 0x1DC4 PUSH2 0x4252 JUMP JUMPDEST DUP2 MSTORE PUSH1 0x20 ADD SWAP1 PUSH1 0x1 SWAP1 SUB SWAP1 DUP2 PUSH2 0x1DBC JUMPI SWAP1 POP JUMPDEST POP SWAP1 POP PUSH1 0x0 JUMPDEST DUP3 MLOAD DUP2 LT ISZERO PUSH2 0x204E JUMPI PUSH1 0x0 DUP4 DUP3 DUP2 MLOAD DUP2 LT PUSH2 0x1DFA JUMPI PUSH2 0x1DFA PUSH2 0x4CDD JUMP JUMPDEST PUSH1 0x20 MUL PUSH1 0x20 ADD ADD MLOAD SWAP1 POP PUSH1 0x7 DUP2 DUP2 SLOAD DUP2 LT PUSH2 0x1E17 JUMPI PUSH2 0x1E17 PUSH2 0x4CDD JUMP JUMPDEST PUSH1 0x0 SWAP2 DUP3 MSTORE PUSH1 0x20 SWAP2 DUP3 SWAP1 KECCAK256 PUSH1 0x40 DUP1 MLOAD PUSH2 0x1E0 DUP2 ADD DUP3 MSTORE PUSH1 0xF SWAP1 SWAP4 MUL SWAP1 SWAP2 ADD DUP1 SLOAD DUP4 MSTORE PUSH1 0x1 DUP2 ADD SLOAD PUSH1 0x1 PUSH1 0x1 PUSH1 0xA0 SHL SUB SWAP1 DUP2 AND DUP5 DUP7 ADD MSTORE PUSH1 0x2 DUP3 ADD SLOAD DUP2 AND DUP5 DUP5 ADD MSTORE PUSH1 0x3 DUP3 ADD SLOAD AND PUSH1 0x60 DUP5 ADD MSTORE PUSH1 0x4 DUP2 ADD DUP1 SLOAD DUP4 MLOAD DUP2 DUP8 MUL DUP2 ADD DUP8 ADD SWAP1 SWAP5 MSTORE DUP1 DUP5 MSTORE SWAP4 SWAP5 SWAP2 SWAP4 PUSH1 0x80 DUP7 ADD SWAP4 SWAP3 DUP4 ADD DUP3 DUP3 DUP1 ISZERO PUSH2 0x1EB1 JUMPI PUSH1 0x20 MUL DUP3 ADD SWAP2 SWAP1 PUSH1 0x0 MSTORE PUSH1 0x20 PUSH1 0x0 KECCAK256 SWAP1 JUMPDEST DUP2 SLOAD DUP2 MSTORE PUSH1 0x20 ADD SWAP1 PUSH1 0x1 ADD SWAP1 DUP1 DUP4 GT PUSH2 0x1E9D JUMPI JUMPDEST POP POP POP POP POP DUP2 MSTORE PUSH1 0x20 ADD PUSH1 0x5 DUP3 ADD DUP1 SLOAD DUP1 PUSH1 0x20 MUL PUSH1 0x20 ADD PUSH1 0x40 MLOAD SWAP1 DUP2 ADD PUSH1 0x40 MSTORE DUP1 SWAP3 SWAP2 SWAP1 DUP2 DUP2 MSTORE PUSH1 0x20 ADD DUP3 DUP1 SLOAD DUP1 ISZERO PUSH2 0x1F09 JUMPI PUSH1 0x20 MUL DUP3 ADD SWAP2 SWAP1 PUSH1 0x0 MSTORE PUSH1 0x20 PUSH1 0x0 KECCAK256 SWAP1 JUMPDEST DUP2 SLOAD DUP2 MSTORE PUSH1 0x20 ADD SWAP1 PUSH1 0x1 ADD SWAP1 DUP1 DUP4 GT PUSH2 0x1EF5 JUMPI JUMPDEST POP POP POP POP POP DUP2 MSTORE PUSH1 0x20 ADD PUSH1 0x6 DUP3 ADD SLOAD DUP2 MSTORE PUSH1 0x20 ADD PUSH1 0x7 DUP3 ADD SLOAD DUP2 MSTORE PUSH1 0x20 ADD PUSH1 0x8 DUP3 ADD DUP1 SLOAD PUSH2 0x1F36 SWAP1 PUSH2 0x4D09 JUMP JUMPDEST DUP1 PUSH1 0x1F ADD PUSH1 0x20 DUP1 SWAP2 DIV MUL PUSH1 0x20 ADD PUSH1 0x40 MLOAD SWAP1 DUP2 ADD PUSH1 0x40 MSTORE DUP1 SWAP3 SWAP2 SWAP1 DUP2 DUP2 MSTORE PUSH1 0x20 ADD DUP3 DUP1 SLOAD PUSH2 0x1F62 SWAP1 PUSH2 0x4D09 JUMP JUMPDEST DUP1 ISZERO PUSH2 0x1FAF JUMPI DUP1 PUSH1 0x1F LT PUSH2 0x1F84 JUMPI PUSH2 0x100 DUP1 DUP4 SLOAD DIV MUL DUP4 MSTORE SWAP2 PUSH1 0x20 ADD SWAP2 PUSH2 0x1FAF JUMP JUMPDEST DUP3 ADD SWAP2 SWAP1 PUSH1 0x0 MSTORE PUSH1 0x20 PUSH1 0x0 KECCAK256 SWAP1 JUMPDEST DUP2 SLOAD DUP2 MSTORE SWAP1 PUSH1 0x1 ADD SWAP1 PUSH1 0x20 ADD DUP1 DUP4 GT PUSH2 0x1F92 JUMPI DUP3 SWAP1 SUB PUSH1 0x1F AND DUP3 ADD SWAP2 JUMPDEST POP POP POP SWAP2 DUP4 MSTORE POP POP PUSH1 0x9 DUP3 ADD SLOAD PUSH1 0x20 SWAP1 SWAP2 ADD SWAP1 PUSH1 0xFF AND PUSH1 0x6 DUP2 GT ISZERO PUSH2 0x1FD6 JUMPI PUSH2 0x1FD6 PUSH2 0x486C JUMP JUMPDEST PUSH1 0x6 DUP2 GT ISZERO PUSH2 0x1FE7 JUMPI PUSH2 0x1FE7 PUSH2 0x486C JUMP JUMPDEST DUP2 MSTORE PUSH1 0x20 ADD PUSH1 0xA DUP3 ADD SLOAD DUP2 MSTORE PUSH1 0x20 ADD PUSH1 0xB DUP3 ADD SLOAD DUP2 MSTORE PUSH1 0x20 ADD PUSH1 0xC DUP3 ADD SLOAD DUP2 MSTORE PUSH1 0x20 ADD PUSH1 0xD DUP3 ADD SLOAD DUP2 MSTORE PUSH1 0x20 ADD PUSH1 0xE DUP3 ADD SLOAD DUP2 MSTORE POP POP DUP4 DUP4 DUP2 MLOAD DUP2 LT PUSH2 0x202F JUMPI PUSH2 0x202F PUSH2 0x4CDD JUMP JUMPDEST PUSH1 0x20 MUL PUSH1 0x20 ADD ADD DUP2 SWAP1 MSTORE POP POP DUP1 DUP1 PUSH2 0x2046 SWAP1 PUSH2 0x5134 JUMP JUMPDEST SWAP2 POP POP PUSH2 0x1DDD JUMP JUMPDEST POP SWAP4 SWAP3 POP POP POP JUMP JUMPDEST CALLER PUSH1 0x0 SWAP1 DUP2 MSTORE PUSH1 0x20 DUP2 DUP2 MSTORE PUSH1 0x40 DUP1 DUP4 KECCAK256 PUSH1 0x4 DUP2 ADD DUP1 SLOAD DUP4 MLOAD PUSH1 0xA0 DUP2 ADD DUP6 MSTORE DUP2 DUP2 MSTORE DUP5 MLOAD PUSH1 0x1F DUP13 ADD DUP8 SWAP1 DIV DUP8 MUL DUP2 ADD DUP8 ADD SWAP1 SWAP6 MSTORE DUP11 DUP6 MSTORE SWAP3 SWAP5 SWAP1 SWAP4 SWAP2 SWAP3 SWAP2 DUP3 DUP3 ADD SWAP2 DUP13 SWAP1 DUP13 SWAP1 DUP2 SWAP1 DUP5 ADD DUP4 DUP3 DUP1 DUP3 DUP5 CALLDATACOPY PUSH1 0x0 SWAP3 ADD SWAP2 SWAP1 SWAP2 MSTORE POP POP POP SWAP1 DUP3 MSTORE POP PUSH1 0x40 DUP1 MLOAD PUSH1 0x20 PUSH1 0x1F DUP12 ADD DUP2 SWAP1 DIV DUP2 MUL DUP3 ADD DUP2 ADD SWAP1 SWAP3 MSTORE DUP10 DUP2 MSTORE SWAP2 DUP2 ADD SWAP2 SWAP1 DUP11 SWAP1 DUP11 SWAP1 DUP2 SWAP1 DUP5 ADD DUP4 DUP3 DUP1 DUP3 DUP5 CALLDATACOPY PUSH1 0x0 SWAP3 ADD DUP3 SWAP1 MSTORE POP SWAP4 DUP6 MSTORE POP POP POP PUSH1 0x20 DUP1 DUP4 ADD DUP10 SWAP1 MSTORE PUSH1 0x1 PUSH1 0x40 SWAP1 SWAP4 ADD DUP4 SWAP1 MSTORE DUP5 SLOAD DUP1 DUP5 ADD DUP7 SSTORE SWAP5 DUP3 MSTORE SWAP1 DUP2 SWAP1 KECCAK256 DUP4 MLOAD PUSH1 0x5 SWAP1 SWAP6 MUL ADD SWAP4 DUP5 SSTORE DUP3 ADD MLOAD SWAP2 SWAP3 SWAP2 SWAP1 DUP3 ADD SWAP1 PUSH2 0x212D SWAP1 DUP3 PUSH2 0x4D8B JUMP JUMPDEST POP PUSH1 0x40 DUP3 ADD MLOAD PUSH1 0x2 DUP3 ADD SWAP1 PUSH2 0x2142 SWAP1 DUP3 PUSH2 0x4D8B JUMP JUMPDEST POP PUSH1 0x60 DUP3 ADD MLOAD PUSH1 0x3 DUP3 ADD SSTORE PUSH1 0x80 SWAP1 SWAP2 ADD MLOAD PUSH1 0x4 SWAP1 SWAP2 ADD DUP1 SLOAD PUSH1 0xFF NOT AND SWAP2 ISZERO ISZERO SWAP2 SWAP1 SWAP2 OR SWAP1 SSTORE SWAP8 SWAP7 POP POP POP POP POP POP POP JUMP JUMPDEST PUSH2 0x21A6 PUSH1 0x40 MLOAD DUP1 PUSH1 0xA0 ADD PUSH1 0x40 MSTORE DUP1 PUSH1 0x0 DUP2 MSTORE PUSH1 0x20 ADD PUSH1 0x60 DUP2 MSTORE PUSH1 0x20 ADD PUSH1 0x60 DUP2 MSTORE PUSH1 0x20 ADD PUSH1 0x0 DUP2 MSTORE PUSH1 0x20 ADD PUSH1 0x0 ISZERO ISZERO DUP2 MSTORE POP SWAP1 JUMP JUMPDEST PUSH1 0x1 PUSH1 0x1 PUSH1 0xA0 SHL SUB DUP4 AND PUSH1 0x0 SWAP1 DUP2 MSTORE PUSH1 0x20 DUP2 SWAP1 MSTORE PUSH1 0x40 SWAP1 KECCAK256 PUSH1 0x4 ADD DUP1 SLOAD DUP4 SWAP1 DUP2 LT PUSH2 0x21D3 JUMPI PUSH2 0x21D3 PUSH2 0x4CDD JUMP JUMPDEST SWAP1 PUSH1 0x0 MSTORE PUSH1 0x20 PUSH1 0x0 KECCAK256 SWAP1 PUSH1 0x5 MUL ADD PUSH1 0x40 MLOAD DUP1 PUSH1 0xA0 ADD PUSH1 0x40 MSTORE SWAP1 DUP2 PUSH1 0x0 DUP3 ADD SLOAD DUP2 MSTORE PUSH1 0x20 ADD PUSH1 0x1 DUP3 ADD DUP1 SLOAD PUSH2 0x2206 SWAP1 PUSH2 0x4D09 JUMP JUMPDEST DUP1 PUSH1 0x1F ADD PUSH1 0x20 DUP1 SWAP2 DIV MUL PUSH1 0x20 ADD PUSH1 0x40 MLOAD SWAP1 DUP2 ADD PUSH1 0x40 MSTORE DUP1 SWAP3 SWAP2 SWAP1 DUP2 DUP2 MSTORE PUSH1 0x20 ADD DUP3 DUP1 SLOAD PUSH2 0x2232 SWAP1 PUSH2 0x4D09 JUMP JUMPDEST DUP1 ISZERO PUSH2 0x227F JUMPI DUP1 PUSH1 0x1F LT PUSH2 0x2254 JUMPI PUSH2 0x100 DUP1 DUP4 SLOAD DIV MUL DUP4 MSTORE SWAP2 PUSH1 0x20 ADD SWAP2 PUSH2 0x227F JUMP JUMPDEST DUP3 ADD SWAP2 SWAP1 PUSH1 0x0 MSTORE PUSH1 0x20 PUSH1 0x0 KECCAK256 SWAP1 JUMPDEST DUP2 SLOAD DUP2 MSTORE SWAP1 PUSH1 0x1 ADD SWAP1 PUSH1 0x20 ADD DUP1 DUP4 GT PUSH2 0x2262 JUMPI DUP3 SWAP1 SUB PUSH1 0x1F AND DUP3 ADD SWAP2 JUMPDEST POP POP POP POP POP DUP2 MSTORE PUSH1 0x20 ADD PUSH1 0x2 DUP3 ADD DUP1 SLOAD PUSH2 0x2298 SWAP1 PUSH2 0x4D09 JUMP JUMPDEST DUP1 PUSH1 0x1F ADD PUSH1 0x20 DUP1 SWAP2 DIV MUL PUSH1 0x20 ADD PUSH1 0x40 MLOAD SWAP1 DUP2 ADD PUSH1 0x40 MSTORE DUP1 SWAP3 SWAP2 SWAP1 DUP2 DUP2 MSTORE PUSH1 0x20 ADD DUP3 DUP1 SLOAD PUSH2 0x22C4 SWAP1 PUSH2 0x4D09 JUMP JUMPDEST DUP1 ISZERO PUSH2 0x2311 JUMPI DUP1 PUSH1 0x1F LT PUSH2 0x22E6 JUMPI PUSH2 0x100 DUP1 DUP4 SLOAD DIV MUL DUP4 MSTORE SWAP2 PUSH1 0x20 ADD SWAP2 PUSH2 0x2311 JUMP JUMPDEST DUP3 ADD SWAP2 SWAP1 PUSH1 0x0 MSTORE PUSH1 0x20 PUSH1 0x0 KECCAK256 SWAP1 JUMPDEST DUP2 SLOAD DUP2 MSTORE SWAP1 PUSH1 0x1 ADD SWAP1 PUSH1 0x20 ADD DUP1 DUP4 GT PUSH2 0x22F4 JUMPI DUP3 SWAP1 SUB PUSH1 0x1F AND DUP3 ADD SWAP2 JUMPDEST POP POP POP SWAP2 DUP4 MSTORE POP POP PUSH1 0x3 DUP3 ADD SLOAD PUSH1 0x20 DUP3 ADD MSTORE PUSH1 0x4 SWAP1 SWAP2 ADD SLOAD PUSH1 0xFF AND ISZERO ISZERO PUSH1 0x40 SWAP1 SWAP2 ADD MSTORE SWAP1 POP JUMPDEST SWAP3 SWAP2 POP POP JUMP JUMPDEST PUSH1 0x6 DUP2 DUP2 SLOAD DUP2 LT PUSH2 0x234D JUMPI PUSH1 0x0 DUP1 REVERT JUMPDEST PUSH1 0x0 SWAP2 DUP3 MSTORE PUSH1 0x20 SWAP1 SWAP2 KECCAK256 ADD SLOAD SWAP1 POP DUP2 JUMP JUMPDEST PUSH1 0x1 PUSH1 0x1 PUSH1 0xA0 SHL SUB DUP2 AND PUSH1 0x0 SWAP1 DUP2 MSTORE PUSH1 0x2 PUSH1 0x20 SWAP1 DUP2 MSTORE PUSH1 0x40 DUP1 DUP4 KECCAK256 DUP1 SLOAD DUP3 MLOAD DUP2 DUP6 MUL DUP2 ADD DUP6 ADD SWAP1 SWAP4 MSTORE DUP1 DUP4 MSTORE PUSH1 0x60 SWAP5 SWAP4 DUP4 ADD DUP3 DUP3 DUP1 ISZERO PUSH2 0x23BD JUMPI PUSH1 0x20 MUL DUP3 ADD SWAP2 SWAP1 PUSH1 0x0 MSTORE PUSH1 0x20 PUSH1 0x0 KECCAK256 SWAP1 JUMPDEST DUP2 SLOAD DUP2 MSTORE PUSH1 0x20 ADD SWAP1 PUSH1 0x1 ADD SWAP1 DUP1 DUP4 GT PUSH2 0x23A9 JUMPI JUMPDEST POP POP POP POP POP SWAP1 POP PUSH1 0x0 DUP2 MLOAD PUSH1 0x1 PUSH1 0x1 PUSH1 0x40 SHL SUB DUP2 GT ISZERO PUSH2 0x23DF JUMPI PUSH2 0x23DF PUSH2 0x4CF3 JUMP JUMPDEST PUSH1 0x40 MLOAD SWAP1 DUP1 DUP3 MSTORE DUP1 PUSH1 0x20 MUL PUSH1 0x20 ADD DUP3 ADD PUSH1 0x40 MSTORE DUP1 ISZERO PUSH2 0x2418 JUMPI DUP2 PUSH1 0x20 ADD JUMPDEST PUSH2 0x2405 PUSH2 0x4252 JUMP JUMPDEST DUP2 MSTORE PUSH1 0x20 ADD SWAP1 PUSH1 0x1 SWAP1 SUB SWAP1 DUP2 PUSH2 0x23FD JUMPI SWAP1 POP JUMPDEST POP SWAP1 POP PUSH1 0x0 JUMPDEST DUP3 MLOAD DUP2 LT ISZERO PUSH2 0x204E JUMPI PUSH1 0x0 DUP4 DUP3 DUP2 MLOAD DUP2 LT PUSH2 0x243B JUMPI PUSH2 0x243B PUSH2 0x4CDD JUMP JUMPDEST PUSH1 0x20 MUL PUSH1 0x20 ADD ADD MLOAD SWAP1 POP PUSH1 0x7 DUP2 DUP2 SLOAD DUP2 LT PUSH2 0x2458 JUMPI PUSH2 0x2458 PUSH2 0x4CDD JUMP JUMPDEST PUSH1 0x0 SWAP2 DUP3 MSTORE PUSH1 0x20 SWAP2 DUP3 SWAP1 KECCAK256 PUSH1 0x40 DUP1 MLOAD PUSH2 0x1E0 DUP2 ADD DUP3 MSTORE PUSH1 0xF SWAP1 SWAP4 MUL SWAP1 SWAP2 ADD DUP1 SLOAD DUP4 MSTORE PUSH1 0x1 DUP2 ADD SLOAD PUSH1 0x1 PUSH1 0x1 PUSH1 0xA0 SHL SUB SWAP1 DUP2 AND DUP5 DUP7 ADD MSTORE PUSH1 0x2 DUP3 ADD SLOAD DUP2 AND DUP5 DUP5 ADD MSTORE PUSH1 0x3 DUP3 ADD SLOAD AND PUSH1 0x60 DUP5 ADD MSTORE PUSH1 0x4 DUP2 ADD DUP1 SLOAD DUP4 MLOAD DUP2 DUP8 MUL DUP2 ADD DUP8 ADD SWAP1 SWAP5 MSTORE DUP1 DUP5 MSTORE SWAP4 SWAP5 SWAP2 SWAP4 PUSH1 0x80 DUP7 ADD SWAP4 SWAP3 DUP4 ADD DUP3 DUP3 DUP1 ISZERO PUSH2 0x24F2 JUMPI PUSH1 0x20 MUL DUP3 ADD SWAP2 SWAP1 PUSH1 0x0 MSTORE PUSH1 0x20 PUSH1 0x0 KECCAK256 SWAP1 JUMPDEST DUP2 SLOAD DUP2 MSTORE PUSH1 0x20 ADD SWAP1 PUSH1 0x1 ADD SWAP1 DUP1 DUP4 GT PUSH2 0x24DE JUMPI JUMPDEST POP POP POP POP POP DUP2 MSTORE PUSH1 0x20 ADD PUSH1 0x5 DUP3 ADD DUP1 SLOAD DUP1 PUSH1 0x20 MUL PUSH1 0x20 ADD PUSH1 0x40 MLOAD SWAP1 DUP2 ADD PUSH1 0x40 MSTORE DUP1 SWAP3 SWAP2 SWAP1 DUP2 DUP2 MSTORE PUSH1 0x20 ADD DUP3 DUP1 SLOAD DUP1 ISZERO PUSH2 0x254A JUMPI PUSH1 0x20 MUL DUP3 ADD SWAP2 SWAP1 PUSH1 0x0 MSTORE PUSH1 0x20 PUSH1 0x0 KECCAK256 SWAP1 JUMPDEST DUP2 SLOAD DUP2 MSTORE PUSH1 0x20 ADD SWAP1 PUSH1 0x1 ADD SWAP1 DUP1 DUP4 GT PUSH2 0x2536 JUMPI JUMPDEST POP POP POP POP POP DUP2 MSTORE PUSH1 0x20 ADD PUSH1 0x6 DUP3 ADD SLOAD DUP2 MSTORE PUSH1 0x20 ADD PUSH1 0x7 DUP3 ADD SLOAD DUP2 MSTORE PUSH1 0x20 ADD PUSH1 0x8 DUP3 ADD DUP1 SLOAD PUSH2 0x2577 SWAP1 PUSH2 0x4D09 JUMP JUMPDEST DUP1 PUSH1 0x1F ADD PUSH1 0x20 DUP1 SWAP2 DIV MUL PUSH1 0x20 ADD PUSH1 0x40 MLOAD SWAP1 DUP2 ADD PUSH1 0x40 MSTORE DUP1 SWAP3 SWAP2 SWAP1 DUP2 DUP2 MSTORE PUSH1 0x20 ADD DUP3 DUP1 SLOAD PUSH2 0x25A3 SWAP1 PUSH2 0x4D09 JUMP JUMPDEST DUP1 ISZERO PUSH2 0x25F0 JUMPI DUP1 PUSH1 0x1F LT PUSH2 0x25C5 JUMPI PUSH2 0x100 DUP1 DUP4 SLOAD DIV MUL DUP4 MSTORE SWAP2 PUSH1 0x20 ADD SWAP2 PUSH2 0x25F0 JUMP JUMPDEST DUP3 ADD SWAP2 SWAP1 PUSH1 0x0 MSTORE PUSH1 0x20 PUSH1 0x0 KECCAK256 SWAP1 JUMPDEST DUP2 SLOAD DUP2 MSTORE SWAP1 PUSH1 0x1 ADD SWAP1 PUSH1 0x20 ADD DUP1 DUP4 GT PUSH2 0x25D3 JUMPI DUP3 SWAP1 SUB PUSH1 0x1F AND DUP3 ADD SWAP2 JUMPDEST POP POP POP SWAP2 DUP4 MSTORE POP POP PUSH1 0x9 DUP3 ADD SLOAD PUSH1 0x20 SWAP1 SWAP2 ADD SWAP1 PUSH1 0xFF AND PUSH1 0x6 DUP2 GT ISZERO PUSH2 0x2617 JUMPI PUSH2 0x2617 PUSH2 0x486C JUMP JUMPDEST PUSH1 0x6 DUP2 GT ISZERO PUSH2 0x2628 JUMPI PUSH2 0x2628 PUSH2 0x486C JUMP JUMPDEST DUP2 MSTORE PUSH1 0x20 ADD PUSH1 0xA DUP3 ADD SLOAD DUP2 MSTORE PUSH1 0x20 ADD PUSH1 0xB DUP3 ADD SLOAD DUP2 MSTORE PUSH1 0x20 ADD PUSH1 0xC DUP3 ADD SLOAD DUP2 MSTORE PUSH1 0x20 ADD PUSH1 0xD DUP3 ADD SLOAD DUP2 MSTORE PUSH1 0x20 ADD PUSH1 0xE DUP3 ADD SLOAD DUP2 MSTORE POP POP DUP4 DUP4 DUP2 MLOAD DUP2 LT PUSH2 0x2670 JUMPI PUSH2 0x2670 PUSH2 0x4CDD JUMP JUMPDEST PUSH1 0x20 MUL PUSH1 0x20 ADD ADD DUP2 SWAP1 MSTORE POP POP DUP1 DUP1 PUSH2 0x2687 SWAP1 PUSH2 0x5134 JUMP JUMPDEST SWAP2 POP POP PUSH2 0x241E JUMP JUMPDEST PUSH1 0x8 DUP2 DUP2 SLOAD DUP2 LT PUSH2 0x269F JUMPI PUSH1 0x0 DUP1 REVERT JUMPDEST PUSH1 0x0 SWAP2 DUP3 MSTORE PUSH1 0x20 SWAP1 SWAP2 KECCAK256 ADD SLOAD PUSH1 0x1 PUSH1 0x1 PUSH1 0xA0 SHL SUB AND SWAP1 POP DUP2 JUMP JUMPDEST PUSH1 0x8 SLOAD PUSH1 0x60 SWAP1 PUSH1 0x0 SWAP1 PUSH1 0x1 PUSH1 0x1 PUSH1 0x40 SHL SUB DUP2 GT ISZERO PUSH2 0x26D9 JUMPI PUSH2 0x26D9 PUSH2 0x4CF3 JUMP JUMPDEST PUSH1 0x40 MLOAD SWAP1 DUP1 DUP3 MSTORE DUP1 PUSH1 0x20 MUL PUSH1 0x20 ADD DUP3 ADD PUSH1 0x40 MSTORE DUP1 ISZERO PUSH2 0x2745 JUMPI DUP2 PUSH1 0x20 ADD JUMPDEST PUSH2 0x2732 PUSH1 0x40 MLOAD DUP1 PUSH1 0xA0 ADD PUSH1 0x40 MSTORE DUP1 PUSH1 0x0 PUSH1 0x1 PUSH1 0x1 PUSH1 0xA0 SHL SUB AND DUP2 MSTORE PUSH1 0x20 ADD PUSH1 0x60 DUP2 MSTORE PUSH1 0x20 ADD PUSH1 0x60 DUP2 MSTORE PUSH1 0x20 ADD PUSH1 0x60 DUP2 MSTORE PUSH1 0x20 ADD PUSH1 0x60 DUP2 MSTORE POP SWAP1 JUMP JUMPDEST DUP2 MSTORE PUSH1 0x20 ADD SWAP1 PUSH1 0x1 SWAP1 SUB SWAP1 DUP2 PUSH2 0x26F7 JUMPI SWAP1 POP JUMPDEST POP SWAP1 POP PUSH1 0x0 JUMPDEST PUSH1 0x8 SLOAD DUP2 LT ISZERO PUSH2 0x2B3E JUMPI PUSH1 0x0 PUSH1 0x8 DUP3 DUP2 SLOAD DUP2 LT PUSH2 0x276A JUMPI PUSH2 0x276A PUSH2 0x4CDD JUMP JUMPDEST PUSH1 0x0 SWAP2 DUP3 MSTORE PUSH1 0x20 DUP1 DUP4 KECCAK256 SWAP1 SWAP2 ADD SLOAD PUSH1 0x1 PUSH1 0x1 PUSH1 0xA0 SHL SUB SWAP1 DUP2 AND DUP1 DUP5 MSTORE DUP4 DUP4 MSTORE PUSH1 0x40 SWAP4 DUP5 SWAP1 KECCAK256 DUP5 MLOAD PUSH1 0xA0 DUP2 ADD SWAP1 SWAP6 MSTORE DUP1 SLOAD SWAP1 SWAP3 AND DUP5 MSTORE PUSH1 0x1 DUP3 ADD DUP1 SLOAD SWAP2 SWAP6 POP SWAP2 SWAP4 SWAP3 DUP5 SWAP3 SWAP1 DUP5 ADD SWAP2 PUSH2 0x27BA SWAP1 PUSH2 0x4D09 JUMP JUMPDEST DUP1 PUSH1 0x1F ADD PUSH1 0x20 DUP1 SWAP2 DIV MUL PUSH1 0x20 ADD PUSH1 0x40 MLOAD SWAP1 DUP2 ADD PUSH1 0x40 MSTORE DUP1 SWAP3 SWAP2 SWAP1 DUP2 DUP2 MSTORE PUSH1 0x20 ADD DUP3 DUP1 SLOAD PUSH2 0x27E6 SWAP1 PUSH2 0x4D09 JUMP JUMPDEST DUP1 ISZERO PUSH2 0x2833 JUMPI DUP1 PUSH1 0x1F LT PUSH2 0x2808 JUMPI PUSH2 0x100 DUP1 DUP4 SLOAD DIV MUL DUP4 MSTORE SWAP2 PUSH1 0x20 ADD SWAP2 PUSH2 0x2833 JUMP JUMPDEST DUP3 ADD SWAP2 SWAP1 PUSH1 0x0 MSTORE PUSH1 0x20 PUSH1 0x0 KECCAK256 SWAP1 JUMPDEST DUP2 SLOAD DUP2 MSTORE SWAP1 PUSH1 0x1 ADD SWAP1 PUSH1 0x20 ADD DUP1 DUP4 GT PUSH2 0x2816 JUMPI DUP3 SWAP1 SUB PUSH1 0x1F AND DUP3 ADD SWAP2 JUMPDEST POP POP POP POP POP DUP2 MSTORE PUSH1 0x20 ADD PUSH1 0x2 DUP3 ADD DUP1 SLOAD PUSH2 0x284C SWAP1 PUSH2 0x4D09 JUMP JUMPDEST DUP1 PUSH1 0x1F ADD PUSH1 0x20 DUP1 SWAP2 DIV MUL PUSH1 0x20 ADD PUSH1 0x40 MLOAD SWAP1 DUP2 ADD PUSH1 0x40 MSTORE DUP1 SWAP3 SWAP2 SWAP1 DUP2 DUP2 MSTORE PUSH1 0x20 ADD DUP3 DUP1 SLOAD PUSH2 0x2878 SWAP1 PUSH2 0x4D09 JUMP JUMPDEST DUP1 ISZERO PUSH2 0x28C5 JUMPI DUP1 PUSH1 0x1F LT PUSH2 0x289A JUMPI PUSH2 0x100 DUP1 DUP4 SLOAD DIV MUL DUP4 MSTORE SWAP2 PUSH1 0x20 ADD SWAP2 PUSH2 0x28C5 JUMP JUMPDEST DUP3 ADD SWAP2 SWAP1 PUSH1 0x0 MSTORE PUSH1 0x20 PUSH1 0x0 KECCAK256 SWAP1 JUMPDEST DUP2 SLOAD DUP2 MSTORE SWAP1 PUSH1 0x1 ADD SWAP1 PUSH1 0x20 ADD DUP1 DUP4 GT PUSH2 0x28A8 JUMPI DUP3 SWAP1 SUB PUSH1 0x1F AND DUP3 ADD SWAP2 JUMPDEST POP POP POP POP POP DUP2 MSTORE PUSH1 0x20 ADD PUSH1 0x3 DUP3 ADD DUP1 SLOAD PUSH2 0x28DE SWAP1 PUSH2 0x4D09 JUMP JUMPDEST DUP1 PUSH1 0x1F ADD PUSH1 0x20 DUP1 SWAP2 DIV MUL PUSH1 0x20 ADD PUSH1 0x40 MLOAD SWAP1 DUP2 ADD PUSH1 0x40 MSTORE DUP1 SWAP3 SWAP2 SWAP1 DUP2 DUP2 MSTORE PUSH1 0x20 ADD DUP3 DUP1 SLOAD PUSH2 0x290A SWAP1 PUSH2 0x4D09 JUMP JUMPDEST DUP1 ISZERO PUSH2 0x2957 JUMPI DUP1 PUSH1 0x1F LT PUSH2 0x292C JUMPI PUSH2 0x100 DUP1 DUP4 SLOAD DIV MUL DUP4 MSTORE SWAP2 PUSH1 0x20 ADD SWAP2 PUSH2 0x2957 JUMP JUMPDEST DUP3 ADD SWAP2 SWAP1 PUSH1 0x0 MSTORE PUSH1 0x20 PUSH1 0x0 KECCAK256 SWAP1 JUMPDEST DUP2 SLOAD DUP2 MSTORE SWAP1 PUSH1 0x1 ADD SWAP1 PUSH1 0x20 ADD DUP1 DUP4 GT PUSH2 0x293A JUMPI DUP3 SWAP1 SUB PUSH1 0x1F AND DUP3 ADD SWAP2 JUMPDEST POP POP POP POP POP DUP2 MSTORE PUSH1 0x20 ADD PUSH1 0x4 DUP3 ADD DUP1 SLOAD DUP1 PUSH1 0x20 MUL PUSH1 0x20 ADD PUSH1 0x40 MLOAD SWAP1 DUP2 ADD PUSH1 0x40 MSTORE DUP1 SWAP3 SWAP2 SWAP1 DUP2 DUP2 MSTORE PUSH1 0x20 ADD PUSH1 0x0 SWAP1 JUMPDEST DUP3 DUP3 LT ISZERO PUSH2 0x2B04 JUMPI DUP4 DUP3 SWAP1 PUSH1 0x0 MSTORE PUSH1 0x20 PUSH1 0x0 KECCAK256 SWAP1 PUSH1 0x5 MUL ADD PUSH1 0x40 MLOAD DUP1 PUSH1 0xA0 ADD PUSH1 0x40 MSTORE SWAP1 DUP2 PUSH1 0x0 DUP3 ADD SLOAD DUP2 MSTORE PUSH1 0x20 ADD PUSH1 0x1 DUP3 ADD DUP1 SLOAD PUSH2 0x29C2 SWAP1 PUSH2 0x4D09 JUMP JUMPDEST DUP1 PUSH1 0x1F ADD PUSH1 0x20 DUP1 SWAP2 DIV MUL PUSH1 0x20 ADD PUSH1 0x40 MLOAD SWAP1 DUP2 ADD PUSH1 0x40 MSTORE DUP1 SWAP3 SWAP2 SWAP1 DUP2 DUP2 MSTORE PUSH1 0x20 ADD DUP3 DUP1 SLOAD PUSH2 0x29EE SWAP1 PUSH2 0x4D09 JUMP JUMPDEST DUP1 ISZERO PUSH2 0x2A3B JUMPI DUP1 PUSH1 0x1F LT PUSH2 0x2A10 JUMPI PUSH2 0x100 DUP1 DUP4 SLOAD DIV MUL DUP4 MSTORE SWAP2 PUSH1 0x20 ADD SWAP2 PUSH2 0x2A3B JUMP JUMPDEST DUP3 ADD SWAP2 SWAP1 PUSH1 0x0 MSTORE PUSH1 0x20 PUSH1 0x0 KECCAK256 SWAP1 JUMPDEST DUP2 SLOAD DUP2 MSTORE SWAP1 PUSH1 0x1 ADD SWAP1 PUSH1 0x20 ADD DUP1 DUP4 GT PUSH2 0x2A1E JUMPI DUP3 SWAP1 SUB PUSH1 0x1F AND DUP3 ADD SWAP2 JUMPDEST POP POP POP POP POP DUP2 MSTORE PUSH1 0x20 ADD PUSH1 0x2 DUP3 ADD DUP1 SLOAD PUSH2 0x2A54 SWAP1 PUSH2 0x4D09 JUMP JUMPDEST DUP1 PUSH1 0x1F ADD PUSH1 0x20 DUP1 SWAP2 DIV MUL PUSH1 0x20 ADD PUSH1 0x40 MLOAD SWAP1 DUP2 ADD PUSH1 0x40 MSTORE DUP1 SWAP3 SWAP2 SWAP1 DUP2 DUP2 MSTORE PUSH1 0x20 ADD DUP3 DUP1 SLOAD PUSH2 0x2A80 SWAP1 PUSH2 0x4D09 JUMP JUMPDEST DUP1 ISZERO PUSH2 0x2ACD JUMPI DUP1 PUSH1 0x1F LT PUSH2 0x2AA2 JUMPI PUSH2 0x100 DUP1 DUP4 SLOAD DIV MUL DUP4 MSTORE SWAP2 PUSH1 0x20 ADD SWAP2 PUSH2 0x2ACD JUMP JUMPDEST DUP3 ADD SWAP2 SWAP1 PUSH1 0x0 MSTORE PUSH1 0x20 PUSH1 0x0 KECCAK256 SWAP1 JUMPDEST DUP2 SLOAD DUP2 MSTORE SWAP1 PUSH1 0x1 ADD SWAP1 PUSH1 0x20 ADD DUP1 DUP4 GT PUSH2 0x2AB0 JUMPI DUP3 SWAP1 SUB PUSH1 0x1F AND DUP3 ADD SWAP2 JUMPDEST POP POP POP SWAP2 DUP4 MSTORE POP POP PUSH1 0x3 DUP3 ADD SLOAD PUSH1 0x20 DUP1 DUP4 ADD SWAP2 SWAP1 SWAP2 MSTORE PUSH1 0x4 SWAP1 SWAP3 ADD SLOAD PUSH1 0xFF AND ISZERO ISZERO PUSH1 0x40 SWAP1 SWAP2 ADD MSTORE SWAP1 DUP3 MSTORE PUSH1 0x1 SWAP3 SWAP1 SWAP3 ADD SWAP2 ADD PUSH2 0x2985 JUMP JUMPDEST POP POP POP POP DUP2 MSTORE POP POP DUP5 DUP5 DUP2 MLOAD DUP2 LT PUSH2 0x2B1E JUMPI PUSH2 0x2B1E PUSH2 0x4CDD JUMP JUMPDEST PUSH1 0x20 MUL PUSH1 0x20 ADD ADD DUP2 SWAP1 MSTORE POP POP POP DUP1 DUP1 PUSH2 0x2B36 SWAP1 PUSH2 0x5134 JUMP JUMPDEST SWAP2 POP POP PUSH2 0x274B JUMP JUMPDEST POP SWAP2 SWAP1 POP JUMP JUMPDEST PUSH1 0x60 PUSH1 0x0 DUP1 JUMPDEST PUSH1 0x7 SLOAD DUP2 LT ISZERO PUSH2 0x2BC6 JUMPI DUP4 PUSH1 0x6 DUP2 GT ISZERO PUSH2 0x2B66 JUMPI PUSH2 0x2B66 PUSH2 0x486C JUMP JUMPDEST PUSH1 0x7 DUP3 DUP2 SLOAD DUP2 LT PUSH2 0x2B79 JUMPI PUSH2 0x2B79 PUSH2 0x4CDD JUMP JUMPDEST PUSH1 0x0 SWAP2 DUP3 MSTORE PUSH1 0x20 SWAP1 SWAP2 KECCAK256 PUSH1 0x9 PUSH1 0xF SWAP1 SWAP3 MUL ADD ADD SLOAD PUSH1 0xFF AND PUSH1 0x6 DUP2 GT ISZERO PUSH2 0x2BA1 JUMPI PUSH2 0x2BA1 PUSH2 0x486C JUMP JUMPDEST SUB PUSH2 0x2BB4 JUMPI DUP2 PUSH2 0x2BB0 DUP2 PUSH2 0x5134 JUMP JUMPDEST SWAP3 POP POP JUMPDEST DUP1 PUSH2 0x2BBE DUP2 PUSH2 0x5134 JUMP JUMPDEST SWAP2 POP POP PUSH2 0x2B4A JUMP JUMPDEST POP PUSH1 0x0 DUP2 PUSH1 0x1 PUSH1 0x1 PUSH1 0x40 SHL SUB DUP2 GT ISZERO PUSH2 0x2BE1 JUMPI PUSH2 0x2BE1 PUSH2 0x4CF3 JUMP JUMPDEST PUSH1 0x40 MLOAD SWAP1 DUP1 DUP3 MSTORE DUP1 PUSH1 0x20 MUL PUSH1 0x20 ADD DUP3 ADD PUSH1 0x40 MSTORE DUP1 ISZERO PUSH2 0x2C1A JUMPI DUP2 PUSH1 0x20 ADD JUMPDEST PUSH2 0x2C07 PUSH2 0x4252 JUMP JUMPDEST DUP2 MSTORE PUSH1 0x20 ADD SWAP1 PUSH1 0x1 SWAP1 SUB SWAP1 DUP2 PUSH2 0x2BFF JUMPI SWAP1 POP JUMPDEST POP SWAP1 POP PUSH1 0x0 DUP1 JUMPDEST PUSH1 0x7 SLOAD DUP2 LT ISZERO PUSH2 0x2ED4 JUMPI DUP6 PUSH1 0x6 DUP2 GT ISZERO PUSH2 0x2C3D JUMPI PUSH2 0x2C3D PUSH2 0x486C JUMP JUMPDEST PUSH1 0x7 DUP3 DUP2 SLOAD DUP2 LT PUSH2 0x2C50 JUMPI PUSH2 0x2C50 PUSH2 0x4CDD JUMP JUMPDEST PUSH1 0x0 SWAP2 DUP3 MSTORE PUSH1 0x20 SWAP1 SWAP2 KECCAK256 PUSH1 0x9 PUSH1 0xF SWAP1 SWAP3 MUL ADD ADD SLOAD PUSH1 0xFF AND PUSH1 0x6 DUP2 GT ISZERO PUSH2 0x2C78 JUMPI PUSH2 0x2C78 PUSH2 0x486C JUMP JUMPDEST SUB PUSH2 0x2EC2 JUMPI PUSH1 0x7 DUP2 DUP2 SLOAD DUP2 LT PUSH2 0x2C90 JUMPI PUSH2 0x2C90 PUSH2 0x4CDD JUMP JUMPDEST PUSH1 0x0 SWAP2 DUP3 MSTORE PUSH1 0x20 SWAP2 DUP3 SWAP1 KECCAK256 PUSH1 0x40 DUP1 MLOAD PUSH2 0x1E0 DUP2 ADD DUP3 MSTORE PUSH1 0xF SWAP1 SWAP4 MUL SWAP1 SWAP2 ADD DUP1 SLOAD DUP4 MSTORE PUSH1 0x1 DUP2 ADD SLOAD PUSH1 0x1 PUSH1 0x1 PUSH1 0xA0 SHL SUB SWAP1 DUP2 AND DUP5 DUP7 ADD MSTORE PUSH1 0x2 DUP3 ADD SLOAD DUP2 AND DUP5 DUP5 ADD MSTORE PUSH1 0x3 DUP3 ADD SLOAD AND PUSH1 0x60 DUP5 ADD MSTORE PUSH1 0x4 DUP2 ADD DUP1 SLOAD DUP4 MLOAD DUP2 DUP8 MUL DUP2 ADD DUP8 ADD SWAP1 SWAP5 MSTORE DUP1 DUP5 MSTORE SWAP4 SWAP5 SWAP2 SWAP4 PUSH1 0x80 DUP7 ADD SWAP4 SWAP3 DUP4 ADD DUP3 DUP3 DUP1 ISZERO PUSH2 0x2D2A JUMPI PUSH1 0x20 MUL DUP3 ADD SWAP2 SWAP1 PUSH1 0x0 MSTORE PUSH1 0x20 PUSH1 0x0 KECCAK256 SWAP1 JUMPDEST DUP2 SLOAD DUP2 MSTORE PUSH1 0x20 ADD SWAP1 PUSH1 0x1 ADD SWAP1 DUP1 DUP4 GT PUSH2 0x2D16 JUMPI JUMPDEST POP POP POP POP POP DUP2 MSTORE PUSH1 0x20 ADD PUSH1 0x5 DUP3 ADD DUP1 SLOAD DUP1 PUSH1 0x20 MUL PUSH1 0x20 ADD PUSH1 0x40 MLOAD SWAP1 DUP2 ADD PUSH1 0x40 MSTORE DUP1 SWAP3 SWAP2 SWAP1 DUP2 DUP2 MSTORE PUSH1 0x20 ADD DUP3 DUP1 SLOAD DUP1 ISZERO PUSH2 0x2D82 JUMPI PUSH1 0x20 MUL DUP3 ADD SWAP2 SWAP1 PUSH1 0x0 MSTORE PUSH1 0x20 PUSH1 0x0 KECCAK256 SWAP1 JUMPDEST DUP2 SLOAD DUP2 MSTORE PUSH1 0x20 ADD SWAP1 PUSH1 0x1 ADD SWAP1 DUP1 DUP4 GT PUSH2 0x2D6E JUMPI JUMPDEST POP POP POP POP POP DUP2 MSTORE PUSH1 0x20 ADD PUSH1 0x6 DUP3 ADD SLOAD DUP2 MSTORE PUSH1 0x20 ADD PUSH1 0x7 DUP3 ADD SLOAD DUP2 MSTORE PUSH1 0x20 ADD PUSH1 0x8 DUP3 ADD DUP1 SLOAD PUSH2 0x2DAF SWAP1 PUSH2 0x4D09 JUMP JUMPDEST DUP1 PUSH1 0x1F ADD PUSH1 0x20 DUP1 SWAP2 DIV MUL PUSH1 0x20 ADD PUSH1 0x40 MLOAD SWAP1 DUP2 ADD PUSH1 0x40 MSTORE DUP1 SWAP3 SWAP2 SWAP1 DUP2 DUP2 MSTORE PUSH1 0x20 ADD DUP3 DUP1 SLOAD PUSH2 0x2DDB SWAP1 PUSH2 0x4D09 JUMP JUMPDEST DUP1 ISZERO PUSH2 0x2E28 JUMPI DUP1 PUSH1 0x1F LT PUSH2 0x2DFD JUMPI PUSH2 0x100 DUP1 DUP4 SLOAD DIV MUL DUP4 MSTORE SWAP2 PUSH1 0x20 ADD SWAP2 PUSH2 0x2E28 JUMP JUMPDEST DUP3 ADD SWAP2 SWAP1 PUSH1 0x0 MSTORE PUSH1 0x20 PUSH1 0x0 KECCAK256 SWAP1 JUMPDEST DUP2 SLOAD DUP2 MSTORE SWAP1 PUSH1 0x1 ADD SWAP1 PUSH1 0x20 ADD DUP1 DUP4 GT PUSH2 0x2E0B JUMPI DUP3 SWAP1 SUB PUSH1 0x1F AND DUP3 ADD SWAP2 JUMPDEST POP POP POP SWAP2 DUP4 MSTORE POP POP PUSH1 0x9 DUP3 ADD SLOAD PUSH1 0x20 SWAP1 SWAP2 ADD SWAP1 PUSH1 0xFF AND PUSH1 0x6 DUP2 GT ISZERO PUSH2 0x2E4F JUMPI PUSH2 0x2E4F PUSH2 0x486C JUMP JUMPDEST PUSH1 0x6 DUP2 GT ISZERO PUSH2 0x2E60 JUMPI PUSH2 0x2E60 PUSH2 0x486C JUMP JUMPDEST DUP2 MSTORE PUSH1 0x20 ADD PUSH1 0xA DUP3 ADD SLOAD DUP2 MSTORE PUSH1 0x20 ADD PUSH1 0xB DUP3 ADD SLOAD DUP2 MSTORE PUSH1 0x20 ADD PUSH1 0xC DUP3 ADD SLOAD DUP2 MSTORE PUSH1 0x20 ADD PUSH1 0xD DUP3 ADD SLOAD DUP2 MSTORE PUSH1 0x20 ADD PUSH1 0xE DUP3 ADD SLOAD DUP2 MSTORE POP POP DUP4 DUP4 DUP2 MLOAD DUP2 LT PUSH2 0x2EA8 JUMPI PUSH2 0x2EA8 PUSH2 0x4CDD JUMP JUMPDEST PUSH1 0x20 MUL PUSH1 0x20 ADD ADD DUP2 SWAP1 MSTORE POP DUP2 DUP1 PUSH2 0x2EBE SWAP1 PUSH2 0x5134 JUMP JUMPDEST SWAP3 POP POP JUMPDEST DUP1 PUSH2 0x2ECC DUP2 PUSH2 0x5134 JUMP JUMPDEST SWAP2 POP POP PUSH2 0x2C21 JUMP JUMPDEST POP SWAP1 SWAP5 SWAP4 POP POP POP POP JUMP JUMPDEST CALLER PUSH1 0x0 SWAP1 DUP2 MSTORE PUSH1 0x20 DUP2 SWAP1 MSTORE PUSH1 0x40 DUP2 KECCAK256 PUSH1 0x4 DUP2 ADD DUP1 SLOAD SWAP2 SWAP3 SWAP2 DUP5 SWAP1 DUP2 LT PUSH2 0x2F06 JUMPI PUSH2 0x2F06 PUSH2 0x4CDD JUMP JUMPDEST PUSH1 0x0 SWAP2 DUP3 MSTORE PUSH1 0x20 SWAP1 SWAP2 KECCAK256 PUSH1 0x5 SWAP1 SWAP2 MUL ADD PUSH1 0x4 ADD DUP1 SLOAD PUSH1 0xFF NOT AND SWAP2 ISZERO ISZERO SWAP2 SWAP1 SWAP2 OR SWAP1 SSTORE POP POP JUMP JUMPDEST PUSH1 0x5 PUSH1 0x20 MSTORE DUP2 PUSH1 0x0 MSTORE PUSH1 0x40 PUSH1 0x0 KECCAK256 DUP2 DUP2 SLOAD DUP2 LT PUSH2 0x912 JUMPI PUSH1 0x0 DUP1 REVERT JUMPDEST PUSH2 0x2F6C PUSH1 0x40 MLOAD DUP1 PUSH1 0x60 ADD PUSH1 0x40 MSTORE DUP1 PUSH1 0x0 DUP2 MSTORE PUSH1 0x20 ADD PUSH1 0x0 DUP2 MSTORE PUSH1 0x20 ADD PUSH1 0x60 DUP2 MSTORE POP SWAP1 JUMP JUMPDEST PUSH1 0x3 PUSH1 0x0 DUP4 DUP2 MSTORE PUSH1 0x20 ADD SWAP1 DUP2 MSTORE PUSH1 0x20 ADD PUSH1 0x0 KECCAK256 PUSH1 0x40 MLOAD DUP1 PUSH1 0x60 ADD PUSH1 0x40 MSTORE SWAP1 DUP2 PUSH1 0x0 DUP3 ADD SLOAD DUP2 MSTORE PUSH1 0x20 ADD PUSH1 0x1 DUP3 ADD SLOAD DUP2 MSTORE PUSH1 0x20 ADD PUSH1 0x2 DUP3 ADD DUP1 SLOAD PUSH2 0x2FAE SWAP1 PUSH2 0x4D09 JUMP JUMPDEST DUP1 PUSH1 0x1F ADD PUSH1 0x20 DUP1 SWAP2 DIV MUL PUSH1 0x20 ADD PUSH1 0x40 MLOAD SWAP1 DUP2 ADD PUSH1 0x40 MSTORE DUP1 SWAP3 SWAP2 SWAP1 DUP2 DUP2 MSTORE PUSH1 0x20 ADD DUP3 DUP1 SLOAD PUSH2 0x2FDA SWAP1 PUSH2 0x4D09 JUMP JUMPDEST DUP1 ISZERO PUSH2 0x3027 JUMPI DUP1 PUSH1 0x1F LT PUSH2 0x2FFC JUMPI PUSH2 0x100 DUP1 DUP4 SLOAD DIV MUL DUP4 MSTORE SWAP2 PUSH1 0x20 ADD SWAP2 PUSH2 0x3027 JUMP JUMPDEST DUP3 ADD SWAP2 SWAP1 PUSH1 0x0 MSTORE PUSH1 0x20 PUSH1 0x0 KECCAK256 SWAP1 JUMPDEST DUP2 SLOAD DUP2 MSTORE SWAP1 PUSH1 0x1 ADD SWAP1 PUSH1 0x20 ADD DUP1 DUP4 GT PUSH2 0x300A JUMPI DUP3 SWAP1 SUB PUSH1 0x1F AND DUP3 ADD SWAP2 JUMPDEST POP POP POP POP POP DUP2 MSTORE POP POP SWAP1 POP SWAP2 SWAP1 POP JUMP JUMPDEST PUSH1 0x0 PUSH1 0x7 DUP3 DUP2 SLOAD DUP2 LT PUSH2 0x304C JUMPI PUSH2 0x304C PUSH2 0x4CDD JUMP JUMPDEST SWAP1 PUSH1 0x0 MSTORE PUSH1 0x20 PUSH1 0x0 KECCAK256 SWAP1 PUSH1 0xF MUL ADD SWAP1 POP DUP2 DUP2 PUSH1 0x0 ADD SLOAD EQ PUSH2 0x307F JUMPI PUSH1 0x40 MLOAD PUSH3 0x461BCD PUSH1 0xE5 SHL DUP2 MSTORE PUSH1 0x4 ADD PUSH2 0xA97 SWAP1 PUSH2 0x4E4A JUMP JUMPDEST PUSH1 0x1 PUSH1 0x9 DUP3 ADD SLOAD PUSH1 0xFF AND PUSH1 0x6 DUP2 GT ISZERO PUSH2 0x309A JUMPI PUSH2 0x309A PUSH2 0x486C JUMP JUMPDEST EQ PUSH2 0x30A4 JUMPI PUSH1 0x0 DUP1 REVERT JUMPDEST PUSH1 0x2 DUP2 ADD SLOAD PUSH1 0x1 PUSH1 0x1 PUSH1 0xA0 SHL SUB AND CALLER EQ PUSH2 0x311B JUMPI PUSH1 0x40 MLOAD PUSH3 0x461BCD PUSH1 0xE5 SHL DUP2 MSTORE PUSH1 0x20 PUSH1 0x4 DUP3 ADD MSTORE PUSH1 0x32 PUSH1 0x24 DUP3 ADD MSTORE PUSH32 0x4F726465722064656C697665727920666565206D75737420626520696E637265 PUSH1 0x44 DUP3 ADD MSTORE PUSH18 0x185CD95908189E481D1A194818DB1A595B9D PUSH1 0x72 SHL PUSH1 0x64 DUP3 ADD MSTORE PUSH1 0x84 ADD PUSH2 0xA97 JUMP JUMPDEST CALLVALUE DUP2 PUSH1 0x6 ADD PUSH1 0x0 DUP3 DUP3 SLOAD PUSH2 0x312F SWAP2 SWAP1 PUSH2 0x514D JUMP JUMPDEST SWAP1 SWAP2 SSTORE POP POP POP POP JUMP JUMPDEST CALLER PUSH1 0x0 SWAP1 DUP2 MSTORE PUSH1 0x20 DUP2 SWAP1 MSTORE PUSH1 0x40 SWAP1 KECCAK256 PUSH1 0x4 DUP2 ADD DUP1 SLOAD PUSH1 0x1 SWAP2 SWAP1 DUP5 SWAP1 DUP2 LT PUSH2 0x2F06 JUMPI PUSH2 0x2F06 PUSH2 0x4CDD JUMP JUMPDEST PUSH1 0x7 DUP2 DUP2 SLOAD DUP2 LT PUSH2 0x3171 JUMPI PUSH1 0x0 DUP1 REVERT JUMPDEST PUSH1 0x0 SWAP2 DUP3 MSTORE PUSH1 0x20 SWAP1 SWAP2 KECCAK256 PUSH1 0xF SWAP1 SWAP2 MUL ADD DUP1 SLOAD PUSH1 0x1 DUP3 ADD SLOAD PUSH1 0x2 DUP4 ADD SLOAD PUSH1 0x3 DUP5 ADD SLOAD PUSH1 0x6 DUP6 ADD SLOAD PUSH1 0x7 DUP7 ADD SLOAD PUSH1 0x8 DUP8 ADD DUP1 SLOAD SWAP7 SWAP9 POP PUSH1 0x1 PUSH1 0x1 PUSH1 0xA0 SHL SUB SWAP6 DUP7 AND SWAP8 SWAP5 DUP7 AND SWAP7 SWAP6 SWAP1 SWAP4 AND SWAP5 SWAP2 SWAP4 SWAP1 SWAP3 SWAP1 SWAP2 PUSH2 0x31C9 SWAP1 PUSH2 0x4D09 JUMP JUMPDEST DUP1 PUSH1 0x1F ADD PUSH1 0x20 DUP1 SWAP2 DIV MUL PUSH1 0x20 ADD PUSH1 0x40 MLOAD SWAP1 DUP2 ADD PUSH1 0x40 MSTORE DUP1 SWAP3 SWAP2 SWAP1 DUP2 DUP2 MSTORE PUSH1 0x20 ADD DUP3 DUP1 SLOAD PUSH2 0x31F5 SWAP1 PUSH2 0x4D09 JUMP JUMPDEST DUP1 ISZERO PUSH2 0x3242 JUMPI DUP1 PUSH1 0x1F LT PUSH2 0x3217 JUMPI PUSH2 0x100 DUP1 DUP4 SLOAD DIV MUL DUP4 MSTORE SWAP2 PUSH1 0x20 ADD SWAP2 PUSH2 0x3242 JUMP JUMPDEST DUP3 ADD SWAP2 SWAP1 PUSH1 0x0 MSTORE PUSH1 0x20 PUSH1 0x0 KECCAK256 SWAP1 JUMPDEST DUP2 SLOAD DUP2 MSTORE SWAP1 PUSH1 0x1 ADD SWAP1 PUSH1 0x20 ADD DUP1 DUP4 GT PUSH2 0x3225 JUMPI DUP3 SWAP1 SUB PUSH1 0x1F AND DUP3 ADD SWAP2 JUMPDEST POP POP POP PUSH1 0x9 DUP5 ADD SLOAD PUSH1 0xA DUP6 ADD SLOAD PUSH1 0xB DUP7 ADD SLOAD PUSH1 0xC DUP8 ADD SLOAD PUSH1 0xD DUP9 ADD SLOAD PUSH1 0xE SWAP1 SWAP9 ADD SLOAD SWAP7 SWAP8 PUSH1 0xFF SWAP1 SWAP5 AND SWAP7 SWAP3 SWAP6 POP SWAP1 SWAP4 POP SWAP2 SWAP1 DUP14 JUMP JUMPDEST PUSH1 0x1 PUSH1 0x1 PUSH1 0xA0 SHL SUB DUP1 DUP10 AND PUSH1 0x0 SWAP1 DUP2 MSTORE PUSH1 0x20 DUP2 SWAP1 MSTORE PUSH1 0x40 SWAP1 KECCAK256 DUP1 SLOAD SWAP1 SWAP2 AND PUSH2 0x32E1 JUMPI PUSH1 0x40 MLOAD PUSH3 0x461BCD PUSH1 0xE5 SHL DUP2 MSTORE PUSH1 0x20 PUSH1 0x4 DUP3 ADD MSTORE PUSH1 0x1A PUSH1 0x24 DUP3 ADD MSTORE PUSH32 0x496E76616C69642072657374617572616E742061646472657373000000000000 PUSH1 0x44 DUP3 ADD MSTORE PUSH1 0x64 ADD PUSH2 0xA97 JUMP JUMPDEST PUSH1 0x0 JUMPDEST DUP8 DUP2 LT ISZERO PUSH2 0x339D JUMPI DUP2 PUSH1 0x4 ADD DUP10 DUP10 DUP4 DUP2 DUP2 LT PUSH2 0x3302 JUMPI PUSH2 0x3302 PUSH2 0x4CDD JUMP JUMPDEST SWAP1 POP PUSH1 0x20 MUL ADD CALLDATALOAD DUP2 SLOAD DUP2 LT PUSH2 0x3319 JUMPI PUSH2 0x3319 PUSH2 0x4CDD JUMP JUMPDEST PUSH1 0x0 SWAP2 DUP3 MSTORE PUSH1 0x20 SWAP1 SWAP2 KECCAK256 PUSH1 0x4 PUSH1 0x5 SWAP1 SWAP3 MUL ADD ADD SLOAD PUSH1 0xFF AND ISZERO ISZERO PUSH1 0x1 EQ PUSH2 0x338D JUMPI PUSH1 0x40 MLOAD PUSH3 0x461BCD PUSH1 0xE5 SHL DUP2 MSTORE PUSH1 0x20 PUSH1 0x4 DUP3 ADD MSTORE PUSH1 0x23 PUSH1 0x24 DUP3 ADD MSTORE PUSH32 0x4F7264657220636F6E7461696E7320756E617661696C61626C65206974656D73 PUSH1 0x44 DUP3 ADD MSTORE PUSH3 0x171717 PUSH1 0xE9 SHL PUSH1 0x64 DUP3 ADD MSTORE PUSH1 0x84 ADD PUSH2 0xA97 JUMP JUMPDEST PUSH2 0x3396 DUP2 PUSH2 0x5134 JUMP JUMPDEST SWAP1 POP PUSH2 0x32E4 JUMP JUMPDEST POP PUSH1 0x0 DUP1 PUSH2 0x33AF DUP12 DUP12 DUP12 DUP12 DUP12 DUP12 PUSH2 0x150E JUMP JUMPDEST SWAP1 SWAP3 POP SWAP1 POP PUSH2 0x33BE DUP2 DUP4 PUSH2 0x514D JUMP JUMPDEST CALLVALUE LT ISZERO PUSH2 0x3405 JUMPI PUSH1 0x40 MLOAD PUSH3 0x461BCD PUSH1 0xE5 SHL DUP2 MSTORE PUSH1 0x20 PUSH1 0x4 DUP3 ADD MSTORE PUSH1 0x15 PUSH1 0x24 DUP3 ADD MSTORE PUSH21 0x125B98DBDC9C9958DD08185B5BDD5B9D081C185A59 PUSH1 0x5A SHL PUSH1 0x44 DUP3 ADD MSTORE PUSH1 0x64 ADD PUSH2 0xA97 JUMP JUMPDEST PUSH1 0x0 PUSH1 0x7 DUP1 SLOAD SWAP1 POP SWAP1 POP PUSH1 0x7 PUSH1 0x40 MLOAD DUP1 PUSH2 0x1E0 ADD PUSH1 0x40 MSTORE DUP1 DUP4 DUP2 MSTORE PUSH1 0x20 ADD DUP15 PUSH1 0x1 PUSH1 0x1 PUSH1 0xA0 SHL SUB AND DUP2 MSTORE PUSH1 0x20 ADD CALLER PUSH1 0x1 PUSH1 0x1 PUSH1 0xA0 SHL SUB AND DUP2 MSTORE PUSH1 0x20 ADD PUSH1 0x0 PUSH1 0x1 PUSH1 0x1 PUSH1 0xA0 SHL SUB AND DUP2 MSTORE PUSH1 0x20 ADD DUP14 DUP14 DUP1 DUP1 PUSH1 0x20 MUL PUSH1 0x20 ADD PUSH1 0x40 MLOAD SWAP1 DUP2 ADD PUSH1 0x40 MSTORE DUP1 SWAP4 SWAP3 SWAP2 SWAP1 DUP2 DUP2 MSTORE PUSH1 0x20 ADD DUP4 DUP4 PUSH1 0x20 MUL DUP1 DUP3 DUP5 CALLDATACOPY PUSH1 0x0 SWAP3 ADD SWAP2 SWAP1 SWAP2 MSTORE POP POP POP SWAP1 DUP3 MSTORE POP PUSH1 0x40 DUP1 MLOAD PUSH1 0x20 DUP14 DUP2 MUL DUP3 DUP2 ADD DUP3 ADD SWAP1 SWAP4 MSTORE DUP14 DUP3 MSTORE SWAP3 DUP4 ADD SWAP3 SWAP1 SWAP2 DUP15 SWAP2 DUP15 SWAP2 DUP3 SWAP2 DUP6 ADD SWAP1 DUP5 SWAP1 DUP1 DUP3 DUP5 CALLDATACOPY PUSH1 0x0 SWAP3 ADD SWAP2 SWAP1 SWAP2 MSTORE POP POP POP SWAP1 DUP3 MSTORE POP PUSH1 0x20 DUP1 DUP3 ADD DUP7 SWAP1 MSTORE PUSH1 0x40 DUP1 DUP4 ADD DUP9 SWAP1 MSTORE DUP1 MLOAD PUSH1 0x1F DUP12 ADD DUP4 SWAP1 DIV DUP4 MUL DUP2 ADD DUP4 ADD SWAP1 SWAP2 MSTORE DUP10 DUP2 MSTORE PUSH1 0x60 SWAP1 SWAP3 ADD SWAP2 SWAP1 DUP11 SWAP1 DUP11 SWAP1 DUP2 SWAP1 DUP5 ADD DUP4 DUP3 DUP1 DUP3 DUP5 CALLDATACOPY PUSH1 0x0 SWAP3 ADD DUP3 SWAP1 MSTORE POP SWAP4 DUP6 MSTORE POP POP POP PUSH1 0x20 DUP1 DUP4 ADD DUP3 SWAP1 MSTORE PUSH1 0x40 DUP1 DUP5 ADD DUP4 SWAP1 MSTORE PUSH1 0x60 DUP1 DUP6 ADD DUP5 SWAP1 MSTORE PUSH1 0x80 DUP1 DUP7 ADD DUP6 SWAP1 MSTORE PUSH1 0xA0 DUP7 ADD DUP6 SWAP1 MSTORE PUSH1 0xC0 SWAP1 SWAP6 ADD DUP5 SWAP1 MSTORE DUP7 SLOAD PUSH1 0x1 DUP1 DUP3 ADD DUP10 SSTORE SWAP8 DUP6 MSTORE SWAP4 DUP4 SWAP1 KECCAK256 DUP7 MLOAD PUSH1 0xF SWAP1 SWAP6 MUL ADD SWAP4 DUP5 SSTORE DUP6 DUP4 ADD MLOAD SWAP7 DUP5 ADD DUP1 SLOAD PUSH1 0x1 PUSH1 0x1 PUSH1 0xA0 SHL SUB SWAP9 DUP10 AND PUSH1 0x1 PUSH1 0x1 PUSH1 0xA0 SHL SUB NOT SWAP2 DUP3 AND OR SWAP1 SWAP2 SSTORE SWAP2 DUP7 ADD MLOAD PUSH1 0x2 DUP6 ADD DUP1 SLOAD SWAP2 DUP10 AND SWAP2 DUP5 AND SWAP2 SWAP1 SWAP2 OR SWAP1 SSTORE DUP6 ADD MLOAD PUSH1 0x3 DUP5 ADD DUP1 SLOAD SWAP2 SWAP1 SWAP8 AND SWAP2 AND OR SWAP1 SWAP5 SSTORE SWAP1 DUP3 ADD MLOAD DUP1 MLOAD SWAP3 SWAP4 SWAP2 SWAP3 PUSH2 0x35B8 SWAP3 PUSH1 0x4 DUP6 ADD SWAP3 ADD SWAP1 PUSH2 0x42F4 JUMP JUMPDEST POP PUSH1 0xA0 DUP3 ADD MLOAD DUP1 MLOAD PUSH2 0x35D4 SWAP2 PUSH1 0x5 DUP5 ADD SWAP2 PUSH1 0x20 SWAP1 SWAP2 ADD SWAP1 PUSH2 0x42F4 JUMP JUMPDEST POP PUSH1 0xC0 DUP3 ADD MLOAD PUSH1 0x6 DUP3 ADD SSTORE PUSH1 0xE0 DUP3 ADD MLOAD PUSH1 0x7 DUP3 ADD SSTORE PUSH2 0x100 DUP3 ADD MLOAD PUSH1 0x8 DUP3 ADD SWAP1 PUSH2 0x35FE SWAP1 DUP3 PUSH2 0x4D8B JUMP JUMPDEST POP PUSH2 0x120 DUP3 ADD MLOAD PUSH1 0x9 DUP3 ADD DUP1 SLOAD PUSH1 0xFF NOT AND PUSH1 0x1 DUP4 PUSH1 0x6 DUP2 GT ISZERO PUSH2 0x3623 JUMPI PUSH2 0x3623 PUSH2 0x486C JUMP JUMPDEST MUL OR SWAP1 SSTORE POP PUSH2 0x140 DUP3 ADD MLOAD PUSH1 0xA DUP3 ADD SSTORE PUSH2 0x160 DUP3 ADD MLOAD PUSH1 0xB DUP3 ADD SSTORE PUSH2 0x180 DUP3 ADD MLOAD PUSH1 0xC DUP3 ADD SSTORE PUSH2 0x1A0 DUP3 ADD MLOAD PUSH1 0xD DUP3 ADD SSTORE PUSH2 0x1C0 SWAP1 SWAP2 ADD MLOAD PUSH1 0xE SWAP1 SWAP2 ADD SSTORE CALLER PUSH1 0x0 SWAP1 DUP2 MSTORE PUSH1 0x2 PUSH1 0x20 SWAP1 DUP2 MSTORE PUSH1 0x40 DUP1 DUP4 KECCAK256 DUP1 SLOAD PUSH1 0x1 DUP2 DUP2 ADD DUP4 SSTORE SWAP2 DUP6 MSTORE DUP4 DUP6 KECCAK256 ADD DUP6 SWAP1 SSTORE PUSH1 0x1 PUSH1 0x1 PUSH1 0xA0 SHL SUB SWAP16 SWAP1 SWAP16 AND DUP4 MSTORE PUSH1 0x4 DUP3 MSTORE DUP3 KECCAK256 DUP1 SLOAD SWAP15 DUP16 ADD DUP2 SSTORE DUP3 MSTORE SWAP1 KECCAK256 SWAP1 SWAP12 ADD SWAP11 SWAP1 SWAP11 SSTORE POP POP POP POP POP POP POP POP POP POP JUMP JUMPDEST PUSH1 0x9 DUP2 DUP2 SLOAD DUP2 LT PUSH2 0x269F JUMPI PUSH1 0x0 DUP1 REVERT JUMPDEST PUSH1 0x0 PUSH1 0x7 DUP3 DUP2 SLOAD DUP2 LT PUSH2 0x36DD JUMPI PUSH2 0x36DD PUSH2 0x4CDD JUMP JUMPDEST SWAP1 PUSH1 0x0 MSTORE PUSH1 0x20 PUSH1 0x0 KECCAK256 SWAP1 PUSH1 0xF MUL ADD SWAP1 POP DUP2 DUP2 PUSH1 0x0 ADD SLOAD EQ PUSH2 0x3710 JUMPI PUSH1 0x40 MLOAD PUSH3 0x461BCD PUSH1 0xE5 SHL DUP2 MSTORE PUSH1 0x4 ADD PUSH2 0xA97 SWAP1 PUSH2 0x4E4A JUMP JUMPDEST PUSH1 0x1 DUP2 ADD SLOAD PUSH1 0x1 PUSH1 0x1 PUSH1 0xA0 SHL SUB AND CALLER EQ PUSH2 0x377E JUMPI PUSH1 0x40 MLOAD PUSH3 0x461BCD PUSH1 0xE5 SHL DUP2 MSTORE PUSH1 0x20 PUSH1 0x4 DUP3 ADD MSTORE PUSH1 0x29 PUSH1 0x24 DUP3 ADD MSTORE PUSH32 0x4F6E6C79207468652072657374617572616E742063616E206465636C696E6520 PUSH1 0x44 DUP3 ADD MSTORE PUSH9 0x3A34329037B93232B9 PUSH1 0xB9 SHL PUSH1 0x64 DUP3 ADD MSTORE PUSH1 0x84 ADD PUSH2 0xA97 JUMP JUMPDEST PUSH1 0x0 PUSH1 0x9 DUP3 ADD SLOAD PUSH1 0xFF AND PUSH1 0x6 DUP2 GT ISZERO PUSH2 0x3799 JUMPI PUSH2 0x3799 PUSH2 0x486C JUMP JUMPDEST EQ PUSH2 0x37DE JUMPI PUSH1 0x40 MLOAD PUSH3 0x461BCD PUSH1 0xE5 SHL DUP2 MSTORE PUSH1 0x20 PUSH1 0x4 DUP3 ADD MSTORE PUSH1 0x15 PUSH1 0x24 DUP3 ADD MSTORE PUSH21 0x4F72646572206D7573742062652070656E64696E67 PUSH1 0x58 SHL PUSH1 0x44 DUP3 ADD MSTORE PUSH1 0x64 ADD PUSH2 0xA97 JUMP JUMPDEST PUSH1 0x2 DUP2 ADD SLOAD PUSH1 0x6 DUP3 ADD SLOAD PUSH1 0x7 DUP4 ADD SLOAD PUSH1 0x1 PUSH1 0x1 PUSH1 0xA0 SHL SUB SWAP1 SWAP3 AND SWAP2 DUP3 SWAP2 PUSH2 0x8FC SWAP2 PUSH2 0x3809 SWAP2 SWAP1 PUSH2 0x514D JUMP JUMPDEST PUSH1 0x40 MLOAD DUP2 ISZERO SWAP1 SWAP3 MUL SWAP2 PUSH1 0x0 DUP2 DUP2 DUP2 DUP6 DUP9 DUP9 CALL SWAP4 POP POP POP POP PUSH2 0x383C JUMPI PUSH1 0x40 MLOAD PUSH3 0x461BCD PUSH1 0xE5 SHL DUP2 MSTORE PUSH1 0x4 ADD PUSH2 0xA97 SWAP1 PUSH2 0x5160 JUMP JUMPDEST POP PUSH1 0x9 ADD DUP1 SLOAD PUSH1 0xFF NOT AND PUSH1 0x6 OR SWAP1 SSTORE POP JUMP JUMPDEST PUSH1 0x2 PUSH1 0x20 MSTORE DUP2 PUSH1 0x0 MSTORE PUSH1 0x40 PUSH1 0x0 KECCAK256 DUP2 DUP2 SLOAD DUP2 LT PUSH2 0x912 JUMPI PUSH1 0x0 DUP1 REVERT JUMPDEST PUSH1 0x0 PUSH1 0x7 DUP3 DUP2 SLOAD DUP2 LT PUSH2 0x387F JUMPI PUSH2 0x387F PUSH2 0x4CDD JUMP JUMPDEST SWAP1 PUSH1 0x0 MSTORE PUSH1 0x20 PUSH1 0x0 KECCAK256 SWAP1 PUSH1 0xF MUL ADD SWAP1 POP DUP2 DUP2 PUSH1 0x0 ADD SLOAD EQ PUSH2 0x38B2 JUMPI PUSH1 0x40 MLOAD PUSH3 0x461BCD PUSH1 0xE5 SHL DUP2 MSTORE PUSH1 0x4 ADD PUSH2 0xA97 SWAP1 PUSH2 0x4E4A JUMP JUMPDEST PUSH1 0x4 PUSH1 0x9 DUP3 ADD SLOAD PUSH1 0xFF AND PUSH1 0x6 DUP2 GT ISZERO PUSH2 0x38CD JUMPI PUSH2 0x38CD PUSH2 0x486C JUMP JUMPDEST EQ PUSH2 0x38D7 JUMPI PUSH1 0x0 DUP1 REVERT JUMPDEST PUSH1 0x2 DUP2 ADD SLOAD PUSH1 0x1 PUSH1 0x1 PUSH1 0xA0 SHL SUB AND CALLER EQ PUSH2 0x3946 JUMPI PUSH1 0x40 MLOAD PUSH3 0x461BCD PUSH1 0xE5 SHL DUP2 MSTORE PUSH1 0x20 PUSH1 0x4 DUP3 ADD MSTORE PUSH1 0x2A PUSH1 0x24 DUP3 ADD MSTORE PUSH32 0x4F726465722064656C6976657279206D75737420626520636F6E6669726D6564 PUSH1 0x44 DUP3 ADD MSTORE PUSH10 0x8189E4818DB1A595B9D PUSH1 0xB2 SHL PUSH1 0x64 DUP3 ADD MSTORE PUSH1 0x84 ADD PUSH2 0xA97 JUMP JUMPDEST PUSH1 0x0 DUP2 PUSH1 0xC ADD SLOAD DUP3 PUSH1 0xD ADD SLOAD PUSH2 0x395C SWAP2 SWAP1 PUSH2 0x5197 JUMP JUMPDEST SWAP1 POP PUSH1 0x0 DUP3 PUSH1 0xD ADD SLOAD TIMESTAMP PUSH2 0x3970 SWAP2 SWAP1 PUSH2 0x5197 JUMP JUMPDEST SWAP1 POP PUSH1 0x0 DUP4 PUSH1 0x6 ADD SLOAD DUP5 PUSH1 0x7 ADD SLOAD PUSH2 0x3988 SWAP2 SWAP1 PUSH2 0x514D JUMP JUMPDEST SWAP1 POP PUSH1 0x0 DUP1 PUSH1 0x0 DUP1 PUSH1 0xA SWAP1 POP DUP8 PUSH1 0xA ADD SLOAD DUP8 GT ISZERO PUSH2 0x39BF JUMPI PUSH1 0x64 DUP9 PUSH1 0x7 ADD SLOAD DUP3 PUSH2 0x39B2 SWAP2 SWAP1 PUSH2 0x50FB JUMP JUMPDEST PUSH2 0x39BC SWAP2 SWAP1 PUSH2 0x5112 JUMP JUMPDEST SWAP3 POP JUMPDEST DUP8 PUSH1 0xB ADD SLOAD DUP7 GT ISZERO PUSH2 0x39EA JUMPI PUSH1 0x64 DUP9 PUSH1 0x6 ADD SLOAD DUP3 PUSH2 0x39DD SWAP2 SWAP1 PUSH2 0x50FB JUMP JUMPDEST PUSH2 0x39E7 SWAP2 SWAP1 PUSH2 0x5112 JUMP JUMPDEST SWAP2 POP JUMPDEST PUSH1 0x1 DUP9 ADD SLOAD PUSH1 0x3 DUP10 ADD SLOAD PUSH1 0x2 DUP11 ADD SLOAD PUSH1 0x7 DUP12 ADD SLOAD PUSH1 0x1 PUSH1 0x1 PUSH1 0xA0 SHL SUB SWAP4 DUP5 AND SWAP4 SWAP3 DUP4 AND SWAP3 SWAP1 SWAP2 AND SWAP1 PUSH1 0x0 SWAP1 PUSH2 0x3A20 SWAP1 DUP9 SWAP1 PUSH2 0x5197 JUMP JUMPDEST SWAP1 POP PUSH1 0x0 DUP7 DUP14 PUSH1 0x6 ADD SLOAD PUSH2 0x3A34 SWAP2 SWAP1 PUSH2 0x5197 JUMP JUMPDEST PUSH1 0x40 MLOAD SWAP1 SWAP2 POP PUSH1 0x1 PUSH1 0x1 PUSH1 0xA0 SHL SUB DUP7 AND SWAP1 DUP4 ISZERO PUSH2 0x8FC MUL SWAP1 DUP5 SWAP1 PUSH1 0x0 DUP2 DUP2 DUP2 DUP6 DUP9 DUP9 CALL SWAP4 POP POP POP POP PUSH2 0x3AB4 JUMPI PUSH1 0x40 MLOAD PUSH3 0x461BCD PUSH1 0xE5 SHL DUP2 MSTORE PUSH1 0x20 PUSH1 0x4 DUP3 ADD MSTORE PUSH1 0x24 DUP1 DUP3 ADD MSTORE PUSH32 0x4661696C656420746F2073656E64207061796D656E7420746F20726573746175 PUSH1 0x44 DUP3 ADD MSTORE PUSH4 0x1C985B9D PUSH1 0xE2 SHL PUSH1 0x64 DUP3 ADD MSTORE PUSH1 0x84 ADD PUSH2 0xA97 JUMP JUMPDEST PUSH1 0x40 MLOAD PUSH1 0x1 PUSH1 0x1 PUSH1 0xA0 SHL SUB DUP6 AND SWAP1 DUP3 ISZERO PUSH2 0x8FC MUL SWAP1 DUP4 SWAP1 PUSH1 0x0 DUP2 DUP2 DUP2 DUP6 DUP9 DUP9 CALL SWAP4 POP POP POP POP PUSH2 0x3B2F JUMPI PUSH1 0x40 MLOAD PUSH3 0x461BCD PUSH1 0xE5 SHL DUP2 MSTORE PUSH1 0x20 PUSH1 0x4 DUP3 ADD MSTORE PUSH1 0x21 PUSH1 0x24 DUP3 ADD MSTORE PUSH32 0x4661696C656420746F2073656E64207061796D656E7420746F20636F75726965 PUSH1 0x44 DUP3 ADD MSTORE PUSH1 0x39 PUSH1 0xF9 SHL PUSH1 0x64 DUP3 ADD MSTORE PUSH1 0x84 ADD PUSH2 0xA97 JUMP JUMPDEST PUSH1 0x1 PUSH1 0x1 PUSH1 0xA0 SHL SUB DUP4 AND PUSH2 0x8FC PUSH2 0x3B46 DUP10 DUP12 PUSH2 0x514D JUMP JUMPDEST PUSH1 0x40 MLOAD DUP2 ISZERO SWAP1 SWAP3 MUL SWAP2 PUSH1 0x0 DUP2 DUP2 DUP2 DUP6 DUP9 DUP9 CALL SWAP4 POP POP POP POP PUSH2 0x3BA9 JUMPI PUSH1 0x40 MLOAD PUSH3 0x461BCD PUSH1 0xE5 SHL DUP2 MSTORE PUSH1 0x20 PUSH1 0x4 DUP3 ADD DUP2 SWAP1 MSTORE PUSH1 0x24 DUP3 ADD MSTORE PUSH32 0x4661696C656420746F2073656E64207061796D656E7420746F20636C69656E74 PUSH1 0x44 DUP3 ADD MSTORE PUSH1 0x64 ADD PUSH2 0xA97 JUMP JUMPDEST POP POP POP POP PUSH1 0x9 SWAP9 SWAP1 SWAP9 ADD DUP1 SLOAD PUSH1 0xFF NOT AND PUSH1 0x5 OR SWAP1 SSTORE POP POP POP POP POP POP POP POP POP JUMP JUMPDEST PUSH1 0x3 PUSH1 0x20 MSTORE PUSH1 0x0 SWAP1 DUP2 MSTORE PUSH1 0x40 SWAP1 KECCAK256 DUP1 SLOAD PUSH1 0x1 DUP3 ADD SLOAD PUSH1 0x2 DUP4 ADD DUP1 SLOAD SWAP3 SWAP4 SWAP2 SWAP3 PUSH2 0x3BF1 SWAP1 PUSH2 0x4D09 JUMP JUMPDEST DUP1 PUSH1 0x1F ADD PUSH1 0x20 DUP1 SWAP2 DIV MUL PUSH1 0x20 ADD PUSH1 0x40 MLOAD SWAP1 DUP2 ADD PUSH1 0x40 MSTORE DUP1 SWAP3 SWAP2 SWAP1 DUP2 DUP2 MSTORE PUSH1 0x20 ADD DUP3 DUP1 SLOAD PUSH2 0x3C1D SWAP1 PUSH2 0x4D09 JUMP JUMPDEST DUP1 ISZERO PUSH2 0x3C6A JUMPI DUP1 PUSH1 0x1F LT PUSH2 0x3C3F JUMPI PUSH2 0x100 DUP1 DUP4 SLOAD DIV MUL DUP4 MSTORE SWAP2 PUSH1 0x20 ADD SWAP2 PUSH2 0x3C6A JUMP JUMPDEST DUP3 ADD SWAP2 SWAP1 PUSH1 0x0 MSTORE PUSH1 0x20 PUSH1 0x0 KECCAK256 SWAP1 JUMPDEST DUP2 SLOAD DUP2 MSTORE SWAP1 PUSH1 0x1 ADD SWAP1 PUSH1 0x20 ADD DUP1 DUP4 GT PUSH2 0x3C4D JUMPI DUP3 SWAP1 SUB PUSH1 0x1F AND DUP3 ADD SWAP2 JUMPDEST POP POP POP POP POP SWAP1 POP DUP4 JUMP JUMPDEST PUSH1 0x0 DUP1 DUP1 DUP1 JUMPDEST PUSH1 0x1 PUSH1 0x1 PUSH1 0xA0 SHL SUB DUP6 AND PUSH1 0x0 SWAP1 DUP2 MSTORE PUSH1 0x4 PUSH1 0x20 MSTORE PUSH1 0x40 SWAP1 KECCAK256 SLOAD DUP2 LT ISZERO PUSH2 0x3D2D JUMPI PUSH1 0x1 PUSH1 0x1 PUSH1 0xA0 SHL SUB DUP6 AND PUSH1 0x0 SWAP1 DUP2 MSTORE PUSH1 0x4 PUSH1 0x20 MSTORE PUSH1 0x40 DUP2 KECCAK256 DUP1 SLOAD DUP4 SWAP1 DUP2 LT PUSH2 0x3CC4 JUMPI PUSH2 0x3CC4 PUSH2 0x4CDD JUMP JUMPDEST SWAP1 PUSH1 0x0 MSTORE PUSH1 0x20 PUSH1 0x0 KECCAK256 ADD SLOAD SWAP1 POP DUP1 PUSH1 0x3 PUSH1 0x0 DUP4 DUP2 MSTORE PUSH1 0x20 ADD SWAP1 DUP2 MSTORE PUSH1 0x20 ADD PUSH1 0x0 KECCAK256 PUSH1 0x0 ADD SLOAD SUB PUSH2 0x3D1A JUMPI PUSH1 0x0 DUP2 DUP2 MSTORE PUSH1 0x3 PUSH1 0x20 MSTORE PUSH1 0x40 SWAP1 KECCAK256 PUSH1 0x1 ADD SLOAD PUSH2 0x3D0A SWAP1 DUP6 PUSH2 0x514D JUMP JUMPDEST SWAP4 POP DUP3 PUSH2 0x3D16 DUP2 PUSH2 0x5134 JUMP JUMPDEST SWAP4 POP POP JUMPDEST POP DUP1 PUSH2 0x3D25 DUP2 PUSH2 0x5134 JUMP JUMPDEST SWAP2 POP POP PUSH2 0x3C7A JUMP JUMPDEST POP DUP1 PUSH1 0x0 SUB PUSH2 0x3D40 JUMPI POP PUSH1 0x0 SWAP4 SWAP3 POP POP POP JUMP JUMPDEST PUSH2 0x3D4A DUP2 DUP4 PUSH2 0x5112 JUMP JUMPDEST SWAP5 SWAP4 POP POP POP POP JUMP JUMPDEST PUSH1 0x1 PUSH1 0x1 PUSH1 0xA0 SHL SUB DUP2 AND PUSH1 0x0 SWAP1 DUP2 MSTORE PUSH1 0x5 PUSH1 0x20 SWAP1 DUP2 MSTORE PUSH1 0x40 DUP1 DUP4 KECCAK256 DUP1 SLOAD DUP3 MLOAD DUP2 DUP6 MUL DUP2 ADD DUP6 ADD SWAP1 SWAP4 MSTORE DUP1 DUP4 MSTORE PUSH1 0x60 SWAP5 SWAP4 DUP4 ADD DUP3 DUP3 DUP1 ISZERO PUSH2 0x3DB1 JUMPI PUSH1 0x20 MUL DUP3 ADD SWAP2 SWAP1 PUSH1 0x0 MSTORE PUSH1 0x20 PUSH1 0x0 KECCAK256 SWAP1 JUMPDEST DUP2 SLOAD DUP2 MSTORE PUSH1 0x20 ADD SWAP1 PUSH1 0x1 ADD SWAP1 DUP1 DUP4 GT PUSH2 0x3D9D JUMPI JUMPDEST POP POP POP POP POP SWAP1 POP PUSH1 0x0 DUP2 MLOAD PUSH1 0x1 PUSH1 0x1 PUSH1 0x40 SHL SUB DUP2 GT ISZERO PUSH2 0x3DD3 JUMPI PUSH2 0x3DD3 PUSH2 0x4CF3 JUMP JUMPDEST PUSH1 0x40 MLOAD SWAP1 DUP1 DUP3 MSTORE DUP1 PUSH1 0x20 MUL PUSH1 0x20 ADD DUP3 ADD PUSH1 0x40 MSTORE DUP1 ISZERO PUSH2 0x3E0C JUMPI DUP2 PUSH1 0x20 ADD JUMPDEST PUSH2 0x3DF9 PUSH2 0x4252 JUMP JUMPDEST DUP2 MSTORE PUSH1 0x20 ADD SWAP1 PUSH1 0x1 SWAP1 SUB SWAP1 DUP2 PUSH2 0x3DF1 JUMPI SWAP1 POP JUMPDEST POP SWAP1 POP PUSH1 0x0 JUMPDEST DUP3 MLOAD DUP2 LT ISZERO PUSH2 0x204E JUMPI PUSH1 0x0 DUP4 DUP3 DUP2 MLOAD DUP2 LT PUSH2 0x3E2F JUMPI PUSH2 0x3E2F PUSH2 0x4CDD JUMP JUMPDEST PUSH1 0x20 MUL PUSH1 0x20 ADD ADD MLOAD SWAP1 POP PUSH1 0x7 DUP2 DUP2 SLOAD DUP2 LT PUSH2 0x3E4C JUMPI PUSH2 0x3E4C PUSH2 0x4CDD JUMP JUMPDEST PUSH1 0x0 SWAP2 DUP3 MSTORE PUSH1 0x20 SWAP2 DUP3 SWAP1 KECCAK256 PUSH1 0x40 DUP1 MLOAD PUSH2 0x1E0 DUP2 ADD DUP3 MSTORE PUSH1 0xF SWAP1 SWAP4 MUL SWAP1 SWAP2 ADD DUP1 SLOAD DUP4 MSTORE PUSH1 0x1 DUP2 ADD SLOAD PUSH1 0x1 PUSH1 0x1 PUSH1 0xA0 SHL SUB SWAP1 DUP2 AND DUP5 DUP7 ADD MSTORE PUSH1 0x2 DUP3 ADD SLOAD DUP2 AND DUP5 DUP5 ADD MSTORE PUSH1 0x3 DUP3 ADD SLOAD AND PUSH1 0x60 DUP5 ADD MSTORE PUSH1 0x4 DUP2 ADD DUP1 SLOAD DUP4 MLOAD DUP2 DUP8 MUL DUP2 ADD DUP8 ADD SWAP1 SWAP5 MSTORE DUP1 DUP5 MSTORE SWAP4 SWAP5 SWAP2 SWAP4 PUSH1 0x80 DUP7 ADD SWAP4 SWAP3 DUP4 ADD DUP3 DUP3 DUP1 ISZERO PUSH2 0x3EE6 JUMPI PUSH1 0x20 MUL DUP3 ADD SWAP2 SWAP1 PUSH1 0x0 MSTORE PUSH1 0x20 PUSH1 0x0 KECCAK256 SWAP1 JUMPDEST DUP2 SLOAD DUP2 MSTORE PUSH1 0x20 ADD SWAP1 PUSH1 0x1 ADD SWAP1 DUP1 DUP4 GT PUSH2 0x3ED2 JUMPI JUMPDEST POP POP POP POP POP DUP2 MSTORE PUSH1 0x20 ADD PUSH1 0x5 DUP3 ADD DUP1 SLOAD DUP1 PUSH1 0x20 MUL PUSH1 0x20 ADD PUSH1 0x40 MLOAD SWAP1 DUP2 ADD PUSH1 0x40 MSTORE DUP1 SWAP3 SWAP2 SWAP1 DUP2 DUP2 MSTORE PUSH1 0x20 ADD DUP3 DUP1 SLOAD DUP1 ISZERO PUSH2 0x3F3E JUMPI PUSH1 0x20 MUL DUP3 ADD SWAP2 SWAP1 PUSH1 0x0 MSTORE PUSH1 0x20 PUSH1 0x0 KECCAK256 SWAP1 JUMPDEST DUP2 SLOAD DUP2 MSTORE PUSH1 0x20 ADD SWAP1 PUSH1 0x1 ADD SWAP1 DUP1 DUP4 GT PUSH2 0x3F2A JUMPI JUMPDEST POP POP POP POP POP DUP2 MSTORE PUSH1 0x20 ADD PUSH1 0x6 DUP3 ADD SLOAD DUP2 MSTORE PUSH1 0x20 ADD PUSH1 0x7 DUP3 ADD SLOAD DUP2 MSTORE PUSH1 0x20 ADD PUSH1 0x8 DUP3 ADD DUP1 SLOAD PUSH2 0x3F6B SWAP1 PUSH2 0x4D09 JUMP JUMPDEST DUP1 PUSH1 0x1F ADD PUSH1 0x20 DUP1 SWAP2 DIV MUL PUSH1 0x20 ADD PUSH1 0x40 MLOAD SWAP1 DUP2 ADD PUSH1 0x40 MSTORE DUP1 SWAP3 SWAP2 SWAP1 DUP2 DUP2 MSTORE PUSH1 0x20 ADD DUP3 DUP1 SLOAD PUSH2 0x3F97 SWAP1 PUSH2 0x4D09 JUMP JUMPDEST DUP1 ISZERO PUSH2 0x3FE4 JUMPI DUP1 PUSH1 0x1F LT PUSH2 0x3FB9 JUMPI PUSH2 0x100 DUP1 DUP4 SLOAD DIV MUL DUP4 MSTORE SWAP2 PUSH1 0x20 ADD SWAP2 PUSH2 0x3FE4 JUMP JUMPDEST DUP3 ADD SWAP2 SWAP1 PUSH1 0x0 MSTORE PUSH1 0x20 PUSH1 0x0 KECCAK256 SWAP1 JUMPDEST DUP2 SLOAD DUP2 MSTORE SWAP1 PUSH1 0x1 ADD SWAP1 PUSH1 0x20 ADD DUP1 DUP4 GT PUSH2 0x3FC7 JUMPI DUP3 SWAP1 SUB PUSH1 0x1F AND DUP3 ADD SWAP2 JUMPDEST POP POP POP SWAP2 DUP4 MSTORE POP POP PUSH1 0x9 DUP3 ADD SLOAD PUSH1 0x20 SWAP1 SWAP2 ADD SWAP1 PUSH1 0xFF AND PUSH1 0x6 DUP2 GT ISZERO PUSH2 0x400B JUMPI PUSH2 0x400B PUSH2 0x486C JUMP JUMPDEST PUSH1 0x6 DUP2 GT ISZERO PUSH2 0x401C JUMPI PUSH2 0x401C PUSH2 0x486C JUMP JUMPDEST DUP2 MSTORE PUSH1 0x20 ADD PUSH1 0xA DUP3 ADD SLOAD DUP2 MSTORE PUSH1 0x20 ADD PUSH1 0xB DUP3 ADD SLOAD DUP2 MSTORE PUSH1 0x20 ADD PUSH1 0xC DUP3 ADD SLOAD DUP2 MSTORE PUSH1 0x20 ADD PUSH1 0xD DUP3 ADD SLOAD DUP2 MSTORE PUSH1 0x20 ADD PUSH1 0xE DUP3 ADD SLOAD DUP2 MSTORE POP POP DUP4 DUP4 DUP2 MLOAD DUP2 LT PUSH2 0x4064 JUMPI PUSH2 0x4064 PUSH2 0x4CDD JUMP JUMPDEST PUSH1 0x20 MUL PUSH1 0x20 ADD ADD DUP2 SWAP1 MSTORE POP POP DUP1 DUP1 PUSH2 0x407B SWAP1 PUSH2 0x5134 JUMP JUMPDEST SWAP2 POP POP PUSH2 0x3E12 JUMP JUMPDEST PUSH1 0x0 PUSH1 0x7 DUP3 DUP2 SLOAD DUP2 LT PUSH2 0x4098 JUMPI PUSH2 0x4098 PUSH2 0x4CDD JUMP JUMPDEST SWAP1 PUSH1 0x0 MSTORE PUSH1 0x20 PUSH1 0x0 KECCAK256 SWAP1 PUSH1 0xF MUL ADD SWAP1 POP DUP2 DUP2 PUSH1 0x0 ADD SLOAD EQ PUSH2 0x40CB JUMPI PUSH1 0x40 MLOAD PUSH3 0x461BCD PUSH1 0xE5 SHL DUP2 MSTORE PUSH1 0x4 ADD PUSH2 0xA97 SWAP1 PUSH2 0x4E4A JUMP JUMPDEST PUSH1 0x2 PUSH1 0x9 DUP3 ADD SLOAD PUSH1 0xFF AND PUSH1 0x6 DUP2 GT ISZERO PUSH2 0x40E6 JUMPI PUSH2 0x40E6 PUSH2 0x486C JUMP JUMPDEST EQ PUSH2 0x40F0 JUMPI PUSH1 0x0 DUP1 REVERT JUMPDEST PUSH1 0x1 DUP2 ADD SLOAD PUSH1 0x1 PUSH1 0x1 PUSH1 0xA0 SHL SUB AND CALLER EQ PUSH2 0x4180 JUMPI PUSH1 0x40 MLOAD PUSH3 0x461BCD PUSH1 0xE5 SHL DUP2 MSTORE PUSH1 0x20 PUSH1 0x4 DUP3 ADD MSTORE PUSH1 0x44 PUSH1 0x24 DUP3 ADD DUP2 SWAP1 MSTORE PUSH32 0x4F72646572206D757374206265206D61726B656420726561647920746F206465 SWAP1 DUP3 ADD MSTORE PUSH32 0x6C69766572206279207468652072657374617572616E74206F6620746865206F PUSH1 0x64 DUP3 ADD MSTORE PUSH4 0x393232B9 PUSH1 0xE1 SHL PUSH1 0x84 DUP3 ADD MSTORE PUSH1 0xA4 ADD PUSH2 0xA97 JUMP JUMPDEST PUSH1 0x9 DUP2 ADD DUP1 SLOAD PUSH1 0x3 SWAP2 SWAP1 PUSH1 0xFF NOT AND PUSH1 0x1 DUP4 PUSH2 0xDB6 JUMP JUMPDEST PUSH1 0x0 JUMPDEST PUSH1 0x6 SLOAD DUP2 LT ISZERO PUSH2 0x424E JUMPI DUP2 PUSH1 0x6 DUP3 DUP2 SLOAD DUP2 LT PUSH2 0x41B7 JUMPI PUSH2 0x41B7 PUSH2 0x4CDD JUMP JUMPDEST SWAP1 PUSH1 0x0 MSTORE PUSH1 0x20 PUSH1 0x0 KECCAK256 ADD SLOAD SUB PUSH2 0x423C JUMPI PUSH1 0x6 DUP1 SLOAD PUSH2 0x41D7 SWAP1 PUSH1 0x1 SWAP1 PUSH2 0x5197 JUMP JUMPDEST DUP2 SLOAD DUP2 LT PUSH2 0x41E7 JUMPI PUSH2 0x41E7 PUSH2 0x4CDD JUMP JUMPDEST SWAP1 PUSH1 0x0 MSTORE PUSH1 0x20 PUSH1 0x0 KECCAK256 ADD SLOAD PUSH1 0x6 DUP3 DUP2 SLOAD DUP2 LT PUSH2 0x4205 JUMPI PUSH2 0x4205 PUSH2 0x4CDD JUMP JUMPDEST PUSH1 0x0 SWAP2 DUP3 MSTORE PUSH1 0x20 SWAP1 SWAP2 KECCAK256 ADD SSTORE PUSH1 0x6 DUP1 SLOAD DUP1 PUSH2 0x4222 JUMPI PUSH2 0x4222 PUSH2 0x51AA JUMP JUMPDEST PUSH1 0x1 SWAP1 SUB DUP2 DUP2 SWAP1 PUSH1 0x0 MSTORE PUSH1 0x20 PUSH1 0x0 KECCAK256 ADD PUSH1 0x0 SWAP1 SSTORE SWAP1 SSTORE POP POP JUMP JUMPDEST DUP1 PUSH2 0x4246 DUP2 PUSH2 0x5134 JUMP JUMPDEST SWAP2 POP POP PUSH2 0x4199 JUMP JUMPDEST POP POP JUMP JUMPDEST PUSH1 0x40 MLOAD DUP1 PUSH2 0x1E0 ADD PUSH1 0x40 MSTORE DUP1 PUSH1 0x0 DUP2 MSTORE PUSH1 0x20 ADD PUSH1 0x0 PUSH1 0x1 PUSH1 0x1 PUSH1 0xA0 SHL SUB AND DUP2 MSTORE PUSH1 0x20 ADD PUSH1 0x0 PUSH1 0x1 PUSH1 0x1 PUSH1 0xA0 SHL SUB AND DUP2 MSTORE PUSH1 0x20 ADD PUSH1 0x0 PUSH1 0x1 PUSH1 0x1 PUSH1 0xA0 SHL SUB AND DUP2 MSTORE PUSH1 0x20 ADD PUSH1 0x60 DUP2 MSTORE PUSH1 0x20 ADD PUSH1 0x60 DUP2 MSTORE PUSH1 0x20 ADD PUSH1 0x0 DUP2 MSTORE PUSH1 0x20 ADD PUSH1 0x0 DUP2 MSTORE PUSH1 0x20 ADD PUSH1 0x60 DUP2 MSTORE PUSH1 0x20 ADD PUSH1 0x0 PUSH1 0x6 DUP2 GT ISZERO PUSH2 0x42CB JUMPI PUSH2 0x42CB PUSH2 0x486C JUMP JUMPDEST DUP2 MSTORE PUSH1 0x20 ADD PUSH1 0x0 DUP2 MSTORE PUSH1 0x20 ADD PUSH1 0x0 DUP2 MSTORE PUSH1 0x20 ADD PUSH1 0x0 DUP2 MSTORE PUSH1 0x20 ADD PUSH1 0x0 DUP2 MSTORE PUSH1 0x20 ADD PUSH1 0x0 DUP2 MSTORE POP SWAP1 JUMP JUMPDEST DUP3 DUP1 SLOAD DUP3 DUP3 SSTORE SWAP1 PUSH1 0x0 MSTORE PUSH1 0x20 PUSH1 0x0 KECCAK256 SWAP1 DUP2 ADD SWAP3 DUP3 ISZERO PUSH2 0x432F JUMPI SWAP2 PUSH1 0x20 MUL DUP3 ADD JUMPDEST DUP3 DUP2 GT ISZERO PUSH2 0x432F JUMPI DUP3 MLOAD DUP3 SSTORE SWAP2 PUSH1 0x20 ADD SWAP2 SWAP1 PUSH1 0x1 ADD SWAP1 PUSH2 0x4314 JUMP JUMPDEST POP PUSH2 0x433B SWAP3 SWAP2 POP PUSH2 0x433F JUMP JUMPDEST POP SWAP1 JUMP JUMPDEST JUMPDEST DUP1 DUP3 GT ISZERO PUSH2 0x433B JUMPI PUSH1 0x0 DUP2 SSTORE PUSH1 0x1 ADD PUSH2 0x4340 JUMP JUMPDEST DUP1 CALLDATALOAD PUSH1 0x1 PUSH1 0x1 PUSH1 0xA0 SHL SUB DUP2 AND DUP2 EQ PUSH2 0x436B JUMPI PUSH1 0x0 DUP1 REVERT JUMPDEST SWAP2 SWAP1 POP JUMP JUMPDEST PUSH1 0x0 DUP1 PUSH1 0x40 DUP4 DUP6 SUB SLT ISZERO PUSH2 0x4383 JUMPI PUSH1 0x0 DUP1 REVERT JUMPDEST PUSH2 0x438C DUP4 PUSH2 0x4354 JUMP JUMPDEST SWAP5 PUSH1 0x20 SWAP4 SWAP1 SWAP4 ADD CALLDATALOAD SWAP4 POP POP POP JUMP JUMPDEST PUSH1 0x0 DUP1 DUP4 PUSH1 0x1F DUP5 ADD SLT PUSH2 0x43AC JUMPI PUSH1 0x0 DUP1 REVERT JUMPDEST POP DUP2 CALLDATALOAD PUSH1 0x1 PUSH1 0x1 PUSH1 0x40 SHL SUB DUP2 GT ISZERO PUSH2 0x43C3 JUMPI PUSH1 0x0 DUP1 REVERT JUMPDEST PUSH1 0x20 DUP4 ADD SWAP2 POP DUP4 PUSH1 0x20 DUP3 DUP6 ADD ADD GT ISZERO PUSH2 0x43DB JUMPI PUSH1 0x0 DUP1 REVERT JUMPDEST SWAP3 POP SWAP3 SWAP1 POP JUMP JUMPDEST PUSH1 0x0 DUP1 PUSH1 0x0 DUP1 PUSH1 0x0 DUP1 PUSH1 0x80 DUP8 DUP10 SUB SLT ISZERO PUSH2 0x43FB JUMPI PUSH1 0x0 DUP1 REVERT JUMPDEST DUP7 CALLDATALOAD SWAP6 POP PUSH1 0x20 DUP8 ADD CALLDATALOAD PUSH1 0x1 PUSH1 0x1 PUSH1 0x40 SHL SUB DUP1 DUP3 GT ISZERO PUSH2 0x4419 JUMPI PUSH1 0x0 DUP1 REVERT JUMPDEST PUSH2 0x4425 DUP11 DUP4 DUP12 ADD PUSH2 0x439A JUMP JUMPDEST SWAP1 SWAP8 POP SWAP6 POP PUSH1 0x40 DUP10 ADD CALLDATALOAD SWAP2 POP DUP1 DUP3 GT ISZERO PUSH2 0x443E JUMPI PUSH1 0x0 DUP1 REVERT JUMPDEST POP PUSH2 0x444B DUP10 DUP3 DUP11 ADD PUSH2 0x439A JUMP JUMPDEST SWAP8 SWAP11 SWAP7 SWAP10 POP SWAP5 SWAP8 SWAP5 SWAP7 SWAP6 PUSH1 0x60 SWAP1 SWAP6 ADD CALLDATALOAD SWAP5 SWAP4 POP POP POP POP JUMP JUMPDEST PUSH1 0x0 DUP1 PUSH1 0x0 DUP1 PUSH1 0x60 DUP6 DUP8 SUB SLT ISZERO PUSH2 0x4479 JUMPI PUSH1 0x0 DUP1 REVERT JUMPDEST DUP5 CALLDATALOAD SWAP4 POP PUSH1 0x20 DUP6 ADD CALLDATALOAD SWAP3 POP PUSH1 0x40 DUP6 ADD CALLDATALOAD PUSH1 0x1 PUSH1 0x1 PUSH1 0x40 SHL SUB DUP2 GT ISZERO PUSH2 0x449D JUMPI PUSH1 0x0 DUP1 REVERT JUMPDEST PUSH2 0x44A9 DUP8 DUP3 DUP9 ADD PUSH2 0x439A JUMP JUMPDEST SWAP6 SWAP9 SWAP5 SWAP8 POP SWAP6 POP POP POP POP JUMP JUMPDEST PUSH1 0x0 PUSH1 0x20 DUP3 DUP5 SUB SLT ISZERO PUSH2 0x44C7 JUMPI PUSH1 0x0 DUP1 REVERT JUMPDEST PUSH2 0x44D0 DUP3 PUSH2 0x4354 JUMP JUMPDEST SWAP4 SWAP3 POP POP POP JUMP JUMPDEST PUSH1 0x0 DUP1 PUSH1 0x0 DUP1 PUSH1 0x0 DUP1 PUSH1 0x60 DUP8 DUP10 SUB SLT ISZERO PUSH2 0x44F0 JUMPI PUSH1 0x0 DUP1 REVERT JUMPDEST DUP7 CALLDATALOAD PUSH1 0x1 PUSH1 0x1 PUSH1 0x40 SHL SUB DUP1 DUP3 GT ISZERO PUSH2 0x4507 JUMPI PUSH1 0x0 DUP1 REVERT JUMPDEST PUSH2 0x4513 DUP11 DUP4 DUP12 ADD PUSH2 0x439A JUMP JUMPDEST SWAP1 SWAP9 POP SWAP7 POP PUSH1 0x20 DUP10 ADD CALLDATALOAD SWAP2 POP DUP1 DUP3 GT ISZERO PUSH2 0x452C JUMPI PUSH1 0x0 DUP1 REVERT JUMPDEST PUSH2 0x4538 DUP11 DUP4 DUP12 ADD PUSH2 0x439A JUMP JUMPDEST SWAP1 SWAP7 POP SWAP5 POP PUSH1 0x40 DUP10 ADD CALLDATALOAD SWAP2 POP DUP1 DUP3 GT ISZERO PUSH2 0x4551 JUMPI PUSH1 0x0 DUP1 REVERT JUMPDEST POP PUSH2 0x455E DUP10 DUP3 DUP11 ADD PUSH2 0x439A JUMP JUMPDEST SWAP8 SWAP11 SWAP7 SWAP10 POP SWAP5 SWAP8 POP SWAP3 SWAP6 SWAP4 SWAP5 SWAP3 POP POP POP JUMP JUMPDEST PUSH1 0x0 PUSH1 0x20 DUP3 DUP5 SUB SLT ISZERO PUSH2 0x4582 JUMPI PUSH1 0x0 DUP1 REVERT JUMPDEST POP CALLDATALOAD SWAP2 SWAP1 POP JUMP JUMPDEST PUSH1 0x0 DUP2 MLOAD DUP1 DUP5 MSTORE PUSH1 0x0 JUMPDEST DUP2 DUP2 LT ISZERO PUSH2 0x45AF JUMPI PUSH1 0x20 DUP2 DUP6 ADD DUP2 ADD MLOAD DUP7 DUP4 ADD DUP3 ADD MSTORE ADD PUSH2 0x4593 JUMP JUMPDEST POP PUSH1 0x0 PUSH1 0x20 DUP3 DUP7 ADD ADD MSTORE PUSH1 0x20 PUSH1 0x1F NOT PUSH1 0x1F DUP4 ADD AND DUP6 ADD ADD SWAP2 POP POP SWAP3 SWAP2 POP POP JUMP JUMPDEST PUSH1 0x1 PUSH1 0x1 PUSH1 0xA0 SHL SUB DUP6 AND DUP2 MSTORE PUSH1 0x80 PUSH1 0x20 DUP3 ADD DUP2 SWAP1 MSTORE PUSH1 0x0 SWAP1 PUSH2 0x45F3 SWAP1 DUP4 ADD DUP7 PUSH2 0x4589 JUMP JUMPDEST DUP3 DUP2 SUB PUSH1 0x40 DUP5 ADD MSTORE PUSH2 0x4605 DUP2 DUP7 PUSH2 0x4589 JUMP JUMPDEST SWAP1 POP DUP3 DUP2 SUB PUSH1 0x60 DUP5 ADD MSTORE PUSH2 0x4619 DUP2 DUP6 PUSH2 0x4589 JUMP JUMPDEST SWAP8 SWAP7 POP POP POP POP POP POP POP JUMP JUMPDEST PUSH1 0x0 DUP1 PUSH1 0x40 DUP4 DUP6 SUB SLT ISZERO PUSH2 0x4637 JUMPI PUSH1 0x0 DUP1 REVERT JUMPDEST POP POP DUP1 CALLDATALOAD SWAP3 PUSH1 0x20 SWAP1 SWAP2 ADD CALLDATALOAD SWAP2 POP JUMP JUMPDEST DUP1 MLOAD DUP3 MSTORE PUSH1 0x0 PUSH1 0x20 DUP3 ADD MLOAD PUSH1 0xA0 PUSH1 0x20 DUP6 ADD MSTORE PUSH2 0x4665 PUSH1 0xA0 DUP6 ADD DUP3 PUSH2 0x4589 JUMP JUMPDEST SWAP1 POP PUSH1 0x40 DUP4 ADD MLOAD DUP5 DUP3 SUB PUSH1 0x40 DUP7 ADD MSTORE PUSH2 0x467E DUP3 DUP3 PUSH2 0x4589 JUMP JUMPDEST SWAP2 POP POP PUSH1 0x60 DUP4 ADD MLOAD PUSH1 0x60 DUP6 ADD MSTORE PUSH1 0x80 DUP4 ADD MLOAD ISZERO ISZERO PUSH1 0x80 DUP6 ADD MSTORE DUP1 SWAP2 POP POP SWAP3 SWAP2 POP POP JUMP JUMPDEST PUSH1 0x0 DUP2 MLOAD DUP1 DUP5 MSTORE PUSH1 0x20 DUP1 DUP6 ADD SWAP5 POP DUP5 DUP3 PUSH1 0x5 SHL DUP7 ADD DUP3 DUP7 ADD PUSH1 0x0 JUMPDEST DUP6 DUP2 LT ISZERO PUSH2 0x46E6 JUMPI DUP4 DUP4 SUB DUP10 MSTORE PUSH2 0x46D4 DUP4 DUP4 MLOAD PUSH2 0x4646 JUMP JUMPDEST SWAP9 DUP6 ADD SWAP9 SWAP3 POP SWAP1 DUP5 ADD SWAP1 PUSH1 0x1 ADD PUSH2 0x46BC JUMP JUMPDEST POP SWAP1 SWAP8 SWAP7 POP POP POP POP POP POP POP JUMP JUMPDEST PUSH1 0x0 DUP2 MLOAD DUP1 DUP5 MSTORE PUSH1 0x20 DUP1 DUP6 ADD SWAP5 POP DUP1 DUP5 ADD PUSH1 0x0 JUMPDEST DUP4 DUP2 LT ISZERO PUSH2 0x4723 JUMPI DUP2 MLOAD DUP8 MSTORE SWAP6 DUP3 ADD SWAP6 SWAP1 DUP3 ADD SWAP1 PUSH1 0x1 ADD PUSH2 0x4707 JUMP JUMPDEST POP SWAP5 SWAP6 SWAP5 POP POP POP POP POP JUMP JUMPDEST PUSH1 0x40 DUP2 MSTORE PUSH1 0x0 PUSH2 0x4741 PUSH1 0x40 DUP4 ADD DUP6 PUSH2 0x46A1 JUMP JUMPDEST DUP3 DUP2 SUB PUSH1 0x20 DUP5 ADD MSTORE PUSH2 0xEE7 DUP2 DUP6 PUSH2 0x46F3 JUMP JUMPDEST PUSH1 0x0 DUP1 DUP4 PUSH1 0x1F DUP5 ADD SLT PUSH2 0x4765 JUMPI PUSH1 0x0 DUP1 REVERT JUMPDEST POP DUP2 CALLDATALOAD PUSH1 0x1 PUSH1 0x1 PUSH1 0x40 SHL SUB DUP2 GT ISZERO PUSH2 0x477C JUMPI PUSH1 0x0 DUP1 REVERT JUMPDEST PUSH1 0x20 DUP4 ADD SWAP2 POP DUP4 PUSH1 0x20 DUP3 PUSH1 0x5 SHL DUP6 ADD ADD GT ISZERO PUSH2 0x43DB JUMPI PUSH1 0x0 DUP1 REVERT JUMPDEST PUSH1 0x0 DUP1 PUSH1 0x0 DUP1 PUSH1 0x0 DUP1 PUSH1 0x80 DUP8 DUP10 SUB SLT ISZERO PUSH2 0x47B0 JUMPI PUSH1 0x0 DUP1 REVERT JUMPDEST PUSH2 0x47B9 DUP8 PUSH2 0x4354 JUMP JUMPDEST SWAP6 POP PUSH1 0x20 DUP8 ADD CALLDATALOAD PUSH1 0x1 PUSH1 0x1 PUSH1 0x40 SHL SUB DUP1 DUP3 GT ISZERO PUSH2 0x47D5 JUMPI PUSH1 0x0 DUP1 REVERT JUMPDEST PUSH2 0x47E1 DUP11 DUP4 DUP12 ADD PUSH2 0x4753 JUMP JUMPDEST SWAP1 SWAP8 POP SWAP6 POP PUSH1 0x40 DUP10 ADD CALLDATALOAD SWAP2 POP DUP1 DUP3 GT ISZERO PUSH2 0x47FA JUMPI PUSH1 0x0 DUP1 REVERT JUMPDEST POP PUSH2 0x444B DUP10 DUP3 DUP11 ADD PUSH2 0x4753 JUMP JUMPDEST PUSH1 0x0 DUP1 PUSH1 0x20 DUP4 DUP6 SUB SLT ISZERO PUSH2 0x481A JUMPI PUSH1 0x0 DUP1 REVERT JUMPDEST DUP3 CALLDATALOAD PUSH1 0x1 PUSH1 0x1 PUSH1 0x40 SHL SUB DUP2 GT ISZERO PUSH2 0x4830 JUMPI PUSH1 0x0 DUP1 REVERT JUMPDEST PUSH2 0x483C DUP6 DUP3 DUP7 ADD PUSH2 0x439A JUMP JUMPDEST SWAP1 SWAP7 SWAP1 SWAP6 POP SWAP4 POP POP POP POP JUMP JUMPDEST PUSH1 0x1 PUSH1 0x1 PUSH1 0xA0 SHL SUB DUP4 AND DUP2 MSTORE PUSH1 0x40 PUSH1 0x20 DUP3 ADD DUP2 SWAP1 MSTORE PUSH1 0x0 SWAP1 PUSH2 0x3D4A SWAP1 DUP4 ADD DUP5 PUSH2 0x4589 JUMP JUMPDEST PUSH4 0x4E487B71 PUSH1 0xE0 SHL PUSH1 0x0 MSTORE PUSH1 0x21 PUSH1 0x4 MSTORE PUSH1 0x24 PUSH1 0x0 REVERT JUMPDEST PUSH1 0x7 DUP2 LT PUSH2 0x48A0 JUMPI PUSH4 0x4E487B71 PUSH1 0xE0 SHL PUSH1 0x0 MSTORE PUSH1 0x21 PUSH1 0x4 MSTORE PUSH1 0x24 PUSH1 0x0 REVERT JUMPDEST SWAP1 MSTORE JUMP JUMPDEST PUSH1 0x0 PUSH1 0x20 DUP1 DUP4 ADD DUP2 DUP5 MSTORE DUP1 DUP6 MLOAD DUP1 DUP4 MSTORE PUSH1 0x40 SWAP3 POP DUP3 DUP7 ADD SWAP2 POP DUP3 DUP2 PUSH1 0x5 SHL DUP8 ADD ADD DUP5 DUP9 ADD PUSH1 0x0 JUMPDEST DUP4 DUP2 LT ISZERO PUSH2 0x49D7 JUMPI PUSH1 0x3F NOT DUP10 DUP5 SUB ADD DUP6 MSTORE DUP2 MLOAD DUP1 MLOAD DUP5 MSTORE DUP8 DUP2 ADD MLOAD PUSH1 0x1 PUSH1 0x1 PUSH1 0xA0 SHL SUB SWAP1 DUP2 AND DUP10 DUP7 ADD MSTORE DUP8 DUP3 ADD MLOAD DUP2 AND DUP9 DUP7 ADD MSTORE PUSH1 0x60 DUP1 DUP4 ADD MLOAD SWAP1 SWAP2 AND SWAP1 DUP6 ADD MSTORE PUSH1 0x80 DUP1 DUP3 ADD MLOAD PUSH2 0x1E0 DUP3 DUP8 ADD DUP2 SWAP1 MSTORE SWAP2 SWAP1 PUSH2 0x4929 DUP4 DUP9 ADD DUP3 PUSH2 0x46F3 JUMP JUMPDEST SWAP3 POP POP POP PUSH1 0xA0 DUP1 DUP4 ADD MLOAD DUP7 DUP4 SUB DUP3 DUP9 ADD MSTORE PUSH2 0x4944 DUP4 DUP3 PUSH2 0x46F3 JUMP JUMPDEST SWAP3 POP POP POP PUSH1 0xC0 DUP1 DUP4 ADD MLOAD DUP2 DUP8 ADD MSTORE POP PUSH1 0xE0 DUP1 DUP4 ADD MLOAD DUP2 DUP8 ADD MSTORE POP PUSH2 0x100 DUP1 DUP4 ADD MLOAD DUP7 DUP4 SUB DUP3 DUP9 ADD MSTORE PUSH2 0x4976 DUP4 DUP3 PUSH2 0x4589 JUMP JUMPDEST SWAP3 POP POP POP PUSH2 0x120 DUP1 DUP4 ADD MLOAD PUSH2 0x498D DUP3 DUP9 ADD DUP3 PUSH2 0x4882 JUMP JUMPDEST POP POP PUSH2 0x140 DUP3 DUP2 ADD MLOAD SWAP1 DUP7 ADD MSTORE PUSH2 0x160 DUP1 DUP4 ADD MLOAD SWAP1 DUP7 ADD MSTORE PUSH2 0x180 DUP1 DUP4 ADD MLOAD SWAP1 DUP7 ADD MSTORE PUSH2 0x1A0 DUP1 DUP4 ADD MLOAD SWAP1 DUP7 ADD MSTORE PUSH2 0x1C0 SWAP2 DUP3 ADD MLOAD SWAP2 SWAP1 SWAP5 ADD MSTORE SWAP4 DUP7 ADD SWAP4 SWAP1 DUP7 ADD SWAP1 PUSH1 0x1 ADD PUSH2 0x48CB JUMP JUMPDEST POP SWAP1 SWAP9 SWAP8 POP POP POP POP POP POP POP POP JUMP JUMPDEST PUSH1 0x0 DUP1 PUSH1 0x0 DUP1 PUSH1 0x0 PUSH1 0x60 DUP7 DUP9 SUB SLT ISZERO PUSH2 0x49FD JUMPI PUSH1 0x0 DUP1 REVERT JUMPDEST DUP6 CALLDATALOAD PUSH1 0x1 PUSH1 0x1 PUSH1 0x40 SHL SUB DUP1 DUP3 GT ISZERO PUSH2 0x4A14 JUMPI PUSH1 0x0 DUP1 REVERT JUMPDEST PUSH2 0x4A20 DUP10 DUP4 DUP11 ADD PUSH2 0x439A JUMP JUMPDEST SWAP1 SWAP8 POP SWAP6 POP PUSH1 0x20 DUP9 ADD CALLDATALOAD SWAP2 POP DUP1 DUP3 GT ISZERO PUSH2 0x4A39 JUMPI PUSH1 0x0 DUP1 REVERT JUMPDEST POP PUSH2 0x4A46 DUP9 DUP3 DUP10 ADD PUSH2 0x439A JUMP JUMPDEST SWAP7 SWAP10 SWAP6 SWAP9 POP SWAP7 PUSH1 0x40 ADD CALLDATALOAD SWAP5 SWAP4 POP POP POP POP JUMP JUMPDEST PUSH1 0x20 DUP2 MSTORE PUSH1 0x0 PUSH2 0x44D0 PUSH1 0x20 DUP4 ADD DUP5 PUSH2 0x4646 JUMP JUMPDEST PUSH1 0x0 PUSH1 0x20 DUP1 DUP4 ADD DUP2 DUP5 MSTORE DUP1 DUP6 MLOAD DUP1 DUP4 MSTORE PUSH1 0x40 SWAP3 POP DUP3 DUP7 ADD SWAP2 POP DUP3 DUP2 PUSH1 0x5 SHL DUP8 ADD ADD DUP5 DUP9 ADD PUSH1 0x0 JUMPDEST DUP4 DUP2 LT ISZERO PUSH2 0x49D7 JUMPI DUP9 DUP4 SUB PUSH1 0x3F NOT ADD DUP6 MSTORE DUP2 MLOAD DUP1 MLOAD PUSH1 0x1 PUSH1 0x1 PUSH1 0xA0 SHL SUB AND DUP5 MSTORE DUP8 DUP2 ADD MLOAD PUSH1 0xA0 DUP10 DUP7 ADD DUP2 SWAP1 MSTORE SWAP1 PUSH2 0x4ACB DUP3 DUP8 ADD DUP3 PUSH2 0x4589 JUMP JUMPDEST SWAP2 POP POP DUP8 DUP3 ADD MLOAD DUP6 DUP3 SUB DUP10 DUP8 ADD MSTORE PUSH2 0x4AE3 DUP3 DUP3 PUSH2 0x4589 JUMP JUMPDEST SWAP2 POP POP PUSH1 0x60 DUP1 DUP4 ADD MLOAD DUP7 DUP4 SUB DUP3 DUP9 ADD MSTORE PUSH2 0x4AFD DUP4 DUP3 PUSH2 0x4589 JUMP JUMPDEST SWAP3 POP POP POP PUSH1 0x80 DUP1 DUP4 ADD MLOAD SWAP3 POP DUP6 DUP3 SUB DUP2 DUP8 ADD MSTORE POP PUSH2 0x4B1B DUP2 DUP4 PUSH2 0x46A1 JUMP JUMPDEST SWAP7 DUP10 ADD SWAP7 SWAP5 POP POP POP SWAP1 DUP7 ADD SWAP1 PUSH1 0x1 ADD PUSH2 0x4A92 JUMP JUMPDEST PUSH1 0x0 PUSH1 0x20 DUP3 DUP5 SUB SLT ISZERO PUSH2 0x4B41 JUMPI PUSH1 0x0 DUP1 REVERT JUMPDEST DUP2 CALLDATALOAD PUSH1 0x7 DUP2 LT PUSH2 0x44D0 JUMPI PUSH1 0x0 DUP1 REVERT JUMPDEST PUSH1 0x20 DUP2 MSTORE DUP2 MLOAD PUSH1 0x20 DUP3 ADD MSTORE PUSH1 0x20 DUP3 ADD MLOAD PUSH1 0x40 DUP3 ADD MSTORE PUSH1 0x0 PUSH1 0x40 DUP4 ADD MLOAD PUSH1 0x60 DUP1 DUP5 ADD MSTORE PUSH2 0x3D4A PUSH1 0x80 DUP5 ADD DUP3 PUSH2 0x4589 JUMP JUMPDEST DUP14 DUP2 MSTORE PUSH1 0x1 PUSH1 0x1 PUSH1 0xA0 SHL SUB DUP14 DUP2 AND PUSH1 0x20 DUP4 ADD MSTORE DUP13 DUP2 AND PUSH1 0x40 DUP4 ADD MSTORE DUP12 AND PUSH1 0x60 DUP3 ADD MSTORE PUSH1 0x80 DUP2 ADD DUP11 SWAP1 MSTORE PUSH1 0xA0 DUP2 ADD DUP10 SWAP1 MSTORE PUSH2 0x1A0 PUSH1 0xC0 DUP3 ADD DUP2 SWAP1 MSTORE PUSH1 0x0 SWAP1 PUSH2 0x4BC8 SWAP1 DUP4 ADD DUP11 PUSH2 0x4589 JUMP JUMPDEST SWAP1 POP PUSH2 0x4BD7 PUSH1 0xE0 DUP4 ADD DUP10 PUSH2 0x4882 JUMP JUMPDEST PUSH2 0x100 DUP3 ADD SWAP7 SWAP1 SWAP7 MSTORE PUSH2 0x120 DUP2 ADD SWAP5 SWAP1 SWAP5 MSTORE PUSH2 0x140 DUP5 ADD SWAP3 SWAP1 SWAP3 MSTORE PUSH2 0x160 DUP4 ADD MSTORE PUSH2 0x180 SWAP1 SWAP2 ADD MSTORE SWAP9 SWAP8 POP POP POP POP POP POP POP POP JUMP JUMPDEST PUSH1 0x0 DUP1 PUSH1 0x0 DUP1 PUSH1 0x0 DUP1 PUSH1 0x0 DUP1 PUSH1 0xA0 DUP10 DUP12 SUB SLT ISZERO PUSH2 0x4C27 JUMPI PUSH1 0x0 DUP1 REVERT JUMPDEST PUSH2 0x4C30 DUP10 PUSH2 0x4354 JUMP JUMPDEST SWAP8 POP PUSH1 0x20 DUP10 ADD CALLDATALOAD PUSH1 0x1 PUSH1 0x1 PUSH1 0x40 SHL SUB DUP1 DUP3 GT ISZERO PUSH2 0x4C4C JUMPI PUSH1 0x0 DUP1 REVERT JUMPDEST PUSH2 0x4C58 DUP13 DUP4 DUP14 ADD PUSH2 0x4753 JUMP JUMPDEST SWAP1 SWAP10 POP SWAP8 POP PUSH1 0x40 DUP12 ADD CALLDATALOAD SWAP2 POP DUP1 DUP3 GT ISZERO PUSH2 0x4C71 JUMPI PUSH1 0x0 DUP1 REVERT JUMPDEST PUSH2 0x4C7D DUP13 DUP4 DUP14 ADD PUSH2 0x4753 JUMP JUMPDEST SWAP1 SWAP8 POP SWAP6 POP PUSH1 0x60 DUP12 ADD CALLDATALOAD SWAP5 POP PUSH1 0x80 DUP12 ADD CALLDATALOAD SWAP2 POP DUP1 DUP3 GT ISZERO PUSH2 0x4C9D JUMPI PUSH1 0x0 DUP1 REVERT JUMPDEST POP PUSH2 0x4CAA DUP12 DUP3 DUP13 ADD PUSH2 0x439A JUMP JUMPDEST SWAP10 SWAP13 SWAP9 SWAP12 POP SWAP7 SWAP10 POP SWAP5 SWAP8 SWAP4 SWAP7 SWAP3 SWAP6 SWAP5 POP POP POP JUMP JUMPDEST DUP4 DUP2 MSTORE DUP3 PUSH1 0x20 DUP3 ADD MSTORE PUSH1 0x60 PUSH1 0x40 DUP3 ADD MSTORE PUSH1 0x0 PUSH2 0xEE7 PUSH1 0x60 DUP4 ADD DUP5 PUSH2 0x4589 JUMP JUMPDEST PUSH4 0x4E487B71 PUSH1 0xE0 SHL PUSH1 0x0 MSTORE PUSH1 0x32 PUSH1 0x4 MSTORE PUSH1 0x24 PUSH1 0x0 REVERT JUMPDEST PUSH4 0x4E487B71 PUSH1 0xE0 SHL PUSH1 0x0 MSTORE PUSH1 0x41 PUSH1 0x4 MSTORE PUSH1 0x24 PUSH1 0x0 REVERT JUMPDEST PUSH1 0x1 DUP2 DUP2 SHR SWAP1 DUP3 AND DUP1 PUSH2 0x4D1D JUMPI PUSH1 0x7F DUP3 AND SWAP2 POP JUMPDEST PUSH1 0x20 DUP3 LT DUP2 SUB PUSH2 0x2B3E JUMPI PUSH4 0x4E487B71 PUSH1 0xE0 SHL PUSH1 0x0 MSTORE PUSH1 0x22 PUSH1 0x4 MSTORE PUSH1 0x24 PUSH1 0x0 REVERT JUMPDEST PUSH1 0x1F DUP3 GT ISZERO PUSH2 0x11DB JUMPI PUSH1 0x0 DUP2 DUP2 MSTORE PUSH1 0x20 DUP2 KECCAK256 PUSH1 0x1F DUP6 ADD PUSH1 0x5 SHR DUP2 ADD PUSH1 0x20 DUP7 LT ISZERO PUSH2 0x4D64 JUMPI POP DUP1 JUMPDEST PUSH1 0x1F DUP6 ADD PUSH1 0x5 SHR DUP3 ADD SWAP2 POP JUMPDEST DUP2 DUP2 LT ISZERO PUSH2 0x4D83 JUMPI DUP3 DUP2 SSTORE PUSH1 0x1 ADD PUSH2 0x4D70 JUMP JUMPDEST POP POP POP POP POP POP JUMP JUMPDEST DUP2 MLOAD PUSH1 0x1 PUSH1 0x1 PUSH1 0x40 SHL SUB DUP2 GT ISZERO PUSH2 0x4DA4 JUMPI PUSH2 0x4DA4 PUSH2 0x4CF3 JUMP JUMPDEST PUSH2 0x4DB8 DUP2 PUSH2 0x4DB2 DUP5 SLOAD PUSH2 0x4D09 JUMP JUMPDEST DUP5 PUSH2 0x4D3D JUMP JUMPDEST PUSH1 0x20 DUP1 PUSH1 0x1F DUP4 GT PUSH1 0x1 DUP2 EQ PUSH2 0x4DED JUMPI PUSH1 0x0 DUP5 ISZERO PUSH2 0x4DD5 JUMPI POP DUP6 DUP4 ADD MLOAD JUMPDEST PUSH1 0x0 NOT PUSH1 0x3 DUP7 SWAP1 SHL SHR NOT AND PUSH1 0x1 DUP6 SWAP1 SHL OR DUP6 SSTORE PUSH2 0x4D83 JUMP JUMPDEST PUSH1 0x0 DUP6 DUP2 MSTORE PUSH1 0x20 DUP2 KECCAK256 PUSH1 0x1F NOT DUP7 AND SWAP2 JUMPDEST DUP3 DUP2 LT ISZERO PUSH2 0x4E1C JUMPI DUP9 DUP7 ADD MLOAD DUP3 SSTORE SWAP5 DUP5 ADD SWAP5 PUSH1 0x1 SWAP1 SWAP2 ADD SWAP1 DUP5 ADD PUSH2 0x4DFD JUMP JUMPDEST POP DUP6 DUP3 LT ISZERO PUSH2 0x4E3A JUMPI DUP8 DUP6 ADD MLOAD PUSH1 0x0 NOT PUSH1 0x3 DUP9 SWAP1 SHL PUSH1 0xF8 AND SHR NOT AND DUP2 SSTORE JUMPDEST POP POP POP POP POP PUSH1 0x1 SWAP1 DUP2 SHL ADD SWAP1 SSTORE POP JUMP JUMPDEST PUSH1 0x20 DUP1 DUP3 MSTORE PUSH1 0x22 SWAP1 DUP3 ADD MSTORE PUSH32 0x4F72646572207769746820676976656E20696420646F6573206E6F7420657869 PUSH1 0x40 DUP3 ADD MSTORE PUSH2 0x1CDD PUSH1 0xF2 SHL PUSH1 0x60 DUP3 ADD MSTORE PUSH1 0x80 ADD SWAP1 JUMP JUMPDEST PUSH1 0x1 PUSH1 0x1 PUSH1 0x40 SHL SUB DUP4 GT ISZERO PUSH2 0x4EA3 JUMPI PUSH2 0x4EA3 PUSH2 0x4CF3 JUMP JUMPDEST PUSH2 0x4EB7 DUP4 PUSH2 0x4EB1 DUP4 SLOAD PUSH2 0x4D09 JUMP JUMPDEST DUP4 PUSH2 0x4D3D JUMP JUMPDEST PUSH1 0x0 PUSH1 0x1F DUP5 GT PUSH1 0x1 DUP2 EQ PUSH2 0x4EEB JUMPI PUSH1 0x0 DUP6 ISZERO PUSH2 0x4ED3 JUMPI POP DUP4 DUP3 ADD CALLDATALOAD JUMPDEST PUSH1 0x0 NOT PUSH1 0x3 DUP8 SWAP1 SHL SHR NOT AND PUSH1 0x1 DUP7 SWAP1 SHL OR DUP4 SSTORE PUSH2 0x4F45 JUMP JUMPDEST PUSH1 0x0 DUP4 DUP2 MSTORE PUSH1 0x20 SWAP1 KECCAK256 PUSH1 0x1F NOT DUP7 AND SWAP1 DUP4 JUMPDEST DUP3 DUP2 LT ISZERO PUSH2 0x4F1C JUMPI DUP7 DUP6 ADD CALLDATALOAD DUP3 SSTORE PUSH1 0x20 SWAP5 DUP6 ADD SWAP5 PUSH1 0x1 SWAP1 SWAP3 ADD SWAP2 ADD PUSH2 0x4EFC JUMP JUMPDEST POP DUP7 DUP3 LT ISZERO PUSH2 0x4F39 JUMPI PUSH1 0x0 NOT PUSH1 0xF8 DUP9 PUSH1 0x3 SHL AND SHR NOT DUP5 DUP8 ADD CALLDATALOAD AND DUP2 SSTORE JUMPDEST POP POP PUSH1 0x1 DUP6 PUSH1 0x1 SHL ADD DUP4 SSTORE JUMPDEST POP POP POP POP POP JUMP JUMPDEST DUP1 MLOAD PUSH10 0xFFFFFFFFFFFFFFFFFFFF DUP2 AND DUP2 EQ PUSH2 0x436B JUMPI PUSH1 0x0 DUP1 REVERT JUMPDEST PUSH1 0x0 DUP1 PUSH1 0x0 DUP1 PUSH1 0x0 PUSH1 0xA0 DUP7 DUP9 SUB SLT ISZERO PUSH2 0x4F7E JUMPI PUSH1 0x0 DUP1 REVERT JUMPDEST PUSH2 0x4F87 DUP7 PUSH2 0x4F4C JUMP JUMPDEST SWAP5 POP PUSH1 0x20 DUP7 ADD MLOAD SWAP4 POP PUSH1 0x40 DUP7 ADD MLOAD SWAP3 POP PUSH1 0x60 DUP7 ADD MLOAD SWAP2 POP PUSH2 0x4FAA PUSH1 0x80 DUP8 ADD PUSH2 0x4F4C JUMP JUMPDEST SWAP1 POP SWAP3 SWAP6 POP SWAP3 SWAP6 SWAP1 SWAP4 POP JUMP JUMPDEST PUSH1 0x0 PUSH1 0x20 DUP3 DUP5 SUB SLT ISZERO PUSH2 0x4FC8 JUMPI PUSH1 0x0 DUP1 REVERT JUMPDEST DUP2 MLOAD PUSH1 0xFF DUP2 AND DUP2 EQ PUSH2 0x44D0 JUMPI PUSH1 0x0 DUP1 REVERT JUMPDEST PUSH4 0x4E487B71 PUSH1 0xE0 SHL PUSH1 0x0 MSTORE PUSH1 0x11 PUSH1 0x4 MSTORE PUSH1 0x24 PUSH1 0x0 REVERT JUMPDEST PUSH1 0xFF DUP2 DUP2 AND DUP4 DUP3 AND ADD SWAP1 DUP2 GT ISZERO PUSH2 0x2337 JUMPI PUSH2 0x2337 PUSH2 0x4FD9 JUMP JUMPDEST PUSH1 0x1 DUP2 DUP2 JUMPDEST DUP1 DUP6 GT ISZERO PUSH2 0x5043 JUMPI DUP2 PUSH1 0x0 NOT DIV DUP3 GT ISZERO PUSH2 0x5029 JUMPI PUSH2 0x5029 PUSH2 0x4FD9 JUMP JUMPDEST DUP1 DUP6 AND ISZERO PUSH2 0x5036 JUMPI SWAP2 DUP2 MUL SWAP2 JUMPDEST SWAP4 DUP5 SHR SWAP4 SWAP1 DUP1 MUL SWAP1 PUSH2 0x500D JUMP JUMPDEST POP SWAP3 POP SWAP3 SWAP1 POP JUMP JUMPDEST PUSH1 0x0 DUP3 PUSH2 0x505A JUMPI POP PUSH1 0x1 PUSH2 0x2337 JUMP JUMPDEST DUP2 PUSH2 0x5067 JUMPI POP PUSH1 0x0 PUSH2 0x2337 JUMP JUMPDEST DUP2 PUSH1 0x1 DUP2 EQ PUSH2 0x507D JUMPI PUSH1 0x2 DUP2 EQ PUSH2 0x5087 JUMPI PUSH2 0x50A3 JUMP JUMPDEST PUSH1 0x1 SWAP2 POP POP PUSH2 0x2337 JUMP JUMPDEST PUSH1 0xFF DUP5 GT ISZERO PUSH2 0x5098 JUMPI PUSH2 0x5098 PUSH2 0x4FD9 JUMP JUMPDEST POP POP PUSH1 0x1 DUP3 SHL PUSH2 0x2337 JUMP JUMPDEST POP PUSH1 0x20 DUP4 LT PUSH2 0x133 DUP4 LT AND PUSH1 0x4E DUP5 LT PUSH1 0xB DUP5 LT AND OR ISZERO PUSH2 0x50C6 JUMPI POP DUP2 DUP2 EXP PUSH2 0x2337 JUMP JUMPDEST PUSH2 0x50D0 DUP4 DUP4 PUSH2 0x5008 JUMP JUMPDEST DUP1 PUSH1 0x0 NOT DIV DUP3 GT ISZERO PUSH2 0x50E4 JUMPI PUSH2 0x50E4 PUSH2 0x4FD9 JUMP JUMPDEST MUL SWAP4 SWAP3 POP POP POP JUMP JUMPDEST PUSH1 0x0 PUSH2 0x44D0 PUSH1 0xFF DUP5 AND DUP4 PUSH2 0x504B JUMP JUMPDEST DUP1 DUP3 MUL DUP2 ISZERO DUP3 DUP3 DIV DUP5 EQ OR PUSH2 0x2337 JUMPI PUSH2 0x2337 PUSH2 0x4FD9 JUMP JUMPDEST PUSH1 0x0 DUP3 PUSH2 0x512F JUMPI PUSH4 0x4E487B71 PUSH1 0xE0 SHL PUSH1 0x0 MSTORE PUSH1 0x12 PUSH1 0x4 MSTORE PUSH1 0x24 PUSH1 0x0 REVERT JUMPDEST POP DIV SWAP1 JUMP JUMPDEST PUSH1 0x0 PUSH1 0x1 DUP3 ADD PUSH2 0x5146 JUMPI PUSH2 0x5146 PUSH2 0x4FD9 JUMP JUMPDEST POP PUSH1 0x1 ADD SWAP1 JUMP JUMPDEST DUP1 DUP3 ADD DUP1 DUP3 GT ISZERO PUSH2 0x2337 JUMPI PUSH2 0x2337 PUSH2 0x4FD9 JUMP JUMPDEST PUSH1 0x20 DUP1 DUP3 MSTORE PUSH1 0x17 SWAP1 DUP3 ADD MSTORE PUSH32 0x4661696C656420746F20726566756E6420636C69656E74000000000000000000 PUSH1 0x40 DUP3 ADD MSTORE PUSH1 0x60 ADD SWAP1 JUMP JUMPDEST DUP2 DUP2 SUB DUP2 DUP2 GT ISZERO PUSH2 0x2337 JUMPI PUSH2 0x2337 PUSH2 0x4FD9 JUMP JUMPDEST PUSH4 0x4E487B71 PUSH1 0xE0 SHL PUSH1 0x0 MSTORE PUSH1 0x31 PUSH1 0x4 MSTORE PUSH1 0x24 PUSH1 0x0 REVERT INVALID LOG2 PUSH5 0x6970667358 0x22 SLT KECCAK256 PUSH25 0xBFC1252131D6E422491E0B1A830CB931CB7A1A7DC80E63CA1A PUSH21 0xDB2019205364736F6C634300081100330000000000 ","sha1":"481653604c71fab166eb16044b602ba02306cb8e","source":"// SPDX-License-Identifier: MIT\n\npragma solidity ^0.8.13;\n\nimport \"@chainlink/contracts/src/v0.8/interfaces/AggregatorV3Interface.sol\";\n\ncontract FoodDelivery {\n    struct Item{\n        uint256 id;\n        string name;\n        string description;\n        uint256 price;          // price in USD\n        bool available;\n    }\n\n    struct Restaurant{\n        address addr;\n        string name;\n        string description;\n        string physicalAddress;\n        Item[] items;\n    }\n\n    struct Client {\n        address addr;\n        string name;\n    }\n\n    enum OrderStatus {\n        PENDING,                // order submitted by client, but before the restaurant accepts the order\n        WAITING_COURIER,        // order ready for courier (after being accepted by restaurant)\n        ASSIGNED_COURIER,       // order accepted by a courier\n        READY_TO_DELIVER,       // order finished by restaurant, ready to deliver\n        DELIVERING,             // order being delivered by the courier\n        DELIVERED,              // order delivered, confirmed by client\n        CANCELLED               // order was cancelled\n    }\n\n    struct Order {\n        uint256 id;\n        address restaurantAddr;\n        address clientAddr;\n        address courierAddr;\n        uint256[] itemIndices;\n        uint256[] quantities;\n        uint256 deliveryFee;        // delivery fee is in GWei\n        uint256 totalPrice;         // total price is in GWei\n        string deliveryAddress;\n        OrderStatus status;\n        uint256 maxPreparationTime;     // in seconds\n        uint256 maxDeliveryTime;        // in seconds\n        uint256 preparationStartTime;   // timestamp\n        uint256 deliveryStartTime;      // timestamp\n        uint256 refundAmount;           // amount to refund if thresholds exceeded\n    }\n\n    struct Review {\n        uint256 orderId;\n        uint256 rating;\n        string comment;\n    }\n\n    mapping(address => Restaurant) public restaurants;\n    mapping(address => Client) public clients;\n    mapping(address => uint256[]) public clientsToOrdersMapping;\n    mapping(uint256 => Review) public reviews;\n    mapping(address => uint256[]) public restaurantToOrdersIds;\n    mapping(address => uint256[]) public couriersToOrdersMapping;\n    uint256[] public ordersWaitingForCourier;\n    Order[] public orders;\n    address[] public restaurantsAddr;\n    address[] public clientsAddr;\n    uint256 numberOfOrders = 0;\n    AggregatorV3Interface public ethUsdPriceFeed;\n\n    constructor (address priceFeedAddress) {\n        ethUsdPriceFeed = AggregatorV3Interface(priceFeedAddress);\n    }\n\n    function getAllRestaurants() public view returns (Restaurant[] memory) {\n        Restaurant[] memory allRestaurants = new Restaurant[](restaurantsAddr.length);\n\n        for (uint256 i = 0; i < restaurantsAddr.length; i++) {\n            address restaurantAddress = restaurantsAddr[i];\n            Restaurant storage restaurant = restaurants[restaurantAddress];\n            allRestaurants[i] = restaurant;\n        }\n\n        return allRestaurants;\n    }\n\n    function getAllOrdersForClient(address clientAddr) public view returns (Order[] memory) {\n        uint256[] memory clientOrderIds = clientsToOrdersMapping[clientAddr];\n        Order[] memory clientOrders = new Order[](clientOrderIds.length);\n\n        for (uint256 i = 0; i < clientOrderIds.length; i++) {\n            uint256 orderId = clientOrderIds[i];\n            clientOrders[i] = orders[orderId];\n        }\n\n        return clientOrders;\n    }\n\n    function getAllOrdersForRestaurant(address restaurantAddr) public view returns (Order[] memory) {\n        uint256[] memory restaurantOrderIds = restaurantToOrdersIds[restaurantAddr];\n        Order[] memory restaurantOrders = new Order[](restaurantOrderIds.length);\n\n        for (uint256 i = 0; i < restaurantOrderIds.length; i++) {\n            uint256 orderId = restaurantOrderIds[i];\n            restaurantOrders[i] = orders[orderId];\n        }\n\n        return restaurantOrders;\n    }\n\n    function getOrdersForCouriers(address courierAddr) public view returns (Order[] memory) {\n        uint256[] memory courierOrderIds = couriersToOrdersMapping[courierAddr];\n        Order[] memory courierOrders = new Order[](courierOrderIds.length);\n\n        for (uint256 i = 0; i < courierOrderIds.length; i++) {\n            uint256 orderId = courierOrderIds[i];\n            courierOrders[i] = orders[orderId];\n        }\n\n        return courierOrders;\n    }\n\n    function getNumberOfItemsInMenu(address restaurant) public view returns(uint) {\n        return restaurants[restaurant].items.length;\n    }\n\n    function getMenuEntryAtIndex(address restaurant, uint index) public view returns(Item memory) {\n        return restaurants[restaurant].items[index];\n    }\n\n    function getNumberOfRestaurants() public view returns(uint) {\n        return restaurantsAddr.length;\n    }\n\n    function getNumberOfClients() public view returns(uint) {\n        return clientsAddr.length;\n    }\n\n    function getNumberOfOrderForClient(address client) public view returns(uint) {\n        return clientsToOrdersMapping[client].length;\n    }\n\n    function getNumberOfOrderForRestaurant(address restaurant) public view returns(uint) {\n        return restaurantToOrdersIds[restaurant].length;\n    }\n\n    function getNumberOfOrdersForCourier(address courier) public view returns(uint) {\n        return couriersToOrdersMapping[courier].length;\n    }\n\n    function getOrdersByStatus(OrderStatus status) public view returns (Order[] memory) {\n        uint256 numberOfOrdersWithStatus = 0;\n        for (uint256 i = 0; i < orders.length; i++) {\n            if (orders[i].status == status) {\n                numberOfOrdersWithStatus++;\n            }\n        }\n        Order[] memory ordersWithStatus = new Order[](numberOfOrdersWithStatus);\n        uint256 currentIndex = 0;\n        for (uint256 i = 0; i < orders.length; i++) {\n            if (orders[i].status == status) {\n                ordersWithStatus[currentIndex] = orders[i];\n                currentIndex++;\n            }\n        }\n        return ordersWithStatus;\n    }\n\n    function getNumberOfOrdersWaitingForCourier() public view returns (uint256) {\n        return ordersWaitingForCourier.length;\n    }\n\n    // Gets the price in GWei\n    function getPriceInEth(uint256 usdPrice) public view returns (uint256) {\n        (,int256 price,,, ) = ethUsdPriceFeed.latestRoundData();\n        uint8 decimals = ethUsdPriceFeed.decimals();\n        uint256 cost = (usdPrice * 10 ** (decimals + 18)) / (uint256(price));\n        return cost;\n    }\n\n    function getOrderItemsAndQuantities(uint256 orderId) public view returns (Item[] memory, uint256[] memory) {\n        Order storage order = orders[orderId];\n        require(order.id == orderId, \"Order with given id does not exist\");\n\n        // Get the restaurant for this order\n        Restaurant storage restaurant = restaurants[order.restaurantAddr];\n\n        // Initialize an array to store the ordered items\n        Item[] memory orderedItems = new Item[](order.itemIndices.length);\n\n        // Loop through the itemIndices array in the order and populate the orderedItems array\n        for (uint256 i = 0; i < order.itemIndices.length; i++) {\n            uint256 itemIndex = order.itemIndices[i];\n            orderedItems[i] = restaurant.items[itemIndex];\n        }\n\n        // Return both ordered items and their corresponding quantities\n        return (orderedItems, order.quantities);\n    }\n\n    function registerRestaurant(string calldata name, string calldata description, string calldata physicalAddress) public {\n        Restaurant storage restaurant = restaurants[msg.sender];\n        restaurant.addr = msg.sender;\n        restaurant.name = name;\n        restaurant.description = description;\n        restaurant.physicalAddress = physicalAddress;\n        restaurantsAddr.push(msg.sender);\n    }\n\n    function registerClient(string calldata name) public {\n        Client storage client = clients[msg.sender];\n        client.addr = msg.sender;\n        client.name = name;\n        clientsAddr.push(msg.sender);\n    }\n\n    function addItem(string calldata name, string calldata description, uint256 price) public returns(uint256) {\n        Restaurant storage restaurant = restaurants[msg.sender];\n        uint256 id = restaurant.items.length;\n        restaurant.items.push(Item({\n            id: id,\n            name: name,\n            description: description,\n            price: price,\n            available: true\n        }));\n\n        return id;\n    }\n\n    function updateItem(uint256 id, string calldata name, string calldata description, uint256 price) public returns(uint256) {\n        Restaurant storage restaurant = restaurants[msg.sender];\n        restaurant.items[id] = Item({\n            id: id,\n            name: name,\n            description: description,\n            price: price,\n            available: true\n        });\n\n        return id;\n    }\n\n    function enableItem(uint256 itemId) public {\n        Restaurant storage restaurant = restaurants[msg.sender];\n        restaurant.items[itemId].available = true;\n    }\n\n    function disableItem(uint256 itemId) public {\n        Restaurant storage restaurant = restaurants[msg.sender];\n        restaurant.items[itemId].available = false;\n    }\n\n    function getWeiPriceForOrder(address restaurantAddr, uint256[] calldata itemIds, uint256[] calldata quantities, uint256 deliveryFee) public view returns(uint256, uint256) {\n        Restaurant storage restaurant = restaurants[restaurantAddr];\n\n        uint256 totalPrice = 0;\n        for (uint256 i = 0; i < itemIds.length; i++) {\n            require(itemIds[i] < restaurant.items.length, \"Invalid item ID\");\n            Item storage item = restaurant.items[itemIds[i]];\n            totalPrice += getPriceInEth(item.price) * quantities[i];\n        }\n\n        uint256 ethDeliveryFee = getPriceInEth(deliveryFee);\n        return (totalPrice, ethDeliveryFee);\n    }\n\n    function placeOrder(address restaurantAddr, uint256[] calldata itemIds, uint256[] calldata quantities, uint256 deliveryFee, string calldata deliveryAddress) public payable {\n        Restaurant storage restaurant = restaurants[restaurantAddr];\n        require(restaurant.addr != address(0), \"Invalid restaurant address\");\n\n        for (uint i = 0; i < itemIds.length; ++i) {\n            require(restaurant.items[itemIds[i]].available == true, \"Order contains unavailable items...\");\n        }\n\n        (uint256 totalPrice, uint256 ethDeliveryFee) = getWeiPriceForOrder(restaurantAddr, itemIds, quantities, deliveryFee);\n        require(msg.value >= totalPrice + ethDeliveryFee, \"Incorrect amount paid\");\n\n        uint256 id = orders.length;\n\n        orders.push(Order({\n            id: id,\n            restaurantAddr: restaurantAddr,\n            clientAddr: msg.sender,\n            courierAddr: address(0),\n            itemIndices: itemIds,\n            quantities: quantities,\n            deliveryFee: ethDeliveryFee,\n            totalPrice: totalPrice,\n            deliveryAddress: deliveryAddress,\n            status: OrderStatus.PENDING,\n            maxPreparationTime: 0,\n            maxDeliveryTime: 0,\n            preparationStartTime: 0,\n            deliveryStartTime: 0,\n            refundAmount: 0\n        }));\n        clientsToOrdersMapping[msg.sender].push(id);\n        restaurantToOrdersIds[restaurantAddr].push(id);\n    }\n\n    function acceptOrder(uint256 orderId, uint256 maxPreparationTime) public {\n        Order storage order = orders[orderId];\n        require(order.id == orderId, \"Order with given id does not exist\");\n        require(order.restaurantAddr == msg.sender, \"Only the restaurant for which the order was made can accept it\");\n        require(order.status == OrderStatus.PENDING, \"Can only accept orders for which the status is PENDING\");\n\n        order.maxPreparationTime = maxPreparationTime;\n        order.preparationStartTime = block.timestamp;\n        order.status = OrderStatus.WAITING_COURIER;\n        ordersWaitingForCourier.push(orderId);\n    }\n\n    function declineOrder(uint256 orderId) public {\n        Order storage order = orders[orderId];\n        require(order.id == orderId, \"Order with given id does not exist\");\n        require(order.restaurantAddr == msg.sender, \"Only the restaurant can decline the order\");\n        require(order.status == OrderStatus.PENDING, \"Order must be pending\");\n\n        // refund the client\n        address payable clientAddr = payable(order.clientAddr);\n        require(clientAddr.send(order.totalPrice + order.deliveryFee), \"Failed to refund client\");\n\n        order.status = OrderStatus.CANCELLED;\n    }\n\n    function increaseDeliveryFee(uint256 orderId) public payable {\n        Order storage order = orders[orderId];\n        require(order.id == orderId, \"Order with given id does not exist\");\n        require(order.status == OrderStatus.WAITING_COURIER);\n        require(order.clientAddr == msg.sender, \"Order delivery fee must be increased by the client\");\n\n        order.deliveryFee += msg.value;\n    }\n\n    function takeOrder(uint256 orderId, uint256 maxDeliveryTime) public {\n        Order storage order = orders[orderId];\n        require(order.id == orderId, \"Order with given id does not exist\");\n        require(order.status == OrderStatus.WAITING_COURIER, \"Order must be in the processing state\");\n        order.courierAddr = msg.sender;\n        order.maxDeliveryTime = maxDeliveryTime;\n        order.deliveryStartTime = block.timestamp;\n        order.status = OrderStatus.ASSIGNED_COURIER;\n        couriersToOrdersMapping[msg.sender].push(order.id);\n        removeOrderFromWaitingList(orderId);\n    }\n\n    function orderReadyToDeliver(uint256 orderId) public {\n        Order storage order = orders[orderId];\n        require(order.id == orderId, \"Order with given id does not exist\");\n        require(order.status == OrderStatus.ASSIGNED_COURIER);\n        require(order.restaurantAddr == msg.sender, \"Order must be marked ready to deliver by the restaurant of the order\");\n\n        order.status = OrderStatus.READY_TO_DELIVER;\n    }\n\n    function orderDelivering(uint256 orderId) public {\n        Order storage order = orders[orderId];\n        require(order.id == orderId, \"Order with given id does not exist\");\n        require(order.status == OrderStatus.READY_TO_DELIVER);\n        require(order.courierAddr == msg.sender, \"Order must be delivered by courier that accepted it\");\n\n        order.status = OrderStatus.DELIVERING;\n    }\n\n    function orderDelivered(uint256 orderId) public {\n        Order storage order = orders[orderId];\n        require(order.id == orderId, \"Order with given id does not exist\");\n        require(order.status == OrderStatus.DELIVERING);\n        require(order.clientAddr == msg.sender, \"Order delivery must be confirmed by client\");\n\n        uint256 preparationTime = order.deliveryStartTime - order.preparationStartTime;\n        uint256 deliveryTime = block.timestamp - order.deliveryStartTime;\n        uint256 totalPayment = order.totalPrice + order.deliveryFee;\n        uint256 refundAmount = 0;\n\n        uint256 restaurantRefund = 0;\n        uint256 courierRefund = 0;\n\n        uint256 fixedLateFeePercentage = 10; // Fixed late fee percentage (e.g., 10%)\n\n        // Calculate the refund amounts based on delays\n        if (preparationTime > order.maxPreparationTime) {\n            restaurantRefund = (fixedLateFeePercentage * order.totalPrice) / 100;\n        }\n\n        if (deliveryTime > order.maxDeliveryTime) {\n            courierRefund = (fixedLateFeePercentage * order.deliveryFee) / 100;\n        }\n\n        // Proportional payments to restaurant and courier\n        address payable restaurantAddr = payable(order.restaurantAddr);\n        address payable courierAddr = payable(order.courierAddr);\n        address payable clientAddr = payable(order.clientAddr);\n        uint256 restaurantPayment = order.totalPrice - restaurantRefund;\n        uint256 courierPayment = order.deliveryFee - courierRefund;\n        \n        require(restaurantAddr.send(restaurantPayment), \"Failed to send payment to restaurant\");\n        require(courierAddr.send(courierPayment), \"Failed to send payment to courier\");\n        require(clientAddr.send(restaurantRefund + courierRefund), \"Failed to send payment to client\");\n\n        order.status = OrderStatus.DELIVERED;\n    }\n\n    function cancelOrder(uint256 orderId) public {\n        Order storage order = orders[orderId];\n        require(order.id == orderId, \"Order with given id does not exist\");\n        require(order.clientAddr == msg.sender, \"Order must be cancelled by client\");\n        require(order.status != OrderStatus.DELIVERED && order.status != OrderStatus.CANCELLED, \"Order cannot be in DELIVERED or CANCELLED status already\");\n        \n        // refund the client\n        address payable clientAddr = payable(order.clientAddr);\n        address payable restaurantAddr = payable(order.restaurantAddr);\n        if (order.status == OrderStatus.PENDING || order.status == OrderStatus.WAITING_COURIER\n            || order.status == OrderStatus.ASSIGNED_COURIER) {      // full refund\n            require(clientAddr.send(order.totalPrice + order.deliveryFee), \"Failed to refund client\");\n        } else if (order.status == OrderStatus.READY_TO_DELIVER) {  // partial refund, as the restaurant did finish the order\n            require(restaurantAddr.send(order.totalPrice), \"Failed to refund restaurant\");\n            require(clientAddr.send(order.deliveryFee), \"Failed to refund client\");\n        } else {        // no refund for client, order was just being delivered\n            address payable courierAddr = payable(order.clientAddr);\n            require(restaurantAddr.send(order.totalPrice), \"Failed to refund restaurant\");\n            require(courierAddr.send(order.deliveryFee), \"Failed to refund courier\");\n        }\n\n        order.status = OrderStatus.CANCELLED;\n    }\n\n    function placeReview(uint256 orderId, uint256 rating, string calldata comment) public {\n        Order storage order = orders[orderId];\n        require(order.id == orderId, \"Order with given id does not exist\");\n        require(order.clientAddr == msg.sender, \"Only the client who placed the order can leave a review\");\n        require(order.status == OrderStatus.DELIVERED, \"Only delivered orders can be reviewed\");\n\n        reviews[orderId] = Review({\n            orderId: orderId,\n            rating: rating,\n            comment: comment\n        });\n    }\n\n    function getReview(uint256 orderId) public view returns (Review memory) {\n        return reviews[orderId];\n    }\n\n    function getAverageRatingForRestaurant(address restaurantAddr) public view returns (uint256) {\n        uint256 totalRating = 0;\n        uint256 numberOfRatings = 0;\n\n        for (uint256 i = 0; i < restaurantToOrdersIds[restaurantAddr].length; i++) {\n            uint256 orderId = restaurantToOrdersIds[restaurantAddr][i];\n            if (reviews[orderId].orderId == orderId) {\n                totalRating += reviews[orderId].rating;\n                numberOfRatings++;\n            }\n        }\n\n        if (numberOfRatings == 0) {\n            return 0;\n        } else {\n            return totalRating / numberOfRatings;\n        }\n    }\n\n    function removeOrderFromWaitingList(uint256 orderId) internal {\n        for (uint256 i = 0; i < ordersWaitingForCourier.length; i++) {\n            if (ordersWaitingForCourier[i] == orderId) {\n                // Swap the order to remove with the last order in the array, then remove the last order\n                ordersWaitingForCourier[i] = ordersWaitingForCourier[ordersWaitingForCourier.length - 1];\n                ordersWaitingForCourier.pop();\n                break;\n            }\n        }\n    }\n}\n","sourcePath":"contracts/food_delivery.sol","type":"contract","deployment":{"address":"0x18bA7095DC1967d491eB0b9F638447D456C41588","chainid":"5","blockHeight":9004460}}