{"abi":[{"inputs":[{"internalType":"address","name":"priceFeedAddress","type":"address"}],"stateMutability":"nonpayable","type":"constructor","name":"constructor"},{"inputs":[{"internalType":"uint256","name":"orderId","type":"uint256"},{"internalType":"uint256","name":"maxPreparationTime","type":"uint256"}],"name":"acceptOrder","outputs":[],"stateMutability":"nonpayable","type":"function"},{"inputs":[{"internalType":"string","name":"name","type":"string"},{"internalType":"string","name":"description","type":"string"},{"internalType":"uint256","name":"price","type":"uint256"}],"name":"addItem","outputs":[{"internalType":"uint256","name":"","type":"uint256"}],"stateMutability":"nonpayable","type":"function"},{"inputs":[{"internalType":"uint256","name":"orderId","type":"uint256"}],"name":"cancelOrder","outputs":[],"stateMutability":"nonpayable","type":"function"},{"inputs":[{"internalType":"address","name":"","type":"address"}],"name":"clients","outputs":[{"internalType":"address","name":"addr","type":"address"},{"internalType":"string","name":"name","type":"string"}],"stateMutability":"view","type":"function"},{"inputs":[{"internalType":"uint256","name":"","type":"uint256"}],"name":"clientsAddr","outputs":[{"internalType":"address","name":"","type":"address"}],"stateMutability":"view","type":"function"},{"inputs":[{"internalType":"address","name":"","type":"address"},{"internalType":"uint256","name":"","type":"uint256"}],"name":"clientsToOrdersMapping","outputs":[{"internalType":"uint256","name":"","type":"uint256"}],"stateMutability":"view","type":"function"},{"inputs":[{"internalType":"address","name":"","type":"address"},{"internalType":"uint256","name":"","type":"uint256"}],"name":"couriersToOrdersMapping","outputs":[{"internalType":"uint256","name":"","type":"uint256"}],"stateMutability":"view","type":"function"},{"inputs":[{"internalType":"uint256","name":"orderId","type":"uint256"}],"name":"declineOrder","outputs":[],"stateMutability":"nonpayable","type":"function"},{"inputs":[{"internalType":"uint256","name":"itemId","type":"uint256"}],"name":"disableItem","outputs":[],"stateMutability":"nonpayable","type":"function"},{"inputs":[{"internalType":"uint256","name":"itemId","type":"uint256"}],"name":"enableItem","outputs":[],"stateMutability":"nonpayable","type":"function"},{"inputs":[],"name":"ethUsdPriceFeed","outputs":[{"internalType":"contract AggregatorV3Interface","name":"","type":"address"}],"stateMutability":"view","type":"function"},{"inputs":[{"internalType":"address","name":"restaurantAddr","type":"address"}],"name":"getAverageRatingForRestaurant","outputs":[{"internalType":"uint256","name":"","type":"uint256"}],"stateMutability":"view","type":"function"},{"inputs":[{"internalType":"address","name":"restaurant","type":"address"},{"internalType":"uint256","name":"index","type":"uint256"}],"name":"getMenuEntryAtIndex","outputs":[{"components":[{"internalType":"uint256","name":"id","type":"uint256"},{"internalType":"string","name":"name","type":"string"},{"internalType":"string","name":"description","type":"string"},{"internalType":"uint256","name":"price","type":"uint256"},{"internalType":"bool","name":"available","type":"bool"}],"internalType":"struct FoodDelivery.Item","name":"","type":"tuple"}],"stateMutability":"view","type":"function"},{"inputs":[],"name":"getNumberOfClients","outputs":[{"internalType":"uint256","name":"","type":"uint256"}],"stateMutability":"view","type":"function"},{"inputs":[{"internalType":"address","name":"restaurant","type":"address"}],"name":"getNumberOfItemsInMenu","outputs":[{"internalType":"uint256","name":"","type":"uint256"}],"stateMutability":"view","type":"function"},{"inputs":[{"internalType":"address","name":"client","type":"address"}],"name":"getNumberOfOrderForClient","outputs":[{"internalType":"uint256","name":"","type":"uint256"}],"stateMutability":"view","type":"function"},{"inputs":[{"internalType":"address","name":"restaurant","type":"address"}],"name":"getNumberOfOrderForRestaurant","outputs":[{"internalType":"uint256","name":"","type":"uint256"}],"stateMutability":"view","type":"function"},{"inputs":[{"internalType":"address","name":"courier","type":"address"}],"name":"getNumberOfOrdersForCourier","outputs":[{"internalType":"uint256","name":"","type":"uint256"}],"stateMutability":"view","type":"function"},{"inputs":[],"name":"getNumberOfOrdersWaitingForCourier","outputs":[{"internalType":"uint256","name":"","type":"uint256"}],"stateMutability":"view","type":"function"},{"inputs":[],"name":"getNumberOfRestaurants","outputs":[{"internalType":"uint256","name":"","type":"uint256"}],"stateMutability":"view","type":"function"},{"inputs":[{"internalType":"uint256","name":"orderId","type":"uint256"}],"name":"getOrderItemsAndQuantities","outputs":[{"components":[{"internalType":"uint256","name":"id","type":"uint256"},{"internalType":"string","name":"name","type":"string"},{"internalType":"string","name":"description","type":"string"},{"internalType":"uint256","name":"price","type":"uint256"},{"internalType":"bool","name":"available","type":"bool"}],"internalType":"struct FoodDelivery.Item[]","name":"","type":"tuple[]"},{"internalType":"uint256[]","name":"","type":"uint256[]"}],"stateMutability":"view","type":"function"},{"inputs":[{"internalType":"enum FoodDelivery.OrderStatus","name":"status","type":"uint8"}],"name":"getOrdersByStatus","outputs":[{"components":[{"internalType":"uint256","name":"id","type":"uint256"},{"internalType":"address","name":"restaurantAddr","type":"address"},{"internalType":"address","name":"clientAddr","type":"address"},{"internalType":"address","name":"courierAddr","type":"address"},{"internalType":"uint256[]","name":"itemIndices","type":"uint256[]"},{"internalType":"uint256[]","name":"quantities","type":"uint256[]"},{"internalType":"uint256","name":"deliveryFee","type":"uint256"},{"internalType":"uint256","name":"totalPrice","type":"uint256"},{"internalType":"string","name":"deliveryAddress","type":"string"},{"internalType":"enum FoodDelivery.OrderStatus","name":"status","type":"uint8"},{"internalType":"uint256","name":"maxPreparationTime","type":"uint256"},{"internalType":"uint256","name":"maxDeliveryTime","type":"uint256"},{"internalType":"uint256","name":"preparationStartTime","type":"uint256"},{"internalType":"uint256","name":"deliveryStartTime","type":"uint256"},{"internalType":"uint256","name":"refundAmount","type":"uint256"}],"internalType":"struct FoodDelivery.Order[]","name":"","type":"tuple[]"}],"stateMutability":"view","type":"function"},{"inputs":[{"internalType":"uint256","name":"usdPrice","type":"uint256"}],"name":"getPriceInEth","outputs":[{"internalType":"uint256","name":"","type":"uint256"}],"stateMutability":"view","type":"function"},{"inputs":[{"internalType":"uint256","name":"orderId","type":"uint256"}],"name":"getReview","outputs":[{"components":[{"internalType":"uint256","name":"orderId","type":"uint256"},{"internalType":"uint256","name":"rating","type":"uint256"},{"internalType":"string","name":"comment","type":"string"}],"internalType":"struct FoodDelivery.Review","name":"","type":"tuple"}],"stateMutability":"view","type":"function"},{"inputs":[{"internalType":"address","name":"restaurantAddr","type":"address"},{"internalType":"uint256[]","name":"itemIds","type":"uint256[]"},{"internalType":"uint256[]","name":"quantities","type":"uint256[]"},{"internalType":"uint256","name":"deliveryFee","type":"uint256"}],"name":"getWeiPriceForOrder","outputs":[{"internalType":"uint256","name":"","type":"uint256"},{"internalType":"uint256","name":"","type":"uint256"}],"stateMutability":"view","type":"function"},{"inputs":[{"internalType":"uint256","name":"orderId","type":"uint256"}],"name":"increaseDeliveryFee","outputs":[],"stateMutability":"payable","type":"function"},{"inputs":[{"internalType":"uint256","name":"orderId","type":"uint256"}],"name":"orderDelivered","outputs":[],"stateMutability":"nonpayable","type":"function"},{"inputs":[{"internalType":"uint256","name":"orderId","type":"uint256"}],"name":"orderDelivering","outputs":[],"stateMutability":"nonpayable","type":"function"},{"inputs":[{"internalType":"uint256","name":"orderId","type":"uint256"}],"name":"orderReadyToDeliver","outputs":[],"stateMutability":"nonpayable","type":"function"},{"inputs":[{"internalType":"uint256","name":"","type":"uint256"}],"name":"orders","outputs":[{"internalType":"uint256","name":"id","type":"uint256"},{"internalType":"address","name":"restaurantAddr","type":"address"},{"internalType":"address","name":"clientAddr","type":"address"},{"internalType":"address","name":"courierAddr","type":"address"},{"internalType":"uint256","name":"deliveryFee","type":"uint256"},{"internalType":"uint256","name":"totalPrice","type":"uint256"},{"internalType":"string","name":"deliveryAddress","type":"string"},{"internalType":"enum FoodDelivery.OrderStatus","name":"status","type":"uint8"},{"internalType":"uint256","name":"maxPreparationTime","type":"uint256"},{"internalType":"uint256","name":"maxDeliveryTime","type":"uint256"},{"internalType":"uint256","name":"preparationStartTime","type":"uint256"},{"internalType":"uint256","name":"deliveryStartTime","type":"uint256"},{"internalType":"uint256","name":"refundAmount","type":"uint256"}],"stateMutability":"view","type":"function"},{"inputs":[{"internalType":"uint256","name":"","type":"uint256"}],"name":"ordersWaitingForCourier","outputs":[{"internalType":"uint256","name":"","type":"uint256"}],"stateMutability":"view","type":"function"},{"inputs":[{"internalType":"address","name":"restaurantAddr","type":"address"},{"internalType":"uint256[]","name":"itemIds","type":"uint256[]"},{"internalType":"uint256[]","name":"quantities","type":"uint256[]"},{"internalType":"uint256","name":"deliveryFee","type":"uint256"},{"internalType":"string","name":"deliveryAddress","type":"string"}],"name":"placeOrder","outputs":[],"stateMutability":"payable","type":"function"},{"inputs":[{"internalType":"uint256","name":"orderId","type":"uint256"},{"internalType":"uint256","name":"rating","type":"uint256"},{"internalType":"string","name":"comment","type":"string"}],"name":"placeReview","outputs":[],"stateMutability":"nonpayable","type":"function"},{"inputs":[{"internalType":"string","name":"name","type":"string"}],"name":"registerClient","outputs":[],"stateMutability":"nonpayable","type":"function"},{"inputs":[{"internalType":"string","name":"name","type":"string"},{"internalType":"string","name":"description","type":"string"}],"name":"registerRestaurant","outputs":[],"stateMutability":"nonpayable","type":"function"},{"inputs":[{"internalType":"address","name":"","type":"address"},{"internalType":"uint256","name":"","type":"uint256"}],"name":"restaurantToOrdersIds","outputs":[{"internalType":"uint256","name":"","type":"uint256"}],"stateMutability":"view","type":"function"},{"inputs":[{"internalType":"address","name":"","type":"address"}],"name":"restaurants","outputs":[{"internalType":"address","name":"addr","type":"address"},{"internalType":"string","name":"name","type":"string"},{"internalType":"string","name":"description","type":"string"}],"stateMutability":"view","type":"function"},{"inputs":[{"internalType":"uint256","name":"","type":"uint256"}],"name":"restaurantsAddr","outputs":[{"internalType":"address","name":"","type":"address"}],"stateMutability":"view","type":"function"},{"inputs":[{"internalType":"uint256","name":"","type":"uint256"}],"name":"reviews","outputs":[{"internalType":"uint256","name":"orderId","type":"uint256"},{"internalType":"uint256","name":"rating","type":"uint256"},{"internalType":"string","name":"comment","type":"string"}],"stateMutability":"view","type":"function"},{"inputs":[{"internalType":"uint256","name":"orderId","type":"uint256"},{"internalType":"uint256","name":"maxDeliveryTime","type":"uint256"}],"name":"takeOrder","outputs":[],"stateMutability":"nonpayable","type":"function"},{"inputs":[{"internalType":"uint256","name":"id","type":"uint256"},{"internalType":"string","name":"name","type":"string"},{"internalType":"string","name":"description","type":"string"},{"internalType":"uint256","name":"price","type":"uint256"}],"name":"updateItem","outputs":[{"internalType":"uint256","name":"","type":"uint256"}],"stateMutability":"nonpayable","type":"function"}],"bytecode":"60806040526000600a553480156200001657600080fd5b506040516200404a3803806200404a83398101604081905262000039916200005f565b600b80546001600160a01b0319166001600160a01b039290921691909117905562000091565b6000602082840312156200007257600080fd5b81516001600160a01b03811681146200008a57600080fd5b9392505050565b613fa980620000a16000396000f3fe6080604052600436106102465760003560e01c806385b6ec0611610139578063bdace182116100b6578063dee9e1641161007a578063dee9e16414610783578063e742a182146107a3578063e83ddcea146107c3578063eff6ed6b146107f2578063f13b84b614610807578063fedf1a871461082757600080fd5b8063bdace182146106bf578063be47dca1146106df578063c59c521a146106f4578063ccbdb85c1461072d578063d3168a661461074d57600080fd5b8063990581b6116100fd578063990581b6146106135780639b51bd21146106405780639cbcfed514610653578063a85c38ef14610673578063abfd0687146106ac57600080fd5b806385b6ec0614610566578063880d4ee8146105865780638ce2ec79146105a657806392184bfb146105d35780639827e44d146105f357600080fd5b80633d05a334116101c757806361eed2a91161018b57806361eed2a9146104b657806364432eb8146104e457806368ad5b83146105045780636d4166e914610531578063708d26121461054657600080fd5b80633d05a334146103e857806342f6fb29146104085780634c6448fe146104405780634d649a4214610460578063514fcac71461049657600080fd5b8063226affb81161020e578063226affb814610316578063236cd7dc146103365780632eab93cb1461036557806337a3f817146103855780633a2d20d1146103b357600080fd5b8063026828931461024b57806306a6034f1461027e5780630bbacb201461029e5780630bdc3b22146102c05780631ae78a85146102f6575b600080fd5b34801561025757600080fd5b5061026b610266366004613256565b610847565b6040519081526020015b60405180910390f35b34801561028a57600080fd5b5061026b6102993660046132c8565b610878565b3480156102aa57600080fd5b506102be6102b9366004613349565b6109a0565b005b3480156102cc57600080fd5b5061026b6102db36600461339b565b6001600160a01b031660009081526005602052604090205490565b34801561030257600080fd5b506102be6103113660046133bd565b610b75565b34801561032257600080fd5b5061026b6103313660046133bd565b610c75565b34801561034257600080fd5b5061035661035136600461339b565b610d9e565b6040516102759392919061341c565b34801561037157600080fd5b506102be61038036600461345c565b610edb565b34801561039157600080fd5b506103a56103a03660046133bd565b611000565b604051610275929190613514565b3480156103bf57600080fd5b506103d36103ce3660046135c5565b61132e565b60408051928352602083019190915201610275565b3480156103f457600080fd5b506102be61040336600461345c565b61145d565b34801561041457600080fd5b50600b54610428906001600160a01b031681565b6040516001600160a01b039091168152602001610275565b34801561044c57600080fd5b506102be61045b366004613635565b6115fe565b34801561046c57600080fd5b5061026b61047b36600461339b565b6001600160a01b031660009081526004602052604090205490565b3480156104a257600080fd5b506102be6104b13660046133bd565b611676565b3480156104c257600080fd5b506104d66104d136600461339b565b611973565b604051610275929190613676565b3480156104f057600080fd5b5061026b6104ff36600461369a565b611a23565b34801561051057600080fd5b5061052461051f366004613256565b611b3f565b604051610275919061370d565b34801561053d57600080fd5b5060085461026b565b34801561055257600080fd5b5061026b6105613660046133bd565b611d0a565b34801561057257600080fd5b506104286105813660046133bd565b611d2b565b34801561059257600080fd5b506102be6105a1366004613720565b611d55565b3480156105b257600080fd5b506105c66105c136600461377f565b611dde565b60405161027591906137d8565b3480156105df57600080fd5b506102be6105ee3660046133bd565b612178565b3480156105ff57600080fd5b5061026b61060e366004613256565b6121c6565b34801561061f57600080fd5b5061063361062e3660046133bd565b6121e2565b6040516102759190613919565b6102be61064e3660046133bd565b6122d1565b34801561065f57600080fd5b506102be61066e3660046133bd565b6123d2565b34801561067f57600080fd5b5061069361068e3660046133bd565b6123fb565b6040516102759d9c9b9a99989796959493929190613948565b6102be6106ba3660046139d4565b612511565b3480156106cb57600080fd5b506104286106da3660046133bd565b612952565b3480156106eb57600080fd5b5060095461026b565b34801561070057600080fd5b5061026b61070f36600461339b565b6001600160a01b031660009081526020819052604090206003015490565b34801561073957600080fd5b506102be6107483660046133bd565b612962565b34801561075957600080fd5b5061026b61076836600461339b565b6001600160a01b031660009081526002602052604090205490565b34801561078f57600080fd5b5061026b61079e366004613256565b612ae8565b3480156107af57600080fd5b506102be6107be3660046133bd565b612b04565b3480156107cf57600080fd5b506107e36107de3660046133bd565b612e63565b60405161027593929190613a87565b3480156107fe57600080fd5b5060065461026b565b34801561081357600080fd5b5061026b61082236600461339b565b612e8b565b34801561083357600080fd5b506102be6108423660046133bd565b612f69565b6004602052816000526040600020818154811061086357600080fd5b90600052602060002001600091509150505481565b33600090815260208181526040808320815160a0810183528a81528251601f8a0185900485028101850190935288835290929091828201918a908a9081908401838280828437600092019190915250505090825250604080516020601f8901819004810282018101909252878152918101919088908890819084018382808284376000920191909152505050908252506020810185905260016040909101526003820180548a90811061092d5761092d613aa6565b906000526020600020906005020160008201518160000155602082015181600101908161095a9190613b5a565b506040820151600282019061096f9082613b5a565b50606082015160038201556080909101516004909101805460ff191691151591909117905550959695505050505050565b6000600785815481106109b5576109b5613aa6565b90600052602060002090600f02019050848160000154146109f15760405162461bcd60e51b81526004016109e890613c19565b60405180910390fd5b60028101546001600160a01b03163314610a735760405162461bcd60e51b815260206004820152603760248201527f4f6e6c792074686520636c69656e742077686f20706c6163656420746865206f60448201527f726465722063616e206c6561766520612072657669657700000000000000000060648201526084016109e8565b6005600982015460ff166006811115610a8e57610a8e6137a0565b14610ae95760405162461bcd60e51b815260206004820152602560248201527f4f6e6c792064656c697665726564206f72646572732063616e206265207265766044820152641a595dd95960da1b60648201526084016109e8565b604051806060016040528086815260200185815260200184848080601f01602080910402602001604051908101604052809392919081815260200183838082843760009201829052509390945250508781526003602090815260409182902084518155908401516001820155908301519091506002820190610b6b9082613b5a565b5050505050505050565b600060078281548110610b8a57610b8a613aa6565b90600052602060002090600f0201905081816000015414610bbd5760405162461bcd60e51b81526004016109e890613c19565b6003600982015460ff166006811115610bd857610bd86137a0565b14610be257600080fd5b60038101546001600160a01b03163314610c5a5760405162461bcd60e51b815260206004820152603360248201527f4f72646572206d7573742062652064656c69766572656420627920636f757269604482015272195c881d1a185d081858d8d95c1d1959081a5d606a1b60648201526084016109e8565b6009810180546004919060ff19166001835b02179055505050565b600080600b60009054906101000a90046001600160a01b03166001600160a01b031663feaf968c6040518163ffffffff1660e01b815260040160a060405180830381865afa158015610ccb573d6000803e3d6000fd5b505050506040513d601f19601f82011682018060405250810190610cef9190613c75565b5050509150506000600b60009054906101000a90046001600160a01b03166001600160a01b031663313ce5676040518163ffffffff1660e01b8152600401602060405180830381865afa158015610d4a573d6000803e3d6000fd5b505050506040513d601f19601f82011682018060405250810190610d6e9190613cc5565b9050600082610d8160ff8416600a613de2565b610d8b9087613dee565b610d959190613e05565b95945050505050565b600060208190529081526040902080546001820180546001600160a01b039092169291610dca90613ad2565b80601f0160208091040260200160405190810160405280929190818152602001828054610df690613ad2565b8015610e435780601f10610e1857610100808354040283529160200191610e43565b820191906000526020600020905b815481529060010190602001808311610e2657829003601f168201915b505050505090806002018054610e5890613ad2565b80601f0160208091040260200160405190810160405280929190818152602001828054610e8490613ad2565b8015610ed15780601f10610ea657610100808354040283529160200191610ed1565b820191906000526020600020905b815481529060010190602001808311610eb457829003601f168201915b5050505050905083565b600060078381548110610ef057610ef0613aa6565b90600052602060002090600f0201905082816000015414610f235760405162461bcd60e51b81526004016109e890613c19565b6001600982015460ff166006811115610f3e57610f3e6137a0565b14610f995760405162461bcd60e51b815260206004820152602560248201527f4f72646572206d75737420626520696e207468652070726f63657373696e6720604482015264737461746560d81b60648201526084016109e8565b600381018054336001600160a01b03199091168117909155600b820183905542600d83015560098201805460ff1916600217905560009081526005602090815260408220835481546001810183559184529190922090910155610ffb8361307c565b505050565b60608060006007848154811061101857611018613aa6565b90600052602060002090600f020190508381600001541461104b5760405162461bcd60e51b81526004016109e890613c19565b60018101546001600160a01b0316600090815260208190526040812060048301549091906001600160401b0381111561108657611086613abc565b6040519080825280602002602001820160405280156110eb57816020015b6110d86040518060a00160405280600081526020016060815260200160608152602001600081526020016000151581525090565b8152602001906001900390816110a45790505b50905060005b60048401548110156112ca57600084600401828154811061111457611114613aa6565b9060005260206000200154905083600301818154811061113657611136613aa6565b90600052602060002090600502016040518060a00160405290816000820154815260200160018201805461116990613ad2565b80601f016020809104026020016040519081016040528092919081815260200182805461119590613ad2565b80156111e25780601f106111b7576101008083540402835291602001916111e2565b820191906000526020600020905b8154815290600101906020018083116111c557829003601f168201915b505050505081526020016002820180546111fb90613ad2565b80601f016020809104026020016040519081016040528092919081815260200182805461122790613ad2565b80156112745780601f1061124957610100808354040283529160200191611274565b820191906000526020600020905b81548152906001019060200180831161125757829003601f168201915b50505091835250506003820154602082015260049091015460ff16151560409091015283518490849081106112ab576112ab613aa6565b60200260200101819052505080806112c290613e27565b9150506110f1565b5080836005018080548060200260200160405190810160405280929190818152602001828054801561131b57602002820191906000526020600020905b815481526020019060010190808311611307575b5050505050905094509450505050915091565b6001600160a01b0386166000908152602081905260408120819081805b8881101561143f5760038301548a8a8381811061136a5761136a613aa6565b90506020020135106113b05760405162461bcd60e51b815260206004820152600f60248201526e125b9d985b1a59081a5d195b481251608a1b60448201526064016109e8565b6000836003018b8b848181106113c8576113c8613aa6565b90506020020135815481106113df576113df613aa6565b9060005260206000209060050201905088888381811061140157611401613aa6565b905060200201356114158260030154610c75565b61141f9190613dee565b6114299084613e40565b925050808061143790613e27565b91505061134b565b50600061144b86610c75565b919b919a509098505050505050505050565b60006007838154811061147257611472613aa6565b90600052602060002090600f02019050828160000154146114a55760405162461bcd60e51b81526004016109e890613c19565b60018101546001600160a01b031633146115275760405162461bcd60e51b815260206004820152603e60248201527f4f6e6c79207468652072657374617572616e7420666f7220776869636820746860448201527f65206f7264657220776173206d6164652063616e20616363657074206974000060648201526084016109e8565b6000600982015460ff166006811115611542576115426137a0565b146115ae5760405162461bcd60e51b815260206004820152603660248201527f43616e206f6e6c7920616363657074206f726465727320666f7220776869636860448201527520746865207374617475732069732050454e44494e4760501b60648201526084016109e8565b600a81019190915542600c820155600901805460ff191660019081179091556006805491820181556000527ff652222313e28459528d920b65115c16c04f3efc82aaedc97be59f3f377c0d3f0155565b33600081815260016020819052604090912080546001600160a01b0319169092178255810161162e838583613e53565b5050600980546001810182556000919091527f6e1540171b6c0c960b71a7020d9f60077f6af931a8bbf590da0223dacf75c7af0180546001600160a01b031916331790555050565b60006007828154811061168b5761168b613aa6565b90600052602060002090600f02019050818160000154146116be5760405162461bcd60e51b81526004016109e890613c19565b600281015460018201546001600160a01b0391821691166000600984015460ff1660068111156116f0576116f06137a0565b148061171457506001600984015460ff166006811115611712576117126137a0565b145b8061173757506002600984015460ff166006811115611735576117356137a0565b145b1561179557816001600160a01b03166108fc8460060154856007015461175d9190613e40565b6040518115909202916000818181858888f193505050506117905760405162461bcd60e51b81526004016109e890613f13565b611960565b6003600984015460ff1660068111156117b0576117b06137a0565b0361186d5760078301546040516001600160a01b0383169180156108fc02916000818181858888f193505050506118295760405162461bcd60e51b815260206004820152601b60248201527f4661696c656420746f20726566756e642072657374617572616e74000000000060448201526064016109e8565b60068301546040516001600160a01b0384169180156108fc02916000818181858888f193505050506117905760405162461bcd60e51b81526004016109e890613f13565b600283015460078401546040516001600160a01b039283169284169180156108fc02916000818181858888f193505050506118ea5760405162461bcd60e51b815260206004820152601b60248201527f4661696c656420746f20726566756e642072657374617572616e74000000000060448201526064016109e8565b60068401546040516001600160a01b0383169180156108fc02916000818181858888f1935050505061195e5760405162461bcd60e51b815260206004820152601860248201527f4661696c656420746f20726566756e6420636f7572696572000000000000000060448201526064016109e8565b505b5050600901805460ff1916600617905550565b6001602081905260009182526040909120805491810180546001600160a01b03909316926119a090613ad2565b80601f01602080910402602001604051908101604052809291908181526020018280546119cc90613ad2565b8015611a195780601f106119ee57610100808354040283529160200191611a19565b820191906000526020600020905b8154815290600101906020018083116119fc57829003601f168201915b5050505050905082565b33600090815260208181526040808320600381018054835160a0810185528181528451601f8c018790048702810187019095528a855292949093919291828201918c908c9081908401838280828437600092019190915250505090825250604080516020601f8b0181900481028201810190925289815291810191908a908a908190840183828082843760009201829052509385525050506020808301899052600160409093018390528454808401865594825290819020835160059095020193845582015191929190820190611afa9082613b5a565b5060408201516002820190611b0f9082613b5a565b50606082015160038201556080909101516004909101805460ff1916911515919091179055979650505050505050565b611b736040518060a00160405280600081526020016060815260200160608152602001600081526020016000151581525090565b6001600160a01b0383166000908152602081905260409020600301805483908110611ba057611ba0613aa6565b90600052602060002090600502016040518060a001604052908160008201548152602001600182018054611bd390613ad2565b80601f0160208091040260200160405190810160405280929190818152602001828054611bff90613ad2565b8015611c4c5780601f10611c2157610100808354040283529160200191611c4c565b820191906000526020600020905b815481529060010190602001808311611c2f57829003601f168201915b50505050508152602001600282018054611c6590613ad2565b80601f0160208091040260200160405190810160405280929190818152602001828054611c9190613ad2565b8015611cde5780601f10611cb357610100808354040283529160200191611cde565b820191906000526020600020905b815481529060010190602001808311611cc157829003601f168201915b50505091835250506003820154602082015260049091015460ff16151560409091015290505b92915050565b60068181548110611d1a57600080fd5b600091825260209091200154905081565b60088181548110611d3b57600080fd5b6000918252602090912001546001600160a01b0316905081565b33600081815260208190526040902080546001600160a01b031916909117815560018101611d84858783613e53565b5060028101611d94838583613e53565b5050600880546001810182556000919091527ff3f7a9fe364faab93b216da50a3214154f22a0a2b415b23a84c8169e8b636ee30180546001600160a01b0319163317905550505050565b60606000805b600754811015611e6057836006811115611e0057611e006137a0565b60078281548110611e1357611e13613aa6565b600091825260209091206009600f90920201015460ff166006811115611e3b57611e3b6137a0565b03611e4e5781611e4a81613e27565b9250505b80611e5881613e27565b915050611de4565b506000816001600160401b03811115611e7b57611e7b613abc565b604051908082528060200260200182016040528015611eb457816020015b611ea1613138565b815260200190600190039081611e995790505b5090506000805b60075481101561216e57856006811115611ed757611ed76137a0565b60078281548110611eea57611eea613aa6565b600091825260209091206009600f90920201015460ff166006811115611f1257611f126137a0565b0361215c5760078181548110611f2a57611f2a613aa6565b6000918252602091829020604080516101e081018252600f9093029091018054835260018101546001600160a01b03908116848601526002820154811684840152600382015416606084015260048101805483518187028101870190945280845293949193608086019392830182828015611fc457602002820191906000526020600020905b815481526020019060010190808311611fb0575b505050505081526020016005820180548060200260200160405190810160405280929190818152602001828054801561201c57602002820191906000526020600020905b815481526020019060010190808311612008575b50505050508152602001600682015481526020016007820154815260200160088201805461204990613ad2565b80601f016020809104026020016040519081016040528092919081815260200182805461207590613ad2565b80156120c25780601f10612097576101008083540402835291602001916120c2565b820191906000526020600020905b8154815290600101906020018083116120a557829003601f168201915b5050509183525050600982015460209091019060ff1660068111156120e9576120e96137a0565b60068111156120fa576120fa6137a0565b8152602001600a8201548152602001600b8201548152602001600c8201548152602001600d8201548152602001600e8201548152505083838151811061214257612142613aa6565b6020026020010181905250818061215890613e27565b9250505b8061216681613e27565b915050611ebb565b5090949350505050565b336000908152602081905260408120600381018054919291849081106121a0576121a0613aa6565b60009182526020909120600590910201600401805460ff19169115159190911790555050565b6005602052816000526040600020818154811061086357600080fd5b61220660405180606001604052806000815260200160008152602001606081525090565b60036000838152602001908152602001600020604051806060016040529081600082015481526020016001820154815260200160028201805461224890613ad2565b80601f016020809104026020016040519081016040528092919081815260200182805461227490613ad2565b80156122c15780601f10612296576101008083540402835291602001916122c1565b820191906000526020600020905b8154815290600101906020018083116122a457829003601f168201915b5050505050815250509050919050565b6000600782815481106122e6576122e6613aa6565b90600052602060002090600f02019050818160000154146123195760405162461bcd60e51b81526004016109e890613c19565b6001600982015460ff166006811115612334576123346137a0565b1461233e57600080fd5b60028101546001600160a01b031633146123b55760405162461bcd60e51b815260206004820152603260248201527f4f726465722064656c697665727920666565206d75737420626520696e637265604482015271185cd95908189e481d1a194818db1a595b9d60721b60648201526084016109e8565b348160060160008282546123c99190613e40565b90915550505050565b33600090815260208190526040902060038101805460019190849081106121a0576121a0613aa6565b6007818154811061240b57600080fd5b60009182526020909120600f909102018054600182015460028301546003840154600685015460078601546008870180549698506001600160a01b039586169794861696959093169491939092909161246390613ad2565b80601f016020809104026020016040519081016040528092919081815260200182805461248f90613ad2565b80156124dc5780601f106124b1576101008083540402835291602001916124dc565b820191906000526020600020905b8154815290600101906020018083116124bf57829003601f168201915b5050506009840154600a850154600b860154600c870154600d880154600e90980154969760ff9094169692955090935091908d565b6001600160a01b038089166000908152602081905260409020805490911661257b5760405162461bcd60e51b815260206004820152601a60248201527f496e76616c69642072657374617572616e74206164647265737300000000000060448201526064016109e8565b60005b87811015612637578160030189898381811061259c5761259c613aa6565b90506020020135815481106125b3576125b3613aa6565b600091825260209091206004600590920201015460ff1615156001146126275760405162461bcd60e51b815260206004820152602360248201527f4f7264657220636f6e7461696e7320756e617661696c61626c65206974656d7360448201526217171760e91b60648201526084016109e8565b61263081613e27565b905061257e565b506000806126498b8b8b8b8b8b61132e565b90925090506126588183613e40565b34101561269f5760405162461bcd60e51b8152602060048201526015602482015274125b98dbdc9c9958dd08185b5bdd5b9d081c185a59605a1b60448201526064016109e8565b600060078054905090506007604051806101e001604052808381526020018e6001600160a01b03168152602001336001600160a01b0316815260200160006001600160a01b031681526020018d8d808060200260200160405190810160405280939291908181526020018383602002808284376000920191909152505050908252506040805160208d810282810182019093528d82529283019290918e918e918291850190849080828437600092019190915250505090825250602080820186905260408083018890528051601f8b01839004830281018301909152898152606090920191908a908a90819084018382808284376000920182905250938552505050602080830182905260408084018390526060808501849052608080860185905260a0860185905260c0909501849052865460018082018955978552938390208651600f909502019384558583015196840180546001600160a01b039889166001600160a01b03199182161790915591860151600285018054918916918416919091179055850151600384018054919097169116179094559082015180519293919261285292600485019201906131da565b5060a0820151805161286e9160058401916020909101906131da565b5060c0820151600682015560e0820151600782015561010082015160088201906128989082613b5a565b5061012082015160098201805460ff191660018360068111156128bd576128bd6137a0565b0217905550610140820151600a820155610160820151600b820155610180820151600c8201556101a0820151600d8201556101c090910151600e90910155336000908152600260209081526040808320805460018181018355918552838520018590556001600160a01b039f909f16835260048252822080549e8f01815582529020909b019a909a5550505050505050505050565b60098181548110611d3b57600080fd5b60006007828154811061297757612977613aa6565b90600052602060002090600f02019050818160000154146129aa5760405162461bcd60e51b81526004016109e890613c19565b60018101546001600160a01b03163314612a185760405162461bcd60e51b815260206004820152602960248201527f4f6e6c79207468652072657374617572616e742063616e206465636c696e65206044820152683a34329037b93232b960b91b60648201526084016109e8565b6000600982015460ff166006811115612a3357612a336137a0565b14612a785760405162461bcd60e51b81526020600482015260156024820152744f72646572206d7573742062652070656e64696e6760581b60448201526064016109e8565b6002810154600682015460078301546001600160a01b039092169182916108fc91612aa39190613e40565b6040518115909202916000818181858888f19350505050612ad65760405162461bcd60e51b81526004016109e890613f13565b50600901805460ff1916600617905550565b6002602052816000526040600020818154811061086357600080fd5b600060078281548110612b1957612b19613aa6565b90600052602060002090600f0201905081816000015414612b4c5760405162461bcd60e51b81526004016109e890613c19565b6004600982015460ff166006811115612b6757612b676137a0565b14612b7157600080fd5b60028101546001600160a01b03163314612be05760405162461bcd60e51b815260206004820152602a60248201527f4f726465722064656c6976657279206d75737420626520636f6e6669726d656460448201526908189e4818db1a595b9d60b21b60648201526084016109e8565b600081600c015482600d0154612bf69190613f4a565b9050600082600d015442612c0a9190613f4a565b9050600083600601548460070154612c229190613e40565b9050600080600080600a905087600a0154871115612c59576064886007015482612c4c9190613dee565b612c569190613e05565b92505b87600b0154861115612c84576064886006015482612c779190613dee565b612c819190613e05565b91505b6001880154600389015460028a015460078b01546001600160a01b03938416939283169290911690600090612cba908890613f4a565b90506000868d60060154612cce9190613f4a565b6040519091506001600160a01b0386169083156108fc029084906000818181858888f19350505050612d4e5760405162461bcd60e51b8152602060048201526024808201527f4661696c656420746f2073656e64207061796d656e7420746f207265737461756044820152631c985b9d60e21b60648201526084016109e8565b6040516001600160a01b0385169082156108fc029083906000818181858888f19350505050612dc95760405162461bcd60e51b815260206004820152602160248201527f4661696c656420746f2073656e64207061796d656e7420746f20636f757269656044820152603960f91b60648201526084016109e8565b6001600160a01b0383166108fc612de0898b613e40565b6040518115909202916000818181858888f19350505050612e435760405162461bcd60e51b815260206004820181905260248201527f4661696c656420746f2073656e64207061796d656e7420746f20636c69656e7460448201526064016109e8565b50505050600998909801805460ff19166005179055505050505050505050565b60036020526000908152604090208054600182015460028301805492939192610e5890613ad2565b60008080805b6001600160a01b038516600090815260046020526040902054811015612f44576001600160a01b0385166000908152600460205260408120805483908110612edb57612edb613aa6565b9060005260206000200154905080600360008381526020019081526020016000206000015403612f3157600081815260036020526040902060010154612f219085613e40565b935082612f2d81613e27565b9350505b5080612f3c81613e27565b915050612e91565b5080600003612f57575060009392505050565b612f618183613e05565b949350505050565b600060078281548110612f7e57612f7e613aa6565b90600052602060002090600f0201905081816000015414612fb15760405162461bcd60e51b81526004016109e890613c19565b6002600982015460ff166006811115612fcc57612fcc6137a0565b14612fd657600080fd5b60018101546001600160a01b031633146130665760405162461bcd60e51b8152602060048201526044602482018190527f4f72646572206d757374206265206d61726b656420726561647920746f206465908201527f6c69766572206279207468652072657374617572616e74206f6620746865206f606482015263393232b960e11b608482015260a4016109e8565b6009810180546003919060ff1916600183610c6c565b60005b60065481101561313457816006828154811061309d5761309d613aa6565b90600052602060002001540361312257600680546130bd90600190613f4a565b815481106130cd576130cd613aa6565b9060005260206000200154600682815481106130eb576130eb613aa6565b600091825260209091200155600680548061310857613108613f5d565b600190038181906000526020600020016000905590555050565b8061312c81613e27565b91505061307f565b5050565b604051806101e001604052806000815260200160006001600160a01b0316815260200160006001600160a01b0316815260200160006001600160a01b031681526020016060815260200160608152602001600081526020016000815260200160608152602001600060068111156131b1576131b16137a0565b815260200160008152602001600081526020016000815260200160008152602001600081525090565b828054828255906000526020600020908101928215613215579160200282015b828111156132155782518255916020019190600101906131fa565b50613221929150613225565b5090565b5b808211156132215760008155600101613226565b80356001600160a01b038116811461325157600080fd5b919050565b6000806040838503121561326957600080fd5b6132728361323a565b946020939093013593505050565b60008083601f84011261329257600080fd5b5081356001600160401b038111156132a957600080fd5b6020830191508360208285010111156132c157600080fd5b9250929050565b600080600080600080608087890312156132e157600080fd5b8635955060208701356001600160401b03808211156132ff57600080fd5b61330b8a838b01613280565b9097509550604089013591508082111561332457600080fd5b5061333189828a01613280565b979a9699509497949695606090950135949350505050565b6000806000806060858703121561335f57600080fd5b843593506020850135925060408501356001600160401b0381111561338357600080fd5b61338f87828801613280565b95989497509550505050565b6000602082840312156133ad57600080fd5b6133b68261323a565b9392505050565b6000602082840312156133cf57600080fd5b5035919050565b6000815180845260005b818110156133fc576020818501810151868301820152016133e0565b506000602082860101526020601f19601f83011685010191505092915050565b6001600160a01b0384168152606060208201819052600090613440908301856133d6565b828103604084015261345281856133d6565b9695505050505050565b6000806040838503121561346f57600080fd5b50508035926020909101359150565b805182526000602082015160a0602085015261349d60a08501826133d6565b9050604083015184820360408601526134b682826133d6565b915050606083015160608501526080830151151560808501528091505092915050565b600081518084526020808501945080840160005b83811015613509578151875295820195908201906001016134ed565b509495945050505050565b6000604082016040835280855180835260608501915060608160051b8601019250602080880160005b8381101561356b57605f1988870301855261355986835161347e565b9550938201939082019060010161353d565b505085840381870152505050610d9581856134d9565b60008083601f84011261359357600080fd5b5081356001600160401b038111156135aa57600080fd5b6020830191508360208260051b85010111156132c157600080fd5b600080600080600080608087890312156135de57600080fd5b6135e78761323a565b955060208701356001600160401b038082111561360357600080fd5b61360f8a838b01613581565b9097509550604089013591508082111561362857600080fd5b5061333189828a01613581565b6000806020838503121561364857600080fd5b82356001600160401b0381111561365e57600080fd5b61366a85828601613280565b90969095509350505050565b6001600160a01b0383168152604060208201819052600090612f61908301846133d6565b6000806000806000606086880312156136b257600080fd5b85356001600160401b03808211156136c957600080fd5b6136d589838a01613280565b909750955060208801359150808211156136ee57600080fd5b506136fb88828901613280565b96999598509660400135949350505050565b6020815260006133b6602083018461347e565b6000806000806040858703121561373657600080fd5b84356001600160401b038082111561374d57600080fd5b61375988838901613280565b9096509450602087013591508082111561377257600080fd5b5061338f87828801613280565b60006020828403121561379157600080fd5b8135600781106133b657600080fd5b634e487b7160e01b600052602160045260246000fd5b600781106137d457634e487b7160e01b600052602160045260246000fd5b9052565b60006020808301818452808551808352604092508286019150828160051b87010184880160005b8381101561390b57603f19898403018552815180518452878101516001600160a01b039081168986015287820151811688860152606080830151909116908501526080808201516101e0828701819052919061385d838801826134d9565b9250505060a0808301518683038288015261387883826134d9565b9250505060c080830151818701525060e080830151818701525061010080830151868303828801526138aa83826133d6565b92505050610120808301516138c1828801826137b6565b50506101408281015190860152610160808301519086015261018080830151908601526101a080830151908601526101c091820151919094015293860193908601906001016137ff565b509098975050505050505050565b60208152815160208201526020820151604082015260006040830151606080840152612f6160808401826133d6565b8d81526001600160a01b038d811660208301528c811660408301528b166060820152608081018a905260a081018990526101a060c082018190526000906139919083018a6133d6565b90506139a060e08301896137b6565b6101008201969096526101208101949094526101408401929092526101608301526101809091015298975050505050505050565b60008060008060008060008060a0898b0312156139f057600080fd5b6139f98961323a565b975060208901356001600160401b0380821115613a1557600080fd5b613a218c838d01613581565b909950975060408b0135915080821115613a3a57600080fd5b613a468c838d01613581565b909750955060608b0135945060808b0135915080821115613a6657600080fd5b50613a738b828c01613280565b999c989b5096995094979396929594505050565b838152826020820152606060408201526000610d9560608301846133d6565b634e487b7160e01b600052603260045260246000fd5b634e487b7160e01b600052604160045260246000fd5b600181811c90821680613ae657607f821691505b602082108103613b0657634e487b7160e01b600052602260045260246000fd5b50919050565b601f821115610ffb57600081815260208120601f850160051c81016020861015613b335750805b601f850160051c820191505b81811015613b5257828155600101613b3f565b505050505050565b81516001600160401b03811115613b7357613b73613abc565b613b8781613b818454613ad2565b84613b0c565b602080601f831160018114613bbc5760008415613ba45750858301515b600019600386901b1c1916600185901b178555613b52565b600085815260208120601f198616915b82811015613beb57888601518255948401946001909101908401613bcc565b5085821015613c095787850151600019600388901b60f8161c191681555b5050505050600190811b01905550565b60208082526022908201527f4f72646572207769746820676976656e20696420646f6573206e6f74206578696040820152611cdd60f21b606082015260800190565b805169ffffffffffffffffffff8116811461325157600080fd5b600080600080600060a08688031215613c8d57600080fd5b613c9686613c5b565b9450602086015193506040860151925060608601519150613cb960808701613c5b565b90509295509295909350565b600060208284031215613cd757600080fd5b815160ff811681146133b657600080fd5b634e487b7160e01b600052601160045260246000fd5b600181815b80851115613d39578160001904821115613d1f57613d1f613ce8565b80851615613d2c57918102915b93841c9390800290613d03565b509250929050565b600082613d5057506001611d04565b81613d5d57506000611d04565b8160018114613d735760028114613d7d57613d99565b6001915050611d04565b60ff841115613d8e57613d8e613ce8565b50506001821b611d04565b5060208310610133831016604e8410600b8410161715613dbc575081810a611d04565b613dc68383613cfe565b8060001904821115613dda57613dda613ce8565b029392505050565b60006133b68383613d41565b8082028115828204841417611d0457611d04613ce8565b600082613e2257634e487b7160e01b600052601260045260246000fd5b500490565b600060018201613e3957613e39613ce8565b5060010190565b80820180821115611d0457611d04613ce8565b6001600160401b03831115613e6a57613e6a613abc565b613e7e83613e788354613ad2565b83613b0c565b6000601f841160018114613eb25760008515613e9a5750838201355b600019600387901b1c1916600186901b178355613f0c565b600083815260209020601f19861690835b82811015613ee35786850135825560209485019460019092019101613ec3565b5086821015613f005760001960f88860031b161c19848701351681555b505060018560011b0183555b5050505050565b60208082526017908201527f4661696c656420746f20726566756e6420636c69656e74000000000000000000604082015260600190565b81810381811115611d0457611d04613ce8565b634e487b7160e01b600052603160045260246000fdfea2646970667358221220ab440b4d0316db2cdd5980f48e9e10a04705d06cdafa5a2c3e24a380ba5bb9dc64736f6c63430008110033","bytecodeSha1":"71950c0a1123a3c797267eb938234b5af644e1cc","compiler":{"evm_version":"istanbul","optimizer":{"enabled":true,"runs":200},"version":"0.8.17+commit.8df45f5f"},"contractName":"FoodDelivery","language":"Solidity","natspec":{"kind":"dev","methods":{},"version":1},"opcodes":"PUSH1 0x80 PUSH1 0x40 MSTORE PUSH1 0x4 CALLDATASIZE LT PUSH2 0x246 JUMPI PUSH1 0x0 CALLDATALOAD PUSH1 0xE0 SHR DUP1 PUSH4 0x85B6EC06 GT PUSH2 0x139 JUMPI DUP1 PUSH4 0xBDACE182 GT PUSH2 0xB6 JUMPI DUP1 PUSH4 0xDEE9E164 GT PUSH2 0x7A JUMPI DUP1 PUSH4 0xDEE9E164 EQ PUSH2 0x783 JUMPI DUP1 PUSH4 0xE742A182 EQ PUSH2 0x7A3 JUMPI DUP1 PUSH4 0xE83DDCEA EQ PUSH2 0x7C3 JUMPI DUP1 PUSH4 0xEFF6ED6B EQ PUSH2 0x7F2 JUMPI DUP1 PUSH4 0xF13B84B6 EQ PUSH2 0x807 JUMPI DUP1 PUSH4 0xFEDF1A87 EQ PUSH2 0x827 JUMPI PUSH1 0x0 DUP1 REVERT JUMPDEST DUP1 PUSH4 0xBDACE182 EQ PUSH2 0x6BF JUMPI DUP1 PUSH4 0xBE47DCA1 EQ PUSH2 0x6DF JUMPI DUP1 PUSH4 0xC59C521A EQ PUSH2 0x6F4 JUMPI DUP1 PUSH4 0xCCBDB85C EQ PUSH2 0x72D JUMPI DUP1 PUSH4 0xD3168A66 EQ PUSH2 0x74D JUMPI PUSH1 0x0 DUP1 REVERT JUMPDEST DUP1 PUSH4 0x990581B6 GT PUSH2 0xFD JUMPI DUP1 PUSH4 0x990581B6 EQ PUSH2 0x613 JUMPI DUP1 PUSH4 0x9B51BD21 EQ PUSH2 0x640 JUMPI DUP1 PUSH4 0x9CBCFED5 EQ PUSH2 0x653 JUMPI DUP1 PUSH4 0xA85C38EF EQ PUSH2 0x673 JUMPI DUP1 PUSH4 0xABFD0687 EQ PUSH2 0x6AC JUMPI PUSH1 0x0 DUP1 REVERT JUMPDEST DUP1 PUSH4 0x85B6EC06 EQ PUSH2 0x566 JUMPI DUP1 PUSH4 0x880D4EE8 EQ PUSH2 0x586 JUMPI DUP1 PUSH4 0x8CE2EC79 EQ PUSH2 0x5A6 JUMPI DUP1 PUSH4 0x92184BFB EQ PUSH2 0x5D3 JUMPI DUP1 PUSH4 0x9827E44D EQ PUSH2 0x5F3 JUMPI PUSH1 0x0 DUP1 REVERT JUMPDEST DUP1 PUSH4 0x3D05A334 GT PUSH2 0x1C7 JUMPI DUP1 PUSH4 0x61EED2A9 GT PUSH2 0x18B JUMPI DUP1 PUSH4 0x61EED2A9 EQ PUSH2 0x4B6 JUMPI DUP1 PUSH4 0x64432EB8 EQ PUSH2 0x4E4 JUMPI DUP1 PUSH4 0x68AD5B83 EQ PUSH2 0x504 JUMPI DUP1 PUSH4 0x6D4166E9 EQ PUSH2 0x531 JUMPI DUP1 PUSH4 0x708D2612 EQ PUSH2 0x546 JUMPI PUSH1 0x0 DUP1 REVERT JUMPDEST DUP1 PUSH4 0x3D05A334 EQ PUSH2 0x3E8 JUMPI DUP1 PUSH4 0x42F6FB29 EQ PUSH2 0x408 JUMPI DUP1 PUSH4 0x4C6448FE EQ PUSH2 0x440 JUMPI DUP1 PUSH4 0x4D649A42 EQ PUSH2 0x460 JUMPI DUP1 PUSH4 0x514FCAC7 EQ PUSH2 0x496 JUMPI PUSH1 0x0 DUP1 REVERT JUMPDEST DUP1 PUSH4 0x226AFFB8 GT PUSH2 0x20E JUMPI DUP1 PUSH4 0x226AFFB8 EQ PUSH2 0x316 JUMPI DUP1 PUSH4 0x236CD7DC EQ PUSH2 0x336 JUMPI DUP1 PUSH4 0x2EAB93CB EQ PUSH2 0x365 JUMPI DUP1 PUSH4 0x37A3F817 EQ PUSH2 0x385 JUMPI DUP1 PUSH4 0x3A2D20D1 EQ PUSH2 0x3B3 JUMPI PUSH1 0x0 DUP1 REVERT JUMPDEST DUP1 PUSH4 0x2682893 EQ PUSH2 0x24B JUMPI DUP1 PUSH4 0x6A6034F EQ PUSH2 0x27E JUMPI DUP1 PUSH4 0xBBACB20 EQ PUSH2 0x29E JUMPI DUP1 PUSH4 0xBDC3B22 EQ PUSH2 0x2C0 JUMPI DUP1 PUSH4 0x1AE78A85 EQ PUSH2 0x2F6 JUMPI JUMPDEST PUSH1 0x0 DUP1 REVERT JUMPDEST CALLVALUE DUP1 ISZERO PUSH2 0x257 JUMPI PUSH1 0x0 DUP1 REVERT JUMPDEST POP PUSH2 0x26B PUSH2 0x266 CALLDATASIZE PUSH1 0x4 PUSH2 0x3256 JUMP JUMPDEST PUSH2 0x847 JUMP JUMPDEST PUSH1 0x40 MLOAD SWAP1 DUP2 MSTORE PUSH1 0x20 ADD JUMPDEST PUSH1 0x40 MLOAD DUP1 SWAP2 SUB SWAP1 RETURN JUMPDEST CALLVALUE DUP1 ISZERO PUSH2 0x28A JUMPI PUSH1 0x0 DUP1 REVERT JUMPDEST POP PUSH2 0x26B PUSH2 0x299 CALLDATASIZE PUSH1 0x4 PUSH2 0x32C8 JUMP JUMPDEST PUSH2 0x878 JUMP JUMPDEST CALLVALUE DUP1 ISZERO PUSH2 0x2AA JUMPI PUSH1 0x0 DUP1 REVERT JUMPDEST POP PUSH2 0x2BE PUSH2 0x2B9 CALLDATASIZE PUSH1 0x4 PUSH2 0x3349 JUMP JUMPDEST PUSH2 0x9A0 JUMP JUMPDEST STOP JUMPDEST CALLVALUE DUP1 ISZERO PUSH2 0x2CC JUMPI PUSH1 0x0 DUP1 REVERT JUMPDEST POP PUSH2 0x26B PUSH2 0x2DB CALLDATASIZE PUSH1 0x4 PUSH2 0x339B JUMP JUMPDEST PUSH1 0x1 PUSH1 0x1 PUSH1 0xA0 SHL SUB AND PUSH1 0x0 SWAP1 DUP2 MSTORE PUSH1 0x5 PUSH1 0x20 MSTORE PUSH1 0x40 SWAP1 KECCAK256 SLOAD SWAP1 JUMP JUMPDEST CALLVALUE DUP1 ISZERO PUSH2 0x302 JUMPI PUSH1 0x0 DUP1 REVERT JUMPDEST POP PUSH2 0x2BE PUSH2 0x311 CALLDATASIZE PUSH1 0x4 PUSH2 0x33BD JUMP JUMPDEST PUSH2 0xB75 JUMP JUMPDEST CALLVALUE DUP1 ISZERO PUSH2 0x322 JUMPI PUSH1 0x0 DUP1 REVERT JUMPDEST POP PUSH2 0x26B PUSH2 0x331 CALLDATASIZE PUSH1 0x4 PUSH2 0x33BD JUMP JUMPDEST PUSH2 0xC75 JUMP JUMPDEST CALLVALUE DUP1 ISZERO PUSH2 0x342 JUMPI PUSH1 0x0 DUP1 REVERT JUMPDEST POP PUSH2 0x356 PUSH2 0x351 CALLDATASIZE PUSH1 0x4 PUSH2 0x339B JUMP JUMPDEST PUSH2 0xD9E JUMP JUMPDEST PUSH1 0x40 MLOAD PUSH2 0x275 SWAP4 SWAP3 SWAP2 SWAP1 PUSH2 0x341C JUMP JUMPDEST CALLVALUE DUP1 ISZERO PUSH2 0x371 JUMPI PUSH1 0x0 DUP1 REVERT JUMPDEST POP PUSH2 0x2BE PUSH2 0x380 CALLDATASIZE PUSH1 0x4 PUSH2 0x345C JUMP JUMPDEST PUSH2 0xEDB JUMP JUMPDEST CALLVALUE DUP1 ISZERO PUSH2 0x391 JUMPI PUSH1 0x0 DUP1 REVERT JUMPDEST POP PUSH2 0x3A5 PUSH2 0x3A0 CALLDATASIZE PUSH1 0x4 PUSH2 0x33BD JUMP JUMPDEST PUSH2 0x1000 JUMP JUMPDEST PUSH1 0x40 MLOAD PUSH2 0x275 SWAP3 SWAP2 SWAP1 PUSH2 0x3514 JUMP JUMPDEST CALLVALUE DUP1 ISZERO PUSH2 0x3BF JUMPI PUSH1 0x0 DUP1 REVERT JUMPDEST POP PUSH2 0x3D3 PUSH2 0x3CE CALLDATASIZE PUSH1 0x4 PUSH2 0x35C5 JUMP JUMPDEST PUSH2 0x132E JUMP JUMPDEST PUSH1 0x40 DUP1 MLOAD SWAP3 DUP4 MSTORE PUSH1 0x20 DUP4 ADD SWAP2 SWAP1 SWAP2 MSTORE ADD PUSH2 0x275 JUMP JUMPDEST CALLVALUE DUP1 ISZERO PUSH2 0x3F4 JUMPI PUSH1 0x0 DUP1 REVERT JUMPDEST POP PUSH2 0x2BE PUSH2 0x403 CALLDATASIZE PUSH1 0x4 PUSH2 0x345C JUMP JUMPDEST PUSH2 0x145D JUMP JUMPDEST CALLVALUE DUP1 ISZERO PUSH2 0x414 JUMPI PUSH1 0x0 DUP1 REVERT JUMPDEST POP PUSH1 0xB SLOAD PUSH2 0x428 SWAP1 PUSH1 0x1 PUSH1 0x1 PUSH1 0xA0 SHL SUB AND DUP2 JUMP JUMPDEST PUSH1 0x40 MLOAD PUSH1 0x1 PUSH1 0x1 PUSH1 0xA0 SHL SUB SWAP1 SWAP2 AND DUP2 MSTORE PUSH1 0x20 ADD PUSH2 0x275 JUMP JUMPDEST CALLVALUE DUP1 ISZERO PUSH2 0x44C JUMPI PUSH1 0x0 DUP1 REVERT JUMPDEST POP PUSH2 0x2BE PUSH2 0x45B CALLDATASIZE PUSH1 0x4 PUSH2 0x3635 JUMP JUMPDEST PUSH2 0x15FE JUMP JUMPDEST CALLVALUE DUP1 ISZERO PUSH2 0x46C JUMPI PUSH1 0x0 DUP1 REVERT JUMPDEST POP PUSH2 0x26B PUSH2 0x47B CALLDATASIZE PUSH1 0x4 PUSH2 0x339B JUMP JUMPDEST PUSH1 0x1 PUSH1 0x1 PUSH1 0xA0 SHL SUB AND PUSH1 0x0 SWAP1 DUP2 MSTORE PUSH1 0x4 PUSH1 0x20 MSTORE PUSH1 0x40 SWAP1 KECCAK256 SLOAD SWAP1 JUMP JUMPDEST CALLVALUE DUP1 ISZERO PUSH2 0x4A2 JUMPI PUSH1 0x0 DUP1 REVERT JUMPDEST POP PUSH2 0x2BE PUSH2 0x4B1 CALLDATASIZE PUSH1 0x4 PUSH2 0x33BD JUMP JUMPDEST PUSH2 0x1676 JUMP JUMPDEST CALLVALUE DUP1 ISZERO PUSH2 0x4C2 JUMPI PUSH1 0x0 DUP1 REVERT JUMPDEST POP PUSH2 0x4D6 PUSH2 0x4D1 CALLDATASIZE PUSH1 0x4 PUSH2 0x339B JUMP JUMPDEST PUSH2 0x1973 JUMP JUMPDEST PUSH1 0x40 MLOAD PUSH2 0x275 SWAP3 SWAP2 SWAP1 PUSH2 0x3676 JUMP JUMPDEST CALLVALUE DUP1 ISZERO PUSH2 0x4F0 JUMPI PUSH1 0x0 DUP1 REVERT JUMPDEST POP PUSH2 0x26B PUSH2 0x4FF CALLDATASIZE PUSH1 0x4 PUSH2 0x369A JUMP JUMPDEST PUSH2 0x1A23 JUMP JUMPDEST CALLVALUE DUP1 ISZERO PUSH2 0x510 JUMPI PUSH1 0x0 DUP1 REVERT JUMPDEST POP PUSH2 0x524 PUSH2 0x51F CALLDATASIZE PUSH1 0x4 PUSH2 0x3256 JUMP JUMPDEST PUSH2 0x1B3F JUMP JUMPDEST PUSH1 0x40 MLOAD PUSH2 0x275 SWAP2 SWAP1 PUSH2 0x370D JUMP JUMPDEST CALLVALUE DUP1 ISZERO PUSH2 0x53D JUMPI PUSH1 0x0 DUP1 REVERT JUMPDEST POP PUSH1 0x8 SLOAD PUSH2 0x26B JUMP JUMPDEST CALLVALUE DUP1 ISZERO PUSH2 0x552 JUMPI PUSH1 0x0 DUP1 REVERT JUMPDEST POP PUSH2 0x26B PUSH2 0x561 CALLDATASIZE PUSH1 0x4 PUSH2 0x33BD JUMP JUMPDEST PUSH2 0x1D0A JUMP JUMPDEST CALLVALUE DUP1 ISZERO PUSH2 0x572 JUMPI PUSH1 0x0 DUP1 REVERT JUMPDEST POP PUSH2 0x428 PUSH2 0x581 CALLDATASIZE PUSH1 0x4 PUSH2 0x33BD JUMP JUMPDEST PUSH2 0x1D2B JUMP JUMPDEST CALLVALUE DUP1 ISZERO PUSH2 0x592 JUMPI PUSH1 0x0 DUP1 REVERT JUMPDEST POP PUSH2 0x2BE PUSH2 0x5A1 CALLDATASIZE PUSH1 0x4 PUSH2 0x3720 JUMP JUMPDEST PUSH2 0x1D55 JUMP JUMPDEST CALLVALUE DUP1 ISZERO PUSH2 0x5B2 JUMPI PUSH1 0x0 DUP1 REVERT JUMPDEST POP PUSH2 0x5C6 PUSH2 0x5C1 CALLDATASIZE PUSH1 0x4 PUSH2 0x377F JUMP JUMPDEST PUSH2 0x1DDE JUMP JUMPDEST PUSH1 0x40 MLOAD PUSH2 0x275 SWAP2 SWAP1 PUSH2 0x37D8 JUMP JUMPDEST CALLVALUE DUP1 ISZERO PUSH2 0x5DF JUMPI PUSH1 0x0 DUP1 REVERT JUMPDEST POP PUSH2 0x2BE PUSH2 0x5EE CALLDATASIZE PUSH1 0x4 PUSH2 0x33BD JUMP JUMPDEST PUSH2 0x2178 JUMP JUMPDEST CALLVALUE DUP1 ISZERO PUSH2 0x5FF JUMPI PUSH1 0x0 DUP1 REVERT JUMPDEST POP PUSH2 0x26B PUSH2 0x60E CALLDATASIZE PUSH1 0x4 PUSH2 0x3256 JUMP JUMPDEST PUSH2 0x21C6 JUMP JUMPDEST CALLVALUE DUP1 ISZERO PUSH2 0x61F JUMPI PUSH1 0x0 DUP1 REVERT JUMPDEST POP PUSH2 0x633 PUSH2 0x62E CALLDATASIZE PUSH1 0x4 PUSH2 0x33BD JUMP JUMPDEST PUSH2 0x21E2 JUMP JUMPDEST PUSH1 0x40 MLOAD PUSH2 0x275 SWAP2 SWAP1 PUSH2 0x3919 JUMP JUMPDEST PUSH2 0x2BE PUSH2 0x64E CALLDATASIZE PUSH1 0x4 PUSH2 0x33BD JUMP JUMPDEST PUSH2 0x22D1 JUMP JUMPDEST CALLVALUE DUP1 ISZERO PUSH2 0x65F JUMPI PUSH1 0x0 DUP1 REVERT JUMPDEST POP PUSH2 0x2BE PUSH2 0x66E CALLDATASIZE PUSH1 0x4 PUSH2 0x33BD JUMP JUMPDEST PUSH2 0x23D2 JUMP JUMPDEST CALLVALUE DUP1 ISZERO PUSH2 0x67F JUMPI PUSH1 0x0 DUP1 REVERT JUMPDEST POP PUSH2 0x693 PUSH2 0x68E CALLDATASIZE PUSH1 0x4 PUSH2 0x33BD JUMP JUMPDEST PUSH2 0x23FB JUMP JUMPDEST PUSH1 0x40 MLOAD PUSH2 0x275 SWAP14 SWAP13 SWAP12 SWAP11 SWAP10 SWAP9 SWAP8 SWAP7 SWAP6 SWAP5 SWAP4 SWAP3 SWAP2 SWAP1 PUSH2 0x3948 JUMP JUMPDEST PUSH2 0x2BE PUSH2 0x6BA CALLDATASIZE PUSH1 0x4 PUSH2 0x39D4 JUMP JUMPDEST PUSH2 0x2511 JUMP JUMPDEST CALLVALUE DUP1 ISZERO PUSH2 0x6CB JUMPI PUSH1 0x0 DUP1 REVERT JUMPDEST POP PUSH2 0x428 PUSH2 0x6DA CALLDATASIZE PUSH1 0x4 PUSH2 0x33BD JUMP JUMPDEST PUSH2 0x2952 JUMP JUMPDEST CALLVALUE DUP1 ISZERO PUSH2 0x6EB JUMPI PUSH1 0x0 DUP1 REVERT JUMPDEST POP PUSH1 0x9 SLOAD PUSH2 0x26B JUMP JUMPDEST CALLVALUE DUP1 ISZERO PUSH2 0x700 JUMPI PUSH1 0x0 DUP1 REVERT JUMPDEST POP PUSH2 0x26B PUSH2 0x70F CALLDATASIZE PUSH1 0x4 PUSH2 0x339B JUMP JUMPDEST PUSH1 0x1 PUSH1 0x1 PUSH1 0xA0 SHL SUB AND PUSH1 0x0 SWAP1 DUP2 MSTORE PUSH1 0x20 DUP2 SWAP1 MSTORE PUSH1 0x40 SWAP1 KECCAK256 PUSH1 0x3 ADD SLOAD SWAP1 JUMP JUMPDEST CALLVALUE DUP1 ISZERO PUSH2 0x739 JUMPI PUSH1 0x0 DUP1 REVERT JUMPDEST POP PUSH2 0x2BE PUSH2 0x748 CALLDATASIZE PUSH1 0x4 PUSH2 0x33BD JUMP JUMPDEST PUSH2 0x2962 JUMP JUMPDEST CALLVALUE DUP1 ISZERO PUSH2 0x759 JUMPI PUSH1 0x0 DUP1 REVERT JUMPDEST POP PUSH2 0x26B PUSH2 0x768 CALLDATASIZE PUSH1 0x4 PUSH2 0x339B JUMP JUMPDEST PUSH1 0x1 PUSH1 0x1 PUSH1 0xA0 SHL SUB AND PUSH1 0x0 SWAP1 DUP2 MSTORE PUSH1 0x2 PUSH1 0x20 MSTORE PUSH1 0x40 SWAP1 KECCAK256 SLOAD SWAP1 JUMP JUMPDEST CALLVALUE DUP1 ISZERO PUSH2 0x78F JUMPI PUSH1 0x0 DUP1 REVERT JUMPDEST POP PUSH2 0x26B PUSH2 0x79E CALLDATASIZE PUSH1 0x4 PUSH2 0x3256 JUMP JUMPDEST PUSH2 0x2AE8 JUMP JUMPDEST CALLVALUE DUP1 ISZERO PUSH2 0x7AF JUMPI PUSH1 0x0 DUP1 REVERT JUMPDEST POP PUSH2 0x2BE PUSH2 0x7BE CALLDATASIZE PUSH1 0x4 PUSH2 0x33BD JUMP JUMPDEST PUSH2 0x2B04 JUMP JUMPDEST CALLVALUE DUP1 ISZERO PUSH2 0x7CF JUMPI PUSH1 0x0 DUP1 REVERT JUMPDEST POP PUSH2 0x7E3 PUSH2 0x7DE CALLDATASIZE PUSH1 0x4 PUSH2 0x33BD JUMP JUMPDEST PUSH2 0x2E63 JUMP JUMPDEST PUSH1 0x40 MLOAD PUSH2 0x275 SWAP4 SWAP3 SWAP2 SWAP1 PUSH2 0x3A87 JUMP JUMPDEST CALLVALUE DUP1 ISZERO PUSH2 0x7FE JUMPI PUSH1 0x0 DUP1 REVERT JUMPDEST POP PUSH1 0x6 SLOAD PUSH2 0x26B JUMP JUMPDEST CALLVALUE DUP1 ISZERO PUSH2 0x813 JUMPI PUSH1 0x0 DUP1 REVERT JUMPDEST POP PUSH2 0x26B PUSH2 0x822 CALLDATASIZE PUSH1 0x4 PUSH2 0x339B JUMP JUMPDEST PUSH2 0x2E8B JUMP JUMPDEST CALLVALUE DUP1 ISZERO PUSH2 0x833 JUMPI PUSH1 0x0 DUP1 REVERT JUMPDEST POP PUSH2 0x2BE PUSH2 0x842 CALLDATASIZE PUSH1 0x4 PUSH2 0x33BD JUMP JUMPDEST PUSH2 0x2F69 JUMP JUMPDEST PUSH1 0x4 PUSH1 0x20 MSTORE DUP2 PUSH1 0x0 MSTORE PUSH1 0x40 PUSH1 0x0 KECCAK256 DUP2 DUP2 SLOAD DUP2 LT PUSH2 0x863 JUMPI PUSH1 0x0 DUP1 REVERT JUMPDEST SWAP1 PUSH1 0x0 MSTORE PUSH1 0x20 PUSH1 0x0 KECCAK256 ADD PUSH1 0x0 SWAP2 POP SWAP2 POP POP SLOAD DUP2 JUMP JUMPDEST CALLER PUSH1 0x0 SWAP1 DUP2 MSTORE PUSH1 0x20 DUP2 DUP2 MSTORE PUSH1 0x40 DUP1 DUP4 KECCAK256 DUP2 MLOAD PUSH1 0xA0 DUP2 ADD DUP4 MSTORE DUP11 DUP2 MSTORE DUP3 MLOAD PUSH1 0x1F DUP11 ADD DUP6 SWAP1 DIV DUP6 MUL DUP2 ADD DUP6 ADD SWAP1 SWAP4 MSTORE DUP9 DUP4 MSTORE SWAP1 SWAP3 SWAP1 SWAP2 DUP3 DUP3 ADD SWAP2 DUP11 SWAP1 DUP11 SWAP1 DUP2 SWAP1 DUP5 ADD DUP4 DUP3 DUP1 DUP3 DUP5 CALLDATACOPY PUSH1 0x0 SWAP3 ADD SWAP2 SWAP1 SWAP2 MSTORE POP POP POP SWAP1 DUP3 MSTORE POP PUSH1 0x40 DUP1 MLOAD PUSH1 0x20 PUSH1 0x1F DUP10 ADD DUP2 SWAP1 DIV DUP2 MUL DUP3 ADD DUP2 ADD SWAP1 SWAP3 MSTORE DUP8 DUP2 MSTORE SWAP2 DUP2 ADD SWAP2 SWAP1 DUP9 SWAP1 DUP9 SWAP1 DUP2 SWAP1 DUP5 ADD DUP4 DUP3 DUP1 DUP3 DUP5 CALLDATACOPY PUSH1 0x0 SWAP3 ADD SWAP2 SWAP1 SWAP2 MSTORE POP POP POP SWAP1 DUP3 MSTORE POP PUSH1 0x20 DUP2 ADD DUP6 SWAP1 MSTORE PUSH1 0x1 PUSH1 0x40 SWAP1 SWAP2 ADD MSTORE PUSH1 0x3 DUP3 ADD DUP1 SLOAD DUP11 SWAP1 DUP2 LT PUSH2 0x92D JUMPI PUSH2 0x92D PUSH2 0x3AA6 JUMP JUMPDEST SWAP1 PUSH1 0x0 MSTORE PUSH1 0x20 PUSH1 0x0 KECCAK256 SWAP1 PUSH1 0x5 MUL ADD PUSH1 0x0 DUP3 ADD MLOAD DUP2 PUSH1 0x0 ADD SSTORE PUSH1 0x20 DUP3 ADD MLOAD DUP2 PUSH1 0x1 ADD SWAP1 DUP2 PUSH2 0x95A SWAP2 SWAP1 PUSH2 0x3B5A JUMP JUMPDEST POP PUSH1 0x40 DUP3 ADD MLOAD PUSH1 0x2 DUP3 ADD SWAP1 PUSH2 0x96F SWAP1 DUP3 PUSH2 0x3B5A JUMP JUMPDEST POP PUSH1 0x60 DUP3 ADD MLOAD PUSH1 0x3 DUP3 ADD SSTORE PUSH1 0x80 SWAP1 SWAP2 ADD MLOAD PUSH1 0x4 SWAP1 SWAP2 ADD DUP1 SLOAD PUSH1 0xFF NOT AND SWAP2 ISZERO ISZERO SWAP2 SWAP1 SWAP2 OR SWAP1 SSTORE POP SWAP6 SWAP7 SWAP6 POP POP POP POP POP POP JUMP JUMPDEST PUSH1 0x0 PUSH1 0x7 DUP6 DUP2 SLOAD DUP2 LT PUSH2 0x9B5 JUMPI PUSH2 0x9B5 PUSH2 0x3AA6 JUMP JUMPDEST SWAP1 PUSH1 0x0 MSTORE PUSH1 0x20 PUSH1 0x0 KECCAK256 SWAP1 PUSH1 0xF MUL ADD SWAP1 POP DUP5 DUP2 PUSH1 0x0 ADD SLOAD EQ PUSH2 0x9F1 JUMPI PUSH1 0x40 MLOAD PUSH3 0x461BCD PUSH1 0xE5 SHL DUP2 MSTORE PUSH1 0x4 ADD PUSH2 0x9E8 SWAP1 PUSH2 0x3C19 JUMP JUMPDEST PUSH1 0x40 MLOAD DUP1 SWAP2 SUB SWAP1 REVERT JUMPDEST PUSH1 0x2 DUP2 ADD SLOAD PUSH1 0x1 PUSH1 0x1 PUSH1 0xA0 SHL SUB AND CALLER EQ PUSH2 0xA73 JUMPI PUSH1 0x40 MLOAD PUSH3 0x461BCD PUSH1 0xE5 SHL DUP2 MSTORE PUSH1 0x20 PUSH1 0x4 DUP3 ADD MSTORE PUSH1 0x37 PUSH1 0x24 DUP3 ADD MSTORE PUSH32 0x4F6E6C792074686520636C69656E742077686F20706C6163656420746865206F PUSH1 0x44 DUP3 ADD MSTORE PUSH32 0x726465722063616E206C65617665206120726576696577000000000000000000 PUSH1 0x64 DUP3 ADD MSTORE PUSH1 0x84 ADD PUSH2 0x9E8 JUMP JUMPDEST PUSH1 0x5 PUSH1 0x9 DUP3 ADD SLOAD PUSH1 0xFF AND PUSH1 0x6 DUP2 GT ISZERO PUSH2 0xA8E JUMPI PUSH2 0xA8E PUSH2 0x37A0 JUMP JUMPDEST EQ PUSH2 0xAE9 JUMPI PUSH1 0x40 MLOAD PUSH3 0x461BCD PUSH1 0xE5 SHL DUP2 MSTORE PUSH1 0x20 PUSH1 0x4 DUP3 ADD MSTORE PUSH1 0x25 PUSH1 0x24 DUP3 ADD MSTORE PUSH32 0x4F6E6C792064656C697665726564206F72646572732063616E20626520726576 PUSH1 0x44 DUP3 ADD MSTORE PUSH5 0x1A595DD959 PUSH1 0xDA SHL PUSH1 0x64 DUP3 ADD MSTORE PUSH1 0x84 ADD PUSH2 0x9E8 JUMP JUMPDEST PUSH1 0x40 MLOAD DUP1 PUSH1 0x60 ADD PUSH1 0x40 MSTORE DUP1 DUP7 DUP2 MSTORE PUSH1 0x20 ADD DUP6 DUP2 MSTORE PUSH1 0x20 ADD DUP5 DUP5 DUP1 DUP1 PUSH1 0x1F ADD PUSH1 0x20 DUP1 SWAP2 DIV MUL PUSH1 0x20 ADD PUSH1 0x40 MLOAD SWAP1 DUP2 ADD PUSH1 0x40 MSTORE DUP1 SWAP4 SWAP3 SWAP2 SWAP1 DUP2 DUP2 MSTORE PUSH1 0x20 ADD DUP4 DUP4 DUP1 DUP3 DUP5 CALLDATACOPY PUSH1 0x0 SWAP3 ADD DUP3 SWAP1 MSTORE POP SWAP4 SWAP1 SWAP5 MSTORE POP POP DUP8 DUP2 MSTORE PUSH1 0x3 PUSH1 0x20 SWAP1 DUP2 MSTORE PUSH1 0x40 SWAP2 DUP3 SWAP1 KECCAK256 DUP5 MLOAD DUP2 SSTORE SWAP1 DUP5 ADD MLOAD PUSH1 0x1 DUP3 ADD SSTORE SWAP1 DUP4 ADD MLOAD SWAP1 SWAP2 POP PUSH1 0x2 DUP3 ADD SWAP1 PUSH2 0xB6B SWAP1 DUP3 PUSH2 0x3B5A JUMP JUMPDEST POP POP POP POP POP POP POP POP JUMP JUMPDEST PUSH1 0x0 PUSH1 0x7 DUP3 DUP2 SLOAD DUP2 LT PUSH2 0xB8A JUMPI PUSH2 0xB8A PUSH2 0x3AA6 JUMP JUMPDEST SWAP1 PUSH1 0x0 MSTORE PUSH1 0x20 PUSH1 0x0 KECCAK256 SWAP1 PUSH1 0xF MUL ADD SWAP1 POP DUP2 DUP2 PUSH1 0x0 ADD SLOAD EQ PUSH2 0xBBD JUMPI PUSH1 0x40 MLOAD PUSH3 0x461BCD PUSH1 0xE5 SHL DUP2 MSTORE PUSH1 0x4 ADD PUSH2 0x9E8 SWAP1 PUSH2 0x3C19 JUMP JUMPDEST PUSH1 0x3 PUSH1 0x9 DUP3 ADD SLOAD PUSH1 0xFF AND PUSH1 0x6 DUP2 GT ISZERO PUSH2 0xBD8 JUMPI PUSH2 0xBD8 PUSH2 0x37A0 JUMP JUMPDEST EQ PUSH2 0xBE2 JUMPI PUSH1 0x0 DUP1 REVERT JUMPDEST PUSH1 0x3 DUP2 ADD SLOAD PUSH1 0x1 PUSH1 0x1 PUSH1 0xA0 SHL SUB AND CALLER EQ PUSH2 0xC5A JUMPI PUSH1 0x40 MLOAD PUSH3 0x461BCD PUSH1 0xE5 SHL DUP2 MSTORE PUSH1 0x20 PUSH1 0x4 DUP3 ADD MSTORE PUSH1 0x33 PUSH1 0x24 DUP3 ADD MSTORE PUSH32 0x4F72646572206D7573742062652064656C69766572656420627920636F757269 PUSH1 0x44 DUP3 ADD MSTORE PUSH19 0x195C881D1A185D081858D8D95C1D1959081A5D PUSH1 0x6A SHL PUSH1 0x64 DUP3 ADD MSTORE PUSH1 0x84 ADD PUSH2 0x9E8 JUMP JUMPDEST PUSH1 0x9 DUP2 ADD DUP1 SLOAD PUSH1 0x4 SWAP2 SWAP1 PUSH1 0xFF NOT AND PUSH1 0x1 DUP4 JUMPDEST MUL OR SWAP1 SSTORE POP POP POP JUMP JUMPDEST PUSH1 0x0 DUP1 PUSH1 0xB PUSH1 0x0 SWAP1 SLOAD SWAP1 PUSH2 0x100 EXP SWAP1 DIV PUSH1 0x1 PUSH1 0x1 PUSH1 0xA0 SHL SUB AND PUSH1 0x1 PUSH1 0x1 PUSH1 0xA0 SHL SUB AND PUSH4 0xFEAF968C PUSH1 0x40 MLOAD DUP2 PUSH4 0xFFFFFFFF AND PUSH1 0xE0 SHL DUP2 MSTORE PUSH1 0x4 ADD PUSH1 0xA0 PUSH1 0x40 MLOAD DUP1 DUP4 SUB DUP2 DUP7 GAS STATICCALL ISZERO DUP1 ISZERO PUSH2 0xCCB JUMPI RETURNDATASIZE PUSH1 0x0 DUP1 RETURNDATACOPY RETURNDATASIZE PUSH1 0x0 REVERT JUMPDEST POP POP POP POP PUSH1 0x40 MLOAD RETURNDATASIZE PUSH1 0x1F NOT PUSH1 0x1F DUP3 ADD AND DUP3 ADD DUP1 PUSH1 0x40 MSTORE POP DUP2 ADD SWAP1 PUSH2 0xCEF SWAP2 SWAP1 PUSH2 0x3C75 JUMP JUMPDEST POP POP POP SWAP2 POP POP PUSH1 0x0 PUSH1 0xB PUSH1 0x0 SWAP1 SLOAD SWAP1 PUSH2 0x100 EXP SWAP1 DIV PUSH1 0x1 PUSH1 0x1 PUSH1 0xA0 SHL SUB AND PUSH1 0x1 PUSH1 0x1 PUSH1 0xA0 SHL SUB AND PUSH4 0x313CE567 PUSH1 0x40 MLOAD DUP2 PUSH4 0xFFFFFFFF AND PUSH1 0xE0 SHL DUP2 MSTORE PUSH1 0x4 ADD PUSH1 0x20 PUSH1 0x40 MLOAD DUP1 DUP4 SUB DUP2 DUP7 GAS STATICCALL ISZERO DUP1 ISZERO PUSH2 0xD4A JUMPI RETURNDATASIZE PUSH1 0x0 DUP1 RETURNDATACOPY RETURNDATASIZE PUSH1 0x0 REVERT JUMPDEST POP POP POP POP PUSH1 0x40 MLOAD RETURNDATASIZE PUSH1 0x1F NOT PUSH1 0x1F DUP3 ADD AND DUP3 ADD DUP1 PUSH1 0x40 MSTORE POP DUP2 ADD SWAP1 PUSH2 0xD6E SWAP2 SWAP1 PUSH2 0x3CC5 JUMP JUMPDEST SWAP1 POP PUSH1 0x0 DUP3 PUSH2 0xD81 PUSH1 0xFF DUP5 AND PUSH1 0xA PUSH2 0x3DE2 JUMP JUMPDEST PUSH2 0xD8B SWAP1 DUP8 PUSH2 0x3DEE JUMP JUMPDEST PUSH2 0xD95 SWAP2 SWAP1 PUSH2 0x3E05 JUMP JUMPDEST SWAP6 SWAP5 POP POP POP POP POP JUMP JUMPDEST PUSH1 0x0 PUSH1 0x20 DUP2 SWAP1 MSTORE SWAP1 DUP2 MSTORE PUSH1 0x40 SWAP1 KECCAK256 DUP1 SLOAD PUSH1 0x1 DUP3 ADD DUP1 SLOAD PUSH1 0x1 PUSH1 0x1 PUSH1 0xA0 SHL SUB SWAP1 SWAP3 AND SWAP3 SWAP2 PUSH2 0xDCA SWAP1 PUSH2 0x3AD2 JUMP JUMPDEST DUP1 PUSH1 0x1F ADD PUSH1 0x20 DUP1 SWAP2 DIV MUL PUSH1 0x20 ADD PUSH1 0x40 MLOAD SWAP1 DUP2 ADD PUSH1 0x40 MSTORE DUP1 SWAP3 SWAP2 SWAP1 DUP2 DUP2 MSTORE PUSH1 0x20 ADD DUP3 DUP1 SLOAD PUSH2 0xDF6 SWAP1 PUSH2 0x3AD2 JUMP JUMPDEST DUP1 ISZERO PUSH2 0xE43 JUMPI DUP1 PUSH1 0x1F LT PUSH2 0xE18 JUMPI PUSH2 0x100 DUP1 DUP4 SLOAD DIV MUL DUP4 MSTORE SWAP2 PUSH1 0x20 ADD SWAP2 PUSH2 0xE43 JUMP JUMPDEST DUP3 ADD SWAP2 SWAP1 PUSH1 0x0 MSTORE PUSH1 0x20 PUSH1 0x0 KECCAK256 SWAP1 JUMPDEST DUP2 SLOAD DUP2 MSTORE SWAP1 PUSH1 0x1 ADD SWAP1 PUSH1 0x20 ADD DUP1 DUP4 GT PUSH2 0xE26 JUMPI DUP3 SWAP1 SUB PUSH1 0x1F AND DUP3 ADD SWAP2 JUMPDEST POP POP POP POP POP SWAP1 DUP1 PUSH1 0x2 ADD DUP1 SLOAD PUSH2 0xE58 SWAP1 PUSH2 0x3AD2 JUMP JUMPDEST DUP1 PUSH1 0x1F ADD PUSH1 0x20 DUP1 SWAP2 DIV MUL PUSH1 0x20 ADD PUSH1 0x40 MLOAD SWAP1 DUP2 ADD PUSH1 0x40 MSTORE DUP1 SWAP3 SWAP2 SWAP1 DUP2 DUP2 MSTORE PUSH1 0x20 ADD DUP3 DUP1 SLOAD PUSH2 0xE84 SWAP1 PUSH2 0x3AD2 JUMP JUMPDEST DUP1 ISZERO PUSH2 0xED1 JUMPI DUP1 PUSH1 0x1F LT PUSH2 0xEA6 JUMPI PUSH2 0x100 DUP1 DUP4 SLOAD DIV MUL DUP4 MSTORE SWAP2 PUSH1 0x20 ADD SWAP2 PUSH2 0xED1 JUMP JUMPDEST DUP3 ADD SWAP2 SWAP1 PUSH1 0x0 MSTORE PUSH1 0x20 PUSH1 0x0 KECCAK256 SWAP1 JUMPDEST DUP2 SLOAD DUP2 MSTORE SWAP1 PUSH1 0x1 ADD SWAP1 PUSH1 0x20 ADD DUP1 DUP4 GT PUSH2 0xEB4 JUMPI DUP3 SWAP1 SUB PUSH1 0x1F AND DUP3 ADD SWAP2 JUMPDEST POP POP POP POP POP SWAP1 POP DUP4 JUMP JUMPDEST PUSH1 0x0 PUSH1 0x7 DUP4 DUP2 SLOAD DUP2 LT PUSH2 0xEF0 JUMPI PUSH2 0xEF0 PUSH2 0x3AA6 JUMP JUMPDEST SWAP1 PUSH1 0x0 MSTORE PUSH1 0x20 PUSH1 0x0 KECCAK256 SWAP1 PUSH1 0xF MUL ADD SWAP1 POP DUP3 DUP2 PUSH1 0x0 ADD SLOAD EQ PUSH2 0xF23 JUMPI PUSH1 0x40 MLOAD PUSH3 0x461BCD PUSH1 0xE5 SHL DUP2 MSTORE PUSH1 0x4 ADD PUSH2 0x9E8 SWAP1 PUSH2 0x3C19 JUMP JUMPDEST PUSH1 0x1 PUSH1 0x9 DUP3 ADD SLOAD PUSH1 0xFF AND PUSH1 0x6 DUP2 GT ISZERO PUSH2 0xF3E JUMPI PUSH2 0xF3E PUSH2 0x37A0 JUMP JUMPDEST EQ PUSH2 0xF99 JUMPI PUSH1 0x40 MLOAD PUSH3 0x461BCD PUSH1 0xE5 SHL DUP2 MSTORE PUSH1 0x20 PUSH1 0x4 DUP3 ADD MSTORE PUSH1 0x25 PUSH1 0x24 DUP3 ADD MSTORE PUSH32 0x4F72646572206D75737420626520696E207468652070726F63657373696E6720 PUSH1 0x44 DUP3 ADD MSTORE PUSH5 0x7374617465 PUSH1 0xD8 SHL PUSH1 0x64 DUP3 ADD MSTORE PUSH1 0x84 ADD PUSH2 0x9E8 JUMP JUMPDEST PUSH1 0x3 DUP2 ADD DUP1 SLOAD CALLER PUSH1 0x1 PUSH1 0x1 PUSH1 0xA0 SHL SUB NOT SWAP1 SWAP2 AND DUP2 OR SWAP1 SWAP2 SSTORE PUSH1 0xB DUP3 ADD DUP4 SWAP1 SSTORE TIMESTAMP PUSH1 0xD DUP4 ADD SSTORE PUSH1 0x9 DUP3 ADD DUP1 SLOAD PUSH1 0xFF NOT AND PUSH1 0x2 OR SWAP1 SSTORE PUSH1 0x0 SWAP1 DUP2 MSTORE PUSH1 0x5 PUSH1 0x20 SWAP1 DUP2 MSTORE PUSH1 0x40 DUP3 KECCAK256 DUP4 SLOAD DUP2 SLOAD PUSH1 0x1 DUP2 ADD DUP4 SSTORE SWAP2 DUP5 MSTORE SWAP2 SWAP1 SWAP3 KECCAK256 SWAP1 SWAP2 ADD SSTORE PUSH2 0xFFB DUP4 PUSH2 0x307C JUMP JUMPDEST POP POP POP JUMP JUMPDEST PUSH1 0x60 DUP1 PUSH1 0x0 PUSH1 0x7 DUP5 DUP2 SLOAD DUP2 LT PUSH2 0x1018 JUMPI PUSH2 0x1018 PUSH2 0x3AA6 JUMP JUMPDEST SWAP1 PUSH1 0x0 MSTORE PUSH1 0x20 PUSH1 0x0 KECCAK256 SWAP1 PUSH1 0xF MUL ADD SWAP1 POP DUP4 DUP2 PUSH1 0x0 ADD SLOAD EQ PUSH2 0x104B JUMPI PUSH1 0x40 MLOAD PUSH3 0x461BCD PUSH1 0xE5 SHL DUP2 MSTORE PUSH1 0x4 ADD PUSH2 0x9E8 SWAP1 PUSH2 0x3C19 JUMP JUMPDEST PUSH1 0x1 DUP2 ADD SLOAD PUSH1 0x1 PUSH1 0x1 PUSH1 0xA0 SHL SUB AND PUSH1 0x0 SWAP1 DUP2 MSTORE PUSH1 0x20 DUP2 SWAP1 MSTORE PUSH1 0x40 DUP2 KECCAK256 PUSH1 0x4 DUP4 ADD SLOAD SWAP1 SWAP2 SWAP1 PUSH1 0x1 PUSH1 0x1 PUSH1 0x40 SHL SUB DUP2 GT ISZERO PUSH2 0x1086 JUMPI PUSH2 0x1086 PUSH2 0x3ABC JUMP JUMPDEST PUSH1 0x40 MLOAD SWAP1 DUP1 DUP3 MSTORE DUP1 PUSH1 0x20 MUL PUSH1 0x20 ADD DUP3 ADD PUSH1 0x40 MSTORE DUP1 ISZERO PUSH2 0x10EB JUMPI DUP2 PUSH1 0x20 ADD JUMPDEST PUSH2 0x10D8 PUSH1 0x40 MLOAD DUP1 PUSH1 0xA0 ADD PUSH1 0x40 MSTORE DUP1 PUSH1 0x0 DUP2 MSTORE PUSH1 0x20 ADD PUSH1 0x60 DUP2 MSTORE PUSH1 0x20 ADD PUSH1 0x60 DUP2 MSTORE PUSH1 0x20 ADD PUSH1 0x0 DUP2 MSTORE PUSH1 0x20 ADD PUSH1 0x0 ISZERO ISZERO DUP2 MSTORE POP SWAP1 JUMP JUMPDEST DUP2 MSTORE PUSH1 0x20 ADD SWAP1 PUSH1 0x1 SWAP1 SUB SWAP1 DUP2 PUSH2 0x10A4 JUMPI SWAP1 POP JUMPDEST POP SWAP1 POP PUSH1 0x0 JUMPDEST PUSH1 0x4 DUP5 ADD SLOAD DUP2 LT ISZERO PUSH2 0x12CA JUMPI PUSH1 0x0 DUP5 PUSH1 0x4 ADD DUP3 DUP2 SLOAD DUP2 LT PUSH2 0x1114 JUMPI PUSH2 0x1114 PUSH2 0x3AA6 JUMP JUMPDEST SWAP1 PUSH1 0x0 MSTORE PUSH1 0x20 PUSH1 0x0 KECCAK256 ADD SLOAD SWAP1 POP DUP4 PUSH1 0x3 ADD DUP2 DUP2 SLOAD DUP2 LT PUSH2 0x1136 JUMPI PUSH2 0x1136 PUSH2 0x3AA6 JUMP JUMPDEST SWAP1 PUSH1 0x0 MSTORE PUSH1 0x20 PUSH1 0x0 KECCAK256 SWAP1 PUSH1 0x5 MUL ADD PUSH1 0x40 MLOAD DUP1 PUSH1 0xA0 ADD PUSH1 0x40 MSTORE SWAP1 DUP2 PUSH1 0x0 DUP3 ADD SLOAD DUP2 MSTORE PUSH1 0x20 ADD PUSH1 0x1 DUP3 ADD DUP1 SLOAD PUSH2 0x1169 SWAP1 PUSH2 0x3AD2 JUMP JUMPDEST DUP1 PUSH1 0x1F ADD PUSH1 0x20 DUP1 SWAP2 DIV MUL PUSH1 0x20 ADD PUSH1 0x40 MLOAD SWAP1 DUP2 ADD PUSH1 0x40 MSTORE DUP1 SWAP3 SWAP2 SWAP1 DUP2 DUP2 MSTORE PUSH1 0x20 ADD DUP3 DUP1 SLOAD PUSH2 0x1195 SWAP1 PUSH2 0x3AD2 JUMP JUMPDEST DUP1 ISZERO PUSH2 0x11E2 JUMPI DUP1 PUSH1 0x1F LT PUSH2 0x11B7 JUMPI PUSH2 0x100 DUP1 DUP4 SLOAD DIV MUL DUP4 MSTORE SWAP2 PUSH1 0x20 ADD SWAP2 PUSH2 0x11E2 JUMP JUMPDEST DUP3 ADD SWAP2 SWAP1 PUSH1 0x0 MSTORE PUSH1 0x20 PUSH1 0x0 KECCAK256 SWAP1 JUMPDEST DUP2 SLOAD DUP2 MSTORE SWAP1 PUSH1 0x1 ADD SWAP1 PUSH1 0x20 ADD DUP1 DUP4 GT PUSH2 0x11C5 JUMPI DUP3 SWAP1 SUB PUSH1 0x1F AND DUP3 ADD SWAP2 JUMPDEST POP POP POP POP POP DUP2 MSTORE PUSH1 0x20 ADD PUSH1 0x2 DUP3 ADD DUP1 SLOAD PUSH2 0x11FB SWAP1 PUSH2 0x3AD2 JUMP JUMPDEST DUP1 PUSH1 0x1F ADD PUSH1 0x20 DUP1 SWAP2 DIV MUL PUSH1 0x20 ADD PUSH1 0x40 MLOAD SWAP1 DUP2 ADD PUSH1 0x40 MSTORE DUP1 SWAP3 SWAP2 SWAP1 DUP2 DUP2 MSTORE PUSH1 0x20 ADD DUP3 DUP1 SLOAD PUSH2 0x1227 SWAP1 PUSH2 0x3AD2 JUMP JUMPDEST DUP1 ISZERO PUSH2 0x1274 JUMPI DUP1 PUSH1 0x1F LT PUSH2 0x1249 JUMPI PUSH2 0x100 DUP1 DUP4 SLOAD DIV MUL DUP4 MSTORE SWAP2 PUSH1 0x20 ADD SWAP2 PUSH2 0x1274 JUMP JUMPDEST DUP3 ADD SWAP2 SWAP1 PUSH1 0x0 MSTORE PUSH1 0x20 PUSH1 0x0 KECCAK256 SWAP1 JUMPDEST DUP2 SLOAD DUP2 MSTORE SWAP1 PUSH1 0x1 ADD SWAP1 PUSH1 0x20 ADD DUP1 DUP4 GT PUSH2 0x1257 JUMPI DUP3 SWAP1 SUB PUSH1 0x1F AND DUP3 ADD SWAP2 JUMPDEST POP POP POP SWAP2 DUP4 MSTORE POP POP PUSH1 0x3 DUP3 ADD SLOAD PUSH1 0x20 DUP3 ADD MSTORE PUSH1 0x4 SWAP1 SWAP2 ADD SLOAD PUSH1 0xFF AND ISZERO ISZERO PUSH1 0x40 SWAP1 SWAP2 ADD MSTORE DUP4 MLOAD DUP5 SWAP1 DUP5 SWAP1 DUP2 LT PUSH2 0x12AB JUMPI PUSH2 0x12AB PUSH2 0x3AA6 JUMP JUMPDEST PUSH1 0x20 MUL PUSH1 0x20 ADD ADD DUP2 SWAP1 MSTORE POP POP DUP1 DUP1 PUSH2 0x12C2 SWAP1 PUSH2 0x3E27 JUMP JUMPDEST SWAP2 POP POP PUSH2 0x10F1 JUMP JUMPDEST POP DUP1 DUP4 PUSH1 0x5 ADD DUP1 DUP1 SLOAD DUP1 PUSH1 0x20 MUL PUSH1 0x20 ADD PUSH1 0x40 MLOAD SWAP1 DUP2 ADD PUSH1 0x40 MSTORE DUP1 SWAP3 SWAP2 SWAP1 DUP2 DUP2 MSTORE PUSH1 0x20 ADD DUP3 DUP1 SLOAD DUP1 ISZERO PUSH2 0x131B JUMPI PUSH1 0x20 MUL DUP3 ADD SWAP2 SWAP1 PUSH1 0x0 MSTORE PUSH1 0x20 PUSH1 0x0 KECCAK256 SWAP1 JUMPDEST DUP2 SLOAD DUP2 MSTORE PUSH1 0x20 ADD SWAP1 PUSH1 0x1 ADD SWAP1 DUP1 DUP4 GT PUSH2 0x1307 JUMPI JUMPDEST POP POP POP POP POP SWAP1 POP SWAP5 POP SWAP5 POP POP POP POP SWAP2 POP SWAP2 JUMP JUMPDEST PUSH1 0x1 PUSH1 0x1 PUSH1 0xA0 SHL SUB DUP7 AND PUSH1 0x0 SWAP1 DUP2 MSTORE PUSH1 0x20 DUP2 SWAP1 MSTORE PUSH1 0x40 DUP2 KECCAK256 DUP2 SWAP1 DUP2 DUP1 JUMPDEST DUP9 DUP2 LT ISZERO PUSH2 0x143F JUMPI PUSH1 0x3 DUP4 ADD SLOAD DUP11 DUP11 DUP4 DUP2 DUP2 LT PUSH2 0x136A JUMPI PUSH2 0x136A PUSH2 0x3AA6 JUMP JUMPDEST SWAP1 POP PUSH1 0x20 MUL ADD CALLDATALOAD LT PUSH2 0x13B0 JUMPI PUSH1 0x40 MLOAD PUSH3 0x461BCD PUSH1 0xE5 SHL DUP2 MSTORE PUSH1 0x20 PUSH1 0x4 DUP3 ADD MSTORE PUSH1 0xF PUSH1 0x24 DUP3 ADD MSTORE PUSH15 0x125B9D985B1A59081A5D195B481251 PUSH1 0x8A SHL PUSH1 0x44 DUP3 ADD MSTORE PUSH1 0x64 ADD PUSH2 0x9E8 JUMP JUMPDEST PUSH1 0x0 DUP4 PUSH1 0x3 ADD DUP12 DUP12 DUP5 DUP2 DUP2 LT PUSH2 0x13C8 JUMPI PUSH2 0x13C8 PUSH2 0x3AA6 JUMP JUMPDEST SWAP1 POP PUSH1 0x20 MUL ADD CALLDATALOAD DUP2 SLOAD DUP2 LT PUSH2 0x13DF JUMPI PUSH2 0x13DF PUSH2 0x3AA6 JUMP JUMPDEST SWAP1 PUSH1 0x0 MSTORE PUSH1 0x20 PUSH1 0x0 KECCAK256 SWAP1 PUSH1 0x5 MUL ADD SWAP1 POP DUP9 DUP9 DUP4 DUP2 DUP2 LT PUSH2 0x1401 JUMPI PUSH2 0x1401 PUSH2 0x3AA6 JUMP JUMPDEST SWAP1 POP PUSH1 0x20 MUL ADD CALLDATALOAD PUSH2 0x1415 DUP3 PUSH1 0x3 ADD SLOAD PUSH2 0xC75 JUMP JUMPDEST PUSH2 0x141F SWAP2 SWAP1 PUSH2 0x3DEE JUMP JUMPDEST PUSH2 0x1429 SWAP1 DUP5 PUSH2 0x3E40 JUMP JUMPDEST SWAP3 POP POP DUP1 DUP1 PUSH2 0x1437 SWAP1 PUSH2 0x3E27 JUMP JUMPDEST SWAP2 POP POP PUSH2 0x134B JUMP JUMPDEST POP PUSH1 0x0 PUSH2 0x144B DUP7 PUSH2 0xC75 JUMP JUMPDEST SWAP2 SWAP12 SWAP2 SWAP11 POP SWAP1 SWAP9 POP POP POP POP POP POP POP POP POP JUMP JUMPDEST PUSH1 0x0 PUSH1 0x7 DUP4 DUP2 SLOAD DUP2 LT PUSH2 0x1472 JUMPI PUSH2 0x1472 PUSH2 0x3AA6 JUMP JUMPDEST SWAP1 PUSH1 0x0 MSTORE PUSH1 0x20 PUSH1 0x0 KECCAK256 SWAP1 PUSH1 0xF MUL ADD SWAP1 POP DUP3 DUP2 PUSH1 0x0 ADD SLOAD EQ PUSH2 0x14A5 JUMPI PUSH1 0x40 MLOAD PUSH3 0x461BCD PUSH1 0xE5 SHL DUP2 MSTORE PUSH1 0x4 ADD PUSH2 0x9E8 SWAP1 PUSH2 0x3C19 JUMP JUMPDEST PUSH1 0x1 DUP2 ADD SLOAD PUSH1 0x1 PUSH1 0x1 PUSH1 0xA0 SHL SUB AND CALLER EQ PUSH2 0x1527 JUMPI PUSH1 0x40 MLOAD PUSH3 0x461BCD PUSH1 0xE5 SHL DUP2 MSTORE PUSH1 0x20 PUSH1 0x4 DUP3 ADD MSTORE PUSH1 0x3E PUSH1 0x24 DUP3 ADD MSTORE PUSH32 0x4F6E6C79207468652072657374617572616E7420666F72207768696368207468 PUSH1 0x44 DUP3 ADD MSTORE PUSH32 0x65206F7264657220776173206D6164652063616E206163636570742069740000 PUSH1 0x64 DUP3 ADD MSTORE PUSH1 0x84 ADD PUSH2 0x9E8 JUMP JUMPDEST PUSH1 0x0 PUSH1 0x9 DUP3 ADD SLOAD PUSH1 0xFF AND PUSH1 0x6 DUP2 GT ISZERO PUSH2 0x1542 JUMPI PUSH2 0x1542 PUSH2 0x37A0 JUMP JUMPDEST EQ PUSH2 0x15AE JUMPI PUSH1 0x40 MLOAD PUSH3 0x461BCD PUSH1 0xE5 SHL DUP2 MSTORE PUSH1 0x20 PUSH1 0x4 DUP3 ADD MSTORE PUSH1 0x36 PUSH1 0x24 DUP3 ADD MSTORE PUSH32 0x43616E206F6E6C7920616363657074206F726465727320666F72207768696368 PUSH1 0x44 DUP3 ADD MSTORE PUSH22 0x20746865207374617475732069732050454E44494E47 PUSH1 0x50 SHL PUSH1 0x64 DUP3 ADD MSTORE PUSH1 0x84 ADD PUSH2 0x9E8 JUMP JUMPDEST PUSH1 0xA DUP2 ADD SWAP2 SWAP1 SWAP2 SSTORE TIMESTAMP PUSH1 0xC DUP3 ADD SSTORE PUSH1 0x9 ADD DUP1 SLOAD PUSH1 0xFF NOT AND PUSH1 0x1 SWAP1 DUP2 OR SWAP1 SWAP2 SSTORE PUSH1 0x6 DUP1 SLOAD SWAP2 DUP3 ADD DUP2 SSTORE PUSH1 0x0 MSTORE PUSH32 0xF652222313E28459528D920B65115C16C04F3EFC82AAEDC97BE59F3F377C0D3F ADD SSTORE JUMP JUMPDEST CALLER PUSH1 0x0 DUP2 DUP2 MSTORE PUSH1 0x1 PUSH1 0x20 DUP2 SWAP1 MSTORE PUSH1 0x40 SWAP1 SWAP2 KECCAK256 DUP1 SLOAD PUSH1 0x1 PUSH1 0x1 PUSH1 0xA0 SHL SUB NOT AND SWAP1 SWAP3 OR DUP3 SSTORE DUP2 ADD PUSH2 0x162E DUP4 DUP6 DUP4 PUSH2 0x3E53 JUMP JUMPDEST POP POP PUSH1 0x9 DUP1 SLOAD PUSH1 0x1 DUP2 ADD DUP3 SSTORE PUSH1 0x0 SWAP2 SWAP1 SWAP2 MSTORE PUSH32 0x6E1540171B6C0C960B71A7020D9F60077F6AF931A8BBF590DA0223DACF75C7AF ADD DUP1 SLOAD PUSH1 0x1 PUSH1 0x1 PUSH1 0xA0 SHL SUB NOT AND CALLER OR SWAP1 SSTORE POP POP JUMP JUMPDEST PUSH1 0x0 PUSH1 0x7 DUP3 DUP2 SLOAD DUP2 LT PUSH2 0x168B JUMPI PUSH2 0x168B PUSH2 0x3AA6 JUMP JUMPDEST SWAP1 PUSH1 0x0 MSTORE PUSH1 0x20 PUSH1 0x0 KECCAK256 SWAP1 PUSH1 0xF MUL ADD SWAP1 POP DUP2 DUP2 PUSH1 0x0 ADD SLOAD EQ PUSH2 0x16BE JUMPI PUSH1 0x40 MLOAD PUSH3 0x461BCD PUSH1 0xE5 SHL DUP2 MSTORE PUSH1 0x4 ADD PUSH2 0x9E8 SWAP1 PUSH2 0x3C19 JUMP JUMPDEST PUSH1 0x2 DUP2 ADD SLOAD PUSH1 0x1 DUP3 ADD SLOAD PUSH1 0x1 PUSH1 0x1 PUSH1 0xA0 SHL SUB SWAP2 DUP3 AND SWAP2 AND PUSH1 0x0 PUSH1 0x9 DUP5 ADD SLOAD PUSH1 0xFF AND PUSH1 0x6 DUP2 GT ISZERO PUSH2 0x16F0 JUMPI PUSH2 0x16F0 PUSH2 0x37A0 JUMP JUMPDEST EQ DUP1 PUSH2 0x1714 JUMPI POP PUSH1 0x1 PUSH1 0x9 DUP5 ADD SLOAD PUSH1 0xFF AND PUSH1 0x6 DUP2 GT ISZERO PUSH2 0x1712 JUMPI PUSH2 0x1712 PUSH2 0x37A0 JUMP JUMPDEST EQ JUMPDEST DUP1 PUSH2 0x1737 JUMPI POP PUSH1 0x2 PUSH1 0x9 DUP5 ADD SLOAD PUSH1 0xFF AND PUSH1 0x6 DUP2 GT ISZERO PUSH2 0x1735 JUMPI PUSH2 0x1735 PUSH2 0x37A0 JUMP JUMPDEST EQ JUMPDEST ISZERO PUSH2 0x1795 JUMPI DUP2 PUSH1 0x1 PUSH1 0x1 PUSH1 0xA0 SHL SUB AND PUSH2 0x8FC DUP5 PUSH1 0x6 ADD SLOAD DUP6 PUSH1 0x7 ADD SLOAD PUSH2 0x175D SWAP2 SWAP1 PUSH2 0x3E40 JUMP JUMPDEST PUSH1 0x40 MLOAD DUP2 ISZERO SWAP1 SWAP3 MUL SWAP2 PUSH1 0x0 DUP2 DUP2 DUP2 DUP6 DUP9 DUP9 CALL SWAP4 POP POP POP POP PUSH2 0x1790 JUMPI PUSH1 0x40 MLOAD PUSH3 0x461BCD PUSH1 0xE5 SHL DUP2 MSTORE PUSH1 0x4 ADD PUSH2 0x9E8 SWAP1 PUSH2 0x3F13 JUMP JUMPDEST PUSH2 0x1960 JUMP JUMPDEST PUSH1 0x3 PUSH1 0x9 DUP5 ADD SLOAD PUSH1 0xFF AND PUSH1 0x6 DUP2 GT ISZERO PUSH2 0x17B0 JUMPI PUSH2 0x17B0 PUSH2 0x37A0 JUMP JUMPDEST SUB PUSH2 0x186D JUMPI PUSH1 0x7 DUP4 ADD SLOAD PUSH1 0x40 MLOAD PUSH1 0x1 PUSH1 0x1 PUSH1 0xA0 SHL SUB DUP4 AND SWAP2 DUP1 ISZERO PUSH2 0x8FC MUL SWAP2 PUSH1 0x0 DUP2 DUP2 DUP2 DUP6 DUP9 DUP9 CALL SWAP4 POP POP POP POP PUSH2 0x1829 JUMPI PUSH1 0x40 MLOAD PUSH3 0x461BCD PUSH1 0xE5 SHL DUP2 MSTORE PUSH1 0x20 PUSH1 0x4 DUP3 ADD MSTORE PUSH1 0x1B PUSH1 0x24 DUP3 ADD MSTORE PUSH32 0x4661696C656420746F20726566756E642072657374617572616E740000000000 PUSH1 0x44 DUP3 ADD MSTORE PUSH1 0x64 ADD PUSH2 0x9E8 JUMP JUMPDEST PUSH1 0x6 DUP4 ADD SLOAD PUSH1 0x40 MLOAD PUSH1 0x1 PUSH1 0x1 PUSH1 0xA0 SHL SUB DUP5 AND SWAP2 DUP1 ISZERO PUSH2 0x8FC MUL SWAP2 PUSH1 0x0 DUP2 DUP2 DUP2 DUP6 DUP9 DUP9 CALL SWAP4 POP POP POP POP PUSH2 0x1790 JUMPI PUSH1 0x40 MLOAD PUSH3 0x461BCD PUSH1 0xE5 SHL DUP2 MSTORE PUSH1 0x4 ADD PUSH2 0x9E8 SWAP1 PUSH2 0x3F13 JUMP JUMPDEST PUSH1 0x2 DUP4 ADD SLOAD PUSH1 0x7 DUP5 ADD SLOAD PUSH1 0x40 MLOAD PUSH1 0x1 PUSH1 0x1 PUSH1 0xA0 SHL SUB SWAP3 DUP4 AND SWAP3 DUP5 AND SWAP2 DUP1 ISZERO PUSH2 0x8FC MUL SWAP2 PUSH1 0x0 DUP2 DUP2 DUP2 DUP6 DUP9 DUP9 CALL SWAP4 POP POP POP POP PUSH2 0x18EA JUMPI PUSH1 0x40 MLOAD PUSH3 0x461BCD PUSH1 0xE5 SHL DUP2 MSTORE PUSH1 0x20 PUSH1 0x4 DUP3 ADD MSTORE PUSH1 0x1B PUSH1 0x24 DUP3 ADD MSTORE PUSH32 0x4661696C656420746F20726566756E642072657374617572616E740000000000 PUSH1 0x44 DUP3 ADD MSTORE PUSH1 0x64 ADD PUSH2 0x9E8 JUMP JUMPDEST PUSH1 0x6 DUP5 ADD SLOAD PUSH1 0x40 MLOAD PUSH1 0x1 PUSH1 0x1 PUSH1 0xA0 SHL SUB DUP4 AND SWAP2 DUP1 ISZERO PUSH2 0x8FC MUL SWAP2 PUSH1 0x0 DUP2 DUP2 DUP2 DUP6 DUP9 DUP9 CALL SWAP4 POP POP POP POP PUSH2 0x195E JUMPI PUSH1 0x40 MLOAD PUSH3 0x461BCD PUSH1 0xE5 SHL DUP2 MSTORE PUSH1 0x20 PUSH1 0x4 DUP3 ADD MSTORE PUSH1 0x18 PUSH1 0x24 DUP3 ADD MSTORE PUSH32 0x4661696C656420746F20726566756E6420636F75726965720000000000000000 PUSH1 0x44 DUP3 ADD MSTORE PUSH1 0x64 ADD PUSH2 0x9E8 JUMP JUMPDEST POP JUMPDEST POP POP PUSH1 0x9 ADD DUP1 SLOAD PUSH1 0xFF NOT AND PUSH1 0x6 OR SWAP1 SSTORE POP JUMP JUMPDEST PUSH1 0x1 PUSH1 0x20 DUP2 SWAP1 MSTORE PUSH1 0x0 SWAP2 DUP3 MSTORE PUSH1 0x40 SWAP1 SWAP2 KECCAK256 DUP1 SLOAD SWAP2 DUP2 ADD DUP1 SLOAD PUSH1 0x1 PUSH1 0x1 PUSH1 0xA0 SHL SUB SWAP1 SWAP4 AND SWAP3 PUSH2 0x19A0 SWAP1 PUSH2 0x3AD2 JUMP JUMPDEST DUP1 PUSH1 0x1F ADD PUSH1 0x20 DUP1 SWAP2 DIV MUL PUSH1 0x20 ADD PUSH1 0x40 MLOAD SWAP1 DUP2 ADD PUSH1 0x40 MSTORE DUP1 SWAP3 SWAP2 SWAP1 DUP2 DUP2 MSTORE PUSH1 0x20 ADD DUP3 DUP1 SLOAD PUSH2 0x19CC SWAP1 PUSH2 0x3AD2 JUMP JUMPDEST DUP1 ISZERO PUSH2 0x1A19 JUMPI DUP1 PUSH1 0x1F LT PUSH2 0x19EE JUMPI PUSH2 0x100 DUP1 DUP4 SLOAD DIV MUL DUP4 MSTORE SWAP2 PUSH1 0x20 ADD SWAP2 PUSH2 0x1A19 JUMP JUMPDEST DUP3 ADD SWAP2 SWAP1 PUSH1 0x0 MSTORE PUSH1 0x20 PUSH1 0x0 KECCAK256 SWAP1 JUMPDEST DUP2 SLOAD DUP2 MSTORE SWAP1 PUSH1 0x1 ADD SWAP1 PUSH1 0x20 ADD DUP1 DUP4 GT PUSH2 0x19FC JUMPI DUP3 SWAP1 SUB PUSH1 0x1F AND DUP3 ADD SWAP2 JUMPDEST POP POP POP POP POP SWAP1 POP DUP3 JUMP JUMPDEST CALLER PUSH1 0x0 SWAP1 DUP2 MSTORE PUSH1 0x20 DUP2 DUP2 MSTORE PUSH1 0x40 DUP1 DUP4 KECCAK256 PUSH1 0x3 DUP2 ADD DUP1 SLOAD DUP4 MLOAD PUSH1 0xA0 DUP2 ADD DUP6 MSTORE DUP2 DUP2 MSTORE DUP5 MLOAD PUSH1 0x1F DUP13 ADD DUP8 SWAP1 DIV DUP8 MUL DUP2 ADD DUP8 ADD SWAP1 SWAP6 MSTORE DUP11 DUP6 MSTORE SWAP3 SWAP5 SWAP1 SWAP4 SWAP2 SWAP3 SWAP2 DUP3 DUP3 ADD SWAP2 DUP13 SWAP1 DUP13 SWAP1 DUP2 SWAP1 DUP5 ADD DUP4 DUP3 DUP1 DUP3 DUP5 CALLDATACOPY PUSH1 0x0 SWAP3 ADD SWAP2 SWAP1 SWAP2 MSTORE POP POP POP SWAP1 DUP3 MSTORE POP PUSH1 0x40 DUP1 MLOAD PUSH1 0x20 PUSH1 0x1F DUP12 ADD DUP2 SWAP1 DIV DUP2 MUL DUP3 ADD DUP2 ADD SWAP1 SWAP3 MSTORE DUP10 DUP2 MSTORE SWAP2 DUP2 ADD SWAP2 SWAP1 DUP11 SWAP1 DUP11 SWAP1 DUP2 SWAP1 DUP5 ADD DUP4 DUP3 DUP1 DUP3 DUP5 CALLDATACOPY PUSH1 0x0 SWAP3 ADD DUP3 SWAP1 MSTORE POP SWAP4 DUP6 MSTORE POP POP POP PUSH1 0x20 DUP1 DUP4 ADD DUP10 SWAP1 MSTORE PUSH1 0x1 PUSH1 0x40 SWAP1 SWAP4 ADD DUP4 SWAP1 MSTORE DUP5 SLOAD DUP1 DUP5 ADD DUP7 SSTORE SWAP5 DUP3 MSTORE SWAP1 DUP2 SWAP1 KECCAK256 DUP4 MLOAD PUSH1 0x5 SWAP1 SWAP6 MUL ADD SWAP4 DUP5 SSTORE DUP3 ADD MLOAD SWAP2 SWAP3 SWAP2 SWAP1 DUP3 ADD SWAP1 PUSH2 0x1AFA SWAP1 DUP3 PUSH2 0x3B5A JUMP JUMPDEST POP PUSH1 0x40 DUP3 ADD MLOAD PUSH1 0x2 DUP3 ADD SWAP1 PUSH2 0x1B0F SWAP1 DUP3 PUSH2 0x3B5A JUMP JUMPDEST POP PUSH1 0x60 DUP3 ADD MLOAD PUSH1 0x3 DUP3 ADD SSTORE PUSH1 0x80 SWAP1 SWAP2 ADD MLOAD PUSH1 0x4 SWAP1 SWAP2 ADD DUP1 SLOAD PUSH1 0xFF NOT AND SWAP2 ISZERO ISZERO SWAP2 SWAP1 SWAP2 OR SWAP1 SSTORE SWAP8 SWAP7 POP POP POP POP POP POP POP JUMP JUMPDEST PUSH2 0x1B73 PUSH1 0x40 MLOAD DUP1 PUSH1 0xA0 ADD PUSH1 0x40 MSTORE DUP1 PUSH1 0x0 DUP2 MSTORE PUSH1 0x20 ADD PUSH1 0x60 DUP2 MSTORE PUSH1 0x20 ADD PUSH1 0x60 DUP2 MSTORE PUSH1 0x20 ADD PUSH1 0x0 DUP2 MSTORE PUSH1 0x20 ADD PUSH1 0x0 ISZERO ISZERO DUP2 MSTORE POP SWAP1 JUMP JUMPDEST PUSH1 0x1 PUSH1 0x1 PUSH1 0xA0 SHL SUB DUP4 AND PUSH1 0x0 SWAP1 DUP2 MSTORE PUSH1 0x20 DUP2 SWAP1 MSTORE PUSH1 0x40 SWAP1 KECCAK256 PUSH1 0x3 ADD DUP1 SLOAD DUP4 SWAP1 DUP2 LT PUSH2 0x1BA0 JUMPI PUSH2 0x1BA0 PUSH2 0x3AA6 JUMP JUMPDEST SWAP1 PUSH1 0x0 MSTORE PUSH1 0x20 PUSH1 0x0 KECCAK256 SWAP1 PUSH1 0x5 MUL ADD PUSH1 0x40 MLOAD DUP1 PUSH1 0xA0 ADD PUSH1 0x40 MSTORE SWAP1 DUP2 PUSH1 0x0 DUP3 ADD SLOAD DUP2 MSTORE PUSH1 0x20 ADD PUSH1 0x1 DUP3 ADD DUP1 SLOAD PUSH2 0x1BD3 SWAP1 PUSH2 0x3AD2 JUMP JUMPDEST DUP1 PUSH1 0x1F ADD PUSH1 0x20 DUP1 SWAP2 DIV MUL PUSH1 0x20 ADD PUSH1 0x40 MLOAD SWAP1 DUP2 ADD PUSH1 0x40 MSTORE DUP1 SWAP3 SWAP2 SWAP1 DUP2 DUP2 MSTORE PUSH1 0x20 ADD DUP3 DUP1 SLOAD PUSH2 0x1BFF SWAP1 PUSH2 0x3AD2 JUMP JUMPDEST DUP1 ISZERO PUSH2 0x1C4C JUMPI DUP1 PUSH1 0x1F LT PUSH2 0x1C21 JUMPI PUSH2 0x100 DUP1 DUP4 SLOAD DIV MUL DUP4 MSTORE SWAP2 PUSH1 0x20 ADD SWAP2 PUSH2 0x1C4C JUMP JUMPDEST DUP3 ADD SWAP2 SWAP1 PUSH1 0x0 MSTORE PUSH1 0x20 PUSH1 0x0 KECCAK256 SWAP1 JUMPDEST DUP2 SLOAD DUP2 MSTORE SWAP1 PUSH1 0x1 ADD SWAP1 PUSH1 0x20 ADD DUP1 DUP4 GT PUSH2 0x1C2F JUMPI DUP3 SWAP1 SUB PUSH1 0x1F AND DUP3 ADD SWAP2 JUMPDEST POP POP POP POP POP DUP2 MSTORE PUSH1 0x20 ADD PUSH1 0x2 DUP3 ADD DUP1 SLOAD PUSH2 0x1C65 SWAP1 PUSH2 0x3AD2 JUMP JUMPDEST DUP1 PUSH1 0x1F ADD PUSH1 0x20 DUP1 SWAP2 DIV MUL PUSH1 0x20 ADD PUSH1 0x40 MLOAD SWAP1 DUP2 ADD PUSH1 0x40 MSTORE DUP1 SWAP3 SWAP2 SWAP1 DUP2 DUP2 MSTORE PUSH1 0x20 ADD DUP3 DUP1 SLOAD PUSH2 0x1C91 SWAP1 PUSH2 0x3AD2 JUMP JUMPDEST DUP1 ISZERO PUSH2 0x1CDE JUMPI DUP1 PUSH1 0x1F LT PUSH2 0x1CB3 JUMPI PUSH2 0x100 DUP1 DUP4 SLOAD DIV MUL DUP4 MSTORE SWAP2 PUSH1 0x20 ADD SWAP2 PUSH2 0x1CDE JUMP JUMPDEST DUP3 ADD SWAP2 SWAP1 PUSH1 0x0 MSTORE PUSH1 0x20 PUSH1 0x0 KECCAK256 SWAP1 JUMPDEST DUP2 SLOAD DUP2 MSTORE SWAP1 PUSH1 0x1 ADD SWAP1 PUSH1 0x20 ADD DUP1 DUP4 GT PUSH2 0x1CC1 JUMPI DUP3 SWAP1 SUB PUSH1 0x1F AND DUP3 ADD SWAP2 JUMPDEST POP POP POP SWAP2 DUP4 MSTORE POP POP PUSH1 0x3 DUP3 ADD SLOAD PUSH1 0x20 DUP3 ADD MSTORE PUSH1 0x4 SWAP1 SWAP2 ADD SLOAD PUSH1 0xFF AND ISZERO ISZERO PUSH1 0x40 SWAP1 SWAP2 ADD MSTORE SWAP1 POP JUMPDEST SWAP3 SWAP2 POP POP JUMP JUMPDEST PUSH1 0x6 DUP2 DUP2 SLOAD DUP2 LT PUSH2 0x1D1A JUMPI PUSH1 0x0 DUP1 REVERT JUMPDEST PUSH1 0x0 SWAP2 DUP3 MSTORE PUSH1 0x20 SWAP1 SWAP2 KECCAK256 ADD SLOAD SWAP1 POP DUP2 JUMP JUMPDEST PUSH1 0x8 DUP2 DUP2 SLOAD DUP2 LT PUSH2 0x1D3B JUMPI PUSH1 0x0 DUP1 REVERT JUMPDEST PUSH1 0x0 SWAP2 DUP3 MSTORE PUSH1 0x20 SWAP1 SWAP2 KECCAK256 ADD SLOAD PUSH1 0x1 PUSH1 0x1 PUSH1 0xA0 SHL SUB AND SWAP1 POP DUP2 JUMP JUMPDEST CALLER PUSH1 0x0 DUP2 DUP2 MSTORE PUSH1 0x20 DUP2 SWAP1 MSTORE PUSH1 0x40 SWAP1 KECCAK256 DUP1 SLOAD PUSH1 0x1 PUSH1 0x1 PUSH1 0xA0 SHL SUB NOT AND SWAP1 SWAP2 OR DUP2 SSTORE PUSH1 0x1 DUP2 ADD PUSH2 0x1D84 DUP6 DUP8 DUP4 PUSH2 0x3E53 JUMP JUMPDEST POP PUSH1 0x2 DUP2 ADD PUSH2 0x1D94 DUP4 DUP6 DUP4 PUSH2 0x3E53 JUMP JUMPDEST POP POP PUSH1 0x8 DUP1 SLOAD PUSH1 0x1 DUP2 ADD DUP3 SSTORE PUSH1 0x0 SWAP2 SWAP1 SWAP2 MSTORE PUSH32 0xF3F7A9FE364FAAB93B216DA50A3214154F22A0A2B415B23A84C8169E8B636EE3 ADD DUP1 SLOAD PUSH1 0x1 PUSH1 0x1 PUSH1 0xA0 SHL SUB NOT AND CALLER OR SWAP1 SSTORE POP POP POP POP JUMP JUMPDEST PUSH1 0x60 PUSH1 0x0 DUP1 JUMPDEST PUSH1 0x7 SLOAD DUP2 LT ISZERO PUSH2 0x1E60 JUMPI DUP4 PUSH1 0x6 DUP2 GT ISZERO PUSH2 0x1E00 JUMPI PUSH2 0x1E00 PUSH2 0x37A0 JUMP JUMPDEST PUSH1 0x7 DUP3 DUP2 SLOAD DUP2 LT PUSH2 0x1E13 JUMPI PUSH2 0x1E13 PUSH2 0x3AA6 JUMP JUMPDEST PUSH1 0x0 SWAP2 DUP3 MSTORE PUSH1 0x20 SWAP1 SWAP2 KECCAK256 PUSH1 0x9 PUSH1 0xF SWAP1 SWAP3 MUL ADD ADD SLOAD PUSH1 0xFF AND PUSH1 0x6 DUP2 GT ISZERO PUSH2 0x1E3B JUMPI PUSH2 0x1E3B PUSH2 0x37A0 JUMP JUMPDEST SUB PUSH2 0x1E4E JUMPI DUP2 PUSH2 0x1E4A DUP2 PUSH2 0x3E27 JUMP JUMPDEST SWAP3 POP POP JUMPDEST DUP1 PUSH2 0x1E58 DUP2 PUSH2 0x3E27 JUMP JUMPDEST SWAP2 POP POP PUSH2 0x1DE4 JUMP JUMPDEST POP PUSH1 0x0 DUP2 PUSH1 0x1 PUSH1 0x1 PUSH1 0x40 SHL SUB DUP2 GT ISZERO PUSH2 0x1E7B JUMPI PUSH2 0x1E7B PUSH2 0x3ABC JUMP JUMPDEST PUSH1 0x40 MLOAD SWAP1 DUP1 DUP3 MSTORE DUP1 PUSH1 0x20 MUL PUSH1 0x20 ADD DUP3 ADD PUSH1 0x40 MSTORE DUP1 ISZERO PUSH2 0x1EB4 JUMPI DUP2 PUSH1 0x20 ADD JUMPDEST PUSH2 0x1EA1 PUSH2 0x3138 JUMP JUMPDEST DUP2 MSTORE PUSH1 0x20 ADD SWAP1 PUSH1 0x1 SWAP1 SUB SWAP1 DUP2 PUSH2 0x1E99 JUMPI SWAP1 POP JUMPDEST POP SWAP1 POP PUSH1 0x0 DUP1 JUMPDEST PUSH1 0x7 SLOAD DUP2 LT ISZERO PUSH2 0x216E JUMPI DUP6 PUSH1 0x6 DUP2 GT ISZERO PUSH2 0x1ED7 JUMPI PUSH2 0x1ED7 PUSH2 0x37A0 JUMP JUMPDEST PUSH1 0x7 DUP3 DUP2 SLOAD DUP2 LT PUSH2 0x1EEA JUMPI PUSH2 0x1EEA PUSH2 0x3AA6 JUMP JUMPDEST PUSH1 0x0 SWAP2 DUP3 MSTORE PUSH1 0x20 SWAP1 SWAP2 KECCAK256 PUSH1 0x9 PUSH1 0xF SWAP1 SWAP3 MUL ADD ADD SLOAD PUSH1 0xFF AND PUSH1 0x6 DUP2 GT ISZERO PUSH2 0x1F12 JUMPI PUSH2 0x1F12 PUSH2 0x37A0 JUMP JUMPDEST SUB PUSH2 0x215C JUMPI PUSH1 0x7 DUP2 DUP2 SLOAD DUP2 LT PUSH2 0x1F2A JUMPI PUSH2 0x1F2A PUSH2 0x3AA6 JUMP JUMPDEST PUSH1 0x0 SWAP2 DUP3 MSTORE PUSH1 0x20 SWAP2 DUP3 SWAP1 KECCAK256 PUSH1 0x40 DUP1 MLOAD PUSH2 0x1E0 DUP2 ADD DUP3 MSTORE PUSH1 0xF SWAP1 SWAP4 MUL SWAP1 SWAP2 ADD DUP1 SLOAD DUP4 MSTORE PUSH1 0x1 DUP2 ADD SLOAD PUSH1 0x1 PUSH1 0x1 PUSH1 0xA0 SHL SUB SWAP1 DUP2 AND DUP5 DUP7 ADD MSTORE PUSH1 0x2 DUP3 ADD SLOAD DUP2 AND DUP5 DUP5 ADD MSTORE PUSH1 0x3 DUP3 ADD SLOAD AND PUSH1 0x60 DUP5 ADD MSTORE PUSH1 0x4 DUP2 ADD DUP1 SLOAD DUP4 MLOAD DUP2 DUP8 MUL DUP2 ADD DUP8 ADD SWAP1 SWAP5 MSTORE DUP1 DUP5 MSTORE SWAP4 SWAP5 SWAP2 SWAP4 PUSH1 0x80 DUP7 ADD SWAP4 SWAP3 DUP4 ADD DUP3 DUP3 DUP1 ISZERO PUSH2 0x1FC4 JUMPI PUSH1 0x20 MUL DUP3 ADD SWAP2 SWAP1 PUSH1 0x0 MSTORE PUSH1 0x20 PUSH1 0x0 KECCAK256 SWAP1 JUMPDEST DUP2 SLOAD DUP2 MSTORE PUSH1 0x20 ADD SWAP1 PUSH1 0x1 ADD SWAP1 DUP1 DUP4 GT PUSH2 0x1FB0 JUMPI JUMPDEST POP POP POP POP POP DUP2 MSTORE PUSH1 0x20 ADD PUSH1 0x5 DUP3 ADD DUP1 SLOAD DUP1 PUSH1 0x20 MUL PUSH1 0x20 ADD PUSH1 0x40 MLOAD SWAP1 DUP2 ADD PUSH1 0x40 MSTORE DUP1 SWAP3 SWAP2 SWAP1 DUP2 DUP2 MSTORE PUSH1 0x20 ADD DUP3 DUP1 SLOAD DUP1 ISZERO PUSH2 0x201C JUMPI PUSH1 0x20 MUL DUP3 ADD SWAP2 SWAP1 PUSH1 0x0 MSTORE PUSH1 0x20 PUSH1 0x0 KECCAK256 SWAP1 JUMPDEST DUP2 SLOAD DUP2 MSTORE PUSH1 0x20 ADD SWAP1 PUSH1 0x1 ADD SWAP1 DUP1 DUP4 GT PUSH2 0x2008 JUMPI JUMPDEST POP POP POP POP POP DUP2 MSTORE PUSH1 0x20 ADD PUSH1 0x6 DUP3 ADD SLOAD DUP2 MSTORE PUSH1 0x20 ADD PUSH1 0x7 DUP3 ADD SLOAD DUP2 MSTORE PUSH1 0x20 ADD PUSH1 0x8 DUP3 ADD DUP1 SLOAD PUSH2 0x2049 SWAP1 PUSH2 0x3AD2 JUMP JUMPDEST DUP1 PUSH1 0x1F ADD PUSH1 0x20 DUP1 SWAP2 DIV MUL PUSH1 0x20 ADD PUSH1 0x40 MLOAD SWAP1 DUP2 ADD PUSH1 0x40 MSTORE DUP1 SWAP3 SWAP2 SWAP1 DUP2 DUP2 MSTORE PUSH1 0x20 ADD DUP3 DUP1 SLOAD PUSH2 0x2075 SWAP1 PUSH2 0x3AD2 JUMP JUMPDEST DUP1 ISZERO PUSH2 0x20C2 JUMPI DUP1 PUSH1 0x1F LT PUSH2 0x2097 JUMPI PUSH2 0x100 DUP1 DUP4 SLOAD DIV MUL DUP4 MSTORE SWAP2 PUSH1 0x20 ADD SWAP2 PUSH2 0x20C2 JUMP JUMPDEST DUP3 ADD SWAP2 SWAP1 PUSH1 0x0 MSTORE PUSH1 0x20 PUSH1 0x0 KECCAK256 SWAP1 JUMPDEST DUP2 SLOAD DUP2 MSTORE SWAP1 PUSH1 0x1 ADD SWAP1 PUSH1 0x20 ADD DUP1 DUP4 GT PUSH2 0x20A5 JUMPI DUP3 SWAP1 SUB PUSH1 0x1F AND DUP3 ADD SWAP2 JUMPDEST POP POP POP SWAP2 DUP4 MSTORE POP POP PUSH1 0x9 DUP3 ADD SLOAD PUSH1 0x20 SWAP1 SWAP2 ADD SWAP1 PUSH1 0xFF AND PUSH1 0x6 DUP2 GT ISZERO PUSH2 0x20E9 JUMPI PUSH2 0x20E9 PUSH2 0x37A0 JUMP JUMPDEST PUSH1 0x6 DUP2 GT ISZERO PUSH2 0x20FA JUMPI PUSH2 0x20FA PUSH2 0x37A0 JUMP JUMPDEST DUP2 MSTORE PUSH1 0x20 ADD PUSH1 0xA DUP3 ADD SLOAD DUP2 MSTORE PUSH1 0x20 ADD PUSH1 0xB DUP3 ADD SLOAD DUP2 MSTORE PUSH1 0x20 ADD PUSH1 0xC DUP3 ADD SLOAD DUP2 MSTORE PUSH1 0x20 ADD PUSH1 0xD DUP3 ADD SLOAD DUP2 MSTORE PUSH1 0x20 ADD PUSH1 0xE DUP3 ADD SLOAD DUP2 MSTORE POP POP DUP4 DUP4 DUP2 MLOAD DUP2 LT PUSH2 0x2142 JUMPI PUSH2 0x2142 PUSH2 0x3AA6 JUMP JUMPDEST PUSH1 0x20 MUL PUSH1 0x20 ADD ADD DUP2 SWAP1 MSTORE POP DUP2 DUP1 PUSH2 0x2158 SWAP1 PUSH2 0x3E27 JUMP JUMPDEST SWAP3 POP POP JUMPDEST DUP1 PUSH2 0x2166 DUP2 PUSH2 0x3E27 JUMP JUMPDEST SWAP2 POP POP PUSH2 0x1EBB JUMP JUMPDEST POP SWAP1 SWAP5 SWAP4 POP POP POP POP JUMP JUMPDEST CALLER PUSH1 0x0 SWAP1 DUP2 MSTORE PUSH1 0x20 DUP2 SWAP1 MSTORE PUSH1 0x40 DUP2 KECCAK256 PUSH1 0x3 DUP2 ADD DUP1 SLOAD SWAP2 SWAP3 SWAP2 DUP5 SWAP1 DUP2 LT PUSH2 0x21A0 JUMPI PUSH2 0x21A0 PUSH2 0x3AA6 JUMP JUMPDEST PUSH1 0x0 SWAP2 DUP3 MSTORE PUSH1 0x20 SWAP1 SWAP2 KECCAK256 PUSH1 0x5 SWAP1 SWAP2 MUL ADD PUSH1 0x4 ADD DUP1 SLOAD PUSH1 0xFF NOT AND SWAP2 ISZERO ISZERO SWAP2 SWAP1 SWAP2 OR SWAP1 SSTORE POP POP JUMP JUMPDEST PUSH1 0x5 PUSH1 0x20 MSTORE DUP2 PUSH1 0x0 MSTORE PUSH1 0x40 PUSH1 0x0 KECCAK256 DUP2 DUP2 SLOAD DUP2 LT PUSH2 0x863 JUMPI PUSH1 0x0 DUP1 REVERT JUMPDEST PUSH2 0x2206 PUSH1 0x40 MLOAD DUP1 PUSH1 0x60 ADD PUSH1 0x40 MSTORE DUP1 PUSH1 0x0 DUP2 MSTORE PUSH1 0x20 ADD PUSH1 0x0 DUP2 MSTORE PUSH1 0x20 ADD PUSH1 0x60 DUP2 MSTORE POP SWAP1 JUMP JUMPDEST PUSH1 0x3 PUSH1 0x0 DUP4 DUP2 MSTORE PUSH1 0x20 ADD SWAP1 DUP2 MSTORE PUSH1 0x20 ADD PUSH1 0x0 KECCAK256 PUSH1 0x40 MLOAD DUP1 PUSH1 0x60 ADD PUSH1 0x40 MSTORE SWAP1 DUP2 PUSH1 0x0 DUP3 ADD SLOAD DUP2 MSTORE PUSH1 0x20 ADD PUSH1 0x1 DUP3 ADD SLOAD DUP2 MSTORE PUSH1 0x20 ADD PUSH1 0x2 DUP3 ADD DUP1 SLOAD PUSH2 0x2248 SWAP1 PUSH2 0x3AD2 JUMP JUMPDEST DUP1 PUSH1 0x1F ADD PUSH1 0x20 DUP1 SWAP2 DIV MUL PUSH1 0x20 ADD PUSH1 0x40 MLOAD SWAP1 DUP2 ADD PUSH1 0x40 MSTORE DUP1 SWAP3 SWAP2 SWAP1 DUP2 DUP2 MSTORE PUSH1 0x20 ADD DUP3 DUP1 SLOAD PUSH2 0x2274 SWAP1 PUSH2 0x3AD2 JUMP JUMPDEST DUP1 ISZERO PUSH2 0x22C1 JUMPI DUP1 PUSH1 0x1F LT PUSH2 0x2296 JUMPI PUSH2 0x100 DUP1 DUP4 SLOAD DIV MUL DUP4 MSTORE SWAP2 PUSH1 0x20 ADD SWAP2 PUSH2 0x22C1 JUMP JUMPDEST DUP3 ADD SWAP2 SWAP1 PUSH1 0x0 MSTORE PUSH1 0x20 PUSH1 0x0 KECCAK256 SWAP1 JUMPDEST DUP2 SLOAD DUP2 MSTORE SWAP1 PUSH1 0x1 ADD SWAP1 PUSH1 0x20 ADD DUP1 DUP4 GT PUSH2 0x22A4 JUMPI DUP3 SWAP1 SUB PUSH1 0x1F AND DUP3 ADD SWAP2 JUMPDEST POP POP POP POP POP DUP2 MSTORE POP POP SWAP1 POP SWAP2 SWAP1 POP JUMP JUMPDEST PUSH1 0x0 PUSH1 0x7 DUP3 DUP2 SLOAD DUP2 LT PUSH2 0x22E6 JUMPI PUSH2 0x22E6 PUSH2 0x3AA6 JUMP JUMPDEST SWAP1 PUSH1 0x0 MSTORE PUSH1 0x20 PUSH1 0x0 KECCAK256 SWAP1 PUSH1 0xF MUL ADD SWAP1 POP DUP2 DUP2 PUSH1 0x0 ADD SLOAD EQ PUSH2 0x2319 JUMPI PUSH1 0x40 MLOAD PUSH3 0x461BCD PUSH1 0xE5 SHL DUP2 MSTORE PUSH1 0x4 ADD PUSH2 0x9E8 SWAP1 PUSH2 0x3C19 JUMP JUMPDEST PUSH1 0x1 PUSH1 0x9 DUP3 ADD SLOAD PUSH1 0xFF AND PUSH1 0x6 DUP2 GT ISZERO PUSH2 0x2334 JUMPI PUSH2 0x2334 PUSH2 0x37A0 JUMP JUMPDEST EQ PUSH2 0x233E JUMPI PUSH1 0x0 DUP1 REVERT JUMPDEST PUSH1 0x2 DUP2 ADD SLOAD PUSH1 0x1 PUSH1 0x1 PUSH1 0xA0 SHL SUB AND CALLER EQ PUSH2 0x23B5 JUMPI PUSH1 0x40 MLOAD PUSH3 0x461BCD PUSH1 0xE5 SHL DUP2 MSTORE PUSH1 0x20 PUSH1 0x4 DUP3 ADD MSTORE PUSH1 0x32 PUSH1 0x24 DUP3 ADD MSTORE PUSH32 0x4F726465722064656C697665727920666565206D75737420626520696E637265 PUSH1 0x44 DUP3 ADD MSTORE PUSH18 0x185CD95908189E481D1A194818DB1A595B9D PUSH1 0x72 SHL PUSH1 0x64 DUP3 ADD MSTORE PUSH1 0x84 ADD PUSH2 0x9E8 JUMP JUMPDEST CALLVALUE DUP2 PUSH1 0x6 ADD PUSH1 0x0 DUP3 DUP3 SLOAD PUSH2 0x23C9 SWAP2 SWAP1 PUSH2 0x3E40 JUMP JUMPDEST SWAP1 SWAP2 SSTORE POP POP POP POP JUMP JUMPDEST CALLER PUSH1 0x0 SWAP1 DUP2 MSTORE PUSH1 0x20 DUP2 SWAP1 MSTORE PUSH1 0x40 SWAP1 KECCAK256 PUSH1 0x3 DUP2 ADD DUP1 SLOAD PUSH1 0x1 SWAP2 SWAP1 DUP5 SWAP1 DUP2 LT PUSH2 0x21A0 JUMPI PUSH2 0x21A0 PUSH2 0x3AA6 JUMP JUMPDEST PUSH1 0x7 DUP2 DUP2 SLOAD DUP2 LT PUSH2 0x240B JUMPI PUSH1 0x0 DUP1 REVERT JUMPDEST PUSH1 0x0 SWAP2 DUP3 MSTORE PUSH1 0x20 SWAP1 SWAP2 KECCAK256 PUSH1 0xF SWAP1 SWAP2 MUL ADD DUP1 SLOAD PUSH1 0x1 DUP3 ADD SLOAD PUSH1 0x2 DUP4 ADD SLOAD PUSH1 0x3 DUP5 ADD SLOAD PUSH1 0x6 DUP6 ADD SLOAD PUSH1 0x7 DUP7 ADD SLOAD PUSH1 0x8 DUP8 ADD DUP1 SLOAD SWAP7 SWAP9 POP PUSH1 0x1 PUSH1 0x1 PUSH1 0xA0 SHL SUB SWAP6 DUP7 AND SWAP8 SWAP5 DUP7 AND SWAP7 SWAP6 SWAP1 SWAP4 AND SWAP5 SWAP2 SWAP4 SWAP1 SWAP3 SWAP1 SWAP2 PUSH2 0x2463 SWAP1 PUSH2 0x3AD2 JUMP JUMPDEST DUP1 PUSH1 0x1F ADD PUSH1 0x20 DUP1 SWAP2 DIV MUL PUSH1 0x20 ADD PUSH1 0x40 MLOAD SWAP1 DUP2 ADD PUSH1 0x40 MSTORE DUP1 SWAP3 SWAP2 SWAP1 DUP2 DUP2 MSTORE PUSH1 0x20 ADD DUP3 DUP1 SLOAD PUSH2 0x248F SWAP1 PUSH2 0x3AD2 JUMP JUMPDEST DUP1 ISZERO PUSH2 0x24DC JUMPI DUP1 PUSH1 0x1F LT PUSH2 0x24B1 JUMPI PUSH2 0x100 DUP1 DUP4 SLOAD DIV MUL DUP4 MSTORE SWAP2 PUSH1 0x20 ADD SWAP2 PUSH2 0x24DC JUMP JUMPDEST DUP3 ADD SWAP2 SWAP1 PUSH1 0x0 MSTORE PUSH1 0x20 PUSH1 0x0 KECCAK256 SWAP1 JUMPDEST DUP2 SLOAD DUP2 MSTORE SWAP1 PUSH1 0x1 ADD SWAP1 PUSH1 0x20 ADD DUP1 DUP4 GT PUSH2 0x24BF JUMPI DUP3 SWAP1 SUB PUSH1 0x1F AND DUP3 ADD SWAP2 JUMPDEST POP POP POP PUSH1 0x9 DUP5 ADD SLOAD PUSH1 0xA DUP6 ADD SLOAD PUSH1 0xB DUP7 ADD SLOAD PUSH1 0xC DUP8 ADD SLOAD PUSH1 0xD DUP9 ADD SLOAD PUSH1 0xE SWAP1 SWAP9 ADD SLOAD SWAP7 SWAP8 PUSH1 0xFF SWAP1 SWAP5 AND SWAP7 SWAP3 SWAP6 POP SWAP1 SWAP4 POP SWAP2 SWAP1 DUP14 JUMP JUMPDEST PUSH1 0x1 PUSH1 0x1 PUSH1 0xA0 SHL SUB DUP1 DUP10 AND PUSH1 0x0 SWAP1 DUP2 MSTORE PUSH1 0x20 DUP2 SWAP1 MSTORE PUSH1 0x40 SWAP1 KECCAK256 DUP1 SLOAD SWAP1 SWAP2 AND PUSH2 0x257B JUMPI PUSH1 0x40 MLOAD PUSH3 0x461BCD PUSH1 0xE5 SHL DUP2 MSTORE PUSH1 0x20 PUSH1 0x4 DUP3 ADD MSTORE PUSH1 0x1A PUSH1 0x24 DUP3 ADD MSTORE PUSH32 0x496E76616C69642072657374617572616E742061646472657373000000000000 PUSH1 0x44 DUP3 ADD MSTORE PUSH1 0x64 ADD PUSH2 0x9E8 JUMP JUMPDEST PUSH1 0x0 JUMPDEST DUP8 DUP2 LT ISZERO PUSH2 0x2637 JUMPI DUP2 PUSH1 0x3 ADD DUP10 DUP10 DUP4 DUP2 DUP2 LT PUSH2 0x259C JUMPI PUSH2 0x259C PUSH2 0x3AA6 JUMP JUMPDEST SWAP1 POP PUSH1 0x20 MUL ADD CALLDATALOAD DUP2 SLOAD DUP2 LT PUSH2 0x25B3 JUMPI PUSH2 0x25B3 PUSH2 0x3AA6 JUMP JUMPDEST PUSH1 0x0 SWAP2 DUP3 MSTORE PUSH1 0x20 SWAP1 SWAP2 KECCAK256 PUSH1 0x4 PUSH1 0x5 SWAP1 SWAP3 MUL ADD ADD SLOAD PUSH1 0xFF AND ISZERO ISZERO PUSH1 0x1 EQ PUSH2 0x2627 JUMPI PUSH1 0x40 MLOAD PUSH3 0x461BCD PUSH1 0xE5 SHL DUP2 MSTORE PUSH1 0x20 PUSH1 0x4 DUP3 ADD MSTORE PUSH1 0x23 PUSH1 0x24 DUP3 ADD MSTORE PUSH32 0x4F7264657220636F6E7461696E7320756E617661696C61626C65206974656D73 PUSH1 0x44 DUP3 ADD MSTORE PUSH3 0x171717 PUSH1 0xE9 SHL PUSH1 0x64 DUP3 ADD MSTORE PUSH1 0x84 ADD PUSH2 0x9E8 JUMP JUMPDEST PUSH2 0x2630 DUP2 PUSH2 0x3E27 JUMP JUMPDEST SWAP1 POP PUSH2 0x257E JUMP JUMPDEST POP PUSH1 0x0 DUP1 PUSH2 0x2649 DUP12 DUP12 DUP12 DUP12 DUP12 DUP12 PUSH2 0x132E JUMP JUMPDEST SWAP1 SWAP3 POP SWAP1 POP PUSH2 0x2658 DUP2 DUP4 PUSH2 0x3E40 JUMP JUMPDEST CALLVALUE LT ISZERO PUSH2 0x269F JUMPI PUSH1 0x40 MLOAD PUSH3 0x461BCD PUSH1 0xE5 SHL DUP2 MSTORE PUSH1 0x20 PUSH1 0x4 DUP3 ADD MSTORE PUSH1 0x15 PUSH1 0x24 DUP3 ADD MSTORE PUSH21 0x125B98DBDC9C9958DD08185B5BDD5B9D081C185A59 PUSH1 0x5A SHL PUSH1 0x44 DUP3 ADD MSTORE PUSH1 0x64 ADD PUSH2 0x9E8 JUMP JUMPDEST PUSH1 0x0 PUSH1 0x7 DUP1 SLOAD SWAP1 POP SWAP1 POP PUSH1 0x7 PUSH1 0x40 MLOAD DUP1 PUSH2 0x1E0 ADD PUSH1 0x40 MSTORE DUP1 DUP4 DUP2 MSTORE PUSH1 0x20 ADD DUP15 PUSH1 0x1 PUSH1 0x1 PUSH1 0xA0 SHL SUB AND DUP2 MSTORE PUSH1 0x20 ADD CALLER PUSH1 0x1 PUSH1 0x1 PUSH1 0xA0 SHL SUB AND DUP2 MSTORE PUSH1 0x20 ADD PUSH1 0x0 PUSH1 0x1 PUSH1 0x1 PUSH1 0xA0 SHL SUB AND DUP2 MSTORE PUSH1 0x20 ADD DUP14 DUP14 DUP1 DUP1 PUSH1 0x20 MUL PUSH1 0x20 ADD PUSH1 0x40 MLOAD SWAP1 DUP2 ADD PUSH1 0x40 MSTORE DUP1 SWAP4 SWAP3 SWAP2 SWAP1 DUP2 DUP2 MSTORE PUSH1 0x20 ADD DUP4 DUP4 PUSH1 0x20 MUL DUP1 DUP3 DUP5 CALLDATACOPY PUSH1 0x0 SWAP3 ADD SWAP2 SWAP1 SWAP2 MSTORE POP POP POP SWAP1 DUP3 MSTORE POP PUSH1 0x40 DUP1 MLOAD PUSH1 0x20 DUP14 DUP2 MUL DUP3 DUP2 ADD DUP3 ADD SWAP1 SWAP4 MSTORE DUP14 DUP3 MSTORE SWAP3 DUP4 ADD SWAP3 SWAP1 SWAP2 DUP15 SWAP2 DUP15 SWAP2 DUP3 SWAP2 DUP6 ADD SWAP1 DUP5 SWAP1 DUP1 DUP3 DUP5 CALLDATACOPY PUSH1 0x0 SWAP3 ADD SWAP2 SWAP1 SWAP2 MSTORE POP POP POP SWAP1 DUP3 MSTORE POP PUSH1 0x20 DUP1 DUP3 ADD DUP7 SWAP1 MSTORE PUSH1 0x40 DUP1 DUP4 ADD DUP9 SWAP1 MSTORE DUP1 MLOAD PUSH1 0x1F DUP12 ADD DUP4 SWAP1 DIV DUP4 MUL DUP2 ADD DUP4 ADD SWAP1 SWAP2 MSTORE DUP10 DUP2 MSTORE PUSH1 0x60 SWAP1 SWAP3 ADD SWAP2 SWAP1 DUP11 SWAP1 DUP11 SWAP1 DUP2 SWAP1 DUP5 ADD DUP4 DUP3 DUP1 DUP3 DUP5 CALLDATACOPY PUSH1 0x0 SWAP3 ADD DUP3 SWAP1 MSTORE POP SWAP4 DUP6 MSTORE POP POP POP PUSH1 0x20 DUP1 DUP4 ADD DUP3 SWAP1 MSTORE PUSH1 0x40 DUP1 DUP5 ADD DUP4 SWAP1 MSTORE PUSH1 0x60 DUP1 DUP6 ADD DUP5 SWAP1 MSTORE PUSH1 0x80 DUP1 DUP7 ADD DUP6 SWAP1 MSTORE PUSH1 0xA0 DUP7 ADD DUP6 SWAP1 MSTORE PUSH1 0xC0 SWAP1 SWAP6 ADD DUP5 SWAP1 MSTORE DUP7 SLOAD PUSH1 0x1 DUP1 DUP3 ADD DUP10 SSTORE SWAP8 DUP6 MSTORE SWAP4 DUP4 SWAP1 KECCAK256 DUP7 MLOAD PUSH1 0xF SWAP1 SWAP6 MUL ADD SWAP4 DUP5 SSTORE DUP6 DUP4 ADD MLOAD SWAP7 DUP5 ADD DUP1 SLOAD PUSH1 0x1 PUSH1 0x1 PUSH1 0xA0 SHL SUB SWAP9 DUP10 AND PUSH1 0x1 PUSH1 0x1 PUSH1 0xA0 SHL SUB NOT SWAP2 DUP3 AND OR SWAP1 SWAP2 SSTORE SWAP2 DUP7 ADD MLOAD PUSH1 0x2 DUP6 ADD DUP1 SLOAD SWAP2 DUP10 AND SWAP2 DUP5 AND SWAP2 SWAP1 SWAP2 OR SWAP1 SSTORE DUP6 ADD MLOAD PUSH1 0x3 DUP5 ADD DUP1 SLOAD SWAP2 SWAP1 SWAP8 AND SWAP2 AND OR SWAP1 SWAP5 SSTORE SWAP1 DUP3 ADD MLOAD DUP1 MLOAD SWAP3 SWAP4 SWAP2 SWAP3 PUSH2 0x2852 SWAP3 PUSH1 0x4 DUP6 ADD SWAP3 ADD SWAP1 PUSH2 0x31DA JUMP JUMPDEST POP PUSH1 0xA0 DUP3 ADD MLOAD DUP1 MLOAD PUSH2 0x286E SWAP2 PUSH1 0x5 DUP5 ADD SWAP2 PUSH1 0x20 SWAP1 SWAP2 ADD SWAP1 PUSH2 0x31DA JUMP JUMPDEST POP PUSH1 0xC0 DUP3 ADD MLOAD PUSH1 0x6 DUP3 ADD SSTORE PUSH1 0xE0 DUP3 ADD MLOAD PUSH1 0x7 DUP3 ADD SSTORE PUSH2 0x100 DUP3 ADD MLOAD PUSH1 0x8 DUP3 ADD SWAP1 PUSH2 0x2898 SWAP1 DUP3 PUSH2 0x3B5A JUMP JUMPDEST POP PUSH2 0x120 DUP3 ADD MLOAD PUSH1 0x9 DUP3 ADD DUP1 SLOAD PUSH1 0xFF NOT AND PUSH1 0x1 DUP4 PUSH1 0x6 DUP2 GT ISZERO PUSH2 0x28BD JUMPI PUSH2 0x28BD PUSH2 0x37A0 JUMP JUMPDEST MUL OR SWAP1 SSTORE POP PUSH2 0x140 DUP3 ADD MLOAD PUSH1 0xA DUP3 ADD SSTORE PUSH2 0x160 DUP3 ADD MLOAD PUSH1 0xB DUP3 ADD SSTORE PUSH2 0x180 DUP3 ADD MLOAD PUSH1 0xC DUP3 ADD SSTORE PUSH2 0x1A0 DUP3 ADD MLOAD PUSH1 0xD DUP3 ADD SSTORE PUSH2 0x1C0 SWAP1 SWAP2 ADD MLOAD PUSH1 0xE SWAP1 SWAP2 ADD SSTORE CALLER PUSH1 0x0 SWAP1 DUP2 MSTORE PUSH1 0x2 PUSH1 0x20 SWAP1 DUP2 MSTORE PUSH1 0x40 DUP1 DUP4 KECCAK256 DUP1 SLOAD PUSH1 0x1 DUP2 DUP2 ADD DUP4 SSTORE SWAP2 DUP6 MSTORE DUP4 DUP6 KECCAK256 ADD DUP6 SWAP1 SSTORE PUSH1 0x1 PUSH1 0x1 PUSH1 0xA0 SHL SUB SWAP16 SWAP1 SWAP16 AND DUP4 MSTORE PUSH1 0x4 DUP3 MSTORE DUP3 KECCAK256 DUP1 SLOAD SWAP15 DUP16 ADD DUP2 SSTORE DUP3 MSTORE SWAP1 KECCAK256 SWAP1 SWAP12 ADD SWAP11 SWAP1 SWAP11 SSTORE POP POP POP POP POP POP POP POP POP POP JUMP JUMPDEST PUSH1 0x9 DUP2 DUP2 SLOAD DUP2 LT PUSH2 0x1D3B JUMPI PUSH1 0x0 DUP1 REVERT JUMPDEST PUSH1 0x0 PUSH1 0x7 DUP3 DUP2 SLOAD DUP2 LT PUSH2 0x2977 JUMPI PUSH2 0x2977 PUSH2 0x3AA6 JUMP JUMPDEST SWAP1 PUSH1 0x0 MSTORE PUSH1 0x20 PUSH1 0x0 KECCAK256 SWAP1 PUSH1 0xF MUL ADD SWAP1 POP DUP2 DUP2 PUSH1 0x0 ADD SLOAD EQ PUSH2 0x29AA JUMPI PUSH1 0x40 MLOAD PUSH3 0x461BCD PUSH1 0xE5 SHL DUP2 MSTORE PUSH1 0x4 ADD PUSH2 0x9E8 SWAP1 PUSH2 0x3C19 JUMP JUMPDEST PUSH1 0x1 DUP2 ADD SLOAD PUSH1 0x1 PUSH1 0x1 PUSH1 0xA0 SHL SUB AND CALLER EQ PUSH2 0x2A18 JUMPI PUSH1 0x40 MLOAD PUSH3 0x461BCD PUSH1 0xE5 SHL DUP2 MSTORE PUSH1 0x20 PUSH1 0x4 DUP3 ADD MSTORE PUSH1 0x29 PUSH1 0x24 DUP3 ADD MSTORE PUSH32 0x4F6E6C79207468652072657374617572616E742063616E206465636C696E6520 PUSH1 0x44 DUP3 ADD MSTORE PUSH9 0x3A34329037B93232B9 PUSH1 0xB9 SHL PUSH1 0x64 DUP3 ADD MSTORE PUSH1 0x84 ADD PUSH2 0x9E8 JUMP JUMPDEST PUSH1 0x0 PUSH1 0x9 DUP3 ADD SLOAD PUSH1 0xFF AND PUSH1 0x6 DUP2 GT ISZERO PUSH2 0x2A33 JUMPI PUSH2 0x2A33 PUSH2 0x37A0 JUMP JUMPDEST EQ PUSH2 0x2A78 JUMPI PUSH1 0x40 MLOAD PUSH3 0x461BCD PUSH1 0xE5 SHL DUP2 MSTORE PUSH1 0x20 PUSH1 0x4 DUP3 ADD MSTORE PUSH1 0x15 PUSH1 0x24 DUP3 ADD MSTORE PUSH21 0x4F72646572206D7573742062652070656E64696E67 PUSH1 0x58 SHL PUSH1 0x44 DUP3 ADD MSTORE PUSH1 0x64 ADD PUSH2 0x9E8 JUMP JUMPDEST PUSH1 0x2 DUP2 ADD SLOAD PUSH1 0x6 DUP3 ADD SLOAD PUSH1 0x7 DUP4 ADD SLOAD PUSH1 0x1 PUSH1 0x1 PUSH1 0xA0 SHL SUB SWAP1 SWAP3 AND SWAP2 DUP3 SWAP2 PUSH2 0x8FC SWAP2 PUSH2 0x2AA3 SWAP2 SWAP1 PUSH2 0x3E40 JUMP JUMPDEST PUSH1 0x40 MLOAD DUP2 ISZERO SWAP1 SWAP3 MUL SWAP2 PUSH1 0x0 DUP2 DUP2 DUP2 DUP6 DUP9 DUP9 CALL SWAP4 POP POP POP POP PUSH2 0x2AD6 JUMPI PUSH1 0x40 MLOAD PUSH3 0x461BCD PUSH1 0xE5 SHL DUP2 MSTORE PUSH1 0x4 ADD PUSH2 0x9E8 SWAP1 PUSH2 0x3F13 JUMP JUMPDEST POP PUSH1 0x9 ADD DUP1 SLOAD PUSH1 0xFF NOT AND PUSH1 0x6 OR SWAP1 SSTORE POP JUMP JUMPDEST PUSH1 0x2 PUSH1 0x20 MSTORE DUP2 PUSH1 0x0 MSTORE PUSH1 0x40 PUSH1 0x0 KECCAK256 DUP2 DUP2 SLOAD DUP2 LT PUSH2 0x863 JUMPI PUSH1 0x0 DUP1 REVERT JUMPDEST PUSH1 0x0 PUSH1 0x7 DUP3 DUP2 SLOAD DUP2 LT PUSH2 0x2B19 JUMPI PUSH2 0x2B19 PUSH2 0x3AA6 JUMP JUMPDEST SWAP1 PUSH1 0x0 MSTORE PUSH1 0x20 PUSH1 0x0 KECCAK256 SWAP1 PUSH1 0xF MUL ADD SWAP1 POP DUP2 DUP2 PUSH1 0x0 ADD SLOAD EQ PUSH2 0x2B4C JUMPI PUSH1 0x40 MLOAD PUSH3 0x461BCD PUSH1 0xE5 SHL DUP2 MSTORE PUSH1 0x4 ADD PUSH2 0x9E8 SWAP1 PUSH2 0x3C19 JUMP JUMPDEST PUSH1 0x4 PUSH1 0x9 DUP3 ADD SLOAD PUSH1 0xFF AND PUSH1 0x6 DUP2 GT ISZERO PUSH2 0x2B67 JUMPI PUSH2 0x2B67 PUSH2 0x37A0 JUMP JUMPDEST EQ PUSH2 0x2B71 JUMPI PUSH1 0x0 DUP1 REVERT JUMPDEST PUSH1 0x2 DUP2 ADD SLOAD PUSH1 0x1 PUSH1 0x1 PUSH1 0xA0 SHL SUB AND CALLER EQ PUSH2 0x2BE0 JUMPI PUSH1 0x40 MLOAD PUSH3 0x461BCD PUSH1 0xE5 SHL DUP2 MSTORE PUSH1 0x20 PUSH1 0x4 DUP3 ADD MSTORE PUSH1 0x2A PUSH1 0x24 DUP3 ADD MSTORE PUSH32 0x4F726465722064656C6976657279206D75737420626520636F6E6669726D6564 PUSH1 0x44 DUP3 ADD MSTORE PUSH10 0x8189E4818DB1A595B9D PUSH1 0xB2 SHL PUSH1 0x64 DUP3 ADD MSTORE PUSH1 0x84 ADD PUSH2 0x9E8 JUMP JUMPDEST PUSH1 0x0 DUP2 PUSH1 0xC ADD SLOAD DUP3 PUSH1 0xD ADD SLOAD PUSH2 0x2BF6 SWAP2 SWAP1 PUSH2 0x3F4A JUMP JUMPDEST SWAP1 POP PUSH1 0x0 DUP3 PUSH1 0xD ADD SLOAD TIMESTAMP PUSH2 0x2C0A SWAP2 SWAP1 PUSH2 0x3F4A JUMP JUMPDEST SWAP1 POP PUSH1 0x0 DUP4 PUSH1 0x6 ADD SLOAD DUP5 PUSH1 0x7 ADD SLOAD PUSH2 0x2C22 SWAP2 SWAP1 PUSH2 0x3E40 JUMP JUMPDEST SWAP1 POP PUSH1 0x0 DUP1 PUSH1 0x0 DUP1 PUSH1 0xA SWAP1 POP DUP8 PUSH1 0xA ADD SLOAD DUP8 GT ISZERO PUSH2 0x2C59 JUMPI PUSH1 0x64 DUP9 PUSH1 0x7 ADD SLOAD DUP3 PUSH2 0x2C4C SWAP2 SWAP1 PUSH2 0x3DEE JUMP JUMPDEST PUSH2 0x2C56 SWAP2 SWAP1 PUSH2 0x3E05 JUMP JUMPDEST SWAP3 POP JUMPDEST DUP8 PUSH1 0xB ADD SLOAD DUP7 GT ISZERO PUSH2 0x2C84 JUMPI PUSH1 0x64 DUP9 PUSH1 0x6 ADD SLOAD DUP3 PUSH2 0x2C77 SWAP2 SWAP1 PUSH2 0x3DEE JUMP JUMPDEST PUSH2 0x2C81 SWAP2 SWAP1 PUSH2 0x3E05 JUMP JUMPDEST SWAP2 POP JUMPDEST PUSH1 0x1 DUP9 ADD SLOAD PUSH1 0x3 DUP10 ADD SLOAD PUSH1 0x2 DUP11 ADD SLOAD PUSH1 0x7 DUP12 ADD SLOAD PUSH1 0x1 PUSH1 0x1 PUSH1 0xA0 SHL SUB SWAP4 DUP5 AND SWAP4 SWAP3 DUP4 AND SWAP3 SWAP1 SWAP2 AND SWAP1 PUSH1 0x0 SWAP1 PUSH2 0x2CBA SWAP1 DUP9 SWAP1 PUSH2 0x3F4A JUMP JUMPDEST SWAP1 POP PUSH1 0x0 DUP7 DUP14 PUSH1 0x6 ADD SLOAD PUSH2 0x2CCE SWAP2 SWAP1 PUSH2 0x3F4A JUMP JUMPDEST PUSH1 0x40 MLOAD SWAP1 SWAP2 POP PUSH1 0x1 PUSH1 0x1 PUSH1 0xA0 SHL SUB DUP7 AND SWAP1 DUP4 ISZERO PUSH2 0x8FC MUL SWAP1 DUP5 SWAP1 PUSH1 0x0 DUP2 DUP2 DUP2 DUP6 DUP9 DUP9 CALL SWAP4 POP POP POP POP PUSH2 0x2D4E JUMPI PUSH1 0x40 MLOAD PUSH3 0x461BCD PUSH1 0xE5 SHL DUP2 MSTORE PUSH1 0x20 PUSH1 0x4 DUP3 ADD MSTORE PUSH1 0x24 DUP1 DUP3 ADD MSTORE PUSH32 0x4661696C656420746F2073656E64207061796D656E7420746F20726573746175 PUSH1 0x44 DUP3 ADD MSTORE PUSH4 0x1C985B9D PUSH1 0xE2 SHL PUSH1 0x64 DUP3 ADD MSTORE PUSH1 0x84 ADD PUSH2 0x9E8 JUMP JUMPDEST PUSH1 0x40 MLOAD PUSH1 0x1 PUSH1 0x1 PUSH1 0xA0 SHL SUB DUP6 AND SWAP1 DUP3 ISZERO PUSH2 0x8FC MUL SWAP1 DUP4 SWAP1 PUSH1 0x0 DUP2 DUP2 DUP2 DUP6 DUP9 DUP9 CALL SWAP4 POP POP POP POP PUSH2 0x2DC9 JUMPI PUSH1 0x40 MLOAD PUSH3 0x461BCD PUSH1 0xE5 SHL DUP2 MSTORE PUSH1 0x20 PUSH1 0x4 DUP3 ADD MSTORE PUSH1 0x21 PUSH1 0x24 DUP3 ADD MSTORE PUSH32 0x4661696C656420746F2073656E64207061796D656E7420746F20636F75726965 PUSH1 0x44 DUP3 ADD MSTORE PUSH1 0x39 PUSH1 0xF9 SHL PUSH1 0x64 DUP3 ADD MSTORE PUSH1 0x84 ADD PUSH2 0x9E8 JUMP JUMPDEST PUSH1 0x1 PUSH1 0x1 PUSH1 0xA0 SHL SUB DUP4 AND PUSH2 0x8FC PUSH2 0x2DE0 DUP10 DUP12 PUSH2 0x3E40 JUMP JUMPDEST PUSH1 0x40 MLOAD DUP2 ISZERO SWAP1 SWAP3 MUL SWAP2 PUSH1 0x0 DUP2 DUP2 DUP2 DUP6 DUP9 DUP9 CALL SWAP4 POP POP POP POP PUSH2 0x2E43 JUMPI PUSH1 0x40 MLOAD PUSH3 0x461BCD PUSH1 0xE5 SHL DUP2 MSTORE PUSH1 0x20 PUSH1 0x4 DUP3 ADD DUP2 SWAP1 MSTORE PUSH1 0x24 DUP3 ADD MSTORE PUSH32 0x4661696C656420746F2073656E64207061796D656E7420746F20636C69656E74 PUSH1 0x44 DUP3 ADD MSTORE PUSH1 0x64 ADD PUSH2 0x9E8 JUMP JUMPDEST POP POP POP POP PUSH1 0x9 SWAP9 SWAP1 SWAP9 ADD DUP1 SLOAD PUSH1 0xFF NOT AND PUSH1 0x5 OR SWAP1 SSTORE POP POP POP POP POP POP POP POP POP JUMP JUMPDEST PUSH1 0x3 PUSH1 0x20 MSTORE PUSH1 0x0 SWAP1 DUP2 MSTORE PUSH1 0x40 SWAP1 KECCAK256 DUP1 SLOAD PUSH1 0x1 DUP3 ADD SLOAD PUSH1 0x2 DUP4 ADD DUP1 SLOAD SWAP3 SWAP4 SWAP2 SWAP3 PUSH2 0xE58 SWAP1 PUSH2 0x3AD2 JUMP JUMPDEST PUSH1 0x0 DUP1 DUP1 DUP1 JUMPDEST PUSH1 0x1 PUSH1 0x1 PUSH1 0xA0 SHL SUB DUP6 AND PUSH1 0x0 SWAP1 DUP2 MSTORE PUSH1 0x4 PUSH1 0x20 MSTORE PUSH1 0x40 SWAP1 KECCAK256 SLOAD DUP2 LT ISZERO PUSH2 0x2F44 JUMPI PUSH1 0x1 PUSH1 0x1 PUSH1 0xA0 SHL SUB DUP6 AND PUSH1 0x0 SWAP1 DUP2 MSTORE PUSH1 0x4 PUSH1 0x20 MSTORE PUSH1 0x40 DUP2 KECCAK256 DUP1 SLOAD DUP4 SWAP1 DUP2 LT PUSH2 0x2EDB JUMPI PUSH2 0x2EDB PUSH2 0x3AA6 JUMP JUMPDEST SWAP1 PUSH1 0x0 MSTORE PUSH1 0x20 PUSH1 0x0 KECCAK256 ADD SLOAD SWAP1 POP DUP1 PUSH1 0x3 PUSH1 0x0 DUP4 DUP2 MSTORE PUSH1 0x20 ADD SWAP1 DUP2 MSTORE PUSH1 0x20 ADD PUSH1 0x0 KECCAK256 PUSH1 0x0 ADD SLOAD SUB PUSH2 0x2F31 JUMPI PUSH1 0x0 DUP2 DUP2 MSTORE PUSH1 0x3 PUSH1 0x20 MSTORE PUSH1 0x40 SWAP1 KECCAK256 PUSH1 0x1 ADD SLOAD PUSH2 0x2F21 SWAP1 DUP6 PUSH2 0x3E40 JUMP JUMPDEST SWAP4 POP DUP3 PUSH2 0x2F2D DUP2 PUSH2 0x3E27 JUMP JUMPDEST SWAP4 POP POP JUMPDEST POP DUP1 PUSH2 0x2F3C DUP2 PUSH2 0x3E27 JUMP JUMPDEST SWAP2 POP POP PUSH2 0x2E91 JUMP JUMPDEST POP DUP1 PUSH1 0x0 SUB PUSH2 0x2F57 JUMPI POP PUSH1 0x0 SWAP4 SWAP3 POP POP POP JUMP JUMPDEST PUSH2 0x2F61 DUP2 DUP4 PUSH2 0x3E05 JUMP JUMPDEST SWAP5 SWAP4 POP POP POP POP JUMP JUMPDEST PUSH1 0x0 PUSH1 0x7 DUP3 DUP2 SLOAD DUP2 LT PUSH2 0x2F7E JUMPI PUSH2 0x2F7E PUSH2 0x3AA6 JUMP JUMPDEST SWAP1 PUSH1 0x0 MSTORE PUSH1 0x20 PUSH1 0x0 KECCAK256 SWAP1 PUSH1 0xF MUL ADD SWAP1 POP DUP2 DUP2 PUSH1 0x0 ADD SLOAD EQ PUSH2 0x2FB1 JUMPI PUSH1 0x40 MLOAD PUSH3 0x461BCD PUSH1 0xE5 SHL DUP2 MSTORE PUSH1 0x4 ADD PUSH2 0x9E8 SWAP1 PUSH2 0x3C19 JUMP JUMPDEST PUSH1 0x2 PUSH1 0x9 DUP3 ADD SLOAD PUSH1 0xFF AND PUSH1 0x6 DUP2 GT ISZERO PUSH2 0x2FCC JUMPI PUSH2 0x2FCC PUSH2 0x37A0 JUMP JUMPDEST EQ PUSH2 0x2FD6 JUMPI PUSH1 0x0 DUP1 REVERT JUMPDEST PUSH1 0x1 DUP2 ADD SLOAD PUSH1 0x1 PUSH1 0x1 PUSH1 0xA0 SHL SUB AND CALLER EQ PUSH2 0x3066 JUMPI PUSH1 0x40 MLOAD PUSH3 0x461BCD PUSH1 0xE5 SHL DUP2 MSTORE PUSH1 0x20 PUSH1 0x4 DUP3 ADD MSTORE PUSH1 0x44 PUSH1 0x24 DUP3 ADD DUP2 SWAP1 MSTORE PUSH32 0x4F72646572206D757374206265206D61726B656420726561647920746F206465 SWAP1 DUP3 ADD MSTORE PUSH32 0x6C69766572206279207468652072657374617572616E74206F6620746865206F PUSH1 0x64 DUP3 ADD MSTORE PUSH4 0x393232B9 PUSH1 0xE1 SHL PUSH1 0x84 DUP3 ADD MSTORE PUSH1 0xA4 ADD PUSH2 0x9E8 JUMP JUMPDEST PUSH1 0x9 DUP2 ADD DUP1 SLOAD PUSH1 0x3 SWAP2 SWAP1 PUSH1 0xFF NOT AND PUSH1 0x1 DUP4 PUSH2 0xC6C JUMP JUMPDEST PUSH1 0x0 JUMPDEST PUSH1 0x6 SLOAD DUP2 LT ISZERO PUSH2 0x3134 JUMPI DUP2 PUSH1 0x6 DUP3 DUP2 SLOAD DUP2 LT PUSH2 0x309D JUMPI PUSH2 0x309D PUSH2 0x3AA6 JUMP JUMPDEST SWAP1 PUSH1 0x0 MSTORE PUSH1 0x20 PUSH1 0x0 KECCAK256 ADD SLOAD SUB PUSH2 0x3122 JUMPI PUSH1 0x6 DUP1 SLOAD PUSH2 0x30BD SWAP1 PUSH1 0x1 SWAP1 PUSH2 0x3F4A JUMP JUMPDEST DUP2 SLOAD DUP2 LT PUSH2 0x30CD JUMPI PUSH2 0x30CD PUSH2 0x3AA6 JUMP JUMPDEST SWAP1 PUSH1 0x0 MSTORE PUSH1 0x20 PUSH1 0x0 KECCAK256 ADD SLOAD PUSH1 0x6 DUP3 DUP2 SLOAD DUP2 LT PUSH2 0x30EB JUMPI PUSH2 0x30EB PUSH2 0x3AA6 JUMP JUMPDEST PUSH1 0x0 SWAP2 DUP3 MSTORE PUSH1 0x20 SWAP1 SWAP2 KECCAK256 ADD SSTORE PUSH1 0x6 DUP1 SLOAD DUP1 PUSH2 0x3108 JUMPI PUSH2 0x3108 PUSH2 0x3F5D JUMP JUMPDEST PUSH1 0x1 SWAP1 SUB DUP2 DUP2 SWAP1 PUSH1 0x0 MSTORE PUSH1 0x20 PUSH1 0x0 KECCAK256 ADD PUSH1 0x0 SWAP1 SSTORE SWAP1 SSTORE POP POP JUMP JUMPDEST DUP1 PUSH2 0x312C DUP2 PUSH2 0x3E27 JUMP JUMPDEST SWAP2 POP POP PUSH2 0x307F JUMP JUMPDEST POP POP JUMP JUMPDEST PUSH1 0x40 MLOAD DUP1 PUSH2 0x1E0 ADD PUSH1 0x40 MSTORE DUP1 PUSH1 0x0 DUP2 MSTORE PUSH1 0x20 ADD PUSH1 0x0 PUSH1 0x1 PUSH1 0x1 PUSH1 0xA0 SHL SUB AND DUP2 MSTORE PUSH1 0x20 ADD PUSH1 0x0 PUSH1 0x1 PUSH1 0x1 PUSH1 0xA0 SHL SUB AND DUP2 MSTORE PUSH1 0x20 ADD PUSH1 0x0 PUSH1 0x1 PUSH1 0x1 PUSH1 0xA0 SHL SUB AND DUP2 MSTORE PUSH1 0x20 ADD PUSH1 0x60 DUP2 MSTORE PUSH1 0x20 ADD PUSH1 0x60 DUP2 MSTORE PUSH1 0x20 ADD PUSH1 0x0 DUP2 MSTORE PUSH1 0x20 ADD PUSH1 0x0 DUP2 MSTORE PUSH1 0x20 ADD PUSH1 0x60 DUP2 MSTORE PUSH1 0x20 ADD PUSH1 0x0 PUSH1 0x6 DUP2 GT ISZERO PUSH2 0x31B1 JUMPI PUSH2 0x31B1 PUSH2 0x37A0 JUMP JUMPDEST DUP2 MSTORE PUSH1 0x20 ADD PUSH1 0x0 DUP2 MSTORE PUSH1 0x20 ADD PUSH1 0x0 DUP2 MSTORE PUSH1 0x20 ADD PUSH1 0x0 DUP2 MSTORE PUSH1 0x20 ADD PUSH1 0x0 DUP2 MSTORE PUSH1 0x20 ADD PUSH1 0x0 DUP2 MSTORE POP SWAP1 JUMP JUMPDEST DUP3 DUP1 SLOAD DUP3 DUP3 SSTORE SWAP1 PUSH1 0x0 MSTORE PUSH1 0x20 PUSH1 0x0 KECCAK256 SWAP1 DUP2 ADD SWAP3 DUP3 ISZERO PUSH2 0x3215 JUMPI SWAP2 PUSH1 0x20 MUL DUP3 ADD JUMPDEST DUP3 DUP2 GT ISZERO PUSH2 0x3215 JUMPI DUP3 MLOAD DUP3 SSTORE SWAP2 PUSH1 0x20 ADD SWAP2 SWAP1 PUSH1 0x1 ADD SWAP1 PUSH2 0x31FA JUMP JUMPDEST POP PUSH2 0x3221 SWAP3 SWAP2 POP PUSH2 0x3225 JUMP JUMPDEST POP SWAP1 JUMP JUMPDEST JUMPDEST DUP1 DUP3 GT ISZERO PUSH2 0x3221 JUMPI PUSH1 0x0 DUP2 SSTORE PUSH1 0x1 ADD PUSH2 0x3226 JUMP JUMPDEST DUP1 CALLDATALOAD PUSH1 0x1 PUSH1 0x1 PUSH1 0xA0 SHL SUB DUP2 AND DUP2 EQ PUSH2 0x3251 JUMPI PUSH1 0x0 DUP1 REVERT JUMPDEST SWAP2 SWAP1 POP JUMP JUMPDEST PUSH1 0x0 DUP1 PUSH1 0x40 DUP4 DUP6 SUB SLT ISZERO PUSH2 0x3269 JUMPI PUSH1 0x0 DUP1 REVERT JUMPDEST PUSH2 0x3272 DUP4 PUSH2 0x323A JUMP JUMPDEST SWAP5 PUSH1 0x20 SWAP4 SWAP1 SWAP4 ADD CALLDATALOAD SWAP4 POP POP POP JUMP JUMPDEST PUSH1 0x0 DUP1 DUP4 PUSH1 0x1F DUP5 ADD SLT PUSH2 0x3292 JUMPI PUSH1 0x0 DUP1 REVERT JUMPDEST POP DUP2 CALLDATALOAD PUSH1 0x1 PUSH1 0x1 PUSH1 0x40 SHL SUB DUP2 GT ISZERO PUSH2 0x32A9 JUMPI PUSH1 0x0 DUP1 REVERT JUMPDEST PUSH1 0x20 DUP4 ADD SWAP2 POP DUP4 PUSH1 0x20 DUP3 DUP6 ADD ADD GT ISZERO PUSH2 0x32C1 JUMPI PUSH1 0x0 DUP1 REVERT JUMPDEST SWAP3 POP SWAP3 SWAP1 POP JUMP JUMPDEST PUSH1 0x0 DUP1 PUSH1 0x0 DUP1 PUSH1 0x0 DUP1 PUSH1 0x80 DUP8 DUP10 SUB SLT ISZERO PUSH2 0x32E1 JUMPI PUSH1 0x0 DUP1 REVERT JUMPDEST DUP7 CALLDATALOAD SWAP6 POP PUSH1 0x20 DUP8 ADD CALLDATALOAD PUSH1 0x1 PUSH1 0x1 PUSH1 0x40 SHL SUB DUP1 DUP3 GT ISZERO PUSH2 0x32FF JUMPI PUSH1 0x0 DUP1 REVERT JUMPDEST PUSH2 0x330B DUP11 DUP4 DUP12 ADD PUSH2 0x3280 JUMP JUMPDEST SWAP1 SWAP8 POP SWAP6 POP PUSH1 0x40 DUP10 ADD CALLDATALOAD SWAP2 POP DUP1 DUP3 GT ISZERO PUSH2 0x3324 JUMPI PUSH1 0x0 DUP1 REVERT JUMPDEST POP PUSH2 0x3331 DUP10 DUP3 DUP11 ADD PUSH2 0x3280 JUMP JUMPDEST SWAP8 SWAP11 SWAP7 SWAP10 POP SWAP5 SWAP8 SWAP5 SWAP7 SWAP6 PUSH1 0x60 SWAP1 SWAP6 ADD CALLDATALOAD SWAP5 SWAP4 POP POP POP POP JUMP JUMPDEST PUSH1 0x0 DUP1 PUSH1 0x0 DUP1 PUSH1 0x60 DUP6 DUP8 SUB SLT ISZERO PUSH2 0x335F JUMPI PUSH1 0x0 DUP1 REVERT JUMPDEST DUP5 CALLDATALOAD SWAP4 POP PUSH1 0x20 DUP6 ADD CALLDATALOAD SWAP3 POP PUSH1 0x40 DUP6 ADD CALLDATALOAD PUSH1 0x1 PUSH1 0x1 PUSH1 0x40 SHL SUB DUP2 GT ISZERO PUSH2 0x3383 JUMPI PUSH1 0x0 DUP1 REVERT JUMPDEST PUSH2 0x338F DUP8 DUP3 DUP9 ADD PUSH2 0x3280 JUMP JUMPDEST SWAP6 SWAP9 SWAP5 SWAP8 POP SWAP6 POP POP POP POP JUMP JUMPDEST PUSH1 0x0 PUSH1 0x20 DUP3 DUP5 SUB SLT ISZERO PUSH2 0x33AD JUMPI PUSH1 0x0 DUP1 REVERT JUMPDEST PUSH2 0x33B6 DUP3 PUSH2 0x323A JUMP JUMPDEST SWAP4 SWAP3 POP POP POP JUMP JUMPDEST PUSH1 0x0 PUSH1 0x20 DUP3 DUP5 SUB SLT ISZERO PUSH2 0x33CF JUMPI PUSH1 0x0 DUP1 REVERT JUMPDEST POP CALLDATALOAD SWAP2 SWAP1 POP JUMP JUMPDEST PUSH1 0x0 DUP2 MLOAD DUP1 DUP5 MSTORE PUSH1 0x0 JUMPDEST DUP2 DUP2 LT ISZERO PUSH2 0x33FC JUMPI PUSH1 0x20 DUP2 DUP6 ADD DUP2 ADD MLOAD DUP7 DUP4 ADD DUP3 ADD MSTORE ADD PUSH2 0x33E0 JUMP JUMPDEST POP PUSH1 0x0 PUSH1 0x20 DUP3 DUP7 ADD ADD MSTORE PUSH1 0x20 PUSH1 0x1F NOT PUSH1 0x1F DUP4 ADD AND DUP6 ADD ADD SWAP2 POP POP SWAP3 SWAP2 POP POP JUMP JUMPDEST PUSH1 0x1 PUSH1 0x1 PUSH1 0xA0 SHL SUB DUP5 AND DUP2 MSTORE PUSH1 0x60 PUSH1 0x20 DUP3 ADD DUP2 SWAP1 MSTORE PUSH1 0x0 SWAP1 PUSH2 0x3440 SWAP1 DUP4 ADD DUP6 PUSH2 0x33D6 JUMP JUMPDEST DUP3 DUP2 SUB PUSH1 0x40 DUP5 ADD MSTORE PUSH2 0x3452 DUP2 DUP6 PUSH2 0x33D6 JUMP JUMPDEST SWAP7 SWAP6 POP POP POP POP POP POP JUMP JUMPDEST PUSH1 0x0 DUP1 PUSH1 0x40 DUP4 DUP6 SUB SLT ISZERO PUSH2 0x346F JUMPI PUSH1 0x0 DUP1 REVERT JUMPDEST POP POP DUP1 CALLDATALOAD SWAP3 PUSH1 0x20 SWAP1 SWAP2 ADD CALLDATALOAD SWAP2 POP JUMP JUMPDEST DUP1 MLOAD DUP3 MSTORE PUSH1 0x0 PUSH1 0x20 DUP3 ADD MLOAD PUSH1 0xA0 PUSH1 0x20 DUP6 ADD MSTORE PUSH2 0x349D PUSH1 0xA0 DUP6 ADD DUP3 PUSH2 0x33D6 JUMP JUMPDEST SWAP1 POP PUSH1 0x40 DUP4 ADD MLOAD DUP5 DUP3 SUB PUSH1 0x40 DUP7 ADD MSTORE PUSH2 0x34B6 DUP3 DUP3 PUSH2 0x33D6 JUMP JUMPDEST SWAP2 POP POP PUSH1 0x60 DUP4 ADD MLOAD PUSH1 0x60 DUP6 ADD MSTORE PUSH1 0x80 DUP4 ADD MLOAD ISZERO ISZERO PUSH1 0x80 DUP6 ADD MSTORE DUP1 SWAP2 POP POP SWAP3 SWAP2 POP POP JUMP JUMPDEST PUSH1 0x0 DUP2 MLOAD DUP1 DUP5 MSTORE PUSH1 0x20 DUP1 DUP6 ADD SWAP5 POP DUP1 DUP5 ADD PUSH1 0x0 JUMPDEST DUP4 DUP2 LT ISZERO PUSH2 0x3509 JUMPI DUP2 MLOAD DUP8 MSTORE SWAP6 DUP3 ADD SWAP6 SWAP1 DUP3 ADD SWAP1 PUSH1 0x1 ADD PUSH2 0x34ED JUMP JUMPDEST POP SWAP5 SWAP6 SWAP5 POP POP POP POP POP JUMP JUMPDEST PUSH1 0x0 PUSH1 0x40 DUP3 ADD PUSH1 0x40 DUP4 MSTORE DUP1 DUP6 MLOAD DUP1 DUP4 MSTORE PUSH1 0x60 DUP6 ADD SWAP2 POP PUSH1 0x60 DUP2 PUSH1 0x5 SHL DUP7 ADD ADD SWAP3 POP PUSH1 0x20 DUP1 DUP9 ADD PUSH1 0x0 JUMPDEST DUP4 DUP2 LT ISZERO PUSH2 0x356B JUMPI PUSH1 0x5F NOT DUP9 DUP8 SUB ADD DUP6 MSTORE PUSH2 0x3559 DUP7 DUP4 MLOAD PUSH2 0x347E JUMP JUMPDEST SWAP6 POP SWAP4 DUP3 ADD SWAP4 SWAP1 DUP3 ADD SWAP1 PUSH1 0x1 ADD PUSH2 0x353D JUMP JUMPDEST POP POP DUP6 DUP5 SUB DUP2 DUP8 ADD MSTORE POP POP POP PUSH2 0xD95 DUP2 DUP6 PUSH2 0x34D9 JUMP JUMPDEST PUSH1 0x0 DUP1 DUP4 PUSH1 0x1F DUP5 ADD SLT PUSH2 0x3593 JUMPI PUSH1 0x0 DUP1 REVERT JUMPDEST POP DUP2 CALLDATALOAD PUSH1 0x1 PUSH1 0x1 PUSH1 0x40 SHL SUB DUP2 GT ISZERO PUSH2 0x35AA JUMPI PUSH1 0x0 DUP1 REVERT JUMPDEST PUSH1 0x20 DUP4 ADD SWAP2 POP DUP4 PUSH1 0x20 DUP3 PUSH1 0x5 SHL DUP6 ADD ADD GT ISZERO PUSH2 0x32C1 JUMPI PUSH1 0x0 DUP1 REVERT JUMPDEST PUSH1 0x0 DUP1 PUSH1 0x0 DUP1 PUSH1 0x0 DUP1 PUSH1 0x80 DUP8 DUP10 SUB SLT ISZERO PUSH2 0x35DE JUMPI PUSH1 0x0 DUP1 REVERT JUMPDEST PUSH2 0x35E7 DUP8 PUSH2 0x323A JUMP JUMPDEST SWAP6 POP PUSH1 0x20 DUP8 ADD CALLDATALOAD PUSH1 0x1 PUSH1 0x1 PUSH1 0x40 SHL SUB DUP1 DUP3 GT ISZERO PUSH2 0x3603 JUMPI PUSH1 0x0 DUP1 REVERT JUMPDEST PUSH2 0x360F DUP11 DUP4 DUP12 ADD PUSH2 0x3581 JUMP JUMPDEST SWAP1 SWAP8 POP SWAP6 POP PUSH1 0x40 DUP10 ADD CALLDATALOAD SWAP2 POP DUP1 DUP3 GT ISZERO PUSH2 0x3628 JUMPI PUSH1 0x0 DUP1 REVERT JUMPDEST POP PUSH2 0x3331 DUP10 DUP3 DUP11 ADD PUSH2 0x3581 JUMP JUMPDEST PUSH1 0x0 DUP1 PUSH1 0x20 DUP4 DUP6 SUB SLT ISZERO PUSH2 0x3648 JUMPI PUSH1 0x0 DUP1 REVERT JUMPDEST DUP3 CALLDATALOAD PUSH1 0x1 PUSH1 0x1 PUSH1 0x40 SHL SUB DUP2 GT ISZERO PUSH2 0x365E JUMPI PUSH1 0x0 DUP1 REVERT JUMPDEST PUSH2 0x366A DUP6 DUP3 DUP7 ADD PUSH2 0x3280 JUMP JUMPDEST SWAP1 SWAP7 SWAP1 SWAP6 POP SWAP4 POP POP POP POP JUMP JUMPDEST PUSH1 0x1 PUSH1 0x1 PUSH1 0xA0 SHL SUB DUP4 AND DUP2 MSTORE PUSH1 0x40 PUSH1 0x20 DUP3 ADD DUP2 SWAP1 MSTORE PUSH1 0x0 SWAP1 PUSH2 0x2F61 SWAP1 DUP4 ADD DUP5 PUSH2 0x33D6 JUMP JUMPDEST PUSH1 0x0 DUP1 PUSH1 0x0 DUP1 PUSH1 0x0 PUSH1 0x60 DUP7 DUP9 SUB SLT ISZERO PUSH2 0x36B2 JUMPI PUSH1 0x0 DUP1 REVERT JUMPDEST DUP6 CALLDATALOAD PUSH1 0x1 PUSH1 0x1 PUSH1 0x40 SHL SUB DUP1 DUP3 GT ISZERO PUSH2 0x36C9 JUMPI PUSH1 0x0 DUP1 REVERT JUMPDEST PUSH2 0x36D5 DUP10 DUP4 DUP11 ADD PUSH2 0x3280 JUMP JUMPDEST SWAP1 SWAP8 POP SWAP6 POP PUSH1 0x20 DUP9 ADD CALLDATALOAD SWAP2 POP DUP1 DUP3 GT ISZERO PUSH2 0x36EE JUMPI PUSH1 0x0 DUP1 REVERT JUMPDEST POP PUSH2 0x36FB DUP9 DUP3 DUP10 ADD PUSH2 0x3280 JUMP JUMPDEST SWAP7 SWAP10 SWAP6 SWAP9 POP SWAP7 PUSH1 0x40 ADD CALLDATALOAD SWAP5 SWAP4 POP POP POP POP JUMP JUMPDEST PUSH1 0x20 DUP2 MSTORE PUSH1 0x0 PUSH2 0x33B6 PUSH1 0x20 DUP4 ADD DUP5 PUSH2 0x347E JUMP JUMPDEST PUSH1 0x0 DUP1 PUSH1 0x0 DUP1 PUSH1 0x40 DUP6 DUP8 SUB SLT ISZERO PUSH2 0x3736 JUMPI PUSH1 0x0 DUP1 REVERT JUMPDEST DUP5 CALLDATALOAD PUSH1 0x1 PUSH1 0x1 PUSH1 0x40 SHL SUB DUP1 DUP3 GT ISZERO PUSH2 0x374D JUMPI PUSH1 0x0 DUP1 REVERT JUMPDEST PUSH2 0x3759 DUP9 DUP4 DUP10 ADD PUSH2 0x3280 JUMP JUMPDEST SWAP1 SWAP7 POP SWAP5 POP PUSH1 0x20 DUP8 ADD CALLDATALOAD SWAP2 POP DUP1 DUP3 GT ISZERO PUSH2 0x3772 JUMPI PUSH1 0x0 DUP1 REVERT JUMPDEST POP PUSH2 0x338F DUP8 DUP3 DUP9 ADD PUSH2 0x3280 JUMP JUMPDEST PUSH1 0x0 PUSH1 0x20 DUP3 DUP5 SUB SLT ISZERO PUSH2 0x3791 JUMPI PUSH1 0x0 DUP1 REVERT JUMPDEST DUP2 CALLDATALOAD PUSH1 0x7 DUP2 LT PUSH2 0x33B6 JUMPI PUSH1 0x0 DUP1 REVERT JUMPDEST PUSH4 0x4E487B71 PUSH1 0xE0 SHL PUSH1 0x0 MSTORE PUSH1 0x21 PUSH1 0x4 MSTORE PUSH1 0x24 PUSH1 0x0 REVERT JUMPDEST PUSH1 0x7 DUP2 LT PUSH2 0x37D4 JUMPI PUSH4 0x4E487B71 PUSH1 0xE0 SHL PUSH1 0x0 MSTORE PUSH1 0x21 PUSH1 0x4 MSTORE PUSH1 0x24 PUSH1 0x0 REVERT JUMPDEST SWAP1 MSTORE JUMP JUMPDEST PUSH1 0x0 PUSH1 0x20 DUP1 DUP4 ADD DUP2 DUP5 MSTORE DUP1 DUP6 MLOAD DUP1 DUP4 MSTORE PUSH1 0x40 SWAP3 POP DUP3 DUP7 ADD SWAP2 POP DUP3 DUP2 PUSH1 0x5 SHL DUP8 ADD ADD DUP5 DUP9 ADD PUSH1 0x0 JUMPDEST DUP4 DUP2 LT ISZERO PUSH2 0x390B JUMPI PUSH1 0x3F NOT DUP10 DUP5 SUB ADD DUP6 MSTORE DUP2 MLOAD DUP1 MLOAD DUP5 MSTORE DUP8 DUP2 ADD MLOAD PUSH1 0x1 PUSH1 0x1 PUSH1 0xA0 SHL SUB SWAP1 DUP2 AND DUP10 DUP7 ADD MSTORE DUP8 DUP3 ADD MLOAD DUP2 AND DUP9 DUP7 ADD MSTORE PUSH1 0x60 DUP1 DUP4 ADD MLOAD SWAP1 SWAP2 AND SWAP1 DUP6 ADD MSTORE PUSH1 0x80 DUP1 DUP3 ADD MLOAD PUSH2 0x1E0 DUP3 DUP8 ADD DUP2 SWAP1 MSTORE SWAP2 SWAP1 PUSH2 0x385D DUP4 DUP9 ADD DUP3 PUSH2 0x34D9 JUMP JUMPDEST SWAP3 POP POP POP PUSH1 0xA0 DUP1 DUP4 ADD MLOAD DUP7 DUP4 SUB DUP3 DUP9 ADD MSTORE PUSH2 0x3878 DUP4 DUP3 PUSH2 0x34D9 JUMP JUMPDEST SWAP3 POP POP POP PUSH1 0xC0 DUP1 DUP4 ADD MLOAD DUP2 DUP8 ADD MSTORE POP PUSH1 0xE0 DUP1 DUP4 ADD MLOAD DUP2 DUP8 ADD MSTORE POP PUSH2 0x100 DUP1 DUP4 ADD MLOAD DUP7 DUP4 SUB DUP3 DUP9 ADD MSTORE PUSH2 0x38AA DUP4 DUP3 PUSH2 0x33D6 JUMP JUMPDEST SWAP3 POP POP POP PUSH2 0x120 DUP1 DUP4 ADD MLOAD PUSH2 0x38C1 DUP3 DUP9 ADD DUP3 PUSH2 0x37B6 JUMP JUMPDEST POP POP PUSH2 0x140 DUP3 DUP2 ADD MLOAD SWAP1 DUP7 ADD MSTORE PUSH2 0x160 DUP1 DUP4 ADD MLOAD SWAP1 DUP7 ADD MSTORE PUSH2 0x180 DUP1 DUP4 ADD MLOAD SWAP1 DUP7 ADD MSTORE PUSH2 0x1A0 DUP1 DUP4 ADD MLOAD SWAP1 DUP7 ADD MSTORE PUSH2 0x1C0 SWAP2 DUP3 ADD MLOAD SWAP2 SWAP1 SWAP5 ADD MSTORE SWAP4 DUP7 ADD SWAP4 SWAP1 DUP7 ADD SWAP1 PUSH1 0x1 ADD PUSH2 0x37FF JUMP JUMPDEST POP SWAP1 SWAP9 SWAP8 POP POP POP POP POP POP POP POP JUMP JUMPDEST PUSH1 0x20 DUP2 MSTORE DUP2 MLOAD PUSH1 0x20 DUP3 ADD MSTORE PUSH1 0x20 DUP3 ADD MLOAD PUSH1 0x40 DUP3 ADD MSTORE PUSH1 0x0 PUSH1 0x40 DUP4 ADD MLOAD PUSH1 0x60 DUP1 DUP5 ADD MSTORE PUSH2 0x2F61 PUSH1 0x80 DUP5 ADD DUP3 PUSH2 0x33D6 JUMP JUMPDEST DUP14 DUP2 MSTORE PUSH1 0x1 PUSH1 0x1 PUSH1 0xA0 SHL SUB DUP14 DUP2 AND PUSH1 0x20 DUP4 ADD MSTORE DUP13 DUP2 AND PUSH1 0x40 DUP4 ADD MSTORE DUP12 AND PUSH1 0x60 DUP3 ADD MSTORE PUSH1 0x80 DUP2 ADD DUP11 SWAP1 MSTORE PUSH1 0xA0 DUP2 ADD DUP10 SWAP1 MSTORE PUSH2 0x1A0 PUSH1 0xC0 DUP3 ADD DUP2 SWAP1 MSTORE PUSH1 0x0 SWAP1 PUSH2 0x3991 SWAP1 DUP4 ADD DUP11 PUSH2 0x33D6 JUMP JUMPDEST SWAP1 POP PUSH2 0x39A0 PUSH1 0xE0 DUP4 ADD DUP10 PUSH2 0x37B6 JUMP JUMPDEST PUSH2 0x100 DUP3 ADD SWAP7 SWAP1 SWAP7 MSTORE PUSH2 0x120 DUP2 ADD SWAP5 SWAP1 SWAP5 MSTORE PUSH2 0x140 DUP5 ADD SWAP3 SWAP1 SWAP3 MSTORE PUSH2 0x160 DUP4 ADD MSTORE PUSH2 0x180 SWAP1 SWAP2 ADD MSTORE SWAP9 SWAP8 POP POP POP POP POP POP POP POP JUMP JUMPDEST PUSH1 0x0 DUP1 PUSH1 0x0 DUP1 PUSH1 0x0 DUP1 PUSH1 0x0 DUP1 PUSH1 0xA0 DUP10 DUP12 SUB SLT ISZERO PUSH2 0x39F0 JUMPI PUSH1 0x0 DUP1 REVERT JUMPDEST PUSH2 0x39F9 DUP10 PUSH2 0x323A JUMP JUMPDEST SWAP8 POP PUSH1 0x20 DUP10 ADD CALLDATALOAD PUSH1 0x1 PUSH1 0x1 PUSH1 0x40 SHL SUB DUP1 DUP3 GT ISZERO PUSH2 0x3A15 JUMPI PUSH1 0x0 DUP1 REVERT JUMPDEST PUSH2 0x3A21 DUP13 DUP4 DUP14 ADD PUSH2 0x3581 JUMP JUMPDEST SWAP1 SWAP10 POP SWAP8 POP PUSH1 0x40 DUP12 ADD CALLDATALOAD SWAP2 POP DUP1 DUP3 GT ISZERO PUSH2 0x3A3A JUMPI PUSH1 0x0 DUP1 REVERT JUMPDEST PUSH2 0x3A46 DUP13 DUP4 DUP14 ADD PUSH2 0x3581 JUMP JUMPDEST SWAP1 SWAP8 POP SWAP6 POP PUSH1 0x60 DUP12 ADD CALLDATALOAD SWAP5 POP PUSH1 0x80 DUP12 ADD CALLDATALOAD SWAP2 POP DUP1 DUP3 GT ISZERO PUSH2 0x3A66 JUMPI PUSH1 0x0 DUP1 REVERT JUMPDEST POP PUSH2 0x3A73 DUP12 DUP3 DUP13 ADD PUSH2 0x3280 JUMP JUMPDEST SWAP10 SWAP13 SWAP9 SWAP12 POP SWAP7 SWAP10 POP SWAP5 SWAP8 SWAP4 SWAP7 SWAP3 SWAP6 SWAP5 POP POP POP JUMP JUMPDEST DUP4 DUP2 MSTORE DUP3 PUSH1 0x20 DUP3 ADD MSTORE PUSH1 0x60 PUSH1 0x40 DUP3 ADD MSTORE PUSH1 0x0 PUSH2 0xD95 PUSH1 0x60 DUP4 ADD DUP5 PUSH2 0x33D6 JUMP JUMPDEST PUSH4 0x4E487B71 PUSH1 0xE0 SHL PUSH1 0x0 MSTORE PUSH1 0x32 PUSH1 0x4 MSTORE PUSH1 0x24 PUSH1 0x0 REVERT JUMPDEST PUSH4 0x4E487B71 PUSH1 0xE0 SHL PUSH1 0x0 MSTORE PUSH1 0x41 PUSH1 0x4 MSTORE PUSH1 0x24 PUSH1 0x0 REVERT JUMPDEST PUSH1 0x1 DUP2 DUP2 SHR SWAP1 DUP3 AND DUP1 PUSH2 0x3AE6 JUMPI PUSH1 0x7F DUP3 AND SWAP2 POP JUMPDEST PUSH1 0x20 DUP3 LT DUP2 SUB PUSH2 0x3B06 JUMPI PUSH4 0x4E487B71 PUSH1 0xE0 SHL PUSH1 0x0 MSTORE PUSH1 0x22 PUSH1 0x4 MSTORE PUSH1 0x24 PUSH1 0x0 REVERT JUMPDEST POP SWAP2 SWAP1 POP JUMP JUMPDEST PUSH1 0x1F DUP3 GT ISZERO PUSH2 0xFFB JUMPI PUSH1 0x0 DUP2 DUP2 MSTORE PUSH1 0x20 DUP2 KECCAK256 PUSH1 0x1F DUP6 ADD PUSH1 0x5 SHR DUP2 ADD PUSH1 0x20 DUP7 LT ISZERO PUSH2 0x3B33 JUMPI POP DUP1 JUMPDEST PUSH1 0x1F DUP6 ADD PUSH1 0x5 SHR DUP3 ADD SWAP2 POP JUMPDEST DUP2 DUP2 LT ISZERO PUSH2 0x3B52 JUMPI DUP3 DUP2 SSTORE PUSH1 0x1 ADD PUSH2 0x3B3F JUMP JUMPDEST POP POP POP POP POP POP JUMP JUMPDEST DUP2 MLOAD PUSH1 0x1 PUSH1 0x1 PUSH1 0x40 SHL SUB DUP2 GT ISZERO PUSH2 0x3B73 JUMPI PUSH2 0x3B73 PUSH2 0x3ABC JUMP JUMPDEST PUSH2 0x3B87 DUP2 PUSH2 0x3B81 DUP5 SLOAD PUSH2 0x3AD2 JUMP JUMPDEST DUP5 PUSH2 0x3B0C JUMP JUMPDEST PUSH1 0x20 DUP1 PUSH1 0x1F DUP4 GT PUSH1 0x1 DUP2 EQ PUSH2 0x3BBC JUMPI PUSH1 0x0 DUP5 ISZERO PUSH2 0x3BA4 JUMPI POP DUP6 DUP4 ADD MLOAD JUMPDEST PUSH1 0x0 NOT PUSH1 0x3 DUP7 SWAP1 SHL SHR NOT AND PUSH1 0x1 DUP6 SWAP1 SHL OR DUP6 SSTORE PUSH2 0x3B52 JUMP JUMPDEST PUSH1 0x0 DUP6 DUP2 MSTORE PUSH1 0x20 DUP2 KECCAK256 PUSH1 0x1F NOT DUP7 AND SWAP2 JUMPDEST DUP3 DUP2 LT ISZERO PUSH2 0x3BEB JUMPI DUP9 DUP7 ADD MLOAD DUP3 SSTORE SWAP5 DUP5 ADD SWAP5 PUSH1 0x1 SWAP1 SWAP2 ADD SWAP1 DUP5 ADD PUSH2 0x3BCC JUMP JUMPDEST POP DUP6 DUP3 LT ISZERO PUSH2 0x3C09 JUMPI DUP8 DUP6 ADD MLOAD PUSH1 0x0 NOT PUSH1 0x3 DUP9 SWAP1 SHL PUSH1 0xF8 AND SHR NOT AND DUP2 SSTORE JUMPDEST POP POP POP POP POP PUSH1 0x1 SWAP1 DUP2 SHL ADD SWAP1 SSTORE POP JUMP JUMPDEST PUSH1 0x20 DUP1 DUP3 MSTORE PUSH1 0x22 SWAP1 DUP3 ADD MSTORE PUSH32 0x4F72646572207769746820676976656E20696420646F6573206E6F7420657869 PUSH1 0x40 DUP3 ADD MSTORE PUSH2 0x1CDD PUSH1 0xF2 SHL PUSH1 0x60 DUP3 ADD MSTORE PUSH1 0x80 ADD SWAP1 JUMP JUMPDEST DUP1 MLOAD PUSH10 0xFFFFFFFFFFFFFFFFFFFF DUP2 AND DUP2 EQ PUSH2 0x3251 JUMPI PUSH1 0x0 DUP1 REVERT JUMPDEST PUSH1 0x0 DUP1 PUSH1 0x0 DUP1 PUSH1 0x0 PUSH1 0xA0 DUP7 DUP9 SUB SLT ISZERO PUSH2 0x3C8D JUMPI PUSH1 0x0 DUP1 REVERT JUMPDEST PUSH2 0x3C96 DUP7 PUSH2 0x3C5B JUMP JUMPDEST SWAP5 POP PUSH1 0x20 DUP7 ADD MLOAD SWAP4 POP PUSH1 0x40 DUP7 ADD MLOAD SWAP3 POP PUSH1 0x60 DUP7 ADD MLOAD SWAP2 POP PUSH2 0x3CB9 PUSH1 0x80 DUP8 ADD PUSH2 0x3C5B JUMP JUMPDEST SWAP1 POP SWAP3 SWAP6 POP SWAP3 SWAP6 SWAP1 SWAP4 POP JUMP JUMPDEST PUSH1 0x0 PUSH1 0x20 DUP3 DUP5 SUB SLT ISZERO PUSH2 0x3CD7 JUMPI PUSH1 0x0 DUP1 REVERT JUMPDEST DUP2 MLOAD PUSH1 0xFF DUP2 AND DUP2 EQ PUSH2 0x33B6 JUMPI PUSH1 0x0 DUP1 REVERT JUMPDEST PUSH4 0x4E487B71 PUSH1 0xE0 SHL PUSH1 0x0 MSTORE PUSH1 0x11 PUSH1 0x4 MSTORE PUSH1 0x24 PUSH1 0x0 REVERT JUMPDEST PUSH1 0x1 DUP2 DUP2 JUMPDEST DUP1 DUP6 GT ISZERO PUSH2 0x3D39 JUMPI DUP2 PUSH1 0x0 NOT DIV DUP3 GT ISZERO PUSH2 0x3D1F JUMPI PUSH2 0x3D1F PUSH2 0x3CE8 JUMP JUMPDEST DUP1 DUP6 AND ISZERO PUSH2 0x3D2C JUMPI SWAP2 DUP2 MUL SWAP2 JUMPDEST SWAP4 DUP5 SHR SWAP4 SWAP1 DUP1 MUL SWAP1 PUSH2 0x3D03 JUMP JUMPDEST POP SWAP3 POP SWAP3 SWAP1 POP JUMP JUMPDEST PUSH1 0x0 DUP3 PUSH2 0x3D50 JUMPI POP PUSH1 0x1 PUSH2 0x1D04 JUMP JUMPDEST DUP2 PUSH2 0x3D5D JUMPI POP PUSH1 0x0 PUSH2 0x1D04 JUMP JUMPDEST DUP2 PUSH1 0x1 DUP2 EQ PUSH2 0x3D73 JUMPI PUSH1 0x2 DUP2 EQ PUSH2 0x3D7D JUMPI PUSH2 0x3D99 JUMP JUMPDEST PUSH1 0x1 SWAP2 POP POP PUSH2 0x1D04 JUMP JUMPDEST PUSH1 0xFF DUP5 GT ISZERO PUSH2 0x3D8E JUMPI PUSH2 0x3D8E PUSH2 0x3CE8 JUMP JUMPDEST POP POP PUSH1 0x1 DUP3 SHL PUSH2 0x1D04 JUMP JUMPDEST POP PUSH1 0x20 DUP4 LT PUSH2 0x133 DUP4 LT AND PUSH1 0x4E DUP5 LT PUSH1 0xB DUP5 LT AND OR ISZERO PUSH2 0x3DBC JUMPI POP DUP2 DUP2 EXP PUSH2 0x1D04 JUMP JUMPDEST PUSH2 0x3DC6 DUP4 DUP4 PUSH2 0x3CFE JUMP JUMPDEST DUP1 PUSH1 0x0 NOT DIV DUP3 GT ISZERO PUSH2 0x3DDA JUMPI PUSH2 0x3DDA PUSH2 0x3CE8 JUMP JUMPDEST MUL SWAP4 SWAP3 POP POP POP JUMP JUMPDEST PUSH1 0x0 PUSH2 0x33B6 DUP4 DUP4 PUSH2 0x3D41 JUMP JUMPDEST DUP1 DUP3 MUL DUP2 ISZERO DUP3 DUP3 DIV DUP5 EQ OR PUSH2 0x1D04 JUMPI PUSH2 0x1D04 PUSH2 0x3CE8 JUMP JUMPDEST PUSH1 0x0 DUP3 PUSH2 0x3E22 JUMPI PUSH4 0x4E487B71 PUSH1 0xE0 SHL PUSH1 0x0 MSTORE PUSH1 0x12 PUSH1 0x4 MSTORE PUSH1 0x24 PUSH1 0x0 REVERT JUMPDEST POP DIV SWAP1 JUMP JUMPDEST PUSH1 0x0 PUSH1 0x1 DUP3 ADD PUSH2 0x3E39 JUMPI PUSH2 0x3E39 PUSH2 0x3CE8 JUMP JUMPDEST POP PUSH1 0x1 ADD SWAP1 JUMP JUMPDEST DUP1 DUP3 ADD DUP1 DUP3 GT ISZERO PUSH2 0x1D04 JUMPI PUSH2 0x1D04 PUSH2 0x3CE8 JUMP JUMPDEST PUSH1 0x1 PUSH1 0x1 PUSH1 0x40 SHL SUB DUP4 GT ISZERO PUSH2 0x3E6A JUMPI PUSH2 0x3E6A PUSH2 0x3ABC JUMP JUMPDEST PUSH2 0x3E7E DUP4 PUSH2 0x3E78 DUP4 SLOAD PUSH2 0x3AD2 JUMP JUMPDEST DUP4 PUSH2 0x3B0C JUMP JUMPDEST PUSH1 0x0 PUSH1 0x1F DUP5 GT PUSH1 0x1 DUP2 EQ PUSH2 0x3EB2 JUMPI PUSH1 0x0 DUP6 ISZERO PUSH2 0x3E9A JUMPI POP DUP4 DUP3 ADD CALLDATALOAD JUMPDEST PUSH1 0x0 NOT PUSH1 0x3 DUP8 SWAP1 SHL SHR NOT AND PUSH1 0x1 DUP7 SWAP1 SHL OR DUP4 SSTORE PUSH2 0x3F0C JUMP JUMPDEST PUSH1 0x0 DUP4 DUP2 MSTORE PUSH1 0x20 SWAP1 KECCAK256 PUSH1 0x1F NOT DUP7 AND SWAP1 DUP4 JUMPDEST DUP3 DUP2 LT ISZERO PUSH2 0x3EE3 JUMPI DUP7 DUP6 ADD CALLDATALOAD DUP3 SSTORE PUSH1 0x20 SWAP5 DUP6 ADD SWAP5 PUSH1 0x1 SWAP1 SWAP3 ADD SWAP2 ADD PUSH2 0x3EC3 JUMP JUMPDEST POP DUP7 DUP3 LT ISZERO PUSH2 0x3F00 JUMPI PUSH1 0x0 NOT PUSH1 0xF8 DUP9 PUSH1 0x3 SHL AND SHR NOT DUP5 DUP8 ADD CALLDATALOAD AND DUP2 SSTORE JUMPDEST POP POP PUSH1 0x1 DUP6 PUSH1 0x1 SHL ADD DUP4 SSTORE JUMPDEST POP POP POP POP POP JUMP JUMPDEST PUSH1 0x20 DUP1 DUP3 MSTORE PUSH1 0x17 SWAP1 DUP3 ADD MSTORE PUSH32 0x4661696C656420746F20726566756E6420636C69656E74000000000000000000 PUSH1 0x40 DUP3 ADD MSTORE PUSH1 0x60 ADD SWAP1 JUMP JUMPDEST DUP2 DUP2 SUB DUP2 DUP2 GT ISZERO PUSH2 0x1D04 JUMPI PUSH2 0x1D04 PUSH2 0x3CE8 JUMP JUMPDEST PUSH4 0x4E487B71 PUSH1 0xE0 SHL PUSH1 0x0 MSTORE PUSH1 0x31 PUSH1 0x4 MSTORE PUSH1 0x24 PUSH1 0x0 REVERT INVALID LOG2 PUSH5 0x6970667358 0x22 SLT KECCAK256 0xAB DIFFICULTY SIGNEXTEND 0x4D SUB AND 0xDB 0x2C 0xDD MSIZE DUP1 DELEGATECALL DUP15 SWAP15 LT LOG0 SELFBALANCE SDIV 0xD0 PUSH13 0xDAFA5A2C3E24A380BA5BB9DC64 PUSH20 0x6F6C634300081100330000000000000000000000 ","sha1":"c75851826eaac8da4456a05e701fd2213b71f355","source":"// SPDX-License-Identifier: MIT\n\npragma solidity ^0.8.13;\n\nimport \"@chainlink/contracts/src/v0.8/interfaces/AggregatorV3Interface.sol\";\n\ncontract FoodDelivery {\n    struct Item{\n        uint256 id;\n        string name;\n        string description;\n        uint256 price;          // price in USD\n        bool available;\n    }\n\n    struct Restaurant{\n        address addr;\n        string name;\n        string description;\n        Item[] items;\n    }\n\n    struct Client {\n        address addr;\n        string name;\n    }\n\n    enum OrderStatus {\n        PENDING,                // order submitted by client, but before the restaurant accepts the order\n        WAITING_COURIER,        // order ready for courier (after being accepted by restaurant)\n        ASSIGNED_COURIER,       // order accepted by a courier\n        READY_TO_DELIVER,       // order finished by restaurant, ready to deliver\n        DELIVERING,             // order being delivered by the courier\n        DELIVERED,              // order delivered, confirmed by client\n        CANCELLED               // order was cancelled\n    }\n\n    struct Order {\n        uint256 id;\n        address restaurantAddr;\n        address clientAddr;\n        address courierAddr;\n        uint256[] itemIndices;\n        uint256[] quantities;\n        uint256 deliveryFee;        // delivery fee is in GWei\n        uint256 totalPrice;         // total price is in GWei\n        string deliveryAddress;\n        OrderStatus status;\n        uint256 maxPreparationTime;     // in seconds\n        uint256 maxDeliveryTime;        // in seconds\n        uint256 preparationStartTime;   // timestamp\n        uint256 deliveryStartTime;      // timestamp\n        uint256 refundAmount;           // amount to refund if thresholds exceeded\n    }\n\n    struct Review {\n        uint256 orderId;\n        uint256 rating;\n        string comment;\n    }\n\n    mapping(address => Restaurant) public restaurants;\n    mapping(address => Client) public clients;\n    mapping(address => uint256[]) public clientsToOrdersMapping;\n    mapping(uint256 => Review) public reviews;\n    mapping(address => uint256[]) public restaurantToOrdersIds;\n    mapping(address => uint256[]) public couriersToOrdersMapping;\n    uint256[] public ordersWaitingForCourier;\n    Order[] public orders;\n    address[] public restaurantsAddr;\n    address[] public clientsAddr;\n    uint256 numberOfOrders = 0;\n    AggregatorV3Interface public ethUsdPriceFeed;\n\n    constructor (address priceFeedAddress) {\n        ethUsdPriceFeed = AggregatorV3Interface(priceFeedAddress);\n    }\n\n    function getNumberOfItemsInMenu(address restaurant) public view returns(uint) {\n        return restaurants[restaurant].items.length;\n    }\n\n    function getMenuEntryAtIndex(address restaurant, uint index) public view returns(Item memory) {\n        return restaurants[restaurant].items[index];\n    }\n\n    function getNumberOfRestaurants() public view returns(uint) {\n        return restaurantsAddr.length;\n    }\n\n    function getNumberOfClients() public view returns(uint) {\n        return clientsAddr.length;\n    }\n\n    function getNumberOfOrderForClient(address client) public view returns(uint) {\n        return clientsToOrdersMapping[client].length;\n    }\n\n    function getNumberOfOrderForRestaurant(address restaurant) public view returns(uint) {\n        return restaurantToOrdersIds[restaurant].length;\n    }\n\n    function getNumberOfOrdersForCourier(address courier) public view returns(uint) {\n        return couriersToOrdersMapping[courier].length;\n    }\n\n    function getOrdersByStatus(OrderStatus status) public view returns (Order[] memory) {\n        uint256 numberOfOrdersWithStatus = 0;\n        for (uint256 i = 0; i < orders.length; i++) {\n            if (orders[i].status == status) {\n                numberOfOrdersWithStatus++;\n            }\n        }\n        Order[] memory ordersWithStatus = new Order[](numberOfOrdersWithStatus);\n        uint256 currentIndex = 0;\n        for (uint256 i = 0; i < orders.length; i++) {\n            if (orders[i].status == status) {\n                ordersWithStatus[currentIndex] = orders[i];\n                currentIndex++;\n            }\n        }\n        return ordersWithStatus;\n    }\n\n    function getNumberOfOrdersWaitingForCourier() public view returns (uint256) {\n        return ordersWaitingForCourier.length;\n    }\n\n    function getPriceInEth(uint256 usdPrice) public view returns (uint256) {\n        (, int256 price, , , ) = ethUsdPriceFeed.latestRoundData();\n        uint8 decimals = ethUsdPriceFeed.decimals();\n        uint256 cost = (usdPrice * (10 ** uint256(decimals))) / uint256(price);\n        return cost;\n    }\n\n    function getOrderItemsAndQuantities(uint256 orderId) public view returns (Item[] memory, uint256[] memory) {\n        Order storage order = orders[orderId];\n        require(order.id == orderId, \"Order with given id does not exist\");\n\n        // Get the restaurant for this order\n        Restaurant storage restaurant = restaurants[order.restaurantAddr];\n\n        // Initialize an array to store the ordered items\n        Item[] memory orderedItems = new Item[](order.itemIndices.length);\n\n        // Loop through the itemIndices array in the order and populate the orderedItems array\n        for (uint256 i = 0; i < order.itemIndices.length; i++) {\n            uint256 itemIndex = order.itemIndices[i];\n            orderedItems[i] = restaurant.items[itemIndex];\n        }\n\n        // Return both ordered items and their corresponding quantities\n        return (orderedItems, order.quantities);\n    }\n\n    function registerRestaurant(string calldata name, string calldata description) public {\n        Restaurant storage restaurant = restaurants[msg.sender];\n        restaurant.addr = msg.sender;\n        restaurant.name = name;\n        restaurant.description = description;\n        restaurantsAddr.push(msg.sender);\n    }\n\n    function registerClient(string calldata name) public {\n        Client storage client = clients[msg.sender];\n        client.addr = msg.sender;\n        client.name = name;\n        clientsAddr.push(msg.sender);\n    }\n\n    function addItem(string calldata name, string calldata description, uint256 price) public returns(uint256) {\n        Restaurant storage restaurant = restaurants[msg.sender];\n        uint256 id = restaurant.items.length;\n        restaurant.items.push(Item({\n            id: id,\n            name: name,\n            description: description,\n            price: price,\n            available: true\n        }));\n\n        return id;\n    }\n\n    function updateItem(uint256 id, string calldata name, string calldata description, uint256 price) public returns(uint256) {\n        Restaurant storage restaurant = restaurants[msg.sender];\n        restaurant.items[id] = Item({\n            id: id,\n            name: name,\n            description: description,\n            price: price,\n            available: true\n        });\n\n        return id;\n    }\n\n    function enableItem(uint256 itemId) public {\n        Restaurant storage restaurant = restaurants[msg.sender];\n        restaurant.items[itemId].available = true;\n    }\n\n    function disableItem(uint256 itemId) public {\n        Restaurant storage restaurant = restaurants[msg.sender];\n        restaurant.items[itemId].available = false;\n    }\n\n    function getWeiPriceForOrder(address restaurantAddr, uint256[] calldata itemIds, uint256[] calldata quantities, uint256 deliveryFee) public view returns(uint256, uint256) {\n        Restaurant storage restaurant = restaurants[restaurantAddr];\n\n        uint256 totalPrice = 0;\n        for (uint256 i = 0; i < itemIds.length; i++) {\n            require(itemIds[i] < restaurant.items.length, \"Invalid item ID\");\n            Item storage item = restaurant.items[itemIds[i]];\n            totalPrice += getPriceInEth(item.price) * quantities[i];\n        }\n\n        uint256 ethDeliveryFee = getPriceInEth(deliveryFee);\n        return (totalPrice, ethDeliveryFee);\n    }\n\n    function placeOrder(address restaurantAddr, uint256[] calldata itemIds, uint256[] calldata quantities, uint256 deliveryFee, string calldata deliveryAddress) public payable {\n        Restaurant storage restaurant = restaurants[restaurantAddr];\n        require(restaurant.addr != address(0), \"Invalid restaurant address\");\n\n        for (uint i = 0; i < itemIds.length; ++i) {\n            require(restaurant.items[itemIds[i]].available == true, \"Order contains unavailable items...\");\n        }\n\n        (uint256 totalPrice, uint256 ethDeliveryFee) = getWeiPriceForOrder(restaurantAddr, itemIds, quantities, deliveryFee);\n        require(msg.value >= totalPrice + ethDeliveryFee, \"Incorrect amount paid\");\n\n        uint256 id = orders.length;\n\n        orders.push(Order({\n            id: id,\n            restaurantAddr: restaurantAddr,\n            clientAddr: msg.sender,\n            courierAddr: address(0),\n            itemIndices: itemIds,\n            quantities: quantities,\n            deliveryFee: ethDeliveryFee,\n            totalPrice: totalPrice,\n            deliveryAddress: deliveryAddress,\n            status: OrderStatus.PENDING,\n            maxPreparationTime: 0,\n            maxDeliveryTime: 0,\n            preparationStartTime: 0,\n            deliveryStartTime: 0,\n            refundAmount: 0\n        }));\n        clientsToOrdersMapping[msg.sender].push(id);\n        restaurantToOrdersIds[restaurantAddr].push(id);\n    }\n\n    function acceptOrder(uint256 orderId, uint256 maxPreparationTime) public {\n        Order storage order = orders[orderId];\n        require(order.id == orderId, \"Order with given id does not exist\");\n        require(order.restaurantAddr == msg.sender, \"Only the restaurant for which the order was made can accept it\");\n        require(order.status == OrderStatus.PENDING, \"Can only accept orders for which the status is PENDING\");\n\n        order.maxPreparationTime = maxPreparationTime;\n        order.preparationStartTime = block.timestamp;\n        order.status = OrderStatus.WAITING_COURIER;\n        ordersWaitingForCourier.push(orderId);\n    }\n\n    function declineOrder(uint256 orderId) public {\n        Order storage order = orders[orderId];\n        require(order.id == orderId, \"Order with given id does not exist\");\n        require(order.restaurantAddr == msg.sender, \"Only the restaurant can decline the order\");\n        require(order.status == OrderStatus.PENDING, \"Order must be pending\");\n\n        // refund the client\n        address payable clientAddr = payable(order.clientAddr);\n        require(clientAddr.send(order.totalPrice + order.deliveryFee), \"Failed to refund client\");\n\n        order.status = OrderStatus.CANCELLED;\n    }\n\n    function increaseDeliveryFee(uint256 orderId) public payable {\n        Order storage order = orders[orderId];\n        require(order.id == orderId, \"Order with given id does not exist\");\n        require(order.status == OrderStatus.WAITING_COURIER);\n        require(order.clientAddr == msg.sender, \"Order delivery fee must be increased by the client\");\n\n        order.deliveryFee += msg.value;\n    }\n\n    function takeOrder(uint256 orderId, uint256 maxDeliveryTime) public {\n        Order storage order = orders[orderId];\n        require(order.id == orderId, \"Order with given id does not exist\");\n        require(order.status == OrderStatus.WAITING_COURIER, \"Order must be in the processing state\");\n        order.courierAddr = msg.sender;\n        order.maxDeliveryTime = maxDeliveryTime;\n        order.deliveryStartTime = block.timestamp;\n        order.status = OrderStatus.ASSIGNED_COURIER;\n        couriersToOrdersMapping[msg.sender].push(order.id);\n        removeOrderFromWaitingList(orderId);\n    }\n\n    function orderReadyToDeliver(uint256 orderId) public {\n        Order storage order = orders[orderId];\n        require(order.id == orderId, \"Order with given id does not exist\");\n        require(order.status == OrderStatus.ASSIGNED_COURIER);\n        require(order.restaurantAddr == msg.sender, \"Order must be marked ready to deliver by the restaurant of the order\");\n\n        order.status = OrderStatus.READY_TO_DELIVER;\n    }\n\n    function orderDelivering(uint256 orderId) public {\n        Order storage order = orders[orderId];\n        require(order.id == orderId, \"Order with given id does not exist\");\n        require(order.status == OrderStatus.READY_TO_DELIVER);\n        require(order.courierAddr == msg.sender, \"Order must be delivered by courier that accepted it\");\n\n        order.status = OrderStatus.DELIVERING;\n    }\n\n    function orderDelivered(uint256 orderId) public {\n        Order storage order = orders[orderId];\n        require(order.id == orderId, \"Order with given id does not exist\");\n        require(order.status == OrderStatus.DELIVERING);\n        require(order.clientAddr == msg.sender, \"Order delivery must be confirmed by client\");\n\n        uint256 preparationTime = order.deliveryStartTime - order.preparationStartTime;\n        uint256 deliveryTime = block.timestamp - order.deliveryStartTime;\n        uint256 totalPayment = order.totalPrice + order.deliveryFee;\n        uint256 refundAmount = 0;\n\n        uint256 restaurantRefund = 0;\n        uint256 courierRefund = 0;\n\n        uint256 fixedLateFeePercentage = 10; // Fixed late fee percentage (e.g., 10%)\n\n        // Calculate the refund amounts based on delays\n        if (preparationTime > order.maxPreparationTime) {\n            restaurantRefund = (fixedLateFeePercentage * order.totalPrice) / 100;\n        }\n\n        if (deliveryTime > order.maxDeliveryTime) {\n            courierRefund = (fixedLateFeePercentage * order.deliveryFee) / 100;\n        }\n\n        // Proportional payments to restaurant and courier\n        address payable restaurantAddr = payable(order.restaurantAddr);\n        address payable courierAddr = payable(order.courierAddr);\n        address payable clientAddr = payable(order.clientAddr);\n        uint256 restaurantPayment = order.totalPrice - restaurantRefund;\n        uint256 courierPayment = order.deliveryFee - courierRefund;\n        \n        require(restaurantAddr.send(restaurantPayment), \"Failed to send payment to restaurant\");\n        require(courierAddr.send(courierPayment), \"Failed to send payment to courier\");\n        require(clientAddr.send(restaurantRefund + courierRefund), \"Failed to send payment to client\");\n\n        order.status = OrderStatus.DELIVERED;\n    }\n\n    function cancelOrder(uint256 orderId) public {\n        Order storage order = orders[orderId];\n        require(order.id == orderId, \"Order with given id does not exist\");\n        \n        // refund the client\n        address payable clientAddr = payable(order.clientAddr);\n        address payable restaurantAddr = payable(order.restaurantAddr);\n        if (order.status == OrderStatus.PENDING || order.status == OrderStatus.WAITING_COURIER\n            || order.status == OrderStatus.ASSIGNED_COURIER) {      // full refund\n            require(clientAddr.send(order.totalPrice + order.deliveryFee), \"Failed to refund client\");\n        } else if (order.status == OrderStatus.READY_TO_DELIVER) {  // partial refund, as the restaurant did finish the order\n            require(restaurantAddr.send(order.totalPrice), \"Failed to refund restaurant\");\n            require(clientAddr.send(order.deliveryFee), \"Failed to refund client\");\n        } else {        // no refund for client, order was just being delivered\n            address payable courierAddr = payable(order.clientAddr);\n            require(restaurantAddr.send(order.totalPrice), \"Failed to refund restaurant\");\n            require(courierAddr.send(order.deliveryFee), \"Failed to refund courier\");\n        }\n\n        order.status = OrderStatus.CANCELLED;\n    }\n\n    function placeReview(uint256 orderId, uint256 rating, string calldata comment) public {\n        Order storage order = orders[orderId];\n        require(order.id == orderId, \"Order with given id does not exist\");\n        require(order.clientAddr == msg.sender, \"Only the client who placed the order can leave a review\");\n        require(order.status == OrderStatus.DELIVERED, \"Only delivered orders can be reviewed\");\n\n        reviews[orderId] = Review({\n            orderId: orderId,\n            rating: rating,\n            comment: comment\n        });\n    }\n\n    function getReview(uint256 orderId) public view returns (Review memory) {\n        return reviews[orderId];\n    }\n\n    function getAverageRatingForRestaurant(address restaurantAddr) public view returns (uint256) {\n        uint256 totalRating = 0;\n        uint256 numberOfRatings = 0;\n\n        for (uint256 i = 0; i < restaurantToOrdersIds[restaurantAddr].length; i++) {\n            uint256 orderId = restaurantToOrdersIds[restaurantAddr][i];\n            if (reviews[orderId].orderId == orderId) {\n                totalRating += reviews[orderId].rating;\n                numberOfRatings++;\n            }\n        }\n\n        if (numberOfRatings == 0) {\n            return 0;\n        } else {\n            return totalRating / numberOfRatings;\n        }\n    }\n\n    function removeOrderFromWaitingList(uint256 orderId) internal {\n        for (uint256 i = 0; i < ordersWaitingForCourier.length; i++) {\n            if (ordersWaitingForCourier[i] == orderId) {\n                // Swap the order to remove with the last order in the array, then remove the last order\n                ordersWaitingForCourier[i] = ordersWaitingForCourier[ordersWaitingForCourier.length - 1];\n                ordersWaitingForCourier.pop();\n                break;\n            }\n        }\n    }\n}\n","sourcePath":"contracts/food_delivery.sol","type":"contract","deployment":{"address":"0xf3A095d4Db296e7D3E315de579e0D75AaeEf835e","chainid":"5","blockHeight":8923215}}