{"abi":[{"inputs":[{"internalType":"address","name":"priceFeedAddress","type":"address"}],"stateMutability":"nonpayable","type":"constructor","name":"constructor"},{"inputs":[{"internalType":"uint256","name":"orderId","type":"uint256"}],"name":"acceptOrder","outputs":[],"stateMutability":"nonpayable","type":"function"},{"inputs":[{"internalType":"string","name":"name","type":"string"},{"internalType":"string","name":"description","type":"string"},{"internalType":"uint256","name":"price","type":"uint256"}],"name":"addItem","outputs":[{"internalType":"uint256","name":"","type":"uint256"}],"stateMutability":"nonpayable","type":"function"},{"inputs":[{"internalType":"uint256","name":"orderId","type":"uint256"}],"name":"cancelOrder","outputs":[],"stateMutability":"nonpayable","type":"function"},{"inputs":[{"internalType":"address","name":"","type":"address"}],"name":"clients","outputs":[{"internalType":"address","name":"addr","type":"address"},{"internalType":"string","name":"name","type":"string"}],"stateMutability":"view","type":"function"},{"inputs":[{"internalType":"uint256","name":"","type":"uint256"}],"name":"clientsAddr","outputs":[{"internalType":"address","name":"","type":"address"}],"stateMutability":"view","type":"function"},{"inputs":[{"internalType":"address","name":"","type":"address"},{"internalType":"uint256","name":"","type":"uint256"}],"name":"clientsToOrdersMapping","outputs":[{"internalType":"uint256","name":"","type":"uint256"}],"stateMutability":"view","type":"function"},{"inputs":[{"internalType":"uint256","name":"orderId","type":"uint256"}],"name":"declineOrder","outputs":[],"stateMutability":"nonpayable","type":"function"},{"inputs":[{"internalType":"uint256","name":"itemId","type":"uint256"}],"name":"disableItem","outputs":[],"stateMutability":"nonpayable","type":"function"},{"inputs":[{"internalType":"uint256","name":"itemId","type":"uint256"}],"name":"enableItem","outputs":[],"stateMutability":"nonpayable","type":"function"},{"inputs":[],"name":"ethUsdPriceFeed","outputs":[{"internalType":"contract AggregatorV3Interface","name":"","type":"address"}],"stateMutability":"view","type":"function"},{"inputs":[{"internalType":"address","name":"restaurantAddr","type":"address"}],"name":"getAverageRatingForRestaurant","outputs":[{"internalType":"uint256","name":"","type":"uint256"}],"stateMutability":"view","type":"function"},{"inputs":[{"internalType":"address","name":"restaurant","type":"address"},{"internalType":"uint256","name":"index","type":"uint256"}],"name":"getMenuEntryAtIndex","outputs":[{"components":[{"internalType":"uint256","name":"id","type":"uint256"},{"internalType":"string","name":"name","type":"string"},{"internalType":"string","name":"description","type":"string"},{"internalType":"uint256","name":"price","type":"uint256"},{"internalType":"bool","name":"available","type":"bool"}],"internalType":"struct FoodDelivery.Item","name":"","type":"tuple"}],"stateMutability":"view","type":"function"},{"inputs":[],"name":"getNumberOfClients","outputs":[{"internalType":"uint256","name":"","type":"uint256"}],"stateMutability":"view","type":"function"},{"inputs":[{"internalType":"address","name":"restaurant","type":"address"}],"name":"getNumberOfItemsInMenu","outputs":[{"internalType":"uint256","name":"","type":"uint256"}],"stateMutability":"view","type":"function"},{"inputs":[{"internalType":"address","name":"client","type":"address"}],"name":"getNumberOfOrderForClient","outputs":[{"internalType":"uint256","name":"","type":"uint256"}],"stateMutability":"view","type":"function"},{"inputs":[{"internalType":"address","name":"restaurant","type":"address"}],"name":"getNumberOfOrderForRestaurant","outputs":[{"internalType":"uint256","name":"","type":"uint256"}],"stateMutability":"view","type":"function"},{"inputs":[],"name":"getNumberOfOrdersWaitingForCourier","outputs":[{"internalType":"uint256","name":"","type":"uint256"}],"stateMutability":"view","type":"function"},{"inputs":[],"name":"getNumberOfRestaurants","outputs":[{"internalType":"uint256","name":"","type":"uint256"}],"stateMutability":"view","type":"function"},{"inputs":[{"internalType":"uint256","name":"orderId","type":"uint256"}],"name":"getOrderItemsAndQuantities","outputs":[{"components":[{"internalType":"uint256","name":"id","type":"uint256"},{"internalType":"string","name":"name","type":"string"},{"internalType":"string","name":"description","type":"string"},{"internalType":"uint256","name":"price","type":"uint256"},{"internalType":"bool","name":"available","type":"bool"}],"internalType":"struct FoodDelivery.Item[]","name":"","type":"tuple[]"},{"internalType":"uint256[]","name":"","type":"uint256[]"}],"stateMutability":"view","type":"function"},{"inputs":[{"internalType":"enum FoodDelivery.OrderStatus","name":"status","type":"uint8"}],"name":"getOrdersByStatus","outputs":[{"components":[{"internalType":"uint256","name":"id","type":"uint256"},{"internalType":"address","name":"restaurantAddr","type":"address"},{"internalType":"address","name":"clientAddr","type":"address"},{"internalType":"address","name":"courierAddr","type":"address"},{"internalType":"uint256[]","name":"itemIndices","type":"uint256[]"},{"internalType":"uint256[]","name":"quantities","type":"uint256[]"},{"internalType":"uint256","name":"deliveryFee","type":"uint256"},{"internalType":"uint256","name":"totalPrice","type":"uint256"},{"internalType":"string","name":"deliveryAddress","type":"string"},{"internalType":"enum FoodDelivery.OrderStatus","name":"status","type":"uint8"}],"internalType":"struct FoodDelivery.Order[]","name":"","type":"tuple[]"}],"stateMutability":"view","type":"function"},{"inputs":[{"internalType":"uint256","name":"usdPrice","type":"uint256"}],"name":"getPriceInEth","outputs":[{"internalType":"uint256","name":"","type":"uint256"}],"stateMutability":"view","type":"function"},{"inputs":[{"internalType":"uint256","name":"orderId","type":"uint256"}],"name":"getReview","outputs":[{"components":[{"internalType":"uint256","name":"orderId","type":"uint256"},{"internalType":"uint256","name":"rating","type":"uint256"},{"internalType":"string","name":"comment","type":"string"}],"internalType":"struct FoodDelivery.Review","name":"","type":"tuple"}],"stateMutability":"view","type":"function"},{"inputs":[{"internalType":"address","name":"restaurantAddr","type":"address"},{"internalType":"uint256[]","name":"itemIds","type":"uint256[]"},{"internalType":"uint256[]","name":"quantities","type":"uint256[]"},{"internalType":"uint256","name":"deliveryFee","type":"uint256"}],"name":"getWeiPriceForOrder","outputs":[{"internalType":"uint256","name":"","type":"uint256"},{"internalType":"uint256","name":"","type":"uint256"}],"stateMutability":"view","type":"function"},{"inputs":[{"internalType":"uint256","name":"orderId","type":"uint256"}],"name":"increaseDeliveryFee","outputs":[],"stateMutability":"payable","type":"function"},{"inputs":[{"internalType":"uint256","name":"orderId","type":"uint256"}],"name":"orderDelivered","outputs":[],"stateMutability":"nonpayable","type":"function"},{"inputs":[{"internalType":"uint256","name":"orderId","type":"uint256"}],"name":"orderDelivering","outputs":[],"stateMutability":"nonpayable","type":"function"},{"inputs":[{"internalType":"uint256","name":"orderId","type":"uint256"}],"name":"orderReadyToDeliver","outputs":[],"stateMutability":"nonpayable","type":"function"},{"inputs":[{"internalType":"uint256","name":"","type":"uint256"}],"name":"orders","outputs":[{"internalType":"uint256","name":"id","type":"uint256"},{"internalType":"address","name":"restaurantAddr","type":"address"},{"internalType":"address","name":"clientAddr","type":"address"},{"internalType":"address","name":"courierAddr","type":"address"},{"internalType":"uint256","name":"deliveryFee","type":"uint256"},{"internalType":"uint256","name":"totalPrice","type":"uint256"},{"internalType":"string","name":"deliveryAddress","type":"string"},{"internalType":"enum FoodDelivery.OrderStatus","name":"status","type":"uint8"}],"stateMutability":"view","type":"function"},{"inputs":[{"internalType":"uint256","name":"","type":"uint256"}],"name":"ordersWaitingForCourier","outputs":[{"internalType":"uint256","name":"","type":"uint256"}],"stateMutability":"view","type":"function"},{"inputs":[{"internalType":"address","name":"restaurantAddr","type":"address"},{"internalType":"uint256[]","name":"itemIds","type":"uint256[]"},{"internalType":"uint256[]","name":"quantities","type":"uint256[]"},{"internalType":"uint256","name":"deliveryFee","type":"uint256"},{"internalType":"string","name":"deliveryAddress","type":"string"}],"name":"placeOrder","outputs":[],"stateMutability":"payable","type":"function"},{"inputs":[{"internalType":"uint256","name":"orderId","type":"uint256"},{"internalType":"uint256","name":"rating","type":"uint256"},{"internalType":"string","name":"comment","type":"string"}],"name":"placeReview","outputs":[],"stateMutability":"nonpayable","type":"function"},{"inputs":[{"internalType":"string","name":"name","type":"string"}],"name":"registerClient","outputs":[],"stateMutability":"nonpayable","type":"function"},{"inputs":[{"internalType":"string","name":"name","type":"string"},{"internalType":"string","name":"description","type":"string"}],"name":"registerRestaurant","outputs":[],"stateMutability":"nonpayable","type":"function"},{"inputs":[{"internalType":"address","name":"","type":"address"},{"internalType":"uint256","name":"","type":"uint256"}],"name":"restaurantToOrdersIds","outputs":[{"internalType":"uint256","name":"","type":"uint256"}],"stateMutability":"view","type":"function"},{"inputs":[{"internalType":"address","name":"","type":"address"}],"name":"restaurants","outputs":[{"internalType":"address","name":"addr","type":"address"},{"internalType":"string","name":"name","type":"string"},{"internalType":"string","name":"description","type":"string"}],"stateMutability":"view","type":"function"},{"inputs":[{"internalType":"uint256","name":"","type":"uint256"}],"name":"restaurantsAddr","outputs":[{"internalType":"address","name":"","type":"address"}],"stateMutability":"view","type":"function"},{"inputs":[{"internalType":"uint256","name":"","type":"uint256"}],"name":"reviews","outputs":[{"internalType":"uint256","name":"orderId","type":"uint256"},{"internalType":"uint256","name":"rating","type":"uint256"},{"internalType":"string","name":"comment","type":"string"}],"stateMutability":"view","type":"function"},{"inputs":[{"internalType":"uint256","name":"orderId","type":"uint256"}],"name":"takeOrder","outputs":[],"stateMutability":"nonpayable","type":"function"},{"inputs":[{"internalType":"uint256","name":"id","type":"uint256"},{"internalType":"string","name":"name","type":"string"},{"internalType":"string","name":"description","type":"string"},{"internalType":"uint256","name":"price","type":"uint256"}],"name":"updateItem","outputs":[{"internalType":"uint256","name":"","type":"uint256"}],"stateMutability":"nonpayable","type":"function"}],"bytecode":"608060405260006009553480156200001657600080fd5b5060405162003c1738038062003c1783398101604081905262000039916200005f565b600a80546001600160a01b0319166001600160a01b039290921691909117905562000091565b6000602082840312156200007257600080fd5b81516001600160a01b03811681146200008a57600080fd5b9392505050565b613b7680620000a16000396000f3fe6080604052600436106102305760003560e01c8063880d4ee81161012e578063c59c521a116100ab578063e83ddcea1161006f578063e83ddcea14610732578063ef18e9ed14610761578063eff6ed6b14610781578063f13b84b614610796578063fedf1a87146107b657600080fd5b8063c59c521a14610663578063ccbdb85c1461069c578063d3168a66146106bc578063dee9e164146106f2578063e742a1821461071257600080fd5b80639cbcfed5116100f25780639cbcfed5146105c7578063a85c38ef146105e7578063abfd06871461061b578063bdace1821461062e578063be47dca11461064e57600080fd5b8063880d4ee81461051a5780638ce2ec791461053a57806392184bfb14610567578063990581b6146105875780639b51bd21146105b457600080fd5b806342f6fb29116101bc57806364432eb81161018057806364432eb81461047857806368ad5b83146104985780636d4166e9146104c5578063708d2612146104da57806385b6ec06146104fa57600080fd5b806342f6fb291461039c5780634c6448fe146103d45780634d649a42146103f4578063514fcac71461042a57806361eed2a91461044a57600080fd5b8063226affb811610203578063226affb8146102ca578063236cd7dc146102ea57806337a3f817146103195780633a2d20d1146103475780633b5d1a241461037c57600080fd5b8063026828931461023557806306a6034f146102685780630bbacb20146102885780631ae78a85146102aa575b600080fd5b34801561024157600080fd5b50610255610250366004612e9b565b6107d6565b6040519081526020015b60405180910390f35b34801561027457600080fd5b50610255610283366004612f0d565b610807565b34801561029457600080fd5b506102a86102a3366004612f8e565b61092f565b005b3480156102b657600080fd5b506102a86102c5366004612fe0565b610b04565b3480156102d657600080fd5b506102556102e5366004612fe0565b610c04565b3480156102f657600080fd5b5061030a610305366004612ff9565b610d37565b60405161025f93929190613061565b34801561032557600080fd5b50610339610334366004612fe0565b610e74565b60405161025f929190613137565b34801561035357600080fd5b506103676103623660046131e8565b6111a2565b6040805192835260208301919091520161025f565b34801561038857600080fd5b506102a8610397366004612fe0565b6112d1565b3480156103a857600080fd5b50600a546103bc906001600160a01b031681565b6040516001600160a01b03909116815260200161025f565b3480156103e057600080fd5b506102a86103ef366004613258565b6113c1565b34801561040057600080fd5b5061025561040f366004612ff9565b6001600160a01b031660009081526004602052604090205490565b34801561043657600080fd5b506102a8610445366004612fe0565b611439565b34801561045657600080fd5b5061046a610465366004612ff9565b611736565b60405161025f929190613299565b34801561048457600080fd5b506102556104933660046132bd565b6117e6565b3480156104a457600080fd5b506104b86104b3366004612e9b565b611902565b60405161025f9190613330565b3480156104d157600080fd5b50600754610255565b3480156104e657600080fd5b506102556104f5366004612fe0565b611acd565b34801561050657600080fd5b506103bc610515366004612fe0565b611aee565b34801561052657600080fd5b506102a8610535366004613343565b611b18565b34801561054657600080fd5b5061055a6105553660046133a2565b611ba1565b60405161025f91906133fb565b34801561057357600080fd5b506102a8610582366004612fe0565b611f09565b34801561059357600080fd5b506105a76105a2366004612fe0565b611f57565b60405161025f9190613508565b6102a86105c2366004612fe0565b612046565b3480156105d357600080fd5b506102a86105e2366004612fe0565b612147565b3480156105f357600080fd5b50610607610602366004612fe0565b612170565b60405161025f989796959493929190613537565b6102a861062936600461359d565b612264565b34801561063a57600080fd5b506103bc610649366004612fe0565b612699565b34801561065a57600080fd5b50600854610255565b34801561066f57600080fd5b5061025561067e366004612ff9565b6001600160a01b031660009081526020819052604090206003015490565b3480156106a857600080fd5b506102a86106b7366004612fe0565b6126a9565b3480156106c857600080fd5b506102556106d7366004612ff9565b6001600160a01b031660009081526002602052604090205490565b3480156106fe57600080fd5b5061025561070d366004612e9b565b61282f565b34801561071e57600080fd5b506102a861072d366004612fe0565b61284b565b34801561073e57600080fd5b5061075261074d366004612fe0565b61293d565b60405161025f93929190613650565b34801561076d57600080fd5b506102a861077c366004612fe0565b612965565b34801561078d57600080fd5b50600554610255565b3480156107a257600080fd5b506102556107b1366004612ff9565b612af8565b3480156107c257600080fd5b506102a86107d1366004612fe0565b612bd6565b600460205281600052604060002081815481106107f257600080fd5b90600052602060002001600091509150505481565b33600090815260208181526040808320815160a0810183528a81528251601f8a0185900485028101850190935288835290929091828201918a908a9081908401838280828437600092019190915250505090825250604080516020601f8901819004810282018101909252878152918101919088908890819084018382808284376000920191909152505050908252506020810185905260016040909101526003820180548a9081106108bc576108bc61366f565b90600052602060002090600502016000820151816000015560208201518160010190816108e99190613724565b50604082015160028201906108fe9082613724565b50606082015160038201556080909101516004909101805460ff191691151591909117905550959695505050505050565b6000600685815481106109445761094461366f565b90600052602060002090600a02019050848160000154146109805760405162461bcd60e51b8152600401610977906137e3565b60405180910390fd5b60028101546001600160a01b03163314610a025760405162461bcd60e51b815260206004820152603760248201527f4f6e6c792074686520636c69656e742077686f20706c6163656420746865206f60448201527f726465722063616e206c656176652061207265766965770000000000000000006064820152608401610977565b6005600982015460ff166006811115610a1d57610a1d6133c3565b14610a785760405162461bcd60e51b815260206004820152602560248201527f4f6e6c792064656c697665726564206f72646572732063616e206265207265766044820152641a595dd95960da1b6064820152608401610977565b604051806060016040528086815260200185815260200184848080601f01602080910402602001604051908101604052809392919081815260200183838082843760009201829052509390945250508781526003602090815260409182902084518155908401516001820155908301519091506002820190610afa9082613724565b5050505050505050565b600060068281548110610b1957610b1961366f565b90600052602060002090600a0201905081816000015414610b4c5760405162461bcd60e51b8152600401610977906137e3565b6003600982015460ff166006811115610b6757610b676133c3565b14610b7157600080fd5b60038101546001600160a01b03163314610be95760405162461bcd60e51b815260206004820152603360248201527f4f72646572206d7573742062652064656c69766572656420627920636f757269604482015272195c881d1a185d081858d8d95c1d1959081a5d606a1b6064820152608401610977565b6009810180546004919060ff19166001835b02179055505050565b600080600a60009054906101000a90046001600160a01b03166001600160a01b031663feaf968c6040518163ffffffff1660e01b815260040160a060405180830381865afa158015610c5a573d6000803e3d6000fd5b505050506040513d601f19601f82011682018060405250810190610c7e919061383f565b5050509150506000600a60009054906101000a90046001600160a01b03166001600160a01b031663313ce5676040518163ffffffff1660e01b8152600401602060405180830381865afa158015610cd9573d6000803e3d6000fd5b505050506040513d601f19601f82011682018060405250810190610cfd919061388f565b90506000610d0f633b9aca00846138c8565b610d1a83600a6139ce565b610d2490876139dd565b610d2e91906138c8565b95945050505050565b600060208190529081526040902080546001820180546001600160a01b039092169291610d639061369b565b80601f0160208091040260200160405190810160405280929190818152602001828054610d8f9061369b565b8015610ddc5780601f10610db157610100808354040283529160200191610ddc565b820191906000526020600020905b815481529060010190602001808311610dbf57829003601f168201915b505050505090806002018054610df19061369b565b80601f0160208091040260200160405190810160405280929190818152602001828054610e1d9061369b565b8015610e6a5780601f10610e3f57610100808354040283529160200191610e6a565b820191906000526020600020905b815481529060010190602001808311610e4d57829003601f168201915b5050505050905083565b606080600060068481548110610e8c57610e8c61366f565b90600052602060002090600a0201905083816000015414610ebf5760405162461bcd60e51b8152600401610977906137e3565b60018101546001600160a01b0316600090815260208190526040812060048301549091906001600160401b03811115610efa57610efa613685565b604051908082528060200260200182016040528015610f5f57816020015b610f4c6040518060a00160405280600081526020016060815260200160608152602001600081526020016000151581525090565b815260200190600190039081610f185790505b50905060005b600484015481101561113e576000846004018281548110610f8857610f8861366f565b90600052602060002001549050836003018181548110610faa57610faa61366f565b90600052602060002090600502016040518060a001604052908160008201548152602001600182018054610fdd9061369b565b80601f01602080910402602001604051908101604052809291908181526020018280546110099061369b565b80156110565780601f1061102b57610100808354040283529160200191611056565b820191906000526020600020905b81548152906001019060200180831161103957829003601f168201915b5050505050815260200160028201805461106f9061369b565b80601f016020809104026020016040519081016040528092919081815260200182805461109b9061369b565b80156110e85780601f106110bd576101008083540402835291602001916110e8565b820191906000526020600020905b8154815290600101906020018083116110cb57829003601f168201915b50505091835250506003820154602082015260049091015460ff161515604090910152835184908490811061111f5761111f61366f565b6020026020010181905250508080611136906139f4565b915050610f65565b5080836005018080548060200260200160405190810160405280929190818152602001828054801561118f57602002820191906000526020600020905b81548152602001906001019080831161117b575b5050505050905094509450505050915091565b6001600160a01b0386166000908152602081905260408120819081805b888110156112b35760038301548a8a838181106111de576111de61366f565b90506020020135106112245760405162461bcd60e51b815260206004820152600f60248201526e125b9d985b1a59081a5d195b481251608a1b6044820152606401610977565b6000836003018b8b8481811061123c5761123c61366f565b90506020020135815481106112535761125361366f565b906000526020600020906005020190508888838181106112755761127561366f565b905060200201356112898260030154610c04565b61129391906139dd565b61129d9084613a0d565b92505080806112ab906139f4565b9150506111bf565b5060006112bf86610c04565b919b919a509098505050505050505050565b6000600682815481106112e6576112e661366f565b90600052602060002090600a02019050818160000154146113195760405162461bcd60e51b8152600401610977906137e3565b6001600982015460ff166006811115611334576113346133c3565b1461138f5760405162461bcd60e51b815260206004820152602560248201527f4f72646572206d75737420626520696e207468652070726f63657373696e6720604482015264737461746560d81b6064820152608401610977565b600381018054336001600160a01b031990911617905560098101805460ff191660021790556113bd82612ce9565b5050565b33600081815260016020819052604090912080546001600160a01b031916909217825581016113f1838583613a20565b5050600880546001810182556000919091527ff3f7a9fe364faab93b216da50a3214154f22a0a2b415b23a84c8169e8b636ee30180546001600160a01b031916331790555050565b60006006828154811061144e5761144e61366f565b90600052602060002090600a02019050818160000154146114815760405162461bcd60e51b8152600401610977906137e3565b600281015460018201546001600160a01b0391821691166000600984015460ff1660068111156114b3576114b36133c3565b14806114d757506001600984015460ff1660068111156114d5576114d56133c3565b145b806114fa57506002600984015460ff1660068111156114f8576114f86133c3565b145b1561155857816001600160a01b03166108fc846006015485600701546115209190613a0d565b6040518115909202916000818181858888f193505050506115535760405162461bcd60e51b815260040161097790613ae0565b611723565b6003600984015460ff166006811115611573576115736133c3565b036116305760078301546040516001600160a01b0383169180156108fc02916000818181858888f193505050506115ec5760405162461bcd60e51b815260206004820152601b60248201527f4661696c656420746f20726566756e642072657374617572616e7400000000006044820152606401610977565b60068301546040516001600160a01b0384169180156108fc02916000818181858888f193505050506115535760405162461bcd60e51b815260040161097790613ae0565b600283015460078401546040516001600160a01b039283169284169180156108fc02916000818181858888f193505050506116ad5760405162461bcd60e51b815260206004820152601b60248201527f4661696c656420746f20726566756e642072657374617572616e7400000000006044820152606401610977565b60068401546040516001600160a01b0383169180156108fc02916000818181858888f193505050506117215760405162461bcd60e51b815260206004820152601860248201527f4661696c656420746f20726566756e6420636f757269657200000000000000006044820152606401610977565b505b5050600901805460ff1916600617905550565b6001602081905260009182526040909120805491810180546001600160a01b03909316926117639061369b565b80601f016020809104026020016040519081016040528092919081815260200182805461178f9061369b565b80156117dc5780601f106117b1576101008083540402835291602001916117dc565b820191906000526020600020905b8154815290600101906020018083116117bf57829003601f168201915b5050505050905082565b33600090815260208181526040808320600381018054835160a0810185528181528451601f8c018790048702810187019095528a855292949093919291828201918c908c9081908401838280828437600092019190915250505090825250604080516020601f8b0181900481028201810190925289815291810191908a908a9081908401838280828437600092018290525093855250505060208083018990526001604090930183905284548084018655948252908190208351600590950201938455820151919291908201906118bd9082613724565b50604082015160028201906118d29082613724565b50606082015160038201556080909101516004909101805460ff1916911515919091179055979650505050505050565b6119366040518060a00160405280600081526020016060815260200160608152602001600081526020016000151581525090565b6001600160a01b03831660009081526020819052604090206003018054839081106119635761196361366f565b90600052602060002090600502016040518060a0016040529081600082015481526020016001820180546119969061369b565b80601f01602080910402602001604051908101604052809291908181526020018280546119c29061369b565b8015611a0f5780601f106119e457610100808354040283529160200191611a0f565b820191906000526020600020905b8154815290600101906020018083116119f257829003601f168201915b50505050508152602001600282018054611a289061369b565b80601f0160208091040260200160405190810160405280929190818152602001828054611a549061369b565b8015611aa15780601f10611a7657610100808354040283529160200191611aa1565b820191906000526020600020905b815481529060010190602001808311611a8457829003601f168201915b50505091835250506003820154602082015260049091015460ff16151560409091015290505b92915050565b60058181548110611add57600080fd5b600091825260209091200154905081565b60078181548110611afe57600080fd5b6000918252602090912001546001600160a01b0316905081565b33600081815260208190526040902080546001600160a01b031916909117815560018101611b47858783613a20565b5060028101611b57838583613a20565b5050600780546001810182556000919091527fa66cc928b5edb82af9bd49922954155ab7b0942694bea4ce44661d9a8736c6880180546001600160a01b0319163317905550505050565b60606000805b600654811015611c2357836006811115611bc357611bc36133c3565b60068281548110611bd657611bd661366f565b600091825260209091206009600a90920201015460ff166006811115611bfe57611bfe6133c3565b03611c115781611c0d816139f4565b9250505b80611c1b816139f4565b915050611ba7565b506000816001600160401b03811115611c3e57611c3e613685565b604051908082528060200260200182016040528015611c7757816020015b611c64612da1565b815260200190600190039081611c5c5790505b5090506000805b600654811015611eff57856006811115611c9a57611c9a6133c3565b60068281548110611cad57611cad61366f565b600091825260209091206009600a90920201015460ff166006811115611cd557611cd56133c3565b03611eed5760068181548110611ced57611ced61366f565b60009182526020918290206040805161014081018252600a9093029091018054835260018101546001600160a01b03908116848601526002820154811684840152600382015416606084015260048101805483518187028101870190945280845293949193608086019392830182828015611d8757602002820191906000526020600020905b815481526020019060010190808311611d73575b5050505050815260200160058201805480602002602001604051908101604052809291908181526020018280548015611ddf57602002820191906000526020600020905b815481526020019060010190808311611dcb575b505050505081526020016006820154815260200160078201548152602001600882018054611e0c9061369b565b80601f0160208091040260200160405190810160405280929190818152602001828054611e389061369b565b8015611e855780601f10611e5a57610100808354040283529160200191611e85565b820191906000526020600020905b815481529060010190602001808311611e6857829003601f168201915b5050509183525050600982015460209091019060ff166006811115611eac57611eac6133c3565b6006811115611ebd57611ebd6133c3565b81525050838381518110611ed357611ed361366f565b60200260200101819052508180611ee9906139f4565b9250505b80611ef7816139f4565b915050611c7e565b5090949350505050565b33600090815260208190526040812060038101805491929184908110611f3157611f3161366f565b60009182526020909120600590910201600401805460ff19169115159190911790555050565b611f7b60405180606001604052806000815260200160008152602001606081525090565b600360008381526020019081526020016000206040518060600160405290816000820154815260200160018201548152602001600282018054611fbd9061369b565b80601f0160208091040260200160405190810160405280929190818152602001828054611fe99061369b565b80156120365780601f1061200b57610100808354040283529160200191612036565b820191906000526020600020905b81548152906001019060200180831161201957829003601f168201915b5050505050815250509050919050565b60006006828154811061205b5761205b61366f565b90600052602060002090600a020190508181600001541461208e5760405162461bcd60e51b8152600401610977906137e3565b6001600982015460ff1660068111156120a9576120a96133c3565b146120b357600080fd5b60028101546001600160a01b0316331461212a5760405162461bcd60e51b815260206004820152603260248201527f4f726465722064656c697665727920666565206d75737420626520696e637265604482015271185cd95908189e481d1a194818db1a595b9d60721b6064820152608401610977565b3481600601600082825461213e9190613a0d565b90915550505050565b3360009081526020819052604090206003810180546001919084908110611f3157611f3161366f565b6006818154811061218057600080fd5b60009182526020909120600a909102018054600182015460028301546003840154600685015460078601546008870180549698506001600160a01b03958616979486169695909316949193909290916121d89061369b565b80601f01602080910402602001604051908101604052809291908181526020018280546122049061369b565b80156122515780601f1061222657610100808354040283529160200191612251565b820191906000526020600020905b81548152906001019060200180831161223457829003601f168201915b5050506009909301549192505060ff1688565b6001600160a01b03808916600090815260208190526040902080549091166122ce5760405162461bcd60e51b815260206004820152601a60248201527f496e76616c69642072657374617572616e7420616464726573730000000000006044820152606401610977565b60005b8781101561238a57816003018989838181106122ef576122ef61366f565b90506020020135815481106123065761230661366f565b600091825260209091206004600590920201015460ff16151560011461237a5760405162461bcd60e51b815260206004820152602360248201527f4f7264657220636f6e7461696e7320756e617661696c61626c65206974656d7360448201526217171760e91b6064820152608401610977565b612383816139f4565b90506122d1565b5060008061239c8b8b8b8b8b8b6111a2565b90925090506123ab8183613a0d565b3410156123f25760405162461bcd60e51b8152602060048201526015602482015274125b98dbdc9c9958dd08185b5bdd5b9d081c185a59605a1b6044820152606401610977565b6000600680549050905060066040518061014001604052808381526020018e6001600160a01b03168152602001336001600160a01b0316815260200160006001600160a01b031681526020018d8d808060200260200160405190810160405280939291908181526020018383602002808284376000920191909152505050908252506040805160208d810282810182019093528d82529283019290918e918e918291850190849080828437600092019190915250505090825250602080820186905260408083018890528051601f8b01839004830281018301909152898152606090920191908a908a908190840183828082843760009201829052509385525050506020918201819052835460018082018655948252908290208351600a909202019081558282015193810180546001600160a01b039586166001600160a01b0319918216179091556040840151600283018054918716918316919091179055606084015160038301805491909616911617909355608082015180519293926125819260048501920190612e1f565b5060a0820151805161259d916005840191602090910190612e1f565b5060c0820151600682015560e0820151600782015561010082015160088201906125c79082613724565b5061012082015160098201805460ff191660018360068111156125ec576125ec6133c3565b0217905550505060026000336001600160a01b03166001600160a01b03168152602001908152602001600020819080600181540180825580915050600190039060005260206000200160009091909190915055600460008d6001600160a01b03166001600160a01b03168152602001908152602001600020819080600181540180825580915050600190039060005260206000200160009091909190915055505050505050505050505050565b60088181548110611afe57600080fd5b6000600682815481106126be576126be61366f565b90600052602060002090600a02019050818160000154146126f15760405162461bcd60e51b8152600401610977906137e3565b60018101546001600160a01b0316331461275f5760405162461bcd60e51b815260206004820152602960248201527f4f6e6c79207468652072657374617572616e742063616e206465636c696e65206044820152683a34329037b93232b960b91b6064820152608401610977565b6000600982015460ff16600681111561277a5761277a6133c3565b146127bf5760405162461bcd60e51b81526020600482015260156024820152744f72646572206d7573742062652070656e64696e6760581b6044820152606401610977565b6002810154600682015460078301546001600160a01b039092169182916108fc916127ea9190613a0d565b6040518115909202916000818181858888f1935050505061281d5760405162461bcd60e51b815260040161097790613ae0565b50600901805460ff1916600617905550565b600260205281600052604060002081815481106107f257600080fd5b6000600682815481106128605761286061366f565b90600052602060002090600a02019050818160000154146128935760405162461bcd60e51b8152600401610977906137e3565b6004600982015460ff1660068111156128ae576128ae6133c3565b146128b857600080fd5b60028101546001600160a01b031633146129275760405162461bcd60e51b815260206004820152602a60248201527f4f726465722064656c6976657279206d75737420626520636f6e6669726d656460448201526908189e4818db1a595b9d60b21b6064820152608401610977565b6009810180546005919060ff1916600183610bfb565b60036020526000908152604090208054600182015460028301805492939192610df19061369b565b60006006828154811061297a5761297a61366f565b90600052602060002090600a02019050818160000154146129ad5760405162461bcd60e51b8152600401610977906137e3565b60018101546001600160a01b03163314612a2f5760405162461bcd60e51b815260206004820152603e60248201527f4f6e6c79207468652072657374617572616e7420666f7220776869636820746860448201527f65206f7264657220776173206d6164652063616e2061636365707420697400006064820152608401610977565b6000600982015460ff166006811115612a4a57612a4a6133c3565b14612ab65760405162461bcd60e51b815260206004820152603660248201527f43616e206f6e6c7920616363657074206f726465727320666f7220776869636860448201527520746865207374617475732069732050454e44494e4760501b6064820152608401610977565b600901805460ff191660019081179091556005805491820181556000527f036b6384b5eca791c62761152d0c79bb0604c104a5fb6f4eb0703f3154bb3db00155565b60008080805b6001600160a01b038516600090815260046020526040902054811015612bb1576001600160a01b0385166000908152600460205260408120805483908110612b4857612b4861366f565b9060005260206000200154905080600360008381526020019081526020016000206000015403612b9e57600081815260036020526040902060010154612b8e9085613a0d565b935082612b9a816139f4565b9350505b5080612ba9816139f4565b915050612afe565b5080600003612bc4575060009392505050565b612bce81836138c8565b949350505050565b600060068281548110612beb57612beb61366f565b90600052602060002090600a0201905081816000015414612c1e5760405162461bcd60e51b8152600401610977906137e3565b6002600982015460ff166006811115612c3957612c396133c3565b14612c4357600080fd5b60018101546001600160a01b03163314612cd35760405162461bcd60e51b8152602060048201526044602482018190527f4f72646572206d757374206265206d61726b656420726561647920746f206465908201527f6c69766572206279207468652072657374617572616e74206f6620746865206f606482015263393232b960e11b608482015260a401610977565b6009810180546003919060ff1916600183610bfb565b60005b6005548110156113bd578160058281548110612d0a57612d0a61366f565b906000526020600020015403612d8f5760058054612d2a90600190613b17565b81548110612d3a57612d3a61366f565b906000526020600020015460058281548110612d5857612d5861366f565b6000918252602090912001556005805480612d7557612d75613b2a565b600190038181906000526020600020016000905590555050565b80612d99816139f4565b915050612cec565b6040518061014001604052806000815260200160006001600160a01b0316815260200160006001600160a01b0316815260200160006001600160a01b03168152602001606081526020016060815260200160008152602001600081526020016060815260200160006006811115612e1a57612e1a6133c3565b905290565b828054828255906000526020600020908101928215612e5a579160200282015b82811115612e5a578251825591602001919060010190612e3f565b50612e66929150612e6a565b5090565b5b80821115612e665760008155600101612e6b565b80356001600160a01b0381168114612e9657600080fd5b919050565b60008060408385031215612eae57600080fd5b612eb783612e7f565b946020939093013593505050565b60008083601f840112612ed757600080fd5b5081356001600160401b03811115612eee57600080fd5b602083019150836020828501011115612f0657600080fd5b9250929050565b60008060008060008060808789031215612f2657600080fd5b8635955060208701356001600160401b0380821115612f4457600080fd5b612f508a838b01612ec5565b90975095506040890135915080821115612f6957600080fd5b50612f7689828a01612ec5565b979a9699509497949695606090950135949350505050565b60008060008060608587031215612fa457600080fd5b843593506020850135925060408501356001600160401b03811115612fc857600080fd5b612fd487828801612ec5565b95989497509550505050565b600060208284031215612ff257600080fd5b5035919050565b60006020828403121561300b57600080fd5b61301482612e7f565b9392505050565b6000815180845260005b8181101561304157602081850181015186830182015201613025565b506000602082860101526020601f19601f83011685010191505092915050565b6001600160a01b03841681526060602082018190526000906130859083018561301b565b8281036040840152613097818561301b565b9695505050505050565b805182526000602082015160a060208501526130c060a085018261301b565b9050604083015184820360408601526130d9828261301b565b915050606083015160608501526080830151151560808501528091505092915050565b600081518084526020808501945080840160005b8381101561312c57815187529582019590820190600101613110565b509495945050505050565b6000604082016040835280855180835260608501915060608160051b8601019250602080880160005b8381101561318e57605f1988870301855261317c8683516130a1565b95509382019390820190600101613160565b505085840381870152505050610d2e81856130fc565b60008083601f8401126131b657600080fd5b5081356001600160401b038111156131cd57600080fd5b6020830191508360208260051b8501011115612f0657600080fd5b6000806000806000806080878903121561320157600080fd5b61320a87612e7f565b955060208701356001600160401b038082111561322657600080fd5b6132328a838b016131a4565b9097509550604089013591508082111561324b57600080fd5b50612f7689828a016131a4565b6000806020838503121561326b57600080fd5b82356001600160401b0381111561328157600080fd5b61328d85828601612ec5565b90969095509350505050565b6001600160a01b0383168152604060208201819052600090612bce9083018461301b565b6000806000806000606086880312156132d557600080fd5b85356001600160401b03808211156132ec57600080fd5b6132f889838a01612ec5565b9097509550602088013591508082111561331157600080fd5b5061331e88828901612ec5565b96999598509660400135949350505050565b60208152600061301460208301846130a1565b6000806000806040858703121561335957600080fd5b84356001600160401b038082111561337057600080fd5b61337c88838901612ec5565b9096509450602087013591508082111561339557600080fd5b50612fd487828801612ec5565b6000602082840312156133b457600080fd5b81356007811061301457600080fd5b634e487b7160e01b600052602160045260246000fd5b600781106133f757634e487b7160e01b600052602160045260246000fd5b9052565b60006020808301818452808551808352604092508286019150828160051b87010184880160005b838110156134fa57603f19898403018552815180518452878101516001600160a01b039081168986015287820151811688860152606080830151909116908501526080808201516101408287018190529190613480838801826130fc565b9250505060a0808301518683038288015261349b83826130fc565b9250505060c080830151818701525060e080830151818701525061010080830151868303828801526134cd838261301b565b925050506101208083015192506134e6818701846133d9565b509588019593505090860190600101613422565b509098975050505050505050565b60208152815160208201526020820151604082015260006040830151606080840152612bce608084018261301b565b8881526001600160a01b0388811660208301528781166040830152861660608201526080810185905260a0810184905261010060c082018190526000906135808382018661301b565b91505061359060e08301846133d9565b9998505050505050505050565b60008060008060008060008060a0898b0312156135b957600080fd5b6135c289612e7f565b975060208901356001600160401b03808211156135de57600080fd5b6135ea8c838d016131a4565b909950975060408b013591508082111561360357600080fd5b61360f8c838d016131a4565b909750955060608b0135945060808b013591508082111561362f57600080fd5b5061363c8b828c01612ec5565b999c989b5096995094979396929594505050565b838152826020820152606060408201526000610d2e606083018461301b565b634e487b7160e01b600052603260045260246000fd5b634e487b7160e01b600052604160045260246000fd5b600181811c908216806136af57607f821691505b6020821081036136cf57634e487b7160e01b600052602260045260246000fd5b50919050565b601f82111561371f57600081815260208120601f850160051c810160208610156136fc5750805b601f850160051c820191505b8181101561371b57828155600101613708565b5050505b505050565b81516001600160401b0381111561373d5761373d613685565b6137518161374b845461369b565b846136d5565b602080601f831160018114613786576000841561376e5750858301515b600019600386901b1c1916600185901b17855561371b565b600085815260208120601f198616915b828110156137b557888601518255948401946001909101908401613796565b50858210156137d35787850151600019600388901b60f8161c191681555b5050505050600190811b01905550565b60208082526022908201527f4f72646572207769746820676976656e20696420646f6573206e6f74206578696040820152611cdd60f21b606082015260800190565b805169ffffffffffffffffffff81168114612e9657600080fd5b600080600080600060a0868803121561385757600080fd5b61386086613825565b945060208601519350604086015192506060860151915061388360808701613825565b90509295509295909350565b6000602082840312156138a157600080fd5b815160ff8116811461301457600080fd5b634e487b7160e01b600052601160045260246000fd5b6000826138e557634e487b7160e01b600052601260045260246000fd5b500490565b600181815b8085111561392557816000190482111561390b5761390b6138b2565b8085161561391857918102915b93841c93908002906138ef565b509250929050565b60008261393c57506001611ac7565b8161394957506000611ac7565b816001811461395f576002811461396957613985565b6001915050611ac7565b60ff84111561397a5761397a6138b2565b50506001821b611ac7565b5060208310610133831016604e8410600b84101617156139a8575081810a611ac7565b6139b283836138ea565b80600019048211156139c6576139c66138b2565b029392505050565b600061301460ff84168361392d565b8082028115828204841417611ac757611ac76138b2565b600060018201613a0657613a066138b2565b5060010190565b80820180821115611ac757611ac76138b2565b6001600160401b03831115613a3757613a37613685565b613a4b83613a45835461369b565b836136d5565b6000601f841160018114613a7f5760008515613a675750838201355b600019600387901b1c1916600186901b178355613ad9565b600083815260209020601f19861690835b82811015613ab05786850135825560209485019460019092019101613a90565b5086821015613acd5760001960f88860031b161c19848701351681555b505060018560011b0183555b5050505050565b60208082526017908201527f4661696c656420746f20726566756e6420636c69656e74000000000000000000604082015260600190565b81810381811115611ac757611ac76138b2565b634e487b7160e01b600052603160045260246000fdfea2646970667358221220fc593068190381c278c85e3a7e813f1f9c05b74a9b0a9f0b55859b67279b19bb64736f6c63430008110033","bytecodeSha1":"ad19251803c3c8e432951f5f4636cf05b28a497f","compiler":{"evm_version":"istanbul","optimizer":{"enabled":true,"runs":200},"version":"0.8.17+commit.8df45f5f"},"contractName":"FoodDelivery","language":"Solidity","natspec":{"kind":"dev","methods":{},"version":1},"opcodes":"PUSH1 0x80 PUSH1 0x40 MSTORE PUSH1 0x4 CALLDATASIZE LT PUSH2 0x230 JUMPI PUSH1 0x0 CALLDATALOAD PUSH1 0xE0 SHR DUP1 PUSH4 0x880D4EE8 GT PUSH2 0x12E JUMPI DUP1 PUSH4 0xC59C521A GT PUSH2 0xAB JUMPI DUP1 PUSH4 0xE83DDCEA GT PUSH2 0x6F JUMPI DUP1 PUSH4 0xE83DDCEA EQ PUSH2 0x732 JUMPI DUP1 PUSH4 0xEF18E9ED EQ PUSH2 0x761 JUMPI DUP1 PUSH4 0xEFF6ED6B EQ PUSH2 0x781 JUMPI DUP1 PUSH4 0xF13B84B6 EQ PUSH2 0x796 JUMPI DUP1 PUSH4 0xFEDF1A87 EQ PUSH2 0x7B6 JUMPI PUSH1 0x0 DUP1 REVERT JUMPDEST DUP1 PUSH4 0xC59C521A EQ PUSH2 0x663 JUMPI DUP1 PUSH4 0xCCBDB85C EQ PUSH2 0x69C JUMPI DUP1 PUSH4 0xD3168A66 EQ PUSH2 0x6BC JUMPI DUP1 PUSH4 0xDEE9E164 EQ PUSH2 0x6F2 JUMPI DUP1 PUSH4 0xE742A182 EQ PUSH2 0x712 JUMPI PUSH1 0x0 DUP1 REVERT JUMPDEST DUP1 PUSH4 0x9CBCFED5 GT PUSH2 0xF2 JUMPI DUP1 PUSH4 0x9CBCFED5 EQ PUSH2 0x5C7 JUMPI DUP1 PUSH4 0xA85C38EF EQ PUSH2 0x5E7 JUMPI DUP1 PUSH4 0xABFD0687 EQ PUSH2 0x61B JUMPI DUP1 PUSH4 0xBDACE182 EQ PUSH2 0x62E JUMPI DUP1 PUSH4 0xBE47DCA1 EQ PUSH2 0x64E JUMPI PUSH1 0x0 DUP1 REVERT JUMPDEST DUP1 PUSH4 0x880D4EE8 EQ PUSH2 0x51A JUMPI DUP1 PUSH4 0x8CE2EC79 EQ PUSH2 0x53A JUMPI DUP1 PUSH4 0x92184BFB EQ PUSH2 0x567 JUMPI DUP1 PUSH4 0x990581B6 EQ PUSH2 0x587 JUMPI DUP1 PUSH4 0x9B51BD21 EQ PUSH2 0x5B4 JUMPI PUSH1 0x0 DUP1 REVERT JUMPDEST DUP1 PUSH4 0x42F6FB29 GT PUSH2 0x1BC JUMPI DUP1 PUSH4 0x64432EB8 GT PUSH2 0x180 JUMPI DUP1 PUSH4 0x64432EB8 EQ PUSH2 0x478 JUMPI DUP1 PUSH4 0x68AD5B83 EQ PUSH2 0x498 JUMPI DUP1 PUSH4 0x6D4166E9 EQ PUSH2 0x4C5 JUMPI DUP1 PUSH4 0x708D2612 EQ PUSH2 0x4DA JUMPI DUP1 PUSH4 0x85B6EC06 EQ PUSH2 0x4FA JUMPI PUSH1 0x0 DUP1 REVERT JUMPDEST DUP1 PUSH4 0x42F6FB29 EQ PUSH2 0x39C JUMPI DUP1 PUSH4 0x4C6448FE EQ PUSH2 0x3D4 JUMPI DUP1 PUSH4 0x4D649A42 EQ PUSH2 0x3F4 JUMPI DUP1 PUSH4 0x514FCAC7 EQ PUSH2 0x42A JUMPI DUP1 PUSH4 0x61EED2A9 EQ PUSH2 0x44A JUMPI PUSH1 0x0 DUP1 REVERT JUMPDEST DUP1 PUSH4 0x226AFFB8 GT PUSH2 0x203 JUMPI DUP1 PUSH4 0x226AFFB8 EQ PUSH2 0x2CA JUMPI DUP1 PUSH4 0x236CD7DC EQ PUSH2 0x2EA JUMPI DUP1 PUSH4 0x37A3F817 EQ PUSH2 0x319 JUMPI DUP1 PUSH4 0x3A2D20D1 EQ PUSH2 0x347 JUMPI DUP1 PUSH4 0x3B5D1A24 EQ PUSH2 0x37C JUMPI PUSH1 0x0 DUP1 REVERT JUMPDEST DUP1 PUSH4 0x2682893 EQ PUSH2 0x235 JUMPI DUP1 PUSH4 0x6A6034F EQ PUSH2 0x268 JUMPI DUP1 PUSH4 0xBBACB20 EQ PUSH2 0x288 JUMPI DUP1 PUSH4 0x1AE78A85 EQ PUSH2 0x2AA JUMPI JUMPDEST PUSH1 0x0 DUP1 REVERT JUMPDEST CALLVALUE DUP1 ISZERO PUSH2 0x241 JUMPI PUSH1 0x0 DUP1 REVERT JUMPDEST POP PUSH2 0x255 PUSH2 0x250 CALLDATASIZE PUSH1 0x4 PUSH2 0x2E9B JUMP JUMPDEST PUSH2 0x7D6 JUMP JUMPDEST PUSH1 0x40 MLOAD SWAP1 DUP2 MSTORE PUSH1 0x20 ADD JUMPDEST PUSH1 0x40 MLOAD DUP1 SWAP2 SUB SWAP1 RETURN JUMPDEST CALLVALUE DUP1 ISZERO PUSH2 0x274 JUMPI PUSH1 0x0 DUP1 REVERT JUMPDEST POP PUSH2 0x255 PUSH2 0x283 CALLDATASIZE PUSH1 0x4 PUSH2 0x2F0D JUMP JUMPDEST PUSH2 0x807 JUMP JUMPDEST CALLVALUE DUP1 ISZERO PUSH2 0x294 JUMPI PUSH1 0x0 DUP1 REVERT JUMPDEST POP PUSH2 0x2A8 PUSH2 0x2A3 CALLDATASIZE PUSH1 0x4 PUSH2 0x2F8E JUMP JUMPDEST PUSH2 0x92F JUMP JUMPDEST STOP JUMPDEST CALLVALUE DUP1 ISZERO PUSH2 0x2B6 JUMPI PUSH1 0x0 DUP1 REVERT JUMPDEST POP PUSH2 0x2A8 PUSH2 0x2C5 CALLDATASIZE PUSH1 0x4 PUSH2 0x2FE0 JUMP JUMPDEST PUSH2 0xB04 JUMP JUMPDEST CALLVALUE DUP1 ISZERO PUSH2 0x2D6 JUMPI PUSH1 0x0 DUP1 REVERT JUMPDEST POP PUSH2 0x255 PUSH2 0x2E5 CALLDATASIZE PUSH1 0x4 PUSH2 0x2FE0 JUMP JUMPDEST PUSH2 0xC04 JUMP JUMPDEST CALLVALUE DUP1 ISZERO PUSH2 0x2F6 JUMPI PUSH1 0x0 DUP1 REVERT JUMPDEST POP PUSH2 0x30A PUSH2 0x305 CALLDATASIZE PUSH1 0x4 PUSH2 0x2FF9 JUMP JUMPDEST PUSH2 0xD37 JUMP JUMPDEST PUSH1 0x40 MLOAD PUSH2 0x25F SWAP4 SWAP3 SWAP2 SWAP1 PUSH2 0x3061 JUMP JUMPDEST CALLVALUE DUP1 ISZERO PUSH2 0x325 JUMPI PUSH1 0x0 DUP1 REVERT JUMPDEST POP PUSH2 0x339 PUSH2 0x334 CALLDATASIZE PUSH1 0x4 PUSH2 0x2FE0 JUMP JUMPDEST PUSH2 0xE74 JUMP JUMPDEST PUSH1 0x40 MLOAD PUSH2 0x25F SWAP3 SWAP2 SWAP1 PUSH2 0x3137 JUMP JUMPDEST CALLVALUE DUP1 ISZERO PUSH2 0x353 JUMPI PUSH1 0x0 DUP1 REVERT JUMPDEST POP PUSH2 0x367 PUSH2 0x362 CALLDATASIZE PUSH1 0x4 PUSH2 0x31E8 JUMP JUMPDEST PUSH2 0x11A2 JUMP JUMPDEST PUSH1 0x40 DUP1 MLOAD SWAP3 DUP4 MSTORE PUSH1 0x20 DUP4 ADD SWAP2 SWAP1 SWAP2 MSTORE ADD PUSH2 0x25F JUMP JUMPDEST CALLVALUE DUP1 ISZERO PUSH2 0x388 JUMPI PUSH1 0x0 DUP1 REVERT JUMPDEST POP PUSH2 0x2A8 PUSH2 0x397 CALLDATASIZE PUSH1 0x4 PUSH2 0x2FE0 JUMP JUMPDEST PUSH2 0x12D1 JUMP JUMPDEST CALLVALUE DUP1 ISZERO PUSH2 0x3A8 JUMPI PUSH1 0x0 DUP1 REVERT JUMPDEST POP PUSH1 0xA SLOAD PUSH2 0x3BC SWAP1 PUSH1 0x1 PUSH1 0x1 PUSH1 0xA0 SHL SUB AND DUP2 JUMP JUMPDEST PUSH1 0x40 MLOAD PUSH1 0x1 PUSH1 0x1 PUSH1 0xA0 SHL SUB SWAP1 SWAP2 AND DUP2 MSTORE PUSH1 0x20 ADD PUSH2 0x25F JUMP JUMPDEST CALLVALUE DUP1 ISZERO PUSH2 0x3E0 JUMPI PUSH1 0x0 DUP1 REVERT JUMPDEST POP PUSH2 0x2A8 PUSH2 0x3EF CALLDATASIZE PUSH1 0x4 PUSH2 0x3258 JUMP JUMPDEST PUSH2 0x13C1 JUMP JUMPDEST CALLVALUE DUP1 ISZERO PUSH2 0x400 JUMPI PUSH1 0x0 DUP1 REVERT JUMPDEST POP PUSH2 0x255 PUSH2 0x40F CALLDATASIZE PUSH1 0x4 PUSH2 0x2FF9 JUMP JUMPDEST PUSH1 0x1 PUSH1 0x1 PUSH1 0xA0 SHL SUB AND PUSH1 0x0 SWAP1 DUP2 MSTORE PUSH1 0x4 PUSH1 0x20 MSTORE PUSH1 0x40 SWAP1 KECCAK256 SLOAD SWAP1 JUMP JUMPDEST CALLVALUE DUP1 ISZERO PUSH2 0x436 JUMPI PUSH1 0x0 DUP1 REVERT JUMPDEST POP PUSH2 0x2A8 PUSH2 0x445 CALLDATASIZE PUSH1 0x4 PUSH2 0x2FE0 JUMP JUMPDEST PUSH2 0x1439 JUMP JUMPDEST CALLVALUE DUP1 ISZERO PUSH2 0x456 JUMPI PUSH1 0x0 DUP1 REVERT JUMPDEST POP PUSH2 0x46A PUSH2 0x465 CALLDATASIZE PUSH1 0x4 PUSH2 0x2FF9 JUMP JUMPDEST PUSH2 0x1736 JUMP JUMPDEST PUSH1 0x40 MLOAD PUSH2 0x25F SWAP3 SWAP2 SWAP1 PUSH2 0x3299 JUMP JUMPDEST CALLVALUE DUP1 ISZERO PUSH2 0x484 JUMPI PUSH1 0x0 DUP1 REVERT JUMPDEST POP PUSH2 0x255 PUSH2 0x493 CALLDATASIZE PUSH1 0x4 PUSH2 0x32BD JUMP JUMPDEST PUSH2 0x17E6 JUMP JUMPDEST CALLVALUE DUP1 ISZERO PUSH2 0x4A4 JUMPI PUSH1 0x0 DUP1 REVERT JUMPDEST POP PUSH2 0x4B8 PUSH2 0x4B3 CALLDATASIZE PUSH1 0x4 PUSH2 0x2E9B JUMP JUMPDEST PUSH2 0x1902 JUMP JUMPDEST PUSH1 0x40 MLOAD PUSH2 0x25F SWAP2 SWAP1 PUSH2 0x3330 JUMP JUMPDEST CALLVALUE DUP1 ISZERO PUSH2 0x4D1 JUMPI PUSH1 0x0 DUP1 REVERT JUMPDEST POP PUSH1 0x7 SLOAD PUSH2 0x255 JUMP JUMPDEST CALLVALUE DUP1 ISZERO PUSH2 0x4E6 JUMPI PUSH1 0x0 DUP1 REVERT JUMPDEST POP PUSH2 0x255 PUSH2 0x4F5 CALLDATASIZE PUSH1 0x4 PUSH2 0x2FE0 JUMP JUMPDEST PUSH2 0x1ACD JUMP JUMPDEST CALLVALUE DUP1 ISZERO PUSH2 0x506 JUMPI PUSH1 0x0 DUP1 REVERT JUMPDEST POP PUSH2 0x3BC PUSH2 0x515 CALLDATASIZE PUSH1 0x4 PUSH2 0x2FE0 JUMP JUMPDEST PUSH2 0x1AEE JUMP JUMPDEST CALLVALUE DUP1 ISZERO PUSH2 0x526 JUMPI PUSH1 0x0 DUP1 REVERT JUMPDEST POP PUSH2 0x2A8 PUSH2 0x535 CALLDATASIZE PUSH1 0x4 PUSH2 0x3343 JUMP JUMPDEST PUSH2 0x1B18 JUMP JUMPDEST CALLVALUE DUP1 ISZERO PUSH2 0x546 JUMPI PUSH1 0x0 DUP1 REVERT JUMPDEST POP PUSH2 0x55A PUSH2 0x555 CALLDATASIZE PUSH1 0x4 PUSH2 0x33A2 JUMP JUMPDEST PUSH2 0x1BA1 JUMP JUMPDEST PUSH1 0x40 MLOAD PUSH2 0x25F SWAP2 SWAP1 PUSH2 0x33FB JUMP JUMPDEST CALLVALUE DUP1 ISZERO PUSH2 0x573 JUMPI PUSH1 0x0 DUP1 REVERT JUMPDEST POP PUSH2 0x2A8 PUSH2 0x582 CALLDATASIZE PUSH1 0x4 PUSH2 0x2FE0 JUMP JUMPDEST PUSH2 0x1F09 JUMP JUMPDEST CALLVALUE DUP1 ISZERO PUSH2 0x593 JUMPI PUSH1 0x0 DUP1 REVERT JUMPDEST POP PUSH2 0x5A7 PUSH2 0x5A2 CALLDATASIZE PUSH1 0x4 PUSH2 0x2FE0 JUMP JUMPDEST PUSH2 0x1F57 JUMP JUMPDEST PUSH1 0x40 MLOAD PUSH2 0x25F SWAP2 SWAP1 PUSH2 0x3508 JUMP JUMPDEST PUSH2 0x2A8 PUSH2 0x5C2 CALLDATASIZE PUSH1 0x4 PUSH2 0x2FE0 JUMP JUMPDEST PUSH2 0x2046 JUMP JUMPDEST CALLVALUE DUP1 ISZERO PUSH2 0x5D3 JUMPI PUSH1 0x0 DUP1 REVERT JUMPDEST POP PUSH2 0x2A8 PUSH2 0x5E2 CALLDATASIZE PUSH1 0x4 PUSH2 0x2FE0 JUMP JUMPDEST PUSH2 0x2147 JUMP JUMPDEST CALLVALUE DUP1 ISZERO PUSH2 0x5F3 JUMPI PUSH1 0x0 DUP1 REVERT JUMPDEST POP PUSH2 0x607 PUSH2 0x602 CALLDATASIZE PUSH1 0x4 PUSH2 0x2FE0 JUMP JUMPDEST PUSH2 0x2170 JUMP JUMPDEST PUSH1 0x40 MLOAD PUSH2 0x25F SWAP9 SWAP8 SWAP7 SWAP6 SWAP5 SWAP4 SWAP3 SWAP2 SWAP1 PUSH2 0x3537 JUMP JUMPDEST PUSH2 0x2A8 PUSH2 0x629 CALLDATASIZE PUSH1 0x4 PUSH2 0x359D JUMP JUMPDEST PUSH2 0x2264 JUMP JUMPDEST CALLVALUE DUP1 ISZERO PUSH2 0x63A JUMPI PUSH1 0x0 DUP1 REVERT JUMPDEST POP PUSH2 0x3BC PUSH2 0x649 CALLDATASIZE PUSH1 0x4 PUSH2 0x2FE0 JUMP JUMPDEST PUSH2 0x2699 JUMP JUMPDEST CALLVALUE DUP1 ISZERO PUSH2 0x65A JUMPI PUSH1 0x0 DUP1 REVERT JUMPDEST POP PUSH1 0x8 SLOAD PUSH2 0x255 JUMP JUMPDEST CALLVALUE DUP1 ISZERO PUSH2 0x66F JUMPI PUSH1 0x0 DUP1 REVERT JUMPDEST POP PUSH2 0x255 PUSH2 0x67E CALLDATASIZE PUSH1 0x4 PUSH2 0x2FF9 JUMP JUMPDEST PUSH1 0x1 PUSH1 0x1 PUSH1 0xA0 SHL SUB AND PUSH1 0x0 SWAP1 DUP2 MSTORE PUSH1 0x20 DUP2 SWAP1 MSTORE PUSH1 0x40 SWAP1 KECCAK256 PUSH1 0x3 ADD SLOAD SWAP1 JUMP JUMPDEST CALLVALUE DUP1 ISZERO PUSH2 0x6A8 JUMPI PUSH1 0x0 DUP1 REVERT JUMPDEST POP PUSH2 0x2A8 PUSH2 0x6B7 CALLDATASIZE PUSH1 0x4 PUSH2 0x2FE0 JUMP JUMPDEST PUSH2 0x26A9 JUMP JUMPDEST CALLVALUE DUP1 ISZERO PUSH2 0x6C8 JUMPI PUSH1 0x0 DUP1 REVERT JUMPDEST POP PUSH2 0x255 PUSH2 0x6D7 CALLDATASIZE PUSH1 0x4 PUSH2 0x2FF9 JUMP JUMPDEST PUSH1 0x1 PUSH1 0x1 PUSH1 0xA0 SHL SUB AND PUSH1 0x0 SWAP1 DUP2 MSTORE PUSH1 0x2 PUSH1 0x20 MSTORE PUSH1 0x40 SWAP1 KECCAK256 SLOAD SWAP1 JUMP JUMPDEST CALLVALUE DUP1 ISZERO PUSH2 0x6FE JUMPI PUSH1 0x0 DUP1 REVERT JUMPDEST POP PUSH2 0x255 PUSH2 0x70D CALLDATASIZE PUSH1 0x4 PUSH2 0x2E9B JUMP JUMPDEST PUSH2 0x282F JUMP JUMPDEST CALLVALUE DUP1 ISZERO PUSH2 0x71E JUMPI PUSH1 0x0 DUP1 REVERT JUMPDEST POP PUSH2 0x2A8 PUSH2 0x72D CALLDATASIZE PUSH1 0x4 PUSH2 0x2FE0 JUMP JUMPDEST PUSH2 0x284B JUMP JUMPDEST CALLVALUE DUP1 ISZERO PUSH2 0x73E JUMPI PUSH1 0x0 DUP1 REVERT JUMPDEST POP PUSH2 0x752 PUSH2 0x74D CALLDATASIZE PUSH1 0x4 PUSH2 0x2FE0 JUMP JUMPDEST PUSH2 0x293D JUMP JUMPDEST PUSH1 0x40 MLOAD PUSH2 0x25F SWAP4 SWAP3 SWAP2 SWAP1 PUSH2 0x3650 JUMP JUMPDEST CALLVALUE DUP1 ISZERO PUSH2 0x76D JUMPI PUSH1 0x0 DUP1 REVERT JUMPDEST POP PUSH2 0x2A8 PUSH2 0x77C CALLDATASIZE PUSH1 0x4 PUSH2 0x2FE0 JUMP JUMPDEST PUSH2 0x2965 JUMP JUMPDEST CALLVALUE DUP1 ISZERO PUSH2 0x78D JUMPI PUSH1 0x0 DUP1 REVERT JUMPDEST POP PUSH1 0x5 SLOAD PUSH2 0x255 JUMP JUMPDEST CALLVALUE DUP1 ISZERO PUSH2 0x7A2 JUMPI PUSH1 0x0 DUP1 REVERT JUMPDEST POP PUSH2 0x255 PUSH2 0x7B1 CALLDATASIZE PUSH1 0x4 PUSH2 0x2FF9 JUMP JUMPDEST PUSH2 0x2AF8 JUMP JUMPDEST CALLVALUE DUP1 ISZERO PUSH2 0x7C2 JUMPI PUSH1 0x0 DUP1 REVERT JUMPDEST POP PUSH2 0x2A8 PUSH2 0x7D1 CALLDATASIZE PUSH1 0x4 PUSH2 0x2FE0 JUMP JUMPDEST PUSH2 0x2BD6 JUMP JUMPDEST PUSH1 0x4 PUSH1 0x20 MSTORE DUP2 PUSH1 0x0 MSTORE PUSH1 0x40 PUSH1 0x0 KECCAK256 DUP2 DUP2 SLOAD DUP2 LT PUSH2 0x7F2 JUMPI PUSH1 0x0 DUP1 REVERT JUMPDEST SWAP1 PUSH1 0x0 MSTORE PUSH1 0x20 PUSH1 0x0 KECCAK256 ADD PUSH1 0x0 SWAP2 POP SWAP2 POP POP SLOAD DUP2 JUMP JUMPDEST CALLER PUSH1 0x0 SWAP1 DUP2 MSTORE PUSH1 0x20 DUP2 DUP2 MSTORE PUSH1 0x40 DUP1 DUP4 KECCAK256 DUP2 MLOAD PUSH1 0xA0 DUP2 ADD DUP4 MSTORE DUP11 DUP2 MSTORE DUP3 MLOAD PUSH1 0x1F DUP11 ADD DUP6 SWAP1 DIV DUP6 MUL DUP2 ADD DUP6 ADD SWAP1 SWAP4 MSTORE DUP9 DUP4 MSTORE SWAP1 SWAP3 SWAP1 SWAP2 DUP3 DUP3 ADD SWAP2 DUP11 SWAP1 DUP11 SWAP1 DUP2 SWAP1 DUP5 ADD DUP4 DUP3 DUP1 DUP3 DUP5 CALLDATACOPY PUSH1 0x0 SWAP3 ADD SWAP2 SWAP1 SWAP2 MSTORE POP POP POP SWAP1 DUP3 MSTORE POP PUSH1 0x40 DUP1 MLOAD PUSH1 0x20 PUSH1 0x1F DUP10 ADD DUP2 SWAP1 DIV DUP2 MUL DUP3 ADD DUP2 ADD SWAP1 SWAP3 MSTORE DUP8 DUP2 MSTORE SWAP2 DUP2 ADD SWAP2 SWAP1 DUP9 SWAP1 DUP9 SWAP1 DUP2 SWAP1 DUP5 ADD DUP4 DUP3 DUP1 DUP3 DUP5 CALLDATACOPY PUSH1 0x0 SWAP3 ADD SWAP2 SWAP1 SWAP2 MSTORE POP POP POP SWAP1 DUP3 MSTORE POP PUSH1 0x20 DUP2 ADD DUP6 SWAP1 MSTORE PUSH1 0x1 PUSH1 0x40 SWAP1 SWAP2 ADD MSTORE PUSH1 0x3 DUP3 ADD DUP1 SLOAD DUP11 SWAP1 DUP2 LT PUSH2 0x8BC JUMPI PUSH2 0x8BC PUSH2 0x366F JUMP JUMPDEST SWAP1 PUSH1 0x0 MSTORE PUSH1 0x20 PUSH1 0x0 KECCAK256 SWAP1 PUSH1 0x5 MUL ADD PUSH1 0x0 DUP3 ADD MLOAD DUP2 PUSH1 0x0 ADD SSTORE PUSH1 0x20 DUP3 ADD MLOAD DUP2 PUSH1 0x1 ADD SWAP1 DUP2 PUSH2 0x8E9 SWAP2 SWAP1 PUSH2 0x3724 JUMP JUMPDEST POP PUSH1 0x40 DUP3 ADD MLOAD PUSH1 0x2 DUP3 ADD SWAP1 PUSH2 0x8FE SWAP1 DUP3 PUSH2 0x3724 JUMP JUMPDEST POP PUSH1 0x60 DUP3 ADD MLOAD PUSH1 0x3 DUP3 ADD SSTORE PUSH1 0x80 SWAP1 SWAP2 ADD MLOAD PUSH1 0x4 SWAP1 SWAP2 ADD DUP1 SLOAD PUSH1 0xFF NOT AND SWAP2 ISZERO ISZERO SWAP2 SWAP1 SWAP2 OR SWAP1 SSTORE POP SWAP6 SWAP7 SWAP6 POP POP POP POP POP POP JUMP JUMPDEST PUSH1 0x0 PUSH1 0x6 DUP6 DUP2 SLOAD DUP2 LT PUSH2 0x944 JUMPI PUSH2 0x944 PUSH2 0x366F JUMP JUMPDEST SWAP1 PUSH1 0x0 MSTORE PUSH1 0x20 PUSH1 0x0 KECCAK256 SWAP1 PUSH1 0xA MUL ADD SWAP1 POP DUP5 DUP2 PUSH1 0x0 ADD SLOAD EQ PUSH2 0x980 JUMPI PUSH1 0x40 MLOAD PUSH3 0x461BCD PUSH1 0xE5 SHL DUP2 MSTORE PUSH1 0x4 ADD PUSH2 0x977 SWAP1 PUSH2 0x37E3 JUMP JUMPDEST PUSH1 0x40 MLOAD DUP1 SWAP2 SUB SWAP1 REVERT JUMPDEST PUSH1 0x2 DUP2 ADD SLOAD PUSH1 0x1 PUSH1 0x1 PUSH1 0xA0 SHL SUB AND CALLER EQ PUSH2 0xA02 JUMPI PUSH1 0x40 MLOAD PUSH3 0x461BCD PUSH1 0xE5 SHL DUP2 MSTORE PUSH1 0x20 PUSH1 0x4 DUP3 ADD MSTORE PUSH1 0x37 PUSH1 0x24 DUP3 ADD MSTORE PUSH32 0x4F6E6C792074686520636C69656E742077686F20706C6163656420746865206F PUSH1 0x44 DUP3 ADD MSTORE PUSH32 0x726465722063616E206C65617665206120726576696577000000000000000000 PUSH1 0x64 DUP3 ADD MSTORE PUSH1 0x84 ADD PUSH2 0x977 JUMP JUMPDEST PUSH1 0x5 PUSH1 0x9 DUP3 ADD SLOAD PUSH1 0xFF AND PUSH1 0x6 DUP2 GT ISZERO PUSH2 0xA1D JUMPI PUSH2 0xA1D PUSH2 0x33C3 JUMP JUMPDEST EQ PUSH2 0xA78 JUMPI PUSH1 0x40 MLOAD PUSH3 0x461BCD PUSH1 0xE5 SHL DUP2 MSTORE PUSH1 0x20 PUSH1 0x4 DUP3 ADD MSTORE PUSH1 0x25 PUSH1 0x24 DUP3 ADD MSTORE PUSH32 0x4F6E6C792064656C697665726564206F72646572732063616E20626520726576 PUSH1 0x44 DUP3 ADD MSTORE PUSH5 0x1A595DD959 PUSH1 0xDA SHL PUSH1 0x64 DUP3 ADD MSTORE PUSH1 0x84 ADD PUSH2 0x977 JUMP JUMPDEST PUSH1 0x40 MLOAD DUP1 PUSH1 0x60 ADD PUSH1 0x40 MSTORE DUP1 DUP7 DUP2 MSTORE PUSH1 0x20 ADD DUP6 DUP2 MSTORE PUSH1 0x20 ADD DUP5 DUP5 DUP1 DUP1 PUSH1 0x1F ADD PUSH1 0x20 DUP1 SWAP2 DIV MUL PUSH1 0x20 ADD PUSH1 0x40 MLOAD SWAP1 DUP2 ADD PUSH1 0x40 MSTORE DUP1 SWAP4 SWAP3 SWAP2 SWAP1 DUP2 DUP2 MSTORE PUSH1 0x20 ADD DUP4 DUP4 DUP1 DUP3 DUP5 CALLDATACOPY PUSH1 0x0 SWAP3 ADD DUP3 SWAP1 MSTORE POP SWAP4 SWAP1 SWAP5 MSTORE POP POP DUP8 DUP2 MSTORE PUSH1 0x3 PUSH1 0x20 SWAP1 DUP2 MSTORE PUSH1 0x40 SWAP2 DUP3 SWAP1 KECCAK256 DUP5 MLOAD DUP2 SSTORE SWAP1 DUP5 ADD MLOAD PUSH1 0x1 DUP3 ADD SSTORE SWAP1 DUP4 ADD MLOAD SWAP1 SWAP2 POP PUSH1 0x2 DUP3 ADD SWAP1 PUSH2 0xAFA SWAP1 DUP3 PUSH2 0x3724 JUMP JUMPDEST POP POP POP POP POP POP POP POP JUMP JUMPDEST PUSH1 0x0 PUSH1 0x6 DUP3 DUP2 SLOAD DUP2 LT PUSH2 0xB19 JUMPI PUSH2 0xB19 PUSH2 0x366F JUMP JUMPDEST SWAP1 PUSH1 0x0 MSTORE PUSH1 0x20 PUSH1 0x0 KECCAK256 SWAP1 PUSH1 0xA MUL ADD SWAP1 POP DUP2 DUP2 PUSH1 0x0 ADD SLOAD EQ PUSH2 0xB4C JUMPI PUSH1 0x40 MLOAD PUSH3 0x461BCD PUSH1 0xE5 SHL DUP2 MSTORE PUSH1 0x4 ADD PUSH2 0x977 SWAP1 PUSH2 0x37E3 JUMP JUMPDEST PUSH1 0x3 PUSH1 0x9 DUP3 ADD SLOAD PUSH1 0xFF AND PUSH1 0x6 DUP2 GT ISZERO PUSH2 0xB67 JUMPI PUSH2 0xB67 PUSH2 0x33C3 JUMP JUMPDEST EQ PUSH2 0xB71 JUMPI PUSH1 0x0 DUP1 REVERT JUMPDEST PUSH1 0x3 DUP2 ADD SLOAD PUSH1 0x1 PUSH1 0x1 PUSH1 0xA0 SHL SUB AND CALLER EQ PUSH2 0xBE9 JUMPI PUSH1 0x40 MLOAD PUSH3 0x461BCD PUSH1 0xE5 SHL DUP2 MSTORE PUSH1 0x20 PUSH1 0x4 DUP3 ADD MSTORE PUSH1 0x33 PUSH1 0x24 DUP3 ADD MSTORE PUSH32 0x4F72646572206D7573742062652064656C69766572656420627920636F757269 PUSH1 0x44 DUP3 ADD MSTORE PUSH19 0x195C881D1A185D081858D8D95C1D1959081A5D PUSH1 0x6A SHL PUSH1 0x64 DUP3 ADD MSTORE PUSH1 0x84 ADD PUSH2 0x977 JUMP JUMPDEST PUSH1 0x9 DUP2 ADD DUP1 SLOAD PUSH1 0x4 SWAP2 SWAP1 PUSH1 0xFF NOT AND PUSH1 0x1 DUP4 JUMPDEST MUL OR SWAP1 SSTORE POP POP POP JUMP JUMPDEST PUSH1 0x0 DUP1 PUSH1 0xA PUSH1 0x0 SWAP1 SLOAD SWAP1 PUSH2 0x100 EXP SWAP1 DIV PUSH1 0x1 PUSH1 0x1 PUSH1 0xA0 SHL SUB AND PUSH1 0x1 PUSH1 0x1 PUSH1 0xA0 SHL SUB AND PUSH4 0xFEAF968C PUSH1 0x40 MLOAD DUP2 PUSH4 0xFFFFFFFF AND PUSH1 0xE0 SHL DUP2 MSTORE PUSH1 0x4 ADD PUSH1 0xA0 PUSH1 0x40 MLOAD DUP1 DUP4 SUB DUP2 DUP7 GAS STATICCALL ISZERO DUP1 ISZERO PUSH2 0xC5A JUMPI RETURNDATASIZE PUSH1 0x0 DUP1 RETURNDATACOPY RETURNDATASIZE PUSH1 0x0 REVERT JUMPDEST POP POP POP POP PUSH1 0x40 MLOAD RETURNDATASIZE PUSH1 0x1F NOT PUSH1 0x1F DUP3 ADD AND DUP3 ADD DUP1 PUSH1 0x40 MSTORE POP DUP2 ADD SWAP1 PUSH2 0xC7E SWAP2 SWAP1 PUSH2 0x383F JUMP JUMPDEST POP POP POP SWAP2 POP POP PUSH1 0x0 PUSH1 0xA PUSH1 0x0 SWAP1 SLOAD SWAP1 PUSH2 0x100 EXP SWAP1 DIV PUSH1 0x1 PUSH1 0x1 PUSH1 0xA0 SHL SUB AND PUSH1 0x1 PUSH1 0x1 PUSH1 0xA0 SHL SUB AND PUSH4 0x313CE567 PUSH1 0x40 MLOAD DUP2 PUSH4 0xFFFFFFFF AND PUSH1 0xE0 SHL DUP2 MSTORE PUSH1 0x4 ADD PUSH1 0x20 PUSH1 0x40 MLOAD DUP1 DUP4 SUB DUP2 DUP7 GAS STATICCALL ISZERO DUP1 ISZERO PUSH2 0xCD9 JUMPI RETURNDATASIZE PUSH1 0x0 DUP1 RETURNDATACOPY RETURNDATASIZE PUSH1 0x0 REVERT JUMPDEST POP POP POP POP PUSH1 0x40 MLOAD RETURNDATASIZE PUSH1 0x1F NOT PUSH1 0x1F DUP3 ADD AND DUP3 ADD DUP1 PUSH1 0x40 MSTORE POP DUP2 ADD SWAP1 PUSH2 0xCFD SWAP2 SWAP1 PUSH2 0x388F JUMP JUMPDEST SWAP1 POP PUSH1 0x0 PUSH2 0xD0F PUSH4 0x3B9ACA00 DUP5 PUSH2 0x38C8 JUMP JUMPDEST PUSH2 0xD1A DUP4 PUSH1 0xA PUSH2 0x39CE JUMP JUMPDEST PUSH2 0xD24 SWAP1 DUP8 PUSH2 0x39DD JUMP JUMPDEST PUSH2 0xD2E SWAP2 SWAP1 PUSH2 0x38C8 JUMP JUMPDEST SWAP6 SWAP5 POP POP POP POP POP JUMP JUMPDEST PUSH1 0x0 PUSH1 0x20 DUP2 SWAP1 MSTORE SWAP1 DUP2 MSTORE PUSH1 0x40 SWAP1 KECCAK256 DUP1 SLOAD PUSH1 0x1 DUP3 ADD DUP1 SLOAD PUSH1 0x1 PUSH1 0x1 PUSH1 0xA0 SHL SUB SWAP1 SWAP3 AND SWAP3 SWAP2 PUSH2 0xD63 SWAP1 PUSH2 0x369B JUMP JUMPDEST DUP1 PUSH1 0x1F ADD PUSH1 0x20 DUP1 SWAP2 DIV MUL PUSH1 0x20 ADD PUSH1 0x40 MLOAD SWAP1 DUP2 ADD PUSH1 0x40 MSTORE DUP1 SWAP3 SWAP2 SWAP1 DUP2 DUP2 MSTORE PUSH1 0x20 ADD DUP3 DUP1 SLOAD PUSH2 0xD8F SWAP1 PUSH2 0x369B JUMP JUMPDEST DUP1 ISZERO PUSH2 0xDDC JUMPI DUP1 PUSH1 0x1F LT PUSH2 0xDB1 JUMPI PUSH2 0x100 DUP1 DUP4 SLOAD DIV MUL DUP4 MSTORE SWAP2 PUSH1 0x20 ADD SWAP2 PUSH2 0xDDC JUMP JUMPDEST DUP3 ADD SWAP2 SWAP1 PUSH1 0x0 MSTORE PUSH1 0x20 PUSH1 0x0 KECCAK256 SWAP1 JUMPDEST DUP2 SLOAD DUP2 MSTORE SWAP1 PUSH1 0x1 ADD SWAP1 PUSH1 0x20 ADD DUP1 DUP4 GT PUSH2 0xDBF JUMPI DUP3 SWAP1 SUB PUSH1 0x1F AND DUP3 ADD SWAP2 JUMPDEST POP POP POP POP POP SWAP1 DUP1 PUSH1 0x2 ADD DUP1 SLOAD PUSH2 0xDF1 SWAP1 PUSH2 0x369B JUMP JUMPDEST DUP1 PUSH1 0x1F ADD PUSH1 0x20 DUP1 SWAP2 DIV MUL PUSH1 0x20 ADD PUSH1 0x40 MLOAD SWAP1 DUP2 ADD PUSH1 0x40 MSTORE DUP1 SWAP3 SWAP2 SWAP1 DUP2 DUP2 MSTORE PUSH1 0x20 ADD DUP3 DUP1 SLOAD PUSH2 0xE1D SWAP1 PUSH2 0x369B JUMP JUMPDEST DUP1 ISZERO PUSH2 0xE6A JUMPI DUP1 PUSH1 0x1F LT PUSH2 0xE3F JUMPI PUSH2 0x100 DUP1 DUP4 SLOAD DIV MUL DUP4 MSTORE SWAP2 PUSH1 0x20 ADD SWAP2 PUSH2 0xE6A JUMP JUMPDEST DUP3 ADD SWAP2 SWAP1 PUSH1 0x0 MSTORE PUSH1 0x20 PUSH1 0x0 KECCAK256 SWAP1 JUMPDEST DUP2 SLOAD DUP2 MSTORE SWAP1 PUSH1 0x1 ADD SWAP1 PUSH1 0x20 ADD DUP1 DUP4 GT PUSH2 0xE4D JUMPI DUP3 SWAP1 SUB PUSH1 0x1F AND DUP3 ADD SWAP2 JUMPDEST POP POP POP POP POP SWAP1 POP DUP4 JUMP JUMPDEST PUSH1 0x60 DUP1 PUSH1 0x0 PUSH1 0x6 DUP5 DUP2 SLOAD DUP2 LT PUSH2 0xE8C JUMPI PUSH2 0xE8C PUSH2 0x366F JUMP JUMPDEST SWAP1 PUSH1 0x0 MSTORE PUSH1 0x20 PUSH1 0x0 KECCAK256 SWAP1 PUSH1 0xA MUL ADD SWAP1 POP DUP4 DUP2 PUSH1 0x0 ADD SLOAD EQ PUSH2 0xEBF JUMPI PUSH1 0x40 MLOAD PUSH3 0x461BCD PUSH1 0xE5 SHL DUP2 MSTORE PUSH1 0x4 ADD PUSH2 0x977 SWAP1 PUSH2 0x37E3 JUMP JUMPDEST PUSH1 0x1 DUP2 ADD SLOAD PUSH1 0x1 PUSH1 0x1 PUSH1 0xA0 SHL SUB AND PUSH1 0x0 SWAP1 DUP2 MSTORE PUSH1 0x20 DUP2 SWAP1 MSTORE PUSH1 0x40 DUP2 KECCAK256 PUSH1 0x4 DUP4 ADD SLOAD SWAP1 SWAP2 SWAP1 PUSH1 0x1 PUSH1 0x1 PUSH1 0x40 SHL SUB DUP2 GT ISZERO PUSH2 0xEFA JUMPI PUSH2 0xEFA PUSH2 0x3685 JUMP JUMPDEST PUSH1 0x40 MLOAD SWAP1 DUP1 DUP3 MSTORE DUP1 PUSH1 0x20 MUL PUSH1 0x20 ADD DUP3 ADD PUSH1 0x40 MSTORE DUP1 ISZERO PUSH2 0xF5F JUMPI DUP2 PUSH1 0x20 ADD JUMPDEST PUSH2 0xF4C PUSH1 0x40 MLOAD DUP1 PUSH1 0xA0 ADD PUSH1 0x40 MSTORE DUP1 PUSH1 0x0 DUP2 MSTORE PUSH1 0x20 ADD PUSH1 0x60 DUP2 MSTORE PUSH1 0x20 ADD PUSH1 0x60 DUP2 MSTORE PUSH1 0x20 ADD PUSH1 0x0 DUP2 MSTORE PUSH1 0x20 ADD PUSH1 0x0 ISZERO ISZERO DUP2 MSTORE POP SWAP1 JUMP JUMPDEST DUP2 MSTORE PUSH1 0x20 ADD SWAP1 PUSH1 0x1 SWAP1 SUB SWAP1 DUP2 PUSH2 0xF18 JUMPI SWAP1 POP JUMPDEST POP SWAP1 POP PUSH1 0x0 JUMPDEST PUSH1 0x4 DUP5 ADD SLOAD DUP2 LT ISZERO PUSH2 0x113E JUMPI PUSH1 0x0 DUP5 PUSH1 0x4 ADD DUP3 DUP2 SLOAD DUP2 LT PUSH2 0xF88 JUMPI PUSH2 0xF88 PUSH2 0x366F JUMP JUMPDEST SWAP1 PUSH1 0x0 MSTORE PUSH1 0x20 PUSH1 0x0 KECCAK256 ADD SLOAD SWAP1 POP DUP4 PUSH1 0x3 ADD DUP2 DUP2 SLOAD DUP2 LT PUSH2 0xFAA JUMPI PUSH2 0xFAA PUSH2 0x366F JUMP JUMPDEST SWAP1 PUSH1 0x0 MSTORE PUSH1 0x20 PUSH1 0x0 KECCAK256 SWAP1 PUSH1 0x5 MUL ADD PUSH1 0x40 MLOAD DUP1 PUSH1 0xA0 ADD PUSH1 0x40 MSTORE SWAP1 DUP2 PUSH1 0x0 DUP3 ADD SLOAD DUP2 MSTORE PUSH1 0x20 ADD PUSH1 0x1 DUP3 ADD DUP1 SLOAD PUSH2 0xFDD SWAP1 PUSH2 0x369B JUMP JUMPDEST DUP1 PUSH1 0x1F ADD PUSH1 0x20 DUP1 SWAP2 DIV MUL PUSH1 0x20 ADD PUSH1 0x40 MLOAD SWAP1 DUP2 ADD PUSH1 0x40 MSTORE DUP1 SWAP3 SWAP2 SWAP1 DUP2 DUP2 MSTORE PUSH1 0x20 ADD DUP3 DUP1 SLOAD PUSH2 0x1009 SWAP1 PUSH2 0x369B JUMP JUMPDEST DUP1 ISZERO PUSH2 0x1056 JUMPI DUP1 PUSH1 0x1F LT PUSH2 0x102B JUMPI PUSH2 0x100 DUP1 DUP4 SLOAD DIV MUL DUP4 MSTORE SWAP2 PUSH1 0x20 ADD SWAP2 PUSH2 0x1056 JUMP JUMPDEST DUP3 ADD SWAP2 SWAP1 PUSH1 0x0 MSTORE PUSH1 0x20 PUSH1 0x0 KECCAK256 SWAP1 JUMPDEST DUP2 SLOAD DUP2 MSTORE SWAP1 PUSH1 0x1 ADD SWAP1 PUSH1 0x20 ADD DUP1 DUP4 GT PUSH2 0x1039 JUMPI DUP3 SWAP1 SUB PUSH1 0x1F AND DUP3 ADD SWAP2 JUMPDEST POP POP POP POP POP DUP2 MSTORE PUSH1 0x20 ADD PUSH1 0x2 DUP3 ADD DUP1 SLOAD PUSH2 0x106F SWAP1 PUSH2 0x369B JUMP JUMPDEST DUP1 PUSH1 0x1F ADD PUSH1 0x20 DUP1 SWAP2 DIV MUL PUSH1 0x20 ADD PUSH1 0x40 MLOAD SWAP1 DUP2 ADD PUSH1 0x40 MSTORE DUP1 SWAP3 SWAP2 SWAP1 DUP2 DUP2 MSTORE PUSH1 0x20 ADD DUP3 DUP1 SLOAD PUSH2 0x109B SWAP1 PUSH2 0x369B JUMP JUMPDEST DUP1 ISZERO PUSH2 0x10E8 JUMPI DUP1 PUSH1 0x1F LT PUSH2 0x10BD JUMPI PUSH2 0x100 DUP1 DUP4 SLOAD DIV MUL DUP4 MSTORE SWAP2 PUSH1 0x20 ADD SWAP2 PUSH2 0x10E8 JUMP JUMPDEST DUP3 ADD SWAP2 SWAP1 PUSH1 0x0 MSTORE PUSH1 0x20 PUSH1 0x0 KECCAK256 SWAP1 JUMPDEST DUP2 SLOAD DUP2 MSTORE SWAP1 PUSH1 0x1 ADD SWAP1 PUSH1 0x20 ADD DUP1 DUP4 GT PUSH2 0x10CB JUMPI DUP3 SWAP1 SUB PUSH1 0x1F AND DUP3 ADD SWAP2 JUMPDEST POP POP POP SWAP2 DUP4 MSTORE POP POP PUSH1 0x3 DUP3 ADD SLOAD PUSH1 0x20 DUP3 ADD MSTORE PUSH1 0x4 SWAP1 SWAP2 ADD SLOAD PUSH1 0xFF AND ISZERO ISZERO PUSH1 0x40 SWAP1 SWAP2 ADD MSTORE DUP4 MLOAD DUP5 SWAP1 DUP5 SWAP1 DUP2 LT PUSH2 0x111F JUMPI PUSH2 0x111F PUSH2 0x366F JUMP JUMPDEST PUSH1 0x20 MUL PUSH1 0x20 ADD ADD DUP2 SWAP1 MSTORE POP POP DUP1 DUP1 PUSH2 0x1136 SWAP1 PUSH2 0x39F4 JUMP JUMPDEST SWAP2 POP POP PUSH2 0xF65 JUMP JUMPDEST POP DUP1 DUP4 PUSH1 0x5 ADD DUP1 DUP1 SLOAD DUP1 PUSH1 0x20 MUL PUSH1 0x20 ADD PUSH1 0x40 MLOAD SWAP1 DUP2 ADD PUSH1 0x40 MSTORE DUP1 SWAP3 SWAP2 SWAP1 DUP2 DUP2 MSTORE PUSH1 0x20 ADD DUP3 DUP1 SLOAD DUP1 ISZERO PUSH2 0x118F JUMPI PUSH1 0x20 MUL DUP3 ADD SWAP2 SWAP1 PUSH1 0x0 MSTORE PUSH1 0x20 PUSH1 0x0 KECCAK256 SWAP1 JUMPDEST DUP2 SLOAD DUP2 MSTORE PUSH1 0x20 ADD SWAP1 PUSH1 0x1 ADD SWAP1 DUP1 DUP4 GT PUSH2 0x117B JUMPI JUMPDEST POP POP POP POP POP SWAP1 POP SWAP5 POP SWAP5 POP POP POP POP SWAP2 POP SWAP2 JUMP JUMPDEST PUSH1 0x1 PUSH1 0x1 PUSH1 0xA0 SHL SUB DUP7 AND PUSH1 0x0 SWAP1 DUP2 MSTORE PUSH1 0x20 DUP2 SWAP1 MSTORE PUSH1 0x40 DUP2 KECCAK256 DUP2 SWAP1 DUP2 DUP1 JUMPDEST DUP9 DUP2 LT ISZERO PUSH2 0x12B3 JUMPI PUSH1 0x3 DUP4 ADD SLOAD DUP11 DUP11 DUP4 DUP2 DUP2 LT PUSH2 0x11DE JUMPI PUSH2 0x11DE PUSH2 0x366F JUMP JUMPDEST SWAP1 POP PUSH1 0x20 MUL ADD CALLDATALOAD LT PUSH2 0x1224 JUMPI PUSH1 0x40 MLOAD PUSH3 0x461BCD PUSH1 0xE5 SHL DUP2 MSTORE PUSH1 0x20 PUSH1 0x4 DUP3 ADD MSTORE PUSH1 0xF PUSH1 0x24 DUP3 ADD MSTORE PUSH15 0x125B9D985B1A59081A5D195B481251 PUSH1 0x8A SHL PUSH1 0x44 DUP3 ADD MSTORE PUSH1 0x64 ADD PUSH2 0x977 JUMP JUMPDEST PUSH1 0x0 DUP4 PUSH1 0x3 ADD DUP12 DUP12 DUP5 DUP2 DUP2 LT PUSH2 0x123C JUMPI PUSH2 0x123C PUSH2 0x366F JUMP JUMPDEST SWAP1 POP PUSH1 0x20 MUL ADD CALLDATALOAD DUP2 SLOAD DUP2 LT PUSH2 0x1253 JUMPI PUSH2 0x1253 PUSH2 0x366F JUMP JUMPDEST SWAP1 PUSH1 0x0 MSTORE PUSH1 0x20 PUSH1 0x0 KECCAK256 SWAP1 PUSH1 0x5 MUL ADD SWAP1 POP DUP9 DUP9 DUP4 DUP2 DUP2 LT PUSH2 0x1275 JUMPI PUSH2 0x1275 PUSH2 0x366F JUMP JUMPDEST SWAP1 POP PUSH1 0x20 MUL ADD CALLDATALOAD PUSH2 0x1289 DUP3 PUSH1 0x3 ADD SLOAD PUSH2 0xC04 JUMP JUMPDEST PUSH2 0x1293 SWAP2 SWAP1 PUSH2 0x39DD JUMP JUMPDEST PUSH2 0x129D SWAP1 DUP5 PUSH2 0x3A0D JUMP JUMPDEST SWAP3 POP POP DUP1 DUP1 PUSH2 0x12AB SWAP1 PUSH2 0x39F4 JUMP JUMPDEST SWAP2 POP POP PUSH2 0x11BF JUMP JUMPDEST POP PUSH1 0x0 PUSH2 0x12BF DUP7 PUSH2 0xC04 JUMP JUMPDEST SWAP2 SWAP12 SWAP2 SWAP11 POP SWAP1 SWAP9 POP POP POP POP POP POP POP POP POP JUMP JUMPDEST PUSH1 0x0 PUSH1 0x6 DUP3 DUP2 SLOAD DUP2 LT PUSH2 0x12E6 JUMPI PUSH2 0x12E6 PUSH2 0x366F JUMP JUMPDEST SWAP1 PUSH1 0x0 MSTORE PUSH1 0x20 PUSH1 0x0 KECCAK256 SWAP1 PUSH1 0xA MUL ADD SWAP1 POP DUP2 DUP2 PUSH1 0x0 ADD SLOAD EQ PUSH2 0x1319 JUMPI PUSH1 0x40 MLOAD PUSH3 0x461BCD PUSH1 0xE5 SHL DUP2 MSTORE PUSH1 0x4 ADD PUSH2 0x977 SWAP1 PUSH2 0x37E3 JUMP JUMPDEST PUSH1 0x1 PUSH1 0x9 DUP3 ADD SLOAD PUSH1 0xFF AND PUSH1 0x6 DUP2 GT ISZERO PUSH2 0x1334 JUMPI PUSH2 0x1334 PUSH2 0x33C3 JUMP JUMPDEST EQ PUSH2 0x138F JUMPI PUSH1 0x40 MLOAD PUSH3 0x461BCD PUSH1 0xE5 SHL DUP2 MSTORE PUSH1 0x20 PUSH1 0x4 DUP3 ADD MSTORE PUSH1 0x25 PUSH1 0x24 DUP3 ADD MSTORE PUSH32 0x4F72646572206D75737420626520696E207468652070726F63657373696E6720 PUSH1 0x44 DUP3 ADD MSTORE PUSH5 0x7374617465 PUSH1 0xD8 SHL PUSH1 0x64 DUP3 ADD MSTORE PUSH1 0x84 ADD PUSH2 0x977 JUMP JUMPDEST PUSH1 0x3 DUP2 ADD DUP1 SLOAD CALLER PUSH1 0x1 PUSH1 0x1 PUSH1 0xA0 SHL SUB NOT SWAP1 SWAP2 AND OR SWAP1 SSTORE PUSH1 0x9 DUP2 ADD DUP1 SLOAD PUSH1 0xFF NOT AND PUSH1 0x2 OR SWAP1 SSTORE PUSH2 0x13BD DUP3 PUSH2 0x2CE9 JUMP JUMPDEST POP POP JUMP JUMPDEST CALLER PUSH1 0x0 DUP2 DUP2 MSTORE PUSH1 0x1 PUSH1 0x20 DUP2 SWAP1 MSTORE PUSH1 0x40 SWAP1 SWAP2 KECCAK256 DUP1 SLOAD PUSH1 0x1 PUSH1 0x1 PUSH1 0xA0 SHL SUB NOT AND SWAP1 SWAP3 OR DUP3 SSTORE DUP2 ADD PUSH2 0x13F1 DUP4 DUP6 DUP4 PUSH2 0x3A20 JUMP JUMPDEST POP POP PUSH1 0x8 DUP1 SLOAD PUSH1 0x1 DUP2 ADD DUP3 SSTORE PUSH1 0x0 SWAP2 SWAP1 SWAP2 MSTORE PUSH32 0xF3F7A9FE364FAAB93B216DA50A3214154F22A0A2B415B23A84C8169E8B636EE3 ADD DUP1 SLOAD PUSH1 0x1 PUSH1 0x1 PUSH1 0xA0 SHL SUB NOT AND CALLER OR SWAP1 SSTORE POP POP JUMP JUMPDEST PUSH1 0x0 PUSH1 0x6 DUP3 DUP2 SLOAD DUP2 LT PUSH2 0x144E JUMPI PUSH2 0x144E PUSH2 0x366F JUMP JUMPDEST SWAP1 PUSH1 0x0 MSTORE PUSH1 0x20 PUSH1 0x0 KECCAK256 SWAP1 PUSH1 0xA MUL ADD SWAP1 POP DUP2 DUP2 PUSH1 0x0 ADD SLOAD EQ PUSH2 0x1481 JUMPI PUSH1 0x40 MLOAD PUSH3 0x461BCD PUSH1 0xE5 SHL DUP2 MSTORE PUSH1 0x4 ADD PUSH2 0x977 SWAP1 PUSH2 0x37E3 JUMP JUMPDEST PUSH1 0x2 DUP2 ADD SLOAD PUSH1 0x1 DUP3 ADD SLOAD PUSH1 0x1 PUSH1 0x1 PUSH1 0xA0 SHL SUB SWAP2 DUP3 AND SWAP2 AND PUSH1 0x0 PUSH1 0x9 DUP5 ADD SLOAD PUSH1 0xFF AND PUSH1 0x6 DUP2 GT ISZERO PUSH2 0x14B3 JUMPI PUSH2 0x14B3 PUSH2 0x33C3 JUMP JUMPDEST EQ DUP1 PUSH2 0x14D7 JUMPI POP PUSH1 0x1 PUSH1 0x9 DUP5 ADD SLOAD PUSH1 0xFF AND PUSH1 0x6 DUP2 GT ISZERO PUSH2 0x14D5 JUMPI PUSH2 0x14D5 PUSH2 0x33C3 JUMP JUMPDEST EQ JUMPDEST DUP1 PUSH2 0x14FA JUMPI POP PUSH1 0x2 PUSH1 0x9 DUP5 ADD SLOAD PUSH1 0xFF AND PUSH1 0x6 DUP2 GT ISZERO PUSH2 0x14F8 JUMPI PUSH2 0x14F8 PUSH2 0x33C3 JUMP JUMPDEST EQ JUMPDEST ISZERO PUSH2 0x1558 JUMPI DUP2 PUSH1 0x1 PUSH1 0x1 PUSH1 0xA0 SHL SUB AND PUSH2 0x8FC DUP5 PUSH1 0x6 ADD SLOAD DUP6 PUSH1 0x7 ADD SLOAD PUSH2 0x1520 SWAP2 SWAP1 PUSH2 0x3A0D JUMP JUMPDEST PUSH1 0x40 MLOAD DUP2 ISZERO SWAP1 SWAP3 MUL SWAP2 PUSH1 0x0 DUP2 DUP2 DUP2 DUP6 DUP9 DUP9 CALL SWAP4 POP POP POP POP PUSH2 0x1553 JUMPI PUSH1 0x40 MLOAD PUSH3 0x461BCD PUSH1 0xE5 SHL DUP2 MSTORE PUSH1 0x4 ADD PUSH2 0x977 SWAP1 PUSH2 0x3AE0 JUMP JUMPDEST PUSH2 0x1723 JUMP JUMPDEST PUSH1 0x3 PUSH1 0x9 DUP5 ADD SLOAD PUSH1 0xFF AND PUSH1 0x6 DUP2 GT ISZERO PUSH2 0x1573 JUMPI PUSH2 0x1573 PUSH2 0x33C3 JUMP JUMPDEST SUB PUSH2 0x1630 JUMPI PUSH1 0x7 DUP4 ADD SLOAD PUSH1 0x40 MLOAD PUSH1 0x1 PUSH1 0x1 PUSH1 0xA0 SHL SUB DUP4 AND SWAP2 DUP1 ISZERO PUSH2 0x8FC MUL SWAP2 PUSH1 0x0 DUP2 DUP2 DUP2 DUP6 DUP9 DUP9 CALL SWAP4 POP POP POP POP PUSH2 0x15EC JUMPI PUSH1 0x40 MLOAD PUSH3 0x461BCD PUSH1 0xE5 SHL DUP2 MSTORE PUSH1 0x20 PUSH1 0x4 DUP3 ADD MSTORE PUSH1 0x1B PUSH1 0x24 DUP3 ADD MSTORE PUSH32 0x4661696C656420746F20726566756E642072657374617572616E740000000000 PUSH1 0x44 DUP3 ADD MSTORE PUSH1 0x64 ADD PUSH2 0x977 JUMP JUMPDEST PUSH1 0x6 DUP4 ADD SLOAD PUSH1 0x40 MLOAD PUSH1 0x1 PUSH1 0x1 PUSH1 0xA0 SHL SUB DUP5 AND SWAP2 DUP1 ISZERO PUSH2 0x8FC MUL SWAP2 PUSH1 0x0 DUP2 DUP2 DUP2 DUP6 DUP9 DUP9 CALL SWAP4 POP POP POP POP PUSH2 0x1553 JUMPI PUSH1 0x40 MLOAD PUSH3 0x461BCD PUSH1 0xE5 SHL DUP2 MSTORE PUSH1 0x4 ADD PUSH2 0x977 SWAP1 PUSH2 0x3AE0 JUMP JUMPDEST PUSH1 0x2 DUP4 ADD SLOAD PUSH1 0x7 DUP5 ADD SLOAD PUSH1 0x40 MLOAD PUSH1 0x1 PUSH1 0x1 PUSH1 0xA0 SHL SUB SWAP3 DUP4 AND SWAP3 DUP5 AND SWAP2 DUP1 ISZERO PUSH2 0x8FC MUL SWAP2 PUSH1 0x0 DUP2 DUP2 DUP2 DUP6 DUP9 DUP9 CALL SWAP4 POP POP POP POP PUSH2 0x16AD JUMPI PUSH1 0x40 MLOAD PUSH3 0x461BCD PUSH1 0xE5 SHL DUP2 MSTORE PUSH1 0x20 PUSH1 0x4 DUP3 ADD MSTORE PUSH1 0x1B PUSH1 0x24 DUP3 ADD MSTORE PUSH32 0x4661696C656420746F20726566756E642072657374617572616E740000000000 PUSH1 0x44 DUP3 ADD MSTORE PUSH1 0x64 ADD PUSH2 0x977 JUMP JUMPDEST PUSH1 0x6 DUP5 ADD SLOAD PUSH1 0x40 MLOAD PUSH1 0x1 PUSH1 0x1 PUSH1 0xA0 SHL SUB DUP4 AND SWAP2 DUP1 ISZERO PUSH2 0x8FC MUL SWAP2 PUSH1 0x0 DUP2 DUP2 DUP2 DUP6 DUP9 DUP9 CALL SWAP4 POP POP POP POP PUSH2 0x1721 JUMPI PUSH1 0x40 MLOAD PUSH3 0x461BCD PUSH1 0xE5 SHL DUP2 MSTORE PUSH1 0x20 PUSH1 0x4 DUP3 ADD MSTORE PUSH1 0x18 PUSH1 0x24 DUP3 ADD MSTORE PUSH32 0x4661696C656420746F20726566756E6420636F75726965720000000000000000 PUSH1 0x44 DUP3 ADD MSTORE PUSH1 0x64 ADD PUSH2 0x977 JUMP JUMPDEST POP JUMPDEST POP POP PUSH1 0x9 ADD DUP1 SLOAD PUSH1 0xFF NOT AND PUSH1 0x6 OR SWAP1 SSTORE POP JUMP JUMPDEST PUSH1 0x1 PUSH1 0x20 DUP2 SWAP1 MSTORE PUSH1 0x0 SWAP2 DUP3 MSTORE PUSH1 0x40 SWAP1 SWAP2 KECCAK256 DUP1 SLOAD SWAP2 DUP2 ADD DUP1 SLOAD PUSH1 0x1 PUSH1 0x1 PUSH1 0xA0 SHL SUB SWAP1 SWAP4 AND SWAP3 PUSH2 0x1763 SWAP1 PUSH2 0x369B JUMP JUMPDEST DUP1 PUSH1 0x1F ADD PUSH1 0x20 DUP1 SWAP2 DIV MUL PUSH1 0x20 ADD PUSH1 0x40 MLOAD SWAP1 DUP2 ADD PUSH1 0x40 MSTORE DUP1 SWAP3 SWAP2 SWAP1 DUP2 DUP2 MSTORE PUSH1 0x20 ADD DUP3 DUP1 SLOAD PUSH2 0x178F SWAP1 PUSH2 0x369B JUMP JUMPDEST DUP1 ISZERO PUSH2 0x17DC JUMPI DUP1 PUSH1 0x1F LT PUSH2 0x17B1 JUMPI PUSH2 0x100 DUP1 DUP4 SLOAD DIV MUL DUP4 MSTORE SWAP2 PUSH1 0x20 ADD SWAP2 PUSH2 0x17DC JUMP JUMPDEST DUP3 ADD SWAP2 SWAP1 PUSH1 0x0 MSTORE PUSH1 0x20 PUSH1 0x0 KECCAK256 SWAP1 JUMPDEST DUP2 SLOAD DUP2 MSTORE SWAP1 PUSH1 0x1 ADD SWAP1 PUSH1 0x20 ADD DUP1 DUP4 GT PUSH2 0x17BF JUMPI DUP3 SWAP1 SUB PUSH1 0x1F AND DUP3 ADD SWAP2 JUMPDEST POP POP POP POP POP SWAP1 POP DUP3 JUMP JUMPDEST CALLER PUSH1 0x0 SWAP1 DUP2 MSTORE PUSH1 0x20 DUP2 DUP2 MSTORE PUSH1 0x40 DUP1 DUP4 KECCAK256 PUSH1 0x3 DUP2 ADD DUP1 SLOAD DUP4 MLOAD PUSH1 0xA0 DUP2 ADD DUP6 MSTORE DUP2 DUP2 MSTORE DUP5 MLOAD PUSH1 0x1F DUP13 ADD DUP8 SWAP1 DIV DUP8 MUL DUP2 ADD DUP8 ADD SWAP1 SWAP6 MSTORE DUP11 DUP6 MSTORE SWAP3 SWAP5 SWAP1 SWAP4 SWAP2 SWAP3 SWAP2 DUP3 DUP3 ADD SWAP2 DUP13 SWAP1 DUP13 SWAP1 DUP2 SWAP1 DUP5 ADD DUP4 DUP3 DUP1 DUP3 DUP5 CALLDATACOPY PUSH1 0x0 SWAP3 ADD SWAP2 SWAP1 SWAP2 MSTORE POP POP POP SWAP1 DUP3 MSTORE POP PUSH1 0x40 DUP1 MLOAD PUSH1 0x20 PUSH1 0x1F DUP12 ADD DUP2 SWAP1 DIV DUP2 MUL DUP3 ADD DUP2 ADD SWAP1 SWAP3 MSTORE DUP10 DUP2 MSTORE SWAP2 DUP2 ADD SWAP2 SWAP1 DUP11 SWAP1 DUP11 SWAP1 DUP2 SWAP1 DUP5 ADD DUP4 DUP3 DUP1 DUP3 DUP5 CALLDATACOPY PUSH1 0x0 SWAP3 ADD DUP3 SWAP1 MSTORE POP SWAP4 DUP6 MSTORE POP POP POP PUSH1 0x20 DUP1 DUP4 ADD DUP10 SWAP1 MSTORE PUSH1 0x1 PUSH1 0x40 SWAP1 SWAP4 ADD DUP4 SWAP1 MSTORE DUP5 SLOAD DUP1 DUP5 ADD DUP7 SSTORE SWAP5 DUP3 MSTORE SWAP1 DUP2 SWAP1 KECCAK256 DUP4 MLOAD PUSH1 0x5 SWAP1 SWAP6 MUL ADD SWAP4 DUP5 SSTORE DUP3 ADD MLOAD SWAP2 SWAP3 SWAP2 SWAP1 DUP3 ADD SWAP1 PUSH2 0x18BD SWAP1 DUP3 PUSH2 0x3724 JUMP JUMPDEST POP PUSH1 0x40 DUP3 ADD MLOAD PUSH1 0x2 DUP3 ADD SWAP1 PUSH2 0x18D2 SWAP1 DUP3 PUSH2 0x3724 JUMP JUMPDEST POP PUSH1 0x60 DUP3 ADD MLOAD PUSH1 0x3 DUP3 ADD SSTORE PUSH1 0x80 SWAP1 SWAP2 ADD MLOAD PUSH1 0x4 SWAP1 SWAP2 ADD DUP1 SLOAD PUSH1 0xFF NOT AND SWAP2 ISZERO ISZERO SWAP2 SWAP1 SWAP2 OR SWAP1 SSTORE SWAP8 SWAP7 POP POP POP POP POP POP POP JUMP JUMPDEST PUSH2 0x1936 PUSH1 0x40 MLOAD DUP1 PUSH1 0xA0 ADD PUSH1 0x40 MSTORE DUP1 PUSH1 0x0 DUP2 MSTORE PUSH1 0x20 ADD PUSH1 0x60 DUP2 MSTORE PUSH1 0x20 ADD PUSH1 0x60 DUP2 MSTORE PUSH1 0x20 ADD PUSH1 0x0 DUP2 MSTORE PUSH1 0x20 ADD PUSH1 0x0 ISZERO ISZERO DUP2 MSTORE POP SWAP1 JUMP JUMPDEST PUSH1 0x1 PUSH1 0x1 PUSH1 0xA0 SHL SUB DUP4 AND PUSH1 0x0 SWAP1 DUP2 MSTORE PUSH1 0x20 DUP2 SWAP1 MSTORE PUSH1 0x40 SWAP1 KECCAK256 PUSH1 0x3 ADD DUP1 SLOAD DUP4 SWAP1 DUP2 LT PUSH2 0x1963 JUMPI PUSH2 0x1963 PUSH2 0x366F JUMP JUMPDEST SWAP1 PUSH1 0x0 MSTORE PUSH1 0x20 PUSH1 0x0 KECCAK256 SWAP1 PUSH1 0x5 MUL ADD PUSH1 0x40 MLOAD DUP1 PUSH1 0xA0 ADD PUSH1 0x40 MSTORE SWAP1 DUP2 PUSH1 0x0 DUP3 ADD SLOAD DUP2 MSTORE PUSH1 0x20 ADD PUSH1 0x1 DUP3 ADD DUP1 SLOAD PUSH2 0x1996 SWAP1 PUSH2 0x369B JUMP JUMPDEST DUP1 PUSH1 0x1F ADD PUSH1 0x20 DUP1 SWAP2 DIV MUL PUSH1 0x20 ADD PUSH1 0x40 MLOAD SWAP1 DUP2 ADD PUSH1 0x40 MSTORE DUP1 SWAP3 SWAP2 SWAP1 DUP2 DUP2 MSTORE PUSH1 0x20 ADD DUP3 DUP1 SLOAD PUSH2 0x19C2 SWAP1 PUSH2 0x369B JUMP JUMPDEST DUP1 ISZERO PUSH2 0x1A0F JUMPI DUP1 PUSH1 0x1F LT PUSH2 0x19E4 JUMPI PUSH2 0x100 DUP1 DUP4 SLOAD DIV MUL DUP4 MSTORE SWAP2 PUSH1 0x20 ADD SWAP2 PUSH2 0x1A0F JUMP JUMPDEST DUP3 ADD SWAP2 SWAP1 PUSH1 0x0 MSTORE PUSH1 0x20 PUSH1 0x0 KECCAK256 SWAP1 JUMPDEST DUP2 SLOAD DUP2 MSTORE SWAP1 PUSH1 0x1 ADD SWAP1 PUSH1 0x20 ADD DUP1 DUP4 GT PUSH2 0x19F2 JUMPI DUP3 SWAP1 SUB PUSH1 0x1F AND DUP3 ADD SWAP2 JUMPDEST POP POP POP POP POP DUP2 MSTORE PUSH1 0x20 ADD PUSH1 0x2 DUP3 ADD DUP1 SLOAD PUSH2 0x1A28 SWAP1 PUSH2 0x369B JUMP JUMPDEST DUP1 PUSH1 0x1F ADD PUSH1 0x20 DUP1 SWAP2 DIV MUL PUSH1 0x20 ADD PUSH1 0x40 MLOAD SWAP1 DUP2 ADD PUSH1 0x40 MSTORE DUP1 SWAP3 SWAP2 SWAP1 DUP2 DUP2 MSTORE PUSH1 0x20 ADD DUP3 DUP1 SLOAD PUSH2 0x1A54 SWAP1 PUSH2 0x369B JUMP JUMPDEST DUP1 ISZERO PUSH2 0x1AA1 JUMPI DUP1 PUSH1 0x1F LT PUSH2 0x1A76 JUMPI PUSH2 0x100 DUP1 DUP4 SLOAD DIV MUL DUP4 MSTORE SWAP2 PUSH1 0x20 ADD SWAP2 PUSH2 0x1AA1 JUMP JUMPDEST DUP3 ADD SWAP2 SWAP1 PUSH1 0x0 MSTORE PUSH1 0x20 PUSH1 0x0 KECCAK256 SWAP1 JUMPDEST DUP2 SLOAD DUP2 MSTORE SWAP1 PUSH1 0x1 ADD SWAP1 PUSH1 0x20 ADD DUP1 DUP4 GT PUSH2 0x1A84 JUMPI DUP3 SWAP1 SUB PUSH1 0x1F AND DUP3 ADD SWAP2 JUMPDEST POP POP POP SWAP2 DUP4 MSTORE POP POP PUSH1 0x3 DUP3 ADD SLOAD PUSH1 0x20 DUP3 ADD MSTORE PUSH1 0x4 SWAP1 SWAP2 ADD SLOAD PUSH1 0xFF AND ISZERO ISZERO PUSH1 0x40 SWAP1 SWAP2 ADD MSTORE SWAP1 POP JUMPDEST SWAP3 SWAP2 POP POP JUMP JUMPDEST PUSH1 0x5 DUP2 DUP2 SLOAD DUP2 LT PUSH2 0x1ADD JUMPI PUSH1 0x0 DUP1 REVERT JUMPDEST PUSH1 0x0 SWAP2 DUP3 MSTORE PUSH1 0x20 SWAP1 SWAP2 KECCAK256 ADD SLOAD SWAP1 POP DUP2 JUMP JUMPDEST PUSH1 0x7 DUP2 DUP2 SLOAD DUP2 LT PUSH2 0x1AFE JUMPI PUSH1 0x0 DUP1 REVERT JUMPDEST PUSH1 0x0 SWAP2 DUP3 MSTORE PUSH1 0x20 SWAP1 SWAP2 KECCAK256 ADD SLOAD PUSH1 0x1 PUSH1 0x1 PUSH1 0xA0 SHL SUB AND SWAP1 POP DUP2 JUMP JUMPDEST CALLER PUSH1 0x0 DUP2 DUP2 MSTORE PUSH1 0x20 DUP2 SWAP1 MSTORE PUSH1 0x40 SWAP1 KECCAK256 DUP1 SLOAD PUSH1 0x1 PUSH1 0x1 PUSH1 0xA0 SHL SUB NOT AND SWAP1 SWAP2 OR DUP2 SSTORE PUSH1 0x1 DUP2 ADD PUSH2 0x1B47 DUP6 DUP8 DUP4 PUSH2 0x3A20 JUMP JUMPDEST POP PUSH1 0x2 DUP2 ADD PUSH2 0x1B57 DUP4 DUP6 DUP4 PUSH2 0x3A20 JUMP JUMPDEST POP POP PUSH1 0x7 DUP1 SLOAD PUSH1 0x1 DUP2 ADD DUP3 SSTORE PUSH1 0x0 SWAP2 SWAP1 SWAP2 MSTORE PUSH32 0xA66CC928B5EDB82AF9BD49922954155AB7B0942694BEA4CE44661D9A8736C688 ADD DUP1 SLOAD PUSH1 0x1 PUSH1 0x1 PUSH1 0xA0 SHL SUB NOT AND CALLER OR SWAP1 SSTORE POP POP POP POP JUMP JUMPDEST PUSH1 0x60 PUSH1 0x0 DUP1 JUMPDEST PUSH1 0x6 SLOAD DUP2 LT ISZERO PUSH2 0x1C23 JUMPI DUP4 PUSH1 0x6 DUP2 GT ISZERO PUSH2 0x1BC3 JUMPI PUSH2 0x1BC3 PUSH2 0x33C3 JUMP JUMPDEST PUSH1 0x6 DUP3 DUP2 SLOAD DUP2 LT PUSH2 0x1BD6 JUMPI PUSH2 0x1BD6 PUSH2 0x366F JUMP JUMPDEST PUSH1 0x0 SWAP2 DUP3 MSTORE PUSH1 0x20 SWAP1 SWAP2 KECCAK256 PUSH1 0x9 PUSH1 0xA SWAP1 SWAP3 MUL ADD ADD SLOAD PUSH1 0xFF AND PUSH1 0x6 DUP2 GT ISZERO PUSH2 0x1BFE JUMPI PUSH2 0x1BFE PUSH2 0x33C3 JUMP JUMPDEST SUB PUSH2 0x1C11 JUMPI DUP2 PUSH2 0x1C0D DUP2 PUSH2 0x39F4 JUMP JUMPDEST SWAP3 POP POP JUMPDEST DUP1 PUSH2 0x1C1B DUP2 PUSH2 0x39F4 JUMP JUMPDEST SWAP2 POP POP PUSH2 0x1BA7 JUMP JUMPDEST POP PUSH1 0x0 DUP2 PUSH1 0x1 PUSH1 0x1 PUSH1 0x40 SHL SUB DUP2 GT ISZERO PUSH2 0x1C3E JUMPI PUSH2 0x1C3E PUSH2 0x3685 JUMP JUMPDEST PUSH1 0x40 MLOAD SWAP1 DUP1 DUP3 MSTORE DUP1 PUSH1 0x20 MUL PUSH1 0x20 ADD DUP3 ADD PUSH1 0x40 MSTORE DUP1 ISZERO PUSH2 0x1C77 JUMPI DUP2 PUSH1 0x20 ADD JUMPDEST PUSH2 0x1C64 PUSH2 0x2DA1 JUMP JUMPDEST DUP2 MSTORE PUSH1 0x20 ADD SWAP1 PUSH1 0x1 SWAP1 SUB SWAP1 DUP2 PUSH2 0x1C5C JUMPI SWAP1 POP JUMPDEST POP SWAP1 POP PUSH1 0x0 DUP1 JUMPDEST PUSH1 0x6 SLOAD DUP2 LT ISZERO PUSH2 0x1EFF JUMPI DUP6 PUSH1 0x6 DUP2 GT ISZERO PUSH2 0x1C9A JUMPI PUSH2 0x1C9A PUSH2 0x33C3 JUMP JUMPDEST PUSH1 0x6 DUP3 DUP2 SLOAD DUP2 LT PUSH2 0x1CAD JUMPI PUSH2 0x1CAD PUSH2 0x366F JUMP JUMPDEST PUSH1 0x0 SWAP2 DUP3 MSTORE PUSH1 0x20 SWAP1 SWAP2 KECCAK256 PUSH1 0x9 PUSH1 0xA SWAP1 SWAP3 MUL ADD ADD SLOAD PUSH1 0xFF AND PUSH1 0x6 DUP2 GT ISZERO PUSH2 0x1CD5 JUMPI PUSH2 0x1CD5 PUSH2 0x33C3 JUMP JUMPDEST SUB PUSH2 0x1EED JUMPI PUSH1 0x6 DUP2 DUP2 SLOAD DUP2 LT PUSH2 0x1CED JUMPI PUSH2 0x1CED PUSH2 0x366F JUMP JUMPDEST PUSH1 0x0 SWAP2 DUP3 MSTORE PUSH1 0x20 SWAP2 DUP3 SWAP1 KECCAK256 PUSH1 0x40 DUP1 MLOAD PUSH2 0x140 DUP2 ADD DUP3 MSTORE PUSH1 0xA SWAP1 SWAP4 MUL SWAP1 SWAP2 ADD DUP1 SLOAD DUP4 MSTORE PUSH1 0x1 DUP2 ADD SLOAD PUSH1 0x1 PUSH1 0x1 PUSH1 0xA0 SHL SUB SWAP1 DUP2 AND DUP5 DUP7 ADD MSTORE PUSH1 0x2 DUP3 ADD SLOAD DUP2 AND DUP5 DUP5 ADD MSTORE PUSH1 0x3 DUP3 ADD SLOAD AND PUSH1 0x60 DUP5 ADD MSTORE PUSH1 0x4 DUP2 ADD DUP1 SLOAD DUP4 MLOAD DUP2 DUP8 MUL DUP2 ADD DUP8 ADD SWAP1 SWAP5 MSTORE DUP1 DUP5 MSTORE SWAP4 SWAP5 SWAP2 SWAP4 PUSH1 0x80 DUP7 ADD SWAP4 SWAP3 DUP4 ADD DUP3 DUP3 DUP1 ISZERO PUSH2 0x1D87 JUMPI PUSH1 0x20 MUL DUP3 ADD SWAP2 SWAP1 PUSH1 0x0 MSTORE PUSH1 0x20 PUSH1 0x0 KECCAK256 SWAP1 JUMPDEST DUP2 SLOAD DUP2 MSTORE PUSH1 0x20 ADD SWAP1 PUSH1 0x1 ADD SWAP1 DUP1 DUP4 GT PUSH2 0x1D73 JUMPI JUMPDEST POP POP POP POP POP DUP2 MSTORE PUSH1 0x20 ADD PUSH1 0x5 DUP3 ADD DUP1 SLOAD DUP1 PUSH1 0x20 MUL PUSH1 0x20 ADD PUSH1 0x40 MLOAD SWAP1 DUP2 ADD PUSH1 0x40 MSTORE DUP1 SWAP3 SWAP2 SWAP1 DUP2 DUP2 MSTORE PUSH1 0x20 ADD DUP3 DUP1 SLOAD DUP1 ISZERO PUSH2 0x1DDF JUMPI PUSH1 0x20 MUL DUP3 ADD SWAP2 SWAP1 PUSH1 0x0 MSTORE PUSH1 0x20 PUSH1 0x0 KECCAK256 SWAP1 JUMPDEST DUP2 SLOAD DUP2 MSTORE PUSH1 0x20 ADD SWAP1 PUSH1 0x1 ADD SWAP1 DUP1 DUP4 GT PUSH2 0x1DCB JUMPI JUMPDEST POP POP POP POP POP DUP2 MSTORE PUSH1 0x20 ADD PUSH1 0x6 DUP3 ADD SLOAD DUP2 MSTORE PUSH1 0x20 ADD PUSH1 0x7 DUP3 ADD SLOAD DUP2 MSTORE PUSH1 0x20 ADD PUSH1 0x8 DUP3 ADD DUP1 SLOAD PUSH2 0x1E0C SWAP1 PUSH2 0x369B JUMP JUMPDEST DUP1 PUSH1 0x1F ADD PUSH1 0x20 DUP1 SWAP2 DIV MUL PUSH1 0x20 ADD PUSH1 0x40 MLOAD SWAP1 DUP2 ADD PUSH1 0x40 MSTORE DUP1 SWAP3 SWAP2 SWAP1 DUP2 DUP2 MSTORE PUSH1 0x20 ADD DUP3 DUP1 SLOAD PUSH2 0x1E38 SWAP1 PUSH2 0x369B JUMP JUMPDEST DUP1 ISZERO PUSH2 0x1E85 JUMPI DUP1 PUSH1 0x1F LT PUSH2 0x1E5A JUMPI PUSH2 0x100 DUP1 DUP4 SLOAD DIV MUL DUP4 MSTORE SWAP2 PUSH1 0x20 ADD SWAP2 PUSH2 0x1E85 JUMP JUMPDEST DUP3 ADD SWAP2 SWAP1 PUSH1 0x0 MSTORE PUSH1 0x20 PUSH1 0x0 KECCAK256 SWAP1 JUMPDEST DUP2 SLOAD DUP2 MSTORE SWAP1 PUSH1 0x1 ADD SWAP1 PUSH1 0x20 ADD DUP1 DUP4 GT PUSH2 0x1E68 JUMPI DUP3 SWAP1 SUB PUSH1 0x1F AND DUP3 ADD SWAP2 JUMPDEST POP POP POP SWAP2 DUP4 MSTORE POP POP PUSH1 0x9 DUP3 ADD SLOAD PUSH1 0x20 SWAP1 SWAP2 ADD SWAP1 PUSH1 0xFF AND PUSH1 0x6 DUP2 GT ISZERO PUSH2 0x1EAC JUMPI PUSH2 0x1EAC PUSH2 0x33C3 JUMP JUMPDEST PUSH1 0x6 DUP2 GT ISZERO PUSH2 0x1EBD JUMPI PUSH2 0x1EBD PUSH2 0x33C3 JUMP JUMPDEST DUP2 MSTORE POP POP DUP4 DUP4 DUP2 MLOAD DUP2 LT PUSH2 0x1ED3 JUMPI PUSH2 0x1ED3 PUSH2 0x366F JUMP JUMPDEST PUSH1 0x20 MUL PUSH1 0x20 ADD ADD DUP2 SWAP1 MSTORE POP DUP2 DUP1 PUSH2 0x1EE9 SWAP1 PUSH2 0x39F4 JUMP JUMPDEST SWAP3 POP POP JUMPDEST DUP1 PUSH2 0x1EF7 DUP2 PUSH2 0x39F4 JUMP JUMPDEST SWAP2 POP POP PUSH2 0x1C7E JUMP JUMPDEST POP SWAP1 SWAP5 SWAP4 POP POP POP POP JUMP JUMPDEST CALLER PUSH1 0x0 SWAP1 DUP2 MSTORE PUSH1 0x20 DUP2 SWAP1 MSTORE PUSH1 0x40 DUP2 KECCAK256 PUSH1 0x3 DUP2 ADD DUP1 SLOAD SWAP2 SWAP3 SWAP2 DUP5 SWAP1 DUP2 LT PUSH2 0x1F31 JUMPI PUSH2 0x1F31 PUSH2 0x366F JUMP JUMPDEST PUSH1 0x0 SWAP2 DUP3 MSTORE PUSH1 0x20 SWAP1 SWAP2 KECCAK256 PUSH1 0x5 SWAP1 SWAP2 MUL ADD PUSH1 0x4 ADD DUP1 SLOAD PUSH1 0xFF NOT AND SWAP2 ISZERO ISZERO SWAP2 SWAP1 SWAP2 OR SWAP1 SSTORE POP POP JUMP JUMPDEST PUSH2 0x1F7B PUSH1 0x40 MLOAD DUP1 PUSH1 0x60 ADD PUSH1 0x40 MSTORE DUP1 PUSH1 0x0 DUP2 MSTORE PUSH1 0x20 ADD PUSH1 0x0 DUP2 MSTORE PUSH1 0x20 ADD PUSH1 0x60 DUP2 MSTORE POP SWAP1 JUMP JUMPDEST PUSH1 0x3 PUSH1 0x0 DUP4 DUP2 MSTORE PUSH1 0x20 ADD SWAP1 DUP2 MSTORE PUSH1 0x20 ADD PUSH1 0x0 KECCAK256 PUSH1 0x40 MLOAD DUP1 PUSH1 0x60 ADD PUSH1 0x40 MSTORE SWAP1 DUP2 PUSH1 0x0 DUP3 ADD SLOAD DUP2 MSTORE PUSH1 0x20 ADD PUSH1 0x1 DUP3 ADD SLOAD DUP2 MSTORE PUSH1 0x20 ADD PUSH1 0x2 DUP3 ADD DUP1 SLOAD PUSH2 0x1FBD SWAP1 PUSH2 0x369B JUMP JUMPDEST DUP1 PUSH1 0x1F ADD PUSH1 0x20 DUP1 SWAP2 DIV MUL PUSH1 0x20 ADD PUSH1 0x40 MLOAD SWAP1 DUP2 ADD PUSH1 0x40 MSTORE DUP1 SWAP3 SWAP2 SWAP1 DUP2 DUP2 MSTORE PUSH1 0x20 ADD DUP3 DUP1 SLOAD PUSH2 0x1FE9 SWAP1 PUSH2 0x369B JUMP JUMPDEST DUP1 ISZERO PUSH2 0x2036 JUMPI DUP1 PUSH1 0x1F LT PUSH2 0x200B JUMPI PUSH2 0x100 DUP1 DUP4 SLOAD DIV MUL DUP4 MSTORE SWAP2 PUSH1 0x20 ADD SWAP2 PUSH2 0x2036 JUMP JUMPDEST DUP3 ADD SWAP2 SWAP1 PUSH1 0x0 MSTORE PUSH1 0x20 PUSH1 0x0 KECCAK256 SWAP1 JUMPDEST DUP2 SLOAD DUP2 MSTORE SWAP1 PUSH1 0x1 ADD SWAP1 PUSH1 0x20 ADD DUP1 DUP4 GT PUSH2 0x2019 JUMPI DUP3 SWAP1 SUB PUSH1 0x1F AND DUP3 ADD SWAP2 JUMPDEST POP POP POP POP POP DUP2 MSTORE POP POP SWAP1 POP SWAP2 SWAP1 POP JUMP JUMPDEST PUSH1 0x0 PUSH1 0x6 DUP3 DUP2 SLOAD DUP2 LT PUSH2 0x205B JUMPI PUSH2 0x205B PUSH2 0x366F JUMP JUMPDEST SWAP1 PUSH1 0x0 MSTORE PUSH1 0x20 PUSH1 0x0 KECCAK256 SWAP1 PUSH1 0xA MUL ADD SWAP1 POP DUP2 DUP2 PUSH1 0x0 ADD SLOAD EQ PUSH2 0x208E JUMPI PUSH1 0x40 MLOAD PUSH3 0x461BCD PUSH1 0xE5 SHL DUP2 MSTORE PUSH1 0x4 ADD PUSH2 0x977 SWAP1 PUSH2 0x37E3 JUMP JUMPDEST PUSH1 0x1 PUSH1 0x9 DUP3 ADD SLOAD PUSH1 0xFF AND PUSH1 0x6 DUP2 GT ISZERO PUSH2 0x20A9 JUMPI PUSH2 0x20A9 PUSH2 0x33C3 JUMP JUMPDEST EQ PUSH2 0x20B3 JUMPI PUSH1 0x0 DUP1 REVERT JUMPDEST PUSH1 0x2 DUP2 ADD SLOAD PUSH1 0x1 PUSH1 0x1 PUSH1 0xA0 SHL SUB AND CALLER EQ PUSH2 0x212A JUMPI PUSH1 0x40 MLOAD PUSH3 0x461BCD PUSH1 0xE5 SHL DUP2 MSTORE PUSH1 0x20 PUSH1 0x4 DUP3 ADD MSTORE PUSH1 0x32 PUSH1 0x24 DUP3 ADD MSTORE PUSH32 0x4F726465722064656C697665727920666565206D75737420626520696E637265 PUSH1 0x44 DUP3 ADD MSTORE PUSH18 0x185CD95908189E481D1A194818DB1A595B9D PUSH1 0x72 SHL PUSH1 0x64 DUP3 ADD MSTORE PUSH1 0x84 ADD PUSH2 0x977 JUMP JUMPDEST CALLVALUE DUP2 PUSH1 0x6 ADD PUSH1 0x0 DUP3 DUP3 SLOAD PUSH2 0x213E SWAP2 SWAP1 PUSH2 0x3A0D JUMP JUMPDEST SWAP1 SWAP2 SSTORE POP POP POP POP JUMP JUMPDEST CALLER PUSH1 0x0 SWAP1 DUP2 MSTORE PUSH1 0x20 DUP2 SWAP1 MSTORE PUSH1 0x40 SWAP1 KECCAK256 PUSH1 0x3 DUP2 ADD DUP1 SLOAD PUSH1 0x1 SWAP2 SWAP1 DUP5 SWAP1 DUP2 LT PUSH2 0x1F31 JUMPI PUSH2 0x1F31 PUSH2 0x366F JUMP JUMPDEST PUSH1 0x6 DUP2 DUP2 SLOAD DUP2 LT PUSH2 0x2180 JUMPI PUSH1 0x0 DUP1 REVERT JUMPDEST PUSH1 0x0 SWAP2 DUP3 MSTORE PUSH1 0x20 SWAP1 SWAP2 KECCAK256 PUSH1 0xA SWAP1 SWAP2 MUL ADD DUP1 SLOAD PUSH1 0x1 DUP3 ADD SLOAD PUSH1 0x2 DUP4 ADD SLOAD PUSH1 0x3 DUP5 ADD SLOAD PUSH1 0x6 DUP6 ADD SLOAD PUSH1 0x7 DUP7 ADD SLOAD PUSH1 0x8 DUP8 ADD DUP1 SLOAD SWAP7 SWAP9 POP PUSH1 0x1 PUSH1 0x1 PUSH1 0xA0 SHL SUB SWAP6 DUP7 AND SWAP8 SWAP5 DUP7 AND SWAP7 SWAP6 SWAP1 SWAP4 AND SWAP5 SWAP2 SWAP4 SWAP1 SWAP3 SWAP1 SWAP2 PUSH2 0x21D8 SWAP1 PUSH2 0x369B JUMP JUMPDEST DUP1 PUSH1 0x1F ADD PUSH1 0x20 DUP1 SWAP2 DIV MUL PUSH1 0x20 ADD PUSH1 0x40 MLOAD SWAP1 DUP2 ADD PUSH1 0x40 MSTORE DUP1 SWAP3 SWAP2 SWAP1 DUP2 DUP2 MSTORE PUSH1 0x20 ADD DUP3 DUP1 SLOAD PUSH2 0x2204 SWAP1 PUSH2 0x369B JUMP JUMPDEST DUP1 ISZERO PUSH2 0x2251 JUMPI DUP1 PUSH1 0x1F LT PUSH2 0x2226 JUMPI PUSH2 0x100 DUP1 DUP4 SLOAD DIV MUL DUP4 MSTORE SWAP2 PUSH1 0x20 ADD SWAP2 PUSH2 0x2251 JUMP JUMPDEST DUP3 ADD SWAP2 SWAP1 PUSH1 0x0 MSTORE PUSH1 0x20 PUSH1 0x0 KECCAK256 SWAP1 JUMPDEST DUP2 SLOAD DUP2 MSTORE SWAP1 PUSH1 0x1 ADD SWAP1 PUSH1 0x20 ADD DUP1 DUP4 GT PUSH2 0x2234 JUMPI DUP3 SWAP1 SUB PUSH1 0x1F AND DUP3 ADD SWAP2 JUMPDEST POP POP POP PUSH1 0x9 SWAP1 SWAP4 ADD SLOAD SWAP2 SWAP3 POP POP PUSH1 0xFF AND DUP9 JUMP JUMPDEST PUSH1 0x1 PUSH1 0x1 PUSH1 0xA0 SHL SUB DUP1 DUP10 AND PUSH1 0x0 SWAP1 DUP2 MSTORE PUSH1 0x20 DUP2 SWAP1 MSTORE PUSH1 0x40 SWAP1 KECCAK256 DUP1 SLOAD SWAP1 SWAP2 AND PUSH2 0x22CE JUMPI PUSH1 0x40 MLOAD PUSH3 0x461BCD PUSH1 0xE5 SHL DUP2 MSTORE PUSH1 0x20 PUSH1 0x4 DUP3 ADD MSTORE PUSH1 0x1A PUSH1 0x24 DUP3 ADD MSTORE PUSH32 0x496E76616C69642072657374617572616E742061646472657373000000000000 PUSH1 0x44 DUP3 ADD MSTORE PUSH1 0x64 ADD PUSH2 0x977 JUMP JUMPDEST PUSH1 0x0 JUMPDEST DUP8 DUP2 LT ISZERO PUSH2 0x238A JUMPI DUP2 PUSH1 0x3 ADD DUP10 DUP10 DUP4 DUP2 DUP2 LT PUSH2 0x22EF JUMPI PUSH2 0x22EF PUSH2 0x366F JUMP JUMPDEST SWAP1 POP PUSH1 0x20 MUL ADD CALLDATALOAD DUP2 SLOAD DUP2 LT PUSH2 0x2306 JUMPI PUSH2 0x2306 PUSH2 0x366F JUMP JUMPDEST PUSH1 0x0 SWAP2 DUP3 MSTORE PUSH1 0x20 SWAP1 SWAP2 KECCAK256 PUSH1 0x4 PUSH1 0x5 SWAP1 SWAP3 MUL ADD ADD SLOAD PUSH1 0xFF AND ISZERO ISZERO PUSH1 0x1 EQ PUSH2 0x237A JUMPI PUSH1 0x40 MLOAD PUSH3 0x461BCD PUSH1 0xE5 SHL DUP2 MSTORE PUSH1 0x20 PUSH1 0x4 DUP3 ADD MSTORE PUSH1 0x23 PUSH1 0x24 DUP3 ADD MSTORE PUSH32 0x4F7264657220636F6E7461696E7320756E617661696C61626C65206974656D73 PUSH1 0x44 DUP3 ADD MSTORE PUSH3 0x171717 PUSH1 0xE9 SHL PUSH1 0x64 DUP3 ADD MSTORE PUSH1 0x84 ADD PUSH2 0x977 JUMP JUMPDEST PUSH2 0x2383 DUP2 PUSH2 0x39F4 JUMP JUMPDEST SWAP1 POP PUSH2 0x22D1 JUMP JUMPDEST POP PUSH1 0x0 DUP1 PUSH2 0x239C DUP12 DUP12 DUP12 DUP12 DUP12 DUP12 PUSH2 0x11A2 JUMP JUMPDEST SWAP1 SWAP3 POP SWAP1 POP PUSH2 0x23AB DUP2 DUP4 PUSH2 0x3A0D JUMP JUMPDEST CALLVALUE LT ISZERO PUSH2 0x23F2 JUMPI PUSH1 0x40 MLOAD PUSH3 0x461BCD PUSH1 0xE5 SHL DUP2 MSTORE PUSH1 0x20 PUSH1 0x4 DUP3 ADD MSTORE PUSH1 0x15 PUSH1 0x24 DUP3 ADD MSTORE PUSH21 0x125B98DBDC9C9958DD08185B5BDD5B9D081C185A59 PUSH1 0x5A SHL PUSH1 0x44 DUP3 ADD MSTORE PUSH1 0x64 ADD PUSH2 0x977 JUMP JUMPDEST PUSH1 0x0 PUSH1 0x6 DUP1 SLOAD SWAP1 POP SWAP1 POP PUSH1 0x6 PUSH1 0x40 MLOAD DUP1 PUSH2 0x140 ADD PUSH1 0x40 MSTORE DUP1 DUP4 DUP2 MSTORE PUSH1 0x20 ADD DUP15 PUSH1 0x1 PUSH1 0x1 PUSH1 0xA0 SHL SUB AND DUP2 MSTORE PUSH1 0x20 ADD CALLER PUSH1 0x1 PUSH1 0x1 PUSH1 0xA0 SHL SUB AND DUP2 MSTORE PUSH1 0x20 ADD PUSH1 0x0 PUSH1 0x1 PUSH1 0x1 PUSH1 0xA0 SHL SUB AND DUP2 MSTORE PUSH1 0x20 ADD DUP14 DUP14 DUP1 DUP1 PUSH1 0x20 MUL PUSH1 0x20 ADD PUSH1 0x40 MLOAD SWAP1 DUP2 ADD PUSH1 0x40 MSTORE DUP1 SWAP4 SWAP3 SWAP2 SWAP1 DUP2 DUP2 MSTORE PUSH1 0x20 ADD DUP4 DUP4 PUSH1 0x20 MUL DUP1 DUP3 DUP5 CALLDATACOPY PUSH1 0x0 SWAP3 ADD SWAP2 SWAP1 SWAP2 MSTORE POP POP POP SWAP1 DUP3 MSTORE POP PUSH1 0x40 DUP1 MLOAD PUSH1 0x20 DUP14 DUP2 MUL DUP3 DUP2 ADD DUP3 ADD SWAP1 SWAP4 MSTORE DUP14 DUP3 MSTORE SWAP3 DUP4 ADD SWAP3 SWAP1 SWAP2 DUP15 SWAP2 DUP15 SWAP2 DUP3 SWAP2 DUP6 ADD SWAP1 DUP5 SWAP1 DUP1 DUP3 DUP5 CALLDATACOPY PUSH1 0x0 SWAP3 ADD SWAP2 SWAP1 SWAP2 MSTORE POP POP POP SWAP1 DUP3 MSTORE POP PUSH1 0x20 DUP1 DUP3 ADD DUP7 SWAP1 MSTORE PUSH1 0x40 DUP1 DUP4 ADD DUP9 SWAP1 MSTORE DUP1 MLOAD PUSH1 0x1F DUP12 ADD DUP4 SWAP1 DIV DUP4 MUL DUP2 ADD DUP4 ADD SWAP1 SWAP2 MSTORE DUP10 DUP2 MSTORE PUSH1 0x60 SWAP1 SWAP3 ADD SWAP2 SWAP1 DUP11 SWAP1 DUP11 SWAP1 DUP2 SWAP1 DUP5 ADD DUP4 DUP3 DUP1 DUP3 DUP5 CALLDATACOPY PUSH1 0x0 SWAP3 ADD DUP3 SWAP1 MSTORE POP SWAP4 DUP6 MSTORE POP POP POP PUSH1 0x20 SWAP2 DUP3 ADD DUP2 SWAP1 MSTORE DUP4 SLOAD PUSH1 0x1 DUP1 DUP3 ADD DUP7 SSTORE SWAP5 DUP3 MSTORE SWAP1 DUP3 SWAP1 KECCAK256 DUP4 MLOAD PUSH1 0xA SWAP1 SWAP3 MUL ADD SWAP1 DUP2 SSTORE DUP3 DUP3 ADD MLOAD SWAP4 DUP2 ADD DUP1 SLOAD PUSH1 0x1 PUSH1 0x1 PUSH1 0xA0 SHL SUB SWAP6 DUP7 AND PUSH1 0x1 PUSH1 0x1 PUSH1 0xA0 SHL SUB NOT SWAP2 DUP3 AND OR SWAP1 SWAP2 SSTORE PUSH1 0x40 DUP5 ADD MLOAD PUSH1 0x2 DUP4 ADD DUP1 SLOAD SWAP2 DUP8 AND SWAP2 DUP4 AND SWAP2 SWAP1 SWAP2 OR SWAP1 SSTORE PUSH1 0x60 DUP5 ADD MLOAD PUSH1 0x3 DUP4 ADD DUP1 SLOAD SWAP2 SWAP1 SWAP7 AND SWAP2 AND OR SWAP1 SWAP4 SSTORE PUSH1 0x80 DUP3 ADD MLOAD DUP1 MLOAD SWAP3 SWAP4 SWAP3 PUSH2 0x2581 SWAP3 PUSH1 0x4 DUP6 ADD SWAP3 ADD SWAP1 PUSH2 0x2E1F JUMP JUMPDEST POP PUSH1 0xA0 DUP3 ADD MLOAD DUP1 MLOAD PUSH2 0x259D SWAP2 PUSH1 0x5 DUP5 ADD SWAP2 PUSH1 0x20 SWAP1 SWAP2 ADD SWAP1 PUSH2 0x2E1F JUMP JUMPDEST POP PUSH1 0xC0 DUP3 ADD MLOAD PUSH1 0x6 DUP3 ADD SSTORE PUSH1 0xE0 DUP3 ADD MLOAD PUSH1 0x7 DUP3 ADD SSTORE PUSH2 0x100 DUP3 ADD MLOAD PUSH1 0x8 DUP3 ADD SWAP1 PUSH2 0x25C7 SWAP1 DUP3 PUSH2 0x3724 JUMP JUMPDEST POP PUSH2 0x120 DUP3 ADD MLOAD PUSH1 0x9 DUP3 ADD DUP1 SLOAD PUSH1 0xFF NOT AND PUSH1 0x1 DUP4 PUSH1 0x6 DUP2 GT ISZERO PUSH2 0x25EC JUMPI PUSH2 0x25EC PUSH2 0x33C3 JUMP JUMPDEST MUL OR SWAP1 SSTORE POP POP POP PUSH1 0x2 PUSH1 0x0 CALLER PUSH1 0x1 PUSH1 0x1 PUSH1 0xA0 SHL SUB AND PUSH1 0x1 PUSH1 0x1 PUSH1 0xA0 SHL SUB AND DUP2 MSTORE PUSH1 0x20 ADD SWAP1 DUP2 MSTORE PUSH1 0x20 ADD PUSH1 0x0 KECCAK256 DUP2 SWAP1 DUP1 PUSH1 0x1 DUP2 SLOAD ADD DUP1 DUP3 SSTORE DUP1 SWAP2 POP POP PUSH1 0x1 SWAP1 SUB SWAP1 PUSH1 0x0 MSTORE PUSH1 0x20 PUSH1 0x0 KECCAK256 ADD PUSH1 0x0 SWAP1 SWAP2 SWAP1 SWAP2 SWAP1 SWAP2 POP SSTORE PUSH1 0x4 PUSH1 0x0 DUP14 PUSH1 0x1 PUSH1 0x1 PUSH1 0xA0 SHL SUB AND PUSH1 0x1 PUSH1 0x1 PUSH1 0xA0 SHL SUB AND DUP2 MSTORE PUSH1 0x20 ADD SWAP1 DUP2 MSTORE PUSH1 0x20 ADD PUSH1 0x0 KECCAK256 DUP2 SWAP1 DUP1 PUSH1 0x1 DUP2 SLOAD ADD DUP1 DUP3 SSTORE DUP1 SWAP2 POP POP PUSH1 0x1 SWAP1 SUB SWAP1 PUSH1 0x0 MSTORE PUSH1 0x20 PUSH1 0x0 KECCAK256 ADD PUSH1 0x0 SWAP1 SWAP2 SWAP1 SWAP2 SWAP1 SWAP2 POP SSTORE POP POP POP POP POP POP POP POP POP POP POP POP JUMP JUMPDEST PUSH1 0x8 DUP2 DUP2 SLOAD DUP2 LT PUSH2 0x1AFE JUMPI PUSH1 0x0 DUP1 REVERT JUMPDEST PUSH1 0x0 PUSH1 0x6 DUP3 DUP2 SLOAD DUP2 LT PUSH2 0x26BE JUMPI PUSH2 0x26BE PUSH2 0x366F JUMP JUMPDEST SWAP1 PUSH1 0x0 MSTORE PUSH1 0x20 PUSH1 0x0 KECCAK256 SWAP1 PUSH1 0xA MUL ADD SWAP1 POP DUP2 DUP2 PUSH1 0x0 ADD SLOAD EQ PUSH2 0x26F1 JUMPI PUSH1 0x40 MLOAD PUSH3 0x461BCD PUSH1 0xE5 SHL DUP2 MSTORE PUSH1 0x4 ADD PUSH2 0x977 SWAP1 PUSH2 0x37E3 JUMP JUMPDEST PUSH1 0x1 DUP2 ADD SLOAD PUSH1 0x1 PUSH1 0x1 PUSH1 0xA0 SHL SUB AND CALLER EQ PUSH2 0x275F JUMPI PUSH1 0x40 MLOAD PUSH3 0x461BCD PUSH1 0xE5 SHL DUP2 MSTORE PUSH1 0x20 PUSH1 0x4 DUP3 ADD MSTORE PUSH1 0x29 PUSH1 0x24 DUP3 ADD MSTORE PUSH32 0x4F6E6C79207468652072657374617572616E742063616E206465636C696E6520 PUSH1 0x44 DUP3 ADD MSTORE PUSH9 0x3A34329037B93232B9 PUSH1 0xB9 SHL PUSH1 0x64 DUP3 ADD MSTORE PUSH1 0x84 ADD PUSH2 0x977 JUMP JUMPDEST PUSH1 0x0 PUSH1 0x9 DUP3 ADD SLOAD PUSH1 0xFF AND PUSH1 0x6 DUP2 GT ISZERO PUSH2 0x277A JUMPI PUSH2 0x277A PUSH2 0x33C3 JUMP JUMPDEST EQ PUSH2 0x27BF JUMPI PUSH1 0x40 MLOAD PUSH3 0x461BCD PUSH1 0xE5 SHL DUP2 MSTORE PUSH1 0x20 PUSH1 0x4 DUP3 ADD MSTORE PUSH1 0x15 PUSH1 0x24 DUP3 ADD MSTORE PUSH21 0x4F72646572206D7573742062652070656E64696E67 PUSH1 0x58 SHL PUSH1 0x44 DUP3 ADD MSTORE PUSH1 0x64 ADD PUSH2 0x977 JUMP JUMPDEST PUSH1 0x2 DUP2 ADD SLOAD PUSH1 0x6 DUP3 ADD SLOAD PUSH1 0x7 DUP4 ADD SLOAD PUSH1 0x1 PUSH1 0x1 PUSH1 0xA0 SHL SUB SWAP1 SWAP3 AND SWAP2 DUP3 SWAP2 PUSH2 0x8FC SWAP2 PUSH2 0x27EA SWAP2 SWAP1 PUSH2 0x3A0D JUMP JUMPDEST PUSH1 0x40 MLOAD DUP2 ISZERO SWAP1 SWAP3 MUL SWAP2 PUSH1 0x0 DUP2 DUP2 DUP2 DUP6 DUP9 DUP9 CALL SWAP4 POP POP POP POP PUSH2 0x281D JUMPI PUSH1 0x40 MLOAD PUSH3 0x461BCD PUSH1 0xE5 SHL DUP2 MSTORE PUSH1 0x4 ADD PUSH2 0x977 SWAP1 PUSH2 0x3AE0 JUMP JUMPDEST POP PUSH1 0x9 ADD DUP1 SLOAD PUSH1 0xFF NOT AND PUSH1 0x6 OR SWAP1 SSTORE POP JUMP JUMPDEST PUSH1 0x2 PUSH1 0x20 MSTORE DUP2 PUSH1 0x0 MSTORE PUSH1 0x40 PUSH1 0x0 KECCAK256 DUP2 DUP2 SLOAD DUP2 LT PUSH2 0x7F2 JUMPI PUSH1 0x0 DUP1 REVERT JUMPDEST PUSH1 0x0 PUSH1 0x6 DUP3 DUP2 SLOAD DUP2 LT PUSH2 0x2860 JUMPI PUSH2 0x2860 PUSH2 0x366F JUMP JUMPDEST SWAP1 PUSH1 0x0 MSTORE PUSH1 0x20 PUSH1 0x0 KECCAK256 SWAP1 PUSH1 0xA MUL ADD SWAP1 POP DUP2 DUP2 PUSH1 0x0 ADD SLOAD EQ PUSH2 0x2893 JUMPI PUSH1 0x40 MLOAD PUSH3 0x461BCD PUSH1 0xE5 SHL DUP2 MSTORE PUSH1 0x4 ADD PUSH2 0x977 SWAP1 PUSH2 0x37E3 JUMP JUMPDEST PUSH1 0x4 PUSH1 0x9 DUP3 ADD SLOAD PUSH1 0xFF AND PUSH1 0x6 DUP2 GT ISZERO PUSH2 0x28AE JUMPI PUSH2 0x28AE PUSH2 0x33C3 JUMP JUMPDEST EQ PUSH2 0x28B8 JUMPI PUSH1 0x0 DUP1 REVERT JUMPDEST PUSH1 0x2 DUP2 ADD SLOAD PUSH1 0x1 PUSH1 0x1 PUSH1 0xA0 SHL SUB AND CALLER EQ PUSH2 0x2927 JUMPI PUSH1 0x40 MLOAD PUSH3 0x461BCD PUSH1 0xE5 SHL DUP2 MSTORE PUSH1 0x20 PUSH1 0x4 DUP3 ADD MSTORE PUSH1 0x2A PUSH1 0x24 DUP3 ADD MSTORE PUSH32 0x4F726465722064656C6976657279206D75737420626520636F6E6669726D6564 PUSH1 0x44 DUP3 ADD MSTORE PUSH10 0x8189E4818DB1A595B9D PUSH1 0xB2 SHL PUSH1 0x64 DUP3 ADD MSTORE PUSH1 0x84 ADD PUSH2 0x977 JUMP JUMPDEST PUSH1 0x9 DUP2 ADD DUP1 SLOAD PUSH1 0x5 SWAP2 SWAP1 PUSH1 0xFF NOT AND PUSH1 0x1 DUP4 PUSH2 0xBFB JUMP JUMPDEST PUSH1 0x3 PUSH1 0x20 MSTORE PUSH1 0x0 SWAP1 DUP2 MSTORE PUSH1 0x40 SWAP1 KECCAK256 DUP1 SLOAD PUSH1 0x1 DUP3 ADD SLOAD PUSH1 0x2 DUP4 ADD DUP1 SLOAD SWAP3 SWAP4 SWAP2 SWAP3 PUSH2 0xDF1 SWAP1 PUSH2 0x369B JUMP JUMPDEST PUSH1 0x0 PUSH1 0x6 DUP3 DUP2 SLOAD DUP2 LT PUSH2 0x297A JUMPI PUSH2 0x297A PUSH2 0x366F JUMP JUMPDEST SWAP1 PUSH1 0x0 MSTORE PUSH1 0x20 PUSH1 0x0 KECCAK256 SWAP1 PUSH1 0xA MUL ADD SWAP1 POP DUP2 DUP2 PUSH1 0x0 ADD SLOAD EQ PUSH2 0x29AD JUMPI PUSH1 0x40 MLOAD PUSH3 0x461BCD PUSH1 0xE5 SHL DUP2 MSTORE PUSH1 0x4 ADD PUSH2 0x977 SWAP1 PUSH2 0x37E3 JUMP JUMPDEST PUSH1 0x1 DUP2 ADD SLOAD PUSH1 0x1 PUSH1 0x1 PUSH1 0xA0 SHL SUB AND CALLER EQ PUSH2 0x2A2F JUMPI PUSH1 0x40 MLOAD PUSH3 0x461BCD PUSH1 0xE5 SHL DUP2 MSTORE PUSH1 0x20 PUSH1 0x4 DUP3 ADD MSTORE PUSH1 0x3E PUSH1 0x24 DUP3 ADD MSTORE PUSH32 0x4F6E6C79207468652072657374617572616E7420666F72207768696368207468 PUSH1 0x44 DUP3 ADD MSTORE PUSH32 0x65206F7264657220776173206D6164652063616E206163636570742069740000 PUSH1 0x64 DUP3 ADD MSTORE PUSH1 0x84 ADD PUSH2 0x977 JUMP JUMPDEST PUSH1 0x0 PUSH1 0x9 DUP3 ADD SLOAD PUSH1 0xFF AND PUSH1 0x6 DUP2 GT ISZERO PUSH2 0x2A4A JUMPI PUSH2 0x2A4A PUSH2 0x33C3 JUMP JUMPDEST EQ PUSH2 0x2AB6 JUMPI PUSH1 0x40 MLOAD PUSH3 0x461BCD PUSH1 0xE5 SHL DUP2 MSTORE PUSH1 0x20 PUSH1 0x4 DUP3 ADD MSTORE PUSH1 0x36 PUSH1 0x24 DUP3 ADD MSTORE PUSH32 0x43616E206F6E6C7920616363657074206F726465727320666F72207768696368 PUSH1 0x44 DUP3 ADD MSTORE PUSH22 0x20746865207374617475732069732050454E44494E47 PUSH1 0x50 SHL PUSH1 0x64 DUP3 ADD MSTORE PUSH1 0x84 ADD PUSH2 0x977 JUMP JUMPDEST PUSH1 0x9 ADD DUP1 SLOAD PUSH1 0xFF NOT AND PUSH1 0x1 SWAP1 DUP2 OR SWAP1 SWAP2 SSTORE PUSH1 0x5 DUP1 SLOAD SWAP2 DUP3 ADD DUP2 SSTORE PUSH1 0x0 MSTORE PUSH32 0x36B6384B5ECA791C62761152D0C79BB0604C104A5FB6F4EB0703F3154BB3DB0 ADD SSTORE JUMP JUMPDEST PUSH1 0x0 DUP1 DUP1 DUP1 JUMPDEST PUSH1 0x1 PUSH1 0x1 PUSH1 0xA0 SHL SUB DUP6 AND PUSH1 0x0 SWAP1 DUP2 MSTORE PUSH1 0x4 PUSH1 0x20 MSTORE PUSH1 0x40 SWAP1 KECCAK256 SLOAD DUP2 LT ISZERO PUSH2 0x2BB1 JUMPI PUSH1 0x1 PUSH1 0x1 PUSH1 0xA0 SHL SUB DUP6 AND PUSH1 0x0 SWAP1 DUP2 MSTORE PUSH1 0x4 PUSH1 0x20 MSTORE PUSH1 0x40 DUP2 KECCAK256 DUP1 SLOAD DUP4 SWAP1 DUP2 LT PUSH2 0x2B48 JUMPI PUSH2 0x2B48 PUSH2 0x366F JUMP JUMPDEST SWAP1 PUSH1 0x0 MSTORE PUSH1 0x20 PUSH1 0x0 KECCAK256 ADD SLOAD SWAP1 POP DUP1 PUSH1 0x3 PUSH1 0x0 DUP4 DUP2 MSTORE PUSH1 0x20 ADD SWAP1 DUP2 MSTORE PUSH1 0x20 ADD PUSH1 0x0 KECCAK256 PUSH1 0x0 ADD SLOAD SUB PUSH2 0x2B9E JUMPI PUSH1 0x0 DUP2 DUP2 MSTORE PUSH1 0x3 PUSH1 0x20 MSTORE PUSH1 0x40 SWAP1 KECCAK256 PUSH1 0x1 ADD SLOAD PUSH2 0x2B8E SWAP1 DUP6 PUSH2 0x3A0D JUMP JUMPDEST SWAP4 POP DUP3 PUSH2 0x2B9A DUP2 PUSH2 0x39F4 JUMP JUMPDEST SWAP4 POP POP JUMPDEST POP DUP1 PUSH2 0x2BA9 DUP2 PUSH2 0x39F4 JUMP JUMPDEST SWAP2 POP POP PUSH2 0x2AFE JUMP JUMPDEST POP DUP1 PUSH1 0x0 SUB PUSH2 0x2BC4 JUMPI POP PUSH1 0x0 SWAP4 SWAP3 POP POP POP JUMP JUMPDEST PUSH2 0x2BCE DUP2 DUP4 PUSH2 0x38C8 JUMP JUMPDEST SWAP5 SWAP4 POP POP POP POP JUMP JUMPDEST PUSH1 0x0 PUSH1 0x6 DUP3 DUP2 SLOAD DUP2 LT PUSH2 0x2BEB JUMPI PUSH2 0x2BEB PUSH2 0x366F JUMP JUMPDEST SWAP1 PUSH1 0x0 MSTORE PUSH1 0x20 PUSH1 0x0 KECCAK256 SWAP1 PUSH1 0xA MUL ADD SWAP1 POP DUP2 DUP2 PUSH1 0x0 ADD SLOAD EQ PUSH2 0x2C1E JUMPI PUSH1 0x40 MLOAD PUSH3 0x461BCD PUSH1 0xE5 SHL DUP2 MSTORE PUSH1 0x4 ADD PUSH2 0x977 SWAP1 PUSH2 0x37E3 JUMP JUMPDEST PUSH1 0x2 PUSH1 0x9 DUP3 ADD SLOAD PUSH1 0xFF AND PUSH1 0x6 DUP2 GT ISZERO PUSH2 0x2C39 JUMPI PUSH2 0x2C39 PUSH2 0x33C3 JUMP JUMPDEST EQ PUSH2 0x2C43 JUMPI PUSH1 0x0 DUP1 REVERT JUMPDEST PUSH1 0x1 DUP2 ADD SLOAD PUSH1 0x1 PUSH1 0x1 PUSH1 0xA0 SHL SUB AND CALLER EQ PUSH2 0x2CD3 JUMPI PUSH1 0x40 MLOAD PUSH3 0x461BCD PUSH1 0xE5 SHL DUP2 MSTORE PUSH1 0x20 PUSH1 0x4 DUP3 ADD MSTORE PUSH1 0x44 PUSH1 0x24 DUP3 ADD DUP2 SWAP1 MSTORE PUSH32 0x4F72646572206D757374206265206D61726B656420726561647920746F206465 SWAP1 DUP3 ADD MSTORE PUSH32 0x6C69766572206279207468652072657374617572616E74206F6620746865206F PUSH1 0x64 DUP3 ADD MSTORE PUSH4 0x393232B9 PUSH1 0xE1 SHL PUSH1 0x84 DUP3 ADD MSTORE PUSH1 0xA4 ADD PUSH2 0x977 JUMP JUMPDEST PUSH1 0x9 DUP2 ADD DUP1 SLOAD PUSH1 0x3 SWAP2 SWAP1 PUSH1 0xFF NOT AND PUSH1 0x1 DUP4 PUSH2 0xBFB JUMP JUMPDEST PUSH1 0x0 JUMPDEST PUSH1 0x5 SLOAD DUP2 LT ISZERO PUSH2 0x13BD JUMPI DUP2 PUSH1 0x5 DUP3 DUP2 SLOAD DUP2 LT PUSH2 0x2D0A JUMPI PUSH2 0x2D0A PUSH2 0x366F JUMP JUMPDEST SWAP1 PUSH1 0x0 MSTORE PUSH1 0x20 PUSH1 0x0 KECCAK256 ADD SLOAD SUB PUSH2 0x2D8F JUMPI PUSH1 0x5 DUP1 SLOAD PUSH2 0x2D2A SWAP1 PUSH1 0x1 SWAP1 PUSH2 0x3B17 JUMP JUMPDEST DUP2 SLOAD DUP2 LT PUSH2 0x2D3A JUMPI PUSH2 0x2D3A PUSH2 0x366F JUMP JUMPDEST SWAP1 PUSH1 0x0 MSTORE PUSH1 0x20 PUSH1 0x0 KECCAK256 ADD SLOAD PUSH1 0x5 DUP3 DUP2 SLOAD DUP2 LT PUSH2 0x2D58 JUMPI PUSH2 0x2D58 PUSH2 0x366F JUMP JUMPDEST PUSH1 0x0 SWAP2 DUP3 MSTORE PUSH1 0x20 SWAP1 SWAP2 KECCAK256 ADD SSTORE PUSH1 0x5 DUP1 SLOAD DUP1 PUSH2 0x2D75 JUMPI PUSH2 0x2D75 PUSH2 0x3B2A JUMP JUMPDEST PUSH1 0x1 SWAP1 SUB DUP2 DUP2 SWAP1 PUSH1 0x0 MSTORE PUSH1 0x20 PUSH1 0x0 KECCAK256 ADD PUSH1 0x0 SWAP1 SSTORE SWAP1 SSTORE POP POP JUMP JUMPDEST DUP1 PUSH2 0x2D99 DUP2 PUSH2 0x39F4 JUMP JUMPDEST SWAP2 POP POP PUSH2 0x2CEC JUMP JUMPDEST PUSH1 0x40 MLOAD DUP1 PUSH2 0x140 ADD PUSH1 0x40 MSTORE DUP1 PUSH1 0x0 DUP2 MSTORE PUSH1 0x20 ADD PUSH1 0x0 PUSH1 0x1 PUSH1 0x1 PUSH1 0xA0 SHL SUB AND DUP2 MSTORE PUSH1 0x20 ADD PUSH1 0x0 PUSH1 0x1 PUSH1 0x1 PUSH1 0xA0 SHL SUB AND DUP2 MSTORE PUSH1 0x20 ADD PUSH1 0x0 PUSH1 0x1 PUSH1 0x1 PUSH1 0xA0 SHL SUB AND DUP2 MSTORE PUSH1 0x20 ADD PUSH1 0x60 DUP2 MSTORE PUSH1 0x20 ADD PUSH1 0x60 DUP2 MSTORE PUSH1 0x20 ADD PUSH1 0x0 DUP2 MSTORE PUSH1 0x20 ADD PUSH1 0x0 DUP2 MSTORE PUSH1 0x20 ADD PUSH1 0x60 DUP2 MSTORE PUSH1 0x20 ADD PUSH1 0x0 PUSH1 0x6 DUP2 GT ISZERO PUSH2 0x2E1A JUMPI PUSH2 0x2E1A PUSH2 0x33C3 JUMP JUMPDEST SWAP1 MSTORE SWAP1 JUMP JUMPDEST DUP3 DUP1 SLOAD DUP3 DUP3 SSTORE SWAP1 PUSH1 0x0 MSTORE PUSH1 0x20 PUSH1 0x0 KECCAK256 SWAP1 DUP2 ADD SWAP3 DUP3 ISZERO PUSH2 0x2E5A JUMPI SWAP2 PUSH1 0x20 MUL DUP3 ADD JUMPDEST DUP3 DUP2 GT ISZERO PUSH2 0x2E5A JUMPI DUP3 MLOAD DUP3 SSTORE SWAP2 PUSH1 0x20 ADD SWAP2 SWAP1 PUSH1 0x1 ADD SWAP1 PUSH2 0x2E3F JUMP JUMPDEST POP PUSH2 0x2E66 SWAP3 SWAP2 POP PUSH2 0x2E6A JUMP JUMPDEST POP SWAP1 JUMP JUMPDEST JUMPDEST DUP1 DUP3 GT ISZERO PUSH2 0x2E66 JUMPI PUSH1 0x0 DUP2 SSTORE PUSH1 0x1 ADD PUSH2 0x2E6B JUMP JUMPDEST DUP1 CALLDATALOAD PUSH1 0x1 PUSH1 0x1 PUSH1 0xA0 SHL SUB DUP2 AND DUP2 EQ PUSH2 0x2E96 JUMPI PUSH1 0x0 DUP1 REVERT JUMPDEST SWAP2 SWAP1 POP JUMP JUMPDEST PUSH1 0x0 DUP1 PUSH1 0x40 DUP4 DUP6 SUB SLT ISZERO PUSH2 0x2EAE JUMPI PUSH1 0x0 DUP1 REVERT JUMPDEST PUSH2 0x2EB7 DUP4 PUSH2 0x2E7F JUMP JUMPDEST SWAP5 PUSH1 0x20 SWAP4 SWAP1 SWAP4 ADD CALLDATALOAD SWAP4 POP POP POP JUMP JUMPDEST PUSH1 0x0 DUP1 DUP4 PUSH1 0x1F DUP5 ADD SLT PUSH2 0x2ED7 JUMPI PUSH1 0x0 DUP1 REVERT JUMPDEST POP DUP2 CALLDATALOAD PUSH1 0x1 PUSH1 0x1 PUSH1 0x40 SHL SUB DUP2 GT ISZERO PUSH2 0x2EEE JUMPI PUSH1 0x0 DUP1 REVERT JUMPDEST PUSH1 0x20 DUP4 ADD SWAP2 POP DUP4 PUSH1 0x20 DUP3 DUP6 ADD ADD GT ISZERO PUSH2 0x2F06 JUMPI PUSH1 0x0 DUP1 REVERT JUMPDEST SWAP3 POP SWAP3 SWAP1 POP JUMP JUMPDEST PUSH1 0x0 DUP1 PUSH1 0x0 DUP1 PUSH1 0x0 DUP1 PUSH1 0x80 DUP8 DUP10 SUB SLT ISZERO PUSH2 0x2F26 JUMPI PUSH1 0x0 DUP1 REVERT JUMPDEST DUP7 CALLDATALOAD SWAP6 POP PUSH1 0x20 DUP8 ADD CALLDATALOAD PUSH1 0x1 PUSH1 0x1 PUSH1 0x40 SHL SUB DUP1 DUP3 GT ISZERO PUSH2 0x2F44 JUMPI PUSH1 0x0 DUP1 REVERT JUMPDEST PUSH2 0x2F50 DUP11 DUP4 DUP12 ADD PUSH2 0x2EC5 JUMP JUMPDEST SWAP1 SWAP8 POP SWAP6 POP PUSH1 0x40 DUP10 ADD CALLDATALOAD SWAP2 POP DUP1 DUP3 GT ISZERO PUSH2 0x2F69 JUMPI PUSH1 0x0 DUP1 REVERT JUMPDEST POP PUSH2 0x2F76 DUP10 DUP3 DUP11 ADD PUSH2 0x2EC5 JUMP JUMPDEST SWAP8 SWAP11 SWAP7 SWAP10 POP SWAP5 SWAP8 SWAP5 SWAP7 SWAP6 PUSH1 0x60 SWAP1 SWAP6 ADD CALLDATALOAD SWAP5 SWAP4 POP POP POP POP JUMP JUMPDEST PUSH1 0x0 DUP1 PUSH1 0x0 DUP1 PUSH1 0x60 DUP6 DUP8 SUB SLT ISZERO PUSH2 0x2FA4 JUMPI PUSH1 0x0 DUP1 REVERT JUMPDEST DUP5 CALLDATALOAD SWAP4 POP PUSH1 0x20 DUP6 ADD CALLDATALOAD SWAP3 POP PUSH1 0x40 DUP6 ADD CALLDATALOAD PUSH1 0x1 PUSH1 0x1 PUSH1 0x40 SHL SUB DUP2 GT ISZERO PUSH2 0x2FC8 JUMPI PUSH1 0x0 DUP1 REVERT JUMPDEST PUSH2 0x2FD4 DUP8 DUP3 DUP9 ADD PUSH2 0x2EC5 JUMP JUMPDEST SWAP6 SWAP9 SWAP5 SWAP8 POP SWAP6 POP POP POP POP JUMP JUMPDEST PUSH1 0x0 PUSH1 0x20 DUP3 DUP5 SUB SLT ISZERO PUSH2 0x2FF2 JUMPI PUSH1 0x0 DUP1 REVERT JUMPDEST POP CALLDATALOAD SWAP2 SWAP1 POP JUMP JUMPDEST PUSH1 0x0 PUSH1 0x20 DUP3 DUP5 SUB SLT ISZERO PUSH2 0x300B JUMPI PUSH1 0x0 DUP1 REVERT JUMPDEST PUSH2 0x3014 DUP3 PUSH2 0x2E7F JUMP JUMPDEST SWAP4 SWAP3 POP POP POP JUMP JUMPDEST PUSH1 0x0 DUP2 MLOAD DUP1 DUP5 MSTORE PUSH1 0x0 JUMPDEST DUP2 DUP2 LT ISZERO PUSH2 0x3041 JUMPI PUSH1 0x20 DUP2 DUP6 ADD DUP2 ADD MLOAD DUP7 DUP4 ADD DUP3 ADD MSTORE ADD PUSH2 0x3025 JUMP JUMPDEST POP PUSH1 0x0 PUSH1 0x20 DUP3 DUP7 ADD ADD MSTORE PUSH1 0x20 PUSH1 0x1F NOT PUSH1 0x1F DUP4 ADD AND DUP6 ADD ADD SWAP2 POP POP SWAP3 SWAP2 POP POP JUMP JUMPDEST PUSH1 0x1 PUSH1 0x1 PUSH1 0xA0 SHL SUB DUP5 AND DUP2 MSTORE PUSH1 0x60 PUSH1 0x20 DUP3 ADD DUP2 SWAP1 MSTORE PUSH1 0x0 SWAP1 PUSH2 0x3085 SWAP1 DUP4 ADD DUP6 PUSH2 0x301B JUMP JUMPDEST DUP3 DUP2 SUB PUSH1 0x40 DUP5 ADD MSTORE PUSH2 0x3097 DUP2 DUP6 PUSH2 0x301B JUMP JUMPDEST SWAP7 SWAP6 POP POP POP POP POP POP JUMP JUMPDEST DUP1 MLOAD DUP3 MSTORE PUSH1 0x0 PUSH1 0x20 DUP3 ADD MLOAD PUSH1 0xA0 PUSH1 0x20 DUP6 ADD MSTORE PUSH2 0x30C0 PUSH1 0xA0 DUP6 ADD DUP3 PUSH2 0x301B JUMP JUMPDEST SWAP1 POP PUSH1 0x40 DUP4 ADD MLOAD DUP5 DUP3 SUB PUSH1 0x40 DUP7 ADD MSTORE PUSH2 0x30D9 DUP3 DUP3 PUSH2 0x301B JUMP JUMPDEST SWAP2 POP POP PUSH1 0x60 DUP4 ADD MLOAD PUSH1 0x60 DUP6 ADD MSTORE PUSH1 0x80 DUP4 ADD MLOAD ISZERO ISZERO PUSH1 0x80 DUP6 ADD MSTORE DUP1 SWAP2 POP POP SWAP3 SWAP2 POP POP JUMP JUMPDEST PUSH1 0x0 DUP2 MLOAD DUP1 DUP5 MSTORE PUSH1 0x20 DUP1 DUP6 ADD SWAP5 POP DUP1 DUP5 ADD PUSH1 0x0 JUMPDEST DUP4 DUP2 LT ISZERO PUSH2 0x312C JUMPI DUP2 MLOAD DUP8 MSTORE SWAP6 DUP3 ADD SWAP6 SWAP1 DUP3 ADD SWAP1 PUSH1 0x1 ADD PUSH2 0x3110 JUMP JUMPDEST POP SWAP5 SWAP6 SWAP5 POP POP POP POP POP JUMP JUMPDEST PUSH1 0x0 PUSH1 0x40 DUP3 ADD PUSH1 0x40 DUP4 MSTORE DUP1 DUP6 MLOAD DUP1 DUP4 MSTORE PUSH1 0x60 DUP6 ADD SWAP2 POP PUSH1 0x60 DUP2 PUSH1 0x5 SHL DUP7 ADD ADD SWAP3 POP PUSH1 0x20 DUP1 DUP9 ADD PUSH1 0x0 JUMPDEST DUP4 DUP2 LT ISZERO PUSH2 0x318E JUMPI PUSH1 0x5F NOT DUP9 DUP8 SUB ADD DUP6 MSTORE PUSH2 0x317C DUP7 DUP4 MLOAD PUSH2 0x30A1 JUMP JUMPDEST SWAP6 POP SWAP4 DUP3 ADD SWAP4 SWAP1 DUP3 ADD SWAP1 PUSH1 0x1 ADD PUSH2 0x3160 JUMP JUMPDEST POP POP DUP6 DUP5 SUB DUP2 DUP8 ADD MSTORE POP POP POP PUSH2 0xD2E DUP2 DUP6 PUSH2 0x30FC JUMP JUMPDEST PUSH1 0x0 DUP1 DUP4 PUSH1 0x1F DUP5 ADD SLT PUSH2 0x31B6 JUMPI PUSH1 0x0 DUP1 REVERT JUMPDEST POP DUP2 CALLDATALOAD PUSH1 0x1 PUSH1 0x1 PUSH1 0x40 SHL SUB DUP2 GT ISZERO PUSH2 0x31CD JUMPI PUSH1 0x0 DUP1 REVERT JUMPDEST PUSH1 0x20 DUP4 ADD SWAP2 POP DUP4 PUSH1 0x20 DUP3 PUSH1 0x5 SHL DUP6 ADD ADD GT ISZERO PUSH2 0x2F06 JUMPI PUSH1 0x0 DUP1 REVERT JUMPDEST PUSH1 0x0 DUP1 PUSH1 0x0 DUP1 PUSH1 0x0 DUP1 PUSH1 0x80 DUP8 DUP10 SUB SLT ISZERO PUSH2 0x3201 JUMPI PUSH1 0x0 DUP1 REVERT JUMPDEST PUSH2 0x320A DUP8 PUSH2 0x2E7F JUMP JUMPDEST SWAP6 POP PUSH1 0x20 DUP8 ADD CALLDATALOAD PUSH1 0x1 PUSH1 0x1 PUSH1 0x40 SHL SUB DUP1 DUP3 GT ISZERO PUSH2 0x3226 JUMPI PUSH1 0x0 DUP1 REVERT JUMPDEST PUSH2 0x3232 DUP11 DUP4 DUP12 ADD PUSH2 0x31A4 JUMP JUMPDEST SWAP1 SWAP8 POP SWAP6 POP PUSH1 0x40 DUP10 ADD CALLDATALOAD SWAP2 POP DUP1 DUP3 GT ISZERO PUSH2 0x324B JUMPI PUSH1 0x0 DUP1 REVERT JUMPDEST POP PUSH2 0x2F76 DUP10 DUP3 DUP11 ADD PUSH2 0x31A4 JUMP JUMPDEST PUSH1 0x0 DUP1 PUSH1 0x20 DUP4 DUP6 SUB SLT ISZERO PUSH2 0x326B JUMPI PUSH1 0x0 DUP1 REVERT JUMPDEST DUP3 CALLDATALOAD PUSH1 0x1 PUSH1 0x1 PUSH1 0x40 SHL SUB DUP2 GT ISZERO PUSH2 0x3281 JUMPI PUSH1 0x0 DUP1 REVERT JUMPDEST PUSH2 0x328D DUP6 DUP3 DUP7 ADD PUSH2 0x2EC5 JUMP JUMPDEST SWAP1 SWAP7 SWAP1 SWAP6 POP SWAP4 POP POP POP POP JUMP JUMPDEST PUSH1 0x1 PUSH1 0x1 PUSH1 0xA0 SHL SUB DUP4 AND DUP2 MSTORE PUSH1 0x40 PUSH1 0x20 DUP3 ADD DUP2 SWAP1 MSTORE PUSH1 0x0 SWAP1 PUSH2 0x2BCE SWAP1 DUP4 ADD DUP5 PUSH2 0x301B JUMP JUMPDEST PUSH1 0x0 DUP1 PUSH1 0x0 DUP1 PUSH1 0x0 PUSH1 0x60 DUP7 DUP9 SUB SLT ISZERO PUSH2 0x32D5 JUMPI PUSH1 0x0 DUP1 REVERT JUMPDEST DUP6 CALLDATALOAD PUSH1 0x1 PUSH1 0x1 PUSH1 0x40 SHL SUB DUP1 DUP3 GT ISZERO PUSH2 0x32EC JUMPI PUSH1 0x0 DUP1 REVERT JUMPDEST PUSH2 0x32F8 DUP10 DUP4 DUP11 ADD PUSH2 0x2EC5 JUMP JUMPDEST SWAP1 SWAP8 POP SWAP6 POP PUSH1 0x20 DUP9 ADD CALLDATALOAD SWAP2 POP DUP1 DUP3 GT ISZERO PUSH2 0x3311 JUMPI PUSH1 0x0 DUP1 REVERT JUMPDEST POP PUSH2 0x331E DUP9 DUP3 DUP10 ADD PUSH2 0x2EC5 JUMP JUMPDEST SWAP7 SWAP10 SWAP6 SWAP9 POP SWAP7 PUSH1 0x40 ADD CALLDATALOAD SWAP5 SWAP4 POP POP POP POP JUMP JUMPDEST PUSH1 0x20 DUP2 MSTORE PUSH1 0x0 PUSH2 0x3014 PUSH1 0x20 DUP4 ADD DUP5 PUSH2 0x30A1 JUMP JUMPDEST PUSH1 0x0 DUP1 PUSH1 0x0 DUP1 PUSH1 0x40 DUP6 DUP8 SUB SLT ISZERO PUSH2 0x3359 JUMPI PUSH1 0x0 DUP1 REVERT JUMPDEST DUP5 CALLDATALOAD PUSH1 0x1 PUSH1 0x1 PUSH1 0x40 SHL SUB DUP1 DUP3 GT ISZERO PUSH2 0x3370 JUMPI PUSH1 0x0 DUP1 REVERT JUMPDEST PUSH2 0x337C DUP9 DUP4 DUP10 ADD PUSH2 0x2EC5 JUMP JUMPDEST SWAP1 SWAP7 POP SWAP5 POP PUSH1 0x20 DUP8 ADD CALLDATALOAD SWAP2 POP DUP1 DUP3 GT ISZERO PUSH2 0x3395 JUMPI PUSH1 0x0 DUP1 REVERT JUMPDEST POP PUSH2 0x2FD4 DUP8 DUP3 DUP9 ADD PUSH2 0x2EC5 JUMP JUMPDEST PUSH1 0x0 PUSH1 0x20 DUP3 DUP5 SUB SLT ISZERO PUSH2 0x33B4 JUMPI PUSH1 0x0 DUP1 REVERT JUMPDEST DUP2 CALLDATALOAD PUSH1 0x7 DUP2 LT PUSH2 0x3014 JUMPI PUSH1 0x0 DUP1 REVERT JUMPDEST PUSH4 0x4E487B71 PUSH1 0xE0 SHL PUSH1 0x0 MSTORE PUSH1 0x21 PUSH1 0x4 MSTORE PUSH1 0x24 PUSH1 0x0 REVERT JUMPDEST PUSH1 0x7 DUP2 LT PUSH2 0x33F7 JUMPI PUSH4 0x4E487B71 PUSH1 0xE0 SHL PUSH1 0x0 MSTORE PUSH1 0x21 PUSH1 0x4 MSTORE PUSH1 0x24 PUSH1 0x0 REVERT JUMPDEST SWAP1 MSTORE JUMP JUMPDEST PUSH1 0x0 PUSH1 0x20 DUP1 DUP4 ADD DUP2 DUP5 MSTORE DUP1 DUP6 MLOAD DUP1 DUP4 MSTORE PUSH1 0x40 SWAP3 POP DUP3 DUP7 ADD SWAP2 POP DUP3 DUP2 PUSH1 0x5 SHL DUP8 ADD ADD DUP5 DUP9 ADD PUSH1 0x0 JUMPDEST DUP4 DUP2 LT ISZERO PUSH2 0x34FA JUMPI PUSH1 0x3F NOT DUP10 DUP5 SUB ADD DUP6 MSTORE DUP2 MLOAD DUP1 MLOAD DUP5 MSTORE DUP8 DUP2 ADD MLOAD PUSH1 0x1 PUSH1 0x1 PUSH1 0xA0 SHL SUB SWAP1 DUP2 AND DUP10 DUP7 ADD MSTORE DUP8 DUP3 ADD MLOAD DUP2 AND DUP9 DUP7 ADD MSTORE PUSH1 0x60 DUP1 DUP4 ADD MLOAD SWAP1 SWAP2 AND SWAP1 DUP6 ADD MSTORE PUSH1 0x80 DUP1 DUP3 ADD MLOAD PUSH2 0x140 DUP3 DUP8 ADD DUP2 SWAP1 MSTORE SWAP2 SWAP1 PUSH2 0x3480 DUP4 DUP9 ADD DUP3 PUSH2 0x30FC JUMP JUMPDEST SWAP3 POP POP POP PUSH1 0xA0 DUP1 DUP4 ADD MLOAD DUP7 DUP4 SUB DUP3 DUP9 ADD MSTORE PUSH2 0x349B DUP4 DUP3 PUSH2 0x30FC JUMP JUMPDEST SWAP3 POP POP POP PUSH1 0xC0 DUP1 DUP4 ADD MLOAD DUP2 DUP8 ADD MSTORE POP PUSH1 0xE0 DUP1 DUP4 ADD MLOAD DUP2 DUP8 ADD MSTORE POP PUSH2 0x100 DUP1 DUP4 ADD MLOAD DUP7 DUP4 SUB DUP3 DUP9 ADD MSTORE PUSH2 0x34CD DUP4 DUP3 PUSH2 0x301B JUMP JUMPDEST SWAP3 POP POP POP PUSH2 0x120 DUP1 DUP4 ADD MLOAD SWAP3 POP PUSH2 0x34E6 DUP2 DUP8 ADD DUP5 PUSH2 0x33D9 JUMP JUMPDEST POP SWAP6 DUP9 ADD SWAP6 SWAP4 POP POP SWAP1 DUP7 ADD SWAP1 PUSH1 0x1 ADD PUSH2 0x3422 JUMP JUMPDEST POP SWAP1 SWAP9 SWAP8 POP POP POP POP POP POP POP POP JUMP JUMPDEST PUSH1 0x20 DUP2 MSTORE DUP2 MLOAD PUSH1 0x20 DUP3 ADD MSTORE PUSH1 0x20 DUP3 ADD MLOAD PUSH1 0x40 DUP3 ADD MSTORE PUSH1 0x0 PUSH1 0x40 DUP4 ADD MLOAD PUSH1 0x60 DUP1 DUP5 ADD MSTORE PUSH2 0x2BCE PUSH1 0x80 DUP5 ADD DUP3 PUSH2 0x301B JUMP JUMPDEST DUP9 DUP2 MSTORE PUSH1 0x1 PUSH1 0x1 PUSH1 0xA0 SHL SUB DUP9 DUP2 AND PUSH1 0x20 DUP4 ADD MSTORE DUP8 DUP2 AND PUSH1 0x40 DUP4 ADD MSTORE DUP7 AND PUSH1 0x60 DUP3 ADD MSTORE PUSH1 0x80 DUP2 ADD DUP6 SWAP1 MSTORE PUSH1 0xA0 DUP2 ADD DUP5 SWAP1 MSTORE PUSH2 0x100 PUSH1 0xC0 DUP3 ADD DUP2 SWAP1 MSTORE PUSH1 0x0 SWAP1 PUSH2 0x3580 DUP4 DUP3 ADD DUP7 PUSH2 0x301B JUMP JUMPDEST SWAP2 POP POP PUSH2 0x3590 PUSH1 0xE0 DUP4 ADD DUP5 PUSH2 0x33D9 JUMP JUMPDEST SWAP10 SWAP9 POP POP POP POP POP POP POP POP POP JUMP JUMPDEST PUSH1 0x0 DUP1 PUSH1 0x0 DUP1 PUSH1 0x0 DUP1 PUSH1 0x0 DUP1 PUSH1 0xA0 DUP10 DUP12 SUB SLT ISZERO PUSH2 0x35B9 JUMPI PUSH1 0x0 DUP1 REVERT JUMPDEST PUSH2 0x35C2 DUP10 PUSH2 0x2E7F JUMP JUMPDEST SWAP8 POP PUSH1 0x20 DUP10 ADD CALLDATALOAD PUSH1 0x1 PUSH1 0x1 PUSH1 0x40 SHL SUB DUP1 DUP3 GT ISZERO PUSH2 0x35DE JUMPI PUSH1 0x0 DUP1 REVERT JUMPDEST PUSH2 0x35EA DUP13 DUP4 DUP14 ADD PUSH2 0x31A4 JUMP JUMPDEST SWAP1 SWAP10 POP SWAP8 POP PUSH1 0x40 DUP12 ADD CALLDATALOAD SWAP2 POP DUP1 DUP3 GT ISZERO PUSH2 0x3603 JUMPI PUSH1 0x0 DUP1 REVERT JUMPDEST PUSH2 0x360F DUP13 DUP4 DUP14 ADD PUSH2 0x31A4 JUMP JUMPDEST SWAP1 SWAP8 POP SWAP6 POP PUSH1 0x60 DUP12 ADD CALLDATALOAD SWAP5 POP PUSH1 0x80 DUP12 ADD CALLDATALOAD SWAP2 POP DUP1 DUP3 GT ISZERO PUSH2 0x362F JUMPI PUSH1 0x0 DUP1 REVERT JUMPDEST POP PUSH2 0x363C DUP12 DUP3 DUP13 ADD PUSH2 0x2EC5 JUMP JUMPDEST SWAP10 SWAP13 SWAP9 SWAP12 POP SWAP7 SWAP10 POP SWAP5 SWAP8 SWAP4 SWAP7 SWAP3 SWAP6 SWAP5 POP POP POP JUMP JUMPDEST DUP4 DUP2 MSTORE DUP3 PUSH1 0x20 DUP3 ADD MSTORE PUSH1 0x60 PUSH1 0x40 DUP3 ADD MSTORE PUSH1 0x0 PUSH2 0xD2E PUSH1 0x60 DUP4 ADD DUP5 PUSH2 0x301B JUMP JUMPDEST PUSH4 0x4E487B71 PUSH1 0xE0 SHL PUSH1 0x0 MSTORE PUSH1 0x32 PUSH1 0x4 MSTORE PUSH1 0x24 PUSH1 0x0 REVERT JUMPDEST PUSH4 0x4E487B71 PUSH1 0xE0 SHL PUSH1 0x0 MSTORE PUSH1 0x41 PUSH1 0x4 MSTORE PUSH1 0x24 PUSH1 0x0 REVERT JUMPDEST PUSH1 0x1 DUP2 DUP2 SHR SWAP1 DUP3 AND DUP1 PUSH2 0x36AF JUMPI PUSH1 0x7F DUP3 AND SWAP2 POP JUMPDEST PUSH1 0x20 DUP3 LT DUP2 SUB PUSH2 0x36CF JUMPI PUSH4 0x4E487B71 PUSH1 0xE0 SHL PUSH1 0x0 MSTORE PUSH1 0x22 PUSH1 0x4 MSTORE PUSH1 0x24 PUSH1 0x0 REVERT JUMPDEST POP SWAP2 SWAP1 POP JUMP JUMPDEST PUSH1 0x1F DUP3 GT ISZERO PUSH2 0x371F JUMPI PUSH1 0x0 DUP2 DUP2 MSTORE PUSH1 0x20 DUP2 KECCAK256 PUSH1 0x1F DUP6 ADD PUSH1 0x5 SHR DUP2 ADD PUSH1 0x20 DUP7 LT ISZERO PUSH2 0x36FC JUMPI POP DUP1 JUMPDEST PUSH1 0x1F DUP6 ADD PUSH1 0x5 SHR DUP3 ADD SWAP2 POP JUMPDEST DUP2 DUP2 LT ISZERO PUSH2 0x371B JUMPI DUP3 DUP2 SSTORE PUSH1 0x1 ADD PUSH2 0x3708 JUMP JUMPDEST POP POP POP JUMPDEST POP POP POP JUMP JUMPDEST DUP2 MLOAD PUSH1 0x1 PUSH1 0x1 PUSH1 0x40 SHL SUB DUP2 GT ISZERO PUSH2 0x373D JUMPI PUSH2 0x373D PUSH2 0x3685 JUMP JUMPDEST PUSH2 0x3751 DUP2 PUSH2 0x374B DUP5 SLOAD PUSH2 0x369B JUMP JUMPDEST DUP5 PUSH2 0x36D5 JUMP JUMPDEST PUSH1 0x20 DUP1 PUSH1 0x1F DUP4 GT PUSH1 0x1 DUP2 EQ PUSH2 0x3786 JUMPI PUSH1 0x0 DUP5 ISZERO PUSH2 0x376E JUMPI POP DUP6 DUP4 ADD MLOAD JUMPDEST PUSH1 0x0 NOT PUSH1 0x3 DUP7 SWAP1 SHL SHR NOT AND PUSH1 0x1 DUP6 SWAP1 SHL OR DUP6 SSTORE PUSH2 0x371B JUMP JUMPDEST PUSH1 0x0 DUP6 DUP2 MSTORE PUSH1 0x20 DUP2 KECCAK256 PUSH1 0x1F NOT DUP7 AND SWAP2 JUMPDEST DUP3 DUP2 LT ISZERO PUSH2 0x37B5 JUMPI DUP9 DUP7 ADD MLOAD DUP3 SSTORE SWAP5 DUP5 ADD SWAP5 PUSH1 0x1 SWAP1 SWAP2 ADD SWAP1 DUP5 ADD PUSH2 0x3796 JUMP JUMPDEST POP DUP6 DUP3 LT ISZERO PUSH2 0x37D3 JUMPI DUP8 DUP6 ADD MLOAD PUSH1 0x0 NOT PUSH1 0x3 DUP9 SWAP1 SHL PUSH1 0xF8 AND SHR NOT AND DUP2 SSTORE JUMPDEST POP POP POP POP POP PUSH1 0x1 SWAP1 DUP2 SHL ADD SWAP1 SSTORE POP JUMP JUMPDEST PUSH1 0x20 DUP1 DUP3 MSTORE PUSH1 0x22 SWAP1 DUP3 ADD MSTORE PUSH32 0x4F72646572207769746820676976656E20696420646F6573206E6F7420657869 PUSH1 0x40 DUP3 ADD MSTORE PUSH2 0x1CDD PUSH1 0xF2 SHL PUSH1 0x60 DUP3 ADD MSTORE PUSH1 0x80 ADD SWAP1 JUMP JUMPDEST DUP1 MLOAD PUSH10 0xFFFFFFFFFFFFFFFFFFFF DUP2 AND DUP2 EQ PUSH2 0x2E96 JUMPI PUSH1 0x0 DUP1 REVERT JUMPDEST PUSH1 0x0 DUP1 PUSH1 0x0 DUP1 PUSH1 0x0 PUSH1 0xA0 DUP7 DUP9 SUB SLT ISZERO PUSH2 0x3857 JUMPI PUSH1 0x0 DUP1 REVERT JUMPDEST PUSH2 0x3860 DUP7 PUSH2 0x3825 JUMP JUMPDEST SWAP5 POP PUSH1 0x20 DUP7 ADD MLOAD SWAP4 POP PUSH1 0x40 DUP7 ADD MLOAD SWAP3 POP PUSH1 0x60 DUP7 ADD MLOAD SWAP2 POP PUSH2 0x3883 PUSH1 0x80 DUP8 ADD PUSH2 0x3825 JUMP JUMPDEST SWAP1 POP SWAP3 SWAP6 POP SWAP3 SWAP6 SWAP1 SWAP4 POP JUMP JUMPDEST PUSH1 0x0 PUSH1 0x20 DUP3 DUP5 SUB SLT ISZERO PUSH2 0x38A1 JUMPI PUSH1 0x0 DUP1 REVERT JUMPDEST DUP2 MLOAD PUSH1 0xFF DUP2 AND DUP2 EQ PUSH2 0x3014 JUMPI PUSH1 0x0 DUP1 REVERT JUMPDEST PUSH4 0x4E487B71 PUSH1 0xE0 SHL PUSH1 0x0 MSTORE PUSH1 0x11 PUSH1 0x4 MSTORE PUSH1 0x24 PUSH1 0x0 REVERT JUMPDEST PUSH1 0x0 DUP3 PUSH2 0x38E5 JUMPI PUSH4 0x4E487B71 PUSH1 0xE0 SHL PUSH1 0x0 MSTORE PUSH1 0x12 PUSH1 0x4 MSTORE PUSH1 0x24 PUSH1 0x0 REVERT JUMPDEST POP DIV SWAP1 JUMP JUMPDEST PUSH1 0x1 DUP2 DUP2 JUMPDEST DUP1 DUP6 GT ISZERO PUSH2 0x3925 JUMPI DUP2 PUSH1 0x0 NOT DIV DUP3 GT ISZERO PUSH2 0x390B JUMPI PUSH2 0x390B PUSH2 0x38B2 JUMP JUMPDEST DUP1 DUP6 AND ISZERO PUSH2 0x3918 JUMPI SWAP2 DUP2 MUL SWAP2 JUMPDEST SWAP4 DUP5 SHR SWAP4 SWAP1 DUP1 MUL SWAP1 PUSH2 0x38EF JUMP JUMPDEST POP SWAP3 POP SWAP3 SWAP1 POP JUMP JUMPDEST PUSH1 0x0 DUP3 PUSH2 0x393C JUMPI POP PUSH1 0x1 PUSH2 0x1AC7 JUMP JUMPDEST DUP2 PUSH2 0x3949 JUMPI POP PUSH1 0x0 PUSH2 0x1AC7 JUMP JUMPDEST DUP2 PUSH1 0x1 DUP2 EQ PUSH2 0x395F JUMPI PUSH1 0x2 DUP2 EQ PUSH2 0x3969 JUMPI PUSH2 0x3985 JUMP JUMPDEST PUSH1 0x1 SWAP2 POP POP PUSH2 0x1AC7 JUMP JUMPDEST PUSH1 0xFF DUP5 GT ISZERO PUSH2 0x397A JUMPI PUSH2 0x397A PUSH2 0x38B2 JUMP JUMPDEST POP POP PUSH1 0x1 DUP3 SHL PUSH2 0x1AC7 JUMP JUMPDEST POP PUSH1 0x20 DUP4 LT PUSH2 0x133 DUP4 LT AND PUSH1 0x4E DUP5 LT PUSH1 0xB DUP5 LT AND OR ISZERO PUSH2 0x39A8 JUMPI POP DUP2 DUP2 EXP PUSH2 0x1AC7 JUMP JUMPDEST PUSH2 0x39B2 DUP4 DUP4 PUSH2 0x38EA JUMP JUMPDEST DUP1 PUSH1 0x0 NOT DIV DUP3 GT ISZERO PUSH2 0x39C6 JUMPI PUSH2 0x39C6 PUSH2 0x38B2 JUMP JUMPDEST MUL SWAP4 SWAP3 POP POP POP JUMP JUMPDEST PUSH1 0x0 PUSH2 0x3014 PUSH1 0xFF DUP5 AND DUP4 PUSH2 0x392D JUMP JUMPDEST DUP1 DUP3 MUL DUP2 ISZERO DUP3 DUP3 DIV DUP5 EQ OR PUSH2 0x1AC7 JUMPI PUSH2 0x1AC7 PUSH2 0x38B2 JUMP JUMPDEST PUSH1 0x0 PUSH1 0x1 DUP3 ADD PUSH2 0x3A06 JUMPI PUSH2 0x3A06 PUSH2 0x38B2 JUMP JUMPDEST POP PUSH1 0x1 ADD SWAP1 JUMP JUMPDEST DUP1 DUP3 ADD DUP1 DUP3 GT ISZERO PUSH2 0x1AC7 JUMPI PUSH2 0x1AC7 PUSH2 0x38B2 JUMP JUMPDEST PUSH1 0x1 PUSH1 0x1 PUSH1 0x40 SHL SUB DUP4 GT ISZERO PUSH2 0x3A37 JUMPI PUSH2 0x3A37 PUSH2 0x3685 JUMP JUMPDEST PUSH2 0x3A4B DUP4 PUSH2 0x3A45 DUP4 SLOAD PUSH2 0x369B JUMP JUMPDEST DUP4 PUSH2 0x36D5 JUMP JUMPDEST PUSH1 0x0 PUSH1 0x1F DUP5 GT PUSH1 0x1 DUP2 EQ PUSH2 0x3A7F JUMPI PUSH1 0x0 DUP6 ISZERO PUSH2 0x3A67 JUMPI POP DUP4 DUP3 ADD CALLDATALOAD JUMPDEST PUSH1 0x0 NOT PUSH1 0x3 DUP8 SWAP1 SHL SHR NOT AND PUSH1 0x1 DUP7 SWAP1 SHL OR DUP4 SSTORE PUSH2 0x3AD9 JUMP JUMPDEST PUSH1 0x0 DUP4 DUP2 MSTORE PUSH1 0x20 SWAP1 KECCAK256 PUSH1 0x1F NOT DUP7 AND SWAP1 DUP4 JUMPDEST DUP3 DUP2 LT ISZERO PUSH2 0x3AB0 JUMPI DUP7 DUP6 ADD CALLDATALOAD DUP3 SSTORE PUSH1 0x20 SWAP5 DUP6 ADD SWAP5 PUSH1 0x1 SWAP1 SWAP3 ADD SWAP2 ADD PUSH2 0x3A90 JUMP JUMPDEST POP DUP7 DUP3 LT ISZERO PUSH2 0x3ACD JUMPI PUSH1 0x0 NOT PUSH1 0xF8 DUP9 PUSH1 0x3 SHL AND SHR NOT DUP5 DUP8 ADD CALLDATALOAD AND DUP2 SSTORE JUMPDEST POP POP PUSH1 0x1 DUP6 PUSH1 0x1 SHL ADD DUP4 SSTORE JUMPDEST POP POP POP POP POP JUMP JUMPDEST PUSH1 0x20 DUP1 DUP3 MSTORE PUSH1 0x17 SWAP1 DUP3 ADD MSTORE PUSH32 0x4661696C656420746F20726566756E6420636C69656E74000000000000000000 PUSH1 0x40 DUP3 ADD MSTORE PUSH1 0x60 ADD SWAP1 JUMP JUMPDEST DUP2 DUP2 SUB DUP2 DUP2 GT ISZERO PUSH2 0x1AC7 JUMPI PUSH2 0x1AC7 PUSH2 0x38B2 JUMP JUMPDEST PUSH4 0x4E487B71 PUSH1 0xE0 SHL PUSH1 0x0 MSTORE PUSH1 0x31 PUSH1 0x4 MSTORE PUSH1 0x24 PUSH1 0x0 REVERT INVALID LOG2 PUSH5 0x6970667358 0x22 SLT KECCAK256 0xFC MSIZE ADDRESS PUSH9 0x190381C278C85E3A7E DUP2 EXTCODEHASH 0x1F SWAP13 SDIV 0xB7 0x4A SWAP12 EXP SWAP16 SIGNEXTEND SSTORE DUP6 SWAP12 PUSH8 0x279B19BB64736F6C PUSH4 0x43000811 STOP CALLER ","sha1":"4eb78a38d387c14e39bda64d48512b3fcae7df08","source":"// SPDX-License-Identifier: MIT\n\npragma solidity ^0.8.13;\n\nimport \"@chainlink/contracts/src/v0.8/interfaces/AggregatorV3Interface.sol\";\n\ncontract FoodDelivery {\n    struct Item{\n        uint256 id;\n        string name;\n        string description;\n        uint256 price;          // price in USD\n        bool available;\n    }\n\n    struct Restaurant{\n        address addr;\n        string name;\n        string description;\n        Item[] items;\n    }\n\n    struct Client {\n        address addr;\n        string name;\n    }\n\n    enum OrderStatus {\n        PENDING,                // order submitted by client, but before the restaurant accepts the order\n        WAITING_COURIER,        // order ready for courier (after being accepted by restaurant)\n        ASSIGNED_COURIER,       // order accepted by a courier\n        READY_TO_DELIVER,       // order finished by restaurant, ready to deliver\n        DELIVERING,             // order being delivered by the courier\n        DELIVERED,              // order delivered, confirmed by client\n        CANCELLED               // order was cancelled\n    }\n\n    struct Order {\n        uint256 id;\n        address restaurantAddr;\n        address clientAddr;\n        address courierAddr;\n        uint256[] itemIndices;\n        uint256[] quantities;\n        uint256 deliveryFee;        // delivery fee is in GWei\n        uint256 totalPrice;         // total price is in GWei\n        string deliveryAddress;\n        OrderStatus status;\n    }\n\n    struct Review {\n        uint256 orderId;\n        uint256 rating;\n        string comment;\n    }\n\n    mapping(address => Restaurant) public restaurants;\n    mapping(address => Client) public clients;\n    mapping(address => uint256[]) public clientsToOrdersMapping;\n    mapping(uint256 => Review) public reviews;\n    mapping(address => uint256[]) public restaurantToOrdersIds;\n    uint256[] public ordersWaitingForCourier;\n    Order[] public orders;\n    address[] public restaurantsAddr;\n    address[] public clientsAddr;\n    uint256 numberOfOrders = 0;\n    AggregatorV3Interface public ethUsdPriceFeed;\n\n    constructor (address priceFeedAddress) {\n        ethUsdPriceFeed = AggregatorV3Interface(priceFeedAddress);\n    }\n\n    function getNumberOfItemsInMenu(address restaurant) public view returns(uint) {\n        return restaurants[restaurant].items.length;\n    }\n\n    function getMenuEntryAtIndex(address restaurant, uint index) public view returns(Item memory) {\n        return restaurants[restaurant].items[index];\n    }\n\n    function getNumberOfRestaurants() public view returns(uint) {\n        return restaurantsAddr.length;\n    }\n\n    function getNumberOfClients() public view returns(uint) {\n        return clientsAddr.length;\n    }\n\n    function getNumberOfOrderForClient(address client) public view returns(uint) {\n        return clientsToOrdersMapping[client].length;\n    }\n\n    function getNumberOfOrderForRestaurant(address restaurant) public view returns(uint) {\n        return restaurantToOrdersIds[restaurant].length;\n    }\n\n    function getOrdersByStatus(OrderStatus status) public view returns (Order[] memory) {\n        uint256 numberOfOrdersWithStatus = 0;\n        for (uint256 i = 0; i < orders.length; i++) {\n            if (orders[i].status == status) {\n                numberOfOrdersWithStatus++;\n            }\n        }\n        Order[] memory ordersWithStatus = new Order[](numberOfOrdersWithStatus);\n        uint256 currentIndex = 0;\n        for (uint256 i = 0; i < orders.length; i++) {\n            if (orders[i].status == status) {\n                ordersWithStatus[currentIndex] = orders[i];\n                currentIndex++;\n            }\n        }\n        return ordersWithStatus;\n    }\n\n    function getNumberOfOrdersWaitingForCourier() public view returns (uint256) {\n        return ordersWaitingForCourier.length;\n    }\n\n    function getPriceInEth(uint256 usdPrice) public view returns (uint256) {\n        (,int256 price,,, ) = ethUsdPriceFeed.latestRoundData();\n        uint8 decimals = ethUsdPriceFeed.decimals();\n        uint256 cost = (usdPrice * 10 ** decimals) / (uint256(price) / 10 ** 9);\n        return cost;\n    }\n\n    function getOrderItemsAndQuantities(uint256 orderId) public view returns (Item[] memory, uint256[] memory) {\n        Order storage order = orders[orderId];\n        require(order.id == orderId, \"Order with given id does not exist\");\n\n        // Get the restaurant for this order\n        Restaurant storage restaurant = restaurants[order.restaurantAddr];\n\n        // Initialize an array to store the ordered items\n        Item[] memory orderedItems = new Item[](order.itemIndices.length);\n\n        // Loop through the itemIndices array in the order and populate the orderedItems array\n        for (uint256 i = 0; i < order.itemIndices.length; i++) {\n            uint256 itemIndex = order.itemIndices[i];\n            orderedItems[i] = restaurant.items[itemIndex];\n        }\n\n        // Return both ordered items and their corresponding quantities\n        return (orderedItems, order.quantities);\n    }\n\n    function registerRestaurant(string calldata name, string calldata description) public {\n        Restaurant storage restaurant = restaurants[msg.sender];\n        restaurant.addr = msg.sender;\n        restaurant.name = name;\n        restaurant.description = description;\n        restaurantsAddr.push(msg.sender);\n    }\n\n    function registerClient(string calldata name) public {\n        Client storage client = clients[msg.sender];\n        client.addr = msg.sender;\n        client.name = name;\n        clientsAddr.push(msg.sender);\n    }\n\n    function addItem(string calldata name, string calldata description, uint256 price) public returns(uint256) {\n        Restaurant storage restaurant = restaurants[msg.sender];\n        uint256 id = restaurant.items.length;\n        restaurant.items.push(Item({\n            id: id,\n            name: name,\n            description: description,\n            price: price,\n            available: true\n        }));\n\n        return id;\n    }\n\n    function updateItem(uint256 id, string calldata name, string calldata description, uint256 price) public returns(uint256) {\n        Restaurant storage restaurant = restaurants[msg.sender];\n        restaurant.items[id] = Item({\n            id: id,\n            name: name,\n            description: description,\n            price: price,\n            available: true\n        });\n\n        return id;\n    }\n\n    function enableItem(uint256 itemId) public {\n        Restaurant storage restaurant = restaurants[msg.sender];\n        restaurant.items[itemId].available = true;\n    }\n\n    function disableItem(uint256 itemId) public {\n        Restaurant storage restaurant = restaurants[msg.sender];\n        restaurant.items[itemId].available = false;\n    }\n\n    function getWeiPriceForOrder(address restaurantAddr, uint256[] calldata itemIds, uint256[] calldata quantities, uint256 deliveryFee) public view returns(uint256, uint256) {\n        Restaurant storage restaurant = restaurants[restaurantAddr];\n\n        uint256 totalPrice = 0;\n        for (uint256 i = 0; i < itemIds.length; i++) {\n            require(itemIds[i] < restaurant.items.length, \"Invalid item ID\");\n            Item storage item = restaurant.items[itemIds[i]];\n            totalPrice += getPriceInEth(item.price) * quantities[i];\n        }\n\n        uint256 ethDeliveryFee = getPriceInEth(deliveryFee);\n        return (totalPrice, ethDeliveryFee);\n    }\n\n    function placeOrder(address restaurantAddr, uint256[] calldata itemIds, uint256[] calldata quantities, uint256 deliveryFee, string calldata deliveryAddress) public payable {\n        Restaurant storage restaurant = restaurants[restaurantAddr];\n        require(restaurant.addr != address(0), \"Invalid restaurant address\");\n\n        for (uint i = 0; i < itemIds.length; ++i) {\n            require(restaurant.items[itemIds[i]].available == true, \"Order contains unavailable items...\");\n        }\n\n        (uint256 totalPrice, uint256 ethDeliveryFee) = getWeiPriceForOrder(restaurantAddr, itemIds, quantities, deliveryFee);\n        require(msg.value >= totalPrice + ethDeliveryFee, \"Incorrect amount paid\");\n\n        uint256 id = orders.length;\n\n        orders.push(Order({\n            id: id,\n            restaurantAddr: restaurantAddr,\n            clientAddr: msg.sender,\n            courierAddr: address(0),\n            itemIndices: itemIds,\n            quantities: quantities,\n            deliveryFee: ethDeliveryFee,\n            totalPrice: totalPrice,\n            deliveryAddress: deliveryAddress,\n            status: OrderStatus.PENDING\n        }));\n        clientsToOrdersMapping[msg.sender].push(id);\n        restaurantToOrdersIds[restaurantAddr].push(id);\n    }\n\n    function acceptOrder(uint256 orderId) public {\n        Order storage order = orders[orderId];\n        require(order.id == orderId, \"Order with given id does not exist\");\n        require(order.restaurantAddr == msg.sender, \"Only the restaurant for which the order was made can accept it\");\n        require(order.status == OrderStatus.PENDING, \"Can only accept orders for which the status is PENDING\");\n\n        order.status = OrderStatus.WAITING_COURIER;\n        ordersWaitingForCourier.push(orderId);\n    }\n\n    function declineOrder(uint256 orderId) public {\n        Order storage order = orders[orderId];\n        require(order.id == orderId, \"Order with given id does not exist\");\n        require(order.restaurantAddr == msg.sender, \"Only the restaurant can decline the order\");\n        require(order.status == OrderStatus.PENDING, \"Order must be pending\");\n\n        // refund the client\n        address payable clientAddr = payable(order.clientAddr);\n        require(clientAddr.send(order.totalPrice + order.deliveryFee), \"Failed to refund client\");\n\n        order.status = OrderStatus.CANCELLED;\n    }\n\n    function increaseDeliveryFee(uint256 orderId) public payable {\n        Order storage order = orders[orderId];\n        require(order.id == orderId, \"Order with given id does not exist\");\n        require(order.status == OrderStatus.WAITING_COURIER);\n        require(order.clientAddr == msg.sender, \"Order delivery fee must be increased by the client\");\n\n        order.deliveryFee += msg.value;\n    }\n\n    function takeOrder(uint256 orderId) public {\n        Order storage order = orders[orderId];\n        require(order.id == orderId, \"Order with given id does not exist\");\n        require(order.status == OrderStatus.WAITING_COURIER, \"Order must be in the processing state\");\n        order.courierAddr = msg.sender;\n        order.status = OrderStatus.ASSIGNED_COURIER;\n        removeOrderFromWaitingList(orderId);\n    }\n\n    function orderReadyToDeliver(uint256 orderId) public {\n        Order storage order = orders[orderId];\n        require(order.id == orderId, \"Order with given id does not exist\");\n        require(order.status == OrderStatus.ASSIGNED_COURIER);\n        require(order.restaurantAddr == msg.sender, \"Order must be marked ready to deliver by the restaurant of the order\");\n\n        order.status = OrderStatus.READY_TO_DELIVER;\n    }\n\n    function orderDelivering(uint256 orderId) public {\n        Order storage order = orders[orderId];\n        require(order.id == orderId, \"Order with given id does not exist\");\n        require(order.status == OrderStatus.READY_TO_DELIVER);\n        require(order.courierAddr == msg.sender, \"Order must be delivered by courier that accepted it\");\n\n        order.status = OrderStatus.DELIVERING;\n    }\n\n    function orderDelivered(uint256 orderId) public {\n        Order storage order = orders[orderId];\n        require(order.id == orderId, \"Order with given id does not exist\");\n        require(order.status == OrderStatus.DELIVERING);\n        require(order.clientAddr == msg.sender, \"Order delivery must be confirmed by client\");\n\n        order.status = OrderStatus.DELIVERED;\n    }\n\n    function cancelOrder(uint256 orderId) public {\n        Order storage order = orders[orderId];\n        require(order.id == orderId, \"Order with given id does not exist\");\n        \n        // refund the client\n        address payable clientAddr = payable(order.clientAddr);\n        address payable restaurantAddr = payable(order.restaurantAddr);\n        if (order.status == OrderStatus.PENDING || order.status == OrderStatus.WAITING_COURIER\n            || order.status == OrderStatus.ASSIGNED_COURIER) {      // full refund\n            require(clientAddr.send(order.totalPrice + order.deliveryFee), \"Failed to refund client\");\n        } else if (order.status == OrderStatus.READY_TO_DELIVER) {  // partial refund, as the restaurant did finish the order\n            require(restaurantAddr.send(order.totalPrice), \"Failed to refund restaurant\");\n            require(clientAddr.send(order.deliveryFee), \"Failed to refund client\");\n        } else {        // no refund for client, order was just being delivered\n            address payable courierAddr = payable(order.clientAddr);\n            require(restaurantAddr.send(order.totalPrice), \"Failed to refund restaurant\");\n            require(courierAddr.send(order.deliveryFee), \"Failed to refund courier\");\n        }\n\n        order.status = OrderStatus.CANCELLED;\n    }\n\n    function placeReview(uint256 orderId, uint256 rating, string calldata comment) public {\n        Order storage order = orders[orderId];\n        require(order.id == orderId, \"Order with given id does not exist\");\n        require(order.clientAddr == msg.sender, \"Only the client who placed the order can leave a review\");\n        require(order.status == OrderStatus.DELIVERED, \"Only delivered orders can be reviewed\");\n\n        reviews[orderId] = Review({\n            orderId: orderId,\n            rating: rating,\n            comment: comment\n        });\n    }\n\n    function getReview(uint256 orderId) public view returns (Review memory) {\n        return reviews[orderId];\n    }\n\n    function getAverageRatingForRestaurant(address restaurantAddr) public view returns (uint256) {\n        uint256 totalRating = 0;\n        uint256 numberOfRatings = 0;\n\n        for (uint256 i = 0; i < restaurantToOrdersIds[restaurantAddr].length; i++) {\n            uint256 orderId = restaurantToOrdersIds[restaurantAddr][i];\n            if (reviews[orderId].orderId == orderId) {\n                totalRating += reviews[orderId].rating;\n                numberOfRatings++;\n            }\n        }\n\n        if (numberOfRatings == 0) {\n            return 0;\n        } else {\n            return totalRating / numberOfRatings;\n        }\n    }\n\n    function removeOrderFromWaitingList(uint256 orderId) internal {\n        for (uint256 i = 0; i < ordersWaitingForCourier.length; i++) {\n            if (ordersWaitingForCourier[i] == orderId) {\n                // Swap the order to remove with the last order in the array, then remove the last order\n                ordersWaitingForCourier[i] = ordersWaitingForCourier[ordersWaitingForCourier.length - 1];\n                ordersWaitingForCourier.pop();\n                break;\n            }\n        }\n    }\n}\n","sourcePath":"contracts/food_delivery.sol","type":"contract","deployment":{"address":"0x4eC5AbCd321d1aaA33b9fdda02EFB6CcA6899228","chainid":"5","blockHeight":8883149}}