{"abi":[{"inputs":[{"internalType":"address","name":"priceFeedAddress","type":"address"}],"stateMutability":"nonpayable","type":"constructor","name":"constructor"},{"inputs":[{"internalType":"uint256","name":"orderId","type":"uint256"},{"internalType":"uint256","name":"maxPreparationTime","type":"uint256"}],"name":"acceptOrder","outputs":[],"stateMutability":"nonpayable","type":"function"},{"inputs":[{"internalType":"string","name":"name","type":"string"},{"internalType":"string","name":"description","type":"string"},{"internalType":"uint256","name":"price","type":"uint256"}],"name":"addItem","outputs":[{"internalType":"uint256","name":"","type":"uint256"}],"stateMutability":"nonpayable","type":"function"},{"inputs":[{"internalType":"uint256","name":"orderId","type":"uint256"}],"name":"cancelOrder","outputs":[],"stateMutability":"nonpayable","type":"function"},{"inputs":[{"internalType":"address","name":"","type":"address"}],"name":"clients","outputs":[{"internalType":"address","name":"addr","type":"address"},{"internalType":"string","name":"name","type":"string"}],"stateMutability":"view","type":"function"},{"inputs":[{"internalType":"uint256","name":"","type":"uint256"}],"name":"clientsAddr","outputs":[{"internalType":"address","name":"","type":"address"}],"stateMutability":"view","type":"function"},{"inputs":[{"internalType":"address","name":"","type":"address"},{"internalType":"uint256","name":"","type":"uint256"}],"name":"clientsToOrdersMapping","outputs":[{"internalType":"uint256","name":"","type":"uint256"}],"stateMutability":"view","type":"function"},{"inputs":[{"internalType":"address","name":"","type":"address"},{"internalType":"uint256","name":"","type":"uint256"}],"name":"couriersToOrdersMapping","outputs":[{"internalType":"uint256","name":"","type":"uint256"}],"stateMutability":"view","type":"function"},{"inputs":[{"internalType":"uint256","name":"orderId","type":"uint256"}],"name":"declineOrder","outputs":[],"stateMutability":"nonpayable","type":"function"},{"inputs":[{"internalType":"uint256","name":"itemId","type":"uint256"}],"name":"disableItem","outputs":[],"stateMutability":"nonpayable","type":"function"},{"inputs":[{"internalType":"uint256","name":"itemId","type":"uint256"}],"name":"enableItem","outputs":[],"stateMutability":"nonpayable","type":"function"},{"inputs":[],"name":"ethUsdPriceFeed","outputs":[{"internalType":"contract AggregatorV3Interface","name":"","type":"address"}],"stateMutability":"view","type":"function"},{"inputs":[{"internalType":"address","name":"clientAddr","type":"address"}],"name":"getAllOrdersForClient","outputs":[{"components":[{"internalType":"uint256","name":"id","type":"uint256"},{"internalType":"address","name":"restaurantAddr","type":"address"},{"internalType":"string","name":"restaurantName","type":"string"},{"internalType":"string","name":"restaurantPhysicalAddress","type":"string"},{"internalType":"address","name":"clientAddr","type":"address"},{"internalType":"address","name":"courierAddr","type":"address"},{"internalType":"uint256[]","name":"itemIndices","type":"uint256[]"},{"internalType":"uint256[]","name":"quantities","type":"uint256[]"},{"internalType":"uint256","name":"deliveryFee","type":"uint256"},{"internalType":"uint256","name":"totalPrice","type":"uint256"},{"internalType":"string","name":"deliveryAddress","type":"string"},{"internalType":"enum FoodDelivery.OrderStatus","name":"status","type":"uint8"},{"internalType":"uint256","name":"maxPreparationTime","type":"uint256"},{"internalType":"uint256","name":"maxDeliveryTime","type":"uint256"},{"internalType":"uint256","name":"preparationStartTime","type":"uint256"},{"internalType":"uint256","name":"deliveryStartTime","type":"uint256"}],"internalType":"struct FoodDelivery.Order[]","name":"","type":"tuple[]"}],"stateMutability":"view","type":"function"},{"inputs":[{"internalType":"address","name":"restaurantAddr","type":"address"}],"name":"getAllOrdersForRestaurant","outputs":[{"components":[{"internalType":"uint256","name":"id","type":"uint256"},{"internalType":"address","name":"restaurantAddr","type":"address"},{"internalType":"string","name":"restaurantName","type":"string"},{"internalType":"string","name":"restaurantPhysicalAddress","type":"string"},{"internalType":"address","name":"clientAddr","type":"address"},{"internalType":"address","name":"courierAddr","type":"address"},{"internalType":"uint256[]","name":"itemIndices","type":"uint256[]"},{"internalType":"uint256[]","name":"quantities","type":"uint256[]"},{"internalType":"uint256","name":"deliveryFee","type":"uint256"},{"internalType":"uint256","name":"totalPrice","type":"uint256"},{"internalType":"string","name":"deliveryAddress","type":"string"},{"internalType":"enum FoodDelivery.OrderStatus","name":"status","type":"uint8"},{"internalType":"uint256","name":"maxPreparationTime","type":"uint256"},{"internalType":"uint256","name":"maxDeliveryTime","type":"uint256"},{"internalType":"uint256","name":"preparationStartTime","type":"uint256"},{"internalType":"uint256","name":"deliveryStartTime","type":"uint256"}],"internalType":"struct FoodDelivery.Order[]","name":"","type":"tuple[]"}],"stateMutability":"view","type":"function"},{"inputs":[],"name":"getAllRestaurants","outputs":[{"components":[{"internalType":"address","name":"addr","type":"address"},{"internalType":"string","name":"name","type":"string"},{"internalType":"string","name":"description","type":"string"},{"internalType":"string","name":"physicalAddress","type":"string"},{"components":[{"internalType":"uint256","name":"id","type":"uint256"},{"internalType":"string","name":"name","type":"string"},{"internalType":"string","name":"description","type":"string"},{"internalType":"uint256","name":"price","type":"uint256"},{"internalType":"bool","name":"available","type":"bool"}],"internalType":"struct FoodDelivery.Item[]","name":"items","type":"tuple[]"}],"internalType":"struct FoodDelivery.Restaurant[]","name":"","type":"tuple[]"},{"internalType":"uint256[]","name":"","type":"uint256[]"}],"stateMutability":"view","type":"function"},{"inputs":[{"internalType":"address","name":"restaurantAddr","type":"address"}],"name":"getAverageRatingForRestaurant","outputs":[{"internalType":"uint256","name":"","type":"uint256"}],"stateMutability":"view","type":"function"},{"inputs":[{"internalType":"address","name":"restaurantAddr","type":"address"}],"name":"getItemsForRestaurant","outputs":[{"components":[{"internalType":"uint256","name":"id","type":"uint256"},{"internalType":"string","name":"name","type":"string"},{"internalType":"string","name":"description","type":"string"},{"internalType":"uint256","name":"price","type":"uint256"},{"internalType":"bool","name":"available","type":"bool"}],"internalType":"struct FoodDelivery.Item[]","name":"","type":"tuple[]"}],"stateMutability":"view","type":"function"},{"inputs":[{"internalType":"address","name":"restaurant","type":"address"},{"internalType":"uint256","name":"index","type":"uint256"}],"name":"getMenuEntryAtIndex","outputs":[{"components":[{"internalType":"uint256","name":"id","type":"uint256"},{"internalType":"string","name":"name","type":"string"},{"internalType":"string","name":"description","type":"string"},{"internalType":"uint256","name":"price","type":"uint256"},{"internalType":"bool","name":"available","type":"bool"}],"internalType":"struct FoodDelivery.Item","name":"","type":"tuple"}],"stateMutability":"view","type":"function"},{"inputs":[],"name":"getNumberOfClients","outputs":[{"internalType":"uint256","name":"","type":"uint256"}],"stateMutability":"view","type":"function"},{"inputs":[{"internalType":"address","name":"restaurant","type":"address"}],"name":"getNumberOfItemsInMenu","outputs":[{"internalType":"uint256","name":"","type":"uint256"}],"stateMutability":"view","type":"function"},{"inputs":[{"internalType":"address","name":"client","type":"address"}],"name":"getNumberOfOrderForClient","outputs":[{"internalType":"uint256","name":"","type":"uint256"}],"stateMutability":"view","type":"function"},{"inputs":[{"internalType":"address","name":"restaurant","type":"address"}],"name":"getNumberOfOrderForRestaurant","outputs":[{"internalType":"uint256","name":"","type":"uint256"}],"stateMutability":"view","type":"function"},{"inputs":[{"internalType":"address","name":"courier","type":"address"}],"name":"getNumberOfOrdersForCourier","outputs":[{"internalType":"uint256","name":"","type":"uint256"}],"stateMutability":"view","type":"function"},{"inputs":[],"name":"getNumberOfOrdersWaitingForCourier","outputs":[{"internalType":"uint256","name":"","type":"uint256"}],"stateMutability":"view","type":"function"},{"inputs":[],"name":"getNumberOfRestaurants","outputs":[{"internalType":"uint256","name":"","type":"uint256"}],"stateMutability":"view","type":"function"},{"inputs":[{"internalType":"uint256","name":"orderId","type":"uint256"}],"name":"getOrderItemsAndQuantities","outputs":[{"components":[{"internalType":"uint256","name":"id","type":"uint256"},{"internalType":"string","name":"name","type":"string"},{"internalType":"string","name":"description","type":"string"},{"internalType":"uint256","name":"price","type":"uint256"},{"internalType":"bool","name":"available","type":"bool"}],"internalType":"struct FoodDelivery.Item[]","name":"","type":"tuple[]"},{"internalType":"uint256[]","name":"","type":"uint256[]"}],"stateMutability":"view","type":"function"},{"inputs":[{"internalType":"enum FoodDelivery.OrderStatus","name":"status","type":"uint8"}],"name":"getOrdersByStatus","outputs":[{"components":[{"internalType":"uint256","name":"id","type":"uint256"},{"internalType":"address","name":"restaurantAddr","type":"address"},{"internalType":"string","name":"restaurantName","type":"string"},{"internalType":"string","name":"restaurantPhysicalAddress","type":"string"},{"internalType":"address","name":"clientAddr","type":"address"},{"internalType":"address","name":"courierAddr","type":"address"},{"internalType":"uint256[]","name":"itemIndices","type":"uint256[]"},{"internalType":"uint256[]","name":"quantities","type":"uint256[]"},{"internalType":"uint256","name":"deliveryFee","type":"uint256"},{"internalType":"uint256","name":"totalPrice","type":"uint256"},{"internalType":"string","name":"deliveryAddress","type":"string"},{"internalType":"enum FoodDelivery.OrderStatus","name":"status","type":"uint8"},{"internalType":"uint256","name":"maxPreparationTime","type":"uint256"},{"internalType":"uint256","name":"maxDeliveryTime","type":"uint256"},{"internalType":"uint256","name":"preparationStartTime","type":"uint256"},{"internalType":"uint256","name":"deliveryStartTime","type":"uint256"}],"internalType":"struct FoodDelivery.Order[]","name":"","type":"tuple[]"}],"stateMutability":"view","type":"function"},{"inputs":[{"internalType":"address","name":"courierAddr","type":"address"}],"name":"getOrdersForCouriers","outputs":[{"components":[{"internalType":"uint256","name":"id","type":"uint256"},{"internalType":"address","name":"restaurantAddr","type":"address"},{"internalType":"string","name":"restaurantName","type":"string"},{"internalType":"string","name":"restaurantPhysicalAddress","type":"string"},{"internalType":"address","name":"clientAddr","type":"address"},{"internalType":"address","name":"courierAddr","type":"address"},{"internalType":"uint256[]","name":"itemIndices","type":"uint256[]"},{"internalType":"uint256[]","name":"quantities","type":"uint256[]"},{"internalType":"uint256","name":"deliveryFee","type":"uint256"},{"internalType":"uint256","name":"totalPrice","type":"uint256"},{"internalType":"string","name":"deliveryAddress","type":"string"},{"internalType":"enum FoodDelivery.OrderStatus","name":"status","type":"uint8"},{"internalType":"uint256","name":"maxPreparationTime","type":"uint256"},{"internalType":"uint256","name":"maxDeliveryTime","type":"uint256"},{"internalType":"uint256","name":"preparationStartTime","type":"uint256"},{"internalType":"uint256","name":"deliveryStartTime","type":"uint256"}],"internalType":"struct FoodDelivery.Order[]","name":"","type":"tuple[]"}],"stateMutability":"view","type":"function"},{"inputs":[{"internalType":"uint256","name":"usdPrice","type":"uint256"}],"name":"getPriceInEth","outputs":[{"internalType":"uint256","name":"","type":"uint256"}],"stateMutability":"view","type":"function"},{"inputs":[{"internalType":"uint256","name":"orderId","type":"uint256"}],"name":"getReview","outputs":[{"components":[{"internalType":"uint256","name":"orderId","type":"uint256"},{"internalType":"uint256","name":"rating","type":"uint256"},{"internalType":"string","name":"comment","type":"string"}],"internalType":"struct FoodDelivery.Review","name":"","type":"tuple"}],"stateMutability":"view","type":"function"},{"inputs":[{"internalType":"address","name":"restaurantAddr","type":"address"},{"internalType":"uint256[]","name":"itemIds","type":"uint256[]"},{"internalType":"uint256[]","name":"quantities","type":"uint256[]"},{"internalType":"uint256","name":"deliveryFee","type":"uint256"}],"name":"getWeiPriceForOrder","outputs":[{"internalType":"uint256","name":"","type":"uint256"},{"internalType":"uint256","name":"","type":"uint256"}],"stateMutability":"view","type":"function"},{"inputs":[{"internalType":"uint256","name":"orderId","type":"uint256"}],"name":"increaseDeliveryFee","outputs":[],"stateMutability":"payable","type":"function"},{"inputs":[{"internalType":"uint256","name":"orderId","type":"uint256"}],"name":"orderDelivered","outputs":[],"stateMutability":"nonpayable","type":"function"},{"inputs":[{"internalType":"uint256","name":"orderId","type":"uint256"}],"name":"orderDelivering","outputs":[],"stateMutability":"nonpayable","type":"function"},{"inputs":[{"internalType":"uint256","name":"orderId","type":"uint256"}],"name":"orderReadyToDeliver","outputs":[],"stateMutability":"nonpayable","type":"function"},{"inputs":[{"internalType":"uint256","name":"","type":"uint256"}],"name":"orders","outputs":[{"internalType":"uint256","name":"id","type":"uint256"},{"internalType":"address","name":"restaurantAddr","type":"address"},{"internalType":"string","name":"restaurantName","type":"string"},{"internalType":"string","name":"restaurantPhysicalAddress","type":"string"},{"internalType":"address","name":"clientAddr","type":"address"},{"internalType":"address","name":"courierAddr","type":"address"},{"internalType":"uint256","name":"deliveryFee","type":"uint256"},{"internalType":"uint256","name":"totalPrice","type":"uint256"},{"internalType":"string","name":"deliveryAddress","type":"string"},{"internalType":"enum FoodDelivery.OrderStatus","name":"status","type":"uint8"},{"internalType":"uint256","name":"maxPreparationTime","type":"uint256"},{"internalType":"uint256","name":"maxDeliveryTime","type":"uint256"},{"internalType":"uint256","name":"preparationStartTime","type":"uint256"},{"internalType":"uint256","name":"deliveryStartTime","type":"uint256"}],"stateMutability":"view","type":"function"},{"inputs":[{"internalType":"uint256","name":"","type":"uint256"}],"name":"ordersWaitingForCourier","outputs":[{"internalType":"uint256","name":"","type":"uint256"}],"stateMutability":"view","type":"function"},{"inputs":[{"internalType":"address","name":"restaurantAddr","type":"address"},{"internalType":"uint256[]","name":"itemIds","type":"uint256[]"},{"internalType":"uint256[]","name":"quantities","type":"uint256[]"},{"internalType":"uint256","name":"deliveryFee","type":"uint256"},{"internalType":"string","name":"deliveryAddress","type":"string"}],"name":"placeOrder","outputs":[],"stateMutability":"payable","type":"function"},{"inputs":[{"internalType":"uint256","name":"orderId","type":"uint256"},{"internalType":"uint256","name":"rating","type":"uint256"},{"internalType":"string","name":"comment","type":"string"}],"name":"placeReview","outputs":[],"stateMutability":"nonpayable","type":"function"},{"inputs":[{"internalType":"string","name":"name","type":"string"}],"name":"registerClient","outputs":[],"stateMutability":"nonpayable","type":"function"},{"inputs":[{"internalType":"string","name":"name","type":"string"},{"internalType":"string","name":"description","type":"string"},{"internalType":"string","name":"physicalAddress","type":"string"}],"name":"registerRestaurant","outputs":[],"stateMutability":"nonpayable","type":"function"},{"inputs":[{"internalType":"address","name":"","type":"address"},{"internalType":"uint256","name":"","type":"uint256"}],"name":"restaurantToOrdersIds","outputs":[{"internalType":"uint256","name":"","type":"uint256"}],"stateMutability":"view","type":"function"},{"inputs":[{"internalType":"address","name":"","type":"address"}],"name":"restaurants","outputs":[{"internalType":"address","name":"addr","type":"address"},{"internalType":"string","name":"name","type":"string"},{"internalType":"string","name":"description","type":"string"},{"internalType":"string","name":"physicalAddress","type":"string"}],"stateMutability":"view","type":"function"},{"inputs":[{"internalType":"uint256","name":"","type":"uint256"}],"name":"restaurantsAddr","outputs":[{"internalType":"address","name":"","type":"address"}],"stateMutability":"view","type":"function"},{"inputs":[{"internalType":"uint256","name":"","type":"uint256"}],"name":"reviews","outputs":[{"internalType":"uint256","name":"orderId","type":"uint256"},{"internalType":"uint256","name":"rating","type":"uint256"},{"internalType":"string","name":"comment","type":"string"}],"stateMutability":"view","type":"function"},{"inputs":[{"internalType":"uint256","name":"orderId","type":"uint256"},{"internalType":"uint256","name":"maxDeliveryTime","type":"uint256"}],"name":"takeOrder","outputs":[],"stateMutability":"nonpayable","type":"function"},{"inputs":[{"internalType":"uint256","name":"id","type":"uint256"},{"internalType":"string","name":"name","type":"string"},{"internalType":"string","name":"description","type":"string"},{"internalType":"uint256","name":"price","type":"uint256"}],"name":"updateItem","outputs":[{"internalType":"uint256","name":"","type":"uint256"}],"stateMutability":"nonpayable","type":"function"}],"bytecode":"60806040526000600a553480156200001657600080fd5b5060405162005e5838038062005e5883398101604081905262000039916200005f565b600b80546001600160a01b0319166001600160a01b039290921691909117905562000091565b6000602082840312156200007257600080fd5b81516001600160a01b03811681146200008a57600080fd5b9392505050565b615db780620000a16000396000f3fe60806040526004361061027d5760003560e01c806385b6ec061161014f578063be47dca1116100c1578063e83ddcea1161007a578063e83ddcea1461085f578063eff6ed6b1461088e578063f13b84b6146108a3578063f59ac62a146108c3578063faa9bd14146108e3578063fedf1a871461091057600080fd5b8063be47dca11461077b578063c59c521a14610790578063ccbdb85c146107c9578063d3168a66146107e9578063dee9e1641461081f578063e742a1821461083f57600080fd5b8063990581b611610113578063990581b6146106ae5780639b51bd21146106db5780639cbcfed5146106ee578063a85c38ef1461070e578063abfd068714610748578063bdace1821461075b57600080fd5b806385b6ec061461060b578063877344001461062b5780638ce2ec791461064e57806392184bfb1461066e5780639827e44d1461068e57600080fd5b80633d05a334116101f3578063626e388b116101ac578063626e388b1461053c57806364432eb81461056957806368ad5b83146105895780636d4166e9146105b6578063708d2612146105cb578063747cf8c6146105eb57600080fd5b80633d05a3341461044057806342f6fb29146104605780634c6448fe146104985780634d649a42146104b8578063514fcac7146104ee57806361eed2a91461050e57600080fd5b80631ae78a85116102455780631ae78a851461034d578063226affb81461036d578063236cd7dc1461038d5780632eab93cb146103bd57806337a3f817146103dd5780633a2d20d11461040b57600080fd5b8063026828931461028257806306a6034f146102b55780630bbacb20146102d55780630bdc3b22146102f75780631569e8581461032d575b600080fd5b34801561028e57600080fd5b506102a261029d366004614e88565b610930565b6040519081526020015b60405180910390f35b3480156102c157600080fd5b506102a26102d0366004614efa565b610961565b3480156102e157600080fd5b506102f56102f0366004614f7b565b610a89565b005b34801561030357600080fd5b506102a2610312366004614fcd565b6001600160a01b031660009081526005602052604090205490565b34801561033957600080fd5b506102f5610348366004614fef565b610c5e565b34801561035957600080fd5b506102f5610368366004615088565b610cf9565b34801561037957600080fd5b506102a2610388366004615088565b610df9565b34801561039957600080fd5b506103ad6103a8366004614fcd565b610f2a565b6040516102ac94939291906150e7565b3480156103c957600080fd5b506102f56103d836600461513c565b6110f5565b3480156103e957600080fd5b506103fd6103f8366004615088565b611217565b6040516102ac929190615249565b34801561041757600080fd5b5061042b6104263660046152b2565b611545565b604080519283526020830191909152016102ac565b34801561044c57600080fd5b506102f561045b36600461513c565b611674565b34801561046c57600080fd5b50600b54610480906001600160a01b031681565b6040516001600160a01b0390911681526020016102ac565b3480156104a457600080fd5b506102f56104b3366004615322565b611815565b3480156104c457600080fd5b506102a26104d3366004614fcd565b6001600160a01b031660009081526004602052604090205490565b3480156104fa57600080fd5b506102f5610509366004615088565b61188d565b34801561051a57600080fd5b5061052e610529366004614fcd565b611ca4565b6040516102ac929190615363565b34801561054857600080fd5b5061055c610557366004614fcd565b611d54565b6040516102ac91906153bf565b34801561057557600080fd5b506102a261058436600461553f565b6121d8565b34801561059557600080fd5b506105a96105a4366004614e88565b6122f4565b6040516102ac91906155b2565b3480156105c257600080fd5b506008546102a2565b3480156105d757600080fd5b506102a26105e6366004615088565b6124bf565b3480156105f757600080fd5b5061055c610606366004614fcd565b6124e0565b34801561061757600080fd5b50610480610626366004615088565b61295c565b34801561063757600080fd5b50610640612986565b6040516102ac9291906155c5565b34801561065a57600080fd5b5061055c6106693660046156a8565b612e88565b34801561067a57600080fd5b506102f5610689366004615088565b61336d565b34801561069a57600080fd5b506102a26106a9366004614e88565b6133bb565b3480156106ba57600080fd5b506106ce6106c9366004615088565b6133d7565b6040516102ac91906156c9565b6102f56106e9366004615088565b6134c6565b3480156106fa57600080fd5b506102f5610709366004615088565b6135c3565b34801561071a57600080fd5b5061072e610729366004615088565b6135ec565b6040516102ac9e9d9c9b9a999897969594939291906156f8565b6102f56107563660046157b3565b61381e565b34801561076757600080fd5b50610480610776366004615088565b613e0e565b34801561078757600080fd5b506009546102a2565b34801561079c57600080fd5b506102a26107ab366004614fcd565b6001600160a01b031660009081526020819052604090206004015490565b3480156107d557600080fd5b506102f56107e4366004615088565b613e1e565b3480156107f557600080fd5b506102a2610804366004614fcd565b6001600160a01b031660009081526002602052604090205490565b34801561082b57600080fd5b506102a261083a366004614e88565b613fa4565b34801561084b57600080fd5b506102f561085a366004615088565b613fc0565b34801561086b57600080fd5b5061087f61087a366004615088565b61431f565b6040516102ac93929190615866565b34801561089a57600080fd5b506006546102a2565b3480156108af57600080fd5b506102a26108be366004614fcd565b6143ca565b3480156108cf57600080fd5b5061055c6108de366004614fcd565b6144a8565b3480156108ef57600080fd5b506109036108fe366004614fcd565b614924565b6040516102ac9190615885565b34801561091c57600080fd5b506102f561092b366004615088565b614b94565b6004602052816000526040600020818154811061094c57600080fd5b90600052602060002001600091509150505481565b33600090815260208181526040808320815160a0810183528a81528251601f8a0185900485028101850190935288835290929091828201918a908a9081908401838280828437600092019190915250505090825250604080516020601f8901819004810282018101909252878152918101919088908890819084018382808284376000920191909152505050908252506020810185905260016040909101526004820180548a908110610a1657610a16615898565b9060005260206000209060050201600082015181600001556020820151816001019081610a43919061594c565b5060408201516002820190610a58908261594c565b50606082015160038201556080909101516004909101805460ff191691151591909117905550959695505050505050565b600060078581548110610a9e57610a9e615898565b9060005260206000209060100201905084816000015414610ada5760405162461bcd60e51b8152600401610ad190615a0b565b60405180910390fd5b60048101546001600160a01b03163314610b5c5760405162461bcd60e51b815260206004820152603760248201527f4f6e6c792074686520636c69656e742077686f20706c6163656420746865206f60448201527f726465722063616e206c656176652061207265766965770000000000000000006064820152608401610ad1565b6005600b82015460ff166006811115610b7757610b77615387565b14610bd25760405162461bcd60e51b815260206004820152602560248201527f4f6e6c792064656c697665726564206f72646572732063616e206265207265766044820152641a595dd95960da1b6064820152608401610ad1565b604051806060016040528086815260200185815260200184848080601f01602080910402602001604051908101604052809392919081815260200183838082843760009201829052509390945250508781526003602090815260409182902084518155908401516001820155908301519091506002820190610c54908261594c565b5050505050505050565b33600081815260208190526040902080546001600160a01b031916909117815560018101610c8d878983615a4d565b5060028101610c9d858783615a4d565b5060038101610cad838583615a4d565b5050600880546001810182556000919091527ff3f7a9fe364faab93b216da50a3214154f22a0a2b415b23a84c8169e8b636ee30180546001600160a01b03191633179055505050505050565b600060078281548110610d0e57610d0e615898565b9060005260206000209060100201905081816000015414610d415760405162461bcd60e51b8152600401610ad190615a0b565b6003600b82015460ff166006811115610d5c57610d5c615387565b14610d6657600080fd5b60058101546001600160a01b03163314610dde5760405162461bcd60e51b815260206004820152603360248201527f4f72646572206d7573742062652064656c69766572656420627920636f757269604482015272195c881d1a185d081858d8d95c1d1959081a5d606a1b6064820152608401610ad1565b600b810180546004919060ff19166001835b02179055505050565b600080600b60009054906101000a90046001600160a01b03166001600160a01b031663feaf968c6040518163ffffffff1660e01b815260040160a060405180830381865afa158015610e4f573d6000803e3d6000fd5b505050506040513d601f19601f82011682018060405250810190610e739190615b27565b5050509150506000600b60009054906101000a90046001600160a01b03166001600160a01b031663313ce5676040518163ffffffff1660e01b8152600401602060405180830381865afa158015610ece573d6000803e3d6000fd5b505050506040513d601f19601f82011682018060405250810190610ef29190615b77565b9050600082610f02836012615bb0565b610f0d90600a615cad565b610f179087615cbc565b610f219190615cd3565b95945050505050565b600060208190529081526040902080546001820180546001600160a01b039092169291610f56906158c4565b80601f0160208091040260200160405190810160405280929190818152602001828054610f82906158c4565b8015610fcf5780601f10610fa457610100808354040283529160200191610fcf565b820191906000526020600020905b815481529060010190602001808311610fb257829003601f168201915b505050505090806002018054610fe4906158c4565b80601f0160208091040260200160405190810160405280929190818152602001828054611010906158c4565b801561105d5780601f106110325761010080835404028352916020019161105d565b820191906000526020600020905b81548152906001019060200180831161104057829003601f168201915b505050505090806003018054611072906158c4565b80601f016020809104026020016040519081016040528092919081815260200182805461109e906158c4565b80156110eb5780601f106110c0576101008083540402835291602001916110eb565b820191906000526020600020905b8154815290600101906020018083116110ce57829003601f168201915b5050505050905084565b60006007838154811061110a5761110a615898565b906000526020600020906010020190508281600001541461113d5760405162461bcd60e51b8152600401610ad190615a0b565b6001600b82015460ff16600681111561115857611158615387565b146111b35760405162461bcd60e51b815260206004820152602560248201527f4f72646572206d75737420626520696e207468652070726f63657373696e6720604482015264737461746560d81b6064820152608401610ad1565b60058181018054336001600160a01b03199091168117909155600d830184905542600f840155600b8301805460ff1916600217905560009081526020918252604081208354815460018101835591835292909120015561121283614ca7565b505050565b60608060006007848154811061122f5761122f615898565b90600052602060002090601002019050838160000154146112625760405162461bcd60e51b8152600401610ad190615a0b565b60018101546001600160a01b0316600090815260208190526040812060068301549091906001600160401b0381111561129d5761129d6158ae565b60405190808252806020026020018201604052801561130257816020015b6112ef6040518060a00160405280600081526020016060815260200160608152602001600081526020016000151581525090565b8152602001906001900390816112bb5790505b50905060005b60068401548110156114e157600084600601828154811061132b5761132b615898565b9060005260206000200154905083600401818154811061134d5761134d615898565b90600052602060002090600502016040518060a001604052908160008201548152602001600182018054611380906158c4565b80601f01602080910402602001604051908101604052809291908181526020018280546113ac906158c4565b80156113f95780601f106113ce576101008083540402835291602001916113f9565b820191906000526020600020905b8154815290600101906020018083116113dc57829003601f168201915b50505050508152602001600282018054611412906158c4565b80601f016020809104026020016040519081016040528092919081815260200182805461143e906158c4565b801561148b5780601f106114605761010080835404028352916020019161148b565b820191906000526020600020905b81548152906001019060200180831161146e57829003601f168201915b50505091835250506003820154602082015260049091015460ff16151560409091015283518490849081106114c2576114c2615898565b60200260200101819052505080806114d990615cf5565b915050611308565b5080836007018080548060200260200160405190810160405280929190818152602001828054801561153257602002820191906000526020600020905b81548152602001906001019080831161151e575b5050505050905094509450505050915091565b6001600160a01b0386166000908152602081905260408120819081805b888110156116565760048301548a8a8381811061158157611581615898565b90506020020135106115c75760405162461bcd60e51b815260206004820152600f60248201526e125b9d985b1a59081a5d195b481251608a1b6044820152606401610ad1565b6000836004018b8b848181106115df576115df615898565b90506020020135815481106115f6576115f6615898565b9060005260206000209060050201905088888381811061161857611618615898565b9050602002013561162c8260030154610df9565b6116369190615cbc565b6116409084615d0e565b925050808061164e90615cf5565b915050611562565b50600061166286610df9565b919b919a509098505050505050505050565b60006007838154811061168957611689615898565b90600052602060002090601002019050828160000154146116bc5760405162461bcd60e51b8152600401610ad190615a0b565b60018101546001600160a01b0316331461173e5760405162461bcd60e51b815260206004820152603e60248201527f4f6e6c79207468652072657374617572616e7420666f7220776869636820746860448201527f65206f7264657220776173206d6164652063616e2061636365707420697400006064820152608401610ad1565b6000600b82015460ff16600681111561175957611759615387565b146117c55760405162461bcd60e51b815260206004820152603660248201527f43616e206f6e6c7920616363657074206f726465727320666f7220776869636860448201527520746865207374617475732069732050454e44494e4760501b6064820152608401610ad1565b600c81019190915542600e820155600b01805460ff191660019081179091556006805491820181556000527ff652222313e28459528d920b65115c16c04f3efc82aaedc97be59f3f377c0d3f0155565b33600081815260016020819052604090912080546001600160a01b03191690921782558101611845838583615a4d565b5050600980546001810182556000919091527f6e1540171b6c0c960b71a7020d9f60077f6af931a8bbf590da0223dacf75c7af0180546001600160a01b031916331790555050565b6000600782815481106118a2576118a2615898565b90600052602060002090601002019050818160000154146118d55760405162461bcd60e51b8152600401610ad190615a0b565b60048101546001600160a01b0316331461193b5760405162461bcd60e51b815260206004820152602160248201527f4f72646572206d7573742062652063616e63656c6c656420627920636c69656e6044820152601d60fa1b6064820152608401610ad1565b6005600b82015460ff16600681111561195657611956615387565b1415801561197d57506006600b82015460ff16600681111561197a5761197a615387565b14155b6119ef5760405162461bcd60e51b815260206004820152603860248201527f4f726465722063616e6e6f7420626520696e2044454c495645524544206f722060448201527f43414e43454c4c45442073746174757320616c726561647900000000000000006064820152608401610ad1565b600481015460018201546001600160a01b0391821691166000600b84015460ff166006811115611a2157611a21615387565b1480611a4557506001600b84015460ff166006811115611a4357611a43615387565b145b80611a6857506002600b84015460ff166006811115611a6657611a66615387565b145b15611ac657816001600160a01b03166108fc84600801548560090154611a8e9190615d0e565b6040518115909202916000818181858888f19350505050611ac15760405162461bcd60e51b8152600401610ad190615d21565b611c91565b6003600b84015460ff166006811115611ae157611ae1615387565b03611b9e5760098301546040516001600160a01b0383169180156108fc02916000818181858888f19350505050611b5a5760405162461bcd60e51b815260206004820152601b60248201527f4661696c656420746f20726566756e642072657374617572616e7400000000006044820152606401610ad1565b60088301546040516001600160a01b0384169180156108fc02916000818181858888f19350505050611ac15760405162461bcd60e51b8152600401610ad190615d21565b600483015460098401546040516001600160a01b039283169284169180156108fc02916000818181858888f19350505050611c1b5760405162461bcd60e51b815260206004820152601b60248201527f4661696c656420746f20726566756e642072657374617572616e7400000000006044820152606401610ad1565b60088401546040516001600160a01b0383169180156108fc02916000818181858888f19350505050611c8f5760405162461bcd60e51b815260206004820152601860248201527f4661696c656420746f20726566756e6420636f757269657200000000000000006044820152606401610ad1565b505b5050600b01805460ff1916600617905550565b6001602081905260009182526040909120805491810180546001600160a01b0390931692611cd1906158c4565b80601f0160208091040260200160405190810160405280929190818152602001828054611cfd906158c4565b8015611d4a5780601f10611d1f57610100808354040283529160200191611d4a565b820191906000526020600020905b815481529060010190602001808311611d2d57829003601f168201915b5050505050905082565b6001600160a01b0381166000908152600460209081526040808320805482518185028101850190935280835260609493830182828015611db357602002820191906000526020600020905b815481526020019060010190808311611d9f575b50505050509050600081516001600160401b03811115611dd557611dd56158ae565b604051908082528060200260200182016040528015611e0e57816020015b611dfb614d63565b815260200190600190039081611df35790505b50905060005b82518110156121d0576000838281518110611e3157611e31615898565b6020026020010151905060078181548110611e4e57611e4e615898565b906000526020600020906010020160405180610200016040529081600082015481526020016001820160009054906101000a90046001600160a01b03166001600160a01b03166001600160a01b03168152602001600282018054611eb1906158c4565b80601f0160208091040260200160405190810160405280929190818152602001828054611edd906158c4565b8015611f2a5780601f10611eff57610100808354040283529160200191611f2a565b820191906000526020600020905b815481529060010190602001808311611f0d57829003601f168201915b50505050508152602001600382018054611f43906158c4565b80601f0160208091040260200160405190810160405280929190818152602001828054611f6f906158c4565b8015611fbc5780601f10611f9157610100808354040283529160200191611fbc565b820191906000526020600020905b815481529060010190602001808311611f9f57829003601f168201915b505050918352505060048201546001600160a01b039081166020808401919091526005840154909116604080840191909152600684018054825181850281018501909352808352606090940193919290919083018282801561203d57602002820191906000526020600020905b815481526020019060010190808311612029575b505050505081526020016007820180548060200260200160405190810160405280929190818152602001828054801561209557602002820191906000526020600020905b815481526020019060010190808311612081575b505050505081526020016008820154815260200160098201548152602001600a820180546120c2906158c4565b80601f01602080910402602001604051908101604052809291908181526020018280546120ee906158c4565b801561213b5780601f106121105761010080835404028352916020019161213b565b820191906000526020600020905b81548152906001019060200180831161211e57829003601f168201915b5050509183525050600b82015460209091019060ff16600681111561216257612162615387565b600681111561217357612173615387565b8152602001600c8201548152602001600d8201548152602001600e8201548152602001600f820154815250508383815181106121b1576121b1615898565b60200260200101819052505080806121c890615cf5565b915050611e14565b509392505050565b33600090815260208181526040808320600481018054835160a0810185528181528451601f8c018790048702810187019095528a855292949093919291828201918c908c9081908401838280828437600092019190915250505090825250604080516020601f8b0181900481028201810190925289815291810191908a908a9081908401838280828437600092018290525093855250505060208083018990526001604090930183905284548084018655948252908190208351600590950201938455820151919291908201906122af908261594c565b50604082015160028201906122c4908261594c565b50606082015160038201556080909101516004909101805460ff1916911515919091179055979650505050505050565b6123286040518060a00160405280600081526020016060815260200160608152602001600081526020016000151581525090565b6001600160a01b038316600090815260208190526040902060040180548390811061235557612355615898565b90600052602060002090600502016040518060a001604052908160008201548152602001600182018054612388906158c4565b80601f01602080910402602001604051908101604052809291908181526020018280546123b4906158c4565b80156124015780601f106123d657610100808354040283529160200191612401565b820191906000526020600020905b8154815290600101906020018083116123e457829003601f168201915b5050505050815260200160028201805461241a906158c4565b80601f0160208091040260200160405190810160405280929190818152602001828054612446906158c4565b80156124935780601f1061246857610100808354040283529160200191612493565b820191906000526020600020905b81548152906001019060200180831161247657829003601f168201915b50505091835250506003820154602082015260049091015460ff16151560409091015290505b92915050565b600681815481106124cf57600080fd5b600091825260209091200154905081565b6001600160a01b038116600090815260026020908152604080832080548251818502810185019093528083526060949383018282801561253f57602002820191906000526020600020905b81548152602001906001019080831161252b575b50505050509050600081516001600160401b03811115612561576125616158ae565b60405190808252806020026020018201604052801561259a57816020015b612587614d63565b81526020019060019003908161257f5790505b50905060005b82518110156121d05760008382815181106125bd576125bd615898565b60200260200101519050600781815481106125da576125da615898565b906000526020600020906010020160405180610200016040529081600082015481526020016001820160009054906101000a90046001600160a01b03166001600160a01b03166001600160a01b0316815260200160028201805461263d906158c4565b80601f0160208091040260200160405190810160405280929190818152602001828054612669906158c4565b80156126b65780601f1061268b576101008083540402835291602001916126b6565b820191906000526020600020905b81548152906001019060200180831161269957829003601f168201915b505050505081526020016003820180546126cf906158c4565b80601f01602080910402602001604051908101604052809291908181526020018280546126fb906158c4565b80156127485780601f1061271d57610100808354040283529160200191612748565b820191906000526020600020905b81548152906001019060200180831161272b57829003601f168201915b505050918352505060048201546001600160a01b03908116602080840191909152600584015490911660408084019190915260068401805482518185028101850190935280835260609094019391929091908301828280156127c957602002820191906000526020600020905b8154815260200190600101908083116127b5575b505050505081526020016007820180548060200260200160405190810160405280929190818152602001828054801561282157602002820191906000526020600020905b81548152602001906001019080831161280d575b505050505081526020016008820154815260200160098201548152602001600a8201805461284e906158c4565b80601f016020809104026020016040519081016040528092919081815260200182805461287a906158c4565b80156128c75780601f1061289c576101008083540402835291602001916128c7565b820191906000526020600020905b8154815290600101906020018083116128aa57829003601f168201915b5050509183525050600b82015460209091019060ff1660068111156128ee576128ee615387565b60068111156128ff576128ff615387565b8152602001600c8201548152602001600d8201548152602001600e8201548152602001600f8201548152505083838151811061293d5761293d615898565b602002602001018190525050808061295490615cf5565b9150506125a0565b6008818154811061296c57600080fd5b6000918252602090912001546001600160a01b0316905081565b60608060006008805490506001600160401b038111156129a8576129a86158ae565b604051908082528060200260200182016040528015612a1457816020015b612a016040518060a0016040528060006001600160a01b03168152602001606081526020016060815260200160608152602001606081525090565b8152602001906001900390816129c65790505b506008549091506000906001600160401b03811115612a3557612a356158ae565b604051908082528060200260200182016040528015612a5e578160200160208202803683370190505b50905060005b600854811015612e7e57600060088281548110612a8357612a83615898565b60009182526020808320909101546001600160a01b03908116808452838352604093849020845160a0810190955280549092168452600182018054919550919392849290840191612ad3906158c4565b80601f0160208091040260200160405190810160405280929190818152602001828054612aff906158c4565b8015612b4c5780601f10612b2157610100808354040283529160200191612b4c565b820191906000526020600020905b815481529060010190602001808311612b2f57829003601f168201915b50505050508152602001600282018054612b65906158c4565b80601f0160208091040260200160405190810160405280929190818152602001828054612b91906158c4565b8015612bde5780601f10612bb357610100808354040283529160200191612bde565b820191906000526020600020905b815481529060010190602001808311612bc157829003601f168201915b50505050508152602001600382018054612bf7906158c4565b80601f0160208091040260200160405190810160405280929190818152602001828054612c23906158c4565b8015612c705780601f10612c4557610100808354040283529160200191612c70565b820191906000526020600020905b815481529060010190602001808311612c5357829003601f168201915b5050505050815260200160048201805480602002602001604051908101604052809291908181526020016000905b82821015612e1d57838290600052602060002090600502016040518060a001604052908160008201548152602001600182018054612cdb906158c4565b80601f0160208091040260200160405190810160405280929190818152602001828054612d07906158c4565b8015612d545780601f10612d2957610100808354040283529160200191612d54565b820191906000526020600020905b815481529060010190602001808311612d3757829003601f168201915b50505050508152602001600282018054612d6d906158c4565b80601f0160208091040260200160405190810160405280929190818152602001828054612d99906158c4565b8015612de65780601f10612dbb57610100808354040283529160200191612de6565b820191906000526020600020905b815481529060010190602001808311612dc957829003601f168201915b5050509183525050600382015460208083019190915260049092015460ff1615156040909101529082526001929092019101612c9e565b5050505081525050858481518110612e3757612e37615898565b6020026020010181905250612e4b826143ca565b848481518110612e5d57612e5d615898565b60200260200101818152505050508080612e7690615cf5565b915050612a64565b5090939092509050565b60606000805b600754811015612f0a57836006811115612eaa57612eaa615387565b60078281548110612ebd57612ebd615898565b60009182526020909120600b601090920201015460ff166006811115612ee557612ee5615387565b03612ef85781612ef481615cf5565b9250505b80612f0281615cf5565b915050612e8e565b506000816001600160401b03811115612f2557612f256158ae565b604051908082528060200260200182016040528015612f5e57816020015b612f4b614d63565b815260200190600190039081612f435790505b5090506000805b60075481101561336357856006811115612f8157612f81615387565b60078281548110612f9457612f94615898565b60009182526020909120600b601090920201015460ff166006811115612fbc57612fbc615387565b036133515760078181548110612fd457612fd4615898565b906000526020600020906010020160405180610200016040529081600082015481526020016001820160009054906101000a90046001600160a01b03166001600160a01b03166001600160a01b03168152602001600282018054613037906158c4565b80601f0160208091040260200160405190810160405280929190818152602001828054613063906158c4565b80156130b05780601f10613085576101008083540402835291602001916130b0565b820191906000526020600020905b81548152906001019060200180831161309357829003601f168201915b505050505081526020016003820180546130c9906158c4565b80601f01602080910402602001604051908101604052809291908181526020018280546130f5906158c4565b80156131425780601f1061311757610100808354040283529160200191613142565b820191906000526020600020905b81548152906001019060200180831161312557829003601f168201915b505050918352505060048201546001600160a01b03908116602080840191909152600584015490911660408084019190915260068401805482518185028101850190935280835260609094019391929091908301828280156131c357602002820191906000526020600020905b8154815260200190600101908083116131af575b505050505081526020016007820180548060200260200160405190810160405280929190818152602001828054801561321b57602002820191906000526020600020905b815481526020019060010190808311613207575b505050505081526020016008820154815260200160098201548152602001600a82018054613248906158c4565b80601f0160208091040260200160405190810160405280929190818152602001828054613274906158c4565b80156132c15780601f10613296576101008083540402835291602001916132c1565b820191906000526020600020905b8154815290600101906020018083116132a457829003601f168201915b5050509183525050600b82015460209091019060ff1660068111156132e8576132e8615387565b60068111156132f9576132f9615387565b8152602001600c8201548152602001600d8201548152602001600e8201548152602001600f8201548152505083838151811061333757613337615898565b6020026020010181905250818061334d90615cf5565b9250505b8061335b81615cf5565b915050612f65565b5090949350505050565b3360009081526020819052604081206004810180549192918490811061339557613395615898565b60009182526020909120600590910201600401805460ff19169115159190911790555050565b6005602052816000526040600020818154811061094c57600080fd5b6133fb60405180606001604052806000815260200160008152602001606081525090565b60036000838152602001908152602001600020604051806060016040529081600082015481526020016001820154815260200160028201805461343d906158c4565b80601f0160208091040260200160405190810160405280929190818152602001828054613469906158c4565b80156134b65780601f1061348b576101008083540402835291602001916134b6565b820191906000526020600020905b81548152906001019060200180831161349957829003601f168201915b5050505050815250509050919050565b6000600782815481106134db576134db615898565b906000526020600020906010020190508181600001541461350e5760405162461bcd60e51b8152600401610ad190615a0b565b6001600b82015460ff16600681111561352957613529615387565b1461353357600080fd5b60048101546001600160a01b031633146135aa5760405162461bcd60e51b815260206004820152603260248201527f4f726465722064656c697665727920666565206d75737420626520696e637265604482015271185cd95908189e481d1a194818db1a595b9d60721b6064820152608401610ad1565b3481600801546135ba9190615d0e565b60089091015550565b336000908152602081905260409020600481018054600191908490811061339557613395615898565b600781815481106135fc57600080fd5b60009182526020909120601090910201805460018201546002830180549294506001600160a01b039091169291613632906158c4565b80601f016020809104026020016040519081016040528092919081815260200182805461365e906158c4565b80156136ab5780601f10613680576101008083540402835291602001916136ab565b820191906000526020600020905b81548152906001019060200180831161368e57829003601f168201915b5050505050908060030180546136c0906158c4565b80601f01602080910402602001604051908101604052809291908181526020018280546136ec906158c4565b80156137395780601f1061370e57610100808354040283529160200191613739565b820191906000526020600020905b81548152906001019060200180831161371c57829003601f168201915b5050506004840154600585015460088601546009870154600a8801805497986001600160a01b03958616989490951696509194509291613778906158c4565b80601f01602080910402602001604051908101604052809291908181526020018280546137a4906158c4565b80156137f15780601f106137c6576101008083540402835291602001916137f1565b820191906000526020600020905b8154815290600101906020018083116137d457829003601f168201915b505050600b840154600c850154600d860154600e870154600f90970154959660ff9093169591945092508e565b6001600160a01b03808916600090815260208190526040902080549091166138885760405162461bcd60e51b815260206004820152601a60248201527f496e76616c69642072657374617572616e7420616464726573730000000000006044820152606401610ad1565b60005b8781101561394457816004018989838181106138a9576138a9615898565b90506020020135815481106138c0576138c0615898565b600091825260209091206004600590920201015460ff1615156001146139345760405162461bcd60e51b815260206004820152602360248201527f4f7264657220636f6e7461696e7320756e617661696c61626c65206974656d7360448201526217171760e91b6064820152608401610ad1565b61393d81615cf5565b905061388b565b506000806139568b8b8b8b8b8b611545565b90925090506139658183615d0e565b3410156139ac5760405162461bcd60e51b8152602060048201526015602482015274125b98dbdc9c9958dd08185b5bdd5b9d081c185a59605a1b6044820152606401610ad1565b600060405180610200016040528060078054905081526020018d6001600160a01b031681526020018560010180546139e3906158c4565b80601f0160208091040260200160405190810160405280929190818152602001828054613a0f906158c4565b8015613a5c5780601f10613a3157610100808354040283529160200191613a5c565b820191906000526020600020905b815481529060010190602001808311613a3f57829003601f168201915b50505050508152602001856003018054613a75906158c4565b80601f0160208091040260200160405190810160405280929190818152602001828054613aa1906158c4565b8015613aee5780601f10613ac357610100808354040283529160200191613aee565b820191906000526020600020905b815481529060010190602001808311613ad157829003601f168201915b50505050508152602001336001600160a01b0316815260200160006001600160a01b031681526020018c8c808060200260200160405190810160405280939291908181526020018383602002808284376000920191909152505050908252506040805160208c810282810182019093528c82529283019290918d918d918291850190849080828437600092019190915250505090825250602080820185905260408083018790528051601f8a01839004830281018301909152888152606090920191908990899081908401838280828437600092018290525093855250505060208083018290526040808401839052606084018390526080840183905260a090930182905260078054600181018255925283517fa66cc928b5edb82af9bd49922954155ab7b0942694bea4ce44661d9a8736c6886010909302928301908155908401517fa66cc928b5edb82af9bd49922954155ab7b0942694bea4ce44661d9a8736c689830180546001600160a01b0319166001600160a01b039092169190911790559183015192935083927fa66cc928b5edb82af9bd49922954155ab7b0942694bea4ce44661d9a8736c68a90910190613ca9908261594c565b5060608201516003820190613cbe908261594c565b5060808201516004820180546001600160a01b039283166001600160a01b03199182161790915560a084015160058401805491909316911617905560c08201518051613d14916006840191602090910190614e0c565b5060e08201518051613d30916007840191602090910190614e0c565b5061010082015160088201556101208201516009820155610140820151600a820190613d5c908261594c565b50610160820151600b8201805460ff19166001836006811115613d8157613d81615387565b0217905550610180820151600c8201556101a0820151600d8201556101c0820151600e8201556101e090910151600f90910155336000908152600260209081526040808320845181546001818101845592865284862001556001600160a01b039f909f168352600482528220925183549e8f0184559282529020909b019a909a5550505050505050505050565b6009818154811061296c57600080fd5b600060078281548110613e3357613e33615898565b9060005260206000209060100201905081816000015414613e665760405162461bcd60e51b8152600401610ad190615a0b565b60018101546001600160a01b03163314613ed45760405162461bcd60e51b815260206004820152602960248201527f4f6e6c79207468652072657374617572616e742063616e206465636c696e65206044820152683a34329037b93232b960b91b6064820152608401610ad1565b6000600b82015460ff166006811115613eef57613eef615387565b14613f345760405162461bcd60e51b81526020600482015260156024820152744f72646572206d7573742062652070656e64696e6760581b6044820152606401610ad1565b6004810154600882015460098301546001600160a01b039092169182916108fc91613f5f9190615d0e565b6040518115909202916000818181858888f19350505050613f925760405162461bcd60e51b8152600401610ad190615d21565b50600b01805460ff1916600617905550565b6002602052816000526040600020818154811061094c57600080fd5b600060078281548110613fd557613fd5615898565b90600052602060002090601002019050818160000154146140085760405162461bcd60e51b8152600401610ad190615a0b565b6004600b82015460ff16600681111561402357614023615387565b1461402d57600080fd5b60048101546001600160a01b0316331461409c5760405162461bcd60e51b815260206004820152602a60248201527f4f726465722064656c6976657279206d75737420626520636f6e6669726d656460448201526908189e4818db1a595b9d60b21b6064820152608401610ad1565b600081600e015482600f01546140b29190615d58565b9050600082600f0154426140c69190615d58565b90506000836008015484600901546140de9190615d0e565b9050600080600080600a905087600c01548711156141155760648860090154826141089190615cbc565b6141129190615cd3565b92505b87600d01548611156141405760648860080154826141339190615cbc565b61413d9190615cd3565b91505b6001880154600589015460048a015460098b01546001600160a01b03938416939283169290911690600090614176908890615d58565b90506000868d6008015461418a9190615d58565b6040519091506001600160a01b0386169083156108fc029084906000818181858888f1935050505061420a5760405162461bcd60e51b8152602060048201526024808201527f4661696c656420746f2073656e64207061796d656e7420746f207265737461756044820152631c985b9d60e21b6064820152608401610ad1565b6040516001600160a01b0385169082156108fc029083906000818181858888f193505050506142855760405162461bcd60e51b815260206004820152602160248201527f4661696c656420746f2073656e64207061796d656e7420746f20636f757269656044820152603960f91b6064820152608401610ad1565b6001600160a01b0383166108fc61429c898b615d0e565b6040518115909202916000818181858888f193505050506142ff5760405162461bcd60e51b815260206004820181905260248201527f4661696c656420746f2073656e64207061796d656e7420746f20636c69656e746044820152606401610ad1565b50505050600b98909801805460ff19166005179055505050505050505050565b60036020526000908152604090208054600182015460028301805492939192614347906158c4565b80601f0160208091040260200160405190810160405280929190818152602001828054614373906158c4565b80156143c05780601f10614395576101008083540402835291602001916143c0565b820191906000526020600020905b8154815290600101906020018083116143a357829003601f168201915b5050505050905083565b60008080805b6001600160a01b038516600090815260046020526040902054811015614483576001600160a01b038516600090815260046020526040812080548390811061441a5761441a615898565b9060005260206000200154905080600360008381526020019081526020016000206000015403614470576000818152600360205260409020600101546144609085615d0e565b93508261446c81615cf5565b9350505b508061447b81615cf5565b9150506143d0565b5080600003614496575060009392505050565b6144a08183615cd3565b949350505050565b6001600160a01b038116600090815260056020908152604080832080548251818502810185019093528083526060949383018282801561450757602002820191906000526020600020905b8154815260200190600101908083116144f3575b50505050509050600081516001600160401b03811115614529576145296158ae565b60405190808252806020026020018201604052801561456257816020015b61454f614d63565b8152602001906001900390816145475790505b50905060005b82518110156121d057600083828151811061458557614585615898565b60200260200101519050600781815481106145a2576145a2615898565b906000526020600020906010020160405180610200016040529081600082015481526020016001820160009054906101000a90046001600160a01b03166001600160a01b03166001600160a01b03168152602001600282018054614605906158c4565b80601f0160208091040260200160405190810160405280929190818152602001828054614631906158c4565b801561467e5780601f106146535761010080835404028352916020019161467e565b820191906000526020600020905b81548152906001019060200180831161466157829003601f168201915b50505050508152602001600382018054614697906158c4565b80601f01602080910402602001604051908101604052809291908181526020018280546146c3906158c4565b80156147105780601f106146e557610100808354040283529160200191614710565b820191906000526020600020905b8154815290600101906020018083116146f357829003601f168201915b505050918352505060048201546001600160a01b039081166020808401919091526005840154909116604080840191909152600684018054825181850281018501909352808352606090940193919290919083018282801561479157602002820191906000526020600020905b81548152602001906001019080831161477d575b50505050508152602001600782018054806020026020016040519081016040528092919081815260200182805480156147e957602002820191906000526020600020905b8154815260200190600101908083116147d5575b505050505081526020016008820154815260200160098201548152602001600a82018054614816906158c4565b80601f0160208091040260200160405190810160405280929190818152602001828054614842906158c4565b801561488f5780601f106148645761010080835404028352916020019161488f565b820191906000526020600020905b81548152906001019060200180831161487257829003601f168201915b5050509183525050600b82015460209091019060ff1660068111156148b6576148b6615387565b60068111156148c7576148c7615387565b8152602001600c8201548152602001600d8201548152602001600e8201548152602001600f8201548152505083838151811061490557614905615898565b602002602001018190525050808061491c90615cf5565b915050614568565b6001600160a01b038116600090815260208190526040812060040154606091906001600160401b0381111561495b5761495b6158ae565b6040519080825280602002602001820160405280156149c057816020015b6149ad6040518060a00160405280600081526020016060815260200160608152602001600081526020016000151581525090565b8152602001906001900390816149795790505b50905060005b8151811015614b8d576001600160a01b03841660009081526020819052604090206004018054829081106149fc576149fc615898565b90600052602060002090600502016040518060a001604052908160008201548152602001600182018054614a2f906158c4565b80601f0160208091040260200160405190810160405280929190818152602001828054614a5b906158c4565b8015614aa85780601f10614a7d57610100808354040283529160200191614aa8565b820191906000526020600020905b815481529060010190602001808311614a8b57829003601f168201915b50505050508152602001600282018054614ac1906158c4565b80601f0160208091040260200160405190810160405280929190818152602001828054614aed906158c4565b8015614b3a5780601f10614b0f57610100808354040283529160200191614b3a565b820191906000526020600020905b815481529060010190602001808311614b1d57829003601f168201915b50505091835250506003820154602082015260049091015460ff1615156040909101528251839083908110614b7157614b71615898565b602002602001018190525080614b8690615cf5565b90506149c6565b5092915050565b600060078281548110614ba957614ba9615898565b9060005260206000209060100201905081816000015414614bdc5760405162461bcd60e51b8152600401610ad190615a0b565b6002600b82015460ff166006811115614bf757614bf7615387565b14614c0157600080fd5b60018101546001600160a01b03163314614c915760405162461bcd60e51b8152602060048201526044602482018190527f4f72646572206d757374206265206d61726b656420726561647920746f206465908201527f6c69766572206279207468652072657374617572616e74206f6620746865206f606482015263393232b960e11b608482015260a401610ad1565b600b810180546003919060ff1916600183610df0565b60005b600654811015614d5f578160068281548110614cc857614cc8615898565b906000526020600020015403614d4d5760068054614ce890600190615d58565b81548110614cf857614cf8615898565b906000526020600020015460068281548110614d1657614d16615898565b6000918252602090912001556006805480614d3357614d33615d6b565b600190038181906000526020600020016000905590555050565b80614d5781615cf5565b915050614caa565b5050565b6040518061020001604052806000815260200160006001600160a01b03168152602001606081526020016060815260200160006001600160a01b0316815260200160006001600160a01b03168152602001606081526020016060815260200160008152602001600081526020016060815260200160006006811115614dea57614dea615387565b8152602001600081526020016000815260200160008152602001600081525090565b828054828255906000526020600020908101928215614e47579160200282015b82811115614e47578251825591602001919060010190614e2c565b50614e53929150614e57565b5090565b5b80821115614e535760008155600101614e58565b80356001600160a01b0381168114614e8357600080fd5b919050565b60008060408385031215614e9b57600080fd5b614ea483614e6c565b946020939093013593505050565b60008083601f840112614ec457600080fd5b5081356001600160401b03811115614edb57600080fd5b602083019150836020828501011115614ef357600080fd5b9250929050565b60008060008060008060808789031215614f1357600080fd5b8635955060208701356001600160401b0380821115614f3157600080fd5b614f3d8a838b01614eb2565b90975095506040890135915080821115614f5657600080fd5b50614f6389828a01614eb2565b979a9699509497949695606090950135949350505050565b60008060008060608587031215614f9157600080fd5b843593506020850135925060408501356001600160401b03811115614fb557600080fd5b614fc187828801614eb2565b95989497509550505050565b600060208284031215614fdf57600080fd5b614fe882614e6c565b9392505050565b6000806000806000806060878903121561500857600080fd5b86356001600160401b038082111561501f57600080fd5b61502b8a838b01614eb2565b9098509650602089013591508082111561504457600080fd5b6150508a838b01614eb2565b9096509450604089013591508082111561506957600080fd5b5061507689828a01614eb2565b979a9699509497509295939492505050565b60006020828403121561509a57600080fd5b5035919050565b6000815180845260005b818110156150c7576020818501810151868301820152016150ab565b506000602082860101526020601f19601f83011685010191505092915050565b6001600160a01b038516815260806020820181905260009061510b908301866150a1565b828103604084015261511d81866150a1565b9050828103606084015261513181856150a1565b979650505050505050565b6000806040838503121561514f57600080fd5b50508035926020909101359150565b805182526000602082015160a0602085015261517d60a08501826150a1565b90506040830151848203604086015261519682826150a1565b915050606083015160608501526080830151151560808501528091505092915050565b600081518084526020808501808196508360051b8101915082860160005b858110156152015782840389526151ef84835161515e565b988501989350908401906001016151d7565b5091979650505050505050565b600081518084526020808501945080840160005b8381101561523e57815187529582019590820190600101615222565b509495945050505050565b60408152600061525c60408301856151b9565b8281036020840152610f21818561520e565b60008083601f84011261528057600080fd5b5081356001600160401b0381111561529757600080fd5b6020830191508360208260051b8501011115614ef357600080fd5b600080600080600080608087890312156152cb57600080fd5b6152d487614e6c565b955060208701356001600160401b03808211156152f057600080fd5b6152fc8a838b0161526e565b9097509550604089013591508082111561531557600080fd5b50614f6389828a0161526e565b6000806020838503121561533557600080fd5b82356001600160401b0381111561534b57600080fd5b61535785828601614eb2565b90969095509350505050565b6001600160a01b03831681526040602082018190526000906144a0908301846150a1565b634e487b7160e01b600052602160045260246000fd5b600781106153bb57634e487b7160e01b600052602160045260246000fd5b9052565b60006020808301818452808551808352604092508286019150828160051b87010184880160005b8381101561553157603f19898403018552815180518452878101516001600160a01b0316888501528681015161020088860181905290615428828701826150a1565b9150506060808301518683038288015261544283826150a1565b92505050608080830151615460828801826001600160a01b03169052565b505060a0828101516001600160a01b03169086015260c0808301518683038288015261548c838261520e565b9250505060e080830151868303828801526154a7838261520e565b9250505061010080830151818701525061012080830151818701525061014080830151868303828801526154db83826150a1565b92505050610160808301516154f28288018261539d565b505061018082810151908601526101a080830151908601526101c080830151908601526101e091820151919094015293860193908601906001016153e6565b509098975050505050505050565b60008060008060006060868803121561555757600080fd5b85356001600160401b038082111561556e57600080fd5b61557a89838a01614eb2565b9097509550602088013591508082111561559357600080fd5b506155a088828901614eb2565b96999598509660400135949350505050565b602081526000614fe8602083018461515e565b60006040808301818452808651808352606092508286019150828160051b8701016020808a0160005b8481101561568857898403605f19018652815180516001600160a01b031685528381015160a085870181905290615627828801826150a1565b915050898201518682038b88015261563f82826150a1565b915050888201518682038a88015261565782826150a1565b9150506080808301519250868203818801525061567481836151b9565b9785019795505050908201906001016155ee565b50508782039088015261569b818961520e565b9998505050505050505050565b6000602082840312156156ba57600080fd5b813560078110614fe857600080fd5b602081528151602082015260208201516040820152600060408301516060808401526144a060808401826150a1565b8e81526001600160a01b038e1660208201526101c0604082015260006157226101c083018f6150a1565b8281036060840152615734818f6150a1565b6001600160a01b038e16608085015290506001600160a01b038c1660a08401528a60c08401528960e0840152828103610100840152615773818a6150a1565b91505061578461012083018861539d565b856101408301528461016083015283610180830152826101a08301529f9e505050505050505050505050505050565b60008060008060008060008060a0898b0312156157cf57600080fd5b6157d889614e6c565b975060208901356001600160401b03808211156157f457600080fd5b6158008c838d0161526e565b909950975060408b013591508082111561581957600080fd5b6158258c838d0161526e565b909750955060608b0135945060808b013591508082111561584557600080fd5b506158528b828c01614eb2565b999c989b5096995094979396929594505050565b838152826020820152606060408201526000610f2160608301846150a1565b602081526000614fe860208301846151b9565b634e487b7160e01b600052603260045260246000fd5b634e487b7160e01b600052604160045260246000fd5b600181811c908216806158d857607f821691505b6020821081036158f857634e487b7160e01b600052602260045260246000fd5b50919050565b601f82111561121257600081815260208120601f850160051c810160208610156159255750805b601f850160051c820191505b8181101561594457828155600101615931565b505050505050565b81516001600160401b03811115615965576159656158ae565b6159798161597384546158c4565b846158fe565b602080601f8311600181146159ae57600084156159965750858301515b600019600386901b1c1916600185901b178555615944565b600085815260208120601f198616915b828110156159dd578886015182559484019460019091019084016159be565b50858210156159fb5787850151600019600388901b60f8161c191681555b5050505050600190811b01905550565b60208082526022908201527f4f72646572207769746820676976656e20696420646f6573206e6f74206578696040820152611cdd60f21b606082015260800190565b6001600160401b03831115615a6457615a646158ae565b615a7883615a7283546158c4565b836158fe565b6000601f841160018114615aac5760008515615a945750838201355b600019600387901b1c1916600186901b178355615b06565b600083815260209020601f19861690835b82811015615add5786850135825560209485019460019092019101615abd565b5086821015615afa5760001960f88860031b161c19848701351681555b505060018560011b0183555b5050505050565b805169ffffffffffffffffffff81168114614e8357600080fd5b600080600080600060a08688031215615b3f57600080fd5b615b4886615b0d565b9450602086015193506040860151925060608601519150615b6b60808701615b0d565b90509295509295909350565b600060208284031215615b8957600080fd5b815160ff81168114614fe857600080fd5b634e487b7160e01b600052601160045260246000fd5b60ff81811683821601908111156124b9576124b9615b9a565b600181815b80851115615c04578160001904821115615bea57615bea615b9a565b80851615615bf757918102915b93841c9390800290615bce565b509250929050565b600082615c1b575060016124b9565b81615c28575060006124b9565b8160018114615c3e5760028114615c4857615c64565b60019150506124b9565b60ff841115615c5957615c59615b9a565b50506001821b6124b9565b5060208310610133831016604e8410600b8410161715615c87575081810a6124b9565b615c918383615bc9565b8060001904821115615ca557615ca5615b9a565b029392505050565b6000614fe860ff841683615c0c565b80820281158282048414176124b9576124b9615b9a565b600082615cf057634e487b7160e01b600052601260045260246000fd5b500490565b600060018201615d0757615d07615b9a565b5060010190565b808201808211156124b9576124b9615b9a565b60208082526017908201527f4661696c656420746f20726566756e6420636c69656e74000000000000000000604082015260600190565b818103818111156124b9576124b9615b9a565b634e487b7160e01b600052603160045260246000fdfea2646970667358221220b68b62ab155b4de2ffd38ec387ee5870235181f5d6973d747d008b0f1cdba27f64736f6c63430008110033","bytecodeSha1":"156fa1e8c3f7703dec59da6bb87405329c48e277","compiler":{"evm_version":"istanbul","optimizer":{"enabled":true,"runs":200},"version":"0.8.17+commit.8df45f5f"},"contractName":"FoodDelivery","language":"Solidity","natspec":{"kind":"dev","methods":{},"version":1},"opcodes":"PUSH1 0x80 PUSH1 0x40 MSTORE PUSH1 0x4 CALLDATASIZE LT PUSH2 0x27D JUMPI PUSH1 0x0 CALLDATALOAD PUSH1 0xE0 SHR DUP1 PUSH4 0x85B6EC06 GT PUSH2 0x14F JUMPI DUP1 PUSH4 0xBE47DCA1 GT PUSH2 0xC1 JUMPI DUP1 PUSH4 0xE83DDCEA GT PUSH2 0x7A JUMPI DUP1 PUSH4 0xE83DDCEA EQ PUSH2 0x85F JUMPI DUP1 PUSH4 0xEFF6ED6B EQ PUSH2 0x88E JUMPI DUP1 PUSH4 0xF13B84B6 EQ PUSH2 0x8A3 JUMPI DUP1 PUSH4 0xF59AC62A EQ PUSH2 0x8C3 JUMPI DUP1 PUSH4 0xFAA9BD14 EQ PUSH2 0x8E3 JUMPI DUP1 PUSH4 0xFEDF1A87 EQ PUSH2 0x910 JUMPI PUSH1 0x0 DUP1 REVERT JUMPDEST DUP1 PUSH4 0xBE47DCA1 EQ PUSH2 0x77B JUMPI DUP1 PUSH4 0xC59C521A EQ PUSH2 0x790 JUMPI DUP1 PUSH4 0xCCBDB85C EQ PUSH2 0x7C9 JUMPI DUP1 PUSH4 0xD3168A66 EQ PUSH2 0x7E9 JUMPI DUP1 PUSH4 0xDEE9E164 EQ PUSH2 0x81F JUMPI DUP1 PUSH4 0xE742A182 EQ PUSH2 0x83F JUMPI PUSH1 0x0 DUP1 REVERT JUMPDEST DUP1 PUSH4 0x990581B6 GT PUSH2 0x113 JUMPI DUP1 PUSH4 0x990581B6 EQ PUSH2 0x6AE JUMPI DUP1 PUSH4 0x9B51BD21 EQ PUSH2 0x6DB JUMPI DUP1 PUSH4 0x9CBCFED5 EQ PUSH2 0x6EE JUMPI DUP1 PUSH4 0xA85C38EF EQ PUSH2 0x70E JUMPI DUP1 PUSH4 0xABFD0687 EQ PUSH2 0x748 JUMPI DUP1 PUSH4 0xBDACE182 EQ PUSH2 0x75B JUMPI PUSH1 0x0 DUP1 REVERT JUMPDEST DUP1 PUSH4 0x85B6EC06 EQ PUSH2 0x60B JUMPI DUP1 PUSH4 0x87734400 EQ PUSH2 0x62B JUMPI DUP1 PUSH4 0x8CE2EC79 EQ PUSH2 0x64E JUMPI DUP1 PUSH4 0x92184BFB EQ PUSH2 0x66E JUMPI DUP1 PUSH4 0x9827E44D EQ PUSH2 0x68E JUMPI PUSH1 0x0 DUP1 REVERT JUMPDEST DUP1 PUSH4 0x3D05A334 GT PUSH2 0x1F3 JUMPI DUP1 PUSH4 0x626E388B GT PUSH2 0x1AC JUMPI DUP1 PUSH4 0x626E388B EQ PUSH2 0x53C JUMPI DUP1 PUSH4 0x64432EB8 EQ PUSH2 0x569 JUMPI DUP1 PUSH4 0x68AD5B83 EQ PUSH2 0x589 JUMPI DUP1 PUSH4 0x6D4166E9 EQ PUSH2 0x5B6 JUMPI DUP1 PUSH4 0x708D2612 EQ PUSH2 0x5CB JUMPI DUP1 PUSH4 0x747CF8C6 EQ PUSH2 0x5EB JUMPI PUSH1 0x0 DUP1 REVERT JUMPDEST DUP1 PUSH4 0x3D05A334 EQ PUSH2 0x440 JUMPI DUP1 PUSH4 0x42F6FB29 EQ PUSH2 0x460 JUMPI DUP1 PUSH4 0x4C6448FE EQ PUSH2 0x498 JUMPI DUP1 PUSH4 0x4D649A42 EQ PUSH2 0x4B8 JUMPI DUP1 PUSH4 0x514FCAC7 EQ PUSH2 0x4EE JUMPI DUP1 PUSH4 0x61EED2A9 EQ PUSH2 0x50E JUMPI PUSH1 0x0 DUP1 REVERT JUMPDEST DUP1 PUSH4 0x1AE78A85 GT PUSH2 0x245 JUMPI DUP1 PUSH4 0x1AE78A85 EQ PUSH2 0x34D JUMPI DUP1 PUSH4 0x226AFFB8 EQ PUSH2 0x36D JUMPI DUP1 PUSH4 0x236CD7DC EQ PUSH2 0x38D JUMPI DUP1 PUSH4 0x2EAB93CB EQ PUSH2 0x3BD JUMPI DUP1 PUSH4 0x37A3F817 EQ PUSH2 0x3DD JUMPI DUP1 PUSH4 0x3A2D20D1 EQ PUSH2 0x40B JUMPI PUSH1 0x0 DUP1 REVERT JUMPDEST DUP1 PUSH4 0x2682893 EQ PUSH2 0x282 JUMPI DUP1 PUSH4 0x6A6034F EQ PUSH2 0x2B5 JUMPI DUP1 PUSH4 0xBBACB20 EQ PUSH2 0x2D5 JUMPI DUP1 PUSH4 0xBDC3B22 EQ PUSH2 0x2F7 JUMPI DUP1 PUSH4 0x1569E858 EQ PUSH2 0x32D JUMPI JUMPDEST PUSH1 0x0 DUP1 REVERT JUMPDEST CALLVALUE DUP1 ISZERO PUSH2 0x28E JUMPI PUSH1 0x0 DUP1 REVERT JUMPDEST POP PUSH2 0x2A2 PUSH2 0x29D CALLDATASIZE PUSH1 0x4 PUSH2 0x4E88 JUMP JUMPDEST PUSH2 0x930 JUMP JUMPDEST PUSH1 0x40 MLOAD SWAP1 DUP2 MSTORE PUSH1 0x20 ADD JUMPDEST PUSH1 0x40 MLOAD DUP1 SWAP2 SUB SWAP1 RETURN JUMPDEST CALLVALUE DUP1 ISZERO PUSH2 0x2C1 JUMPI PUSH1 0x0 DUP1 REVERT JUMPDEST POP PUSH2 0x2A2 PUSH2 0x2D0 CALLDATASIZE PUSH1 0x4 PUSH2 0x4EFA JUMP JUMPDEST PUSH2 0x961 JUMP JUMPDEST CALLVALUE DUP1 ISZERO PUSH2 0x2E1 JUMPI PUSH1 0x0 DUP1 REVERT JUMPDEST POP PUSH2 0x2F5 PUSH2 0x2F0 CALLDATASIZE PUSH1 0x4 PUSH2 0x4F7B JUMP JUMPDEST PUSH2 0xA89 JUMP JUMPDEST STOP JUMPDEST CALLVALUE DUP1 ISZERO PUSH2 0x303 JUMPI PUSH1 0x0 DUP1 REVERT JUMPDEST POP PUSH2 0x2A2 PUSH2 0x312 CALLDATASIZE PUSH1 0x4 PUSH2 0x4FCD JUMP JUMPDEST PUSH1 0x1 PUSH1 0x1 PUSH1 0xA0 SHL SUB AND PUSH1 0x0 SWAP1 DUP2 MSTORE PUSH1 0x5 PUSH1 0x20 MSTORE PUSH1 0x40 SWAP1 KECCAK256 SLOAD SWAP1 JUMP JUMPDEST CALLVALUE DUP1 ISZERO PUSH2 0x339 JUMPI PUSH1 0x0 DUP1 REVERT JUMPDEST POP PUSH2 0x2F5 PUSH2 0x348 CALLDATASIZE PUSH1 0x4 PUSH2 0x4FEF JUMP JUMPDEST PUSH2 0xC5E JUMP JUMPDEST CALLVALUE DUP1 ISZERO PUSH2 0x359 JUMPI PUSH1 0x0 DUP1 REVERT JUMPDEST POP PUSH2 0x2F5 PUSH2 0x368 CALLDATASIZE PUSH1 0x4 PUSH2 0x5088 JUMP JUMPDEST PUSH2 0xCF9 JUMP JUMPDEST CALLVALUE DUP1 ISZERO PUSH2 0x379 JUMPI PUSH1 0x0 DUP1 REVERT JUMPDEST POP PUSH2 0x2A2 PUSH2 0x388 CALLDATASIZE PUSH1 0x4 PUSH2 0x5088 JUMP JUMPDEST PUSH2 0xDF9 JUMP JUMPDEST CALLVALUE DUP1 ISZERO PUSH2 0x399 JUMPI PUSH1 0x0 DUP1 REVERT JUMPDEST POP PUSH2 0x3AD PUSH2 0x3A8 CALLDATASIZE PUSH1 0x4 PUSH2 0x4FCD JUMP JUMPDEST PUSH2 0xF2A JUMP JUMPDEST PUSH1 0x40 MLOAD PUSH2 0x2AC SWAP5 SWAP4 SWAP3 SWAP2 SWAP1 PUSH2 0x50E7 JUMP JUMPDEST CALLVALUE DUP1 ISZERO PUSH2 0x3C9 JUMPI PUSH1 0x0 DUP1 REVERT JUMPDEST POP PUSH2 0x2F5 PUSH2 0x3D8 CALLDATASIZE PUSH1 0x4 PUSH2 0x513C JUMP JUMPDEST PUSH2 0x10F5 JUMP JUMPDEST CALLVALUE DUP1 ISZERO PUSH2 0x3E9 JUMPI PUSH1 0x0 DUP1 REVERT JUMPDEST POP PUSH2 0x3FD PUSH2 0x3F8 CALLDATASIZE PUSH1 0x4 PUSH2 0x5088 JUMP JUMPDEST PUSH2 0x1217 JUMP JUMPDEST PUSH1 0x40 MLOAD PUSH2 0x2AC SWAP3 SWAP2 SWAP1 PUSH2 0x5249 JUMP JUMPDEST CALLVALUE DUP1 ISZERO PUSH2 0x417 JUMPI PUSH1 0x0 DUP1 REVERT JUMPDEST POP PUSH2 0x42B PUSH2 0x426 CALLDATASIZE PUSH1 0x4 PUSH2 0x52B2 JUMP JUMPDEST PUSH2 0x1545 JUMP JUMPDEST PUSH1 0x40 DUP1 MLOAD SWAP3 DUP4 MSTORE PUSH1 0x20 DUP4 ADD SWAP2 SWAP1 SWAP2 MSTORE ADD PUSH2 0x2AC JUMP JUMPDEST CALLVALUE DUP1 ISZERO PUSH2 0x44C JUMPI PUSH1 0x0 DUP1 REVERT JUMPDEST POP PUSH2 0x2F5 PUSH2 0x45B CALLDATASIZE PUSH1 0x4 PUSH2 0x513C JUMP JUMPDEST PUSH2 0x1674 JUMP JUMPDEST CALLVALUE DUP1 ISZERO PUSH2 0x46C JUMPI PUSH1 0x0 DUP1 REVERT JUMPDEST POP PUSH1 0xB SLOAD PUSH2 0x480 SWAP1 PUSH1 0x1 PUSH1 0x1 PUSH1 0xA0 SHL SUB AND DUP2 JUMP JUMPDEST PUSH1 0x40 MLOAD PUSH1 0x1 PUSH1 0x1 PUSH1 0xA0 SHL SUB SWAP1 SWAP2 AND DUP2 MSTORE PUSH1 0x20 ADD PUSH2 0x2AC JUMP JUMPDEST CALLVALUE DUP1 ISZERO PUSH2 0x4A4 JUMPI PUSH1 0x0 DUP1 REVERT JUMPDEST POP PUSH2 0x2F5 PUSH2 0x4B3 CALLDATASIZE PUSH1 0x4 PUSH2 0x5322 JUMP JUMPDEST PUSH2 0x1815 JUMP JUMPDEST CALLVALUE DUP1 ISZERO PUSH2 0x4C4 JUMPI PUSH1 0x0 DUP1 REVERT JUMPDEST POP PUSH2 0x2A2 PUSH2 0x4D3 CALLDATASIZE PUSH1 0x4 PUSH2 0x4FCD JUMP JUMPDEST PUSH1 0x1 PUSH1 0x1 PUSH1 0xA0 SHL SUB AND PUSH1 0x0 SWAP1 DUP2 MSTORE PUSH1 0x4 PUSH1 0x20 MSTORE PUSH1 0x40 SWAP1 KECCAK256 SLOAD SWAP1 JUMP JUMPDEST CALLVALUE DUP1 ISZERO PUSH2 0x4FA JUMPI PUSH1 0x0 DUP1 REVERT JUMPDEST POP PUSH2 0x2F5 PUSH2 0x509 CALLDATASIZE PUSH1 0x4 PUSH2 0x5088 JUMP JUMPDEST PUSH2 0x188D JUMP JUMPDEST CALLVALUE DUP1 ISZERO PUSH2 0x51A JUMPI PUSH1 0x0 DUP1 REVERT JUMPDEST POP PUSH2 0x52E PUSH2 0x529 CALLDATASIZE PUSH1 0x4 PUSH2 0x4FCD JUMP JUMPDEST PUSH2 0x1CA4 JUMP JUMPDEST PUSH1 0x40 MLOAD PUSH2 0x2AC SWAP3 SWAP2 SWAP1 PUSH2 0x5363 JUMP JUMPDEST CALLVALUE DUP1 ISZERO PUSH2 0x548 JUMPI PUSH1 0x0 DUP1 REVERT JUMPDEST POP PUSH2 0x55C PUSH2 0x557 CALLDATASIZE PUSH1 0x4 PUSH2 0x4FCD JUMP JUMPDEST PUSH2 0x1D54 JUMP JUMPDEST PUSH1 0x40 MLOAD PUSH2 0x2AC SWAP2 SWAP1 PUSH2 0x53BF JUMP JUMPDEST CALLVALUE DUP1 ISZERO PUSH2 0x575 JUMPI PUSH1 0x0 DUP1 REVERT JUMPDEST POP PUSH2 0x2A2 PUSH2 0x584 CALLDATASIZE PUSH1 0x4 PUSH2 0x553F JUMP JUMPDEST PUSH2 0x21D8 JUMP JUMPDEST CALLVALUE DUP1 ISZERO PUSH2 0x595 JUMPI PUSH1 0x0 DUP1 REVERT JUMPDEST POP PUSH2 0x5A9 PUSH2 0x5A4 CALLDATASIZE PUSH1 0x4 PUSH2 0x4E88 JUMP JUMPDEST PUSH2 0x22F4 JUMP JUMPDEST PUSH1 0x40 MLOAD PUSH2 0x2AC SWAP2 SWAP1 PUSH2 0x55B2 JUMP JUMPDEST CALLVALUE DUP1 ISZERO PUSH2 0x5C2 JUMPI PUSH1 0x0 DUP1 REVERT JUMPDEST POP PUSH1 0x8 SLOAD PUSH2 0x2A2 JUMP JUMPDEST CALLVALUE DUP1 ISZERO PUSH2 0x5D7 JUMPI PUSH1 0x0 DUP1 REVERT JUMPDEST POP PUSH2 0x2A2 PUSH2 0x5E6 CALLDATASIZE PUSH1 0x4 PUSH2 0x5088 JUMP JUMPDEST PUSH2 0x24BF JUMP JUMPDEST CALLVALUE DUP1 ISZERO PUSH2 0x5F7 JUMPI PUSH1 0x0 DUP1 REVERT JUMPDEST POP PUSH2 0x55C PUSH2 0x606 CALLDATASIZE PUSH1 0x4 PUSH2 0x4FCD JUMP JUMPDEST PUSH2 0x24E0 JUMP JUMPDEST CALLVALUE DUP1 ISZERO PUSH2 0x617 JUMPI PUSH1 0x0 DUP1 REVERT JUMPDEST POP PUSH2 0x480 PUSH2 0x626 CALLDATASIZE PUSH1 0x4 PUSH2 0x5088 JUMP JUMPDEST PUSH2 0x295C JUMP JUMPDEST CALLVALUE DUP1 ISZERO PUSH2 0x637 JUMPI PUSH1 0x0 DUP1 REVERT JUMPDEST POP PUSH2 0x640 PUSH2 0x2986 JUMP JUMPDEST PUSH1 0x40 MLOAD PUSH2 0x2AC SWAP3 SWAP2 SWAP1 PUSH2 0x55C5 JUMP JUMPDEST CALLVALUE DUP1 ISZERO PUSH2 0x65A JUMPI PUSH1 0x0 DUP1 REVERT JUMPDEST POP PUSH2 0x55C PUSH2 0x669 CALLDATASIZE PUSH1 0x4 PUSH2 0x56A8 JUMP JUMPDEST PUSH2 0x2E88 JUMP JUMPDEST CALLVALUE DUP1 ISZERO PUSH2 0x67A JUMPI PUSH1 0x0 DUP1 REVERT JUMPDEST POP PUSH2 0x2F5 PUSH2 0x689 CALLDATASIZE PUSH1 0x4 PUSH2 0x5088 JUMP JUMPDEST PUSH2 0x336D JUMP JUMPDEST CALLVALUE DUP1 ISZERO PUSH2 0x69A JUMPI PUSH1 0x0 DUP1 REVERT JUMPDEST POP PUSH2 0x2A2 PUSH2 0x6A9 CALLDATASIZE PUSH1 0x4 PUSH2 0x4E88 JUMP JUMPDEST PUSH2 0x33BB JUMP JUMPDEST CALLVALUE DUP1 ISZERO PUSH2 0x6BA JUMPI PUSH1 0x0 DUP1 REVERT JUMPDEST POP PUSH2 0x6CE PUSH2 0x6C9 CALLDATASIZE PUSH1 0x4 PUSH2 0x5088 JUMP JUMPDEST PUSH2 0x33D7 JUMP JUMPDEST PUSH1 0x40 MLOAD PUSH2 0x2AC SWAP2 SWAP1 PUSH2 0x56C9 JUMP JUMPDEST PUSH2 0x2F5 PUSH2 0x6E9 CALLDATASIZE PUSH1 0x4 PUSH2 0x5088 JUMP JUMPDEST PUSH2 0x34C6 JUMP JUMPDEST CALLVALUE DUP1 ISZERO PUSH2 0x6FA JUMPI PUSH1 0x0 DUP1 REVERT JUMPDEST POP PUSH2 0x2F5 PUSH2 0x709 CALLDATASIZE PUSH1 0x4 PUSH2 0x5088 JUMP JUMPDEST PUSH2 0x35C3 JUMP JUMPDEST CALLVALUE DUP1 ISZERO PUSH2 0x71A JUMPI PUSH1 0x0 DUP1 REVERT JUMPDEST POP PUSH2 0x72E PUSH2 0x729 CALLDATASIZE PUSH1 0x4 PUSH2 0x5088 JUMP JUMPDEST PUSH2 0x35EC JUMP JUMPDEST PUSH1 0x40 MLOAD PUSH2 0x2AC SWAP15 SWAP14 SWAP13 SWAP12 SWAP11 SWAP10 SWAP9 SWAP8 SWAP7 SWAP6 SWAP5 SWAP4 SWAP3 SWAP2 SWAP1 PUSH2 0x56F8 JUMP JUMPDEST PUSH2 0x2F5 PUSH2 0x756 CALLDATASIZE PUSH1 0x4 PUSH2 0x57B3 JUMP JUMPDEST PUSH2 0x381E JUMP JUMPDEST CALLVALUE DUP1 ISZERO PUSH2 0x767 JUMPI PUSH1 0x0 DUP1 REVERT JUMPDEST POP PUSH2 0x480 PUSH2 0x776 CALLDATASIZE PUSH1 0x4 PUSH2 0x5088 JUMP JUMPDEST PUSH2 0x3E0E JUMP JUMPDEST CALLVALUE DUP1 ISZERO PUSH2 0x787 JUMPI PUSH1 0x0 DUP1 REVERT JUMPDEST POP PUSH1 0x9 SLOAD PUSH2 0x2A2 JUMP JUMPDEST CALLVALUE DUP1 ISZERO PUSH2 0x79C JUMPI PUSH1 0x0 DUP1 REVERT JUMPDEST POP PUSH2 0x2A2 PUSH2 0x7AB CALLDATASIZE PUSH1 0x4 PUSH2 0x4FCD JUMP JUMPDEST PUSH1 0x1 PUSH1 0x1 PUSH1 0xA0 SHL SUB AND PUSH1 0x0 SWAP1 DUP2 MSTORE PUSH1 0x20 DUP2 SWAP1 MSTORE PUSH1 0x40 SWAP1 KECCAK256 PUSH1 0x4 ADD SLOAD SWAP1 JUMP JUMPDEST CALLVALUE DUP1 ISZERO PUSH2 0x7D5 JUMPI PUSH1 0x0 DUP1 REVERT JUMPDEST POP PUSH2 0x2F5 PUSH2 0x7E4 CALLDATASIZE PUSH1 0x4 PUSH2 0x5088 JUMP JUMPDEST PUSH2 0x3E1E JUMP JUMPDEST CALLVALUE DUP1 ISZERO PUSH2 0x7F5 JUMPI PUSH1 0x0 DUP1 REVERT JUMPDEST POP PUSH2 0x2A2 PUSH2 0x804 CALLDATASIZE PUSH1 0x4 PUSH2 0x4FCD JUMP JUMPDEST PUSH1 0x1 PUSH1 0x1 PUSH1 0xA0 SHL SUB AND PUSH1 0x0 SWAP1 DUP2 MSTORE PUSH1 0x2 PUSH1 0x20 MSTORE PUSH1 0x40 SWAP1 KECCAK256 SLOAD SWAP1 JUMP JUMPDEST CALLVALUE DUP1 ISZERO PUSH2 0x82B JUMPI PUSH1 0x0 DUP1 REVERT JUMPDEST POP PUSH2 0x2A2 PUSH2 0x83A CALLDATASIZE PUSH1 0x4 PUSH2 0x4E88 JUMP JUMPDEST PUSH2 0x3FA4 JUMP JUMPDEST CALLVALUE DUP1 ISZERO PUSH2 0x84B JUMPI PUSH1 0x0 DUP1 REVERT JUMPDEST POP PUSH2 0x2F5 PUSH2 0x85A CALLDATASIZE PUSH1 0x4 PUSH2 0x5088 JUMP JUMPDEST PUSH2 0x3FC0 JUMP JUMPDEST CALLVALUE DUP1 ISZERO PUSH2 0x86B JUMPI PUSH1 0x0 DUP1 REVERT JUMPDEST POP PUSH2 0x87F PUSH2 0x87A CALLDATASIZE PUSH1 0x4 PUSH2 0x5088 JUMP JUMPDEST PUSH2 0x431F JUMP JUMPDEST PUSH1 0x40 MLOAD PUSH2 0x2AC SWAP4 SWAP3 SWAP2 SWAP1 PUSH2 0x5866 JUMP JUMPDEST CALLVALUE DUP1 ISZERO PUSH2 0x89A JUMPI PUSH1 0x0 DUP1 REVERT JUMPDEST POP PUSH1 0x6 SLOAD PUSH2 0x2A2 JUMP JUMPDEST CALLVALUE DUP1 ISZERO PUSH2 0x8AF JUMPI PUSH1 0x0 DUP1 REVERT JUMPDEST POP PUSH2 0x2A2 PUSH2 0x8BE CALLDATASIZE PUSH1 0x4 PUSH2 0x4FCD JUMP JUMPDEST PUSH2 0x43CA JUMP JUMPDEST CALLVALUE DUP1 ISZERO PUSH2 0x8CF JUMPI PUSH1 0x0 DUP1 REVERT JUMPDEST POP PUSH2 0x55C PUSH2 0x8DE CALLDATASIZE PUSH1 0x4 PUSH2 0x4FCD JUMP JUMPDEST PUSH2 0x44A8 JUMP JUMPDEST CALLVALUE DUP1 ISZERO PUSH2 0x8EF JUMPI PUSH1 0x0 DUP1 REVERT JUMPDEST POP PUSH2 0x903 PUSH2 0x8FE CALLDATASIZE PUSH1 0x4 PUSH2 0x4FCD JUMP JUMPDEST PUSH2 0x4924 JUMP JUMPDEST PUSH1 0x40 MLOAD PUSH2 0x2AC SWAP2 SWAP1 PUSH2 0x5885 JUMP JUMPDEST CALLVALUE DUP1 ISZERO PUSH2 0x91C JUMPI PUSH1 0x0 DUP1 REVERT JUMPDEST POP PUSH2 0x2F5 PUSH2 0x92B CALLDATASIZE PUSH1 0x4 PUSH2 0x5088 JUMP JUMPDEST PUSH2 0x4B94 JUMP JUMPDEST PUSH1 0x4 PUSH1 0x20 MSTORE DUP2 PUSH1 0x0 MSTORE PUSH1 0x40 PUSH1 0x0 KECCAK256 DUP2 DUP2 SLOAD DUP2 LT PUSH2 0x94C JUMPI PUSH1 0x0 DUP1 REVERT JUMPDEST SWAP1 PUSH1 0x0 MSTORE PUSH1 0x20 PUSH1 0x0 KECCAK256 ADD PUSH1 0x0 SWAP2 POP SWAP2 POP POP SLOAD DUP2 JUMP JUMPDEST CALLER PUSH1 0x0 SWAP1 DUP2 MSTORE PUSH1 0x20 DUP2 DUP2 MSTORE PUSH1 0x40 DUP1 DUP4 KECCAK256 DUP2 MLOAD PUSH1 0xA0 DUP2 ADD DUP4 MSTORE DUP11 DUP2 MSTORE DUP3 MLOAD PUSH1 0x1F DUP11 ADD DUP6 SWAP1 DIV DUP6 MUL DUP2 ADD DUP6 ADD SWAP1 SWAP4 MSTORE DUP9 DUP4 MSTORE SWAP1 SWAP3 SWAP1 SWAP2 DUP3 DUP3 ADD SWAP2 DUP11 SWAP1 DUP11 SWAP1 DUP2 SWAP1 DUP5 ADD DUP4 DUP3 DUP1 DUP3 DUP5 CALLDATACOPY PUSH1 0x0 SWAP3 ADD SWAP2 SWAP1 SWAP2 MSTORE POP POP POP SWAP1 DUP3 MSTORE POP PUSH1 0x40 DUP1 MLOAD PUSH1 0x20 PUSH1 0x1F DUP10 ADD DUP2 SWAP1 DIV DUP2 MUL DUP3 ADD DUP2 ADD SWAP1 SWAP3 MSTORE DUP8 DUP2 MSTORE SWAP2 DUP2 ADD SWAP2 SWAP1 DUP9 SWAP1 DUP9 SWAP1 DUP2 SWAP1 DUP5 ADD DUP4 DUP3 DUP1 DUP3 DUP5 CALLDATACOPY PUSH1 0x0 SWAP3 ADD SWAP2 SWAP1 SWAP2 MSTORE POP POP POP SWAP1 DUP3 MSTORE POP PUSH1 0x20 DUP2 ADD DUP6 SWAP1 MSTORE PUSH1 0x1 PUSH1 0x40 SWAP1 SWAP2 ADD MSTORE PUSH1 0x4 DUP3 ADD DUP1 SLOAD DUP11 SWAP1 DUP2 LT PUSH2 0xA16 JUMPI PUSH2 0xA16 PUSH2 0x5898 JUMP JUMPDEST SWAP1 PUSH1 0x0 MSTORE PUSH1 0x20 PUSH1 0x0 KECCAK256 SWAP1 PUSH1 0x5 MUL ADD PUSH1 0x0 DUP3 ADD MLOAD DUP2 PUSH1 0x0 ADD SSTORE PUSH1 0x20 DUP3 ADD MLOAD DUP2 PUSH1 0x1 ADD SWAP1 DUP2 PUSH2 0xA43 SWAP2 SWAP1 PUSH2 0x594C JUMP JUMPDEST POP PUSH1 0x40 DUP3 ADD MLOAD PUSH1 0x2 DUP3 ADD SWAP1 PUSH2 0xA58 SWAP1 DUP3 PUSH2 0x594C JUMP JUMPDEST POP PUSH1 0x60 DUP3 ADD MLOAD PUSH1 0x3 DUP3 ADD SSTORE PUSH1 0x80 SWAP1 SWAP2 ADD MLOAD PUSH1 0x4 SWAP1 SWAP2 ADD DUP1 SLOAD PUSH1 0xFF NOT AND SWAP2 ISZERO ISZERO SWAP2 SWAP1 SWAP2 OR SWAP1 SSTORE POP SWAP6 SWAP7 SWAP6 POP POP POP POP POP POP JUMP JUMPDEST PUSH1 0x0 PUSH1 0x7 DUP6 DUP2 SLOAD DUP2 LT PUSH2 0xA9E JUMPI PUSH2 0xA9E PUSH2 0x5898 JUMP JUMPDEST SWAP1 PUSH1 0x0 MSTORE PUSH1 0x20 PUSH1 0x0 KECCAK256 SWAP1 PUSH1 0x10 MUL ADD SWAP1 POP DUP5 DUP2 PUSH1 0x0 ADD SLOAD EQ PUSH2 0xADA JUMPI PUSH1 0x40 MLOAD PUSH3 0x461BCD PUSH1 0xE5 SHL DUP2 MSTORE PUSH1 0x4 ADD PUSH2 0xAD1 SWAP1 PUSH2 0x5A0B JUMP JUMPDEST PUSH1 0x40 MLOAD DUP1 SWAP2 SUB SWAP1 REVERT JUMPDEST PUSH1 0x4 DUP2 ADD SLOAD PUSH1 0x1 PUSH1 0x1 PUSH1 0xA0 SHL SUB AND CALLER EQ PUSH2 0xB5C JUMPI PUSH1 0x40 MLOAD PUSH3 0x461BCD PUSH1 0xE5 SHL DUP2 MSTORE PUSH1 0x20 PUSH1 0x4 DUP3 ADD MSTORE PUSH1 0x37 PUSH1 0x24 DUP3 ADD MSTORE PUSH32 0x4F6E6C792074686520636C69656E742077686F20706C6163656420746865206F PUSH1 0x44 DUP3 ADD MSTORE PUSH32 0x726465722063616E206C65617665206120726576696577000000000000000000 PUSH1 0x64 DUP3 ADD MSTORE PUSH1 0x84 ADD PUSH2 0xAD1 JUMP JUMPDEST PUSH1 0x5 PUSH1 0xB DUP3 ADD SLOAD PUSH1 0xFF AND PUSH1 0x6 DUP2 GT ISZERO PUSH2 0xB77 JUMPI PUSH2 0xB77 PUSH2 0x5387 JUMP JUMPDEST EQ PUSH2 0xBD2 JUMPI PUSH1 0x40 MLOAD PUSH3 0x461BCD PUSH1 0xE5 SHL DUP2 MSTORE PUSH1 0x20 PUSH1 0x4 DUP3 ADD MSTORE PUSH1 0x25 PUSH1 0x24 DUP3 ADD MSTORE PUSH32 0x4F6E6C792064656C697665726564206F72646572732063616E20626520726576 PUSH1 0x44 DUP3 ADD MSTORE PUSH5 0x1A595DD959 PUSH1 0xDA SHL PUSH1 0x64 DUP3 ADD MSTORE PUSH1 0x84 ADD PUSH2 0xAD1 JUMP JUMPDEST PUSH1 0x40 MLOAD DUP1 PUSH1 0x60 ADD PUSH1 0x40 MSTORE DUP1 DUP7 DUP2 MSTORE PUSH1 0x20 ADD DUP6 DUP2 MSTORE PUSH1 0x20 ADD DUP5 DUP5 DUP1 DUP1 PUSH1 0x1F ADD PUSH1 0x20 DUP1 SWAP2 DIV MUL PUSH1 0x20 ADD PUSH1 0x40 MLOAD SWAP1 DUP2 ADD PUSH1 0x40 MSTORE DUP1 SWAP4 SWAP3 SWAP2 SWAP1 DUP2 DUP2 MSTORE PUSH1 0x20 ADD DUP4 DUP4 DUP1 DUP3 DUP5 CALLDATACOPY PUSH1 0x0 SWAP3 ADD DUP3 SWAP1 MSTORE POP SWAP4 SWAP1 SWAP5 MSTORE POP POP DUP8 DUP2 MSTORE PUSH1 0x3 PUSH1 0x20 SWAP1 DUP2 MSTORE PUSH1 0x40 SWAP2 DUP3 SWAP1 KECCAK256 DUP5 MLOAD DUP2 SSTORE SWAP1 DUP5 ADD MLOAD PUSH1 0x1 DUP3 ADD SSTORE SWAP1 DUP4 ADD MLOAD SWAP1 SWAP2 POP PUSH1 0x2 DUP3 ADD SWAP1 PUSH2 0xC54 SWAP1 DUP3 PUSH2 0x594C JUMP JUMPDEST POP POP POP POP POP POP POP POP JUMP JUMPDEST CALLER PUSH1 0x0 DUP2 DUP2 MSTORE PUSH1 0x20 DUP2 SWAP1 MSTORE PUSH1 0x40 SWAP1 KECCAK256 DUP1 SLOAD PUSH1 0x1 PUSH1 0x1 PUSH1 0xA0 SHL SUB NOT AND SWAP1 SWAP2 OR DUP2 SSTORE PUSH1 0x1 DUP2 ADD PUSH2 0xC8D DUP8 DUP10 DUP4 PUSH2 0x5A4D JUMP JUMPDEST POP PUSH1 0x2 DUP2 ADD PUSH2 0xC9D DUP6 DUP8 DUP4 PUSH2 0x5A4D JUMP JUMPDEST POP PUSH1 0x3 DUP2 ADD PUSH2 0xCAD DUP4 DUP6 DUP4 PUSH2 0x5A4D JUMP JUMPDEST POP POP PUSH1 0x8 DUP1 SLOAD PUSH1 0x1 DUP2 ADD DUP3 SSTORE PUSH1 0x0 SWAP2 SWAP1 SWAP2 MSTORE PUSH32 0xF3F7A9FE364FAAB93B216DA50A3214154F22A0A2B415B23A84C8169E8B636EE3 ADD DUP1 SLOAD PUSH1 0x1 PUSH1 0x1 PUSH1 0xA0 SHL SUB NOT AND CALLER OR SWAP1 SSTORE POP POP POP POP POP POP JUMP JUMPDEST PUSH1 0x0 PUSH1 0x7 DUP3 DUP2 SLOAD DUP2 LT PUSH2 0xD0E JUMPI PUSH2 0xD0E PUSH2 0x5898 JUMP JUMPDEST SWAP1 PUSH1 0x0 MSTORE PUSH1 0x20 PUSH1 0x0 KECCAK256 SWAP1 PUSH1 0x10 MUL ADD SWAP1 POP DUP2 DUP2 PUSH1 0x0 ADD SLOAD EQ PUSH2 0xD41 JUMPI PUSH1 0x40 MLOAD PUSH3 0x461BCD PUSH1 0xE5 SHL DUP2 MSTORE PUSH1 0x4 ADD PUSH2 0xAD1 SWAP1 PUSH2 0x5A0B JUMP JUMPDEST PUSH1 0x3 PUSH1 0xB DUP3 ADD SLOAD PUSH1 0xFF AND PUSH1 0x6 DUP2 GT ISZERO PUSH2 0xD5C JUMPI PUSH2 0xD5C PUSH2 0x5387 JUMP JUMPDEST EQ PUSH2 0xD66 JUMPI PUSH1 0x0 DUP1 REVERT JUMPDEST PUSH1 0x5 DUP2 ADD SLOAD PUSH1 0x1 PUSH1 0x1 PUSH1 0xA0 SHL SUB AND CALLER EQ PUSH2 0xDDE JUMPI PUSH1 0x40 MLOAD PUSH3 0x461BCD PUSH1 0xE5 SHL DUP2 MSTORE PUSH1 0x20 PUSH1 0x4 DUP3 ADD MSTORE PUSH1 0x33 PUSH1 0x24 DUP3 ADD MSTORE PUSH32 0x4F72646572206D7573742062652064656C69766572656420627920636F757269 PUSH1 0x44 DUP3 ADD MSTORE PUSH19 0x195C881D1A185D081858D8D95C1D1959081A5D PUSH1 0x6A SHL PUSH1 0x64 DUP3 ADD MSTORE PUSH1 0x84 ADD PUSH2 0xAD1 JUMP JUMPDEST PUSH1 0xB DUP2 ADD DUP1 SLOAD PUSH1 0x4 SWAP2 SWAP1 PUSH1 0xFF NOT AND PUSH1 0x1 DUP4 JUMPDEST MUL OR SWAP1 SSTORE POP POP POP JUMP JUMPDEST PUSH1 0x0 DUP1 PUSH1 0xB PUSH1 0x0 SWAP1 SLOAD SWAP1 PUSH2 0x100 EXP SWAP1 DIV PUSH1 0x1 PUSH1 0x1 PUSH1 0xA0 SHL SUB AND PUSH1 0x1 PUSH1 0x1 PUSH1 0xA0 SHL SUB AND PUSH4 0xFEAF968C PUSH1 0x40 MLOAD DUP2 PUSH4 0xFFFFFFFF AND PUSH1 0xE0 SHL DUP2 MSTORE PUSH1 0x4 ADD PUSH1 0xA0 PUSH1 0x40 MLOAD DUP1 DUP4 SUB DUP2 DUP7 GAS STATICCALL ISZERO DUP1 ISZERO PUSH2 0xE4F JUMPI RETURNDATASIZE PUSH1 0x0 DUP1 RETURNDATACOPY RETURNDATASIZE PUSH1 0x0 REVERT JUMPDEST POP POP POP POP PUSH1 0x40 MLOAD RETURNDATASIZE PUSH1 0x1F NOT PUSH1 0x1F DUP3 ADD AND DUP3 ADD DUP1 PUSH1 0x40 MSTORE POP DUP2 ADD SWAP1 PUSH2 0xE73 SWAP2 SWAP1 PUSH2 0x5B27 JUMP JUMPDEST POP POP POP SWAP2 POP POP PUSH1 0x0 PUSH1 0xB PUSH1 0x0 SWAP1 SLOAD SWAP1 PUSH2 0x100 EXP SWAP1 DIV PUSH1 0x1 PUSH1 0x1 PUSH1 0xA0 SHL SUB AND PUSH1 0x1 PUSH1 0x1 PUSH1 0xA0 SHL SUB AND PUSH4 0x313CE567 PUSH1 0x40 MLOAD DUP2 PUSH4 0xFFFFFFFF AND PUSH1 0xE0 SHL DUP2 MSTORE PUSH1 0x4 ADD PUSH1 0x20 PUSH1 0x40 MLOAD DUP1 DUP4 SUB DUP2 DUP7 GAS STATICCALL ISZERO DUP1 ISZERO PUSH2 0xECE JUMPI RETURNDATASIZE PUSH1 0x0 DUP1 RETURNDATACOPY RETURNDATASIZE PUSH1 0x0 REVERT JUMPDEST POP POP POP POP PUSH1 0x40 MLOAD RETURNDATASIZE PUSH1 0x1F NOT PUSH1 0x1F DUP3 ADD AND DUP3 ADD DUP1 PUSH1 0x40 MSTORE POP DUP2 ADD SWAP1 PUSH2 0xEF2 SWAP2 SWAP1 PUSH2 0x5B77 JUMP JUMPDEST SWAP1 POP PUSH1 0x0 DUP3 PUSH2 0xF02 DUP4 PUSH1 0x12 PUSH2 0x5BB0 JUMP JUMPDEST PUSH2 0xF0D SWAP1 PUSH1 0xA PUSH2 0x5CAD JUMP JUMPDEST PUSH2 0xF17 SWAP1 DUP8 PUSH2 0x5CBC JUMP JUMPDEST PUSH2 0xF21 SWAP2 SWAP1 PUSH2 0x5CD3 JUMP JUMPDEST SWAP6 SWAP5 POP POP POP POP POP JUMP JUMPDEST PUSH1 0x0 PUSH1 0x20 DUP2 SWAP1 MSTORE SWAP1 DUP2 MSTORE PUSH1 0x40 SWAP1 KECCAK256 DUP1 SLOAD PUSH1 0x1 DUP3 ADD DUP1 SLOAD PUSH1 0x1 PUSH1 0x1 PUSH1 0xA0 SHL SUB SWAP1 SWAP3 AND SWAP3 SWAP2 PUSH2 0xF56 SWAP1 PUSH2 0x58C4 JUMP JUMPDEST DUP1 PUSH1 0x1F ADD PUSH1 0x20 DUP1 SWAP2 DIV MUL PUSH1 0x20 ADD PUSH1 0x40 MLOAD SWAP1 DUP2 ADD PUSH1 0x40 MSTORE DUP1 SWAP3 SWAP2 SWAP1 DUP2 DUP2 MSTORE PUSH1 0x20 ADD DUP3 DUP1 SLOAD PUSH2 0xF82 SWAP1 PUSH2 0x58C4 JUMP JUMPDEST DUP1 ISZERO PUSH2 0xFCF JUMPI DUP1 PUSH1 0x1F LT PUSH2 0xFA4 JUMPI PUSH2 0x100 DUP1 DUP4 SLOAD DIV MUL DUP4 MSTORE SWAP2 PUSH1 0x20 ADD SWAP2 PUSH2 0xFCF JUMP JUMPDEST DUP3 ADD SWAP2 SWAP1 PUSH1 0x0 MSTORE PUSH1 0x20 PUSH1 0x0 KECCAK256 SWAP1 JUMPDEST DUP2 SLOAD DUP2 MSTORE SWAP1 PUSH1 0x1 ADD SWAP1 PUSH1 0x20 ADD DUP1 DUP4 GT PUSH2 0xFB2 JUMPI DUP3 SWAP1 SUB PUSH1 0x1F AND DUP3 ADD SWAP2 JUMPDEST POP POP POP POP POP SWAP1 DUP1 PUSH1 0x2 ADD DUP1 SLOAD PUSH2 0xFE4 SWAP1 PUSH2 0x58C4 JUMP JUMPDEST DUP1 PUSH1 0x1F ADD PUSH1 0x20 DUP1 SWAP2 DIV MUL PUSH1 0x20 ADD PUSH1 0x40 MLOAD SWAP1 DUP2 ADD PUSH1 0x40 MSTORE DUP1 SWAP3 SWAP2 SWAP1 DUP2 DUP2 MSTORE PUSH1 0x20 ADD DUP3 DUP1 SLOAD PUSH2 0x1010 SWAP1 PUSH2 0x58C4 JUMP JUMPDEST DUP1 ISZERO PUSH2 0x105D JUMPI DUP1 PUSH1 0x1F LT PUSH2 0x1032 JUMPI PUSH2 0x100 DUP1 DUP4 SLOAD DIV MUL DUP4 MSTORE SWAP2 PUSH1 0x20 ADD SWAP2 PUSH2 0x105D JUMP JUMPDEST DUP3 ADD SWAP2 SWAP1 PUSH1 0x0 MSTORE PUSH1 0x20 PUSH1 0x0 KECCAK256 SWAP1 JUMPDEST DUP2 SLOAD DUP2 MSTORE SWAP1 PUSH1 0x1 ADD SWAP1 PUSH1 0x20 ADD DUP1 DUP4 GT PUSH2 0x1040 JUMPI DUP3 SWAP1 SUB PUSH1 0x1F AND DUP3 ADD SWAP2 JUMPDEST POP POP POP POP POP SWAP1 DUP1 PUSH1 0x3 ADD DUP1 SLOAD PUSH2 0x1072 SWAP1 PUSH2 0x58C4 JUMP JUMPDEST DUP1 PUSH1 0x1F ADD PUSH1 0x20 DUP1 SWAP2 DIV MUL PUSH1 0x20 ADD PUSH1 0x40 MLOAD SWAP1 DUP2 ADD PUSH1 0x40 MSTORE DUP1 SWAP3 SWAP2 SWAP1 DUP2 DUP2 MSTORE PUSH1 0x20 ADD DUP3 DUP1 SLOAD PUSH2 0x109E SWAP1 PUSH2 0x58C4 JUMP JUMPDEST DUP1 ISZERO PUSH2 0x10EB JUMPI DUP1 PUSH1 0x1F LT PUSH2 0x10C0 JUMPI PUSH2 0x100 DUP1 DUP4 SLOAD DIV MUL DUP4 MSTORE SWAP2 PUSH1 0x20 ADD SWAP2 PUSH2 0x10EB JUMP JUMPDEST DUP3 ADD SWAP2 SWAP1 PUSH1 0x0 MSTORE PUSH1 0x20 PUSH1 0x0 KECCAK256 SWAP1 JUMPDEST DUP2 SLOAD DUP2 MSTORE SWAP1 PUSH1 0x1 ADD SWAP1 PUSH1 0x20 ADD DUP1 DUP4 GT PUSH2 0x10CE JUMPI DUP3 SWAP1 SUB PUSH1 0x1F AND DUP3 ADD SWAP2 JUMPDEST POP POP POP POP POP SWAP1 POP DUP5 JUMP JUMPDEST PUSH1 0x0 PUSH1 0x7 DUP4 DUP2 SLOAD DUP2 LT PUSH2 0x110A JUMPI PUSH2 0x110A PUSH2 0x5898 JUMP JUMPDEST SWAP1 PUSH1 0x0 MSTORE PUSH1 0x20 PUSH1 0x0 KECCAK256 SWAP1 PUSH1 0x10 MUL ADD SWAP1 POP DUP3 DUP2 PUSH1 0x0 ADD SLOAD EQ PUSH2 0x113D JUMPI PUSH1 0x40 MLOAD PUSH3 0x461BCD PUSH1 0xE5 SHL DUP2 MSTORE PUSH1 0x4 ADD PUSH2 0xAD1 SWAP1 PUSH2 0x5A0B JUMP JUMPDEST PUSH1 0x1 PUSH1 0xB DUP3 ADD SLOAD PUSH1 0xFF AND PUSH1 0x6 DUP2 GT ISZERO PUSH2 0x1158 JUMPI PUSH2 0x1158 PUSH2 0x5387 JUMP JUMPDEST EQ PUSH2 0x11B3 JUMPI PUSH1 0x40 MLOAD PUSH3 0x461BCD PUSH1 0xE5 SHL DUP2 MSTORE PUSH1 0x20 PUSH1 0x4 DUP3 ADD MSTORE PUSH1 0x25 PUSH1 0x24 DUP3 ADD MSTORE PUSH32 0x4F72646572206D75737420626520696E207468652070726F63657373696E6720 PUSH1 0x44 DUP3 ADD MSTORE PUSH5 0x7374617465 PUSH1 0xD8 SHL PUSH1 0x64 DUP3 ADD MSTORE PUSH1 0x84 ADD PUSH2 0xAD1 JUMP JUMPDEST PUSH1 0x5 DUP2 DUP2 ADD DUP1 SLOAD CALLER PUSH1 0x1 PUSH1 0x1 PUSH1 0xA0 SHL SUB NOT SWAP1 SWAP2 AND DUP2 OR SWAP1 SWAP2 SSTORE PUSH1 0xD DUP4 ADD DUP5 SWAP1 SSTORE TIMESTAMP PUSH1 0xF DUP5 ADD SSTORE PUSH1 0xB DUP4 ADD DUP1 SLOAD PUSH1 0xFF NOT AND PUSH1 0x2 OR SWAP1 SSTORE PUSH1 0x0 SWAP1 DUP2 MSTORE PUSH1 0x20 SWAP2 DUP3 MSTORE PUSH1 0x40 DUP2 KECCAK256 DUP4 SLOAD DUP2 SLOAD PUSH1 0x1 DUP2 ADD DUP4 SSTORE SWAP2 DUP4 MSTORE SWAP3 SWAP1 SWAP2 KECCAK256 ADD SSTORE PUSH2 0x1212 DUP4 PUSH2 0x4CA7 JUMP JUMPDEST POP POP POP JUMP JUMPDEST PUSH1 0x60 DUP1 PUSH1 0x0 PUSH1 0x7 DUP5 DUP2 SLOAD DUP2 LT PUSH2 0x122F JUMPI PUSH2 0x122F PUSH2 0x5898 JUMP JUMPDEST SWAP1 PUSH1 0x0 MSTORE PUSH1 0x20 PUSH1 0x0 KECCAK256 SWAP1 PUSH1 0x10 MUL ADD SWAP1 POP DUP4 DUP2 PUSH1 0x0 ADD SLOAD EQ PUSH2 0x1262 JUMPI PUSH1 0x40 MLOAD PUSH3 0x461BCD PUSH1 0xE5 SHL DUP2 MSTORE PUSH1 0x4 ADD PUSH2 0xAD1 SWAP1 PUSH2 0x5A0B JUMP JUMPDEST PUSH1 0x1 DUP2 ADD SLOAD PUSH1 0x1 PUSH1 0x1 PUSH1 0xA0 SHL SUB AND PUSH1 0x0 SWAP1 DUP2 MSTORE PUSH1 0x20 DUP2 SWAP1 MSTORE PUSH1 0x40 DUP2 KECCAK256 PUSH1 0x6 DUP4 ADD SLOAD SWAP1 SWAP2 SWAP1 PUSH1 0x1 PUSH1 0x1 PUSH1 0x40 SHL SUB DUP2 GT ISZERO PUSH2 0x129D JUMPI PUSH2 0x129D PUSH2 0x58AE JUMP JUMPDEST PUSH1 0x40 MLOAD SWAP1 DUP1 DUP3 MSTORE DUP1 PUSH1 0x20 MUL PUSH1 0x20 ADD DUP3 ADD PUSH1 0x40 MSTORE DUP1 ISZERO PUSH2 0x1302 JUMPI DUP2 PUSH1 0x20 ADD JUMPDEST PUSH2 0x12EF PUSH1 0x40 MLOAD DUP1 PUSH1 0xA0 ADD PUSH1 0x40 MSTORE DUP1 PUSH1 0x0 DUP2 MSTORE PUSH1 0x20 ADD PUSH1 0x60 DUP2 MSTORE PUSH1 0x20 ADD PUSH1 0x60 DUP2 MSTORE PUSH1 0x20 ADD PUSH1 0x0 DUP2 MSTORE PUSH1 0x20 ADD PUSH1 0x0 ISZERO ISZERO DUP2 MSTORE POP SWAP1 JUMP JUMPDEST DUP2 MSTORE PUSH1 0x20 ADD SWAP1 PUSH1 0x1 SWAP1 SUB SWAP1 DUP2 PUSH2 0x12BB JUMPI SWAP1 POP JUMPDEST POP SWAP1 POP PUSH1 0x0 JUMPDEST PUSH1 0x6 DUP5 ADD SLOAD DUP2 LT ISZERO PUSH2 0x14E1 JUMPI PUSH1 0x0 DUP5 PUSH1 0x6 ADD DUP3 DUP2 SLOAD DUP2 LT PUSH2 0x132B JUMPI PUSH2 0x132B PUSH2 0x5898 JUMP JUMPDEST SWAP1 PUSH1 0x0 MSTORE PUSH1 0x20 PUSH1 0x0 KECCAK256 ADD SLOAD SWAP1 POP DUP4 PUSH1 0x4 ADD DUP2 DUP2 SLOAD DUP2 LT PUSH2 0x134D JUMPI PUSH2 0x134D PUSH2 0x5898 JUMP JUMPDEST SWAP1 PUSH1 0x0 MSTORE PUSH1 0x20 PUSH1 0x0 KECCAK256 SWAP1 PUSH1 0x5 MUL ADD PUSH1 0x40 MLOAD DUP1 PUSH1 0xA0 ADD PUSH1 0x40 MSTORE SWAP1 DUP2 PUSH1 0x0 DUP3 ADD SLOAD DUP2 MSTORE PUSH1 0x20 ADD PUSH1 0x1 DUP3 ADD DUP1 SLOAD PUSH2 0x1380 SWAP1 PUSH2 0x58C4 JUMP JUMPDEST DUP1 PUSH1 0x1F ADD PUSH1 0x20 DUP1 SWAP2 DIV MUL PUSH1 0x20 ADD PUSH1 0x40 MLOAD SWAP1 DUP2 ADD PUSH1 0x40 MSTORE DUP1 SWAP3 SWAP2 SWAP1 DUP2 DUP2 MSTORE PUSH1 0x20 ADD DUP3 DUP1 SLOAD PUSH2 0x13AC SWAP1 PUSH2 0x58C4 JUMP JUMPDEST DUP1 ISZERO PUSH2 0x13F9 JUMPI DUP1 PUSH1 0x1F LT PUSH2 0x13CE JUMPI PUSH2 0x100 DUP1 DUP4 SLOAD DIV MUL DUP4 MSTORE SWAP2 PUSH1 0x20 ADD SWAP2 PUSH2 0x13F9 JUMP JUMPDEST DUP3 ADD SWAP2 SWAP1 PUSH1 0x0 MSTORE PUSH1 0x20 PUSH1 0x0 KECCAK256 SWAP1 JUMPDEST DUP2 SLOAD DUP2 MSTORE SWAP1 PUSH1 0x1 ADD SWAP1 PUSH1 0x20 ADD DUP1 DUP4 GT PUSH2 0x13DC JUMPI DUP3 SWAP1 SUB PUSH1 0x1F AND DUP3 ADD SWAP2 JUMPDEST POP POP POP POP POP DUP2 MSTORE PUSH1 0x20 ADD PUSH1 0x2 DUP3 ADD DUP1 SLOAD PUSH2 0x1412 SWAP1 PUSH2 0x58C4 JUMP JUMPDEST DUP1 PUSH1 0x1F ADD PUSH1 0x20 DUP1 SWAP2 DIV MUL PUSH1 0x20 ADD PUSH1 0x40 MLOAD SWAP1 DUP2 ADD PUSH1 0x40 MSTORE DUP1 SWAP3 SWAP2 SWAP1 DUP2 DUP2 MSTORE PUSH1 0x20 ADD DUP3 DUP1 SLOAD PUSH2 0x143E SWAP1 PUSH2 0x58C4 JUMP JUMPDEST DUP1 ISZERO PUSH2 0x148B JUMPI DUP1 PUSH1 0x1F LT PUSH2 0x1460 JUMPI PUSH2 0x100 DUP1 DUP4 SLOAD DIV MUL DUP4 MSTORE SWAP2 PUSH1 0x20 ADD SWAP2 PUSH2 0x148B JUMP JUMPDEST DUP3 ADD SWAP2 SWAP1 PUSH1 0x0 MSTORE PUSH1 0x20 PUSH1 0x0 KECCAK256 SWAP1 JUMPDEST DUP2 SLOAD DUP2 MSTORE SWAP1 PUSH1 0x1 ADD SWAP1 PUSH1 0x20 ADD DUP1 DUP4 GT PUSH2 0x146E JUMPI DUP3 SWAP1 SUB PUSH1 0x1F AND DUP3 ADD SWAP2 JUMPDEST POP POP POP SWAP2 DUP4 MSTORE POP POP PUSH1 0x3 DUP3 ADD SLOAD PUSH1 0x20 DUP3 ADD MSTORE PUSH1 0x4 SWAP1 SWAP2 ADD SLOAD PUSH1 0xFF AND ISZERO ISZERO PUSH1 0x40 SWAP1 SWAP2 ADD MSTORE DUP4 MLOAD DUP5 SWAP1 DUP5 SWAP1 DUP2 LT PUSH2 0x14C2 JUMPI PUSH2 0x14C2 PUSH2 0x5898 JUMP JUMPDEST PUSH1 0x20 MUL PUSH1 0x20 ADD ADD DUP2 SWAP1 MSTORE POP POP DUP1 DUP1 PUSH2 0x14D9 SWAP1 PUSH2 0x5CF5 JUMP JUMPDEST SWAP2 POP POP PUSH2 0x1308 JUMP JUMPDEST POP DUP1 DUP4 PUSH1 0x7 ADD DUP1 DUP1 SLOAD DUP1 PUSH1 0x20 MUL PUSH1 0x20 ADD PUSH1 0x40 MLOAD SWAP1 DUP2 ADD PUSH1 0x40 MSTORE DUP1 SWAP3 SWAP2 SWAP1 DUP2 DUP2 MSTORE PUSH1 0x20 ADD DUP3 DUP1 SLOAD DUP1 ISZERO PUSH2 0x1532 JUMPI PUSH1 0x20 MUL DUP3 ADD SWAP2 SWAP1 PUSH1 0x0 MSTORE PUSH1 0x20 PUSH1 0x0 KECCAK256 SWAP1 JUMPDEST DUP2 SLOAD DUP2 MSTORE PUSH1 0x20 ADD SWAP1 PUSH1 0x1 ADD SWAP1 DUP1 DUP4 GT PUSH2 0x151E JUMPI JUMPDEST POP POP POP POP POP SWAP1 POP SWAP5 POP SWAP5 POP POP POP POP SWAP2 POP SWAP2 JUMP JUMPDEST PUSH1 0x1 PUSH1 0x1 PUSH1 0xA0 SHL SUB DUP7 AND PUSH1 0x0 SWAP1 DUP2 MSTORE PUSH1 0x20 DUP2 SWAP1 MSTORE PUSH1 0x40 DUP2 KECCAK256 DUP2 SWAP1 DUP2 DUP1 JUMPDEST DUP9 DUP2 LT ISZERO PUSH2 0x1656 JUMPI PUSH1 0x4 DUP4 ADD SLOAD DUP11 DUP11 DUP4 DUP2 DUP2 LT PUSH2 0x1581 JUMPI PUSH2 0x1581 PUSH2 0x5898 JUMP JUMPDEST SWAP1 POP PUSH1 0x20 MUL ADD CALLDATALOAD LT PUSH2 0x15C7 JUMPI PUSH1 0x40 MLOAD PUSH3 0x461BCD PUSH1 0xE5 SHL DUP2 MSTORE PUSH1 0x20 PUSH1 0x4 DUP3 ADD MSTORE PUSH1 0xF PUSH1 0x24 DUP3 ADD MSTORE PUSH15 0x125B9D985B1A59081A5D195B481251 PUSH1 0x8A SHL PUSH1 0x44 DUP3 ADD MSTORE PUSH1 0x64 ADD PUSH2 0xAD1 JUMP JUMPDEST PUSH1 0x0 DUP4 PUSH1 0x4 ADD DUP12 DUP12 DUP5 DUP2 DUP2 LT PUSH2 0x15DF JUMPI PUSH2 0x15DF PUSH2 0x5898 JUMP JUMPDEST SWAP1 POP PUSH1 0x20 MUL ADD CALLDATALOAD DUP2 SLOAD DUP2 LT PUSH2 0x15F6 JUMPI PUSH2 0x15F6 PUSH2 0x5898 JUMP JUMPDEST SWAP1 PUSH1 0x0 MSTORE PUSH1 0x20 PUSH1 0x0 KECCAK256 SWAP1 PUSH1 0x5 MUL ADD SWAP1 POP DUP9 DUP9 DUP4 DUP2 DUP2 LT PUSH2 0x1618 JUMPI PUSH2 0x1618 PUSH2 0x5898 JUMP JUMPDEST SWAP1 POP PUSH1 0x20 MUL ADD CALLDATALOAD PUSH2 0x162C DUP3 PUSH1 0x3 ADD SLOAD PUSH2 0xDF9 JUMP JUMPDEST PUSH2 0x1636 SWAP2 SWAP1 PUSH2 0x5CBC JUMP JUMPDEST PUSH2 0x1640 SWAP1 DUP5 PUSH2 0x5D0E JUMP JUMPDEST SWAP3 POP POP DUP1 DUP1 PUSH2 0x164E SWAP1 PUSH2 0x5CF5 JUMP JUMPDEST SWAP2 POP POP PUSH2 0x1562 JUMP JUMPDEST POP PUSH1 0x0 PUSH2 0x1662 DUP7 PUSH2 0xDF9 JUMP JUMPDEST SWAP2 SWAP12 SWAP2 SWAP11 POP SWAP1 SWAP9 POP POP POP POP POP POP POP POP POP JUMP JUMPDEST PUSH1 0x0 PUSH1 0x7 DUP4 DUP2 SLOAD DUP2 LT PUSH2 0x1689 JUMPI PUSH2 0x1689 PUSH2 0x5898 JUMP JUMPDEST SWAP1 PUSH1 0x0 MSTORE PUSH1 0x20 PUSH1 0x0 KECCAK256 SWAP1 PUSH1 0x10 MUL ADD SWAP1 POP DUP3 DUP2 PUSH1 0x0 ADD SLOAD EQ PUSH2 0x16BC JUMPI PUSH1 0x40 MLOAD PUSH3 0x461BCD PUSH1 0xE5 SHL DUP2 MSTORE PUSH1 0x4 ADD PUSH2 0xAD1 SWAP1 PUSH2 0x5A0B JUMP JUMPDEST PUSH1 0x1 DUP2 ADD SLOAD PUSH1 0x1 PUSH1 0x1 PUSH1 0xA0 SHL SUB AND CALLER EQ PUSH2 0x173E JUMPI PUSH1 0x40 MLOAD PUSH3 0x461BCD PUSH1 0xE5 SHL DUP2 MSTORE PUSH1 0x20 PUSH1 0x4 DUP3 ADD MSTORE PUSH1 0x3E PUSH1 0x24 DUP3 ADD MSTORE PUSH32 0x4F6E6C79207468652072657374617572616E7420666F72207768696368207468 PUSH1 0x44 DUP3 ADD MSTORE PUSH32 0x65206F7264657220776173206D6164652063616E206163636570742069740000 PUSH1 0x64 DUP3 ADD MSTORE PUSH1 0x84 ADD PUSH2 0xAD1 JUMP JUMPDEST PUSH1 0x0 PUSH1 0xB DUP3 ADD SLOAD PUSH1 0xFF AND PUSH1 0x6 DUP2 GT ISZERO PUSH2 0x1759 JUMPI PUSH2 0x1759 PUSH2 0x5387 JUMP JUMPDEST EQ PUSH2 0x17C5 JUMPI PUSH1 0x40 MLOAD PUSH3 0x461BCD PUSH1 0xE5 SHL DUP2 MSTORE PUSH1 0x20 PUSH1 0x4 DUP3 ADD MSTORE PUSH1 0x36 PUSH1 0x24 DUP3 ADD MSTORE PUSH32 0x43616E206F6E6C7920616363657074206F726465727320666F72207768696368 PUSH1 0x44 DUP3 ADD MSTORE PUSH22 0x20746865207374617475732069732050454E44494E47 PUSH1 0x50 SHL PUSH1 0x64 DUP3 ADD MSTORE PUSH1 0x84 ADD PUSH2 0xAD1 JUMP JUMPDEST PUSH1 0xC DUP2 ADD SWAP2 SWAP1 SWAP2 SSTORE TIMESTAMP PUSH1 0xE DUP3 ADD SSTORE PUSH1 0xB ADD DUP1 SLOAD PUSH1 0xFF NOT AND PUSH1 0x1 SWAP1 DUP2 OR SWAP1 SWAP2 SSTORE PUSH1 0x6 DUP1 SLOAD SWAP2 DUP3 ADD DUP2 SSTORE PUSH1 0x0 MSTORE PUSH32 0xF652222313E28459528D920B65115C16C04F3EFC82AAEDC97BE59F3F377C0D3F ADD SSTORE JUMP JUMPDEST CALLER PUSH1 0x0 DUP2 DUP2 MSTORE PUSH1 0x1 PUSH1 0x20 DUP2 SWAP1 MSTORE PUSH1 0x40 SWAP1 SWAP2 KECCAK256 DUP1 SLOAD PUSH1 0x1 PUSH1 0x1 PUSH1 0xA0 SHL SUB NOT AND SWAP1 SWAP3 OR DUP3 SSTORE DUP2 ADD PUSH2 0x1845 DUP4 DUP6 DUP4 PUSH2 0x5A4D JUMP JUMPDEST POP POP PUSH1 0x9 DUP1 SLOAD PUSH1 0x1 DUP2 ADD DUP3 SSTORE PUSH1 0x0 SWAP2 SWAP1 SWAP2 MSTORE PUSH32 0x6E1540171B6C0C960B71A7020D9F60077F6AF931A8BBF590DA0223DACF75C7AF ADD DUP1 SLOAD PUSH1 0x1 PUSH1 0x1 PUSH1 0xA0 SHL SUB NOT AND CALLER OR SWAP1 SSTORE POP POP JUMP JUMPDEST PUSH1 0x0 PUSH1 0x7 DUP3 DUP2 SLOAD DUP2 LT PUSH2 0x18A2 JUMPI PUSH2 0x18A2 PUSH2 0x5898 JUMP JUMPDEST SWAP1 PUSH1 0x0 MSTORE PUSH1 0x20 PUSH1 0x0 KECCAK256 SWAP1 PUSH1 0x10 MUL ADD SWAP1 POP DUP2 DUP2 PUSH1 0x0 ADD SLOAD EQ PUSH2 0x18D5 JUMPI PUSH1 0x40 MLOAD PUSH3 0x461BCD PUSH1 0xE5 SHL DUP2 MSTORE PUSH1 0x4 ADD PUSH2 0xAD1 SWAP1 PUSH2 0x5A0B JUMP JUMPDEST PUSH1 0x4 DUP2 ADD SLOAD PUSH1 0x1 PUSH1 0x1 PUSH1 0xA0 SHL SUB AND CALLER EQ PUSH2 0x193B JUMPI PUSH1 0x40 MLOAD PUSH3 0x461BCD PUSH1 0xE5 SHL DUP2 MSTORE PUSH1 0x20 PUSH1 0x4 DUP3 ADD MSTORE PUSH1 0x21 PUSH1 0x24 DUP3 ADD MSTORE PUSH32 0x4F72646572206D7573742062652063616E63656C6C656420627920636C69656E PUSH1 0x44 DUP3 ADD MSTORE PUSH1 0x1D PUSH1 0xFA SHL PUSH1 0x64 DUP3 ADD MSTORE PUSH1 0x84 ADD PUSH2 0xAD1 JUMP JUMPDEST PUSH1 0x5 PUSH1 0xB DUP3 ADD SLOAD PUSH1 0xFF AND PUSH1 0x6 DUP2 GT ISZERO PUSH2 0x1956 JUMPI PUSH2 0x1956 PUSH2 0x5387 JUMP JUMPDEST EQ ISZERO DUP1 ISZERO PUSH2 0x197D JUMPI POP PUSH1 0x6 PUSH1 0xB DUP3 ADD SLOAD PUSH1 0xFF AND PUSH1 0x6 DUP2 GT ISZERO PUSH2 0x197A JUMPI PUSH2 0x197A PUSH2 0x5387 JUMP JUMPDEST EQ ISZERO JUMPDEST PUSH2 0x19EF JUMPI PUSH1 0x40 MLOAD PUSH3 0x461BCD PUSH1 0xE5 SHL DUP2 MSTORE PUSH1 0x20 PUSH1 0x4 DUP3 ADD MSTORE PUSH1 0x38 PUSH1 0x24 DUP3 ADD MSTORE PUSH32 0x4F726465722063616E6E6F7420626520696E2044454C495645524544206F7220 PUSH1 0x44 DUP3 ADD MSTORE PUSH32 0x43414E43454C4C45442073746174757320616C72656164790000000000000000 PUSH1 0x64 DUP3 ADD MSTORE PUSH1 0x84 ADD PUSH2 0xAD1 JUMP JUMPDEST PUSH1 0x4 DUP2 ADD SLOAD PUSH1 0x1 DUP3 ADD SLOAD PUSH1 0x1 PUSH1 0x1 PUSH1 0xA0 SHL SUB SWAP2 DUP3 AND SWAP2 AND PUSH1 0x0 PUSH1 0xB DUP5 ADD SLOAD PUSH1 0xFF AND PUSH1 0x6 DUP2 GT ISZERO PUSH2 0x1A21 JUMPI PUSH2 0x1A21 PUSH2 0x5387 JUMP JUMPDEST EQ DUP1 PUSH2 0x1A45 JUMPI POP PUSH1 0x1 PUSH1 0xB DUP5 ADD SLOAD PUSH1 0xFF AND PUSH1 0x6 DUP2 GT ISZERO PUSH2 0x1A43 JUMPI PUSH2 0x1A43 PUSH2 0x5387 JUMP JUMPDEST EQ JUMPDEST DUP1 PUSH2 0x1A68 JUMPI POP PUSH1 0x2 PUSH1 0xB DUP5 ADD SLOAD PUSH1 0xFF AND PUSH1 0x6 DUP2 GT ISZERO PUSH2 0x1A66 JUMPI PUSH2 0x1A66 PUSH2 0x5387 JUMP JUMPDEST EQ JUMPDEST ISZERO PUSH2 0x1AC6 JUMPI DUP2 PUSH1 0x1 PUSH1 0x1 PUSH1 0xA0 SHL SUB AND PUSH2 0x8FC DUP5 PUSH1 0x8 ADD SLOAD DUP6 PUSH1 0x9 ADD SLOAD PUSH2 0x1A8E SWAP2 SWAP1 PUSH2 0x5D0E JUMP JUMPDEST PUSH1 0x40 MLOAD DUP2 ISZERO SWAP1 SWAP3 MUL SWAP2 PUSH1 0x0 DUP2 DUP2 DUP2 DUP6 DUP9 DUP9 CALL SWAP4 POP POP POP POP PUSH2 0x1AC1 JUMPI PUSH1 0x40 MLOAD PUSH3 0x461BCD PUSH1 0xE5 SHL DUP2 MSTORE PUSH1 0x4 ADD PUSH2 0xAD1 SWAP1 PUSH2 0x5D21 JUMP JUMPDEST PUSH2 0x1C91 JUMP JUMPDEST PUSH1 0x3 PUSH1 0xB DUP5 ADD SLOAD PUSH1 0xFF AND PUSH1 0x6 DUP2 GT ISZERO PUSH2 0x1AE1 JUMPI PUSH2 0x1AE1 PUSH2 0x5387 JUMP JUMPDEST SUB PUSH2 0x1B9E JUMPI PUSH1 0x9 DUP4 ADD SLOAD PUSH1 0x40 MLOAD PUSH1 0x1 PUSH1 0x1 PUSH1 0xA0 SHL SUB DUP4 AND SWAP2 DUP1 ISZERO PUSH2 0x8FC MUL SWAP2 PUSH1 0x0 DUP2 DUP2 DUP2 DUP6 DUP9 DUP9 CALL SWAP4 POP POP POP POP PUSH2 0x1B5A JUMPI PUSH1 0x40 MLOAD PUSH3 0x461BCD PUSH1 0xE5 SHL DUP2 MSTORE PUSH1 0x20 PUSH1 0x4 DUP3 ADD MSTORE PUSH1 0x1B PUSH1 0x24 DUP3 ADD MSTORE PUSH32 0x4661696C656420746F20726566756E642072657374617572616E740000000000 PUSH1 0x44 DUP3 ADD MSTORE PUSH1 0x64 ADD PUSH2 0xAD1 JUMP JUMPDEST PUSH1 0x8 DUP4 ADD SLOAD PUSH1 0x40 MLOAD PUSH1 0x1 PUSH1 0x1 PUSH1 0xA0 SHL SUB DUP5 AND SWAP2 DUP1 ISZERO PUSH2 0x8FC MUL SWAP2 PUSH1 0x0 DUP2 DUP2 DUP2 DUP6 DUP9 DUP9 CALL SWAP4 POP POP POP POP PUSH2 0x1AC1 JUMPI PUSH1 0x40 MLOAD PUSH3 0x461BCD PUSH1 0xE5 SHL DUP2 MSTORE PUSH1 0x4 ADD PUSH2 0xAD1 SWAP1 PUSH2 0x5D21 JUMP JUMPDEST PUSH1 0x4 DUP4 ADD SLOAD PUSH1 0x9 DUP5 ADD SLOAD PUSH1 0x40 MLOAD PUSH1 0x1 PUSH1 0x1 PUSH1 0xA0 SHL SUB SWAP3 DUP4 AND SWAP3 DUP5 AND SWAP2 DUP1 ISZERO PUSH2 0x8FC MUL SWAP2 PUSH1 0x0 DUP2 DUP2 DUP2 DUP6 DUP9 DUP9 CALL SWAP4 POP POP POP POP PUSH2 0x1C1B JUMPI PUSH1 0x40 MLOAD PUSH3 0x461BCD PUSH1 0xE5 SHL DUP2 MSTORE PUSH1 0x20 PUSH1 0x4 DUP3 ADD MSTORE PUSH1 0x1B PUSH1 0x24 DUP3 ADD MSTORE PUSH32 0x4661696C656420746F20726566756E642072657374617572616E740000000000 PUSH1 0x44 DUP3 ADD MSTORE PUSH1 0x64 ADD PUSH2 0xAD1 JUMP JUMPDEST PUSH1 0x8 DUP5 ADD SLOAD PUSH1 0x40 MLOAD PUSH1 0x1 PUSH1 0x1 PUSH1 0xA0 SHL SUB DUP4 AND SWAP2 DUP1 ISZERO PUSH2 0x8FC MUL SWAP2 PUSH1 0x0 DUP2 DUP2 DUP2 DUP6 DUP9 DUP9 CALL SWAP4 POP POP POP POP PUSH2 0x1C8F JUMPI PUSH1 0x40 MLOAD PUSH3 0x461BCD PUSH1 0xE5 SHL DUP2 MSTORE PUSH1 0x20 PUSH1 0x4 DUP3 ADD MSTORE PUSH1 0x18 PUSH1 0x24 DUP3 ADD MSTORE PUSH32 0x4661696C656420746F20726566756E6420636F75726965720000000000000000 PUSH1 0x44 DUP3 ADD MSTORE PUSH1 0x64 ADD PUSH2 0xAD1 JUMP JUMPDEST POP JUMPDEST POP POP PUSH1 0xB ADD DUP1 SLOAD PUSH1 0xFF NOT AND PUSH1 0x6 OR SWAP1 SSTORE POP JUMP JUMPDEST PUSH1 0x1 PUSH1 0x20 DUP2 SWAP1 MSTORE PUSH1 0x0 SWAP2 DUP3 MSTORE PUSH1 0x40 SWAP1 SWAP2 KECCAK256 DUP1 SLOAD SWAP2 DUP2 ADD DUP1 SLOAD PUSH1 0x1 PUSH1 0x1 PUSH1 0xA0 SHL SUB SWAP1 SWAP4 AND SWAP3 PUSH2 0x1CD1 SWAP1 PUSH2 0x58C4 JUMP JUMPDEST DUP1 PUSH1 0x1F ADD PUSH1 0x20 DUP1 SWAP2 DIV MUL PUSH1 0x20 ADD PUSH1 0x40 MLOAD SWAP1 DUP2 ADD PUSH1 0x40 MSTORE DUP1 SWAP3 SWAP2 SWAP1 DUP2 DUP2 MSTORE PUSH1 0x20 ADD DUP3 DUP1 SLOAD PUSH2 0x1CFD SWAP1 PUSH2 0x58C4 JUMP JUMPDEST DUP1 ISZERO PUSH2 0x1D4A JUMPI DUP1 PUSH1 0x1F LT PUSH2 0x1D1F JUMPI PUSH2 0x100 DUP1 DUP4 SLOAD DIV MUL DUP4 MSTORE SWAP2 PUSH1 0x20 ADD SWAP2 PUSH2 0x1D4A JUMP JUMPDEST DUP3 ADD SWAP2 SWAP1 PUSH1 0x0 MSTORE PUSH1 0x20 PUSH1 0x0 KECCAK256 SWAP1 JUMPDEST DUP2 SLOAD DUP2 MSTORE SWAP1 PUSH1 0x1 ADD SWAP1 PUSH1 0x20 ADD DUP1 DUP4 GT PUSH2 0x1D2D JUMPI DUP3 SWAP1 SUB PUSH1 0x1F AND DUP3 ADD SWAP2 JUMPDEST POP POP POP POP POP SWAP1 POP DUP3 JUMP JUMPDEST PUSH1 0x1 PUSH1 0x1 PUSH1 0xA0 SHL SUB DUP2 AND PUSH1 0x0 SWAP1 DUP2 MSTORE PUSH1 0x4 PUSH1 0x20 SWAP1 DUP2 MSTORE PUSH1 0x40 DUP1 DUP4 KECCAK256 DUP1 SLOAD DUP3 MLOAD DUP2 DUP6 MUL DUP2 ADD DUP6 ADD SWAP1 SWAP4 MSTORE DUP1 DUP4 MSTORE PUSH1 0x60 SWAP5 SWAP4 DUP4 ADD DUP3 DUP3 DUP1 ISZERO PUSH2 0x1DB3 JUMPI PUSH1 0x20 MUL DUP3 ADD SWAP2 SWAP1 PUSH1 0x0 MSTORE PUSH1 0x20 PUSH1 0x0 KECCAK256 SWAP1 JUMPDEST DUP2 SLOAD DUP2 MSTORE PUSH1 0x20 ADD SWAP1 PUSH1 0x1 ADD SWAP1 DUP1 DUP4 GT PUSH2 0x1D9F JUMPI JUMPDEST POP POP POP POP POP SWAP1 POP PUSH1 0x0 DUP2 MLOAD PUSH1 0x1 PUSH1 0x1 PUSH1 0x40 SHL SUB DUP2 GT ISZERO PUSH2 0x1DD5 JUMPI PUSH2 0x1DD5 PUSH2 0x58AE JUMP JUMPDEST PUSH1 0x40 MLOAD SWAP1 DUP1 DUP3 MSTORE DUP1 PUSH1 0x20 MUL PUSH1 0x20 ADD DUP3 ADD PUSH1 0x40 MSTORE DUP1 ISZERO PUSH2 0x1E0E JUMPI DUP2 PUSH1 0x20 ADD JUMPDEST PUSH2 0x1DFB PUSH2 0x4D63 JUMP JUMPDEST DUP2 MSTORE PUSH1 0x20 ADD SWAP1 PUSH1 0x1 SWAP1 SUB SWAP1 DUP2 PUSH2 0x1DF3 JUMPI SWAP1 POP JUMPDEST POP SWAP1 POP PUSH1 0x0 JUMPDEST DUP3 MLOAD DUP2 LT ISZERO PUSH2 0x21D0 JUMPI PUSH1 0x0 DUP4 DUP3 DUP2 MLOAD DUP2 LT PUSH2 0x1E31 JUMPI PUSH2 0x1E31 PUSH2 0x5898 JUMP JUMPDEST PUSH1 0x20 MUL PUSH1 0x20 ADD ADD MLOAD SWAP1 POP PUSH1 0x7 DUP2 DUP2 SLOAD DUP2 LT PUSH2 0x1E4E JUMPI PUSH2 0x1E4E PUSH2 0x5898 JUMP JUMPDEST SWAP1 PUSH1 0x0 MSTORE PUSH1 0x20 PUSH1 0x0 KECCAK256 SWAP1 PUSH1 0x10 MUL ADD PUSH1 0x40 MLOAD DUP1 PUSH2 0x200 ADD PUSH1 0x40 MSTORE SWAP1 DUP2 PUSH1 0x0 DUP3 ADD SLOAD DUP2 MSTORE PUSH1 0x20 ADD PUSH1 0x1 DUP3 ADD PUSH1 0x0 SWAP1 SLOAD SWAP1 PUSH2 0x100 EXP SWAP1 DIV PUSH1 0x1 PUSH1 0x1 PUSH1 0xA0 SHL SUB AND PUSH1 0x1 PUSH1 0x1 PUSH1 0xA0 SHL SUB AND PUSH1 0x1 PUSH1 0x1 PUSH1 0xA0 SHL SUB AND DUP2 MSTORE PUSH1 0x20 ADD PUSH1 0x2 DUP3 ADD DUP1 SLOAD PUSH2 0x1EB1 SWAP1 PUSH2 0x58C4 JUMP JUMPDEST DUP1 PUSH1 0x1F ADD PUSH1 0x20 DUP1 SWAP2 DIV MUL PUSH1 0x20 ADD PUSH1 0x40 MLOAD SWAP1 DUP2 ADD PUSH1 0x40 MSTORE DUP1 SWAP3 SWAP2 SWAP1 DUP2 DUP2 MSTORE PUSH1 0x20 ADD DUP3 DUP1 SLOAD PUSH2 0x1EDD SWAP1 PUSH2 0x58C4 JUMP JUMPDEST DUP1 ISZERO PUSH2 0x1F2A JUMPI DUP1 PUSH1 0x1F LT PUSH2 0x1EFF JUMPI PUSH2 0x100 DUP1 DUP4 SLOAD DIV MUL DUP4 MSTORE SWAP2 PUSH1 0x20 ADD SWAP2 PUSH2 0x1F2A JUMP JUMPDEST DUP3 ADD SWAP2 SWAP1 PUSH1 0x0 MSTORE PUSH1 0x20 PUSH1 0x0 KECCAK256 SWAP1 JUMPDEST DUP2 SLOAD DUP2 MSTORE SWAP1 PUSH1 0x1 ADD SWAP1 PUSH1 0x20 ADD DUP1 DUP4 GT PUSH2 0x1F0D JUMPI DUP3 SWAP1 SUB PUSH1 0x1F AND DUP3 ADD SWAP2 JUMPDEST POP POP POP POP POP DUP2 MSTORE PUSH1 0x20 ADD PUSH1 0x3 DUP3 ADD DUP1 SLOAD PUSH2 0x1F43 SWAP1 PUSH2 0x58C4 JUMP JUMPDEST DUP1 PUSH1 0x1F ADD PUSH1 0x20 DUP1 SWAP2 DIV MUL PUSH1 0x20 ADD PUSH1 0x40 MLOAD SWAP1 DUP2 ADD PUSH1 0x40 MSTORE DUP1 SWAP3 SWAP2 SWAP1 DUP2 DUP2 MSTORE PUSH1 0x20 ADD DUP3 DUP1 SLOAD PUSH2 0x1F6F SWAP1 PUSH2 0x58C4 JUMP JUMPDEST DUP1 ISZERO PUSH2 0x1FBC JUMPI DUP1 PUSH1 0x1F LT PUSH2 0x1F91 JUMPI PUSH2 0x100 DUP1 DUP4 SLOAD DIV MUL DUP4 MSTORE SWAP2 PUSH1 0x20 ADD SWAP2 PUSH2 0x1FBC JUMP JUMPDEST DUP3 ADD SWAP2 SWAP1 PUSH1 0x0 MSTORE PUSH1 0x20 PUSH1 0x0 KECCAK256 SWAP1 JUMPDEST DUP2 SLOAD DUP2 MSTORE SWAP1 PUSH1 0x1 ADD SWAP1 PUSH1 0x20 ADD DUP1 DUP4 GT PUSH2 0x1F9F JUMPI DUP3 SWAP1 SUB PUSH1 0x1F AND DUP3 ADD SWAP2 JUMPDEST POP POP POP SWAP2 DUP4 MSTORE POP POP PUSH1 0x4 DUP3 ADD SLOAD PUSH1 0x1 PUSH1 0x1 PUSH1 0xA0 SHL SUB SWAP1 DUP2 AND PUSH1 0x20 DUP1 DUP5 ADD SWAP2 SWAP1 SWAP2 MSTORE PUSH1 0x5 DUP5 ADD SLOAD SWAP1 SWAP2 AND PUSH1 0x40 DUP1 DUP5 ADD SWAP2 SWAP1 SWAP2 MSTORE PUSH1 0x6 DUP5 ADD DUP1 SLOAD DUP3 MLOAD DUP2 DUP6 MUL DUP2 ADD DUP6 ADD SWAP1 SWAP4 MSTORE DUP1 DUP4 MSTORE PUSH1 0x60 SWAP1 SWAP5 ADD SWAP4 SWAP2 SWAP3 SWAP1 SWAP2 SWAP1 DUP4 ADD DUP3 DUP3 DUP1 ISZERO PUSH2 0x203D JUMPI PUSH1 0x20 MUL DUP3 ADD SWAP2 SWAP1 PUSH1 0x0 MSTORE PUSH1 0x20 PUSH1 0x0 KECCAK256 SWAP1 JUMPDEST DUP2 SLOAD DUP2 MSTORE PUSH1 0x20 ADD SWAP1 PUSH1 0x1 ADD SWAP1 DUP1 DUP4 GT PUSH2 0x2029 JUMPI JUMPDEST POP POP POP POP POP DUP2 MSTORE PUSH1 0x20 ADD PUSH1 0x7 DUP3 ADD DUP1 SLOAD DUP1 PUSH1 0x20 MUL PUSH1 0x20 ADD PUSH1 0x40 MLOAD SWAP1 DUP2 ADD PUSH1 0x40 MSTORE DUP1 SWAP3 SWAP2 SWAP1 DUP2 DUP2 MSTORE PUSH1 0x20 ADD DUP3 DUP1 SLOAD DUP1 ISZERO PUSH2 0x2095 JUMPI PUSH1 0x20 MUL DUP3 ADD SWAP2 SWAP1 PUSH1 0x0 MSTORE PUSH1 0x20 PUSH1 0x0 KECCAK256 SWAP1 JUMPDEST DUP2 SLOAD DUP2 MSTORE PUSH1 0x20 ADD SWAP1 PUSH1 0x1 ADD SWAP1 DUP1 DUP4 GT PUSH2 0x2081 JUMPI JUMPDEST POP POP POP POP POP DUP2 MSTORE PUSH1 0x20 ADD PUSH1 0x8 DUP3 ADD SLOAD DUP2 MSTORE PUSH1 0x20 ADD PUSH1 0x9 DUP3 ADD SLOAD DUP2 MSTORE PUSH1 0x20 ADD PUSH1 0xA DUP3 ADD DUP1 SLOAD PUSH2 0x20C2 SWAP1 PUSH2 0x58C4 JUMP JUMPDEST DUP1 PUSH1 0x1F ADD PUSH1 0x20 DUP1 SWAP2 DIV MUL PUSH1 0x20 ADD PUSH1 0x40 MLOAD SWAP1 DUP2 ADD PUSH1 0x40 MSTORE DUP1 SWAP3 SWAP2 SWAP1 DUP2 DUP2 MSTORE PUSH1 0x20 ADD DUP3 DUP1 SLOAD PUSH2 0x20EE SWAP1 PUSH2 0x58C4 JUMP JUMPDEST DUP1 ISZERO PUSH2 0x213B JUMPI DUP1 PUSH1 0x1F LT PUSH2 0x2110 JUMPI PUSH2 0x100 DUP1 DUP4 SLOAD DIV MUL DUP4 MSTORE SWAP2 PUSH1 0x20 ADD SWAP2 PUSH2 0x213B JUMP JUMPDEST DUP3 ADD SWAP2 SWAP1 PUSH1 0x0 MSTORE PUSH1 0x20 PUSH1 0x0 KECCAK256 SWAP1 JUMPDEST DUP2 SLOAD DUP2 MSTORE SWAP1 PUSH1 0x1 ADD SWAP1 PUSH1 0x20 ADD DUP1 DUP4 GT PUSH2 0x211E JUMPI DUP3 SWAP1 SUB PUSH1 0x1F AND DUP3 ADD SWAP2 JUMPDEST POP POP POP SWAP2 DUP4 MSTORE POP POP PUSH1 0xB DUP3 ADD SLOAD PUSH1 0x20 SWAP1 SWAP2 ADD SWAP1 PUSH1 0xFF AND PUSH1 0x6 DUP2 GT ISZERO PUSH2 0x2162 JUMPI PUSH2 0x2162 PUSH2 0x5387 JUMP JUMPDEST PUSH1 0x6 DUP2 GT ISZERO PUSH2 0x2173 JUMPI PUSH2 0x2173 PUSH2 0x5387 JUMP JUMPDEST DUP2 MSTORE PUSH1 0x20 ADD PUSH1 0xC DUP3 ADD SLOAD DUP2 MSTORE PUSH1 0x20 ADD PUSH1 0xD DUP3 ADD SLOAD DUP2 MSTORE PUSH1 0x20 ADD PUSH1 0xE DUP3 ADD SLOAD DUP2 MSTORE PUSH1 0x20 ADD PUSH1 0xF DUP3 ADD SLOAD DUP2 MSTORE POP POP DUP4 DUP4 DUP2 MLOAD DUP2 LT PUSH2 0x21B1 JUMPI PUSH2 0x21B1 PUSH2 0x5898 JUMP JUMPDEST PUSH1 0x20 MUL PUSH1 0x20 ADD ADD DUP2 SWAP1 MSTORE POP POP DUP1 DUP1 PUSH2 0x21C8 SWAP1 PUSH2 0x5CF5 JUMP JUMPDEST SWAP2 POP POP PUSH2 0x1E14 JUMP JUMPDEST POP SWAP4 SWAP3 POP POP POP JUMP JUMPDEST CALLER PUSH1 0x0 SWAP1 DUP2 MSTORE PUSH1 0x20 DUP2 DUP2 MSTORE PUSH1 0x40 DUP1 DUP4 KECCAK256 PUSH1 0x4 DUP2 ADD DUP1 SLOAD DUP4 MLOAD PUSH1 0xA0 DUP2 ADD DUP6 MSTORE DUP2 DUP2 MSTORE DUP5 MLOAD PUSH1 0x1F DUP13 ADD DUP8 SWAP1 DIV DUP8 MUL DUP2 ADD DUP8 ADD SWAP1 SWAP6 MSTORE DUP11 DUP6 MSTORE SWAP3 SWAP5 SWAP1 SWAP4 SWAP2 SWAP3 SWAP2 DUP3 DUP3 ADD SWAP2 DUP13 SWAP1 DUP13 SWAP1 DUP2 SWAP1 DUP5 ADD DUP4 DUP3 DUP1 DUP3 DUP5 CALLDATACOPY PUSH1 0x0 SWAP3 ADD SWAP2 SWAP1 SWAP2 MSTORE POP POP POP SWAP1 DUP3 MSTORE POP PUSH1 0x40 DUP1 MLOAD PUSH1 0x20 PUSH1 0x1F DUP12 ADD DUP2 SWAP1 DIV DUP2 MUL DUP3 ADD DUP2 ADD SWAP1 SWAP3 MSTORE DUP10 DUP2 MSTORE SWAP2 DUP2 ADD SWAP2 SWAP1 DUP11 SWAP1 DUP11 SWAP1 DUP2 SWAP1 DUP5 ADD DUP4 DUP3 DUP1 DUP3 DUP5 CALLDATACOPY PUSH1 0x0 SWAP3 ADD DUP3 SWAP1 MSTORE POP SWAP4 DUP6 MSTORE POP POP POP PUSH1 0x20 DUP1 DUP4 ADD DUP10 SWAP1 MSTORE PUSH1 0x1 PUSH1 0x40 SWAP1 SWAP4 ADD DUP4 SWAP1 MSTORE DUP5 SLOAD DUP1 DUP5 ADD DUP7 SSTORE SWAP5 DUP3 MSTORE SWAP1 DUP2 SWAP1 KECCAK256 DUP4 MLOAD PUSH1 0x5 SWAP1 SWAP6 MUL ADD SWAP4 DUP5 SSTORE DUP3 ADD MLOAD SWAP2 SWAP3 SWAP2 SWAP1 DUP3 ADD SWAP1 PUSH2 0x22AF SWAP1 DUP3 PUSH2 0x594C JUMP JUMPDEST POP PUSH1 0x40 DUP3 ADD MLOAD PUSH1 0x2 DUP3 ADD SWAP1 PUSH2 0x22C4 SWAP1 DUP3 PUSH2 0x594C JUMP JUMPDEST POP PUSH1 0x60 DUP3 ADD MLOAD PUSH1 0x3 DUP3 ADD SSTORE PUSH1 0x80 SWAP1 SWAP2 ADD MLOAD PUSH1 0x4 SWAP1 SWAP2 ADD DUP1 SLOAD PUSH1 0xFF NOT AND SWAP2 ISZERO ISZERO SWAP2 SWAP1 SWAP2 OR SWAP1 SSTORE SWAP8 SWAP7 POP POP POP POP POP POP POP JUMP JUMPDEST PUSH2 0x2328 PUSH1 0x40 MLOAD DUP1 PUSH1 0xA0 ADD PUSH1 0x40 MSTORE DUP1 PUSH1 0x0 DUP2 MSTORE PUSH1 0x20 ADD PUSH1 0x60 DUP2 MSTORE PUSH1 0x20 ADD PUSH1 0x60 DUP2 MSTORE PUSH1 0x20 ADD PUSH1 0x0 DUP2 MSTORE PUSH1 0x20 ADD PUSH1 0x0 ISZERO ISZERO DUP2 MSTORE POP SWAP1 JUMP JUMPDEST PUSH1 0x1 PUSH1 0x1 PUSH1 0xA0 SHL SUB DUP4 AND PUSH1 0x0 SWAP1 DUP2 MSTORE PUSH1 0x20 DUP2 SWAP1 MSTORE PUSH1 0x40 SWAP1 KECCAK256 PUSH1 0x4 ADD DUP1 SLOAD DUP4 SWAP1 DUP2 LT PUSH2 0x2355 JUMPI PUSH2 0x2355 PUSH2 0x5898 JUMP JUMPDEST SWAP1 PUSH1 0x0 MSTORE PUSH1 0x20 PUSH1 0x0 KECCAK256 SWAP1 PUSH1 0x5 MUL ADD PUSH1 0x40 MLOAD DUP1 PUSH1 0xA0 ADD PUSH1 0x40 MSTORE SWAP1 DUP2 PUSH1 0x0 DUP3 ADD SLOAD DUP2 MSTORE PUSH1 0x20 ADD PUSH1 0x1 DUP3 ADD DUP1 SLOAD PUSH2 0x2388 SWAP1 PUSH2 0x58C4 JUMP JUMPDEST DUP1 PUSH1 0x1F ADD PUSH1 0x20 DUP1 SWAP2 DIV MUL PUSH1 0x20 ADD PUSH1 0x40 MLOAD SWAP1 DUP2 ADD PUSH1 0x40 MSTORE DUP1 SWAP3 SWAP2 SWAP1 DUP2 DUP2 MSTORE PUSH1 0x20 ADD DUP3 DUP1 SLOAD PUSH2 0x23B4 SWAP1 PUSH2 0x58C4 JUMP JUMPDEST DUP1 ISZERO PUSH2 0x2401 JUMPI DUP1 PUSH1 0x1F LT PUSH2 0x23D6 JUMPI PUSH2 0x100 DUP1 DUP4 SLOAD DIV MUL DUP4 MSTORE SWAP2 PUSH1 0x20 ADD SWAP2 PUSH2 0x2401 JUMP JUMPDEST DUP3 ADD SWAP2 SWAP1 PUSH1 0x0 MSTORE PUSH1 0x20 PUSH1 0x0 KECCAK256 SWAP1 JUMPDEST DUP2 SLOAD DUP2 MSTORE SWAP1 PUSH1 0x1 ADD SWAP1 PUSH1 0x20 ADD DUP1 DUP4 GT PUSH2 0x23E4 JUMPI DUP3 SWAP1 SUB PUSH1 0x1F AND DUP3 ADD SWAP2 JUMPDEST POP POP POP POP POP DUP2 MSTORE PUSH1 0x20 ADD PUSH1 0x2 DUP3 ADD DUP1 SLOAD PUSH2 0x241A SWAP1 PUSH2 0x58C4 JUMP JUMPDEST DUP1 PUSH1 0x1F ADD PUSH1 0x20 DUP1 SWAP2 DIV MUL PUSH1 0x20 ADD PUSH1 0x40 MLOAD SWAP1 DUP2 ADD PUSH1 0x40 MSTORE DUP1 SWAP3 SWAP2 SWAP1 DUP2 DUP2 MSTORE PUSH1 0x20 ADD DUP3 DUP1 SLOAD PUSH2 0x2446 SWAP1 PUSH2 0x58C4 JUMP JUMPDEST DUP1 ISZERO PUSH2 0x2493 JUMPI DUP1 PUSH1 0x1F LT PUSH2 0x2468 JUMPI PUSH2 0x100 DUP1 DUP4 SLOAD DIV MUL DUP4 MSTORE SWAP2 PUSH1 0x20 ADD SWAP2 PUSH2 0x2493 JUMP JUMPDEST DUP3 ADD SWAP2 SWAP1 PUSH1 0x0 MSTORE PUSH1 0x20 PUSH1 0x0 KECCAK256 SWAP1 JUMPDEST DUP2 SLOAD DUP2 MSTORE SWAP1 PUSH1 0x1 ADD SWAP1 PUSH1 0x20 ADD DUP1 DUP4 GT PUSH2 0x2476 JUMPI DUP3 SWAP1 SUB PUSH1 0x1F AND DUP3 ADD SWAP2 JUMPDEST POP POP POP SWAP2 DUP4 MSTORE POP POP PUSH1 0x3 DUP3 ADD SLOAD PUSH1 0x20 DUP3 ADD MSTORE PUSH1 0x4 SWAP1 SWAP2 ADD SLOAD PUSH1 0xFF AND ISZERO ISZERO PUSH1 0x40 SWAP1 SWAP2 ADD MSTORE SWAP1 POP JUMPDEST SWAP3 SWAP2 POP POP JUMP JUMPDEST PUSH1 0x6 DUP2 DUP2 SLOAD DUP2 LT PUSH2 0x24CF JUMPI PUSH1 0x0 DUP1 REVERT JUMPDEST PUSH1 0x0 SWAP2 DUP3 MSTORE PUSH1 0x20 SWAP1 SWAP2 KECCAK256 ADD SLOAD SWAP1 POP DUP2 JUMP JUMPDEST PUSH1 0x1 PUSH1 0x1 PUSH1 0xA0 SHL SUB DUP2 AND PUSH1 0x0 SWAP1 DUP2 MSTORE PUSH1 0x2 PUSH1 0x20 SWAP1 DUP2 MSTORE PUSH1 0x40 DUP1 DUP4 KECCAK256 DUP1 SLOAD DUP3 MLOAD DUP2 DUP6 MUL DUP2 ADD DUP6 ADD SWAP1 SWAP4 MSTORE DUP1 DUP4 MSTORE PUSH1 0x60 SWAP5 SWAP4 DUP4 ADD DUP3 DUP3 DUP1 ISZERO PUSH2 0x253F JUMPI PUSH1 0x20 MUL DUP3 ADD SWAP2 SWAP1 PUSH1 0x0 MSTORE PUSH1 0x20 PUSH1 0x0 KECCAK256 SWAP1 JUMPDEST DUP2 SLOAD DUP2 MSTORE PUSH1 0x20 ADD SWAP1 PUSH1 0x1 ADD SWAP1 DUP1 DUP4 GT PUSH2 0x252B JUMPI JUMPDEST POP POP POP POP POP SWAP1 POP PUSH1 0x0 DUP2 MLOAD PUSH1 0x1 PUSH1 0x1 PUSH1 0x40 SHL SUB DUP2 GT ISZERO PUSH2 0x2561 JUMPI PUSH2 0x2561 PUSH2 0x58AE JUMP JUMPDEST PUSH1 0x40 MLOAD SWAP1 DUP1 DUP3 MSTORE DUP1 PUSH1 0x20 MUL PUSH1 0x20 ADD DUP3 ADD PUSH1 0x40 MSTORE DUP1 ISZERO PUSH2 0x259A JUMPI DUP2 PUSH1 0x20 ADD JUMPDEST PUSH2 0x2587 PUSH2 0x4D63 JUMP JUMPDEST DUP2 MSTORE PUSH1 0x20 ADD SWAP1 PUSH1 0x1 SWAP1 SUB SWAP1 DUP2 PUSH2 0x257F JUMPI SWAP1 POP JUMPDEST POP SWAP1 POP PUSH1 0x0 JUMPDEST DUP3 MLOAD DUP2 LT ISZERO PUSH2 0x21D0 JUMPI PUSH1 0x0 DUP4 DUP3 DUP2 MLOAD DUP2 LT PUSH2 0x25BD JUMPI PUSH2 0x25BD PUSH2 0x5898 JUMP JUMPDEST PUSH1 0x20 MUL PUSH1 0x20 ADD ADD MLOAD SWAP1 POP PUSH1 0x7 DUP2 DUP2 SLOAD DUP2 LT PUSH2 0x25DA JUMPI PUSH2 0x25DA PUSH2 0x5898 JUMP JUMPDEST SWAP1 PUSH1 0x0 MSTORE PUSH1 0x20 PUSH1 0x0 KECCAK256 SWAP1 PUSH1 0x10 MUL ADD PUSH1 0x40 MLOAD DUP1 PUSH2 0x200 ADD PUSH1 0x40 MSTORE SWAP1 DUP2 PUSH1 0x0 DUP3 ADD SLOAD DUP2 MSTORE PUSH1 0x20 ADD PUSH1 0x1 DUP3 ADD PUSH1 0x0 SWAP1 SLOAD SWAP1 PUSH2 0x100 EXP SWAP1 DIV PUSH1 0x1 PUSH1 0x1 PUSH1 0xA0 SHL SUB AND PUSH1 0x1 PUSH1 0x1 PUSH1 0xA0 SHL SUB AND PUSH1 0x1 PUSH1 0x1 PUSH1 0xA0 SHL SUB AND DUP2 MSTORE PUSH1 0x20 ADD PUSH1 0x2 DUP3 ADD DUP1 SLOAD PUSH2 0x263D SWAP1 PUSH2 0x58C4 JUMP JUMPDEST DUP1 PUSH1 0x1F ADD PUSH1 0x20 DUP1 SWAP2 DIV MUL PUSH1 0x20 ADD PUSH1 0x40 MLOAD SWAP1 DUP2 ADD PUSH1 0x40 MSTORE DUP1 SWAP3 SWAP2 SWAP1 DUP2 DUP2 MSTORE PUSH1 0x20 ADD DUP3 DUP1 SLOAD PUSH2 0x2669 SWAP1 PUSH2 0x58C4 JUMP JUMPDEST DUP1 ISZERO PUSH2 0x26B6 JUMPI DUP1 PUSH1 0x1F LT PUSH2 0x268B JUMPI PUSH2 0x100 DUP1 DUP4 SLOAD DIV MUL DUP4 MSTORE SWAP2 PUSH1 0x20 ADD SWAP2 PUSH2 0x26B6 JUMP JUMPDEST DUP3 ADD SWAP2 SWAP1 PUSH1 0x0 MSTORE PUSH1 0x20 PUSH1 0x0 KECCAK256 SWAP1 JUMPDEST DUP2 SLOAD DUP2 MSTORE SWAP1 PUSH1 0x1 ADD SWAP1 PUSH1 0x20 ADD DUP1 DUP4 GT PUSH2 0x2699 JUMPI DUP3 SWAP1 SUB PUSH1 0x1F AND DUP3 ADD SWAP2 JUMPDEST POP POP POP POP POP DUP2 MSTORE PUSH1 0x20 ADD PUSH1 0x3 DUP3 ADD DUP1 SLOAD PUSH2 0x26CF SWAP1 PUSH2 0x58C4 JUMP JUMPDEST DUP1 PUSH1 0x1F ADD PUSH1 0x20 DUP1 SWAP2 DIV MUL PUSH1 0x20 ADD PUSH1 0x40 MLOAD SWAP1 DUP2 ADD PUSH1 0x40 MSTORE DUP1 SWAP3 SWAP2 SWAP1 DUP2 DUP2 MSTORE PUSH1 0x20 ADD DUP3 DUP1 SLOAD PUSH2 0x26FB SWAP1 PUSH2 0x58C4 JUMP JUMPDEST DUP1 ISZERO PUSH2 0x2748 JUMPI DUP1 PUSH1 0x1F LT PUSH2 0x271D JUMPI PUSH2 0x100 DUP1 DUP4 SLOAD DIV MUL DUP4 MSTORE SWAP2 PUSH1 0x20 ADD SWAP2 PUSH2 0x2748 JUMP JUMPDEST DUP3 ADD SWAP2 SWAP1 PUSH1 0x0 MSTORE PUSH1 0x20 PUSH1 0x0 KECCAK256 SWAP1 JUMPDEST DUP2 SLOAD DUP2 MSTORE SWAP1 PUSH1 0x1 ADD SWAP1 PUSH1 0x20 ADD DUP1 DUP4 GT PUSH2 0x272B JUMPI DUP3 SWAP1 SUB PUSH1 0x1F AND DUP3 ADD SWAP2 JUMPDEST POP POP POP SWAP2 DUP4 MSTORE POP POP PUSH1 0x4 DUP3 ADD SLOAD PUSH1 0x1 PUSH1 0x1 PUSH1 0xA0 SHL SUB SWAP1 DUP2 AND PUSH1 0x20 DUP1 DUP5 ADD SWAP2 SWAP1 SWAP2 MSTORE PUSH1 0x5 DUP5 ADD SLOAD SWAP1 SWAP2 AND PUSH1 0x40 DUP1 DUP5 ADD SWAP2 SWAP1 SWAP2 MSTORE PUSH1 0x6 DUP5 ADD DUP1 SLOAD DUP3 MLOAD DUP2 DUP6 MUL DUP2 ADD DUP6 ADD SWAP1 SWAP4 MSTORE DUP1 DUP4 MSTORE PUSH1 0x60 SWAP1 SWAP5 ADD SWAP4 SWAP2 SWAP3 SWAP1 SWAP2 SWAP1 DUP4 ADD DUP3 DUP3 DUP1 ISZERO PUSH2 0x27C9 JUMPI PUSH1 0x20 MUL DUP3 ADD SWAP2 SWAP1 PUSH1 0x0 MSTORE PUSH1 0x20 PUSH1 0x0 KECCAK256 SWAP1 JUMPDEST DUP2 SLOAD DUP2 MSTORE PUSH1 0x20 ADD SWAP1 PUSH1 0x1 ADD SWAP1 DUP1 DUP4 GT PUSH2 0x27B5 JUMPI JUMPDEST POP POP POP POP POP DUP2 MSTORE PUSH1 0x20 ADD PUSH1 0x7 DUP3 ADD DUP1 SLOAD DUP1 PUSH1 0x20 MUL PUSH1 0x20 ADD PUSH1 0x40 MLOAD SWAP1 DUP2 ADD PUSH1 0x40 MSTORE DUP1 SWAP3 SWAP2 SWAP1 DUP2 DUP2 MSTORE PUSH1 0x20 ADD DUP3 DUP1 SLOAD DUP1 ISZERO PUSH2 0x2821 JUMPI PUSH1 0x20 MUL DUP3 ADD SWAP2 SWAP1 PUSH1 0x0 MSTORE PUSH1 0x20 PUSH1 0x0 KECCAK256 SWAP1 JUMPDEST DUP2 SLOAD DUP2 MSTORE PUSH1 0x20 ADD SWAP1 PUSH1 0x1 ADD SWAP1 DUP1 DUP4 GT PUSH2 0x280D JUMPI JUMPDEST POP POP POP POP POP DUP2 MSTORE PUSH1 0x20 ADD PUSH1 0x8 DUP3 ADD SLOAD DUP2 MSTORE PUSH1 0x20 ADD PUSH1 0x9 DUP3 ADD SLOAD DUP2 MSTORE PUSH1 0x20 ADD PUSH1 0xA DUP3 ADD DUP1 SLOAD PUSH2 0x284E SWAP1 PUSH2 0x58C4 JUMP JUMPDEST DUP1 PUSH1 0x1F ADD PUSH1 0x20 DUP1 SWAP2 DIV MUL PUSH1 0x20 ADD PUSH1 0x40 MLOAD SWAP1 DUP2 ADD PUSH1 0x40 MSTORE DUP1 SWAP3 SWAP2 SWAP1 DUP2 DUP2 MSTORE PUSH1 0x20 ADD DUP3 DUP1 SLOAD PUSH2 0x287A SWAP1 PUSH2 0x58C4 JUMP JUMPDEST DUP1 ISZERO PUSH2 0x28C7 JUMPI DUP1 PUSH1 0x1F LT PUSH2 0x289C JUMPI PUSH2 0x100 DUP1 DUP4 SLOAD DIV MUL DUP4 MSTORE SWAP2 PUSH1 0x20 ADD SWAP2 PUSH2 0x28C7 JUMP JUMPDEST DUP3 ADD SWAP2 SWAP1 PUSH1 0x0 MSTORE PUSH1 0x20 PUSH1 0x0 KECCAK256 SWAP1 JUMPDEST DUP2 SLOAD DUP2 MSTORE SWAP1 PUSH1 0x1 ADD SWAP1 PUSH1 0x20 ADD DUP1 DUP4 GT PUSH2 0x28AA JUMPI DUP3 SWAP1 SUB PUSH1 0x1F AND DUP3 ADD SWAP2 JUMPDEST POP POP POP SWAP2 DUP4 MSTORE POP POP PUSH1 0xB DUP3 ADD SLOAD PUSH1 0x20 SWAP1 SWAP2 ADD SWAP1 PUSH1 0xFF AND PUSH1 0x6 DUP2 GT ISZERO PUSH2 0x28EE JUMPI PUSH2 0x28EE PUSH2 0x5387 JUMP JUMPDEST PUSH1 0x6 DUP2 GT ISZERO PUSH2 0x28FF JUMPI PUSH2 0x28FF PUSH2 0x5387 JUMP JUMPDEST DUP2 MSTORE PUSH1 0x20 ADD PUSH1 0xC DUP3 ADD SLOAD DUP2 MSTORE PUSH1 0x20 ADD PUSH1 0xD DUP3 ADD SLOAD DUP2 MSTORE PUSH1 0x20 ADD PUSH1 0xE DUP3 ADD SLOAD DUP2 MSTORE PUSH1 0x20 ADD PUSH1 0xF DUP3 ADD SLOAD DUP2 MSTORE POP POP DUP4 DUP4 DUP2 MLOAD DUP2 LT PUSH2 0x293D JUMPI PUSH2 0x293D PUSH2 0x5898 JUMP JUMPDEST PUSH1 0x20 MUL PUSH1 0x20 ADD ADD DUP2 SWAP1 MSTORE POP POP DUP1 DUP1 PUSH2 0x2954 SWAP1 PUSH2 0x5CF5 JUMP JUMPDEST SWAP2 POP POP PUSH2 0x25A0 JUMP JUMPDEST PUSH1 0x8 DUP2 DUP2 SLOAD DUP2 LT PUSH2 0x296C JUMPI PUSH1 0x0 DUP1 REVERT JUMPDEST PUSH1 0x0 SWAP2 DUP3 MSTORE PUSH1 0x20 SWAP1 SWAP2 KECCAK256 ADD SLOAD PUSH1 0x1 PUSH1 0x1 PUSH1 0xA0 SHL SUB AND SWAP1 POP DUP2 JUMP JUMPDEST PUSH1 0x60 DUP1 PUSH1 0x0 PUSH1 0x8 DUP1 SLOAD SWAP1 POP PUSH1 0x1 PUSH1 0x1 PUSH1 0x40 SHL SUB DUP2 GT ISZERO PUSH2 0x29A8 JUMPI PUSH2 0x29A8 PUSH2 0x58AE JUMP JUMPDEST PUSH1 0x40 MLOAD SWAP1 DUP1 DUP3 MSTORE DUP1 PUSH1 0x20 MUL PUSH1 0x20 ADD DUP3 ADD PUSH1 0x40 MSTORE DUP1 ISZERO PUSH2 0x2A14 JUMPI DUP2 PUSH1 0x20 ADD JUMPDEST PUSH2 0x2A01 PUSH1 0x40 MLOAD DUP1 PUSH1 0xA0 ADD PUSH1 0x40 MSTORE DUP1 PUSH1 0x0 PUSH1 0x1 PUSH1 0x1 PUSH1 0xA0 SHL SUB AND DUP2 MSTORE PUSH1 0x20 ADD PUSH1 0x60 DUP2 MSTORE PUSH1 0x20 ADD PUSH1 0x60 DUP2 MSTORE PUSH1 0x20 ADD PUSH1 0x60 DUP2 MSTORE PUSH1 0x20 ADD PUSH1 0x60 DUP2 MSTORE POP SWAP1 JUMP JUMPDEST DUP2 MSTORE PUSH1 0x20 ADD SWAP1 PUSH1 0x1 SWAP1 SUB SWAP1 DUP2 PUSH2 0x29C6 JUMPI SWAP1 POP JUMPDEST POP PUSH1 0x8 SLOAD SWAP1 SWAP2 POP PUSH1 0x0 SWAP1 PUSH1 0x1 PUSH1 0x1 PUSH1 0x40 SHL SUB DUP2 GT ISZERO PUSH2 0x2A35 JUMPI PUSH2 0x2A35 PUSH2 0x58AE JUMP JUMPDEST PUSH1 0x40 MLOAD SWAP1 DUP1 DUP3 MSTORE DUP1 PUSH1 0x20 MUL PUSH1 0x20 ADD DUP3 ADD PUSH1 0x40 MSTORE DUP1 ISZERO PUSH2 0x2A5E JUMPI DUP2 PUSH1 0x20 ADD PUSH1 0x20 DUP3 MUL DUP1 CALLDATASIZE DUP4 CALLDATACOPY ADD SWAP1 POP JUMPDEST POP SWAP1 POP PUSH1 0x0 JUMPDEST PUSH1 0x8 SLOAD DUP2 LT ISZERO PUSH2 0x2E7E JUMPI PUSH1 0x0 PUSH1 0x8 DUP3 DUP2 SLOAD DUP2 LT PUSH2 0x2A83 JUMPI PUSH2 0x2A83 PUSH2 0x5898 JUMP JUMPDEST PUSH1 0x0 SWAP2 DUP3 MSTORE PUSH1 0x20 DUP1 DUP4 KECCAK256 SWAP1 SWAP2 ADD SLOAD PUSH1 0x1 PUSH1 0x1 PUSH1 0xA0 SHL SUB SWAP1 DUP2 AND DUP1 DUP5 MSTORE DUP4 DUP4 MSTORE PUSH1 0x40 SWAP4 DUP5 SWAP1 KECCAK256 DUP5 MLOAD PUSH1 0xA0 DUP2 ADD SWAP1 SWAP6 MSTORE DUP1 SLOAD SWAP1 SWAP3 AND DUP5 MSTORE PUSH1 0x1 DUP3 ADD DUP1 SLOAD SWAP2 SWAP6 POP SWAP2 SWAP4 SWAP3 DUP5 SWAP3 SWAP1 DUP5 ADD SWAP2 PUSH2 0x2AD3 SWAP1 PUSH2 0x58C4 JUMP JUMPDEST DUP1 PUSH1 0x1F ADD PUSH1 0x20 DUP1 SWAP2 DIV MUL PUSH1 0x20 ADD PUSH1 0x40 MLOAD SWAP1 DUP2 ADD PUSH1 0x40 MSTORE DUP1 SWAP3 SWAP2 SWAP1 DUP2 DUP2 MSTORE PUSH1 0x20 ADD DUP3 DUP1 SLOAD PUSH2 0x2AFF SWAP1 PUSH2 0x58C4 JUMP JUMPDEST DUP1 ISZERO PUSH2 0x2B4C JUMPI DUP1 PUSH1 0x1F LT PUSH2 0x2B21 JUMPI PUSH2 0x100 DUP1 DUP4 SLOAD DIV MUL DUP4 MSTORE SWAP2 PUSH1 0x20 ADD SWAP2 PUSH2 0x2B4C JUMP JUMPDEST DUP3 ADD SWAP2 SWAP1 PUSH1 0x0 MSTORE PUSH1 0x20 PUSH1 0x0 KECCAK256 SWAP1 JUMPDEST DUP2 SLOAD DUP2 MSTORE SWAP1 PUSH1 0x1 ADD SWAP1 PUSH1 0x20 ADD DUP1 DUP4 GT PUSH2 0x2B2F JUMPI DUP3 SWAP1 SUB PUSH1 0x1F AND DUP3 ADD SWAP2 JUMPDEST POP POP POP POP POP DUP2 MSTORE PUSH1 0x20 ADD PUSH1 0x2 DUP3 ADD DUP1 SLOAD PUSH2 0x2B65 SWAP1 PUSH2 0x58C4 JUMP JUMPDEST DUP1 PUSH1 0x1F ADD PUSH1 0x20 DUP1 SWAP2 DIV MUL PUSH1 0x20 ADD PUSH1 0x40 MLOAD SWAP1 DUP2 ADD PUSH1 0x40 MSTORE DUP1 SWAP3 SWAP2 SWAP1 DUP2 DUP2 MSTORE PUSH1 0x20 ADD DUP3 DUP1 SLOAD PUSH2 0x2B91 SWAP1 PUSH2 0x58C4 JUMP JUMPDEST DUP1 ISZERO PUSH2 0x2BDE JUMPI DUP1 PUSH1 0x1F LT PUSH2 0x2BB3 JUMPI PUSH2 0x100 DUP1 DUP4 SLOAD DIV MUL DUP4 MSTORE SWAP2 PUSH1 0x20 ADD SWAP2 PUSH2 0x2BDE JUMP JUMPDEST DUP3 ADD SWAP2 SWAP1 PUSH1 0x0 MSTORE PUSH1 0x20 PUSH1 0x0 KECCAK256 SWAP1 JUMPDEST DUP2 SLOAD DUP2 MSTORE SWAP1 PUSH1 0x1 ADD SWAP1 PUSH1 0x20 ADD DUP1 DUP4 GT PUSH2 0x2BC1 JUMPI DUP3 SWAP1 SUB PUSH1 0x1F AND DUP3 ADD SWAP2 JUMPDEST POP POP POP POP POP DUP2 MSTORE PUSH1 0x20 ADD PUSH1 0x3 DUP3 ADD DUP1 SLOAD PUSH2 0x2BF7 SWAP1 PUSH2 0x58C4 JUMP JUMPDEST DUP1 PUSH1 0x1F ADD PUSH1 0x20 DUP1 SWAP2 DIV MUL PUSH1 0x20 ADD PUSH1 0x40 MLOAD SWAP1 DUP2 ADD PUSH1 0x40 MSTORE DUP1 SWAP3 SWAP2 SWAP1 DUP2 DUP2 MSTORE PUSH1 0x20 ADD DUP3 DUP1 SLOAD PUSH2 0x2C23 SWAP1 PUSH2 0x58C4 JUMP JUMPDEST DUP1 ISZERO PUSH2 0x2C70 JUMPI DUP1 PUSH1 0x1F LT PUSH2 0x2C45 JUMPI PUSH2 0x100 DUP1 DUP4 SLOAD DIV MUL DUP4 MSTORE SWAP2 PUSH1 0x20 ADD SWAP2 PUSH2 0x2C70 JUMP JUMPDEST DUP3 ADD SWAP2 SWAP1 PUSH1 0x0 MSTORE PUSH1 0x20 PUSH1 0x0 KECCAK256 SWAP1 JUMPDEST DUP2 SLOAD DUP2 MSTORE SWAP1 PUSH1 0x1 ADD SWAP1 PUSH1 0x20 ADD DUP1 DUP4 GT PUSH2 0x2C53 JUMPI DUP3 SWAP1 SUB PUSH1 0x1F AND DUP3 ADD SWAP2 JUMPDEST POP POP POP POP POP DUP2 MSTORE PUSH1 0x20 ADD PUSH1 0x4 DUP3 ADD DUP1 SLOAD DUP1 PUSH1 0x20 MUL PUSH1 0x20 ADD PUSH1 0x40 MLOAD SWAP1 DUP2 ADD PUSH1 0x40 MSTORE DUP1 SWAP3 SWAP2 SWAP1 DUP2 DUP2 MSTORE PUSH1 0x20 ADD PUSH1 0x0 SWAP1 JUMPDEST DUP3 DUP3 LT ISZERO PUSH2 0x2E1D JUMPI DUP4 DUP3 SWAP1 PUSH1 0x0 MSTORE PUSH1 0x20 PUSH1 0x0 KECCAK256 SWAP1 PUSH1 0x5 MUL ADD PUSH1 0x40 MLOAD DUP1 PUSH1 0xA0 ADD PUSH1 0x40 MSTORE SWAP1 DUP2 PUSH1 0x0 DUP3 ADD SLOAD DUP2 MSTORE PUSH1 0x20 ADD PUSH1 0x1 DUP3 ADD DUP1 SLOAD PUSH2 0x2CDB SWAP1 PUSH2 0x58C4 JUMP JUMPDEST DUP1 PUSH1 0x1F ADD PUSH1 0x20 DUP1 SWAP2 DIV MUL PUSH1 0x20 ADD PUSH1 0x40 MLOAD SWAP1 DUP2 ADD PUSH1 0x40 MSTORE DUP1 SWAP3 SWAP2 SWAP1 DUP2 DUP2 MSTORE PUSH1 0x20 ADD DUP3 DUP1 SLOAD PUSH2 0x2D07 SWAP1 PUSH2 0x58C4 JUMP JUMPDEST DUP1 ISZERO PUSH2 0x2D54 JUMPI DUP1 PUSH1 0x1F LT PUSH2 0x2D29 JUMPI PUSH2 0x100 DUP1 DUP4 SLOAD DIV MUL DUP4 MSTORE SWAP2 PUSH1 0x20 ADD SWAP2 PUSH2 0x2D54 JUMP JUMPDEST DUP3 ADD SWAP2 SWAP1 PUSH1 0x0 MSTORE PUSH1 0x20 PUSH1 0x0 KECCAK256 SWAP1 JUMPDEST DUP2 SLOAD DUP2 MSTORE SWAP1 PUSH1 0x1 ADD SWAP1 PUSH1 0x20 ADD DUP1 DUP4 GT PUSH2 0x2D37 JUMPI DUP3 SWAP1 SUB PUSH1 0x1F AND DUP3 ADD SWAP2 JUMPDEST POP POP POP POP POP DUP2 MSTORE PUSH1 0x20 ADD PUSH1 0x2 DUP3 ADD DUP1 SLOAD PUSH2 0x2D6D SWAP1 PUSH2 0x58C4 JUMP JUMPDEST DUP1 PUSH1 0x1F ADD PUSH1 0x20 DUP1 SWAP2 DIV MUL PUSH1 0x20 ADD PUSH1 0x40 MLOAD SWAP1 DUP2 ADD PUSH1 0x40 MSTORE DUP1 SWAP3 SWAP2 SWAP1 DUP2 DUP2 MSTORE PUSH1 0x20 ADD DUP3 DUP1 SLOAD PUSH2 0x2D99 SWAP1 PUSH2 0x58C4 JUMP JUMPDEST DUP1 ISZERO PUSH2 0x2DE6 JUMPI DUP1 PUSH1 0x1F LT PUSH2 0x2DBB JUMPI PUSH2 0x100 DUP1 DUP4 SLOAD DIV MUL DUP4 MSTORE SWAP2 PUSH1 0x20 ADD SWAP2 PUSH2 0x2DE6 JUMP JUMPDEST DUP3 ADD SWAP2 SWAP1 PUSH1 0x0 MSTORE PUSH1 0x20 PUSH1 0x0 KECCAK256 SWAP1 JUMPDEST DUP2 SLOAD DUP2 MSTORE SWAP1 PUSH1 0x1 ADD SWAP1 PUSH1 0x20 ADD DUP1 DUP4 GT PUSH2 0x2DC9 JUMPI DUP3 SWAP1 SUB PUSH1 0x1F AND DUP3 ADD SWAP2 JUMPDEST POP POP POP SWAP2 DUP4 MSTORE POP POP PUSH1 0x3 DUP3 ADD SLOAD PUSH1 0x20 DUP1 DUP4 ADD SWAP2 SWAP1 SWAP2 MSTORE PUSH1 0x4 SWAP1 SWAP3 ADD SLOAD PUSH1 0xFF AND ISZERO ISZERO PUSH1 0x40 SWAP1 SWAP2 ADD MSTORE SWAP1 DUP3 MSTORE PUSH1 0x1 SWAP3 SWAP1 SWAP3 ADD SWAP2 ADD PUSH2 0x2C9E JUMP JUMPDEST POP POP POP POP DUP2 MSTORE POP POP DUP6 DUP5 DUP2 MLOAD DUP2 LT PUSH2 0x2E37 JUMPI PUSH2 0x2E37 PUSH2 0x5898 JUMP JUMPDEST PUSH1 0x20 MUL PUSH1 0x20 ADD ADD DUP2 SWAP1 MSTORE POP PUSH2 0x2E4B DUP3 PUSH2 0x43CA JUMP JUMPDEST DUP5 DUP5 DUP2 MLOAD DUP2 LT PUSH2 0x2E5D JUMPI PUSH2 0x2E5D PUSH2 0x5898 JUMP JUMPDEST PUSH1 0x20 MUL PUSH1 0x20 ADD ADD DUP2 DUP2 MSTORE POP POP POP POP DUP1 DUP1 PUSH2 0x2E76 SWAP1 PUSH2 0x5CF5 JUMP JUMPDEST SWAP2 POP POP PUSH2 0x2A64 JUMP JUMPDEST POP SWAP1 SWAP4 SWAP1 SWAP3 POP SWAP1 POP JUMP JUMPDEST PUSH1 0x60 PUSH1 0x0 DUP1 JUMPDEST PUSH1 0x7 SLOAD DUP2 LT ISZERO PUSH2 0x2F0A JUMPI DUP4 PUSH1 0x6 DUP2 GT ISZERO PUSH2 0x2EAA JUMPI PUSH2 0x2EAA PUSH2 0x5387 JUMP JUMPDEST PUSH1 0x7 DUP3 DUP2 SLOAD DUP2 LT PUSH2 0x2EBD JUMPI PUSH2 0x2EBD PUSH2 0x5898 JUMP JUMPDEST PUSH1 0x0 SWAP2 DUP3 MSTORE PUSH1 0x20 SWAP1 SWAP2 KECCAK256 PUSH1 0xB PUSH1 0x10 SWAP1 SWAP3 MUL ADD ADD SLOAD PUSH1 0xFF AND PUSH1 0x6 DUP2 GT ISZERO PUSH2 0x2EE5 JUMPI PUSH2 0x2EE5 PUSH2 0x5387 JUMP JUMPDEST SUB PUSH2 0x2EF8 JUMPI DUP2 PUSH2 0x2EF4 DUP2 PUSH2 0x5CF5 JUMP JUMPDEST SWAP3 POP POP JUMPDEST DUP1 PUSH2 0x2F02 DUP2 PUSH2 0x5CF5 JUMP JUMPDEST SWAP2 POP POP PUSH2 0x2E8E JUMP JUMPDEST POP PUSH1 0x0 DUP2 PUSH1 0x1 PUSH1 0x1 PUSH1 0x40 SHL SUB DUP2 GT ISZERO PUSH2 0x2F25 JUMPI PUSH2 0x2F25 PUSH2 0x58AE JUMP JUMPDEST PUSH1 0x40 MLOAD SWAP1 DUP1 DUP3 MSTORE DUP1 PUSH1 0x20 MUL PUSH1 0x20 ADD DUP3 ADD PUSH1 0x40 MSTORE DUP1 ISZERO PUSH2 0x2F5E JUMPI DUP2 PUSH1 0x20 ADD JUMPDEST PUSH2 0x2F4B PUSH2 0x4D63 JUMP JUMPDEST DUP2 MSTORE PUSH1 0x20 ADD SWAP1 PUSH1 0x1 SWAP1 SUB SWAP1 DUP2 PUSH2 0x2F43 JUMPI SWAP1 POP JUMPDEST POP SWAP1 POP PUSH1 0x0 DUP1 JUMPDEST PUSH1 0x7 SLOAD DUP2 LT ISZERO PUSH2 0x3363 JUMPI DUP6 PUSH1 0x6 DUP2 GT ISZERO PUSH2 0x2F81 JUMPI PUSH2 0x2F81 PUSH2 0x5387 JUMP JUMPDEST PUSH1 0x7 DUP3 DUP2 SLOAD DUP2 LT PUSH2 0x2F94 JUMPI PUSH2 0x2F94 PUSH2 0x5898 JUMP JUMPDEST PUSH1 0x0 SWAP2 DUP3 MSTORE PUSH1 0x20 SWAP1 SWAP2 KECCAK256 PUSH1 0xB PUSH1 0x10 SWAP1 SWAP3 MUL ADD ADD SLOAD PUSH1 0xFF AND PUSH1 0x6 DUP2 GT ISZERO PUSH2 0x2FBC JUMPI PUSH2 0x2FBC PUSH2 0x5387 JUMP JUMPDEST SUB PUSH2 0x3351 JUMPI PUSH1 0x7 DUP2 DUP2 SLOAD DUP2 LT PUSH2 0x2FD4 JUMPI PUSH2 0x2FD4 PUSH2 0x5898 JUMP JUMPDEST SWAP1 PUSH1 0x0 MSTORE PUSH1 0x20 PUSH1 0x0 KECCAK256 SWAP1 PUSH1 0x10 MUL ADD PUSH1 0x40 MLOAD DUP1 PUSH2 0x200 ADD PUSH1 0x40 MSTORE SWAP1 DUP2 PUSH1 0x0 DUP3 ADD SLOAD DUP2 MSTORE PUSH1 0x20 ADD PUSH1 0x1 DUP3 ADD PUSH1 0x0 SWAP1 SLOAD SWAP1 PUSH2 0x100 EXP SWAP1 DIV PUSH1 0x1 PUSH1 0x1 PUSH1 0xA0 SHL SUB AND PUSH1 0x1 PUSH1 0x1 PUSH1 0xA0 SHL SUB AND PUSH1 0x1 PUSH1 0x1 PUSH1 0xA0 SHL SUB AND DUP2 MSTORE PUSH1 0x20 ADD PUSH1 0x2 DUP3 ADD DUP1 SLOAD PUSH2 0x3037 SWAP1 PUSH2 0x58C4 JUMP JUMPDEST DUP1 PUSH1 0x1F ADD PUSH1 0x20 DUP1 SWAP2 DIV MUL PUSH1 0x20 ADD PUSH1 0x40 MLOAD SWAP1 DUP2 ADD PUSH1 0x40 MSTORE DUP1 SWAP3 SWAP2 SWAP1 DUP2 DUP2 MSTORE PUSH1 0x20 ADD DUP3 DUP1 SLOAD PUSH2 0x3063 SWAP1 PUSH2 0x58C4 JUMP JUMPDEST DUP1 ISZERO PUSH2 0x30B0 JUMPI DUP1 PUSH1 0x1F LT PUSH2 0x3085 JUMPI PUSH2 0x100 DUP1 DUP4 SLOAD DIV MUL DUP4 MSTORE SWAP2 PUSH1 0x20 ADD SWAP2 PUSH2 0x30B0 JUMP JUMPDEST DUP3 ADD SWAP2 SWAP1 PUSH1 0x0 MSTORE PUSH1 0x20 PUSH1 0x0 KECCAK256 SWAP1 JUMPDEST DUP2 SLOAD DUP2 MSTORE SWAP1 PUSH1 0x1 ADD SWAP1 PUSH1 0x20 ADD DUP1 DUP4 GT PUSH2 0x3093 JUMPI DUP3 SWAP1 SUB PUSH1 0x1F AND DUP3 ADD SWAP2 JUMPDEST POP POP POP POP POP DUP2 MSTORE PUSH1 0x20 ADD PUSH1 0x3 DUP3 ADD DUP1 SLOAD PUSH2 0x30C9 SWAP1 PUSH2 0x58C4 JUMP JUMPDEST DUP1 PUSH1 0x1F ADD PUSH1 0x20 DUP1 SWAP2 DIV MUL PUSH1 0x20 ADD PUSH1 0x40 MLOAD SWAP1 DUP2 ADD PUSH1 0x40 MSTORE DUP1 SWAP3 SWAP2 SWAP1 DUP2 DUP2 MSTORE PUSH1 0x20 ADD DUP3 DUP1 SLOAD PUSH2 0x30F5 SWAP1 PUSH2 0x58C4 JUMP JUMPDEST DUP1 ISZERO PUSH2 0x3142 JUMPI DUP1 PUSH1 0x1F LT PUSH2 0x3117 JUMPI PUSH2 0x100 DUP1 DUP4 SLOAD DIV MUL DUP4 MSTORE SWAP2 PUSH1 0x20 ADD SWAP2 PUSH2 0x3142 JUMP JUMPDEST DUP3 ADD SWAP2 SWAP1 PUSH1 0x0 MSTORE PUSH1 0x20 PUSH1 0x0 KECCAK256 SWAP1 JUMPDEST DUP2 SLOAD DUP2 MSTORE SWAP1 PUSH1 0x1 ADD SWAP1 PUSH1 0x20 ADD DUP1 DUP4 GT PUSH2 0x3125 JUMPI DUP3 SWAP1 SUB PUSH1 0x1F AND DUP3 ADD SWAP2 JUMPDEST POP POP POP SWAP2 DUP4 MSTORE POP POP PUSH1 0x4 DUP3 ADD SLOAD PUSH1 0x1 PUSH1 0x1 PUSH1 0xA0 SHL SUB SWAP1 DUP2 AND PUSH1 0x20 DUP1 DUP5 ADD SWAP2 SWAP1 SWAP2 MSTORE PUSH1 0x5 DUP5 ADD SLOAD SWAP1 SWAP2 AND PUSH1 0x40 DUP1 DUP5 ADD SWAP2 SWAP1 SWAP2 MSTORE PUSH1 0x6 DUP5 ADD DUP1 SLOAD DUP3 MLOAD DUP2 DUP6 MUL DUP2 ADD DUP6 ADD SWAP1 SWAP4 MSTORE DUP1 DUP4 MSTORE PUSH1 0x60 SWAP1 SWAP5 ADD SWAP4 SWAP2 SWAP3 SWAP1 SWAP2 SWAP1 DUP4 ADD DUP3 DUP3 DUP1 ISZERO PUSH2 0x31C3 JUMPI PUSH1 0x20 MUL DUP3 ADD SWAP2 SWAP1 PUSH1 0x0 MSTORE PUSH1 0x20 PUSH1 0x0 KECCAK256 SWAP1 JUMPDEST DUP2 SLOAD DUP2 MSTORE PUSH1 0x20 ADD SWAP1 PUSH1 0x1 ADD SWAP1 DUP1 DUP4 GT PUSH2 0x31AF JUMPI JUMPDEST POP POP POP POP POP DUP2 MSTORE PUSH1 0x20 ADD PUSH1 0x7 DUP3 ADD DUP1 SLOAD DUP1 PUSH1 0x20 MUL PUSH1 0x20 ADD PUSH1 0x40 MLOAD SWAP1 DUP2 ADD PUSH1 0x40 MSTORE DUP1 SWAP3 SWAP2 SWAP1 DUP2 DUP2 MSTORE PUSH1 0x20 ADD DUP3 DUP1 SLOAD DUP1 ISZERO PUSH2 0x321B JUMPI PUSH1 0x20 MUL DUP3 ADD SWAP2 SWAP1 PUSH1 0x0 MSTORE PUSH1 0x20 PUSH1 0x0 KECCAK256 SWAP1 JUMPDEST DUP2 SLOAD DUP2 MSTORE PUSH1 0x20 ADD SWAP1 PUSH1 0x1 ADD SWAP1 DUP1 DUP4 GT PUSH2 0x3207 JUMPI JUMPDEST POP POP POP POP POP DUP2 MSTORE PUSH1 0x20 ADD PUSH1 0x8 DUP3 ADD SLOAD DUP2 MSTORE PUSH1 0x20 ADD PUSH1 0x9 DUP3 ADD SLOAD DUP2 MSTORE PUSH1 0x20 ADD PUSH1 0xA DUP3 ADD DUP1 SLOAD PUSH2 0x3248 SWAP1 PUSH2 0x58C4 JUMP JUMPDEST DUP1 PUSH1 0x1F ADD PUSH1 0x20 DUP1 SWAP2 DIV MUL PUSH1 0x20 ADD PUSH1 0x40 MLOAD SWAP1 DUP2 ADD PUSH1 0x40 MSTORE DUP1 SWAP3 SWAP2 SWAP1 DUP2 DUP2 MSTORE PUSH1 0x20 ADD DUP3 DUP1 SLOAD PUSH2 0x3274 SWAP1 PUSH2 0x58C4 JUMP JUMPDEST DUP1 ISZERO PUSH2 0x32C1 JUMPI DUP1 PUSH1 0x1F LT PUSH2 0x3296 JUMPI PUSH2 0x100 DUP1 DUP4 SLOAD DIV MUL DUP4 MSTORE SWAP2 PUSH1 0x20 ADD SWAP2 PUSH2 0x32C1 JUMP JUMPDEST DUP3 ADD SWAP2 SWAP1 PUSH1 0x0 MSTORE PUSH1 0x20 PUSH1 0x0 KECCAK256 SWAP1 JUMPDEST DUP2 SLOAD DUP2 MSTORE SWAP1 PUSH1 0x1 ADD SWAP1 PUSH1 0x20 ADD DUP1 DUP4 GT PUSH2 0x32A4 JUMPI DUP3 SWAP1 SUB PUSH1 0x1F AND DUP3 ADD SWAP2 JUMPDEST POP POP POP SWAP2 DUP4 MSTORE POP POP PUSH1 0xB DUP3 ADD SLOAD PUSH1 0x20 SWAP1 SWAP2 ADD SWAP1 PUSH1 0xFF AND PUSH1 0x6 DUP2 GT ISZERO PUSH2 0x32E8 JUMPI PUSH2 0x32E8 PUSH2 0x5387 JUMP JUMPDEST PUSH1 0x6 DUP2 GT ISZERO PUSH2 0x32F9 JUMPI PUSH2 0x32F9 PUSH2 0x5387 JUMP JUMPDEST DUP2 MSTORE PUSH1 0x20 ADD PUSH1 0xC DUP3 ADD SLOAD DUP2 MSTORE PUSH1 0x20 ADD PUSH1 0xD DUP3 ADD SLOAD DUP2 MSTORE PUSH1 0x20 ADD PUSH1 0xE DUP3 ADD SLOAD DUP2 MSTORE PUSH1 0x20 ADD PUSH1 0xF DUP3 ADD SLOAD DUP2 MSTORE POP POP DUP4 DUP4 DUP2 MLOAD DUP2 LT PUSH2 0x3337 JUMPI PUSH2 0x3337 PUSH2 0x5898 JUMP JUMPDEST PUSH1 0x20 MUL PUSH1 0x20 ADD ADD DUP2 SWAP1 MSTORE POP DUP2 DUP1 PUSH2 0x334D SWAP1 PUSH2 0x5CF5 JUMP JUMPDEST SWAP3 POP POP JUMPDEST DUP1 PUSH2 0x335B DUP2 PUSH2 0x5CF5 JUMP JUMPDEST SWAP2 POP POP PUSH2 0x2F65 JUMP JUMPDEST POP SWAP1 SWAP5 SWAP4 POP POP POP POP JUMP JUMPDEST CALLER PUSH1 0x0 SWAP1 DUP2 MSTORE PUSH1 0x20 DUP2 SWAP1 MSTORE PUSH1 0x40 DUP2 KECCAK256 PUSH1 0x4 DUP2 ADD DUP1 SLOAD SWAP2 SWAP3 SWAP2 DUP5 SWAP1 DUP2 LT PUSH2 0x3395 JUMPI PUSH2 0x3395 PUSH2 0x5898 JUMP JUMPDEST PUSH1 0x0 SWAP2 DUP3 MSTORE PUSH1 0x20 SWAP1 SWAP2 KECCAK256 PUSH1 0x5 SWAP1 SWAP2 MUL ADD PUSH1 0x4 ADD DUP1 SLOAD PUSH1 0xFF NOT AND SWAP2 ISZERO ISZERO SWAP2 SWAP1 SWAP2 OR SWAP1 SSTORE POP POP JUMP JUMPDEST PUSH1 0x5 PUSH1 0x20 MSTORE DUP2 PUSH1 0x0 MSTORE PUSH1 0x40 PUSH1 0x0 KECCAK256 DUP2 DUP2 SLOAD DUP2 LT PUSH2 0x94C JUMPI PUSH1 0x0 DUP1 REVERT JUMPDEST PUSH2 0x33FB PUSH1 0x40 MLOAD DUP1 PUSH1 0x60 ADD PUSH1 0x40 MSTORE DUP1 PUSH1 0x0 DUP2 MSTORE PUSH1 0x20 ADD PUSH1 0x0 DUP2 MSTORE PUSH1 0x20 ADD PUSH1 0x60 DUP2 MSTORE POP SWAP1 JUMP JUMPDEST PUSH1 0x3 PUSH1 0x0 DUP4 DUP2 MSTORE PUSH1 0x20 ADD SWAP1 DUP2 MSTORE PUSH1 0x20 ADD PUSH1 0x0 KECCAK256 PUSH1 0x40 MLOAD DUP1 PUSH1 0x60 ADD PUSH1 0x40 MSTORE SWAP1 DUP2 PUSH1 0x0 DUP3 ADD SLOAD DUP2 MSTORE PUSH1 0x20 ADD PUSH1 0x1 DUP3 ADD SLOAD DUP2 MSTORE PUSH1 0x20 ADD PUSH1 0x2 DUP3 ADD DUP1 SLOAD PUSH2 0x343D SWAP1 PUSH2 0x58C4 JUMP JUMPDEST DUP1 PUSH1 0x1F ADD PUSH1 0x20 DUP1 SWAP2 DIV MUL PUSH1 0x20 ADD PUSH1 0x40 MLOAD SWAP1 DUP2 ADD PUSH1 0x40 MSTORE DUP1 SWAP3 SWAP2 SWAP1 DUP2 DUP2 MSTORE PUSH1 0x20 ADD DUP3 DUP1 SLOAD PUSH2 0x3469 SWAP1 PUSH2 0x58C4 JUMP JUMPDEST DUP1 ISZERO PUSH2 0x34B6 JUMPI DUP1 PUSH1 0x1F LT PUSH2 0x348B JUMPI PUSH2 0x100 DUP1 DUP4 SLOAD DIV MUL DUP4 MSTORE SWAP2 PUSH1 0x20 ADD SWAP2 PUSH2 0x34B6 JUMP JUMPDEST DUP3 ADD SWAP2 SWAP1 PUSH1 0x0 MSTORE PUSH1 0x20 PUSH1 0x0 KECCAK256 SWAP1 JUMPDEST DUP2 SLOAD DUP2 MSTORE SWAP1 PUSH1 0x1 ADD SWAP1 PUSH1 0x20 ADD DUP1 DUP4 GT PUSH2 0x3499 JUMPI DUP3 SWAP1 SUB PUSH1 0x1F AND DUP3 ADD SWAP2 JUMPDEST POP POP POP POP POP DUP2 MSTORE POP POP SWAP1 POP SWAP2 SWAP1 POP JUMP JUMPDEST PUSH1 0x0 PUSH1 0x7 DUP3 DUP2 SLOAD DUP2 LT PUSH2 0x34DB JUMPI PUSH2 0x34DB PUSH2 0x5898 JUMP JUMPDEST SWAP1 PUSH1 0x0 MSTORE PUSH1 0x20 PUSH1 0x0 KECCAK256 SWAP1 PUSH1 0x10 MUL ADD SWAP1 POP DUP2 DUP2 PUSH1 0x0 ADD SLOAD EQ PUSH2 0x350E JUMPI PUSH1 0x40 MLOAD PUSH3 0x461BCD PUSH1 0xE5 SHL DUP2 MSTORE PUSH1 0x4 ADD PUSH2 0xAD1 SWAP1 PUSH2 0x5A0B JUMP JUMPDEST PUSH1 0x1 PUSH1 0xB DUP3 ADD SLOAD PUSH1 0xFF AND PUSH1 0x6 DUP2 GT ISZERO PUSH2 0x3529 JUMPI PUSH2 0x3529 PUSH2 0x5387 JUMP JUMPDEST EQ PUSH2 0x3533 JUMPI PUSH1 0x0 DUP1 REVERT JUMPDEST PUSH1 0x4 DUP2 ADD SLOAD PUSH1 0x1 PUSH1 0x1 PUSH1 0xA0 SHL SUB AND CALLER EQ PUSH2 0x35AA JUMPI PUSH1 0x40 MLOAD PUSH3 0x461BCD PUSH1 0xE5 SHL DUP2 MSTORE PUSH1 0x20 PUSH1 0x4 DUP3 ADD MSTORE PUSH1 0x32 PUSH1 0x24 DUP3 ADD MSTORE PUSH32 0x4F726465722064656C697665727920666565206D75737420626520696E637265 PUSH1 0x44 DUP3 ADD MSTORE PUSH18 0x185CD95908189E481D1A194818DB1A595B9D PUSH1 0x72 SHL PUSH1 0x64 DUP3 ADD MSTORE PUSH1 0x84 ADD PUSH2 0xAD1 JUMP JUMPDEST CALLVALUE DUP2 PUSH1 0x8 ADD SLOAD PUSH2 0x35BA SWAP2 SWAP1 PUSH2 0x5D0E JUMP JUMPDEST PUSH1 0x8 SWAP1 SWAP2 ADD SSTORE POP JUMP JUMPDEST CALLER PUSH1 0x0 SWAP1 DUP2 MSTORE PUSH1 0x20 DUP2 SWAP1 MSTORE PUSH1 0x40 SWAP1 KECCAK256 PUSH1 0x4 DUP2 ADD DUP1 SLOAD PUSH1 0x1 SWAP2 SWAP1 DUP5 SWAP1 DUP2 LT PUSH2 0x3395 JUMPI PUSH2 0x3395 PUSH2 0x5898 JUMP JUMPDEST PUSH1 0x7 DUP2 DUP2 SLOAD DUP2 LT PUSH2 0x35FC JUMPI PUSH1 0x0 DUP1 REVERT JUMPDEST PUSH1 0x0 SWAP2 DUP3 MSTORE PUSH1 0x20 SWAP1 SWAP2 KECCAK256 PUSH1 0x10 SWAP1 SWAP2 MUL ADD DUP1 SLOAD PUSH1 0x1 DUP3 ADD SLOAD PUSH1 0x2 DUP4 ADD DUP1 SLOAD SWAP3 SWAP5 POP PUSH1 0x1 PUSH1 0x1 PUSH1 0xA0 SHL SUB SWAP1 SWAP2 AND SWAP3 SWAP2 PUSH2 0x3632 SWAP1 PUSH2 0x58C4 JUMP JUMPDEST DUP1 PUSH1 0x1F ADD PUSH1 0x20 DUP1 SWAP2 DIV MUL PUSH1 0x20 ADD PUSH1 0x40 MLOAD SWAP1 DUP2 ADD PUSH1 0x40 MSTORE DUP1 SWAP3 SWAP2 SWAP1 DUP2 DUP2 MSTORE PUSH1 0x20 ADD DUP3 DUP1 SLOAD PUSH2 0x365E SWAP1 PUSH2 0x58C4 JUMP JUMPDEST DUP1 ISZERO PUSH2 0x36AB JUMPI DUP1 PUSH1 0x1F LT PUSH2 0x3680 JUMPI PUSH2 0x100 DUP1 DUP4 SLOAD DIV MUL DUP4 MSTORE SWAP2 PUSH1 0x20 ADD SWAP2 PUSH2 0x36AB JUMP JUMPDEST DUP3 ADD SWAP2 SWAP1 PUSH1 0x0 MSTORE PUSH1 0x20 PUSH1 0x0 KECCAK256 SWAP1 JUMPDEST DUP2 SLOAD DUP2 MSTORE SWAP1 PUSH1 0x1 ADD SWAP1 PUSH1 0x20 ADD DUP1 DUP4 GT PUSH2 0x368E JUMPI DUP3 SWAP1 SUB PUSH1 0x1F AND DUP3 ADD SWAP2 JUMPDEST POP POP POP POP POP SWAP1 DUP1 PUSH1 0x3 ADD DUP1 SLOAD PUSH2 0x36C0 SWAP1 PUSH2 0x58C4 JUMP JUMPDEST DUP1 PUSH1 0x1F ADD PUSH1 0x20 DUP1 SWAP2 DIV MUL PUSH1 0x20 ADD PUSH1 0x40 MLOAD SWAP1 DUP2 ADD PUSH1 0x40 MSTORE DUP1 SWAP3 SWAP2 SWAP1 DUP2 DUP2 MSTORE PUSH1 0x20 ADD DUP3 DUP1 SLOAD PUSH2 0x36EC SWAP1 PUSH2 0x58C4 JUMP JUMPDEST DUP1 ISZERO PUSH2 0x3739 JUMPI DUP1 PUSH1 0x1F LT PUSH2 0x370E JUMPI PUSH2 0x100 DUP1 DUP4 SLOAD DIV MUL DUP4 MSTORE SWAP2 PUSH1 0x20 ADD SWAP2 PUSH2 0x3739 JUMP JUMPDEST DUP3 ADD SWAP2 SWAP1 PUSH1 0x0 MSTORE PUSH1 0x20 PUSH1 0x0 KECCAK256 SWAP1 JUMPDEST DUP2 SLOAD DUP2 MSTORE SWAP1 PUSH1 0x1 ADD SWAP1 PUSH1 0x20 ADD DUP1 DUP4 GT PUSH2 0x371C JUMPI DUP3 SWAP1 SUB PUSH1 0x1F AND DUP3 ADD SWAP2 JUMPDEST POP POP POP PUSH1 0x4 DUP5 ADD SLOAD PUSH1 0x5 DUP6 ADD SLOAD PUSH1 0x8 DUP7 ADD SLOAD PUSH1 0x9 DUP8 ADD SLOAD PUSH1 0xA DUP9 ADD DUP1 SLOAD SWAP8 SWAP9 PUSH1 0x1 PUSH1 0x1 PUSH1 0xA0 SHL SUB SWAP6 DUP7 AND SWAP9 SWAP5 SWAP1 SWAP6 AND SWAP7 POP SWAP2 SWAP5 POP SWAP3 SWAP2 PUSH2 0x3778 SWAP1 PUSH2 0x58C4 JUMP JUMPDEST DUP1 PUSH1 0x1F ADD PUSH1 0x20 DUP1 SWAP2 DIV MUL PUSH1 0x20 ADD PUSH1 0x40 MLOAD SWAP1 DUP2 ADD PUSH1 0x40 MSTORE DUP1 SWAP3 SWAP2 SWAP1 DUP2 DUP2 MSTORE PUSH1 0x20 ADD DUP3 DUP1 SLOAD PUSH2 0x37A4 SWAP1 PUSH2 0x58C4 JUMP JUMPDEST DUP1 ISZERO PUSH2 0x37F1 JUMPI DUP1 PUSH1 0x1F LT PUSH2 0x37C6 JUMPI PUSH2 0x100 DUP1 DUP4 SLOAD DIV MUL DUP4 MSTORE SWAP2 PUSH1 0x20 ADD SWAP2 PUSH2 0x37F1 JUMP JUMPDEST DUP3 ADD SWAP2 SWAP1 PUSH1 0x0 MSTORE PUSH1 0x20 PUSH1 0x0 KECCAK256 SWAP1 JUMPDEST DUP2 SLOAD DUP2 MSTORE SWAP1 PUSH1 0x1 ADD SWAP1 PUSH1 0x20 ADD DUP1 DUP4 GT PUSH2 0x37D4 JUMPI DUP3 SWAP1 SUB PUSH1 0x1F AND DUP3 ADD SWAP2 JUMPDEST POP POP POP PUSH1 0xB DUP5 ADD SLOAD PUSH1 0xC DUP6 ADD SLOAD PUSH1 0xD DUP7 ADD SLOAD PUSH1 0xE DUP8 ADD SLOAD PUSH1 0xF SWAP1 SWAP8 ADD SLOAD SWAP6 SWAP7 PUSH1 0xFF SWAP1 SWAP4 AND SWAP6 SWAP2 SWAP5 POP SWAP3 POP DUP15 JUMP JUMPDEST PUSH1 0x1 PUSH1 0x1 PUSH1 0xA0 SHL SUB DUP1 DUP10 AND PUSH1 0x0 SWAP1 DUP2 MSTORE PUSH1 0x20 DUP2 SWAP1 MSTORE PUSH1 0x40 SWAP1 KECCAK256 DUP1 SLOAD SWAP1 SWAP2 AND PUSH2 0x3888 JUMPI PUSH1 0x40 MLOAD PUSH3 0x461BCD PUSH1 0xE5 SHL DUP2 MSTORE PUSH1 0x20 PUSH1 0x4 DUP3 ADD MSTORE PUSH1 0x1A PUSH1 0x24 DUP3 ADD MSTORE PUSH32 0x496E76616C69642072657374617572616E742061646472657373000000000000 PUSH1 0x44 DUP3 ADD MSTORE PUSH1 0x64 ADD PUSH2 0xAD1 JUMP JUMPDEST PUSH1 0x0 JUMPDEST DUP8 DUP2 LT ISZERO PUSH2 0x3944 JUMPI DUP2 PUSH1 0x4 ADD DUP10 DUP10 DUP4 DUP2 DUP2 LT PUSH2 0x38A9 JUMPI PUSH2 0x38A9 PUSH2 0x5898 JUMP JUMPDEST SWAP1 POP PUSH1 0x20 MUL ADD CALLDATALOAD DUP2 SLOAD DUP2 LT PUSH2 0x38C0 JUMPI PUSH2 0x38C0 PUSH2 0x5898 JUMP JUMPDEST PUSH1 0x0 SWAP2 DUP3 MSTORE PUSH1 0x20 SWAP1 SWAP2 KECCAK256 PUSH1 0x4 PUSH1 0x5 SWAP1 SWAP3 MUL ADD ADD SLOAD PUSH1 0xFF AND ISZERO ISZERO PUSH1 0x1 EQ PUSH2 0x3934 JUMPI PUSH1 0x40 MLOAD PUSH3 0x461BCD PUSH1 0xE5 SHL DUP2 MSTORE PUSH1 0x20 PUSH1 0x4 DUP3 ADD MSTORE PUSH1 0x23 PUSH1 0x24 DUP3 ADD MSTORE PUSH32 0x4F7264657220636F6E7461696E7320756E617661696C61626C65206974656D73 PUSH1 0x44 DUP3 ADD MSTORE PUSH3 0x171717 PUSH1 0xE9 SHL PUSH1 0x64 DUP3 ADD MSTORE PUSH1 0x84 ADD PUSH2 0xAD1 JUMP JUMPDEST PUSH2 0x393D DUP2 PUSH2 0x5CF5 JUMP JUMPDEST SWAP1 POP PUSH2 0x388B JUMP JUMPDEST POP PUSH1 0x0 DUP1 PUSH2 0x3956 DUP12 DUP12 DUP12 DUP12 DUP12 DUP12 PUSH2 0x1545 JUMP JUMPDEST SWAP1 SWAP3 POP SWAP1 POP PUSH2 0x3965 DUP2 DUP4 PUSH2 0x5D0E JUMP JUMPDEST CALLVALUE LT ISZERO PUSH2 0x39AC JUMPI PUSH1 0x40 MLOAD PUSH3 0x461BCD PUSH1 0xE5 SHL DUP2 MSTORE PUSH1 0x20 PUSH1 0x4 DUP3 ADD MSTORE PUSH1 0x15 PUSH1 0x24 DUP3 ADD MSTORE PUSH21 0x125B98DBDC9C9958DD08185B5BDD5B9D081C185A59 PUSH1 0x5A SHL PUSH1 0x44 DUP3 ADD MSTORE PUSH1 0x64 ADD PUSH2 0xAD1 JUMP JUMPDEST PUSH1 0x0 PUSH1 0x40 MLOAD DUP1 PUSH2 0x200 ADD PUSH1 0x40 MSTORE DUP1 PUSH1 0x7 DUP1 SLOAD SWAP1 POP DUP2 MSTORE PUSH1 0x20 ADD DUP14 PUSH1 0x1 PUSH1 0x1 PUSH1 0xA0 SHL SUB AND DUP2 MSTORE PUSH1 0x20 ADD DUP6 PUSH1 0x1 ADD DUP1 SLOAD PUSH2 0x39E3 SWAP1 PUSH2 0x58C4 JUMP JUMPDEST DUP1 PUSH1 0x1F ADD PUSH1 0x20 DUP1 SWAP2 DIV MUL PUSH1 0x20 ADD PUSH1 0x40 MLOAD SWAP1 DUP2 ADD PUSH1 0x40 MSTORE DUP1 SWAP3 SWAP2 SWAP1 DUP2 DUP2 MSTORE PUSH1 0x20 ADD DUP3 DUP1 SLOAD PUSH2 0x3A0F SWAP1 PUSH2 0x58C4 JUMP JUMPDEST DUP1 ISZERO PUSH2 0x3A5C JUMPI DUP1 PUSH1 0x1F LT PUSH2 0x3A31 JUMPI PUSH2 0x100 DUP1 DUP4 SLOAD DIV MUL DUP4 MSTORE SWAP2 PUSH1 0x20 ADD SWAP2 PUSH2 0x3A5C JUMP JUMPDEST DUP3 ADD SWAP2 SWAP1 PUSH1 0x0 MSTORE PUSH1 0x20 PUSH1 0x0 KECCAK256 SWAP1 JUMPDEST DUP2 SLOAD DUP2 MSTORE SWAP1 PUSH1 0x1 ADD SWAP1 PUSH1 0x20 ADD DUP1 DUP4 GT PUSH2 0x3A3F JUMPI DUP3 SWAP1 SUB PUSH1 0x1F AND DUP3 ADD SWAP2 JUMPDEST POP POP POP POP POP DUP2 MSTORE PUSH1 0x20 ADD DUP6 PUSH1 0x3 ADD DUP1 SLOAD PUSH2 0x3A75 SWAP1 PUSH2 0x58C4 JUMP JUMPDEST DUP1 PUSH1 0x1F ADD PUSH1 0x20 DUP1 SWAP2 DIV MUL PUSH1 0x20 ADD PUSH1 0x40 MLOAD SWAP1 DUP2 ADD PUSH1 0x40 MSTORE DUP1 SWAP3 SWAP2 SWAP1 DUP2 DUP2 MSTORE PUSH1 0x20 ADD DUP3 DUP1 SLOAD PUSH2 0x3AA1 SWAP1 PUSH2 0x58C4 JUMP JUMPDEST DUP1 ISZERO PUSH2 0x3AEE JUMPI DUP1 PUSH1 0x1F LT PUSH2 0x3AC3 JUMPI PUSH2 0x100 DUP1 DUP4 SLOAD DIV MUL DUP4 MSTORE SWAP2 PUSH1 0x20 ADD SWAP2 PUSH2 0x3AEE JUMP JUMPDEST DUP3 ADD SWAP2 SWAP1 PUSH1 0x0 MSTORE PUSH1 0x20 PUSH1 0x0 KECCAK256 SWAP1 JUMPDEST DUP2 SLOAD DUP2 MSTORE SWAP1 PUSH1 0x1 ADD SWAP1 PUSH1 0x20 ADD DUP1 DUP4 GT PUSH2 0x3AD1 JUMPI DUP3 SWAP1 SUB PUSH1 0x1F AND DUP3 ADD SWAP2 JUMPDEST POP POP POP POP POP DUP2 MSTORE PUSH1 0x20 ADD CALLER PUSH1 0x1 PUSH1 0x1 PUSH1 0xA0 SHL SUB AND DUP2 MSTORE PUSH1 0x20 ADD PUSH1 0x0 PUSH1 0x1 PUSH1 0x1 PUSH1 0xA0 SHL SUB AND DUP2 MSTORE PUSH1 0x20 ADD DUP13 DUP13 DUP1 DUP1 PUSH1 0x20 MUL PUSH1 0x20 ADD PUSH1 0x40 MLOAD SWAP1 DUP2 ADD PUSH1 0x40 MSTORE DUP1 SWAP4 SWAP3 SWAP2 SWAP1 DUP2 DUP2 MSTORE PUSH1 0x20 ADD DUP4 DUP4 PUSH1 0x20 MUL DUP1 DUP3 DUP5 CALLDATACOPY PUSH1 0x0 SWAP3 ADD SWAP2 SWAP1 SWAP2 MSTORE POP POP POP SWAP1 DUP3 MSTORE POP PUSH1 0x40 DUP1 MLOAD PUSH1 0x20 DUP13 DUP2 MUL DUP3 DUP2 ADD DUP3 ADD SWAP1 SWAP4 MSTORE DUP13 DUP3 MSTORE SWAP3 DUP4 ADD SWAP3 SWAP1 SWAP2 DUP14 SWAP2 DUP14 SWAP2 DUP3 SWAP2 DUP6 ADD SWAP1 DUP5 SWAP1 DUP1 DUP3 DUP5 CALLDATACOPY PUSH1 0x0 SWAP3 ADD SWAP2 SWAP1 SWAP2 MSTORE POP POP POP SWAP1 DUP3 MSTORE POP PUSH1 0x20 DUP1 DUP3 ADD DUP6 SWAP1 MSTORE PUSH1 0x40 DUP1 DUP4 ADD DUP8 SWAP1 MSTORE DUP1 MLOAD PUSH1 0x1F DUP11 ADD DUP4 SWAP1 DIV DUP4 MUL DUP2 ADD DUP4 ADD SWAP1 SWAP2 MSTORE DUP9 DUP2 MSTORE PUSH1 0x60 SWAP1 SWAP3 ADD SWAP2 SWAP1 DUP10 SWAP1 DUP10 SWAP1 DUP2 SWAP1 DUP5 ADD DUP4 DUP3 DUP1 DUP3 DUP5 CALLDATACOPY PUSH1 0x0 SWAP3 ADD DUP3 SWAP1 MSTORE POP SWAP4 DUP6 MSTORE POP POP POP PUSH1 0x20 DUP1 DUP4 ADD DUP3 SWAP1 MSTORE PUSH1 0x40 DUP1 DUP5 ADD DUP4 SWAP1 MSTORE PUSH1 0x60 DUP5 ADD DUP4 SWAP1 MSTORE PUSH1 0x80 DUP5 ADD DUP4 SWAP1 MSTORE PUSH1 0xA0 SWAP1 SWAP4 ADD DUP3 SWAP1 MSTORE PUSH1 0x7 DUP1 SLOAD PUSH1 0x1 DUP2 ADD DUP3 SSTORE SWAP3 MSTORE DUP4 MLOAD PUSH32 0xA66CC928B5EDB82AF9BD49922954155AB7B0942694BEA4CE44661D9A8736C688 PUSH1 0x10 SWAP1 SWAP4 MUL SWAP3 DUP4 ADD SWAP1 DUP2 SSTORE SWAP1 DUP5 ADD MLOAD PUSH32 0xA66CC928B5EDB82AF9BD49922954155AB7B0942694BEA4CE44661D9A8736C689 DUP4 ADD DUP1 SLOAD PUSH1 0x1 PUSH1 0x1 PUSH1 0xA0 SHL SUB NOT AND PUSH1 0x1 PUSH1 0x1 PUSH1 0xA0 SHL SUB SWAP1 SWAP3 AND SWAP2 SWAP1 SWAP2 OR SWAP1 SSTORE SWAP2 DUP4 ADD MLOAD SWAP3 SWAP4 POP DUP4 SWAP3 PUSH32 0xA66CC928B5EDB82AF9BD49922954155AB7B0942694BEA4CE44661D9A8736C68A SWAP1 SWAP2 ADD SWAP1 PUSH2 0x3CA9 SWAP1 DUP3 PUSH2 0x594C JUMP JUMPDEST POP PUSH1 0x60 DUP3 ADD MLOAD PUSH1 0x3 DUP3 ADD SWAP1 PUSH2 0x3CBE SWAP1 DUP3 PUSH2 0x594C JUMP JUMPDEST POP PUSH1 0x80 DUP3 ADD MLOAD PUSH1 0x4 DUP3 ADD DUP1 SLOAD PUSH1 0x1 PUSH1 0x1 PUSH1 0xA0 SHL SUB SWAP3 DUP4 AND PUSH1 0x1 PUSH1 0x1 PUSH1 0xA0 SHL SUB NOT SWAP2 DUP3 AND OR SWAP1 SWAP2 SSTORE PUSH1 0xA0 DUP5 ADD MLOAD PUSH1 0x5 DUP5 ADD DUP1 SLOAD SWAP2 SWAP1 SWAP4 AND SWAP2 AND OR SWAP1 SSTORE PUSH1 0xC0 DUP3 ADD MLOAD DUP1 MLOAD PUSH2 0x3D14 SWAP2 PUSH1 0x6 DUP5 ADD SWAP2 PUSH1 0x20 SWAP1 SWAP2 ADD SWAP1 PUSH2 0x4E0C JUMP JUMPDEST POP PUSH1 0xE0 DUP3 ADD MLOAD DUP1 MLOAD PUSH2 0x3D30 SWAP2 PUSH1 0x7 DUP5 ADD SWAP2 PUSH1 0x20 SWAP1 SWAP2 ADD SWAP1 PUSH2 0x4E0C JUMP JUMPDEST POP PUSH2 0x100 DUP3 ADD MLOAD PUSH1 0x8 DUP3 ADD SSTORE PUSH2 0x120 DUP3 ADD MLOAD PUSH1 0x9 DUP3 ADD SSTORE PUSH2 0x140 DUP3 ADD MLOAD PUSH1 0xA DUP3 ADD SWAP1 PUSH2 0x3D5C SWAP1 DUP3 PUSH2 0x594C JUMP JUMPDEST POP PUSH2 0x160 DUP3 ADD MLOAD PUSH1 0xB DUP3 ADD DUP1 SLOAD PUSH1 0xFF NOT AND PUSH1 0x1 DUP4 PUSH1 0x6 DUP2 GT ISZERO PUSH2 0x3D81 JUMPI PUSH2 0x3D81 PUSH2 0x5387 JUMP JUMPDEST MUL OR SWAP1 SSTORE POP PUSH2 0x180 DUP3 ADD MLOAD PUSH1 0xC DUP3 ADD SSTORE PUSH2 0x1A0 DUP3 ADD MLOAD PUSH1 0xD DUP3 ADD SSTORE PUSH2 0x1C0 DUP3 ADD MLOAD PUSH1 0xE DUP3 ADD SSTORE PUSH2 0x1E0 SWAP1 SWAP2 ADD MLOAD PUSH1 0xF SWAP1 SWAP2 ADD SSTORE CALLER PUSH1 0x0 SWAP1 DUP2 MSTORE PUSH1 0x2 PUSH1 0x20 SWAP1 DUP2 MSTORE PUSH1 0x40 DUP1 DUP4 KECCAK256 DUP5 MLOAD DUP2 SLOAD PUSH1 0x1 DUP2 DUP2 ADD DUP5 SSTORE SWAP3 DUP7 MSTORE DUP5 DUP7 KECCAK256 ADD SSTORE PUSH1 0x1 PUSH1 0x1 PUSH1 0xA0 SHL SUB SWAP16 SWAP1 SWAP16 AND DUP4 MSTORE PUSH1 0x4 DUP3 MSTORE DUP3 KECCAK256 SWAP3 MLOAD DUP4 SLOAD SWAP15 DUP16 ADD DUP5 SSTORE SWAP3 DUP3 MSTORE SWAP1 KECCAK256 SWAP1 SWAP12 ADD SWAP11 SWAP1 SWAP11 SSTORE POP POP POP POP POP POP POP POP POP POP JUMP JUMPDEST PUSH1 0x9 DUP2 DUP2 SLOAD DUP2 LT PUSH2 0x296C JUMPI PUSH1 0x0 DUP1 REVERT JUMPDEST PUSH1 0x0 PUSH1 0x7 DUP3 DUP2 SLOAD DUP2 LT PUSH2 0x3E33 JUMPI PUSH2 0x3E33 PUSH2 0x5898 JUMP JUMPDEST SWAP1 PUSH1 0x0 MSTORE PUSH1 0x20 PUSH1 0x0 KECCAK256 SWAP1 PUSH1 0x10 MUL ADD SWAP1 POP DUP2 DUP2 PUSH1 0x0 ADD SLOAD EQ PUSH2 0x3E66 JUMPI PUSH1 0x40 MLOAD PUSH3 0x461BCD PUSH1 0xE5 SHL DUP2 MSTORE PUSH1 0x4 ADD PUSH2 0xAD1 SWAP1 PUSH2 0x5A0B JUMP JUMPDEST PUSH1 0x1 DUP2 ADD SLOAD PUSH1 0x1 PUSH1 0x1 PUSH1 0xA0 SHL SUB AND CALLER EQ PUSH2 0x3ED4 JUMPI PUSH1 0x40 MLOAD PUSH3 0x461BCD PUSH1 0xE5 SHL DUP2 MSTORE PUSH1 0x20 PUSH1 0x4 DUP3 ADD MSTORE PUSH1 0x29 PUSH1 0x24 DUP3 ADD MSTORE PUSH32 0x4F6E6C79207468652072657374617572616E742063616E206465636C696E6520 PUSH1 0x44 DUP3 ADD MSTORE PUSH9 0x3A34329037B93232B9 PUSH1 0xB9 SHL PUSH1 0x64 DUP3 ADD MSTORE PUSH1 0x84 ADD PUSH2 0xAD1 JUMP JUMPDEST PUSH1 0x0 PUSH1 0xB DUP3 ADD SLOAD PUSH1 0xFF AND PUSH1 0x6 DUP2 GT ISZERO PUSH2 0x3EEF JUMPI PUSH2 0x3EEF PUSH2 0x5387 JUMP JUMPDEST EQ PUSH2 0x3F34 JUMPI PUSH1 0x40 MLOAD PUSH3 0x461BCD PUSH1 0xE5 SHL DUP2 MSTORE PUSH1 0x20 PUSH1 0x4 DUP3 ADD MSTORE PUSH1 0x15 PUSH1 0x24 DUP3 ADD MSTORE PUSH21 0x4F72646572206D7573742062652070656E64696E67 PUSH1 0x58 SHL PUSH1 0x44 DUP3 ADD MSTORE PUSH1 0x64 ADD PUSH2 0xAD1 JUMP JUMPDEST PUSH1 0x4 DUP2 ADD SLOAD PUSH1 0x8 DUP3 ADD SLOAD PUSH1 0x9 DUP4 ADD SLOAD PUSH1 0x1 PUSH1 0x1 PUSH1 0xA0 SHL SUB SWAP1 SWAP3 AND SWAP2 DUP3 SWAP2 PUSH2 0x8FC SWAP2 PUSH2 0x3F5F SWAP2 SWAP1 PUSH2 0x5D0E JUMP JUMPDEST PUSH1 0x40 MLOAD DUP2 ISZERO SWAP1 SWAP3 MUL SWAP2 PUSH1 0x0 DUP2 DUP2 DUP2 DUP6 DUP9 DUP9 CALL SWAP4 POP POP POP POP PUSH2 0x3F92 JUMPI PUSH1 0x40 MLOAD PUSH3 0x461BCD PUSH1 0xE5 SHL DUP2 MSTORE PUSH1 0x4 ADD PUSH2 0xAD1 SWAP1 PUSH2 0x5D21 JUMP JUMPDEST POP PUSH1 0xB ADD DUP1 SLOAD PUSH1 0xFF NOT AND PUSH1 0x6 OR SWAP1 SSTORE POP JUMP JUMPDEST PUSH1 0x2 PUSH1 0x20 MSTORE DUP2 PUSH1 0x0 MSTORE PUSH1 0x40 PUSH1 0x0 KECCAK256 DUP2 DUP2 SLOAD DUP2 LT PUSH2 0x94C JUMPI PUSH1 0x0 DUP1 REVERT JUMPDEST PUSH1 0x0 PUSH1 0x7 DUP3 DUP2 SLOAD DUP2 LT PUSH2 0x3FD5 JUMPI PUSH2 0x3FD5 PUSH2 0x5898 JUMP JUMPDEST SWAP1 PUSH1 0x0 MSTORE PUSH1 0x20 PUSH1 0x0 KECCAK256 SWAP1 PUSH1 0x10 MUL ADD SWAP1 POP DUP2 DUP2 PUSH1 0x0 ADD SLOAD EQ PUSH2 0x4008 JUMPI PUSH1 0x40 MLOAD PUSH3 0x461BCD PUSH1 0xE5 SHL DUP2 MSTORE PUSH1 0x4 ADD PUSH2 0xAD1 SWAP1 PUSH2 0x5A0B JUMP JUMPDEST PUSH1 0x4 PUSH1 0xB DUP3 ADD SLOAD PUSH1 0xFF AND PUSH1 0x6 DUP2 GT ISZERO PUSH2 0x4023 JUMPI PUSH2 0x4023 PUSH2 0x5387 JUMP JUMPDEST EQ PUSH2 0x402D JUMPI PUSH1 0x0 DUP1 REVERT JUMPDEST PUSH1 0x4 DUP2 ADD SLOAD PUSH1 0x1 PUSH1 0x1 PUSH1 0xA0 SHL SUB AND CALLER EQ PUSH2 0x409C JUMPI PUSH1 0x40 MLOAD PUSH3 0x461BCD PUSH1 0xE5 SHL DUP2 MSTORE PUSH1 0x20 PUSH1 0x4 DUP3 ADD MSTORE PUSH1 0x2A PUSH1 0x24 DUP3 ADD MSTORE PUSH32 0x4F726465722064656C6976657279206D75737420626520636F6E6669726D6564 PUSH1 0x44 DUP3 ADD MSTORE PUSH10 0x8189E4818DB1A595B9D PUSH1 0xB2 SHL PUSH1 0x64 DUP3 ADD MSTORE PUSH1 0x84 ADD PUSH2 0xAD1 JUMP JUMPDEST PUSH1 0x0 DUP2 PUSH1 0xE ADD SLOAD DUP3 PUSH1 0xF ADD SLOAD PUSH2 0x40B2 SWAP2 SWAP1 PUSH2 0x5D58 JUMP JUMPDEST SWAP1 POP PUSH1 0x0 DUP3 PUSH1 0xF ADD SLOAD TIMESTAMP PUSH2 0x40C6 SWAP2 SWAP1 PUSH2 0x5D58 JUMP JUMPDEST SWAP1 POP PUSH1 0x0 DUP4 PUSH1 0x8 ADD SLOAD DUP5 PUSH1 0x9 ADD SLOAD PUSH2 0x40DE SWAP2 SWAP1 PUSH2 0x5D0E JUMP JUMPDEST SWAP1 POP PUSH1 0x0 DUP1 PUSH1 0x0 DUP1 PUSH1 0xA SWAP1 POP DUP8 PUSH1 0xC ADD SLOAD DUP8 GT ISZERO PUSH2 0x4115 JUMPI PUSH1 0x64 DUP9 PUSH1 0x9 ADD SLOAD DUP3 PUSH2 0x4108 SWAP2 SWAP1 PUSH2 0x5CBC JUMP JUMPDEST PUSH2 0x4112 SWAP2 SWAP1 PUSH2 0x5CD3 JUMP JUMPDEST SWAP3 POP JUMPDEST DUP8 PUSH1 0xD ADD SLOAD DUP7 GT ISZERO PUSH2 0x4140 JUMPI PUSH1 0x64 DUP9 PUSH1 0x8 ADD SLOAD DUP3 PUSH2 0x4133 SWAP2 SWAP1 PUSH2 0x5CBC JUMP JUMPDEST PUSH2 0x413D SWAP2 SWAP1 PUSH2 0x5CD3 JUMP JUMPDEST SWAP2 POP JUMPDEST PUSH1 0x1 DUP9 ADD SLOAD PUSH1 0x5 DUP10 ADD SLOAD PUSH1 0x4 DUP11 ADD SLOAD PUSH1 0x9 DUP12 ADD SLOAD PUSH1 0x1 PUSH1 0x1 PUSH1 0xA0 SHL SUB SWAP4 DUP5 AND SWAP4 SWAP3 DUP4 AND SWAP3 SWAP1 SWAP2 AND SWAP1 PUSH1 0x0 SWAP1 PUSH2 0x4176 SWAP1 DUP9 SWAP1 PUSH2 0x5D58 JUMP JUMPDEST SWAP1 POP PUSH1 0x0 DUP7 DUP14 PUSH1 0x8 ADD SLOAD PUSH2 0x418A SWAP2 SWAP1 PUSH2 0x5D58 JUMP JUMPDEST PUSH1 0x40 MLOAD SWAP1 SWAP2 POP PUSH1 0x1 PUSH1 0x1 PUSH1 0xA0 SHL SUB DUP7 AND SWAP1 DUP4 ISZERO PUSH2 0x8FC MUL SWAP1 DUP5 SWAP1 PUSH1 0x0 DUP2 DUP2 DUP2 DUP6 DUP9 DUP9 CALL SWAP4 POP POP POP POP PUSH2 0x420A JUMPI PUSH1 0x40 MLOAD PUSH3 0x461BCD PUSH1 0xE5 SHL DUP2 MSTORE PUSH1 0x20 PUSH1 0x4 DUP3 ADD MSTORE PUSH1 0x24 DUP1 DUP3 ADD MSTORE PUSH32 0x4661696C656420746F2073656E64207061796D656E7420746F20726573746175 PUSH1 0x44 DUP3 ADD MSTORE PUSH4 0x1C985B9D PUSH1 0xE2 SHL PUSH1 0x64 DUP3 ADD MSTORE PUSH1 0x84 ADD PUSH2 0xAD1 JUMP JUMPDEST PUSH1 0x40 MLOAD PUSH1 0x1 PUSH1 0x1 PUSH1 0xA0 SHL SUB DUP6 AND SWAP1 DUP3 ISZERO PUSH2 0x8FC MUL SWAP1 DUP4 SWAP1 PUSH1 0x0 DUP2 DUP2 DUP2 DUP6 DUP9 DUP9 CALL SWAP4 POP POP POP POP PUSH2 0x4285 JUMPI PUSH1 0x40 MLOAD PUSH3 0x461BCD PUSH1 0xE5 SHL DUP2 MSTORE PUSH1 0x20 PUSH1 0x4 DUP3 ADD MSTORE PUSH1 0x21 PUSH1 0x24 DUP3 ADD MSTORE PUSH32 0x4661696C656420746F2073656E64207061796D656E7420746F20636F75726965 PUSH1 0x44 DUP3 ADD MSTORE PUSH1 0x39 PUSH1 0xF9 SHL PUSH1 0x64 DUP3 ADD MSTORE PUSH1 0x84 ADD PUSH2 0xAD1 JUMP JUMPDEST PUSH1 0x1 PUSH1 0x1 PUSH1 0xA0 SHL SUB DUP4 AND PUSH2 0x8FC PUSH2 0x429C DUP10 DUP12 PUSH2 0x5D0E JUMP JUMPDEST PUSH1 0x40 MLOAD DUP2 ISZERO SWAP1 SWAP3 MUL SWAP2 PUSH1 0x0 DUP2 DUP2 DUP2 DUP6 DUP9 DUP9 CALL SWAP4 POP POP POP POP PUSH2 0x42FF JUMPI PUSH1 0x40 MLOAD PUSH3 0x461BCD PUSH1 0xE5 SHL DUP2 MSTORE PUSH1 0x20 PUSH1 0x4 DUP3 ADD DUP2 SWAP1 MSTORE PUSH1 0x24 DUP3 ADD MSTORE PUSH32 0x4661696C656420746F2073656E64207061796D656E7420746F20636C69656E74 PUSH1 0x44 DUP3 ADD MSTORE PUSH1 0x64 ADD PUSH2 0xAD1 JUMP JUMPDEST POP POP POP POP PUSH1 0xB SWAP9 SWAP1 SWAP9 ADD DUP1 SLOAD PUSH1 0xFF NOT AND PUSH1 0x5 OR SWAP1 SSTORE POP POP POP POP POP POP POP POP POP JUMP JUMPDEST PUSH1 0x3 PUSH1 0x20 MSTORE PUSH1 0x0 SWAP1 DUP2 MSTORE PUSH1 0x40 SWAP1 KECCAK256 DUP1 SLOAD PUSH1 0x1 DUP3 ADD SLOAD PUSH1 0x2 DUP4 ADD DUP1 SLOAD SWAP3 SWAP4 SWAP2 SWAP3 PUSH2 0x4347 SWAP1 PUSH2 0x58C4 JUMP JUMPDEST DUP1 PUSH1 0x1F ADD PUSH1 0x20 DUP1 SWAP2 DIV MUL PUSH1 0x20 ADD PUSH1 0x40 MLOAD SWAP1 DUP2 ADD PUSH1 0x40 MSTORE DUP1 SWAP3 SWAP2 SWAP1 DUP2 DUP2 MSTORE PUSH1 0x20 ADD DUP3 DUP1 SLOAD PUSH2 0x4373 SWAP1 PUSH2 0x58C4 JUMP JUMPDEST DUP1 ISZERO PUSH2 0x43C0 JUMPI DUP1 PUSH1 0x1F LT PUSH2 0x4395 JUMPI PUSH2 0x100 DUP1 DUP4 SLOAD DIV MUL DUP4 MSTORE SWAP2 PUSH1 0x20 ADD SWAP2 PUSH2 0x43C0 JUMP JUMPDEST DUP3 ADD SWAP2 SWAP1 PUSH1 0x0 MSTORE PUSH1 0x20 PUSH1 0x0 KECCAK256 SWAP1 JUMPDEST DUP2 SLOAD DUP2 MSTORE SWAP1 PUSH1 0x1 ADD SWAP1 PUSH1 0x20 ADD DUP1 DUP4 GT PUSH2 0x43A3 JUMPI DUP3 SWAP1 SUB PUSH1 0x1F AND DUP3 ADD SWAP2 JUMPDEST POP POP POP POP POP SWAP1 POP DUP4 JUMP JUMPDEST PUSH1 0x0 DUP1 DUP1 DUP1 JUMPDEST PUSH1 0x1 PUSH1 0x1 PUSH1 0xA0 SHL SUB DUP6 AND PUSH1 0x0 SWAP1 DUP2 MSTORE PUSH1 0x4 PUSH1 0x20 MSTORE PUSH1 0x40 SWAP1 KECCAK256 SLOAD DUP2 LT ISZERO PUSH2 0x4483 JUMPI PUSH1 0x1 PUSH1 0x1 PUSH1 0xA0 SHL SUB DUP6 AND PUSH1 0x0 SWAP1 DUP2 MSTORE PUSH1 0x4 PUSH1 0x20 MSTORE PUSH1 0x40 DUP2 KECCAK256 DUP1 SLOAD DUP4 SWAP1 DUP2 LT PUSH2 0x441A JUMPI PUSH2 0x441A PUSH2 0x5898 JUMP JUMPDEST SWAP1 PUSH1 0x0 MSTORE PUSH1 0x20 PUSH1 0x0 KECCAK256 ADD SLOAD SWAP1 POP DUP1 PUSH1 0x3 PUSH1 0x0 DUP4 DUP2 MSTORE PUSH1 0x20 ADD SWAP1 DUP2 MSTORE PUSH1 0x20 ADD PUSH1 0x0 KECCAK256 PUSH1 0x0 ADD SLOAD SUB PUSH2 0x4470 JUMPI PUSH1 0x0 DUP2 DUP2 MSTORE PUSH1 0x3 PUSH1 0x20 MSTORE PUSH1 0x40 SWAP1 KECCAK256 PUSH1 0x1 ADD SLOAD PUSH2 0x4460 SWAP1 DUP6 PUSH2 0x5D0E JUMP JUMPDEST SWAP4 POP DUP3 PUSH2 0x446C DUP2 PUSH2 0x5CF5 JUMP JUMPDEST SWAP4 POP POP JUMPDEST POP DUP1 PUSH2 0x447B DUP2 PUSH2 0x5CF5 JUMP JUMPDEST SWAP2 POP POP PUSH2 0x43D0 JUMP JUMPDEST POP DUP1 PUSH1 0x0 SUB PUSH2 0x4496 JUMPI POP PUSH1 0x0 SWAP4 SWAP3 POP POP POP JUMP JUMPDEST PUSH2 0x44A0 DUP2 DUP4 PUSH2 0x5CD3 JUMP JUMPDEST SWAP5 SWAP4 POP POP POP POP JUMP JUMPDEST PUSH1 0x1 PUSH1 0x1 PUSH1 0xA0 SHL SUB DUP2 AND PUSH1 0x0 SWAP1 DUP2 MSTORE PUSH1 0x5 PUSH1 0x20 SWAP1 DUP2 MSTORE PUSH1 0x40 DUP1 DUP4 KECCAK256 DUP1 SLOAD DUP3 MLOAD DUP2 DUP6 MUL DUP2 ADD DUP6 ADD SWAP1 SWAP4 MSTORE DUP1 DUP4 MSTORE PUSH1 0x60 SWAP5 SWAP4 DUP4 ADD DUP3 DUP3 DUP1 ISZERO PUSH2 0x4507 JUMPI PUSH1 0x20 MUL DUP3 ADD SWAP2 SWAP1 PUSH1 0x0 MSTORE PUSH1 0x20 PUSH1 0x0 KECCAK256 SWAP1 JUMPDEST DUP2 SLOAD DUP2 MSTORE PUSH1 0x20 ADD SWAP1 PUSH1 0x1 ADD SWAP1 DUP1 DUP4 GT PUSH2 0x44F3 JUMPI JUMPDEST POP POP POP POP POP SWAP1 POP PUSH1 0x0 DUP2 MLOAD PUSH1 0x1 PUSH1 0x1 PUSH1 0x40 SHL SUB DUP2 GT ISZERO PUSH2 0x4529 JUMPI PUSH2 0x4529 PUSH2 0x58AE JUMP JUMPDEST PUSH1 0x40 MLOAD SWAP1 DUP1 DUP3 MSTORE DUP1 PUSH1 0x20 MUL PUSH1 0x20 ADD DUP3 ADD PUSH1 0x40 MSTORE DUP1 ISZERO PUSH2 0x4562 JUMPI DUP2 PUSH1 0x20 ADD JUMPDEST PUSH2 0x454F PUSH2 0x4D63 JUMP JUMPDEST DUP2 MSTORE PUSH1 0x20 ADD SWAP1 PUSH1 0x1 SWAP1 SUB SWAP1 DUP2 PUSH2 0x4547 JUMPI SWAP1 POP JUMPDEST POP SWAP1 POP PUSH1 0x0 JUMPDEST DUP3 MLOAD DUP2 LT ISZERO PUSH2 0x21D0 JUMPI PUSH1 0x0 DUP4 DUP3 DUP2 MLOAD DUP2 LT PUSH2 0x4585 JUMPI PUSH2 0x4585 PUSH2 0x5898 JUMP JUMPDEST PUSH1 0x20 MUL PUSH1 0x20 ADD ADD MLOAD SWAP1 POP PUSH1 0x7 DUP2 DUP2 SLOAD DUP2 LT PUSH2 0x45A2 JUMPI PUSH2 0x45A2 PUSH2 0x5898 JUMP JUMPDEST SWAP1 PUSH1 0x0 MSTORE PUSH1 0x20 PUSH1 0x0 KECCAK256 SWAP1 PUSH1 0x10 MUL ADD PUSH1 0x40 MLOAD DUP1 PUSH2 0x200 ADD PUSH1 0x40 MSTORE SWAP1 DUP2 PUSH1 0x0 DUP3 ADD SLOAD DUP2 MSTORE PUSH1 0x20 ADD PUSH1 0x1 DUP3 ADD PUSH1 0x0 SWAP1 SLOAD SWAP1 PUSH2 0x100 EXP SWAP1 DIV PUSH1 0x1 PUSH1 0x1 PUSH1 0xA0 SHL SUB AND PUSH1 0x1 PUSH1 0x1 PUSH1 0xA0 SHL SUB AND PUSH1 0x1 PUSH1 0x1 PUSH1 0xA0 SHL SUB AND DUP2 MSTORE PUSH1 0x20 ADD PUSH1 0x2 DUP3 ADD DUP1 SLOAD PUSH2 0x4605 SWAP1 PUSH2 0x58C4 JUMP JUMPDEST DUP1 PUSH1 0x1F ADD PUSH1 0x20 DUP1 SWAP2 DIV MUL PUSH1 0x20 ADD PUSH1 0x40 MLOAD SWAP1 DUP2 ADD PUSH1 0x40 MSTORE DUP1 SWAP3 SWAP2 SWAP1 DUP2 DUP2 MSTORE PUSH1 0x20 ADD DUP3 DUP1 SLOAD PUSH2 0x4631 SWAP1 PUSH2 0x58C4 JUMP JUMPDEST DUP1 ISZERO PUSH2 0x467E JUMPI DUP1 PUSH1 0x1F LT PUSH2 0x4653 JUMPI PUSH2 0x100 DUP1 DUP4 SLOAD DIV MUL DUP4 MSTORE SWAP2 PUSH1 0x20 ADD SWAP2 PUSH2 0x467E JUMP JUMPDEST DUP3 ADD SWAP2 SWAP1 PUSH1 0x0 MSTORE PUSH1 0x20 PUSH1 0x0 KECCAK256 SWAP1 JUMPDEST DUP2 SLOAD DUP2 MSTORE SWAP1 PUSH1 0x1 ADD SWAP1 PUSH1 0x20 ADD DUP1 DUP4 GT PUSH2 0x4661 JUMPI DUP3 SWAP1 SUB PUSH1 0x1F AND DUP3 ADD SWAP2 JUMPDEST POP POP POP POP POP DUP2 MSTORE PUSH1 0x20 ADD PUSH1 0x3 DUP3 ADD DUP1 SLOAD PUSH2 0x4697 SWAP1 PUSH2 0x58C4 JUMP JUMPDEST DUP1 PUSH1 0x1F ADD PUSH1 0x20 DUP1 SWAP2 DIV MUL PUSH1 0x20 ADD PUSH1 0x40 MLOAD SWAP1 DUP2 ADD PUSH1 0x40 MSTORE DUP1 SWAP3 SWAP2 SWAP1 DUP2 DUP2 MSTORE PUSH1 0x20 ADD DUP3 DUP1 SLOAD PUSH2 0x46C3 SWAP1 PUSH2 0x58C4 JUMP JUMPDEST DUP1 ISZERO PUSH2 0x4710 JUMPI DUP1 PUSH1 0x1F LT PUSH2 0x46E5 JUMPI PUSH2 0x100 DUP1 DUP4 SLOAD DIV MUL DUP4 MSTORE SWAP2 PUSH1 0x20 ADD SWAP2 PUSH2 0x4710 JUMP JUMPDEST DUP3 ADD SWAP2 SWAP1 PUSH1 0x0 MSTORE PUSH1 0x20 PUSH1 0x0 KECCAK256 SWAP1 JUMPDEST DUP2 SLOAD DUP2 MSTORE SWAP1 PUSH1 0x1 ADD SWAP1 PUSH1 0x20 ADD DUP1 DUP4 GT PUSH2 0x46F3 JUMPI DUP3 SWAP1 SUB PUSH1 0x1F AND DUP3 ADD SWAP2 JUMPDEST POP POP POP SWAP2 DUP4 MSTORE POP POP PUSH1 0x4 DUP3 ADD SLOAD PUSH1 0x1 PUSH1 0x1 PUSH1 0xA0 SHL SUB SWAP1 DUP2 AND PUSH1 0x20 DUP1 DUP5 ADD SWAP2 SWAP1 SWAP2 MSTORE PUSH1 0x5 DUP5 ADD SLOAD SWAP1 SWAP2 AND PUSH1 0x40 DUP1 DUP5 ADD SWAP2 SWAP1 SWAP2 MSTORE PUSH1 0x6 DUP5 ADD DUP1 SLOAD DUP3 MLOAD DUP2 DUP6 MUL DUP2 ADD DUP6 ADD SWAP1 SWAP4 MSTORE DUP1 DUP4 MSTORE PUSH1 0x60 SWAP1 SWAP5 ADD SWAP4 SWAP2 SWAP3 SWAP1 SWAP2 SWAP1 DUP4 ADD DUP3 DUP3 DUP1 ISZERO PUSH2 0x4791 JUMPI PUSH1 0x20 MUL DUP3 ADD SWAP2 SWAP1 PUSH1 0x0 MSTORE PUSH1 0x20 PUSH1 0x0 KECCAK256 SWAP1 JUMPDEST DUP2 SLOAD DUP2 MSTORE PUSH1 0x20 ADD SWAP1 PUSH1 0x1 ADD SWAP1 DUP1 DUP4 GT PUSH2 0x477D JUMPI JUMPDEST POP POP POP POP POP DUP2 MSTORE PUSH1 0x20 ADD PUSH1 0x7 DUP3 ADD DUP1 SLOAD DUP1 PUSH1 0x20 MUL PUSH1 0x20 ADD PUSH1 0x40 MLOAD SWAP1 DUP2 ADD PUSH1 0x40 MSTORE DUP1 SWAP3 SWAP2 SWAP1 DUP2 DUP2 MSTORE PUSH1 0x20 ADD DUP3 DUP1 SLOAD DUP1 ISZERO PUSH2 0x47E9 JUMPI PUSH1 0x20 MUL DUP3 ADD SWAP2 SWAP1 PUSH1 0x0 MSTORE PUSH1 0x20 PUSH1 0x0 KECCAK256 SWAP1 JUMPDEST DUP2 SLOAD DUP2 MSTORE PUSH1 0x20 ADD SWAP1 PUSH1 0x1 ADD SWAP1 DUP1 DUP4 GT PUSH2 0x47D5 JUMPI JUMPDEST POP POP POP POP POP DUP2 MSTORE PUSH1 0x20 ADD PUSH1 0x8 DUP3 ADD SLOAD DUP2 MSTORE PUSH1 0x20 ADD PUSH1 0x9 DUP3 ADD SLOAD DUP2 MSTORE PUSH1 0x20 ADD PUSH1 0xA DUP3 ADD DUP1 SLOAD PUSH2 0x4816 SWAP1 PUSH2 0x58C4 JUMP JUMPDEST DUP1 PUSH1 0x1F ADD PUSH1 0x20 DUP1 SWAP2 DIV MUL PUSH1 0x20 ADD PUSH1 0x40 MLOAD SWAP1 DUP2 ADD PUSH1 0x40 MSTORE DUP1 SWAP3 SWAP2 SWAP1 DUP2 DUP2 MSTORE PUSH1 0x20 ADD DUP3 DUP1 SLOAD PUSH2 0x4842 SWAP1 PUSH2 0x58C4 JUMP JUMPDEST DUP1 ISZERO PUSH2 0x488F JUMPI DUP1 PUSH1 0x1F LT PUSH2 0x4864 JUMPI PUSH2 0x100 DUP1 DUP4 SLOAD DIV MUL DUP4 MSTORE SWAP2 PUSH1 0x20 ADD SWAP2 PUSH2 0x488F JUMP JUMPDEST DUP3 ADD SWAP2 SWAP1 PUSH1 0x0 MSTORE PUSH1 0x20 PUSH1 0x0 KECCAK256 SWAP1 JUMPDEST DUP2 SLOAD DUP2 MSTORE SWAP1 PUSH1 0x1 ADD SWAP1 PUSH1 0x20 ADD DUP1 DUP4 GT PUSH2 0x4872 JUMPI DUP3 SWAP1 SUB PUSH1 0x1F AND DUP3 ADD SWAP2 JUMPDEST POP POP POP SWAP2 DUP4 MSTORE POP POP PUSH1 0xB DUP3 ADD SLOAD PUSH1 0x20 SWAP1 SWAP2 ADD SWAP1 PUSH1 0xFF AND PUSH1 0x6 DUP2 GT ISZERO PUSH2 0x48B6 JUMPI PUSH2 0x48B6 PUSH2 0x5387 JUMP JUMPDEST PUSH1 0x6 DUP2 GT ISZERO PUSH2 0x48C7 JUMPI PUSH2 0x48C7 PUSH2 0x5387 JUMP JUMPDEST DUP2 MSTORE PUSH1 0x20 ADD PUSH1 0xC DUP3 ADD SLOAD DUP2 MSTORE PUSH1 0x20 ADD PUSH1 0xD DUP3 ADD SLOAD DUP2 MSTORE PUSH1 0x20 ADD PUSH1 0xE DUP3 ADD SLOAD DUP2 MSTORE PUSH1 0x20 ADD PUSH1 0xF DUP3 ADD SLOAD DUP2 MSTORE POP POP DUP4 DUP4 DUP2 MLOAD DUP2 LT PUSH2 0x4905 JUMPI PUSH2 0x4905 PUSH2 0x5898 JUMP JUMPDEST PUSH1 0x20 MUL PUSH1 0x20 ADD ADD DUP2 SWAP1 MSTORE POP POP DUP1 DUP1 PUSH2 0x491C SWAP1 PUSH2 0x5CF5 JUMP JUMPDEST SWAP2 POP POP PUSH2 0x4568 JUMP JUMPDEST PUSH1 0x1 PUSH1 0x1 PUSH1 0xA0 SHL SUB DUP2 AND PUSH1 0x0 SWAP1 DUP2 MSTORE PUSH1 0x20 DUP2 SWAP1 MSTORE PUSH1 0x40 DUP2 KECCAK256 PUSH1 0x4 ADD SLOAD PUSH1 0x60 SWAP2 SWAP1 PUSH1 0x1 PUSH1 0x1 PUSH1 0x40 SHL SUB DUP2 GT ISZERO PUSH2 0x495B JUMPI PUSH2 0x495B PUSH2 0x58AE JUMP JUMPDEST PUSH1 0x40 MLOAD SWAP1 DUP1 DUP3 MSTORE DUP1 PUSH1 0x20 MUL PUSH1 0x20 ADD DUP3 ADD PUSH1 0x40 MSTORE DUP1 ISZERO PUSH2 0x49C0 JUMPI DUP2 PUSH1 0x20 ADD JUMPDEST PUSH2 0x49AD PUSH1 0x40 MLOAD DUP1 PUSH1 0xA0 ADD PUSH1 0x40 MSTORE DUP1 PUSH1 0x0 DUP2 MSTORE PUSH1 0x20 ADD PUSH1 0x60 DUP2 MSTORE PUSH1 0x20 ADD PUSH1 0x60 DUP2 MSTORE PUSH1 0x20 ADD PUSH1 0x0 DUP2 MSTORE PUSH1 0x20 ADD PUSH1 0x0 ISZERO ISZERO DUP2 MSTORE POP SWAP1 JUMP JUMPDEST DUP2 MSTORE PUSH1 0x20 ADD SWAP1 PUSH1 0x1 SWAP1 SUB SWAP1 DUP2 PUSH2 0x4979 JUMPI SWAP1 POP JUMPDEST POP SWAP1 POP PUSH1 0x0 JUMPDEST DUP2 MLOAD DUP2 LT ISZERO PUSH2 0x4B8D JUMPI PUSH1 0x1 PUSH1 0x1 PUSH1 0xA0 SHL SUB DUP5 AND PUSH1 0x0 SWAP1 DUP2 MSTORE PUSH1 0x20 DUP2 SWAP1 MSTORE PUSH1 0x40 SWAP1 KECCAK256 PUSH1 0x4 ADD DUP1 SLOAD DUP3 SWAP1 DUP2 LT PUSH2 0x49FC JUMPI PUSH2 0x49FC PUSH2 0x5898 JUMP JUMPDEST SWAP1 PUSH1 0x0 MSTORE PUSH1 0x20 PUSH1 0x0 KECCAK256 SWAP1 PUSH1 0x5 MUL ADD PUSH1 0x40 MLOAD DUP1 PUSH1 0xA0 ADD PUSH1 0x40 MSTORE SWAP1 DUP2 PUSH1 0x0 DUP3 ADD SLOAD DUP2 MSTORE PUSH1 0x20 ADD PUSH1 0x1 DUP3 ADD DUP1 SLOAD PUSH2 0x4A2F SWAP1 PUSH2 0x58C4 JUMP JUMPDEST DUP1 PUSH1 0x1F ADD PUSH1 0x20 DUP1 SWAP2 DIV MUL PUSH1 0x20 ADD PUSH1 0x40 MLOAD SWAP1 DUP2 ADD PUSH1 0x40 MSTORE DUP1 SWAP3 SWAP2 SWAP1 DUP2 DUP2 MSTORE PUSH1 0x20 ADD DUP3 DUP1 SLOAD PUSH2 0x4A5B SWAP1 PUSH2 0x58C4 JUMP JUMPDEST DUP1 ISZERO PUSH2 0x4AA8 JUMPI DUP1 PUSH1 0x1F LT PUSH2 0x4A7D JUMPI PUSH2 0x100 DUP1 DUP4 SLOAD DIV MUL DUP4 MSTORE SWAP2 PUSH1 0x20 ADD SWAP2 PUSH2 0x4AA8 JUMP JUMPDEST DUP3 ADD SWAP2 SWAP1 PUSH1 0x0 MSTORE PUSH1 0x20 PUSH1 0x0 KECCAK256 SWAP1 JUMPDEST DUP2 SLOAD DUP2 MSTORE SWAP1 PUSH1 0x1 ADD SWAP1 PUSH1 0x20 ADD DUP1 DUP4 GT PUSH2 0x4A8B JUMPI DUP3 SWAP1 SUB PUSH1 0x1F AND DUP3 ADD SWAP2 JUMPDEST POP POP POP POP POP DUP2 MSTORE PUSH1 0x20 ADD PUSH1 0x2 DUP3 ADD DUP1 SLOAD PUSH2 0x4AC1 SWAP1 PUSH2 0x58C4 JUMP JUMPDEST DUP1 PUSH1 0x1F ADD PUSH1 0x20 DUP1 SWAP2 DIV MUL PUSH1 0x20 ADD PUSH1 0x40 MLOAD SWAP1 DUP2 ADD PUSH1 0x40 MSTORE DUP1 SWAP3 SWAP2 SWAP1 DUP2 DUP2 MSTORE PUSH1 0x20 ADD DUP3 DUP1 SLOAD PUSH2 0x4AED SWAP1 PUSH2 0x58C4 JUMP JUMPDEST DUP1 ISZERO PUSH2 0x4B3A JUMPI DUP1 PUSH1 0x1F LT PUSH2 0x4B0F JUMPI PUSH2 0x100 DUP1 DUP4 SLOAD DIV MUL DUP4 MSTORE SWAP2 PUSH1 0x20 ADD SWAP2 PUSH2 0x4B3A JUMP JUMPDEST DUP3 ADD SWAP2 SWAP1 PUSH1 0x0 MSTORE PUSH1 0x20 PUSH1 0x0 KECCAK256 SWAP1 JUMPDEST DUP2 SLOAD DUP2 MSTORE SWAP1 PUSH1 0x1 ADD SWAP1 PUSH1 0x20 ADD DUP1 DUP4 GT PUSH2 0x4B1D JUMPI DUP3 SWAP1 SUB PUSH1 0x1F AND DUP3 ADD SWAP2 JUMPDEST POP POP POP SWAP2 DUP4 MSTORE POP POP PUSH1 0x3 DUP3 ADD SLOAD PUSH1 0x20 DUP3 ADD MSTORE PUSH1 0x4 SWAP1 SWAP2 ADD SLOAD PUSH1 0xFF AND ISZERO ISZERO PUSH1 0x40 SWAP1 SWAP2 ADD MSTORE DUP3 MLOAD DUP4 SWAP1 DUP4 SWAP1 DUP2 LT PUSH2 0x4B71 JUMPI PUSH2 0x4B71 PUSH2 0x5898 JUMP JUMPDEST PUSH1 0x20 MUL PUSH1 0x20 ADD ADD DUP2 SWAP1 MSTORE POP DUP1 PUSH2 0x4B86 SWAP1 PUSH2 0x5CF5 JUMP JUMPDEST SWAP1 POP PUSH2 0x49C6 JUMP JUMPDEST POP SWAP3 SWAP2 POP POP JUMP JUMPDEST PUSH1 0x0 PUSH1 0x7 DUP3 DUP2 SLOAD DUP2 LT PUSH2 0x4BA9 JUMPI PUSH2 0x4BA9 PUSH2 0x5898 JUMP JUMPDEST SWAP1 PUSH1 0x0 MSTORE PUSH1 0x20 PUSH1 0x0 KECCAK256 SWAP1 PUSH1 0x10 MUL ADD SWAP1 POP DUP2 DUP2 PUSH1 0x0 ADD SLOAD EQ PUSH2 0x4BDC JUMPI PUSH1 0x40 MLOAD PUSH3 0x461BCD PUSH1 0xE5 SHL DUP2 MSTORE PUSH1 0x4 ADD PUSH2 0xAD1 SWAP1 PUSH2 0x5A0B JUMP JUMPDEST PUSH1 0x2 PUSH1 0xB DUP3 ADD SLOAD PUSH1 0xFF AND PUSH1 0x6 DUP2 GT ISZERO PUSH2 0x4BF7 JUMPI PUSH2 0x4BF7 PUSH2 0x5387 JUMP JUMPDEST EQ PUSH2 0x4C01 JUMPI PUSH1 0x0 DUP1 REVERT JUMPDEST PUSH1 0x1 DUP2 ADD SLOAD PUSH1 0x1 PUSH1 0x1 PUSH1 0xA0 SHL SUB AND CALLER EQ PUSH2 0x4C91 JUMPI PUSH1 0x40 MLOAD PUSH3 0x461BCD PUSH1 0xE5 SHL DUP2 MSTORE PUSH1 0x20 PUSH1 0x4 DUP3 ADD MSTORE PUSH1 0x44 PUSH1 0x24 DUP3 ADD DUP2 SWAP1 MSTORE PUSH32 0x4F72646572206D757374206265206D61726B656420726561647920746F206465 SWAP1 DUP3 ADD MSTORE PUSH32 0x6C69766572206279207468652072657374617572616E74206F6620746865206F PUSH1 0x64 DUP3 ADD MSTORE PUSH4 0x393232B9 PUSH1 0xE1 SHL PUSH1 0x84 DUP3 ADD MSTORE PUSH1 0xA4 ADD PUSH2 0xAD1 JUMP JUMPDEST PUSH1 0xB DUP2 ADD DUP1 SLOAD PUSH1 0x3 SWAP2 SWAP1 PUSH1 0xFF NOT AND PUSH1 0x1 DUP4 PUSH2 0xDF0 JUMP JUMPDEST PUSH1 0x0 JUMPDEST PUSH1 0x6 SLOAD DUP2 LT ISZERO PUSH2 0x4D5F JUMPI DUP2 PUSH1 0x6 DUP3 DUP2 SLOAD DUP2 LT PUSH2 0x4CC8 JUMPI PUSH2 0x4CC8 PUSH2 0x5898 JUMP JUMPDEST SWAP1 PUSH1 0x0 MSTORE PUSH1 0x20 PUSH1 0x0 KECCAK256 ADD SLOAD SUB PUSH2 0x4D4D JUMPI PUSH1 0x6 DUP1 SLOAD PUSH2 0x4CE8 SWAP1 PUSH1 0x1 SWAP1 PUSH2 0x5D58 JUMP JUMPDEST DUP2 SLOAD DUP2 LT PUSH2 0x4CF8 JUMPI PUSH2 0x4CF8 PUSH2 0x5898 JUMP JUMPDEST SWAP1 PUSH1 0x0 MSTORE PUSH1 0x20 PUSH1 0x0 KECCAK256 ADD SLOAD PUSH1 0x6 DUP3 DUP2 SLOAD DUP2 LT PUSH2 0x4D16 JUMPI PUSH2 0x4D16 PUSH2 0x5898 JUMP JUMPDEST PUSH1 0x0 SWAP2 DUP3 MSTORE PUSH1 0x20 SWAP1 SWAP2 KECCAK256 ADD SSTORE PUSH1 0x6 DUP1 SLOAD DUP1 PUSH2 0x4D33 JUMPI PUSH2 0x4D33 PUSH2 0x5D6B JUMP JUMPDEST PUSH1 0x1 SWAP1 SUB DUP2 DUP2 SWAP1 PUSH1 0x0 MSTORE PUSH1 0x20 PUSH1 0x0 KECCAK256 ADD PUSH1 0x0 SWAP1 SSTORE SWAP1 SSTORE POP POP JUMP JUMPDEST DUP1 PUSH2 0x4D57 DUP2 PUSH2 0x5CF5 JUMP JUMPDEST SWAP2 POP POP PUSH2 0x4CAA JUMP JUMPDEST POP POP JUMP JUMPDEST PUSH1 0x40 MLOAD DUP1 PUSH2 0x200 ADD PUSH1 0x40 MSTORE DUP1 PUSH1 0x0 DUP2 MSTORE PUSH1 0x20 ADD PUSH1 0x0 PUSH1 0x1 PUSH1 0x1 PUSH1 0xA0 SHL SUB AND DUP2 MSTORE PUSH1 0x20 ADD PUSH1 0x60 DUP2 MSTORE PUSH1 0x20 ADD PUSH1 0x60 DUP2 MSTORE PUSH1 0x20 ADD PUSH1 0x0 PUSH1 0x1 PUSH1 0x1 PUSH1 0xA0 SHL SUB AND DUP2 MSTORE PUSH1 0x20 ADD PUSH1 0x0 PUSH1 0x1 PUSH1 0x1 PUSH1 0xA0 SHL SUB AND DUP2 MSTORE PUSH1 0x20 ADD PUSH1 0x60 DUP2 MSTORE PUSH1 0x20 ADD PUSH1 0x60 DUP2 MSTORE PUSH1 0x20 ADD PUSH1 0x0 DUP2 MSTORE PUSH1 0x20 ADD PUSH1 0x0 DUP2 MSTORE PUSH1 0x20 ADD PUSH1 0x60 DUP2 MSTORE PUSH1 0x20 ADD PUSH1 0x0 PUSH1 0x6 DUP2 GT ISZERO PUSH2 0x4DEA JUMPI PUSH2 0x4DEA PUSH2 0x5387 JUMP JUMPDEST DUP2 MSTORE PUSH1 0x20 ADD PUSH1 0x0 DUP2 MSTORE PUSH1 0x20 ADD PUSH1 0x0 DUP2 MSTORE PUSH1 0x20 ADD PUSH1 0x0 DUP2 MSTORE PUSH1 0x20 ADD PUSH1 0x0 DUP2 MSTORE POP SWAP1 JUMP JUMPDEST DUP3 DUP1 SLOAD DUP3 DUP3 SSTORE SWAP1 PUSH1 0x0 MSTORE PUSH1 0x20 PUSH1 0x0 KECCAK256 SWAP1 DUP2 ADD SWAP3 DUP3 ISZERO PUSH2 0x4E47 JUMPI SWAP2 PUSH1 0x20 MUL DUP3 ADD JUMPDEST DUP3 DUP2 GT ISZERO PUSH2 0x4E47 JUMPI DUP3 MLOAD DUP3 SSTORE SWAP2 PUSH1 0x20 ADD SWAP2 SWAP1 PUSH1 0x1 ADD SWAP1 PUSH2 0x4E2C JUMP JUMPDEST POP PUSH2 0x4E53 SWAP3 SWAP2 POP PUSH2 0x4E57 JUMP JUMPDEST POP SWAP1 JUMP JUMPDEST JUMPDEST DUP1 DUP3 GT ISZERO PUSH2 0x4E53 JUMPI PUSH1 0x0 DUP2 SSTORE PUSH1 0x1 ADD PUSH2 0x4E58 JUMP JUMPDEST DUP1 CALLDATALOAD PUSH1 0x1 PUSH1 0x1 PUSH1 0xA0 SHL SUB DUP2 AND DUP2 EQ PUSH2 0x4E83 JUMPI PUSH1 0x0 DUP1 REVERT JUMPDEST SWAP2 SWAP1 POP JUMP JUMPDEST PUSH1 0x0 DUP1 PUSH1 0x40 DUP4 DUP6 SUB SLT ISZERO PUSH2 0x4E9B JUMPI PUSH1 0x0 DUP1 REVERT JUMPDEST PUSH2 0x4EA4 DUP4 PUSH2 0x4E6C JUMP JUMPDEST SWAP5 PUSH1 0x20 SWAP4 SWAP1 SWAP4 ADD CALLDATALOAD SWAP4 POP POP POP JUMP JUMPDEST PUSH1 0x0 DUP1 DUP4 PUSH1 0x1F DUP5 ADD SLT PUSH2 0x4EC4 JUMPI PUSH1 0x0 DUP1 REVERT JUMPDEST POP DUP2 CALLDATALOAD PUSH1 0x1 PUSH1 0x1 PUSH1 0x40 SHL SUB DUP2 GT ISZERO PUSH2 0x4EDB JUMPI PUSH1 0x0 DUP1 REVERT JUMPDEST PUSH1 0x20 DUP4 ADD SWAP2 POP DUP4 PUSH1 0x20 DUP3 DUP6 ADD ADD GT ISZERO PUSH2 0x4EF3 JUMPI PUSH1 0x0 DUP1 REVERT JUMPDEST SWAP3 POP SWAP3 SWAP1 POP JUMP JUMPDEST PUSH1 0x0 DUP1 PUSH1 0x0 DUP1 PUSH1 0x0 DUP1 PUSH1 0x80 DUP8 DUP10 SUB SLT ISZERO PUSH2 0x4F13 JUMPI PUSH1 0x0 DUP1 REVERT JUMPDEST DUP7 CALLDATALOAD SWAP6 POP PUSH1 0x20 DUP8 ADD CALLDATALOAD PUSH1 0x1 PUSH1 0x1 PUSH1 0x40 SHL SUB DUP1 DUP3 GT ISZERO PUSH2 0x4F31 JUMPI PUSH1 0x0 DUP1 REVERT JUMPDEST PUSH2 0x4F3D DUP11 DUP4 DUP12 ADD PUSH2 0x4EB2 JUMP JUMPDEST SWAP1 SWAP8 POP SWAP6 POP PUSH1 0x40 DUP10 ADD CALLDATALOAD SWAP2 POP DUP1 DUP3 GT ISZERO PUSH2 0x4F56 JUMPI PUSH1 0x0 DUP1 REVERT JUMPDEST POP PUSH2 0x4F63 DUP10 DUP3 DUP11 ADD PUSH2 0x4EB2 JUMP JUMPDEST SWAP8 SWAP11 SWAP7 SWAP10 POP SWAP5 SWAP8 SWAP5 SWAP7 SWAP6 PUSH1 0x60 SWAP1 SWAP6 ADD CALLDATALOAD SWAP5 SWAP4 POP POP POP POP JUMP JUMPDEST PUSH1 0x0 DUP1 PUSH1 0x0 DUP1 PUSH1 0x60 DUP6 DUP8 SUB SLT ISZERO PUSH2 0x4F91 JUMPI PUSH1 0x0 DUP1 REVERT JUMPDEST DUP5 CALLDATALOAD SWAP4 POP PUSH1 0x20 DUP6 ADD CALLDATALOAD SWAP3 POP PUSH1 0x40 DUP6 ADD CALLDATALOAD PUSH1 0x1 PUSH1 0x1 PUSH1 0x40 SHL SUB DUP2 GT ISZERO PUSH2 0x4FB5 JUMPI PUSH1 0x0 DUP1 REVERT JUMPDEST PUSH2 0x4FC1 DUP8 DUP3 DUP9 ADD PUSH2 0x4EB2 JUMP JUMPDEST SWAP6 SWAP9 SWAP5 SWAP8 POP SWAP6 POP POP POP POP JUMP JUMPDEST PUSH1 0x0 PUSH1 0x20 DUP3 DUP5 SUB SLT ISZERO PUSH2 0x4FDF JUMPI PUSH1 0x0 DUP1 REVERT JUMPDEST PUSH2 0x4FE8 DUP3 PUSH2 0x4E6C JUMP JUMPDEST SWAP4 SWAP3 POP POP POP JUMP JUMPDEST PUSH1 0x0 DUP1 PUSH1 0x0 DUP1 PUSH1 0x0 DUP1 PUSH1 0x60 DUP8 DUP10 SUB SLT ISZERO PUSH2 0x5008 JUMPI PUSH1 0x0 DUP1 REVERT JUMPDEST DUP7 CALLDATALOAD PUSH1 0x1 PUSH1 0x1 PUSH1 0x40 SHL SUB DUP1 DUP3 GT ISZERO PUSH2 0x501F JUMPI PUSH1 0x0 DUP1 REVERT JUMPDEST PUSH2 0x502B DUP11 DUP4 DUP12 ADD PUSH2 0x4EB2 JUMP JUMPDEST SWAP1 SWAP9 POP SWAP7 POP PUSH1 0x20 DUP10 ADD CALLDATALOAD SWAP2 POP DUP1 DUP3 GT ISZERO PUSH2 0x5044 JUMPI PUSH1 0x0 DUP1 REVERT JUMPDEST PUSH2 0x5050 DUP11 DUP4 DUP12 ADD PUSH2 0x4EB2 JUMP JUMPDEST SWAP1 SWAP7 POP SWAP5 POP PUSH1 0x40 DUP10 ADD CALLDATALOAD SWAP2 POP DUP1 DUP3 GT ISZERO PUSH2 0x5069 JUMPI PUSH1 0x0 DUP1 REVERT JUMPDEST POP PUSH2 0x5076 DUP10 DUP3 DUP11 ADD PUSH2 0x4EB2 JUMP JUMPDEST SWAP8 SWAP11 SWAP7 SWAP10 POP SWAP5 SWAP8 POP SWAP3 SWAP6 SWAP4 SWAP5 SWAP3 POP POP POP JUMP JUMPDEST PUSH1 0x0 PUSH1 0x20 DUP3 DUP5 SUB SLT ISZERO PUSH2 0x509A JUMPI PUSH1 0x0 DUP1 REVERT JUMPDEST POP CALLDATALOAD SWAP2 SWAP1 POP JUMP JUMPDEST PUSH1 0x0 DUP2 MLOAD DUP1 DUP5 MSTORE PUSH1 0x0 JUMPDEST DUP2 DUP2 LT ISZERO PUSH2 0x50C7 JUMPI PUSH1 0x20 DUP2 DUP6 ADD DUP2 ADD MLOAD DUP7 DUP4 ADD DUP3 ADD MSTORE ADD PUSH2 0x50AB JUMP JUMPDEST POP PUSH1 0x0 PUSH1 0x20 DUP3 DUP7 ADD ADD MSTORE PUSH1 0x20 PUSH1 0x1F NOT PUSH1 0x1F DUP4 ADD AND DUP6 ADD ADD SWAP2 POP POP SWAP3 SWAP2 POP POP JUMP JUMPDEST PUSH1 0x1 PUSH1 0x1 PUSH1 0xA0 SHL SUB DUP6 AND DUP2 MSTORE PUSH1 0x80 PUSH1 0x20 DUP3 ADD DUP2 SWAP1 MSTORE PUSH1 0x0 SWAP1 PUSH2 0x510B SWAP1 DUP4 ADD DUP7 PUSH2 0x50A1 JUMP JUMPDEST DUP3 DUP2 SUB PUSH1 0x40 DUP5 ADD MSTORE PUSH2 0x511D DUP2 DUP7 PUSH2 0x50A1 JUMP JUMPDEST SWAP1 POP DUP3 DUP2 SUB PUSH1 0x60 DUP5 ADD MSTORE PUSH2 0x5131 DUP2 DUP6 PUSH2 0x50A1 JUMP JUMPDEST SWAP8 SWAP7 POP POP POP POP POP POP POP JUMP JUMPDEST PUSH1 0x0 DUP1 PUSH1 0x40 DUP4 DUP6 SUB SLT ISZERO PUSH2 0x514F JUMPI PUSH1 0x0 DUP1 REVERT JUMPDEST POP POP DUP1 CALLDATALOAD SWAP3 PUSH1 0x20 SWAP1 SWAP2 ADD CALLDATALOAD SWAP2 POP JUMP JUMPDEST DUP1 MLOAD DUP3 MSTORE PUSH1 0x0 PUSH1 0x20 DUP3 ADD MLOAD PUSH1 0xA0 PUSH1 0x20 DUP6 ADD MSTORE PUSH2 0x517D PUSH1 0xA0 DUP6 ADD DUP3 PUSH2 0x50A1 JUMP JUMPDEST SWAP1 POP PUSH1 0x40 DUP4 ADD MLOAD DUP5 DUP3 SUB PUSH1 0x40 DUP7 ADD MSTORE PUSH2 0x5196 DUP3 DUP3 PUSH2 0x50A1 JUMP JUMPDEST SWAP2 POP POP PUSH1 0x60 DUP4 ADD MLOAD PUSH1 0x60 DUP6 ADD MSTORE PUSH1 0x80 DUP4 ADD MLOAD ISZERO ISZERO PUSH1 0x80 DUP6 ADD MSTORE DUP1 SWAP2 POP POP SWAP3 SWAP2 POP POP JUMP JUMPDEST PUSH1 0x0 DUP2 MLOAD DUP1 DUP5 MSTORE PUSH1 0x20 DUP1 DUP6 ADD DUP1 DUP2 SWAP7 POP DUP4 PUSH1 0x5 SHL DUP2 ADD SWAP2 POP DUP3 DUP7 ADD PUSH1 0x0 JUMPDEST DUP6 DUP2 LT ISZERO PUSH2 0x5201 JUMPI DUP3 DUP5 SUB DUP10 MSTORE PUSH2 0x51EF DUP5 DUP4 MLOAD PUSH2 0x515E JUMP JUMPDEST SWAP9 DUP6 ADD SWAP9 SWAP4 POP SWAP1 DUP5 ADD SWAP1 PUSH1 0x1 ADD PUSH2 0x51D7 JUMP JUMPDEST POP SWAP2 SWAP8 SWAP7 POP POP POP POP POP POP POP JUMP JUMPDEST PUSH1 0x0 DUP2 MLOAD DUP1 DUP5 MSTORE PUSH1 0x20 DUP1 DUP6 ADD SWAP5 POP DUP1 DUP5 ADD PUSH1 0x0 JUMPDEST DUP4 DUP2 LT ISZERO PUSH2 0x523E JUMPI DUP2 MLOAD DUP8 MSTORE SWAP6 DUP3 ADD SWAP6 SWAP1 DUP3 ADD SWAP1 PUSH1 0x1 ADD PUSH2 0x5222 JUMP JUMPDEST POP SWAP5 SWAP6 SWAP5 POP POP POP POP POP JUMP JUMPDEST PUSH1 0x40 DUP2 MSTORE PUSH1 0x0 PUSH2 0x525C PUSH1 0x40 DUP4 ADD DUP6 PUSH2 0x51B9 JUMP JUMPDEST DUP3 DUP2 SUB PUSH1 0x20 DUP5 ADD MSTORE PUSH2 0xF21 DUP2 DUP6 PUSH2 0x520E JUMP JUMPDEST PUSH1 0x0 DUP1 DUP4 PUSH1 0x1F DUP5 ADD SLT PUSH2 0x5280 JUMPI PUSH1 0x0 DUP1 REVERT JUMPDEST POP DUP2 CALLDATALOAD PUSH1 0x1 PUSH1 0x1 PUSH1 0x40 SHL SUB DUP2 GT ISZERO PUSH2 0x5297 JUMPI PUSH1 0x0 DUP1 REVERT JUMPDEST PUSH1 0x20 DUP4 ADD SWAP2 POP DUP4 PUSH1 0x20 DUP3 PUSH1 0x5 SHL DUP6 ADD ADD GT ISZERO PUSH2 0x4EF3 JUMPI PUSH1 0x0 DUP1 REVERT JUMPDEST PUSH1 0x0 DUP1 PUSH1 0x0 DUP1 PUSH1 0x0 DUP1 PUSH1 0x80 DUP8 DUP10 SUB SLT ISZERO PUSH2 0x52CB JUMPI PUSH1 0x0 DUP1 REVERT JUMPDEST PUSH2 0x52D4 DUP8 PUSH2 0x4E6C JUMP JUMPDEST SWAP6 POP PUSH1 0x20 DUP8 ADD CALLDATALOAD PUSH1 0x1 PUSH1 0x1 PUSH1 0x40 SHL SUB DUP1 DUP3 GT ISZERO PUSH2 0x52F0 JUMPI PUSH1 0x0 DUP1 REVERT JUMPDEST PUSH2 0x52FC DUP11 DUP4 DUP12 ADD PUSH2 0x526E JUMP JUMPDEST SWAP1 SWAP8 POP SWAP6 POP PUSH1 0x40 DUP10 ADD CALLDATALOAD SWAP2 POP DUP1 DUP3 GT ISZERO PUSH2 0x5315 JUMPI PUSH1 0x0 DUP1 REVERT JUMPDEST POP PUSH2 0x4F63 DUP10 DUP3 DUP11 ADD PUSH2 0x526E JUMP JUMPDEST PUSH1 0x0 DUP1 PUSH1 0x20 DUP4 DUP6 SUB SLT ISZERO PUSH2 0x5335 JUMPI PUSH1 0x0 DUP1 REVERT JUMPDEST DUP3 CALLDATALOAD PUSH1 0x1 PUSH1 0x1 PUSH1 0x40 SHL SUB DUP2 GT ISZERO PUSH2 0x534B JUMPI PUSH1 0x0 DUP1 REVERT JUMPDEST PUSH2 0x5357 DUP6 DUP3 DUP7 ADD PUSH2 0x4EB2 JUMP JUMPDEST SWAP1 SWAP7 SWAP1 SWAP6 POP SWAP4 POP POP POP POP JUMP JUMPDEST PUSH1 0x1 PUSH1 0x1 PUSH1 0xA0 SHL SUB DUP4 AND DUP2 MSTORE PUSH1 0x40 PUSH1 0x20 DUP3 ADD DUP2 SWAP1 MSTORE PUSH1 0x0 SWAP1 PUSH2 0x44A0 SWAP1 DUP4 ADD DUP5 PUSH2 0x50A1 JUMP JUMPDEST PUSH4 0x4E487B71 PUSH1 0xE0 SHL PUSH1 0x0 MSTORE PUSH1 0x21 PUSH1 0x4 MSTORE PUSH1 0x24 PUSH1 0x0 REVERT JUMPDEST PUSH1 0x7 DUP2 LT PUSH2 0x53BB JUMPI PUSH4 0x4E487B71 PUSH1 0xE0 SHL PUSH1 0x0 MSTORE PUSH1 0x21 PUSH1 0x4 MSTORE PUSH1 0x24 PUSH1 0x0 REVERT JUMPDEST SWAP1 MSTORE JUMP JUMPDEST PUSH1 0x0 PUSH1 0x20 DUP1 DUP4 ADD DUP2 DUP5 MSTORE DUP1 DUP6 MLOAD DUP1 DUP4 MSTORE PUSH1 0x40 SWAP3 POP DUP3 DUP7 ADD SWAP2 POP DUP3 DUP2 PUSH1 0x5 SHL DUP8 ADD ADD DUP5 DUP9 ADD PUSH1 0x0 JUMPDEST DUP4 DUP2 LT ISZERO PUSH2 0x5531 JUMPI PUSH1 0x3F NOT DUP10 DUP5 SUB ADD DUP6 MSTORE DUP2 MLOAD DUP1 MLOAD DUP5 MSTORE DUP8 DUP2 ADD MLOAD PUSH1 0x1 PUSH1 0x1 PUSH1 0xA0 SHL SUB AND DUP9 DUP6 ADD MSTORE DUP7 DUP2 ADD MLOAD PUSH2 0x200 DUP9 DUP7 ADD DUP2 SWAP1 MSTORE SWAP1 PUSH2 0x5428 DUP3 DUP8 ADD DUP3 PUSH2 0x50A1 JUMP JUMPDEST SWAP2 POP POP PUSH1 0x60 DUP1 DUP4 ADD MLOAD DUP7 DUP4 SUB DUP3 DUP9 ADD MSTORE PUSH2 0x5442 DUP4 DUP3 PUSH2 0x50A1 JUMP JUMPDEST SWAP3 POP POP POP PUSH1 0x80 DUP1 DUP4 ADD MLOAD PUSH2 0x5460 DUP3 DUP9 ADD DUP3 PUSH1 0x1 PUSH1 0x1 PUSH1 0xA0 SHL SUB AND SWAP1 MSTORE JUMP JUMPDEST POP POP PUSH1 0xA0 DUP3 DUP2 ADD MLOAD PUSH1 0x1 PUSH1 0x1 PUSH1 0xA0 SHL SUB AND SWAP1 DUP7 ADD MSTORE PUSH1 0xC0 DUP1 DUP4 ADD MLOAD DUP7 DUP4 SUB DUP3 DUP9 ADD MSTORE PUSH2 0x548C DUP4 DUP3 PUSH2 0x520E JUMP JUMPDEST SWAP3 POP POP POP PUSH1 0xE0 DUP1 DUP4 ADD MLOAD DUP7 DUP4 SUB DUP3 DUP9 ADD MSTORE PUSH2 0x54A7 DUP4 DUP3 PUSH2 0x520E JUMP JUMPDEST SWAP3 POP POP POP PUSH2 0x100 DUP1 DUP4 ADD MLOAD DUP2 DUP8 ADD MSTORE POP PUSH2 0x120 DUP1 DUP4 ADD MLOAD DUP2 DUP8 ADD MSTORE POP PUSH2 0x140 DUP1 DUP4 ADD MLOAD DUP7 DUP4 SUB DUP3 DUP9 ADD MSTORE PUSH2 0x54DB DUP4 DUP3 PUSH2 0x50A1 JUMP JUMPDEST SWAP3 POP POP POP PUSH2 0x160 DUP1 DUP4 ADD MLOAD PUSH2 0x54F2 DUP3 DUP9 ADD DUP3 PUSH2 0x539D JUMP JUMPDEST POP POP PUSH2 0x180 DUP3 DUP2 ADD MLOAD SWAP1 DUP7 ADD MSTORE PUSH2 0x1A0 DUP1 DUP4 ADD MLOAD SWAP1 DUP7 ADD MSTORE PUSH2 0x1C0 DUP1 DUP4 ADD MLOAD SWAP1 DUP7 ADD MSTORE PUSH2 0x1E0 SWAP2 DUP3 ADD MLOAD SWAP2 SWAP1 SWAP5 ADD MSTORE SWAP4 DUP7 ADD SWAP4 SWAP1 DUP7 ADD SWAP1 PUSH1 0x1 ADD PUSH2 0x53E6 JUMP JUMPDEST POP SWAP1 SWAP9 SWAP8 POP POP POP POP POP POP POP POP JUMP JUMPDEST PUSH1 0x0 DUP1 PUSH1 0x0 DUP1 PUSH1 0x0 PUSH1 0x60 DUP7 DUP9 SUB SLT ISZERO PUSH2 0x5557 JUMPI PUSH1 0x0 DUP1 REVERT JUMPDEST DUP6 CALLDATALOAD PUSH1 0x1 PUSH1 0x1 PUSH1 0x40 SHL SUB DUP1 DUP3 GT ISZERO PUSH2 0x556E JUMPI PUSH1 0x0 DUP1 REVERT JUMPDEST PUSH2 0x557A DUP10 DUP4 DUP11 ADD PUSH2 0x4EB2 JUMP JUMPDEST SWAP1 SWAP8 POP SWAP6 POP PUSH1 0x20 DUP9 ADD CALLDATALOAD SWAP2 POP DUP1 DUP3 GT ISZERO PUSH2 0x5593 JUMPI PUSH1 0x0 DUP1 REVERT JUMPDEST POP PUSH2 0x55A0 DUP9 DUP3 DUP10 ADD PUSH2 0x4EB2 JUMP JUMPDEST SWAP7 SWAP10 SWAP6 SWAP9 POP SWAP7 PUSH1 0x40 ADD CALLDATALOAD SWAP5 SWAP4 POP POP POP POP JUMP JUMPDEST PUSH1 0x20 DUP2 MSTORE PUSH1 0x0 PUSH2 0x4FE8 PUSH1 0x20 DUP4 ADD DUP5 PUSH2 0x515E JUMP JUMPDEST PUSH1 0x0 PUSH1 0x40 DUP1 DUP4 ADD DUP2 DUP5 MSTORE DUP1 DUP7 MLOAD DUP1 DUP4 MSTORE PUSH1 0x60 SWAP3 POP DUP3 DUP7 ADD SWAP2 POP DUP3 DUP2 PUSH1 0x5 SHL DUP8 ADD ADD PUSH1 0x20 DUP1 DUP11 ADD PUSH1 0x0 JUMPDEST DUP5 DUP2 LT ISZERO PUSH2 0x5688 JUMPI DUP10 DUP5 SUB PUSH1 0x5F NOT ADD DUP7 MSTORE DUP2 MLOAD DUP1 MLOAD PUSH1 0x1 PUSH1 0x1 PUSH1 0xA0 SHL SUB AND DUP6 MSTORE DUP4 DUP2 ADD MLOAD PUSH1 0xA0 DUP6 DUP8 ADD DUP2 SWAP1 MSTORE SWAP1 PUSH2 0x5627 DUP3 DUP9 ADD DUP3 PUSH2 0x50A1 JUMP JUMPDEST SWAP2 POP POP DUP10 DUP3 ADD MLOAD DUP7 DUP3 SUB DUP12 DUP9 ADD MSTORE PUSH2 0x563F DUP3 DUP3 PUSH2 0x50A1 JUMP JUMPDEST SWAP2 POP POP DUP9 DUP3 ADD MLOAD DUP7 DUP3 SUB DUP11 DUP9 ADD MSTORE PUSH2 0x5657 DUP3 DUP3 PUSH2 0x50A1 JUMP JUMPDEST SWAP2 POP POP PUSH1 0x80 DUP1 DUP4 ADD MLOAD SWAP3 POP DUP7 DUP3 SUB DUP2 DUP9 ADD MSTORE POP PUSH2 0x5674 DUP2 DUP4 PUSH2 0x51B9 JUMP JUMPDEST SWAP8 DUP6 ADD SWAP8 SWAP6 POP POP POP SWAP1 DUP3 ADD SWAP1 PUSH1 0x1 ADD PUSH2 0x55EE JUMP JUMPDEST POP POP DUP8 DUP3 SUB SWAP1 DUP9 ADD MSTORE PUSH2 0x569B DUP2 DUP10 PUSH2 0x520E JUMP JUMPDEST SWAP10 SWAP9 POP POP POP POP POP POP POP POP POP JUMP JUMPDEST PUSH1 0x0 PUSH1 0x20 DUP3 DUP5 SUB SLT ISZERO PUSH2 0x56BA JUMPI PUSH1 0x0 DUP1 REVERT JUMPDEST DUP2 CALLDATALOAD PUSH1 0x7 DUP2 LT PUSH2 0x4FE8 JUMPI PUSH1 0x0 DUP1 REVERT JUMPDEST PUSH1 0x20 DUP2 MSTORE DUP2 MLOAD PUSH1 0x20 DUP3 ADD MSTORE PUSH1 0x20 DUP3 ADD MLOAD PUSH1 0x40 DUP3 ADD MSTORE PUSH1 0x0 PUSH1 0x40 DUP4 ADD MLOAD PUSH1 0x60 DUP1 DUP5 ADD MSTORE PUSH2 0x44A0 PUSH1 0x80 DUP5 ADD DUP3 PUSH2 0x50A1 JUMP JUMPDEST DUP15 DUP2 MSTORE PUSH1 0x1 PUSH1 0x1 PUSH1 0xA0 SHL SUB DUP15 AND PUSH1 0x20 DUP3 ADD MSTORE PUSH2 0x1C0 PUSH1 0x40 DUP3 ADD MSTORE PUSH1 0x0 PUSH2 0x5722 PUSH2 0x1C0 DUP4 ADD DUP16 PUSH2 0x50A1 JUMP JUMPDEST DUP3 DUP2 SUB PUSH1 0x60 DUP5 ADD MSTORE PUSH2 0x5734 DUP2 DUP16 PUSH2 0x50A1 JUMP JUMPDEST PUSH1 0x1 PUSH1 0x1 PUSH1 0xA0 SHL SUB DUP15 AND PUSH1 0x80 DUP6 ADD MSTORE SWAP1 POP PUSH1 0x1 PUSH1 0x1 PUSH1 0xA0 SHL SUB DUP13 AND PUSH1 0xA0 DUP5 ADD MSTORE DUP11 PUSH1 0xC0 DUP5 ADD MSTORE DUP10 PUSH1 0xE0 DUP5 ADD MSTORE DUP3 DUP2 SUB PUSH2 0x100 DUP5 ADD MSTORE PUSH2 0x5773 DUP2 DUP11 PUSH2 0x50A1 JUMP JUMPDEST SWAP2 POP POP PUSH2 0x5784 PUSH2 0x120 DUP4 ADD DUP9 PUSH2 0x539D JUMP JUMPDEST DUP6 PUSH2 0x140 DUP4 ADD MSTORE DUP5 PUSH2 0x160 DUP4 ADD MSTORE DUP4 PUSH2 0x180 DUP4 ADD MSTORE DUP3 PUSH2 0x1A0 DUP4 ADD MSTORE SWAP16 SWAP15 POP POP POP POP POP POP POP POP POP POP POP POP POP POP POP JUMP JUMPDEST PUSH1 0x0 DUP1 PUSH1 0x0 DUP1 PUSH1 0x0 DUP1 PUSH1 0x0 DUP1 PUSH1 0xA0 DUP10 DUP12 SUB SLT ISZERO PUSH2 0x57CF JUMPI PUSH1 0x0 DUP1 REVERT JUMPDEST PUSH2 0x57D8 DUP10 PUSH2 0x4E6C JUMP JUMPDEST SWAP8 POP PUSH1 0x20 DUP10 ADD CALLDATALOAD PUSH1 0x1 PUSH1 0x1 PUSH1 0x40 SHL SUB DUP1 DUP3 GT ISZERO PUSH2 0x57F4 JUMPI PUSH1 0x0 DUP1 REVERT JUMPDEST PUSH2 0x5800 DUP13 DUP4 DUP14 ADD PUSH2 0x526E JUMP JUMPDEST SWAP1 SWAP10 POP SWAP8 POP PUSH1 0x40 DUP12 ADD CALLDATALOAD SWAP2 POP DUP1 DUP3 GT ISZERO PUSH2 0x5819 JUMPI PUSH1 0x0 DUP1 REVERT JUMPDEST PUSH2 0x5825 DUP13 DUP4 DUP14 ADD PUSH2 0x526E JUMP JUMPDEST SWAP1 SWAP8 POP SWAP6 POP PUSH1 0x60 DUP12 ADD CALLDATALOAD SWAP5 POP PUSH1 0x80 DUP12 ADD CALLDATALOAD SWAP2 POP DUP1 DUP3 GT ISZERO PUSH2 0x5845 JUMPI PUSH1 0x0 DUP1 REVERT JUMPDEST POP PUSH2 0x5852 DUP12 DUP3 DUP13 ADD PUSH2 0x4EB2 JUMP JUMPDEST SWAP10 SWAP13 SWAP9 SWAP12 POP SWAP7 SWAP10 POP SWAP5 SWAP8 SWAP4 SWAP7 SWAP3 SWAP6 SWAP5 POP POP POP JUMP JUMPDEST DUP4 DUP2 MSTORE DUP3 PUSH1 0x20 DUP3 ADD MSTORE PUSH1 0x60 PUSH1 0x40 DUP3 ADD MSTORE PUSH1 0x0 PUSH2 0xF21 PUSH1 0x60 DUP4 ADD DUP5 PUSH2 0x50A1 JUMP JUMPDEST PUSH1 0x20 DUP2 MSTORE PUSH1 0x0 PUSH2 0x4FE8 PUSH1 0x20 DUP4 ADD DUP5 PUSH2 0x51B9 JUMP JUMPDEST PUSH4 0x4E487B71 PUSH1 0xE0 SHL PUSH1 0x0 MSTORE PUSH1 0x32 PUSH1 0x4 MSTORE PUSH1 0x24 PUSH1 0x0 REVERT JUMPDEST PUSH4 0x4E487B71 PUSH1 0xE0 SHL PUSH1 0x0 MSTORE PUSH1 0x41 PUSH1 0x4 MSTORE PUSH1 0x24 PUSH1 0x0 REVERT JUMPDEST PUSH1 0x1 DUP2 DUP2 SHR SWAP1 DUP3 AND DUP1 PUSH2 0x58D8 JUMPI PUSH1 0x7F DUP3 AND SWAP2 POP JUMPDEST PUSH1 0x20 DUP3 LT DUP2 SUB PUSH2 0x58F8 JUMPI PUSH4 0x4E487B71 PUSH1 0xE0 SHL PUSH1 0x0 MSTORE PUSH1 0x22 PUSH1 0x4 MSTORE PUSH1 0x24 PUSH1 0x0 REVERT JUMPDEST POP SWAP2 SWAP1 POP JUMP JUMPDEST PUSH1 0x1F DUP3 GT ISZERO PUSH2 0x1212 JUMPI PUSH1 0x0 DUP2 DUP2 MSTORE PUSH1 0x20 DUP2 KECCAK256 PUSH1 0x1F DUP6 ADD PUSH1 0x5 SHR DUP2 ADD PUSH1 0x20 DUP7 LT ISZERO PUSH2 0x5925 JUMPI POP DUP1 JUMPDEST PUSH1 0x1F DUP6 ADD PUSH1 0x5 SHR DUP3 ADD SWAP2 POP JUMPDEST DUP2 DUP2 LT ISZERO PUSH2 0x5944 JUMPI DUP3 DUP2 SSTORE PUSH1 0x1 ADD PUSH2 0x5931 JUMP JUMPDEST POP POP POP POP POP POP JUMP JUMPDEST DUP2 MLOAD PUSH1 0x1 PUSH1 0x1 PUSH1 0x40 SHL SUB DUP2 GT ISZERO PUSH2 0x5965 JUMPI PUSH2 0x5965 PUSH2 0x58AE JUMP JUMPDEST PUSH2 0x5979 DUP2 PUSH2 0x5973 DUP5 SLOAD PUSH2 0x58C4 JUMP JUMPDEST DUP5 PUSH2 0x58FE JUMP JUMPDEST PUSH1 0x20 DUP1 PUSH1 0x1F DUP4 GT PUSH1 0x1 DUP2 EQ PUSH2 0x59AE JUMPI PUSH1 0x0 DUP5 ISZERO PUSH2 0x5996 JUMPI POP DUP6 DUP4 ADD MLOAD JUMPDEST PUSH1 0x0 NOT PUSH1 0x3 DUP7 SWAP1 SHL SHR NOT AND PUSH1 0x1 DUP6 SWAP1 SHL OR DUP6 SSTORE PUSH2 0x5944 JUMP JUMPDEST PUSH1 0x0 DUP6 DUP2 MSTORE PUSH1 0x20 DUP2 KECCAK256 PUSH1 0x1F NOT DUP7 AND SWAP2 JUMPDEST DUP3 DUP2 LT ISZERO PUSH2 0x59DD JUMPI DUP9 DUP7 ADD MLOAD DUP3 SSTORE SWAP5 DUP5 ADD SWAP5 PUSH1 0x1 SWAP1 SWAP2 ADD SWAP1 DUP5 ADD PUSH2 0x59BE JUMP JUMPDEST POP DUP6 DUP3 LT ISZERO PUSH2 0x59FB JUMPI DUP8 DUP6 ADD MLOAD PUSH1 0x0 NOT PUSH1 0x3 DUP9 SWAP1 SHL PUSH1 0xF8 AND SHR NOT AND DUP2 SSTORE JUMPDEST POP POP POP POP POP PUSH1 0x1 SWAP1 DUP2 SHL ADD SWAP1 SSTORE POP JUMP JUMPDEST PUSH1 0x20 DUP1 DUP3 MSTORE PUSH1 0x22 SWAP1 DUP3 ADD MSTORE PUSH32 0x4F72646572207769746820676976656E20696420646F6573206E6F7420657869 PUSH1 0x40 DUP3 ADD MSTORE PUSH2 0x1CDD PUSH1 0xF2 SHL PUSH1 0x60 DUP3 ADD MSTORE PUSH1 0x80 ADD SWAP1 JUMP JUMPDEST PUSH1 0x1 PUSH1 0x1 PUSH1 0x40 SHL SUB DUP4 GT ISZERO PUSH2 0x5A64 JUMPI PUSH2 0x5A64 PUSH2 0x58AE JUMP JUMPDEST PUSH2 0x5A78 DUP4 PUSH2 0x5A72 DUP4 SLOAD PUSH2 0x58C4 JUMP JUMPDEST DUP4 PUSH2 0x58FE JUMP JUMPDEST PUSH1 0x0 PUSH1 0x1F DUP5 GT PUSH1 0x1 DUP2 EQ PUSH2 0x5AAC JUMPI PUSH1 0x0 DUP6 ISZERO PUSH2 0x5A94 JUMPI POP DUP4 DUP3 ADD CALLDATALOAD JUMPDEST PUSH1 0x0 NOT PUSH1 0x3 DUP8 SWAP1 SHL SHR NOT AND PUSH1 0x1 DUP7 SWAP1 SHL OR DUP4 SSTORE PUSH2 0x5B06 JUMP JUMPDEST PUSH1 0x0 DUP4 DUP2 MSTORE PUSH1 0x20 SWAP1 KECCAK256 PUSH1 0x1F NOT DUP7 AND SWAP1 DUP4 JUMPDEST DUP3 DUP2 LT ISZERO PUSH2 0x5ADD JUMPI DUP7 DUP6 ADD CALLDATALOAD DUP3 SSTORE PUSH1 0x20 SWAP5 DUP6 ADD SWAP5 PUSH1 0x1 SWAP1 SWAP3 ADD SWAP2 ADD PUSH2 0x5ABD JUMP JUMPDEST POP DUP7 DUP3 LT ISZERO PUSH2 0x5AFA JUMPI PUSH1 0x0 NOT PUSH1 0xF8 DUP9 PUSH1 0x3 SHL AND SHR NOT DUP5 DUP8 ADD CALLDATALOAD AND DUP2 SSTORE JUMPDEST POP POP PUSH1 0x1 DUP6 PUSH1 0x1 SHL ADD DUP4 SSTORE JUMPDEST POP POP POP POP POP JUMP JUMPDEST DUP1 MLOAD PUSH10 0xFFFFFFFFFFFFFFFFFFFF DUP2 AND DUP2 EQ PUSH2 0x4E83 JUMPI PUSH1 0x0 DUP1 REVERT JUMPDEST PUSH1 0x0 DUP1 PUSH1 0x0 DUP1 PUSH1 0x0 PUSH1 0xA0 DUP7 DUP9 SUB SLT ISZERO PUSH2 0x5B3F JUMPI PUSH1 0x0 DUP1 REVERT JUMPDEST PUSH2 0x5B48 DUP7 PUSH2 0x5B0D JUMP JUMPDEST SWAP5 POP PUSH1 0x20 DUP7 ADD MLOAD SWAP4 POP PUSH1 0x40 DUP7 ADD MLOAD SWAP3 POP PUSH1 0x60 DUP7 ADD MLOAD SWAP2 POP PUSH2 0x5B6B PUSH1 0x80 DUP8 ADD PUSH2 0x5B0D JUMP JUMPDEST SWAP1 POP SWAP3 SWAP6 POP SWAP3 SWAP6 SWAP1 SWAP4 POP JUMP JUMPDEST PUSH1 0x0 PUSH1 0x20 DUP3 DUP5 SUB SLT ISZERO PUSH2 0x5B89 JUMPI PUSH1 0x0 DUP1 REVERT JUMPDEST DUP2 MLOAD PUSH1 0xFF DUP2 AND DUP2 EQ PUSH2 0x4FE8 JUMPI PUSH1 0x0 DUP1 REVERT JUMPDEST PUSH4 0x4E487B71 PUSH1 0xE0 SHL PUSH1 0x0 MSTORE PUSH1 0x11 PUSH1 0x4 MSTORE PUSH1 0x24 PUSH1 0x0 REVERT JUMPDEST PUSH1 0xFF DUP2 DUP2 AND DUP4 DUP3 AND ADD SWAP1 DUP2 GT ISZERO PUSH2 0x24B9 JUMPI PUSH2 0x24B9 PUSH2 0x5B9A JUMP JUMPDEST PUSH1 0x1 DUP2 DUP2 JUMPDEST DUP1 DUP6 GT ISZERO PUSH2 0x5C04 JUMPI DUP2 PUSH1 0x0 NOT DIV DUP3 GT ISZERO PUSH2 0x5BEA JUMPI PUSH2 0x5BEA PUSH2 0x5B9A JUMP JUMPDEST DUP1 DUP6 AND ISZERO PUSH2 0x5BF7 JUMPI SWAP2 DUP2 MUL SWAP2 JUMPDEST SWAP4 DUP5 SHR SWAP4 SWAP1 DUP1 MUL SWAP1 PUSH2 0x5BCE JUMP JUMPDEST POP SWAP3 POP SWAP3 SWAP1 POP JUMP JUMPDEST PUSH1 0x0 DUP3 PUSH2 0x5C1B JUMPI POP PUSH1 0x1 PUSH2 0x24B9 JUMP JUMPDEST DUP2 PUSH2 0x5C28 JUMPI POP PUSH1 0x0 PUSH2 0x24B9 JUMP JUMPDEST DUP2 PUSH1 0x1 DUP2 EQ PUSH2 0x5C3E JUMPI PUSH1 0x2 DUP2 EQ PUSH2 0x5C48 JUMPI PUSH2 0x5C64 JUMP JUMPDEST PUSH1 0x1 SWAP2 POP POP PUSH2 0x24B9 JUMP JUMPDEST PUSH1 0xFF DUP5 GT ISZERO PUSH2 0x5C59 JUMPI PUSH2 0x5C59 PUSH2 0x5B9A JUMP JUMPDEST POP POP PUSH1 0x1 DUP3 SHL PUSH2 0x24B9 JUMP JUMPDEST POP PUSH1 0x20 DUP4 LT PUSH2 0x133 DUP4 LT AND PUSH1 0x4E DUP5 LT PUSH1 0xB DUP5 LT AND OR ISZERO PUSH2 0x5C87 JUMPI POP DUP2 DUP2 EXP PUSH2 0x24B9 JUMP JUMPDEST PUSH2 0x5C91 DUP4 DUP4 PUSH2 0x5BC9 JUMP JUMPDEST DUP1 PUSH1 0x0 NOT DIV DUP3 GT ISZERO PUSH2 0x5CA5 JUMPI PUSH2 0x5CA5 PUSH2 0x5B9A JUMP JUMPDEST MUL SWAP4 SWAP3 POP POP POP JUMP JUMPDEST PUSH1 0x0 PUSH2 0x4FE8 PUSH1 0xFF DUP5 AND DUP4 PUSH2 0x5C0C JUMP JUMPDEST DUP1 DUP3 MUL DUP2 ISZERO DUP3 DUP3 DIV DUP5 EQ OR PUSH2 0x24B9 JUMPI PUSH2 0x24B9 PUSH2 0x5B9A JUMP JUMPDEST PUSH1 0x0 DUP3 PUSH2 0x5CF0 JUMPI PUSH4 0x4E487B71 PUSH1 0xE0 SHL PUSH1 0x0 MSTORE PUSH1 0x12 PUSH1 0x4 MSTORE PUSH1 0x24 PUSH1 0x0 REVERT JUMPDEST POP DIV SWAP1 JUMP JUMPDEST PUSH1 0x0 PUSH1 0x1 DUP3 ADD PUSH2 0x5D07 JUMPI PUSH2 0x5D07 PUSH2 0x5B9A JUMP JUMPDEST POP PUSH1 0x1 ADD SWAP1 JUMP JUMPDEST DUP1 DUP3 ADD DUP1 DUP3 GT ISZERO PUSH2 0x24B9 JUMPI PUSH2 0x24B9 PUSH2 0x5B9A JUMP JUMPDEST PUSH1 0x20 DUP1 DUP3 MSTORE PUSH1 0x17 SWAP1 DUP3 ADD MSTORE PUSH32 0x4661696C656420746F20726566756E6420636C69656E74000000000000000000 PUSH1 0x40 DUP3 ADD MSTORE PUSH1 0x60 ADD SWAP1 JUMP JUMPDEST DUP2 DUP2 SUB DUP2 DUP2 GT ISZERO PUSH2 0x24B9 JUMPI PUSH2 0x24B9 PUSH2 0x5B9A JUMP JUMPDEST PUSH4 0x4E487B71 PUSH1 0xE0 SHL PUSH1 0x0 MSTORE PUSH1 0x31 PUSH1 0x4 MSTORE PUSH1 0x24 PUSH1 0x0 REVERT INVALID LOG2 PUSH5 0x6970667358 0x22 SLT KECCAK256 0xB6 DUP12 PUSH3 0xAB155B 0x4D 0xE2 SELFDESTRUCT 0xD3 DUP15 0xC3 DUP8 0xEE PC PUSH17 0x235181F5D6973D747D008B0F1CDBA27F64 PUSH20 0x6F6C634300081100330000000000000000000000 ","sha1":"ebd7601ebb87fa8d83f43207f89b798ceb9c4967","source":"// SPDX-License-Identifier: MIT\n\npragma solidity ^0.8.13;\n\nimport \"@chainlink/contracts/src/v0.8/interfaces/AggregatorV3Interface.sol\";\n\ncontract FoodDelivery {\n    struct Item{\n        uint256 id;\n        string name;\n        string description;\n        uint256 price;          // price in USD\n        bool available;\n    }\n\n    struct Restaurant{\n        address addr;\n        string name;\n        string description;\n        string physicalAddress;\n        Item[] items;\n    }\n\n    struct Client {\n        address addr;\n        string name;\n    }\n\n    enum OrderStatus {\n        PENDING,                // order submitted by client, but before the restaurant accepts the order\n        WAITING_COURIER,        // order ready for courier (after being accepted by restaurant)\n        ASSIGNED_COURIER,       // order accepted by a courier\n        READY_TO_DELIVER,       // order finished by restaurant, ready to deliver\n        DELIVERING,             // order being delivered by the courier\n        DELIVERED,              // order delivered, confirmed by client\n        CANCELLED               // order was cancelled\n    }\n\n    struct Order {\n        uint256 id;\n        address restaurantAddr;\n        string restaurantName;\n        string restaurantPhysicalAddress;\n        address clientAddr;\n        address courierAddr;\n        uint256[] itemIndices;\n        uint256[] quantities;\n        uint256 deliveryFee;        // delivery fee is in GWei\n        uint256 totalPrice;         // total price is in GWei\n        string deliveryAddress;\n        OrderStatus status;\n        uint256 maxPreparationTime;     // in seconds\n        uint256 maxDeliveryTime;        // in seconds\n        uint256 preparationStartTime;   // timestamp\n        uint256 deliveryStartTime;      // timestamp\n    }\n\n    struct Review {\n        uint256 orderId;\n        uint256 rating;\n        string comment;\n    }\n\n    mapping(address => Restaurant) public restaurants;\n    mapping(address => Client) public clients;\n    mapping(address => uint256[]) public clientsToOrdersMapping;\n    mapping(uint256 => Review) public reviews;\n    mapping(address => uint256[]) public restaurantToOrdersIds;\n    mapping(address => uint256[]) public couriersToOrdersMapping;\n    uint256[] public ordersWaitingForCourier;\n    Order[] public orders;\n    address[] public restaurantsAddr;\n    address[] public clientsAddr;\n    uint256 numberOfOrders = 0;\n    AggregatorV3Interface public ethUsdPriceFeed;\n\n    constructor (address priceFeedAddress) {\n        ethUsdPriceFeed = AggregatorV3Interface(priceFeedAddress);\n    }\n\n    function getAllRestaurants() public view returns (Restaurant[] memory, uint256[] memory) {\n        Restaurant[] memory allRestaurants = new Restaurant[](restaurantsAddr.length);\n        uint256[] memory reviewsForRestaurants = new uint256[](restaurantsAddr.length);\n\n        for (uint256 i = 0; i < restaurantsAddr.length; i++) {\n            address restaurantAddress = restaurantsAddr[i];\n            Restaurant storage restaurant = restaurants[restaurantAddress];\n            allRestaurants[i] = restaurant;\n\n            reviewsForRestaurants[i] = getAverageRatingForRestaurant(restaurantAddress);\n        }\n\n        return (allRestaurants, reviewsForRestaurants);\n    }\n\n    function getAllOrdersForClient(address clientAddr) public view returns (Order[] memory) {\n        uint256[] memory clientOrderIds = clientsToOrdersMapping[clientAddr];\n        Order[] memory clientOrders = new Order[](clientOrderIds.length);\n\n        for (uint256 i = 0; i < clientOrderIds.length; i++) {\n            uint256 orderId = clientOrderIds[i];\n            clientOrders[i] = orders[orderId];\n        }\n\n        return clientOrders;\n    }\n\n    function getAllOrdersForRestaurant(address restaurantAddr) public view returns (Order[] memory) {\n        uint256[] memory restaurantOrderIds = restaurantToOrdersIds[restaurantAddr];\n        Order[] memory restaurantOrders = new Order[](restaurantOrderIds.length);\n\n        for (uint256 i = 0; i < restaurantOrderIds.length; i++) {\n            uint256 orderId = restaurantOrderIds[i];\n            restaurantOrders[i] = orders[orderId];\n        }\n\n        return restaurantOrders;\n    }\n\n    function getOrdersForCouriers(address courierAddr) public view returns (Order[] memory) {\n        uint256[] memory courierOrderIds = couriersToOrdersMapping[courierAddr];\n        Order[] memory courierOrders = new Order[](courierOrderIds.length);\n\n        for (uint256 i = 0; i < courierOrderIds.length; i++) {\n            uint256 orderId = courierOrderIds[i];\n            courierOrders[i] = orders[orderId];\n        }\n\n        return courierOrders;\n    }\n\n    function getItemsForRestaurant(address restaurantAddr) public view returns (Item[] memory) {\n        Item[] memory items = new Item[](restaurants[restaurantAddr].items.length);\n\n        for (uint256 i = 0; i < items.length; ++i) {\n            items[i] = restaurants[restaurantAddr].items[i];\n        }\n\n        return items;\n    }\n\n    function getNumberOfItemsInMenu(address restaurant) public view returns(uint) {\n        return restaurants[restaurant].items.length;\n    }\n\n    function getMenuEntryAtIndex(address restaurant, uint index) public view returns(Item memory) {\n        return restaurants[restaurant].items[index];\n    }\n\n    function getNumberOfRestaurants() public view returns(uint) {\n        return restaurantsAddr.length;\n    }\n\n    function getNumberOfClients() public view returns(uint) {\n        return clientsAddr.length;\n    }\n\n    function getNumberOfOrderForClient(address client) public view returns(uint) {\n        return clientsToOrdersMapping[client].length;\n    }\n\n    function getNumberOfOrderForRestaurant(address restaurant) public view returns(uint) {\n        return restaurantToOrdersIds[restaurant].length;\n    }\n\n    function getNumberOfOrdersForCourier(address courier) public view returns(uint) {\n        return couriersToOrdersMapping[courier].length;\n    }\n\n    function getOrdersByStatus(OrderStatus status) public view returns (Order[] memory) {\n        uint256 numberOfOrdersWithStatus = 0;\n        for (uint256 i = 0; i < orders.length; i++) {\n            if (orders[i].status == status) {\n                numberOfOrdersWithStatus++;\n            }\n        }\n        Order[] memory ordersWithStatus = new Order[](numberOfOrdersWithStatus);\n        uint256 currentIndex = 0;\n        for (uint256 i = 0; i < orders.length; i++) {\n            if (orders[i].status == status) {\n                ordersWithStatus[currentIndex] = orders[i];\n                currentIndex++;\n            }\n        }\n        return ordersWithStatus;\n    }\n\n    function getNumberOfOrdersWaitingForCourier() public view returns (uint256) {\n        return ordersWaitingForCourier.length;\n    }\n\n    // Gets the price in GWei\n    function getPriceInEth(uint256 usdPrice) public view returns (uint256) {\n        (,int256 price,,, ) = ethUsdPriceFeed.latestRoundData();\n        uint8 decimals = ethUsdPriceFeed.decimals();\n        uint256 cost = (usdPrice * 10 ** (decimals + 18)) / (uint256(price));\n        return cost;\n    }\n\n    function getOrderItemsAndQuantities(uint256 orderId) public view returns (Item[] memory, uint256[] memory) {\n        Order storage order = orders[orderId];\n        require(order.id == orderId, \"Order with given id does not exist\");\n\n        // Get the restaurant for this order\n        Restaurant storage restaurant = restaurants[order.restaurantAddr];\n\n        // Initialize an array to store the ordered items\n        Item[] memory orderedItems = new Item[](order.itemIndices.length);\n\n        // Loop through the itemIndices array in the order and populate the orderedItems array\n        for (uint256 i = 0; i < order.itemIndices.length; i++) {\n            uint256 itemIndex = order.itemIndices[i];\n            orderedItems[i] = restaurant.items[itemIndex];\n        }\n\n        // Return both ordered items and their corresponding quantities\n        return (orderedItems, order.quantities);\n    }\n\n    function registerRestaurant(string calldata name, string calldata description, string calldata physicalAddress) public {\n        Restaurant storage restaurant = restaurants[msg.sender];\n        restaurant.addr = msg.sender;\n        restaurant.name = name;\n        restaurant.description = description;\n        restaurant.physicalAddress = physicalAddress;\n        restaurantsAddr.push(msg.sender);\n    }\n\n    function registerClient(string calldata name) public {\n        Client storage client = clients[msg.sender];\n        client.addr = msg.sender;\n        client.name = name;\n        clientsAddr.push(msg.sender);\n    }\n\n    function addItem(string calldata name, string calldata description, uint256 price) public returns(uint256) {\n        Restaurant storage restaurant = restaurants[msg.sender];\n        uint256 id = restaurant.items.length;\n        restaurant.items.push(Item({\n            id: id,\n            name: name,\n            description: description,\n            price: price,\n            available: true\n        }));\n\n        return id;\n    }\n\n    function updateItem(uint256 id, string calldata name, string calldata description, uint256 price) public returns(uint256) {\n        Restaurant storage restaurant = restaurants[msg.sender];\n        restaurant.items[id] = Item({\n            id: id,\n            name: name,\n            description: description,\n            price: price,\n            available: true\n        });\n\n        return id;\n    }\n\n    function enableItem(uint256 itemId) public {\n        Restaurant storage restaurant = restaurants[msg.sender];\n        restaurant.items[itemId].available = true;\n    }\n\n    function disableItem(uint256 itemId) public {\n        Restaurant storage restaurant = restaurants[msg.sender];\n        restaurant.items[itemId].available = false;\n    }\n\n    function getWeiPriceForOrder(address restaurantAddr, uint256[] calldata itemIds, uint256[] calldata quantities, uint256 deliveryFee) public view returns(uint256, uint256) {\n        Restaurant storage restaurant = restaurants[restaurantAddr];\n\n        uint256 totalPrice = 0;\n        for (uint256 i = 0; i < itemIds.length; i++) {\n            require(itemIds[i] < restaurant.items.length, \"Invalid item ID\");\n            Item storage item = restaurant.items[itemIds[i]];\n            totalPrice += getPriceInEth(item.price) * quantities[i];\n        }\n\n        uint256 ethDeliveryFee = getPriceInEth(deliveryFee);\n        return (totalPrice, ethDeliveryFee);\n    }\n\n    function placeOrder(address restaurantAddr, uint256[] calldata itemIds, uint256[] calldata quantities, uint256 deliveryFee, string calldata deliveryAddress) public payable {\n        Restaurant storage restaurant = restaurants[restaurantAddr];\n        require(restaurant.addr != address(0), \"Invalid restaurant address\");\n\n        for (uint i = 0; i < itemIds.length; ++i) {\n            require(restaurant.items[itemIds[i]].available == true, \"Order contains unavailable items...\");\n        }\n\n        (uint256 totalPrice, uint256 ethDeliveryFee) = getWeiPriceForOrder(restaurantAddr, itemIds, quantities, deliveryFee);\n        require(msg.value >= totalPrice + ethDeliveryFee, \"Incorrect amount paid\");\n\n        Order memory order = Order({\n            id: orders.length,\n            restaurantAddr: restaurantAddr,\n            restaurantName: restaurant.name,\n            restaurantPhysicalAddress: restaurant.physicalAddress,\n            clientAddr: msg.sender,\n            courierAddr: address(0),\n            itemIndices: itemIds,\n            quantities: quantities,\n            deliveryFee: ethDeliveryFee,\n            totalPrice: totalPrice,\n            deliveryAddress: deliveryAddress,\n            status: OrderStatus.PENDING,\n            maxPreparationTime: 0,\n            maxDeliveryTime: 0,\n            preparationStartTime: 0,\n            deliveryStartTime: 0\n        });\n\n        orders.push(order);\n        clientsToOrdersMapping[msg.sender].push(order.id);\n        restaurantToOrdersIds[restaurantAddr].push(order.id);\n    }\n\n    function acceptOrder(uint256 orderId, uint256 maxPreparationTime) public {\n        Order storage order = orders[orderId];\n        require(order.id == orderId, \"Order with given id does not exist\");\n        require(order.restaurantAddr == msg.sender, \"Only the restaurant for which the order was made can accept it\");\n        require(order.status == OrderStatus.PENDING, \"Can only accept orders for which the status is PENDING\");\n\n        order.maxPreparationTime = maxPreparationTime;\n        order.preparationStartTime = block.timestamp;\n        order.status = OrderStatus.WAITING_COURIER;\n        ordersWaitingForCourier.push(orderId);\n    }\n\n    function declineOrder(uint256 orderId) public {\n        Order storage order = orders[orderId];\n        require(order.id == orderId, \"Order with given id does not exist\");\n        require(order.restaurantAddr == msg.sender, \"Only the restaurant can decline the order\");\n        require(order.status == OrderStatus.PENDING, \"Order must be pending\");\n\n        // refund the client\n        address payable clientAddr = payable(order.clientAddr);\n        require(clientAddr.send(order.totalPrice + order.deliveryFee), \"Failed to refund client\");\n\n        order.status = OrderStatus.CANCELLED;\n    }\n\n    function increaseDeliveryFee(uint256 orderId) public payable {\n        Order storage order = orders[orderId];\n        require(order.id == orderId, \"Order with given id does not exist\");\n        require(order.status == OrderStatus.WAITING_COURIER);\n        require(order.clientAddr == msg.sender, \"Order delivery fee must be increased by the client\");\n\n        order.deliveryFee = order.deliveryFee + msg.value;\n    }\n\n    function takeOrder(uint256 orderId, uint256 maxDeliveryTime) public {\n        Order storage order = orders[orderId];\n        require(order.id == orderId, \"Order with given id does not exist\");\n        require(order.status == OrderStatus.WAITING_COURIER, \"Order must be in the processing state\");\n        order.courierAddr = msg.sender;\n        order.maxDeliveryTime = maxDeliveryTime;\n        order.deliveryStartTime = block.timestamp;\n        order.status = OrderStatus.ASSIGNED_COURIER;\n        couriersToOrdersMapping[msg.sender].push(order.id);\n        removeOrderFromWaitingList(orderId);\n    }\n\n    function orderReadyToDeliver(uint256 orderId) public {\n        Order storage order = orders[orderId];\n        require(order.id == orderId, \"Order with given id does not exist\");\n        require(order.status == OrderStatus.ASSIGNED_COURIER);\n        require(order.restaurantAddr == msg.sender, \"Order must be marked ready to deliver by the restaurant of the order\");\n\n        order.status = OrderStatus.READY_TO_DELIVER;\n    }\n\n    function orderDelivering(uint256 orderId) public {\n        Order storage order = orders[orderId];\n        require(order.id == orderId, \"Order with given id does not exist\");\n        require(order.status == OrderStatus.READY_TO_DELIVER);\n        require(order.courierAddr == msg.sender, \"Order must be delivered by courier that accepted it\");\n\n        order.status = OrderStatus.DELIVERING;\n    }\n\n    function orderDelivered(uint256 orderId) public {\n        Order storage order = orders[orderId];\n        require(order.id == orderId, \"Order with given id does not exist\");\n        require(order.status == OrderStatus.DELIVERING);\n        require(order.clientAddr == msg.sender, \"Order delivery must be confirmed by client\");\n\n        uint256 preparationTime = order.deliveryStartTime - order.preparationStartTime;\n        uint256 deliveryTime = block.timestamp - order.deliveryStartTime;\n        uint256 totalPayment = order.totalPrice + order.deliveryFee;\n        uint256 refundAmount = 0;\n\n        uint256 restaurantRefund = 0;\n        uint256 courierRefund = 0;\n\n        uint256 fixedLateFeePercentage = 10; // Fixed late fee percentage (e.g., 10%)\n\n        // Calculate the refund amounts based on delays\n        if (preparationTime > order.maxPreparationTime) {\n            restaurantRefund = (fixedLateFeePercentage * order.totalPrice) / 100;\n        }\n\n        if (deliveryTime > order.maxDeliveryTime) {\n            courierRefund = (fixedLateFeePercentage * order.deliveryFee) / 100;\n        }\n\n        // Proportional payments to restaurant and courier\n        address payable restaurantAddr = payable(order.restaurantAddr);\n        address payable courierAddr = payable(order.courierAddr);\n        address payable clientAddr = payable(order.clientAddr);\n        uint256 restaurantPayment = order.totalPrice - restaurantRefund;\n        uint256 courierPayment = order.deliveryFee - courierRefund;\n        \n        require(restaurantAddr.send(restaurantPayment), \"Failed to send payment to restaurant\");\n        require(courierAddr.send(courierPayment), \"Failed to send payment to courier\");\n        require(clientAddr.send(restaurantRefund + courierRefund), \"Failed to send payment to client\");\n\n        order.status = OrderStatus.DELIVERED;\n    }\n\n    function cancelOrder(uint256 orderId) public {\n        Order storage order = orders[orderId];\n        require(order.id == orderId, \"Order with given id does not exist\");\n        require(order.clientAddr == msg.sender, \"Order must be cancelled by client\");\n        require(order.status != OrderStatus.DELIVERED && order.status != OrderStatus.CANCELLED, \"Order cannot be in DELIVERED or CANCELLED status already\");\n        \n        // refund the client\n        address payable clientAddr = payable(order.clientAddr);\n        address payable restaurantAddr = payable(order.restaurantAddr);\n        if (order.status == OrderStatus.PENDING || order.status == OrderStatus.WAITING_COURIER\n            || order.status == OrderStatus.ASSIGNED_COURIER) {      // full refund\n            require(clientAddr.send(order.totalPrice + order.deliveryFee), \"Failed to refund client\");\n        } else if (order.status == OrderStatus.READY_TO_DELIVER) {  // partial refund, as the restaurant did finish the order\n            require(restaurantAddr.send(order.totalPrice), \"Failed to refund restaurant\");\n            require(clientAddr.send(order.deliveryFee), \"Failed to refund client\");\n        } else {        // no refund for client, order was just being delivered\n            address payable courierAddr = payable(order.clientAddr);\n            require(restaurantAddr.send(order.totalPrice), \"Failed to refund restaurant\");\n            require(courierAddr.send(order.deliveryFee), \"Failed to refund courier\");\n        }\n\n        order.status = OrderStatus.CANCELLED;\n    }\n\n    function placeReview(uint256 orderId, uint256 rating, string calldata comment) public {\n        Order storage order = orders[orderId];\n        require(order.id == orderId, \"Order with given id does not exist\");\n        require(order.clientAddr == msg.sender, \"Only the client who placed the order can leave a review\");\n        require(order.status == OrderStatus.DELIVERED, \"Only delivered orders can be reviewed\");\n\n        reviews[orderId] = Review({\n            orderId: orderId,\n            rating: rating,\n            comment: comment\n        });\n    }\n\n    function getReview(uint256 orderId) public view returns (Review memory) {\n        return reviews[orderId];\n    }\n\n    function getAverageRatingForRestaurant(address restaurantAddr) public view returns (uint256) {\n        uint256 totalRating = 0;\n        uint256 numberOfRatings = 0;\n\n        for (uint256 i = 0; i < restaurantToOrdersIds[restaurantAddr].length; i++) {\n            uint256 orderId = restaurantToOrdersIds[restaurantAddr][i];\n            if (reviews[orderId].orderId == orderId) {\n                totalRating += reviews[orderId].rating;\n                numberOfRatings++;\n            }\n        }\n\n        if (numberOfRatings == 0) {\n            return 0;\n        } else {\n            return totalRating / numberOfRatings;\n        }\n    }\n\n    function removeOrderFromWaitingList(uint256 orderId) internal {\n        for (uint256 i = 0; i < ordersWaitingForCourier.length; i++) {\n            if (ordersWaitingForCourier[i] == orderId) {\n                // Swap the order to remove with the last order in the array, then remove the last order\n                ordersWaitingForCourier[i] = ordersWaitingForCourier[ordersWaitingForCourier.length - 1];\n                ordersWaitingForCourier.pop();\n                break;\n            }\n        }\n    }\n}\n","sourcePath":"contracts/food_delivery.sol","type":"contract","deployment":{"address":"0xCa684b44B7464cf96baE6e2eB9b56945EcDB713E","chainid":"5","blockHeight":9150629}}