{
  "abi": [
    {
      "inputs": [
        {
          "internalType": "address",
          "name": "priceFeedAddress",
          "type": "address"
        }
      ],
      "stateMutability": "nonpayable",
      "type": "constructor"
    },
    {
      "inputs": [
        {
          "internalType": "uint256",
          "name": "orderId",
          "type": "uint256"
        }
      ],
      "name": "acceptOrder",
      "outputs": [],
      "stateMutability": "nonpayable",
      "type": "function"
    },
    {
      "inputs": [
        {
          "internalType": "uint256",
          "name": "id",
          "type": "uint256"
        },
        {
          "internalType": "string",
          "name": "name",
          "type": "string"
        },
        {
          "internalType": "string",
          "name": "description",
          "type": "string"
        },
        {
          "internalType": "uint256",
          "name": "price",
          "type": "uint256"
        }
      ],
      "name": "addItem",
      "outputs": [],
      "stateMutability": "nonpayable",
      "type": "function"
    },
    {
      "inputs": [
        {
          "internalType": "uint256",
          "name": "orderId",
          "type": "uint256"
        }
      ],
      "name": "cancelOrder",
      "outputs": [],
      "stateMutability": "nonpayable",
      "type": "function"
    },
    {
      "inputs": [
        {
          "internalType": "address",
          "name": "",
          "type": "address"
        }
      ],
      "name": "clients",
      "outputs": [
        {
          "internalType": "address",
          "name": "addr",
          "type": "address"
        },
        {
          "internalType": "string",
          "name": "name",
          "type": "string"
        }
      ],
      "stateMutability": "view",
      "type": "function"
    },
    {
      "inputs": [
        {
          "internalType": "uint256",
          "name": "",
          "type": "uint256"
        }
      ],
      "name": "clientsAddr",
      "outputs": [
        {
          "internalType": "address",
          "name": "",
          "type": "address"
        }
      ],
      "stateMutability": "view",
      "type": "function"
    },
    {
      "inputs": [
        {
          "internalType": "uint256",
          "name": "orderId",
          "type": "uint256"
        }
      ],
      "name": "declineOrder",
      "outputs": [],
      "stateMutability": "nonpayable",
      "type": "function"
    },
    {
      "inputs": [],
      "name": "ethUsdPriceFeed",
      "outputs": [
        {
          "internalType": "contract AggregatorV3Interface",
          "name": "",
          "type": "address"
        }
      ],
      "stateMutability": "view",
      "type": "function"
    },
    {
      "inputs": [
        {
          "internalType": "address",
          "name": "restaurant",
          "type": "address"
        },
        {
          "internalType": "uint256",
          "name": "index",
          "type": "uint256"
        }
      ],
      "name": "getMenuEntryAtIndex",
      "outputs": [
        {
          "components": [
            {
              "internalType": "uint256",
              "name": "id",
              "type": "uint256"
            },
            {
              "internalType": "string",
              "name": "name",
              "type": "string"
            },
            {
              "internalType": "string",
              "name": "description",
              "type": "string"
            },
            {
              "internalType": "uint256",
              "name": "price",
              "type": "uint256"
            }
          ],
          "internalType": "struct FoodDelivery.Item",
          "name": "",
          "type": "tuple"
        }
      ],
      "stateMutability": "view",
      "type": "function"
    },
    {
      "inputs": [],
      "name": "getNumberOfClients",
      "outputs": [
        {
          "internalType": "uint256",
          "name": "",
          "type": "uint256"
        }
      ],
      "stateMutability": "view",
      "type": "function"
    },
    {
      "inputs": [
        {
          "internalType": "address",
          "name": "restaurant",
          "type": "address"
        }
      ],
      "name": "getNumberOfItemsInMenu",
      "outputs": [
        {
          "internalType": "uint256",
          "name": "",
          "type": "uint256"
        }
      ],
      "stateMutability": "view",
      "type": "function"
    },
    {
      "inputs": [],
      "name": "getNumberOfRestaurants",
      "outputs": [
        {
          "internalType": "uint256",
          "name": "",
          "type": "uint256"
        }
      ],
      "stateMutability": "view",
      "type": "function"
    },
    {
      "inputs": [
        {
          "internalType": "uint256",
          "name": "usdPrice",
          "type": "uint256"
        }
      ],
      "name": "getPriceInEth",
      "outputs": [
        {
          "internalType": "uint256",
          "name": "",
          "type": "uint256"
        }
      ],
      "stateMutability": "view",
      "type": "function"
    },
    {
      "inputs": [
        {
          "internalType": "address",
          "name": "restaurantAddr",
          "type": "address"
        },
        {
          "internalType": "uint256[]",
          "name": "itemIds",
          "type": "uint256[]"
        },
        {
          "internalType": "uint256[]",
          "name": "quantities",
          "type": "uint256[]"
        },
        {
          "internalType": "uint256",
          "name": "deliveryFee",
          "type": "uint256"
        }
      ],
      "name": "getWeiPriceForOrder",
      "outputs": [
        {
          "internalType": "uint256",
          "name": "",
          "type": "uint256"
        },
        {
          "internalType": "uint256",
          "name": "",
          "type": "uint256"
        }
      ],
      "stateMutability": "view",
      "type": "function"
    },
    {
      "inputs": [
        {
          "internalType": "uint256",
          "name": "orderId",
          "type": "uint256"
        }
      ],
      "name": "increaseDeliveryFee",
      "outputs": [],
      "stateMutability": "payable",
      "type": "function"
    },
    {
      "inputs": [
        {
          "internalType": "uint256",
          "name": "orderId",
          "type": "uint256"
        }
      ],
      "name": "orderDelivered",
      "outputs": [],
      "stateMutability": "nonpayable",
      "type": "function"
    },
    {
      "inputs": [
        {
          "internalType": "uint256",
          "name": "orderId",
          "type": "uint256"
        }
      ],
      "name": "orderDelivering",
      "outputs": [],
      "stateMutability": "nonpayable",
      "type": "function"
    },
    {
      "inputs": [
        {
          "internalType": "uint256",
          "name": "orderId",
          "type": "uint256"
        }
      ],
      "name": "orderReadyToDeliver",
      "outputs": [],
      "stateMutability": "nonpayable",
      "type": "function"
    },
    {
      "inputs": [
        {
          "internalType": "uint256",
          "name": "",
          "type": "uint256"
        }
      ],
      "name": "orders",
      "outputs": [
        {
          "internalType": "uint256",
          "name": "id",
          "type": "uint256"
        },
        {
          "internalType": "address",
          "name": "restaurantAddr",
          "type": "address"
        },
        {
          "internalType": "address",
          "name": "clientAddr",
          "type": "address"
        },
        {
          "internalType": "address",
          "name": "courierAddr",
          "type": "address"
        },
        {
          "internalType": "uint256",
          "name": "deliveryFee",
          "type": "uint256"
        },
        {
          "internalType": "uint256",
          "name": "totalPrice",
          "type": "uint256"
        },
        {
          "internalType": "string",
          "name": "deliveryAddress",
          "type": "string"
        },
        {
          "internalType": "enum FoodDelivery.OrderStatus",
          "name": "status",
          "type": "uint8"
        }
      ],
      "stateMutability": "view",
      "type": "function"
    },
    {
      "inputs": [
        {
          "internalType": "address",
          "name": "restaurantAddr",
          "type": "address"
        },
        {
          "internalType": "uint256[]",
          "name": "itemIds",
          "type": "uint256[]"
        },
        {
          "internalType": "uint256[]",
          "name": "quantities",
          "type": "uint256[]"
        },
        {
          "internalType": "uint256",
          "name": "deliveryFee",
          "type": "uint256"
        },
        {
          "internalType": "string",
          "name": "deliveryAddress",
          "type": "string"
        }
      ],
      "name": "placeOrder",
      "outputs": [],
      "stateMutability": "payable",
      "type": "function"
    },
    {
      "inputs": [
        {
          "internalType": "string",
          "name": "name",
          "type": "string"
        }
      ],
      "name": "registerClient",
      "outputs": [],
      "stateMutability": "nonpayable",
      "type": "function"
    },
    {
      "inputs": [
        {
          "internalType": "string",
          "name": "name",
          "type": "string"
        },
        {
          "internalType": "string",
          "name": "description",
          "type": "string"
        }
      ],
      "name": "registerRestaurant",
      "outputs": [],
      "stateMutability": "nonpayable",
      "type": "function"
    },
    {
      "inputs": [
        {
          "internalType": "address",
          "name": "",
          "type": "address"
        }
      ],
      "name": "restaurants",
      "outputs": [
        {
          "internalType": "address",
          "name": "addr",
          "type": "address"
        },
        {
          "internalType": "string",
          "name": "name",
          "type": "string"
        },
        {
          "internalType": "string",
          "name": "description",
          "type": "string"
        }
      ],
      "stateMutability": "view",
      "type": "function"
    },
    {
      "inputs": [
        {
          "internalType": "uint256",
          "name": "",
          "type": "uint256"
        }
      ],
      "name": "restaurantsAddr",
      "outputs": [
        {
          "internalType": "address",
          "name": "",
          "type": "address"
        }
      ],
      "stateMutability": "view",
      "type": "function"
    },
    {
      "inputs": [
        {
          "internalType": "uint256",
          "name": "orderId",
          "type": "uint256"
        }
      ],
      "name": "takeOrder",
      "outputs": [],
      "stateMutability": "nonpayable",
      "type": "function"
    }
  ],
  "bytecode": "608060405260006005553480156200001657600080fd5b50604051620025a3380380620025a383398101604081905262000039916200005f565b600680546001600160a01b0319166001600160a01b039290921691909117905562000091565b6000602082840312156200007257600080fd5b81516001600160a01b03811681146200008a57600080fd5b9392505050565b61250280620000a16000396000f3fe60806040526004361061014b5760003560e01c806385b6ec06116100b6578063be47dca11161006f578063be47dca1146103eb578063c59c521a14610400578063ccbdb85c14610439578063e742a18214610459578063ef18e9ed14610479578063fedf1a871461049957600080fd5b806385b6ec0614610331578063880d4ee8146103515780639b51bd2114610371578063a85c38ef14610384578063abfd0687146103b8578063bdace182146103cb57600080fd5b80634c6448fe116101085780634c6448fe14610261578063514fcac71461028157806361eed2a9146102a157806368ad5b83146102cf5780636d4166e9146102fc57806382b14cf31461031157600080fd5b80631ae78a8514610150578063226affb814610172578063236cd7dc146101a55780633a2d20d1146101d45780633b5d1a241461020957806342f6fb2914610229575b600080fd5b34801561015c57600080fd5b5061017061016b366004611b1f565b6104b9565b005b34801561017e57600080fd5b5061019261018d366004611b1f565b6105a8565b6040519081526020015b60405180910390f35b3480156101b157600080fd5b506101c56101c0366004611b54565b6106db565b60405161019c93929190611bbc565b3480156101e057600080fd5b506101f46101ef366004611c48565b610818565b6040805192835260208301919091520161019c565b34801561021557600080fd5b50610170610224366004611b1f565b610947565b34801561023557600080fd5b50600654610249906001600160a01b031681565b6040516001600160a01b03909116815260200161019c565b34801561026d57600080fd5b5061017061027c366004611d13565b610a15565b34801561028d57600080fd5b5061017061029c366004611b1f565b610a8c565b3480156102ad57600080fd5b506102c16102bc366004611b54565b610d6f565b60405161019c929190611d55565b3480156102db57600080fd5b506102ef6102ea366004611d81565b610e1e565b60405161019c9190611dab565b34801561030857600080fd5b50600354610192565b34801561031d57600080fd5b5061017061032c366004611e05565b610fd0565b34801561033d57600080fd5b5061024961034c366004611b1f565b6110c8565b34801561035d57600080fd5b5061017061036c366004611e6f565b6110f2565b61017061037f366004611b1f565b61117b565b34801561039057600080fd5b506103a461039f366004611b1f565b611262565b60405161019c989796959493929190611ef1565b6101706103c6366004611f6e565b611341565b3480156103d757600080fd5b506102496103e6366004611b1f565b611626565b3480156103f757600080fd5b50600454610192565b34801561040c57600080fd5b5061019261041b366004611b54565b6001600160a01b031660009081526020819052604090206003015490565b34801561044557600080fd5b50610170610454366004611b1f565b611636565b34801561046557600080fd5b50610170610474366004611b1f565b6117a2565b34801561048557600080fd5b50610170610494366004611b1f565b61187a565b3480156104a557600080fd5b506101706104b4366004611b1f565b6119c6565b6000818152600160205260409020805482146104f05760405162461bcd60e51b81526004016104e790612022565b60405180910390fd5b6003600982015460ff16600681111561050b5761050b611edb565b1461051557600080fd5b60038101546001600160a01b0316331461058d5760405162461bcd60e51b815260206004820152603360248201527f4f72646572206d7573742062652064656c69766572656420627920636f757269604482015272195c881d1a185d081858d8d95c1d1959081a5d606a1b60648201526084016104e7565b6009810180546004919060ff19166001835b02179055505050565b600080600660009054906101000a90046001600160a01b03166001600160a01b031663feaf968c6040518163ffffffff1660e01b815260040160a060405180830381865afa1580156105fe573d6000803e3d6000fd5b505050506040513d601f19601f82011682018060405250810190610622919061207e565b5050509150506000600660009054906101000a90046001600160a01b03166001600160a01b031663313ce5676040518163ffffffff1660e01b8152600401602060405180830381865afa15801561067d573d6000803e3d6000fd5b505050506040513d601f19601f820116820180604052508101906106a191906120ce565b905060006106b3633b9aca0084612107565b6106be83600a61220d565b6106c8908761221c565b6106d29190612107565b95945050505050565b600060208190529081526040902080546001820180546001600160a01b03909216929161070790612233565b80601f016020809104026020016040519081016040528092919081815260200182805461073390612233565b80156107805780601f1061075557610100808354040283529160200191610780565b820191906000526020600020905b81548152906001019060200180831161076357829003601f168201915b50505050509080600201805461079590612233565b80601f01602080910402602001604051908101604052809291908181526020018280546107c190612233565b801561080e5780601f106107e35761010080835404028352916020019161080e565b820191906000526020600020905b8154815290600101906020018083116107f157829003601f168201915b5050505050905083565b6001600160a01b0386166000908152602081905260408120819081805b888110156109295760038301548a8a838181106108545761085461226d565b905060200201351061089a5760405162461bcd60e51b815260206004820152600f60248201526e125b9d985b1a59081a5d195b481251608a1b60448201526064016104e7565b6000836003018b8b848181106108b2576108b261226d565b90506020020135815481106108c9576108c961226d565b906000526020600020906004020190508888838181106108eb576108eb61226d565b905060200201356108ff82600301546105a8565b610909919061221c565b6109139084612283565b925050808061092190612296565b915050610835565b506000610935866105a8565b919b919a509098505050505050505050565b6000818152600160205260409020805482146109755760405162461bcd60e51b81526004016104e790612022565b6001600982015460ff16600681111561099057610990611edb565b146109eb5760405162461bcd60e51b815260206004820152602560248201527f4f72646572206d75737420626520696e207468652070726f63657373696e6720604482015264737461746560d81b60648201526084016104e7565b6003810180546001600160a01b031916331790556009810180546002919060ff191660018361059f565b33600081815260026020526040902080546001600160a01b031916909117815560018101610a44838583612314565b5050600480546001810182556000919091527f8a35acfbc15ff81a39ae7d344fd709f28e8600b4aa8c65c6b64bfe7fe36bd19b0180546001600160a01b031916331790555050565b600081815260016020526040902080548214610aba5760405162461bcd60e51b81526004016104e790612022565b600281015460018201546001600160a01b0391821691166000600984015460ff166006811115610aec57610aec611edb565b1480610b1057506001600984015460ff166006811115610b0e57610b0e611edb565b145b80610b3357506002600984015460ff166006811115610b3157610b31611edb565b145b15610b9157816001600160a01b03166108fc84600601548560070154610b599190612283565b6040518115909202916000818181858888f19350505050610b8c5760405162461bcd60e51b81526004016104e7906123d5565b610d5c565b6003600984015460ff166006811115610bac57610bac611edb565b03610c695760078301546040516001600160a01b0383169180156108fc02916000818181858888f19350505050610c255760405162461bcd60e51b815260206004820152601b60248201527f4661696c656420746f20726566756e642072657374617572616e74000000000060448201526064016104e7565b60068301546040516001600160a01b0384169180156108fc02916000818181858888f19350505050610b8c5760405162461bcd60e51b81526004016104e7906123d5565b600283015460078401546040516001600160a01b039283169284169180156108fc02916000818181858888f19350505050610ce65760405162461bcd60e51b815260206004820152601b60248201527f4661696c656420746f20726566756e642072657374617572616e74000000000060448201526064016104e7565b60068401546040516001600160a01b0383169180156108fc02916000818181858888f19350505050610d5a5760405162461bcd60e51b815260206004820152601860248201527f4661696c656420746f20726566756e6420636f7572696572000000000000000060448201526064016104e7565b505b5050600901805460ff1916600617905550565b600260205260009081526040902080546001820180546001600160a01b039092169291610d9b90612233565b80601f0160208091040260200160405190810160405280929190818152602001828054610dc790612233565b8015610e145780601f10610de957610100808354040283529160200191610e14565b820191906000526020600020905b815481529060010190602001808311610df757829003601f168201915b5050505050905082565b610e496040518060800160405280600081526020016060815260200160608152602001600081525090565b6001600160a01b0383166000908152602081905260409020600301805483908110610e7657610e7661226d565b906000526020600020906004020160405180608001604052908160008201548152602001600182018054610ea990612233565b80601f0160208091040260200160405190810160405280929190818152602001828054610ed590612233565b8015610f225780601f10610ef757610100808354040283529160200191610f22565b820191906000526020600020905b815481529060010190602001808311610f0557829003601f168201915b50505050508152602001600282018054610f3b90612233565b80601f0160208091040260200160405190810160405280929190818152602001828054610f6790612233565b8015610fb45780601f10610f8957610100808354040283529160200191610fb4565b820191906000526020600020905b815481529060010190602001808311610f9757829003601f168201915b5050505050815260200160038201548152505090505b92915050565b336000908152602081815260409182902082516080810184528981528351601f89018490048402810184019094528784529092600384019282810191908a908a9081908401838280828437600092019190915250505090825250604080516020601f8901819004810282018101909252878152918101919088908890819084018382808284376000920182905250938552505050602091820186905283546001818101865594825290829020835160049092020190815590820151919290919082019061109d908261240c565b50604082015160028201906110b2908261240c565b5060608201518160030155505050505050505050565b600381815481106110d857600080fd5b6000918252602090912001546001600160a01b0316905081565b33600081815260208190526040902080546001600160a01b031916909117815560018101611121858783612314565b5060028101611131838583612314565b5050600380546001810182556000919091527fc2575a0e9e593c00f959f8c92f12db2869c3395a3b0502d05e2516446f71f85b0180546001600160a01b0319163317905550505050565b6000818152600160205260409020805482146111a95760405162461bcd60e51b81526004016104e790612022565b6001600982015460ff1660068111156111c4576111c4611edb565b146111ce57600080fd5b60028101546001600160a01b031633146112455760405162461bcd60e51b815260206004820152603260248201527f4f726465722064656c697665727920666565206d75737420626520696e637265604482015271185cd95908189e481d1a194818db1a595b9d60721b60648201526084016104e7565b348160060160008282546112599190612283565b90915550505050565b600160208190526000918252604090912080549181015460028201546003830154600684015460078501546008860180546001600160a01b0396871697958716969094169492939192916112b590612233565b80601f01602080910402602001604051908101604052809291908181526020018280546112e190612233565b801561132e5780601f106113035761010080835404028352916020019161132e565b820191906000526020600020905b81548152906001019060200180831161131157829003601f168201915b5050506009909301549192505060ff1688565b6001600160a01b03808916600090815260208190526040902080549091166113ab5760405162461bcd60e51b815260206004820152601a60248201527f496e76616c69642072657374617572616e74206164647265737300000000000060448201526064016104e7565b6000806113bc8b8b8b8b8b8b610818565b90925090506113cb8183612283565b3410156114125760405162461bcd60e51b8152602060048201526015602482015274125b98dbdc9c9958dd08185b5bdd5b9d081c185a59605a1b60448201526064016104e7565b600580546000918261142383612296565b9190505590506040518061014001604052808281526020018d6001600160a01b03168152602001336001600160a01b0316815260200160006001600160a01b031681526020018c8c808060200260200160405190810160405280939291908181526020018383602002808284376000920191909152505050908252506040805160208c810282810182019093528c82529283019290918d918d918291850190849080828437600092019190915250505090825250602080820185905260408083018790528051601f8a0183900483028101830190915288815260609092019190899089908190840183828082843760009201829052509385525050602090920191509052600082815260016020818152604092839020845181558482015192810180546001600160a01b039485166001600160a01b03199182161790915593850151600282018054918516918616919091179055606085015160038201805491909416941693909317909155608083015180516115a69260048501920190611abf565b5060a082015180516115c2916005840191602090910190611abf565b5060c0820151600682015560e0820151600782015561010082015160088201906115ec908261240c565b5061012082015160098201805460ff1916600183600681111561161157611611611edb565b02179055505050505050505050505050505050565b600481815481106110d857600080fd5b6000818152600160205260409020805482146116645760405162461bcd60e51b81526004016104e790612022565b60018101546001600160a01b031633146116d25760405162461bcd60e51b815260206004820152602960248201527f4f6e6c79207468652072657374617572616e742063616e206465636c696e65206044820152683a34329037b93232b960b91b60648201526084016104e7565b6000600982015460ff1660068111156116ed576116ed611edb565b146117325760405162461bcd60e51b81526020600482015260156024820152744f72646572206d7573742062652070656e64696e6760581b60448201526064016104e7565b6002810154600682015460078301546001600160a01b039092169182916108fc9161175d9190612283565b6040518115909202916000818181858888f193505050506117905760405162461bcd60e51b81526004016104e7906123d5565b50600901805460ff1916600617905550565b6000818152600160205260409020805482146117d05760405162461bcd60e51b81526004016104e790612022565b6004600982015460ff1660068111156117eb576117eb611edb565b146117f557600080fd5b60028101546001600160a01b031633146118645760405162461bcd60e51b815260206004820152602a60248201527f4f726465722064656c6976657279206d75737420626520636f6e6669726d656460448201526908189e4818db1a595b9d60b21b60648201526084016104e7565b6009810180546005919060ff191660018361059f565b6000818152600160205260409020805482146118a85760405162461bcd60e51b81526004016104e790612022565b60018101546001600160a01b0316331461192a5760405162461bcd60e51b815260206004820152603e60248201527f4f6e6c79207468652072657374617572616e7420666f7220776869636820746860448201527f65206f7264657220776173206d6164652063616e20616363657074206974000060648201526084016104e7565b6000600982015460ff16600681111561194557611945611edb565b146119b15760405162461bcd60e51b815260206004820152603660248201527f43616e206f6e6c7920616363657074206f726465727320666f7220776869636860448201527520746865207374617475732069732050454e44494e4760501b60648201526084016104e7565b6009810180546001919060ff1916828061059f565b6000818152600160205260409020805482146119f45760405162461bcd60e51b81526004016104e790612022565b6002600982015460ff166006811115611a0f57611a0f611edb565b14611a1957600080fd5b60018101546001600160a01b03163314611aa95760405162461bcd60e51b8152602060048201526044602482018190527f4f72646572206d757374206265206d61726b656420726561647920746f206465908201527f6c69766572206279207468652072657374617572616e74206f6620746865206f606482015263393232b960e11b608482015260a4016104e7565b6009810180546003919060ff191660018361059f565b828054828255906000526020600020908101928215611afa579160200282015b82811115611afa578251825591602001919060010190611adf565b50611b06929150611b0a565b5090565b5b80821115611b065760008155600101611b0b565b600060208284031215611b3157600080fd5b5035919050565b80356001600160a01b0381168114611b4f57600080fd5b919050565b600060208284031215611b6657600080fd5b611b6f82611b38565b9392505050565b6000815180845260005b81811015611b9c57602081850181015186830182015201611b80565b506000602082860101526020601f19601f83011685010191505092915050565b6001600160a01b0384168152606060208201819052600090611be090830185611b76565b8281036040840152611bf28185611b76565b9695505050505050565b60008083601f840112611c0e57600080fd5b50813567ffffffffffffffff811115611c2657600080fd5b6020830191508360208260051b8501011115611c4157600080fd5b9250929050565b60008060008060008060808789031215611c6157600080fd5b611c6a87611b38565b9550602087013567ffffffffffffffff80821115611c8757600080fd5b611c938a838b01611bfc565b90975095506040890135915080821115611cac57600080fd5b50611cb989828a01611bfc565b979a9699509497949695606090950135949350505050565b60008083601f840112611ce357600080fd5b50813567ffffffffffffffff811115611cfb57600080fd5b602083019150836020828501011115611c4157600080fd5b60008060208385031215611d2657600080fd5b823567ffffffffffffffff811115611d3d57600080fd5b611d4985828601611cd1565b90969095509350505050565b6001600160a01b0383168152604060208201819052600090611d7990830184611b76565b949350505050565b60008060408385031215611d9457600080fd5b611d9d83611b38565b946020939093013593505050565b60208152815160208201526000602083015160806040840152611dd160a0840182611b76565b90506040840151601f19848303016060850152611dee8282611b76565b915050606084015160808401528091505092915050565b60008060008060008060808789031215611e1e57600080fd5b86359550602087013567ffffffffffffffff80821115611e3d57600080fd5b611e498a838b01611cd1565b90975095506040890135915080821115611e6257600080fd5b50611cb989828a01611cd1565b60008060008060408587031215611e8557600080fd5b843567ffffffffffffffff80821115611e9d57600080fd5b611ea988838901611cd1565b90965094506020870135915080821115611ec257600080fd5b50611ecf87828801611cd1565b95989497509550505050565b634e487b7160e01b600052602160045260246000fd5b8881526001600160a01b0388811660208301528781166040830152861660608201526080810185905260a0810184905261010060c08201819052600090611f3a83820186611b76565b91505060078310611f5b57634e487b7160e01b600052602160045260246000fd5b8260e08301529998505050505050505050565b60008060008060008060008060a0898b031215611f8a57600080fd5b611f9389611b38565b9750602089013567ffffffffffffffff80821115611fb057600080fd5b611fbc8c838d01611bfc565b909950975060408b0135915080821115611fd557600080fd5b611fe18c838d01611bfc565b909750955060608b0135945060808b013591508082111561200157600080fd5b5061200e8b828c01611cd1565b999c989b5096995094979396929594505050565b60208082526022908201527f4f72646572207769746820676976656e20696420646f6573206e6f74206578696040820152611cdd60f21b606082015260800190565b805169ffffffffffffffffffff81168114611b4f57600080fd5b600080600080600060a0868803121561209657600080fd5b61209f86612064565b94506020860151935060408601519250606086015191506120c260808701612064565b90509295509295909350565b6000602082840312156120e057600080fd5b815160ff81168114611b6f57600080fd5b634e487b7160e01b600052601160045260246000fd5b60008261212457634e487b7160e01b600052601260045260246000fd5b500490565b600181815b8085111561216457816000190482111561214a5761214a6120f1565b8085161561215757918102915b93841c939080029061212e565b509250929050565b60008261217b57506001610fca565b8161218857506000610fca565b816001811461219e57600281146121a8576121c4565b6001915050610fca565b60ff8411156121b9576121b96120f1565b50506001821b610fca565b5060208310610133831016604e8410600b84101617156121e7575081810a610fca565b6121f18383612129565b8060001904821115612205576122056120f1565b029392505050565b6000611b6f60ff84168361216c565b8082028115828204841417610fca57610fca6120f1565b600181811c9082168061224757607f821691505b60208210810361226757634e487b7160e01b600052602260045260246000fd5b50919050565b634e487b7160e01b600052603260045260246000fd5b80820180821115610fca57610fca6120f1565b6000600182016122a8576122a86120f1565b5060010190565b634e487b7160e01b600052604160045260246000fd5b601f82111561230f57600081815260208120601f850160051c810160208610156122ec5750805b601f850160051c820191505b8181101561230b578281556001016122f8565b5050505b505050565b67ffffffffffffffff83111561232c5761232c6122af565b6123408361233a8354612233565b836122c5565b6000601f841160018114612374576000851561235c5750838201355b600019600387901b1c1916600186901b1783556123ce565b600083815260209020601f19861690835b828110156123a55786850135825560209485019460019092019101612385565b50868210156123c25760001960f88860031b161c19848701351681555b505060018560011b0183555b5050505050565b60208082526017908201527f4661696c656420746f20726566756e6420636c69656e74000000000000000000604082015260600190565b815167ffffffffffffffff811115612426576124266122af565b61243a816124348454612233565b846122c5565b602080601f83116001811461246f57600084156124575750858301515b600019600386901b1c1916600185901b17855561230b565b600085815260208120601f198616915b8281101561249e5788860151825594840194600190910190840161247f565b50858210156124bc5787850151600019600388901b60f8161c191681555b5050505050600190811b0190555056fea2646970667358221220c478d5a3cb94ef002ecbf747ef757c96a41a342141c3ed0c8f33f93636a0a15264736f6c63430008110033",
  "bytecodeSha1": "b7305fd39f8ee33d67440bdca904762a7ae39216",
  "compiler": {
    "evm_version": "istanbul",
    "optimizer": {
      "enabled": true,
      "runs": 200
    },
    "version": "0.8.17+commit.8df45f5f"
  },
  "contractName": "FoodDelivery",
  "language": "Solidity",
  "natspec": {
    "kind": "dev",
    "methods": {},
    "version": 1
  },
  "opcodes": "PUSH1 0x80 PUSH1 0x40 MSTORE PUSH1 0x4 CALLDATASIZE LT PUSH2 0x14B JUMPI PUSH1 0x0 CALLDATALOAD PUSH1 0xE0 SHR DUP1 PUSH4 0x85B6EC06 GT PUSH2 0xB6 JUMPI DUP1 PUSH4 0xBE47DCA1 GT PUSH2 0x6F JUMPI DUP1 PUSH4 0xBE47DCA1 EQ PUSH2 0x3EB JUMPI DUP1 PUSH4 0xC59C521A EQ PUSH2 0x400 JUMPI DUP1 PUSH4 0xCCBDB85C EQ PUSH2 0x439 JUMPI DUP1 PUSH4 0xE742A182 EQ PUSH2 0x459 JUMPI DUP1 PUSH4 0xEF18E9ED EQ PUSH2 0x479 JUMPI DUP1 PUSH4 0xFEDF1A87 EQ PUSH2 0x499 JUMPI PUSH1 0x0 DUP1 REVERT JUMPDEST DUP1 PUSH4 0x85B6EC06 EQ PUSH2 0x331 JUMPI DUP1 PUSH4 0x880D4EE8 EQ PUSH2 0x351 JUMPI DUP1 PUSH4 0x9B51BD21 EQ PUSH2 0x371 JUMPI DUP1 PUSH4 0xA85C38EF EQ PUSH2 0x384 JUMPI DUP1 PUSH4 0xABFD0687 EQ PUSH2 0x3B8 JUMPI DUP1 PUSH4 0xBDACE182 EQ PUSH2 0x3CB JUMPI PUSH1 0x0 DUP1 REVERT JUMPDEST DUP1 PUSH4 0x4C6448FE GT PUSH2 0x108 JUMPI DUP1 PUSH4 0x4C6448FE EQ PUSH2 0x261 JUMPI DUP1 PUSH4 0x514FCAC7 EQ PUSH2 0x281 JUMPI DUP1 PUSH4 0x61EED2A9 EQ PUSH2 0x2A1 JUMPI DUP1 PUSH4 0x68AD5B83 EQ PUSH2 0x2CF JUMPI DUP1 PUSH4 0x6D4166E9 EQ PUSH2 0x2FC JUMPI DUP1 PUSH4 0x82B14CF3 EQ PUSH2 0x311 JUMPI PUSH1 0x0 DUP1 REVERT JUMPDEST DUP1 PUSH4 0x1AE78A85 EQ PUSH2 0x150 JUMPI DUP1 PUSH4 0x226AFFB8 EQ PUSH2 0x172 JUMPI DUP1 PUSH4 0x236CD7DC EQ PUSH2 0x1A5 JUMPI DUP1 PUSH4 0x3A2D20D1 EQ PUSH2 0x1D4 JUMPI DUP1 PUSH4 0x3B5D1A24 EQ PUSH2 0x209 JUMPI DUP1 PUSH4 0x42F6FB29 EQ PUSH2 0x229 JUMPI JUMPDEST PUSH1 0x0 DUP1 REVERT JUMPDEST CALLVALUE DUP1 ISZERO PUSH2 0x15C JUMPI PUSH1 0x0 DUP1 REVERT JUMPDEST POP PUSH2 0x170 PUSH2 0x16B CALLDATASIZE PUSH1 0x4 PUSH2 0x1B1F JUMP JUMPDEST PUSH2 0x4B9 JUMP JUMPDEST STOP JUMPDEST CALLVALUE DUP1 ISZERO PUSH2 0x17E JUMPI PUSH1 0x0 DUP1 REVERT JUMPDEST POP PUSH2 0x192 PUSH2 0x18D CALLDATASIZE PUSH1 0x4 PUSH2 0x1B1F JUMP JUMPDEST PUSH2 0x5A8 JUMP JUMPDEST PUSH1 0x40 MLOAD SWAP1 DUP2 MSTORE PUSH1 0x20 ADD JUMPDEST PUSH1 0x40 MLOAD DUP1 SWAP2 SUB SWAP1 RETURN JUMPDEST CALLVALUE DUP1 ISZERO PUSH2 0x1B1 JUMPI PUSH1 0x0 DUP1 REVERT JUMPDEST POP PUSH2 0x1C5 PUSH2 0x1C0 CALLDATASIZE PUSH1 0x4 PUSH2 0x1B54 JUMP JUMPDEST PUSH2 0x6DB JUMP JUMPDEST PUSH1 0x40 MLOAD PUSH2 0x19C SWAP4 SWAP3 SWAP2 SWAP1 PUSH2 0x1BBC JUMP JUMPDEST CALLVALUE DUP1 ISZERO PUSH2 0x1E0 JUMPI PUSH1 0x0 DUP1 REVERT JUMPDEST POP PUSH2 0x1F4 PUSH2 0x1EF CALLDATASIZE PUSH1 0x4 PUSH2 0x1C48 JUMP JUMPDEST PUSH2 0x818 JUMP JUMPDEST PUSH1 0x40 DUP1 MLOAD SWAP3 DUP4 MSTORE PUSH1 0x20 DUP4 ADD SWAP2 SWAP1 SWAP2 MSTORE ADD PUSH2 0x19C JUMP JUMPDEST CALLVALUE DUP1 ISZERO PUSH2 0x215 JUMPI PUSH1 0x0 DUP1 REVERT JUMPDEST POP PUSH2 0x170 PUSH2 0x224 CALLDATASIZE PUSH1 0x4 PUSH2 0x1B1F JUMP JUMPDEST PUSH2 0x947 JUMP JUMPDEST CALLVALUE DUP1 ISZERO PUSH2 0x235 JUMPI PUSH1 0x0 DUP1 REVERT JUMPDEST POP PUSH1 0x6 SLOAD PUSH2 0x249 SWAP1 PUSH1 0x1 PUSH1 0x1 PUSH1 0xA0 SHL SUB AND DUP2 JUMP JUMPDEST PUSH1 0x40 MLOAD PUSH1 0x1 PUSH1 0x1 PUSH1 0xA0 SHL SUB SWAP1 SWAP2 AND DUP2 MSTORE PUSH1 0x20 ADD PUSH2 0x19C JUMP JUMPDEST CALLVALUE DUP1 ISZERO PUSH2 0x26D JUMPI PUSH1 0x0 DUP1 REVERT JUMPDEST POP PUSH2 0x170 PUSH2 0x27C CALLDATASIZE PUSH1 0x4 PUSH2 0x1D13 JUMP JUMPDEST PUSH2 0xA15 JUMP JUMPDEST CALLVALUE DUP1 ISZERO PUSH2 0x28D JUMPI PUSH1 0x0 DUP1 REVERT JUMPDEST POP PUSH2 0x170 PUSH2 0x29C CALLDATASIZE PUSH1 0x4 PUSH2 0x1B1F JUMP JUMPDEST PUSH2 0xA8C JUMP JUMPDEST CALLVALUE DUP1 ISZERO PUSH2 0x2AD JUMPI PUSH1 0x0 DUP1 REVERT JUMPDEST POP PUSH2 0x2C1 PUSH2 0x2BC CALLDATASIZE PUSH1 0x4 PUSH2 0x1B54 JUMP JUMPDEST PUSH2 0xD6F JUMP JUMPDEST PUSH1 0x40 MLOAD PUSH2 0x19C SWAP3 SWAP2 SWAP1 PUSH2 0x1D55 JUMP JUMPDEST CALLVALUE DUP1 ISZERO PUSH2 0x2DB JUMPI PUSH1 0x0 DUP1 REVERT JUMPDEST POP PUSH2 0x2EF PUSH2 0x2EA CALLDATASIZE PUSH1 0x4 PUSH2 0x1D81 JUMP JUMPDEST PUSH2 0xE1E JUMP JUMPDEST PUSH1 0x40 MLOAD PUSH2 0x19C SWAP2 SWAP1 PUSH2 0x1DAB JUMP JUMPDEST CALLVALUE DUP1 ISZERO PUSH2 0x308 JUMPI PUSH1 0x0 DUP1 REVERT JUMPDEST POP PUSH1 0x3 SLOAD PUSH2 0x192 JUMP JUMPDEST CALLVALUE DUP1 ISZERO PUSH2 0x31D JUMPI PUSH1 0x0 DUP1 REVERT JUMPDEST POP PUSH2 0x170 PUSH2 0x32C CALLDATASIZE PUSH1 0x4 PUSH2 0x1E05 JUMP JUMPDEST PUSH2 0xFD0 JUMP JUMPDEST CALLVALUE DUP1 ISZERO PUSH2 0x33D JUMPI PUSH1 0x0 DUP1 REVERT JUMPDEST POP PUSH2 0x249 PUSH2 0x34C CALLDATASIZE PUSH1 0x4 PUSH2 0x1B1F JUMP JUMPDEST PUSH2 0x10C8 JUMP JUMPDEST CALLVALUE DUP1 ISZERO PUSH2 0x35D JUMPI PUSH1 0x0 DUP1 REVERT JUMPDEST POP PUSH2 0x170 PUSH2 0x36C CALLDATASIZE PUSH1 0x4 PUSH2 0x1E6F JUMP JUMPDEST PUSH2 0x10F2 JUMP JUMPDEST PUSH2 0x170 PUSH2 0x37F CALLDATASIZE PUSH1 0x4 PUSH2 0x1B1F JUMP JUMPDEST PUSH2 0x117B JUMP JUMPDEST CALLVALUE DUP1 ISZERO PUSH2 0x390 JUMPI PUSH1 0x0 DUP1 REVERT JUMPDEST POP PUSH2 0x3A4 PUSH2 0x39F CALLDATASIZE PUSH1 0x4 PUSH2 0x1B1F JUMP JUMPDEST PUSH2 0x1262 JUMP JUMPDEST PUSH1 0x40 MLOAD PUSH2 0x19C SWAP9 SWAP8 SWAP7 SWAP6 SWAP5 SWAP4 SWAP3 SWAP2 SWAP1 PUSH2 0x1EF1 JUMP JUMPDEST PUSH2 0x170 PUSH2 0x3C6 CALLDATASIZE PUSH1 0x4 PUSH2 0x1F6E JUMP JUMPDEST PUSH2 0x1341 JUMP JUMPDEST CALLVALUE DUP1 ISZERO PUSH2 0x3D7 JUMPI PUSH1 0x0 DUP1 REVERT JUMPDEST POP PUSH2 0x249 PUSH2 0x3E6 CALLDATASIZE PUSH1 0x4 PUSH2 0x1B1F JUMP JUMPDEST PUSH2 0x1626 JUMP JUMPDEST CALLVALUE DUP1 ISZERO PUSH2 0x3F7 JUMPI PUSH1 0x0 DUP1 REVERT JUMPDEST POP PUSH1 0x4 SLOAD PUSH2 0x192 JUMP JUMPDEST CALLVALUE DUP1 ISZERO PUSH2 0x40C JUMPI PUSH1 0x0 DUP1 REVERT JUMPDEST POP PUSH2 0x192 PUSH2 0x41B CALLDATASIZE PUSH1 0x4 PUSH2 0x1B54 JUMP JUMPDEST PUSH1 0x1 PUSH1 0x1 PUSH1 0xA0 SHL SUB AND PUSH1 0x0 SWAP1 DUP2 MSTORE PUSH1 0x20 DUP2 SWAP1 MSTORE PUSH1 0x40 SWAP1 KECCAK256 PUSH1 0x3 ADD SLOAD SWAP1 JUMP JUMPDEST CALLVALUE DUP1 ISZERO PUSH2 0x445 JUMPI PUSH1 0x0 DUP1 REVERT JUMPDEST POP PUSH2 0x170 PUSH2 0x454 CALLDATASIZE PUSH1 0x4 PUSH2 0x1B1F JUMP JUMPDEST PUSH2 0x1636 JUMP JUMPDEST CALLVALUE DUP1 ISZERO PUSH2 0x465 JUMPI PUSH1 0x0 DUP1 REVERT JUMPDEST POP PUSH2 0x170 PUSH2 0x474 CALLDATASIZE PUSH1 0x4 PUSH2 0x1B1F JUMP JUMPDEST PUSH2 0x17A2 JUMP JUMPDEST CALLVALUE DUP1 ISZERO PUSH2 0x485 JUMPI PUSH1 0x0 DUP1 REVERT JUMPDEST POP PUSH2 0x170 PUSH2 0x494 CALLDATASIZE PUSH1 0x4 PUSH2 0x1B1F JUMP JUMPDEST PUSH2 0x187A JUMP JUMPDEST CALLVALUE DUP1 ISZERO PUSH2 0x4A5 JUMPI PUSH1 0x0 DUP1 REVERT JUMPDEST POP PUSH2 0x170 PUSH2 0x4B4 CALLDATASIZE PUSH1 0x4 PUSH2 0x1B1F JUMP JUMPDEST PUSH2 0x19C6 JUMP JUMPDEST PUSH1 0x0 DUP2 DUP2 MSTORE PUSH1 0x1 PUSH1 0x20 MSTORE PUSH1 0x40 SWAP1 KECCAK256 DUP1 SLOAD DUP3 EQ PUSH2 0x4F0 JUMPI PUSH1 0x40 MLOAD PUSH3 0x461BCD PUSH1 0xE5 SHL DUP2 MSTORE PUSH1 0x4 ADD PUSH2 0x4E7 SWAP1 PUSH2 0x2022 JUMP JUMPDEST PUSH1 0x40 MLOAD DUP1 SWAP2 SUB SWAP1 REVERT JUMPDEST PUSH1 0x3 PUSH1 0x9 DUP3 ADD SLOAD PUSH1 0xFF AND PUSH1 0x6 DUP2 GT ISZERO PUSH2 0x50B JUMPI PUSH2 0x50B PUSH2 0x1EDB JUMP JUMPDEST EQ PUSH2 0x515 JUMPI PUSH1 0x0 DUP1 REVERT JUMPDEST PUSH1 0x3 DUP2 ADD SLOAD PUSH1 0x1 PUSH1 0x1 PUSH1 0xA0 SHL SUB AND CALLER EQ PUSH2 0x58D JUMPI PUSH1 0x40 MLOAD PUSH3 0x461BCD PUSH1 0xE5 SHL DUP2 MSTORE PUSH1 0x20 PUSH1 0x4 DUP3 ADD MSTORE PUSH1 0x33 PUSH1 0x24 DUP3 ADD MSTORE PUSH32 0x4F72646572206D7573742062652064656C69766572656420627920636F757269 PUSH1 0x44 DUP3 ADD MSTORE PUSH19 0x195C881D1A185D081858D8D95C1D1959081A5D PUSH1 0x6A SHL PUSH1 0x64 DUP3 ADD MSTORE PUSH1 0x84 ADD PUSH2 0x4E7 JUMP JUMPDEST PUSH1 0x9 DUP2 ADD DUP1 SLOAD PUSH1 0x4 SWAP2 SWAP1 PUSH1 0xFF NOT AND PUSH1 0x1 DUP4 JUMPDEST MUL OR SWAP1 SSTORE POP POP POP JUMP JUMPDEST PUSH1 0x0 DUP1 PUSH1 0x6 PUSH1 0x0 SWAP1 SLOAD SWAP1 PUSH2 0x100 EXP SWAP1 DIV PUSH1 0x1 PUSH1 0x1 PUSH1 0xA0 SHL SUB AND PUSH1 0x1 PUSH1 0x1 PUSH1 0xA0 SHL SUB AND PUSH4 0xFEAF968C PUSH1 0x40 MLOAD DUP2 PUSH4 0xFFFFFFFF AND PUSH1 0xE0 SHL DUP2 MSTORE PUSH1 0x4 ADD PUSH1 0xA0 PUSH1 0x40 MLOAD DUP1 DUP4 SUB DUP2 DUP7 GAS STATICCALL ISZERO DUP1 ISZERO PUSH2 0x5FE JUMPI RETURNDATASIZE PUSH1 0x0 DUP1 RETURNDATACOPY RETURNDATASIZE PUSH1 0x0 REVERT JUMPDEST POP POP POP POP PUSH1 0x40 MLOAD RETURNDATASIZE PUSH1 0x1F NOT PUSH1 0x1F DUP3 ADD AND DUP3 ADD DUP1 PUSH1 0x40 MSTORE POP DUP2 ADD SWAP1 PUSH2 0x622 SWAP2 SWAP1 PUSH2 0x207E JUMP JUMPDEST POP POP POP SWAP2 POP POP PUSH1 0x0 PUSH1 0x6 PUSH1 0x0 SWAP1 SLOAD SWAP1 PUSH2 0x100 EXP SWAP1 DIV PUSH1 0x1 PUSH1 0x1 PUSH1 0xA0 SHL SUB AND PUSH1 0x1 PUSH1 0x1 PUSH1 0xA0 SHL SUB AND PUSH4 0x313CE567 PUSH1 0x40 MLOAD DUP2 PUSH4 0xFFFFFFFF AND PUSH1 0xE0 SHL DUP2 MSTORE PUSH1 0x4 ADD PUSH1 0x20 PUSH1 0x40 MLOAD DUP1 DUP4 SUB DUP2 DUP7 GAS STATICCALL ISZERO DUP1 ISZERO PUSH2 0x67D JUMPI RETURNDATASIZE PUSH1 0x0 DUP1 RETURNDATACOPY RETURNDATASIZE PUSH1 0x0 REVERT JUMPDEST POP POP POP POP PUSH1 0x40 MLOAD RETURNDATASIZE PUSH1 0x1F NOT PUSH1 0x1F DUP3 ADD AND DUP3 ADD DUP1 PUSH1 0x40 MSTORE POP DUP2 ADD SWAP1 PUSH2 0x6A1 SWAP2 SWAP1 PUSH2 0x20CE JUMP JUMPDEST SWAP1 POP PUSH1 0x0 PUSH2 0x6B3 PUSH4 0x3B9ACA00 DUP5 PUSH2 0x2107 JUMP JUMPDEST PUSH2 0x6BE DUP4 PUSH1 0xA PUSH2 0x220D JUMP JUMPDEST PUSH2 0x6C8 SWAP1 DUP8 PUSH2 0x221C JUMP JUMPDEST PUSH2 0x6D2 SWAP2 SWAP1 PUSH2 0x2107 JUMP JUMPDEST SWAP6 SWAP5 POP POP POP POP POP JUMP JUMPDEST PUSH1 0x0 PUSH1 0x20 DUP2 SWAP1 MSTORE SWAP1 DUP2 MSTORE PUSH1 0x40 SWAP1 KECCAK256 DUP1 SLOAD PUSH1 0x1 DUP3 ADD DUP1 SLOAD PUSH1 0x1 PUSH1 0x1 PUSH1 0xA0 SHL SUB SWAP1 SWAP3 AND SWAP3 SWAP2 PUSH2 0x707 SWAP1 PUSH2 0x2233 JUMP JUMPDEST DUP1 PUSH1 0x1F ADD PUSH1 0x20 DUP1 SWAP2 DIV MUL PUSH1 0x20 ADD PUSH1 0x40 MLOAD SWAP1 DUP2 ADD PUSH1 0x40 MSTORE DUP1 SWAP3 SWAP2 SWAP1 DUP2 DUP2 MSTORE PUSH1 0x20 ADD DUP3 DUP1 SLOAD PUSH2 0x733 SWAP1 PUSH2 0x2233 JUMP JUMPDEST DUP1 ISZERO PUSH2 0x780 JUMPI DUP1 PUSH1 0x1F LT PUSH2 0x755 JUMPI PUSH2 0x100 DUP1 DUP4 SLOAD DIV MUL DUP4 MSTORE SWAP2 PUSH1 0x20 ADD SWAP2 PUSH2 0x780 JUMP JUMPDEST DUP3 ADD SWAP2 SWAP1 PUSH1 0x0 MSTORE PUSH1 0x20 PUSH1 0x0 KECCAK256 SWAP1 JUMPDEST DUP2 SLOAD DUP2 MSTORE SWAP1 PUSH1 0x1 ADD SWAP1 PUSH1 0x20 ADD DUP1 DUP4 GT PUSH2 0x763 JUMPI DUP3 SWAP1 SUB PUSH1 0x1F AND DUP3 ADD SWAP2 JUMPDEST POP POP POP POP POP SWAP1 DUP1 PUSH1 0x2 ADD DUP1 SLOAD PUSH2 0x795 SWAP1 PUSH2 0x2233 JUMP JUMPDEST DUP1 PUSH1 0x1F ADD PUSH1 0x20 DUP1 SWAP2 DIV MUL PUSH1 0x20 ADD PUSH1 0x40 MLOAD SWAP1 DUP2 ADD PUSH1 0x40 MSTORE DUP1 SWAP3 SWAP2 SWAP1 DUP2 DUP2 MSTORE PUSH1 0x20 ADD DUP3 DUP1 SLOAD PUSH2 0x7C1 SWAP1 PUSH2 0x2233 JUMP JUMPDEST DUP1 ISZERO PUSH2 0x80E JUMPI DUP1 PUSH1 0x1F LT PUSH2 0x7E3 JUMPI PUSH2 0x100 DUP1 DUP4 SLOAD DIV MUL DUP4 MSTORE SWAP2 PUSH1 0x20 ADD SWAP2 PUSH2 0x80E JUMP JUMPDEST DUP3 ADD SWAP2 SWAP1 PUSH1 0x0 MSTORE PUSH1 0x20 PUSH1 0x0 KECCAK256 SWAP1 JUMPDEST DUP2 SLOAD DUP2 MSTORE SWAP1 PUSH1 0x1 ADD SWAP1 PUSH1 0x20 ADD DUP1 DUP4 GT PUSH2 0x7F1 JUMPI DUP3 SWAP1 SUB PUSH1 0x1F AND DUP3 ADD SWAP2 JUMPDEST POP POP POP POP POP SWAP1 POP DUP4 JUMP JUMPDEST PUSH1 0x1 PUSH1 0x1 PUSH1 0xA0 SHL SUB DUP7 AND PUSH1 0x0 SWAP1 DUP2 MSTORE PUSH1 0x20 DUP2 SWAP1 MSTORE PUSH1 0x40 DUP2 KECCAK256 DUP2 SWAP1 DUP2 DUP1 JUMPDEST DUP9 DUP2 LT ISZERO PUSH2 0x929 JUMPI PUSH1 0x3 DUP4 ADD SLOAD DUP11 DUP11 DUP4 DUP2 DUP2 LT PUSH2 0x854 JUMPI PUSH2 0x854 PUSH2 0x226D JUMP JUMPDEST SWAP1 POP PUSH1 0x20 MUL ADD CALLDATALOAD LT PUSH2 0x89A JUMPI PUSH1 0x40 MLOAD PUSH3 0x461BCD PUSH1 0xE5 SHL DUP2 MSTORE PUSH1 0x20 PUSH1 0x4 DUP3 ADD MSTORE PUSH1 0xF PUSH1 0x24 DUP3 ADD MSTORE PUSH15 0x125B9D985B1A59081A5D195B481251 PUSH1 0x8A SHL PUSH1 0x44 DUP3 ADD MSTORE PUSH1 0x64 ADD PUSH2 0x4E7 JUMP JUMPDEST PUSH1 0x0 DUP4 PUSH1 0x3 ADD DUP12 DUP12 DUP5 DUP2 DUP2 LT PUSH2 0x8B2 JUMPI PUSH2 0x8B2 PUSH2 0x226D JUMP JUMPDEST SWAP1 POP PUSH1 0x20 MUL ADD CALLDATALOAD DUP2 SLOAD DUP2 LT PUSH2 0x8C9 JUMPI PUSH2 0x8C9 PUSH2 0x226D JUMP JUMPDEST SWAP1 PUSH1 0x0 MSTORE PUSH1 0x20 PUSH1 0x0 KECCAK256 SWAP1 PUSH1 0x4 MUL ADD SWAP1 POP DUP9 DUP9 DUP4 DUP2 DUP2 LT PUSH2 0x8EB JUMPI PUSH2 0x8EB PUSH2 0x226D JUMP JUMPDEST SWAP1 POP PUSH1 0x20 MUL ADD CALLDATALOAD PUSH2 0x8FF DUP3 PUSH1 0x3 ADD SLOAD PUSH2 0x5A8 JUMP JUMPDEST PUSH2 0x909 SWAP2 SWAP1 PUSH2 0x221C JUMP JUMPDEST PUSH2 0x913 SWAP1 DUP5 PUSH2 0x2283 JUMP JUMPDEST SWAP3 POP POP DUP1 DUP1 PUSH2 0x921 SWAP1 PUSH2 0x2296 JUMP JUMPDEST SWAP2 POP POP PUSH2 0x835 JUMP JUMPDEST POP PUSH1 0x0 PUSH2 0x935 DUP7 PUSH2 0x5A8 JUMP JUMPDEST SWAP2 SWAP12 SWAP2 SWAP11 POP SWAP1 SWAP9 POP POP POP POP POP POP POP POP POP JUMP JUMPDEST PUSH1 0x0 DUP2 DUP2 MSTORE PUSH1 0x1 PUSH1 0x20 MSTORE PUSH1 0x40 SWAP1 KECCAK256 DUP1 SLOAD DUP3 EQ PUSH2 0x975 JUMPI PUSH1 0x40 MLOAD PUSH3 0x461BCD PUSH1 0xE5 SHL DUP2 MSTORE PUSH1 0x4 ADD PUSH2 0x4E7 SWAP1 PUSH2 0x2022 JUMP JUMPDEST PUSH1 0x1 PUSH1 0x9 DUP3 ADD SLOAD PUSH1 0xFF AND PUSH1 0x6 DUP2 GT ISZERO PUSH2 0x990 JUMPI PUSH2 0x990 PUSH2 0x1EDB JUMP JUMPDEST EQ PUSH2 0x9EB JUMPI PUSH1 0x40 MLOAD PUSH3 0x461BCD PUSH1 0xE5 SHL DUP2 MSTORE PUSH1 0x20 PUSH1 0x4 DUP3 ADD MSTORE PUSH1 0x25 PUSH1 0x24 DUP3 ADD MSTORE PUSH32 0x4F72646572206D75737420626520696E207468652070726F63657373696E6720 PUSH1 0x44 DUP3 ADD MSTORE PUSH5 0x7374617465 PUSH1 0xD8 SHL PUSH1 0x64 DUP3 ADD MSTORE PUSH1 0x84 ADD PUSH2 0x4E7 JUMP JUMPDEST PUSH1 0x3 DUP2 ADD DUP1 SLOAD PUSH1 0x1 PUSH1 0x1 PUSH1 0xA0 SHL SUB NOT AND CALLER OR SWAP1 SSTORE PUSH1 0x9 DUP2 ADD DUP1 SLOAD PUSH1 0x2 SWAP2 SWAP1 PUSH1 0xFF NOT AND PUSH1 0x1 DUP4 PUSH2 0x59F JUMP JUMPDEST CALLER PUSH1 0x0 DUP2 DUP2 MSTORE PUSH1 0x2 PUSH1 0x20 MSTORE PUSH1 0x40 SWAP1 KECCAK256 DUP1 SLOAD PUSH1 0x1 PUSH1 0x1 PUSH1 0xA0 SHL SUB NOT AND SWAP1 SWAP2 OR DUP2 SSTORE PUSH1 0x1 DUP2 ADD PUSH2 0xA44 DUP4 DUP6 DUP4 PUSH2 0x2314 JUMP JUMPDEST POP POP PUSH1 0x4 DUP1 SLOAD PUSH1 0x1 DUP2 ADD DUP3 SSTORE PUSH1 0x0 SWAP2 SWAP1 SWAP2 MSTORE PUSH32 0x8A35ACFBC15FF81A39AE7D344FD709F28E8600B4AA8C65C6B64BFE7FE36BD19B ADD DUP1 SLOAD PUSH1 0x1 PUSH1 0x1 PUSH1 0xA0 SHL SUB NOT AND CALLER OR SWAP1 SSTORE POP POP JUMP JUMPDEST PUSH1 0x0 DUP2 DUP2 MSTORE PUSH1 0x1 PUSH1 0x20 MSTORE PUSH1 0x40 SWAP1 KECCAK256 DUP1 SLOAD DUP3 EQ PUSH2 0xABA JUMPI PUSH1 0x40 MLOAD PUSH3 0x461BCD PUSH1 0xE5 SHL DUP2 MSTORE PUSH1 0x4 ADD PUSH2 0x4E7 SWAP1 PUSH2 0x2022 JUMP JUMPDEST PUSH1 0x2 DUP2 ADD SLOAD PUSH1 0x1 DUP3 ADD SLOAD PUSH1 0x1 PUSH1 0x1 PUSH1 0xA0 SHL SUB SWAP2 DUP3 AND SWAP2 AND PUSH1 0x0 PUSH1 0x9 DUP5 ADD SLOAD PUSH1 0xFF AND PUSH1 0x6 DUP2 GT ISZERO PUSH2 0xAEC JUMPI PUSH2 0xAEC PUSH2 0x1EDB JUMP JUMPDEST EQ DUP1 PUSH2 0xB10 JUMPI POP PUSH1 0x1 PUSH1 0x9 DUP5 ADD SLOAD PUSH1 0xFF AND PUSH1 0x6 DUP2 GT ISZERO PUSH2 0xB0E JUMPI PUSH2 0xB0E PUSH2 0x1EDB JUMP JUMPDEST EQ JUMPDEST DUP1 PUSH2 0xB33 JUMPI POP PUSH1 0x2 PUSH1 0x9 DUP5 ADD SLOAD PUSH1 0xFF AND PUSH1 0x6 DUP2 GT ISZERO PUSH2 0xB31 JUMPI PUSH2 0xB31 PUSH2 0x1EDB JUMP JUMPDEST EQ JUMPDEST ISZERO PUSH2 0xB91 JUMPI DUP2 PUSH1 0x1 PUSH1 0x1 PUSH1 0xA0 SHL SUB AND PUSH2 0x8FC DUP5 PUSH1 0x6 ADD SLOAD DUP6 PUSH1 0x7 ADD SLOAD PUSH2 0xB59 SWAP2 SWAP1 PUSH2 0x2283 JUMP JUMPDEST PUSH1 0x40 MLOAD DUP2 ISZERO SWAP1 SWAP3 MUL SWAP2 PUSH1 0x0 DUP2 DUP2 DUP2 DUP6 DUP9 DUP9 CALL SWAP4 POP POP POP POP PUSH2 0xB8C JUMPI PUSH1 0x40 MLOAD PUSH3 0x461BCD PUSH1 0xE5 SHL DUP2 MSTORE PUSH1 0x4 ADD PUSH2 0x4E7 SWAP1 PUSH2 0x23D5 JUMP JUMPDEST PUSH2 0xD5C JUMP JUMPDEST PUSH1 0x3 PUSH1 0x9 DUP5 ADD SLOAD PUSH1 0xFF AND PUSH1 0x6 DUP2 GT ISZERO PUSH2 0xBAC JUMPI PUSH2 0xBAC PUSH2 0x1EDB JUMP JUMPDEST SUB PUSH2 0xC69 JUMPI PUSH1 0x7 DUP4 ADD SLOAD PUSH1 0x40 MLOAD PUSH1 0x1 PUSH1 0x1 PUSH1 0xA0 SHL SUB DUP4 AND SWAP2 DUP1 ISZERO PUSH2 0x8FC MUL SWAP2 PUSH1 0x0 DUP2 DUP2 DUP2 DUP6 DUP9 DUP9 CALL SWAP4 POP POP POP POP PUSH2 0xC25 JUMPI PUSH1 0x40 MLOAD PUSH3 0x461BCD PUSH1 0xE5 SHL DUP2 MSTORE PUSH1 0x20 PUSH1 0x4 DUP3 ADD MSTORE PUSH1 0x1B PUSH1 0x24 DUP3 ADD MSTORE PUSH32 0x4661696C656420746F20726566756E642072657374617572616E740000000000 PUSH1 0x44 DUP3 ADD MSTORE PUSH1 0x64 ADD PUSH2 0x4E7 JUMP JUMPDEST PUSH1 0x6 DUP4 ADD SLOAD PUSH1 0x40 MLOAD PUSH1 0x1 PUSH1 0x1 PUSH1 0xA0 SHL SUB DUP5 AND SWAP2 DUP1 ISZERO PUSH2 0x8FC MUL SWAP2 PUSH1 0x0 DUP2 DUP2 DUP2 DUP6 DUP9 DUP9 CALL SWAP4 POP POP POP POP PUSH2 0xB8C JUMPI PUSH1 0x40 MLOAD PUSH3 0x461BCD PUSH1 0xE5 SHL DUP2 MSTORE PUSH1 0x4 ADD PUSH2 0x4E7 SWAP1 PUSH2 0x23D5 JUMP JUMPDEST PUSH1 0x2 DUP4 ADD SLOAD PUSH1 0x7 DUP5 ADD SLOAD PUSH1 0x40 MLOAD PUSH1 0x1 PUSH1 0x1 PUSH1 0xA0 SHL SUB SWAP3 DUP4 AND SWAP3 DUP5 AND SWAP2 DUP1 ISZERO PUSH2 0x8FC MUL SWAP2 PUSH1 0x0 DUP2 DUP2 DUP2 DUP6 DUP9 DUP9 CALL SWAP4 POP POP POP POP PUSH2 0xCE6 JUMPI PUSH1 0x40 MLOAD PUSH3 0x461BCD PUSH1 0xE5 SHL DUP2 MSTORE PUSH1 0x20 PUSH1 0x4 DUP3 ADD MSTORE PUSH1 0x1B PUSH1 0x24 DUP3 ADD MSTORE PUSH32 0x4661696C656420746F20726566756E642072657374617572616E740000000000 PUSH1 0x44 DUP3 ADD MSTORE PUSH1 0x64 ADD PUSH2 0x4E7 JUMP JUMPDEST PUSH1 0x6 DUP5 ADD SLOAD PUSH1 0x40 MLOAD PUSH1 0x1 PUSH1 0x1 PUSH1 0xA0 SHL SUB DUP4 AND SWAP2 DUP1 ISZERO PUSH2 0x8FC MUL SWAP2 PUSH1 0x0 DUP2 DUP2 DUP2 DUP6 DUP9 DUP9 CALL SWAP4 POP POP POP POP PUSH2 0xD5A JUMPI PUSH1 0x40 MLOAD PUSH3 0x461BCD PUSH1 0xE5 SHL DUP2 MSTORE PUSH1 0x20 PUSH1 0x4 DUP3 ADD MSTORE PUSH1 0x18 PUSH1 0x24 DUP3 ADD MSTORE PUSH32 0x4661696C656420746F20726566756E6420636F75726965720000000000000000 PUSH1 0x44 DUP3 ADD MSTORE PUSH1 0x64 ADD PUSH2 0x4E7 JUMP JUMPDEST POP JUMPDEST POP POP PUSH1 0x9 ADD DUP1 SLOAD PUSH1 0xFF NOT AND PUSH1 0x6 OR SWAP1 SSTORE POP JUMP JUMPDEST PUSH1 0x2 PUSH1 0x20 MSTORE PUSH1 0x0 SWAP1 DUP2 MSTORE PUSH1 0x40 SWAP1 KECCAK256 DUP1 SLOAD PUSH1 0x1 DUP3 ADD DUP1 SLOAD PUSH1 0x1 PUSH1 0x1 PUSH1 0xA0 SHL SUB SWAP1 SWAP3 AND SWAP3 SWAP2 PUSH2 0xD9B SWAP1 PUSH2 0x2233 JUMP JUMPDEST DUP1 PUSH1 0x1F ADD PUSH1 0x20 DUP1 SWAP2 DIV MUL PUSH1 0x20 ADD PUSH1 0x40 MLOAD SWAP1 DUP2 ADD PUSH1 0x40 MSTORE DUP1 SWAP3 SWAP2 SWAP1 DUP2 DUP2 MSTORE PUSH1 0x20 ADD DUP3 DUP1 SLOAD PUSH2 0xDC7 SWAP1 PUSH2 0x2233 JUMP JUMPDEST DUP1 ISZERO PUSH2 0xE14 JUMPI DUP1 PUSH1 0x1F LT PUSH2 0xDE9 JUMPI PUSH2 0x100 DUP1 DUP4 SLOAD DIV MUL DUP4 MSTORE SWAP2 PUSH1 0x20 ADD SWAP2 PUSH2 0xE14 JUMP JUMPDEST DUP3 ADD SWAP2 SWAP1 PUSH1 0x0 MSTORE PUSH1 0x20 PUSH1 0x0 KECCAK256 SWAP1 JUMPDEST DUP2 SLOAD DUP2 MSTORE SWAP1 PUSH1 0x1 ADD SWAP1 PUSH1 0x20 ADD DUP1 DUP4 GT PUSH2 0xDF7 JUMPI DUP3 SWAP1 SUB PUSH1 0x1F AND DUP3 ADD SWAP2 JUMPDEST POP POP POP POP POP SWAP1 POP DUP3 JUMP JUMPDEST PUSH2 0xE49 PUSH1 0x40 MLOAD DUP1 PUSH1 0x80 ADD PUSH1 0x40 MSTORE DUP1 PUSH1 0x0 DUP2 MSTORE PUSH1 0x20 ADD PUSH1 0x60 DUP2 MSTORE PUSH1 0x20 ADD PUSH1 0x60 DUP2 MSTORE PUSH1 0x20 ADD PUSH1 0x0 DUP2 MSTORE POP SWAP1 JUMP JUMPDEST PUSH1 0x1 PUSH1 0x1 PUSH1 0xA0 SHL SUB DUP4 AND PUSH1 0x0 SWAP1 DUP2 MSTORE PUSH1 0x20 DUP2 SWAP1 MSTORE PUSH1 0x40 SWAP1 KECCAK256 PUSH1 0x3 ADD DUP1 SLOAD DUP4 SWAP1 DUP2 LT PUSH2 0xE76 JUMPI PUSH2 0xE76 PUSH2 0x226D JUMP JUMPDEST SWAP1 PUSH1 0x0 MSTORE PUSH1 0x20 PUSH1 0x0 KECCAK256 SWAP1 PUSH1 0x4 MUL ADD PUSH1 0x40 MLOAD DUP1 PUSH1 0x80 ADD PUSH1 0x40 MSTORE SWAP1 DUP2 PUSH1 0x0 DUP3 ADD SLOAD DUP2 MSTORE PUSH1 0x20 ADD PUSH1 0x1 DUP3 ADD DUP1 SLOAD PUSH2 0xEA9 SWAP1 PUSH2 0x2233 JUMP JUMPDEST DUP1 PUSH1 0x1F ADD PUSH1 0x20 DUP1 SWAP2 DIV MUL PUSH1 0x20 ADD PUSH1 0x40 MLOAD SWAP1 DUP2 ADD PUSH1 0x40 MSTORE DUP1 SWAP3 SWAP2 SWAP1 DUP2 DUP2 MSTORE PUSH1 0x20 ADD DUP3 DUP1 SLOAD PUSH2 0xED5 SWAP1 PUSH2 0x2233 JUMP JUMPDEST DUP1 ISZERO PUSH2 0xF22 JUMPI DUP1 PUSH1 0x1F LT PUSH2 0xEF7 JUMPI PUSH2 0x100 DUP1 DUP4 SLOAD DIV MUL DUP4 MSTORE SWAP2 PUSH1 0x20 ADD SWAP2 PUSH2 0xF22 JUMP JUMPDEST DUP3 ADD SWAP2 SWAP1 PUSH1 0x0 MSTORE PUSH1 0x20 PUSH1 0x0 KECCAK256 SWAP1 JUMPDEST DUP2 SLOAD DUP2 MSTORE SWAP1 PUSH1 0x1 ADD SWAP1 PUSH1 0x20 ADD DUP1 DUP4 GT PUSH2 0xF05 JUMPI DUP3 SWAP1 SUB PUSH1 0x1F AND DUP3 ADD SWAP2 JUMPDEST POP POP POP POP POP DUP2 MSTORE PUSH1 0x20 ADD PUSH1 0x2 DUP3 ADD DUP1 SLOAD PUSH2 0xF3B SWAP1 PUSH2 0x2233 JUMP JUMPDEST DUP1 PUSH1 0x1F ADD PUSH1 0x20 DUP1 SWAP2 DIV MUL PUSH1 0x20 ADD PUSH1 0x40 MLOAD SWAP1 DUP2 ADD PUSH1 0x40 MSTORE DUP1 SWAP3 SWAP2 SWAP1 DUP2 DUP2 MSTORE PUSH1 0x20 ADD DUP3 DUP1 SLOAD PUSH2 0xF67 SWAP1 PUSH2 0x2233 JUMP JUMPDEST DUP1 ISZERO PUSH2 0xFB4 JUMPI DUP1 PUSH1 0x1F LT PUSH2 0xF89 JUMPI PUSH2 0x100 DUP1 DUP4 SLOAD DIV MUL DUP4 MSTORE SWAP2 PUSH1 0x20 ADD SWAP2 PUSH2 0xFB4 JUMP JUMPDEST DUP3 ADD SWAP2 SWAP1 PUSH1 0x0 MSTORE PUSH1 0x20 PUSH1 0x0 KECCAK256 SWAP1 JUMPDEST DUP2 SLOAD DUP2 MSTORE SWAP1 PUSH1 0x1 ADD SWAP1 PUSH1 0x20 ADD DUP1 DUP4 GT PUSH2 0xF97 JUMPI DUP3 SWAP1 SUB PUSH1 0x1F AND DUP3 ADD SWAP2 JUMPDEST POP POP POP POP POP DUP2 MSTORE PUSH1 0x20 ADD PUSH1 0x3 DUP3 ADD SLOAD DUP2 MSTORE POP POP SWAP1 POP JUMPDEST SWAP3 SWAP2 POP POP JUMP JUMPDEST CALLER PUSH1 0x0 SWAP1 DUP2 MSTORE PUSH1 0x20 DUP2 DUP2 MSTORE PUSH1 0x40 SWAP2 DUP3 SWAP1 KECCAK256 DUP3 MLOAD PUSH1 0x80 DUP2 ADD DUP5 MSTORE DUP10 DUP2 MSTORE DUP4 MLOAD PUSH1 0x1F DUP10 ADD DUP5 SWAP1 DIV DUP5 MUL DUP2 ADD DUP5 ADD SWAP1 SWAP5 MSTORE DUP8 DUP5 MSTORE SWAP1 SWAP3 PUSH1 0x3 DUP5 ADD SWAP3 DUP3 DUP2 ADD SWAP2 SWAP1 DUP11 SWAP1 DUP11 SWAP1 DUP2 SWAP1 DUP5 ADD DUP4 DUP3 DUP1 DUP3 DUP5 CALLDATACOPY PUSH1 0x0 SWAP3 ADD SWAP2 SWAP1 SWAP2 MSTORE POP POP POP SWAP1 DUP3 MSTORE POP PUSH1 0x40 DUP1 MLOAD PUSH1 0x20 PUSH1 0x1F DUP10 ADD DUP2 SWAP1 DIV DUP2 MUL DUP3 ADD DUP2 ADD SWAP1 SWAP3 MSTORE DUP8 DUP2 MSTORE SWAP2 DUP2 ADD SWAP2 SWAP1 DUP9 SWAP1 DUP9 SWAP1 DUP2 SWAP1 DUP5 ADD DUP4 DUP3 DUP1 DUP3 DUP5 CALLDATACOPY PUSH1 0x0 SWAP3 ADD DUP3 SWAP1 MSTORE POP SWAP4 DUP6 MSTORE POP POP POP PUSH1 0x20 SWAP2 DUP3 ADD DUP7 SWAP1 MSTORE DUP4 SLOAD PUSH1 0x1 DUP2 DUP2 ADD DUP7 SSTORE SWAP5 DUP3 MSTORE SWAP1 DUP3 SWAP1 KECCAK256 DUP4 MLOAD PUSH1 0x4 SWAP1 SWAP3 MUL ADD SWAP1 DUP2 SSTORE SWAP1 DUP3 ADD MLOAD SWAP2 SWAP3 SWAP1 SWAP2 SWAP1 DUP3 ADD SWAP1 PUSH2 0x109D SWAP1 DUP3 PUSH2 0x240C JUMP JUMPDEST POP PUSH1 0x40 DUP3 ADD MLOAD PUSH1 0x2 DUP3 ADD SWAP1 PUSH2 0x10B2 SWAP1 DUP3 PUSH2 0x240C JUMP JUMPDEST POP PUSH1 0x60 DUP3 ADD MLOAD DUP2 PUSH1 0x3 ADD SSTORE POP POP POP POP POP POP POP POP POP JUMP JUMPDEST PUSH1 0x3 DUP2 DUP2 SLOAD DUP2 LT PUSH2 0x10D8 JUMPI PUSH1 0x0 DUP1 REVERT JUMPDEST PUSH1 0x0 SWAP2 DUP3 MSTORE PUSH1 0x20 SWAP1 SWAP2 KECCAK256 ADD SLOAD PUSH1 0x1 PUSH1 0x1 PUSH1 0xA0 SHL SUB AND SWAP1 POP DUP2 JUMP JUMPDEST CALLER PUSH1 0x0 DUP2 DUP2 MSTORE PUSH1 0x20 DUP2 SWAP1 MSTORE PUSH1 0x40 SWAP1 KECCAK256 DUP1 SLOAD PUSH1 0x1 PUSH1 0x1 PUSH1 0xA0 SHL SUB NOT AND SWAP1 SWAP2 OR DUP2 SSTORE PUSH1 0x1 DUP2 ADD PUSH2 0x1121 DUP6 DUP8 DUP4 PUSH2 0x2314 JUMP JUMPDEST POP PUSH1 0x2 DUP2 ADD PUSH2 0x1131 DUP4 DUP6 DUP4 PUSH2 0x2314 JUMP JUMPDEST POP POP PUSH1 0x3 DUP1 SLOAD PUSH1 0x1 DUP2 ADD DUP3 SSTORE PUSH1 0x0 SWAP2 SWAP1 SWAP2 MSTORE PUSH32 0xC2575A0E9E593C00F959F8C92F12DB2869C3395A3B0502D05E2516446F71F85B ADD DUP1 SLOAD PUSH1 0x1 PUSH1 0x1 PUSH1 0xA0 SHL SUB NOT AND CALLER OR SWAP1 SSTORE POP POP POP POP JUMP JUMPDEST PUSH1 0x0 DUP2 DUP2 MSTORE PUSH1 0x1 PUSH1 0x20 MSTORE PUSH1 0x40 SWAP1 KECCAK256 DUP1 SLOAD DUP3 EQ PUSH2 0x11A9 JUMPI PUSH1 0x40 MLOAD PUSH3 0x461BCD PUSH1 0xE5 SHL DUP2 MSTORE PUSH1 0x4 ADD PUSH2 0x4E7 SWAP1 PUSH2 0x2022 JUMP JUMPDEST PUSH1 0x1 PUSH1 0x9 DUP3 ADD SLOAD PUSH1 0xFF AND PUSH1 0x6 DUP2 GT ISZERO PUSH2 0x11C4 JUMPI PUSH2 0x11C4 PUSH2 0x1EDB JUMP JUMPDEST EQ PUSH2 0x11CE JUMPI PUSH1 0x0 DUP1 REVERT JUMPDEST PUSH1 0x2 DUP2 ADD SLOAD PUSH1 0x1 PUSH1 0x1 PUSH1 0xA0 SHL SUB AND CALLER EQ PUSH2 0x1245 JUMPI PUSH1 0x40 MLOAD PUSH3 0x461BCD PUSH1 0xE5 SHL DUP2 MSTORE PUSH1 0x20 PUSH1 0x4 DUP3 ADD MSTORE PUSH1 0x32 PUSH1 0x24 DUP3 ADD MSTORE PUSH32 0x4F726465722064656C697665727920666565206D75737420626520696E637265 PUSH1 0x44 DUP3 ADD MSTORE PUSH18 0x185CD95908189E481D1A194818DB1A595B9D PUSH1 0x72 SHL PUSH1 0x64 DUP3 ADD MSTORE PUSH1 0x84 ADD PUSH2 0x4E7 JUMP JUMPDEST CALLVALUE DUP2 PUSH1 0x6 ADD PUSH1 0x0 DUP3 DUP3 SLOAD PUSH2 0x1259 SWAP2 SWAP1 PUSH2 0x2283 JUMP JUMPDEST SWAP1 SWAP2 SSTORE POP POP POP POP JUMP JUMPDEST PUSH1 0x1 PUSH1 0x20 DUP2 SWAP1 MSTORE PUSH1 0x0 SWAP2 DUP3 MSTORE PUSH1 0x40 SWAP1 SWAP2 KECCAK256 DUP1 SLOAD SWAP2 DUP2 ADD SLOAD PUSH1 0x2 DUP3 ADD SLOAD PUSH1 0x3 DUP4 ADD SLOAD PUSH1 0x6 DUP5 ADD SLOAD PUSH1 0x7 DUP6 ADD SLOAD PUSH1 0x8 DUP7 ADD DUP1 SLOAD PUSH1 0x1 PUSH1 0x1 PUSH1 0xA0 SHL SUB SWAP7 DUP8 AND SWAP8 SWAP6 DUP8 AND SWAP7 SWAP1 SWAP5 AND SWAP5 SWAP3 SWAP4 SWAP2 SWAP3 SWAP2 PUSH2 0x12B5 SWAP1 PUSH2 0x2233 JUMP JUMPDEST DUP1 PUSH1 0x1F ADD PUSH1 0x20 DUP1 SWAP2 DIV MUL PUSH1 0x20 ADD PUSH1 0x40 MLOAD SWAP1 DUP2 ADD PUSH1 0x40 MSTORE DUP1 SWAP3 SWAP2 SWAP1 DUP2 DUP2 MSTORE PUSH1 0x20 ADD DUP3 DUP1 SLOAD PUSH2 0x12E1 SWAP1 PUSH2 0x2233 JUMP JUMPDEST DUP1 ISZERO PUSH2 0x132E JUMPI DUP1 PUSH1 0x1F LT PUSH2 0x1303 JUMPI PUSH2 0x100 DUP1 DUP4 SLOAD DIV MUL DUP4 MSTORE SWAP2 PUSH1 0x20 ADD SWAP2 PUSH2 0x132E JUMP JUMPDEST DUP3 ADD SWAP2 SWAP1 PUSH1 0x0 MSTORE PUSH1 0x20 PUSH1 0x0 KECCAK256 SWAP1 JUMPDEST DUP2 SLOAD DUP2 MSTORE SWAP1 PUSH1 0x1 ADD SWAP1 PUSH1 0x20 ADD DUP1 DUP4 GT PUSH2 0x1311 JUMPI DUP3 SWAP1 SUB PUSH1 0x1F AND DUP3 ADD SWAP2 JUMPDEST POP POP POP PUSH1 0x9 SWAP1 SWAP4 ADD SLOAD SWAP2 SWAP3 POP POP PUSH1 0xFF AND DUP9 JUMP JUMPDEST PUSH1 0x1 PUSH1 0x1 PUSH1 0xA0 SHL SUB DUP1 DUP10 AND PUSH1 0x0 SWAP1 DUP2 MSTORE PUSH1 0x20 DUP2 SWAP1 MSTORE PUSH1 0x40 SWAP1 KECCAK256 DUP1 SLOAD SWAP1 SWAP2 AND PUSH2 0x13AB JUMPI PUSH1 0x40 MLOAD PUSH3 0x461BCD PUSH1 0xE5 SHL DUP2 MSTORE PUSH1 0x20 PUSH1 0x4 DUP3 ADD MSTORE PUSH1 0x1A PUSH1 0x24 DUP3 ADD MSTORE PUSH32 0x496E76616C69642072657374617572616E742061646472657373000000000000 PUSH1 0x44 DUP3 ADD MSTORE PUSH1 0x64 ADD PUSH2 0x4E7 JUMP JUMPDEST PUSH1 0x0 DUP1 PUSH2 0x13BC DUP12 DUP12 DUP12 DUP12 DUP12 DUP12 PUSH2 0x818 JUMP JUMPDEST SWAP1 SWAP3 POP SWAP1 POP PUSH2 0x13CB DUP2 DUP4 PUSH2 0x2283 JUMP JUMPDEST CALLVALUE LT ISZERO PUSH2 0x1412 JUMPI PUSH1 0x40 MLOAD PUSH3 0x461BCD PUSH1 0xE5 SHL DUP2 MSTORE PUSH1 0x20 PUSH1 0x4 DUP3 ADD MSTORE PUSH1 0x15 PUSH1 0x24 DUP3 ADD MSTORE PUSH21 0x125B98DBDC9C9958DD08185B5BDD5B9D081C185A59 PUSH1 0x5A SHL PUSH1 0x44 DUP3 ADD MSTORE PUSH1 0x64 ADD PUSH2 0x4E7 JUMP JUMPDEST PUSH1 0x5 DUP1 SLOAD PUSH1 0x0 SWAP2 DUP3 PUSH2 0x1423 DUP4 PUSH2 0x2296 JUMP JUMPDEST SWAP2 SWAP1 POP SSTORE SWAP1 POP PUSH1 0x40 MLOAD DUP1 PUSH2 0x140 ADD PUSH1 0x40 MSTORE DUP1 DUP3 DUP2 MSTORE PUSH1 0x20 ADD DUP14 PUSH1 0x1 PUSH1 0x1 PUSH1 0xA0 SHL SUB AND DUP2 MSTORE PUSH1 0x20 ADD CALLER PUSH1 0x1 PUSH1 0x1 PUSH1 0xA0 SHL SUB AND DUP2 MSTORE PUSH1 0x20 ADD PUSH1 0x0 PUSH1 0x1 PUSH1 0x1 PUSH1 0xA0 SHL SUB AND DUP2 MSTORE PUSH1 0x20 ADD DUP13 DUP13 DUP1 DUP1 PUSH1 0x20 MUL PUSH1 0x20 ADD PUSH1 0x40 MLOAD SWAP1 DUP2 ADD PUSH1 0x40 MSTORE DUP1 SWAP4 SWAP3 SWAP2 SWAP1 DUP2 DUP2 MSTORE PUSH1 0x20 ADD DUP4 DUP4 PUSH1 0x20 MUL DUP1 DUP3 DUP5 CALLDATACOPY PUSH1 0x0 SWAP3 ADD SWAP2 SWAP1 SWAP2 MSTORE POP POP POP SWAP1 DUP3 MSTORE POP PUSH1 0x40 DUP1 MLOAD PUSH1 0x20 DUP13 DUP2 MUL DUP3 DUP2 ADD DUP3 ADD SWAP1 SWAP4 MSTORE DUP13 DUP3 MSTORE SWAP3 DUP4 ADD SWAP3 SWAP1 SWAP2 DUP14 SWAP2 DUP14 SWAP2 DUP3 SWAP2 DUP6 ADD SWAP1 DUP5 SWAP1 DUP1 DUP3 DUP5 CALLDATACOPY PUSH1 0x0 SWAP3 ADD SWAP2 SWAP1 SWAP2 MSTORE POP POP POP SWAP1 DUP3 MSTORE POP PUSH1 0x20 DUP1 DUP3 ADD DUP6 SWAP1 MSTORE PUSH1 0x40 DUP1 DUP4 ADD DUP8 SWAP1 MSTORE DUP1 MLOAD PUSH1 0x1F DUP11 ADD DUP4 SWAP1 DIV DUP4 MUL DUP2 ADD DUP4 ADD SWAP1 SWAP2 MSTORE DUP9 DUP2 MSTORE PUSH1 0x60 SWAP1 SWAP3 ADD SWAP2 SWAP1 DUP10 SWAP1 DUP10 SWAP1 DUP2 SWAP1 DUP5 ADD DUP4 DUP3 DUP1 DUP3 DUP5 CALLDATACOPY PUSH1 0x0 SWAP3 ADD DUP3 SWAP1 MSTORE POP SWAP4 DUP6 MSTORE POP POP PUSH1 0x20 SWAP1 SWAP3 ADD SWAP2 POP SWAP1 MSTORE PUSH1 0x0 DUP3 DUP2 MSTORE PUSH1 0x1 PUSH1 0x20 DUP2 DUP2 MSTORE PUSH1 0x40 SWAP3 DUP4 SWAP1 KECCAK256 DUP5 MLOAD DUP2 SSTORE DUP5 DUP3 ADD MLOAD SWAP3 DUP2 ADD DUP1 SLOAD PUSH1 0x1 PUSH1 0x1 PUSH1 0xA0 SHL SUB SWAP5 DUP6 AND PUSH1 0x1 PUSH1 0x1 PUSH1 0xA0 SHL SUB NOT SWAP2 DUP3 AND OR SWAP1 SWAP2 SSTORE SWAP4 DUP6 ADD MLOAD PUSH1 0x2 DUP3 ADD DUP1 SLOAD SWAP2 DUP6 AND SWAP2 DUP7 AND SWAP2 SWAP1 SWAP2 OR SWAP1 SSTORE PUSH1 0x60 DUP6 ADD MLOAD PUSH1 0x3 DUP3 ADD DUP1 SLOAD SWAP2 SWAP1 SWAP5 AND SWAP5 AND SWAP4 SWAP1 SWAP4 OR SWAP1 SWAP2 SSTORE PUSH1 0x80 DUP4 ADD MLOAD DUP1 MLOAD PUSH2 0x15A6 SWAP3 PUSH1 0x4 DUP6 ADD SWAP3 ADD SWAP1 PUSH2 0x1ABF JUMP JUMPDEST POP PUSH1 0xA0 DUP3 ADD MLOAD DUP1 MLOAD PUSH2 0x15C2 SWAP2 PUSH1 0x5 DUP5 ADD SWAP2 PUSH1 0x20 SWAP1 SWAP2 ADD SWAP1 PUSH2 0x1ABF JUMP JUMPDEST POP PUSH1 0xC0 DUP3 ADD MLOAD PUSH1 0x6 DUP3 ADD SSTORE PUSH1 0xE0 DUP3 ADD MLOAD PUSH1 0x7 DUP3 ADD SSTORE PUSH2 0x100 DUP3 ADD MLOAD PUSH1 0x8 DUP3 ADD SWAP1 PUSH2 0x15EC SWAP1 DUP3 PUSH2 0x240C JUMP JUMPDEST POP PUSH2 0x120 DUP3 ADD MLOAD PUSH1 0x9 DUP3 ADD DUP1 SLOAD PUSH1 0xFF NOT AND PUSH1 0x1 DUP4 PUSH1 0x6 DUP2 GT ISZERO PUSH2 0x1611 JUMPI PUSH2 0x1611 PUSH2 0x1EDB JUMP JUMPDEST MUL OR SWAP1 SSTORE POP POP POP POP POP POP POP POP POP POP POP POP POP POP POP JUMP JUMPDEST PUSH1 0x4 DUP2 DUP2 SLOAD DUP2 LT PUSH2 0x10D8 JUMPI PUSH1 0x0 DUP1 REVERT JUMPDEST PUSH1 0x0 DUP2 DUP2 MSTORE PUSH1 0x1 PUSH1 0x20 MSTORE PUSH1 0x40 SWAP1 KECCAK256 DUP1 SLOAD DUP3 EQ PUSH2 0x1664 JUMPI PUSH1 0x40 MLOAD PUSH3 0x461BCD PUSH1 0xE5 SHL DUP2 MSTORE PUSH1 0x4 ADD PUSH2 0x4E7 SWAP1 PUSH2 0x2022 JUMP JUMPDEST PUSH1 0x1 DUP2 ADD SLOAD PUSH1 0x1 PUSH1 0x1 PUSH1 0xA0 SHL SUB AND CALLER EQ PUSH2 0x16D2 JUMPI PUSH1 0x40 MLOAD PUSH3 0x461BCD PUSH1 0xE5 SHL DUP2 MSTORE PUSH1 0x20 PUSH1 0x4 DUP3 ADD MSTORE PUSH1 0x29 PUSH1 0x24 DUP3 ADD MSTORE PUSH32 0x4F6E6C79207468652072657374617572616E742063616E206465636C696E6520 PUSH1 0x44 DUP3 ADD MSTORE PUSH9 0x3A34329037B93232B9 PUSH1 0xB9 SHL PUSH1 0x64 DUP3 ADD MSTORE PUSH1 0x84 ADD PUSH2 0x4E7 JUMP JUMPDEST PUSH1 0x0 PUSH1 0x9 DUP3 ADD SLOAD PUSH1 0xFF AND PUSH1 0x6 DUP2 GT ISZERO PUSH2 0x16ED JUMPI PUSH2 0x16ED PUSH2 0x1EDB JUMP JUMPDEST EQ PUSH2 0x1732 JUMPI PUSH1 0x40 MLOAD PUSH3 0x461BCD PUSH1 0xE5 SHL DUP2 MSTORE PUSH1 0x20 PUSH1 0x4 DUP3 ADD MSTORE PUSH1 0x15 PUSH1 0x24 DUP3 ADD MSTORE PUSH21 0x4F72646572206D7573742062652070656E64696E67 PUSH1 0x58 SHL PUSH1 0x44 DUP3 ADD MSTORE PUSH1 0x64 ADD PUSH2 0x4E7 JUMP JUMPDEST PUSH1 0x2 DUP2 ADD SLOAD PUSH1 0x6 DUP3 ADD SLOAD PUSH1 0x7 DUP4 ADD SLOAD PUSH1 0x1 PUSH1 0x1 PUSH1 0xA0 SHL SUB SWAP1 SWAP3 AND SWAP2 DUP3 SWAP2 PUSH2 0x8FC SWAP2 PUSH2 0x175D SWAP2 SWAP1 PUSH2 0x2283 JUMP JUMPDEST PUSH1 0x40 MLOAD DUP2 ISZERO SWAP1 SWAP3 MUL SWAP2 PUSH1 0x0 DUP2 DUP2 DUP2 DUP6 DUP9 DUP9 CALL SWAP4 POP POP POP POP PUSH2 0x1790 JUMPI PUSH1 0x40 MLOAD PUSH3 0x461BCD PUSH1 0xE5 SHL DUP2 MSTORE PUSH1 0x4 ADD PUSH2 0x4E7 SWAP1 PUSH2 0x23D5 JUMP JUMPDEST POP PUSH1 0x9 ADD DUP1 SLOAD PUSH1 0xFF NOT AND PUSH1 0x6 OR SWAP1 SSTORE POP JUMP JUMPDEST PUSH1 0x0 DUP2 DUP2 MSTORE PUSH1 0x1 PUSH1 0x20 MSTORE PUSH1 0x40 SWAP1 KECCAK256 DUP1 SLOAD DUP3 EQ PUSH2 0x17D0 JUMPI PUSH1 0x40 MLOAD PUSH3 0x461BCD PUSH1 0xE5 SHL DUP2 MSTORE PUSH1 0x4 ADD PUSH2 0x4E7 SWAP1 PUSH2 0x2022 JUMP JUMPDEST PUSH1 0x4 PUSH1 0x9 DUP3 ADD SLOAD PUSH1 0xFF AND PUSH1 0x6 DUP2 GT ISZERO PUSH2 0x17EB JUMPI PUSH2 0x17EB PUSH2 0x1EDB JUMP JUMPDEST EQ PUSH2 0x17F5 JUMPI PUSH1 0x0 DUP1 REVERT JUMPDEST PUSH1 0x2 DUP2 ADD SLOAD PUSH1 0x1 PUSH1 0x1 PUSH1 0xA0 SHL SUB AND CALLER EQ PUSH2 0x1864 JUMPI PUSH1 0x40 MLOAD PUSH3 0x461BCD PUSH1 0xE5 SHL DUP2 MSTORE PUSH1 0x20 PUSH1 0x4 DUP3 ADD MSTORE PUSH1 0x2A PUSH1 0x24 DUP3 ADD MSTORE PUSH32 0x4F726465722064656C6976657279206D75737420626520636F6E6669726D6564 PUSH1 0x44 DUP3 ADD MSTORE PUSH10 0x8189E4818DB1A595B9D PUSH1 0xB2 SHL PUSH1 0x64 DUP3 ADD MSTORE PUSH1 0x84 ADD PUSH2 0x4E7 JUMP JUMPDEST PUSH1 0x9 DUP2 ADD DUP1 SLOAD PUSH1 0x5 SWAP2 SWAP1 PUSH1 0xFF NOT AND PUSH1 0x1 DUP4 PUSH2 0x59F JUMP JUMPDEST PUSH1 0x0 DUP2 DUP2 MSTORE PUSH1 0x1 PUSH1 0x20 MSTORE PUSH1 0x40 SWAP1 KECCAK256 DUP1 SLOAD DUP3 EQ PUSH2 0x18A8 JUMPI PUSH1 0x40 MLOAD PUSH3 0x461BCD PUSH1 0xE5 SHL DUP2 MSTORE PUSH1 0x4 ADD PUSH2 0x4E7 SWAP1 PUSH2 0x2022 JUMP JUMPDEST PUSH1 0x1 DUP2 ADD SLOAD PUSH1 0x1 PUSH1 0x1 PUSH1 0xA0 SHL SUB AND CALLER EQ PUSH2 0x192A JUMPI PUSH1 0x40 MLOAD PUSH3 0x461BCD PUSH1 0xE5 SHL DUP2 MSTORE PUSH1 0x20 PUSH1 0x4 DUP3 ADD MSTORE PUSH1 0x3E PUSH1 0x24 DUP3 ADD MSTORE PUSH32 0x4F6E6C79207468652072657374617572616E7420666F72207768696368207468 PUSH1 0x44 DUP3 ADD MSTORE PUSH32 0x65206F7264657220776173206D6164652063616E206163636570742069740000 PUSH1 0x64 DUP3 ADD MSTORE PUSH1 0x84 ADD PUSH2 0x4E7 JUMP JUMPDEST PUSH1 0x0 PUSH1 0x9 DUP3 ADD SLOAD PUSH1 0xFF AND PUSH1 0x6 DUP2 GT ISZERO PUSH2 0x1945 JUMPI PUSH2 0x1945 PUSH2 0x1EDB JUMP JUMPDEST EQ PUSH2 0x19B1 JUMPI PUSH1 0x40 MLOAD PUSH3 0x461BCD PUSH1 0xE5 SHL DUP2 MSTORE PUSH1 0x20 PUSH1 0x4 DUP3 ADD MSTORE PUSH1 0x36 PUSH1 0x24 DUP3 ADD MSTORE PUSH32 0x43616E206F6E6C7920616363657074206F726465727320666F72207768696368 PUSH1 0x44 DUP3 ADD MSTORE PUSH22 0x20746865207374617475732069732050454E44494E47 PUSH1 0x50 SHL PUSH1 0x64 DUP3 ADD MSTORE PUSH1 0x84 ADD PUSH2 0x4E7 JUMP JUMPDEST PUSH1 0x9 DUP2 ADD DUP1 SLOAD PUSH1 0x1 SWAP2 SWAP1 PUSH1 0xFF NOT AND DUP3 DUP1 PUSH2 0x59F JUMP JUMPDEST PUSH1 0x0 DUP2 DUP2 MSTORE PUSH1 0x1 PUSH1 0x20 MSTORE PUSH1 0x40 SWAP1 KECCAK256 DUP1 SLOAD DUP3 EQ PUSH2 0x19F4 JUMPI PUSH1 0x40 MLOAD PUSH3 0x461BCD PUSH1 0xE5 SHL DUP2 MSTORE PUSH1 0x4 ADD PUSH2 0x4E7 SWAP1 PUSH2 0x2022 JUMP JUMPDEST PUSH1 0x2 PUSH1 0x9 DUP3 ADD SLOAD PUSH1 0xFF AND PUSH1 0x6 DUP2 GT ISZERO PUSH2 0x1A0F JUMPI PUSH2 0x1A0F PUSH2 0x1EDB JUMP JUMPDEST EQ PUSH2 0x1A19 JUMPI PUSH1 0x0 DUP1 REVERT JUMPDEST PUSH1 0x1 DUP2 ADD SLOAD PUSH1 0x1 PUSH1 0x1 PUSH1 0xA0 SHL SUB AND CALLER EQ PUSH2 0x1AA9 JUMPI PUSH1 0x40 MLOAD PUSH3 0x461BCD PUSH1 0xE5 SHL DUP2 MSTORE PUSH1 0x20 PUSH1 0x4 DUP3 ADD MSTORE PUSH1 0x44 PUSH1 0x24 DUP3 ADD DUP2 SWAP1 MSTORE PUSH32 0x4F72646572206D757374206265206D61726B656420726561647920746F206465 SWAP1 DUP3 ADD MSTORE PUSH32 0x6C69766572206279207468652072657374617572616E74206F6620746865206F PUSH1 0x64 DUP3 ADD MSTORE PUSH4 0x393232B9 PUSH1 0xE1 SHL PUSH1 0x84 DUP3 ADD MSTORE PUSH1 0xA4 ADD PUSH2 0x4E7 JUMP JUMPDEST PUSH1 0x9 DUP2 ADD DUP1 SLOAD PUSH1 0x3 SWAP2 SWAP1 PUSH1 0xFF NOT AND PUSH1 0x1 DUP4 PUSH2 0x59F JUMP JUMPDEST DUP3 DUP1 SLOAD DUP3 DUP3 SSTORE SWAP1 PUSH1 0x0 MSTORE PUSH1 0x20 PUSH1 0x0 KECCAK256 SWAP1 DUP2 ADD SWAP3 DUP3 ISZERO PUSH2 0x1AFA JUMPI SWAP2 PUSH1 0x20 MUL DUP3 ADD JUMPDEST DUP3 DUP2 GT ISZERO PUSH2 0x1AFA JUMPI DUP3 MLOAD DUP3 SSTORE SWAP2 PUSH1 0x20 ADD SWAP2 SWAP1 PUSH1 0x1 ADD SWAP1 PUSH2 0x1ADF JUMP JUMPDEST POP PUSH2 0x1B06 SWAP3 SWAP2 POP PUSH2 0x1B0A JUMP JUMPDEST POP SWAP1 JUMP JUMPDEST JUMPDEST DUP1 DUP3 GT ISZERO PUSH2 0x1B06 JUMPI PUSH1 0x0 DUP2 SSTORE PUSH1 0x1 ADD PUSH2 0x1B0B JUMP JUMPDEST PUSH1 0x0 PUSH1 0x20 DUP3 DUP5 SUB SLT ISZERO PUSH2 0x1B31 JUMPI PUSH1 0x0 DUP1 REVERT JUMPDEST POP CALLDATALOAD SWAP2 SWAP1 POP JUMP JUMPDEST DUP1 CALLDATALOAD PUSH1 0x1 PUSH1 0x1 PUSH1 0xA0 SHL SUB DUP2 AND DUP2 EQ PUSH2 0x1B4F JUMPI PUSH1 0x0 DUP1 REVERT JUMPDEST SWAP2 SWAP1 POP JUMP JUMPDEST PUSH1 0x0 PUSH1 0x20 DUP3 DUP5 SUB SLT ISZERO PUSH2 0x1B66 JUMPI PUSH1 0x0 DUP1 REVERT JUMPDEST PUSH2 0x1B6F DUP3 PUSH2 0x1B38 JUMP JUMPDEST SWAP4 SWAP3 POP POP POP JUMP JUMPDEST PUSH1 0x0 DUP2 MLOAD DUP1 DUP5 MSTORE PUSH1 0x0 JUMPDEST DUP2 DUP2 LT ISZERO PUSH2 0x1B9C JUMPI PUSH1 0x20 DUP2 DUP6 ADD DUP2 ADD MLOAD DUP7 DUP4 ADD DUP3 ADD MSTORE ADD PUSH2 0x1B80 JUMP JUMPDEST POP PUSH1 0x0 PUSH1 0x20 DUP3 DUP7 ADD ADD MSTORE PUSH1 0x20 PUSH1 0x1F NOT PUSH1 0x1F DUP4 ADD AND DUP6 ADD ADD SWAP2 POP POP SWAP3 SWAP2 POP POP JUMP JUMPDEST PUSH1 0x1 PUSH1 0x1 PUSH1 0xA0 SHL SUB DUP5 AND DUP2 MSTORE PUSH1 0x60 PUSH1 0x20 DUP3 ADD DUP2 SWAP1 MSTORE PUSH1 0x0 SWAP1 PUSH2 0x1BE0 SWAP1 DUP4 ADD DUP6 PUSH2 0x1B76 JUMP JUMPDEST DUP3 DUP2 SUB PUSH1 0x40 DUP5 ADD MSTORE PUSH2 0x1BF2 DUP2 DUP6 PUSH2 0x1B76 JUMP JUMPDEST SWAP7 SWAP6 POP POP POP POP POP POP JUMP JUMPDEST PUSH1 0x0 DUP1 DUP4 PUSH1 0x1F DUP5 ADD SLT PUSH2 0x1C0E JUMPI PUSH1 0x0 DUP1 REVERT JUMPDEST POP DUP2 CALLDATALOAD PUSH8 0xFFFFFFFFFFFFFFFF DUP2 GT ISZERO PUSH2 0x1C26 JUMPI PUSH1 0x0 DUP1 REVERT JUMPDEST PUSH1 0x20 DUP4 ADD SWAP2 POP DUP4 PUSH1 0x20 DUP3 PUSH1 0x5 SHL DUP6 ADD ADD GT ISZERO PUSH2 0x1C41 JUMPI PUSH1 0x0 DUP1 REVERT JUMPDEST SWAP3 POP SWAP3 SWAP1 POP JUMP JUMPDEST PUSH1 0x0 DUP1 PUSH1 0x0 DUP1 PUSH1 0x0 DUP1 PUSH1 0x80 DUP8 DUP10 SUB SLT ISZERO PUSH2 0x1C61 JUMPI PUSH1 0x0 DUP1 REVERT JUMPDEST PUSH2 0x1C6A DUP8 PUSH2 0x1B38 JUMP JUMPDEST SWAP6 POP PUSH1 0x20 DUP8 ADD CALLDATALOAD PUSH8 0xFFFFFFFFFFFFFFFF DUP1 DUP3 GT ISZERO PUSH2 0x1C87 JUMPI PUSH1 0x0 DUP1 REVERT JUMPDEST PUSH2 0x1C93 DUP11 DUP4 DUP12 ADD PUSH2 0x1BFC JUMP JUMPDEST SWAP1 SWAP8 POP SWAP6 POP PUSH1 0x40 DUP10 ADD CALLDATALOAD SWAP2 POP DUP1 DUP3 GT ISZERO PUSH2 0x1CAC JUMPI PUSH1 0x0 DUP1 REVERT JUMPDEST POP PUSH2 0x1CB9 DUP10 DUP3 DUP11 ADD PUSH2 0x1BFC JUMP JUMPDEST SWAP8 SWAP11 SWAP7 SWAP10 POP SWAP5 SWAP8 SWAP5 SWAP7 SWAP6 PUSH1 0x60 SWAP1 SWAP6 ADD CALLDATALOAD SWAP5 SWAP4 POP POP POP POP JUMP JUMPDEST PUSH1 0x0 DUP1 DUP4 PUSH1 0x1F DUP5 ADD SLT PUSH2 0x1CE3 JUMPI PUSH1 0x0 DUP1 REVERT JUMPDEST POP DUP2 CALLDATALOAD PUSH8 0xFFFFFFFFFFFFFFFF DUP2 GT ISZERO PUSH2 0x1CFB JUMPI PUSH1 0x0 DUP1 REVERT JUMPDEST PUSH1 0x20 DUP4 ADD SWAP2 POP DUP4 PUSH1 0x20 DUP3 DUP6 ADD ADD GT ISZERO PUSH2 0x1C41 JUMPI PUSH1 0x0 DUP1 REVERT JUMPDEST PUSH1 0x0 DUP1 PUSH1 0x20 DUP4 DUP6 SUB SLT ISZERO PUSH2 0x1D26 JUMPI PUSH1 0x0 DUP1 REVERT JUMPDEST DUP3 CALLDATALOAD PUSH8 0xFFFFFFFFFFFFFFFF DUP2 GT ISZERO PUSH2 0x1D3D JUMPI PUSH1 0x0 DUP1 REVERT JUMPDEST PUSH2 0x1D49 DUP6 DUP3 DUP7 ADD PUSH2 0x1CD1 JUMP JUMPDEST SWAP1 SWAP7 SWAP1 SWAP6 POP SWAP4 POP POP POP POP JUMP JUMPDEST PUSH1 0x1 PUSH1 0x1 PUSH1 0xA0 SHL SUB DUP4 AND DUP2 MSTORE PUSH1 0x40 PUSH1 0x20 DUP3 ADD DUP2 SWAP1 MSTORE PUSH1 0x0 SWAP1 PUSH2 0x1D79 SWAP1 DUP4 ADD DUP5 PUSH2 0x1B76 JUMP JUMPDEST SWAP5 SWAP4 POP POP POP POP JUMP JUMPDEST PUSH1 0x0 DUP1 PUSH1 0x40 DUP4 DUP6 SUB SLT ISZERO PUSH2 0x1D94 JUMPI PUSH1 0x0 DUP1 REVERT JUMPDEST PUSH2 0x1D9D DUP4 PUSH2 0x1B38 JUMP JUMPDEST SWAP5 PUSH1 0x20 SWAP4 SWAP1 SWAP4 ADD CALLDATALOAD SWAP4 POP POP POP JUMP JUMPDEST PUSH1 0x20 DUP2 MSTORE DUP2 MLOAD PUSH1 0x20 DUP3 ADD MSTORE PUSH1 0x0 PUSH1 0x20 DUP4 ADD MLOAD PUSH1 0x80 PUSH1 0x40 DUP5 ADD MSTORE PUSH2 0x1DD1 PUSH1 0xA0 DUP5 ADD DUP3 PUSH2 0x1B76 JUMP JUMPDEST SWAP1 POP PUSH1 0x40 DUP5 ADD MLOAD PUSH1 0x1F NOT DUP5 DUP4 SUB ADD PUSH1 0x60 DUP6 ADD MSTORE PUSH2 0x1DEE DUP3 DUP3 PUSH2 0x1B76 JUMP JUMPDEST SWAP2 POP POP PUSH1 0x60 DUP5 ADD MLOAD PUSH1 0x80 DUP5 ADD MSTORE DUP1 SWAP2 POP POP SWAP3 SWAP2 POP POP JUMP JUMPDEST PUSH1 0x0 DUP1 PUSH1 0x0 DUP1 PUSH1 0x0 DUP1 PUSH1 0x80 DUP8 DUP10 SUB SLT ISZERO PUSH2 0x1E1E JUMPI PUSH1 0x0 DUP1 REVERT JUMPDEST DUP7 CALLDATALOAD SWAP6 POP PUSH1 0x20 DUP8 ADD CALLDATALOAD PUSH8 0xFFFFFFFFFFFFFFFF DUP1 DUP3 GT ISZERO PUSH2 0x1E3D JUMPI PUSH1 0x0 DUP1 REVERT JUMPDEST PUSH2 0x1E49 DUP11 DUP4 DUP12 ADD PUSH2 0x1CD1 JUMP JUMPDEST SWAP1 SWAP8 POP SWAP6 POP PUSH1 0x40 DUP10 ADD CALLDATALOAD SWAP2 POP DUP1 DUP3 GT ISZERO PUSH2 0x1E62 JUMPI PUSH1 0x0 DUP1 REVERT JUMPDEST POP PUSH2 0x1CB9 DUP10 DUP3 DUP11 ADD PUSH2 0x1CD1 JUMP JUMPDEST PUSH1 0x0 DUP1 PUSH1 0x0 DUP1 PUSH1 0x40 DUP6 DUP8 SUB SLT ISZERO PUSH2 0x1E85 JUMPI PUSH1 0x0 DUP1 REVERT JUMPDEST DUP5 CALLDATALOAD PUSH8 0xFFFFFFFFFFFFFFFF DUP1 DUP3 GT ISZERO PUSH2 0x1E9D JUMPI PUSH1 0x0 DUP1 REVERT JUMPDEST PUSH2 0x1EA9 DUP9 DUP4 DUP10 ADD PUSH2 0x1CD1 JUMP JUMPDEST SWAP1 SWAP7 POP SWAP5 POP PUSH1 0x20 DUP8 ADD CALLDATALOAD SWAP2 POP DUP1 DUP3 GT ISZERO PUSH2 0x1EC2 JUMPI PUSH1 0x0 DUP1 REVERT JUMPDEST POP PUSH2 0x1ECF DUP8 DUP3 DUP9 ADD PUSH2 0x1CD1 JUMP JUMPDEST SWAP6 SWAP9 SWAP5 SWAP8 POP SWAP6 POP POP POP POP JUMP JUMPDEST PUSH4 0x4E487B71 PUSH1 0xE0 SHL PUSH1 0x0 MSTORE PUSH1 0x21 PUSH1 0x4 MSTORE PUSH1 0x24 PUSH1 0x0 REVERT JUMPDEST DUP9 DUP2 MSTORE PUSH1 0x1 PUSH1 0x1 PUSH1 0xA0 SHL SUB DUP9 DUP2 AND PUSH1 0x20 DUP4 ADD MSTORE DUP8 DUP2 AND PUSH1 0x40 DUP4 ADD MSTORE DUP7 AND PUSH1 0x60 DUP3 ADD MSTORE PUSH1 0x80 DUP2 ADD DUP6 SWAP1 MSTORE PUSH1 0xA0 DUP2 ADD DUP5 SWAP1 MSTORE PUSH2 0x100 PUSH1 0xC0 DUP3 ADD DUP2 SWAP1 MSTORE PUSH1 0x0 SWAP1 PUSH2 0x1F3A DUP4 DUP3 ADD DUP7 PUSH2 0x1B76 JUMP JUMPDEST SWAP2 POP POP PUSH1 0x7 DUP4 LT PUSH2 0x1F5B JUMPI PUSH4 0x4E487B71 PUSH1 0xE0 SHL PUSH1 0x0 MSTORE PUSH1 0x21 PUSH1 0x4 MSTORE PUSH1 0x24 PUSH1 0x0 REVERT JUMPDEST DUP3 PUSH1 0xE0 DUP4 ADD MSTORE SWAP10 SWAP9 POP POP POP POP POP POP POP POP POP JUMP JUMPDEST PUSH1 0x0 DUP1 PUSH1 0x0 DUP1 PUSH1 0x0 DUP1 PUSH1 0x0 DUP1 PUSH1 0xA0 DUP10 DUP12 SUB SLT ISZERO PUSH2 0x1F8A JUMPI PUSH1 0x0 DUP1 REVERT JUMPDEST PUSH2 0x1F93 DUP10 PUSH2 0x1B38 JUMP JUMPDEST SWAP8 POP PUSH1 0x20 DUP10 ADD CALLDATALOAD PUSH8 0xFFFFFFFFFFFFFFFF DUP1 DUP3 GT ISZERO PUSH2 0x1FB0 JUMPI PUSH1 0x0 DUP1 REVERT JUMPDEST PUSH2 0x1FBC DUP13 DUP4 DUP14 ADD PUSH2 0x1BFC JUMP JUMPDEST SWAP1 SWAP10 POP SWAP8 POP PUSH1 0x40 DUP12 ADD CALLDATALOAD SWAP2 POP DUP1 DUP3 GT ISZERO PUSH2 0x1FD5 JUMPI PUSH1 0x0 DUP1 REVERT JUMPDEST PUSH2 0x1FE1 DUP13 DUP4 DUP14 ADD PUSH2 0x1BFC JUMP JUMPDEST SWAP1 SWAP8 POP SWAP6 POP PUSH1 0x60 DUP12 ADD CALLDATALOAD SWAP5 POP PUSH1 0x80 DUP12 ADD CALLDATALOAD SWAP2 POP DUP1 DUP3 GT ISZERO PUSH2 0x2001 JUMPI PUSH1 0x0 DUP1 REVERT JUMPDEST POP PUSH2 0x200E DUP12 DUP3 DUP13 ADD PUSH2 0x1CD1 JUMP JUMPDEST SWAP10 SWAP13 SWAP9 SWAP12 POP SWAP7 SWAP10 POP SWAP5 SWAP8 SWAP4 SWAP7 SWAP3 SWAP6 SWAP5 POP POP POP JUMP JUMPDEST PUSH1 0x20 DUP1 DUP3 MSTORE PUSH1 0x22 SWAP1 DUP3 ADD MSTORE PUSH32 0x4F72646572207769746820676976656E20696420646F6573206E6F7420657869 PUSH1 0x40 DUP3 ADD MSTORE PUSH2 0x1CDD PUSH1 0xF2 SHL PUSH1 0x60 DUP3 ADD MSTORE PUSH1 0x80 ADD SWAP1 JUMP JUMPDEST DUP1 MLOAD PUSH10 0xFFFFFFFFFFFFFFFFFFFF DUP2 AND DUP2 EQ PUSH2 0x1B4F JUMPI PUSH1 0x0 DUP1 REVERT JUMPDEST PUSH1 0x0 DUP1 PUSH1 0x0 DUP1 PUSH1 0x0 PUSH1 0xA0 DUP7 DUP9 SUB SLT ISZERO PUSH2 0x2096 JUMPI PUSH1 0x0 DUP1 REVERT JUMPDEST PUSH2 0x209F DUP7 PUSH2 0x2064 JUMP JUMPDEST SWAP5 POP PUSH1 0x20 DUP7 ADD MLOAD SWAP4 POP PUSH1 0x40 DUP7 ADD MLOAD SWAP3 POP PUSH1 0x60 DUP7 ADD MLOAD SWAP2 POP PUSH2 0x20C2 PUSH1 0x80 DUP8 ADD PUSH2 0x2064 JUMP JUMPDEST SWAP1 POP SWAP3 SWAP6 POP SWAP3 SWAP6 SWAP1 SWAP4 POP JUMP JUMPDEST PUSH1 0x0 PUSH1 0x20 DUP3 DUP5 SUB SLT ISZERO PUSH2 0x20E0 JUMPI PUSH1 0x0 DUP1 REVERT JUMPDEST DUP2 MLOAD PUSH1 0xFF DUP2 AND DUP2 EQ PUSH2 0x1B6F JUMPI PUSH1 0x0 DUP1 REVERT JUMPDEST PUSH4 0x4E487B71 PUSH1 0xE0 SHL PUSH1 0x0 MSTORE PUSH1 0x11 PUSH1 0x4 MSTORE PUSH1 0x24 PUSH1 0x0 REVERT JUMPDEST PUSH1 0x0 DUP3 PUSH2 0x2124 JUMPI PUSH4 0x4E487B71 PUSH1 0xE0 SHL PUSH1 0x0 MSTORE PUSH1 0x12 PUSH1 0x4 MSTORE PUSH1 0x24 PUSH1 0x0 REVERT JUMPDEST POP DIV SWAP1 JUMP JUMPDEST PUSH1 0x1 DUP2 DUP2 JUMPDEST DUP1 DUP6 GT ISZERO PUSH2 0x2164 JUMPI DUP2 PUSH1 0x0 NOT DIV DUP3 GT ISZERO PUSH2 0x214A JUMPI PUSH2 0x214A PUSH2 0x20F1 JUMP JUMPDEST DUP1 DUP6 AND ISZERO PUSH2 0x2157 JUMPI SWAP2 DUP2 MUL SWAP2 JUMPDEST SWAP4 DUP5 SHR SWAP4 SWAP1 DUP1 MUL SWAP1 PUSH2 0x212E JUMP JUMPDEST POP SWAP3 POP SWAP3 SWAP1 POP JUMP JUMPDEST PUSH1 0x0 DUP3 PUSH2 0x217B JUMPI POP PUSH1 0x1 PUSH2 0xFCA JUMP JUMPDEST DUP2 PUSH2 0x2188 JUMPI POP PUSH1 0x0 PUSH2 0xFCA JUMP JUMPDEST DUP2 PUSH1 0x1 DUP2 EQ PUSH2 0x219E JUMPI PUSH1 0x2 DUP2 EQ PUSH2 0x21A8 JUMPI PUSH2 0x21C4 JUMP JUMPDEST PUSH1 0x1 SWAP2 POP POP PUSH2 0xFCA JUMP JUMPDEST PUSH1 0xFF DUP5 GT ISZERO PUSH2 0x21B9 JUMPI PUSH2 0x21B9 PUSH2 0x20F1 JUMP JUMPDEST POP POP PUSH1 0x1 DUP3 SHL PUSH2 0xFCA JUMP JUMPDEST POP PUSH1 0x20 DUP4 LT PUSH2 0x133 DUP4 LT AND PUSH1 0x4E DUP5 LT PUSH1 0xB DUP5 LT AND OR ISZERO PUSH2 0x21E7 JUMPI POP DUP2 DUP2 EXP PUSH2 0xFCA JUMP JUMPDEST PUSH2 0x21F1 DUP4 DUP4 PUSH2 0x2129 JUMP JUMPDEST DUP1 PUSH1 0x0 NOT DIV DUP3 GT ISZERO PUSH2 0x2205 JUMPI PUSH2 0x2205 PUSH2 0x20F1 JUMP JUMPDEST MUL SWAP4 SWAP3 POP POP POP JUMP JUMPDEST PUSH1 0x0 PUSH2 0x1B6F PUSH1 0xFF DUP5 AND DUP4 PUSH2 0x216C JUMP JUMPDEST DUP1 DUP3 MUL DUP2 ISZERO DUP3 DUP3 DIV DUP5 EQ OR PUSH2 0xFCA JUMPI PUSH2 0xFCA PUSH2 0x20F1 JUMP JUMPDEST PUSH1 0x1 DUP2 DUP2 SHR SWAP1 DUP3 AND DUP1 PUSH2 0x2247 JUMPI PUSH1 0x7F DUP3 AND SWAP2 POP JUMPDEST PUSH1 0x20 DUP3 LT DUP2 SUB PUSH2 0x2267 JUMPI PUSH4 0x4E487B71 PUSH1 0xE0 SHL PUSH1 0x0 MSTORE PUSH1 0x22 PUSH1 0x4 MSTORE PUSH1 0x24 PUSH1 0x0 REVERT JUMPDEST POP SWAP2 SWAP1 POP JUMP JUMPDEST PUSH4 0x4E487B71 PUSH1 0xE0 SHL PUSH1 0x0 MSTORE PUSH1 0x32 PUSH1 0x4 MSTORE PUSH1 0x24 PUSH1 0x0 REVERT JUMPDEST DUP1 DUP3 ADD DUP1 DUP3 GT ISZERO PUSH2 0xFCA JUMPI PUSH2 0xFCA PUSH2 0x20F1 JUMP JUMPDEST PUSH1 0x0 PUSH1 0x1 DUP3 ADD PUSH2 0x22A8 JUMPI PUSH2 0x22A8 PUSH2 0x20F1 JUMP JUMPDEST POP PUSH1 0x1 ADD SWAP1 JUMP JUMPDEST PUSH4 0x4E487B71 PUSH1 0xE0 SHL PUSH1 0x0 MSTORE PUSH1 0x41 PUSH1 0x4 MSTORE PUSH1 0x24 PUSH1 0x0 REVERT JUMPDEST PUSH1 0x1F DUP3 GT ISZERO PUSH2 0x230F JUMPI PUSH1 0x0 DUP2 DUP2 MSTORE PUSH1 0x20 DUP2 KECCAK256 PUSH1 0x1F DUP6 ADD PUSH1 0x5 SHR DUP2 ADD PUSH1 0x20 DUP7 LT ISZERO PUSH2 0x22EC JUMPI POP DUP1 JUMPDEST PUSH1 0x1F DUP6 ADD PUSH1 0x5 SHR DUP3 ADD SWAP2 POP JUMPDEST DUP2 DUP2 LT ISZERO PUSH2 0x230B JUMPI DUP3 DUP2 SSTORE PUSH1 0x1 ADD PUSH2 0x22F8 JUMP JUMPDEST POP POP POP JUMPDEST POP POP POP JUMP JUMPDEST PUSH8 0xFFFFFFFFFFFFFFFF DUP4 GT ISZERO PUSH2 0x232C JUMPI PUSH2 0x232C PUSH2 0x22AF JUMP JUMPDEST PUSH2 0x2340 DUP4 PUSH2 0x233A DUP4 SLOAD PUSH2 0x2233 JUMP JUMPDEST DUP4 PUSH2 0x22C5 JUMP JUMPDEST PUSH1 0x0 PUSH1 0x1F DUP5 GT PUSH1 0x1 DUP2 EQ PUSH2 0x2374 JUMPI PUSH1 0x0 DUP6 ISZERO PUSH2 0x235C JUMPI POP DUP4 DUP3 ADD CALLDATALOAD JUMPDEST PUSH1 0x0 NOT PUSH1 0x3 DUP8 SWAP1 SHL SHR NOT AND PUSH1 0x1 DUP7 SWAP1 SHL OR DUP4 SSTORE PUSH2 0x23CE JUMP JUMPDEST PUSH1 0x0 DUP4 DUP2 MSTORE PUSH1 0x20 SWAP1 KECCAK256 PUSH1 0x1F NOT DUP7 AND SWAP1 DUP4 JUMPDEST DUP3 DUP2 LT ISZERO PUSH2 0x23A5 JUMPI DUP7 DUP6 ADD CALLDATALOAD DUP3 SSTORE PUSH1 0x20 SWAP5 DUP6 ADD SWAP5 PUSH1 0x1 SWAP1 SWAP3 ADD SWAP2 ADD PUSH2 0x2385 JUMP JUMPDEST POP DUP7 DUP3 LT ISZERO PUSH2 0x23C2 JUMPI PUSH1 0x0 NOT PUSH1 0xF8 DUP9 PUSH1 0x3 SHL AND SHR NOT DUP5 DUP8 ADD CALLDATALOAD AND DUP2 SSTORE JUMPDEST POP POP PUSH1 0x1 DUP6 PUSH1 0x1 SHL ADD DUP4 SSTORE JUMPDEST POP POP POP POP POP JUMP JUMPDEST PUSH1 0x20 DUP1 DUP3 MSTORE PUSH1 0x17 SWAP1 DUP3 ADD MSTORE PUSH32 0x4661696C656420746F20726566756E6420636C69656E74000000000000000000 PUSH1 0x40 DUP3 ADD MSTORE PUSH1 0x60 ADD SWAP1 JUMP JUMPDEST DUP2 MLOAD PUSH8 0xFFFFFFFFFFFFFFFF DUP2 GT ISZERO PUSH2 0x2426 JUMPI PUSH2 0x2426 PUSH2 0x22AF JUMP JUMPDEST PUSH2 0x243A DUP2 PUSH2 0x2434 DUP5 SLOAD PUSH2 0x2233 JUMP JUMPDEST DUP5 PUSH2 0x22C5 JUMP JUMPDEST PUSH1 0x20 DUP1 PUSH1 0x1F DUP4 GT PUSH1 0x1 DUP2 EQ PUSH2 0x246F JUMPI PUSH1 0x0 DUP5 ISZERO PUSH2 0x2457 JUMPI POP DUP6 DUP4 ADD MLOAD JUMPDEST PUSH1 0x0 NOT PUSH1 0x3 DUP7 SWAP1 SHL SHR NOT AND PUSH1 0x1 DUP6 SWAP1 SHL OR DUP6 SSTORE PUSH2 0x230B JUMP JUMPDEST PUSH1 0x0 DUP6 DUP2 MSTORE PUSH1 0x20 DUP2 KECCAK256 PUSH1 0x1F NOT DUP7 AND SWAP2 JUMPDEST DUP3 DUP2 LT ISZERO PUSH2 0x249E JUMPI DUP9 DUP7 ADD MLOAD DUP3 SSTORE SWAP5 DUP5 ADD SWAP5 PUSH1 0x1 SWAP1 SWAP2 ADD SWAP1 DUP5 ADD PUSH2 0x247F JUMP JUMPDEST POP DUP6 DUP3 LT ISZERO PUSH2 0x24BC JUMPI DUP8 DUP6 ADD MLOAD PUSH1 0x0 NOT PUSH1 0x3 DUP9 SWAP1 SHL PUSH1 0xF8 AND SHR NOT AND DUP2 SSTORE JUMPDEST POP POP POP POP POP PUSH1 0x1 SWAP1 DUP2 SHL ADD SWAP1 SSTORE POP JUMP INVALID LOG2 PUSH5 0x6970667358 0x22 SLT KECCAK256 0xC4 PUSH25 0xD5A3CB94EF002ECBF747EF757C96A41A342141C3ED0C8F33F9 CALLDATASIZE CALLDATASIZE LOG0 LOG1 MSTORE PUSH5 0x736F6C6343 STOP ADDMOD GT STOP CALLER ",
  "sha1": "57ca84914daf7a173d1c98112e7106cde10ed695",
  "source": "// SPDX-License-Identifier: MIT\n\npragma solidity ^0.8.13;\n\nimport \"@chainlink/contracts/src/v0.8/interfaces/AggregatorV3Interface.sol\";\n\ncontract FoodDelivery {\n    struct Item{\n        uint256 id;\n        string name;\n        string description;\n        uint256 price;          // price in USD\n    }\n\n    struct Restaurant{\n        address addr;\n        string name;\n        string description;\n        Item[] items;\n    }\n\n    struct Client {\n        address addr;\n        string name;\n    }\n\n    enum OrderStatus {\n        PENDING,                // order submitted by client, but before the restaurant accepts the order\n        WAITING_COURIER,        // order ready for courier (after being accepted by restaurant)\n        ASSIGNED_COURIER,       // order accepted by a courier\n        READY_TO_DELIVER,       // order finished by restaurant, ready to deliver\n        DELIVERING,             // order being delivered by the courier\n        DELIVERED,              // order delivered, confirmed by client\n        CANCELLED               // order was cancelled\n    }\n\n    struct Order {\n        uint256 id;\n        address restaurantAddr;\n        address clientAddr;\n        address courierAddr;\n        uint256[] itemIndices;\n        uint256[] quantities;\n        uint256 deliveryFee;        // delivery fee is in GWei\n        uint256 totalPrice;         // total price is in GWei\n        string deliveryAddress;\n        OrderStatus status;\n    }\n\n\n    mapping(address => Restaurant) public restaurants;\n    mapping(uint256 => Order) public orders;\n    mapping(address => Client) public clients;\n    address[] public restaurantsAddr;\n    address[] public clientsAddr;\n    uint256 numberOfOrders = 0;\n    AggregatorV3Interface public ethUsdPriceFeed;\n\n    constructor (address priceFeedAddress) {\n        ethUsdPriceFeed = AggregatorV3Interface(priceFeedAddress);\n    }\n\n    function getNumberOfItemsInMenu(address restaurant) public view returns(uint) {\n        return restaurants[restaurant].items.length;\n    }\n\n    function getMenuEntryAtIndex(address restaurant, uint index) public view returns(Item memory) {\n        return restaurants[restaurant].items[index];\n    }\n\n    function getNumberOfRestaurants() public view returns(uint) {\n        return restaurantsAddr.length;\n    }\n\n    function getNumberOfClients() public view returns(uint) {\n        return clientsAddr.length;\n    }\n\n    function getPriceInEth(uint256 usdPrice) public view returns (uint256) {\n        (,int256 price,,, ) = ethUsdPriceFeed.latestRoundData();\n        uint8 decimals = ethUsdPriceFeed.decimals();\n        uint256 cost = (usdPrice * 10 ** decimals) / (uint256(price) / 10 ** 9);\n        return cost;\n    }\n\n    function registerRestaurant(string calldata name, string calldata description) public {\n        Restaurant storage restaurant = restaurants[msg.sender];\n        restaurant.addr = msg.sender;\n        restaurant.name = name;\n        restaurant.description = description;\n        restaurantsAddr.push(msg.sender);\n    }\n\n    function registerClient(string calldata name) public {\n        Client storage client = clients[msg.sender];\n        client.addr = msg.sender;\n        client.name = name;\n        clientsAddr.push(msg.sender);\n    }\n\n    function addItem(uint256 id, string calldata name, string calldata description, uint256 price) public {\n        Restaurant storage restaurant = restaurants[msg.sender];\n        restaurant.items.push(Item({\n            id: id,\n            name: name,\n            description: description,\n            price: price\n        }));\n    }\n\n    function getWeiPriceForOrder(address restaurantAddr, uint256[] calldata itemIds, uint256[] calldata quantities, uint256 deliveryFee) public view returns(uint256, uint256) {\n        Restaurant storage restaurant = restaurants[restaurantAddr];\n\n        uint256 totalPrice = 0;\n        for (uint256 i = 0; i < itemIds.length; i++) {\n            require(itemIds[i] < restaurant.items.length, \"Invalid item ID\");\n            Item storage item = restaurant.items[itemIds[i]];\n            totalPrice += getPriceInEth(item.price) * quantities[i];\n        }\n\n        uint256 ethDeliveryFee = getPriceInEth(deliveryFee);\n        return (totalPrice, ethDeliveryFee);\n    }\n\n    function placeOrder(address restaurantAddr, uint256[] calldata itemIds, uint256[] calldata quantities, uint256 deliveryFee, string calldata deliveryAddress) public payable {\n        Restaurant storage restaurant = restaurants[restaurantAddr];\n        require(restaurant.addr != address(0), \"Invalid restaurant address\");\n\n        (uint256 totalPrice, uint256 ethDeliveryFee) = getWeiPriceForOrder(restaurantAddr, itemIds, quantities, deliveryFee);\n        require(msg.value >= totalPrice + ethDeliveryFee, \"Incorrect amount paid\");\n\n        uint256 id = numberOfOrders++;\n\n        orders[id] = Order({\n            id: id,\n            restaurantAddr: restaurantAddr,\n            clientAddr: msg.sender,\n            courierAddr: address(0),\n            itemIndices: itemIds,\n            quantities: quantities,\n            deliveryFee: ethDeliveryFee,\n            totalPrice: totalPrice,\n            deliveryAddress: deliveryAddress,\n            status: OrderStatus.PENDING\n        });\n    }\n\n    function acceptOrder(uint256 orderId) public {\n        Order storage order = orders[orderId];\n        require(order.id == orderId, \"Order with given id does not exist\");\n        require(order.restaurantAddr == msg.sender, \"Only the restaurant for which the order was made can accept it\");\n        require(order.status == OrderStatus.PENDING, \"Can only accept orders for which the status is PENDING\");\n\n        order.status = OrderStatus.WAITING_COURIER;\n    }\n\n    function declineOrder(uint256 orderId) public {\n        Order storage order = orders[orderId];\n        require(order.id == orderId, \"Order with given id does not exist\");\n        require(order.restaurantAddr == msg.sender, \"Only the restaurant can decline the order\");\n        require(order.status == OrderStatus.PENDING, \"Order must be pending\");\n\n        // refund the client\n        address payable clientAddr = payable(order.clientAddr);\n        require(clientAddr.send(order.totalPrice + order.deliveryFee), \"Failed to refund client\");\n\n        order.status = OrderStatus.CANCELLED;\n    }\n\n    function increaseDeliveryFee(uint256 orderId) public payable {\n        Order storage order = orders[orderId];\n        require(order.id == orderId, \"Order with given id does not exist\");\n        require(order.status == OrderStatus.WAITING_COURIER);\n        require(order.clientAddr == msg.sender, \"Order delivery fee must be increased by the client\");\n\n        order.deliveryFee += msg.value;\n    }\n\n    function takeOrder(uint256 orderId) public {\n        Order storage order = orders[orderId];\n        require(order.id == orderId, \"Order with given id does not exist\");\n        require(order.status == OrderStatus.WAITING_COURIER, \"Order must be in the processing state\");\n        order.courierAddr = msg.sender;\n        order.status = OrderStatus.ASSIGNED_COURIER;\n    }\n\n    function orderReadyToDeliver(uint256 orderId) public {\n        Order storage order = orders[orderId];\n        require(order.id == orderId, \"Order with given id does not exist\");\n        require(order.status == OrderStatus.ASSIGNED_COURIER);\n        require(order.restaurantAddr == msg.sender, \"Order must be marked ready to deliver by the restaurant of the order\");\n\n        order.status = OrderStatus.READY_TO_DELIVER;\n    }\n\n    function orderDelivering(uint256 orderId) public {\n        Order storage order = orders[orderId];\n        require(order.id == orderId, \"Order with given id does not exist\");\n        require(order.status == OrderStatus.READY_TO_DELIVER);\n        require(order.courierAddr == msg.sender, \"Order must be delivered by courier that accepted it\");\n\n        order.status = OrderStatus.DELIVERING;\n    }\n\n    function orderDelivered(uint256 orderId) public {\n        Order storage order = orders[orderId];\n        require(order.id == orderId, \"Order with given id does not exist\");\n        require(order.status == OrderStatus.DELIVERING);\n        require(order.clientAddr == msg.sender, \"Order delivery must be confirmed by client\");\n\n        order.status = OrderStatus.DELIVERED;\n    }\n\n    function cancelOrder(uint256 orderId) public {\n        Order storage order = orders[orderId];\n        require(order.id == orderId, \"Order with given id does not exist\");\n        \n        // refund the client\n        address payable clientAddr = payable(order.clientAddr);\n        address payable restaurantAddr = payable(order.restaurantAddr);\n        if (order.status == OrderStatus.PENDING || order.status == OrderStatus.WAITING_COURIER\n            || order.status == OrderStatus.ASSIGNED_COURIER) {      // full refund\n            require(clientAddr.send(order.totalPrice + order.deliveryFee), \"Failed to refund client\");\n        } else if (order.status == OrderStatus.READY_TO_DELIVER) {  // partial refund, as the restaurant did finish the order\n            require(restaurantAddr.send(order.totalPrice), \"Failed to refund restaurant\");\n            require(clientAddr.send(order.deliveryFee), \"Failed to refund client\");\n        } else {        // no refund for client, order was just being delivered\n            address payable courierAddr = payable(order.clientAddr);\n            require(restaurantAddr.send(order.totalPrice), \"Failed to refund restaurant\");\n            require(courierAddr.send(order.deliveryFee), \"Failed to refund courier\");\n        }\n\n        order.status = OrderStatus.CANCELLED;\n    }\n}\n",
  "sourcePath": "contracts/food_delivery.sol",
  "type": "contract"
}