{"bytecode":"6080604052600060035534801561001557600080fd5b50604051620023a3380380620023a38339810160408190526100369161005b565b600480546001600160a01b0319166001600160a01b039290921691909117905561008b565b60006020828403121561006d57600080fd5b81516001600160a01b038116811461008457600080fd5b9392505050565b612308806200009b6000396000f3fe6080604052600436106101145760003560e01c806382b14cf3116100a0578063c59c521a11610064578063c59c521a1461032a578063ccbdb85c14610363578063e742a18214610383578063ef18e9ed146103a3578063fedf1a87146103c357600080fd5b806382b14cf314610290578063880d4ee8146102b05780639b51bd21146102d0578063a85c38ef146102e3578063abfd06871461031757600080fd5b806342f6fb29116100e757806342f6fb29146101bd5780634c6448fe146101f5578063514fcac71461021557806361eed2a91461023557806368ad5b831461026357600080fd5b80631ae78a8514610119578063226affb81461013b578063236cd7dc1461016e5780633b5d1a241461019d575b600080fd5b34801561012557600080fd5b5061013961013436600461199a565b6103e3565b005b34801561014757600080fd5b5061015b61015636600461199a565b6104d2565b6040519081526020015b60405180910390f35b34801561017a57600080fd5b5061018e6101893660046119cf565b6105ed565b60405161016593929190611a37565b3480156101a957600080fd5b506101396101b836600461199a565b61072a565b3480156101c957600080fd5b506004546101dd906001600160a01b031681565b6040516001600160a01b039091168152602001610165565b34801561020157600080fd5b50610139610210366004611ac0565b6107f8565b34801561022157600080fd5b5061013961023036600461199a565b61082d565b34801561024157600080fd5b506102556102503660046119cf565b610b10565b604051610165929190611b02565b34801561026f57600080fd5b5061028361027e366004611b2e565b610bbf565b6040516101659190611b58565b34801561029c57600080fd5b506101396102ab366004611bb2565b610d71565b3480156102bc57600080fd5b506101396102cb366004611c34565b610e69565b6101396102de36600461199a565b610eb0565b3480156102ef57600080fd5b506103036102fe36600461199a565b610f97565b604051610165989796959493929190611cb6565b610139610325366004611d78565b611076565b34801561033657600080fd5b5061015b6103453660046119cf565b6001600160a01b031660009081526020819052604090206003015490565b34801561036f57600080fd5b5061013961037e36600461199a565b6114b1565b34801561038f57600080fd5b5061013961039e36600461199a565b61161d565b3480156103af57600080fd5b506101396103be36600461199a565b6116f5565b3480156103cf57600080fd5b506101396103de36600461199a565b611841565b60008181526001602052604090208054821461041a5760405162461bcd60e51b815260040161041190611e2c565b60405180910390fd5b6003600982015460ff16600681111561043557610435611ca0565b1461043f57600080fd5b60038101546001600160a01b031633146104b75760405162461bcd60e51b815260206004820152603360248201527f4f72646572206d7573742062652064656c69766572656420627920636f757269604482015272195c881d1a185d081858d8d95c1d1959081a5d606a1b6064820152608401610411565b6009810180546004919060ff19166001835b02179055505050565b6004805460408051633fabe5a360e21b8152905160009384936001600160a01b03169263feaf968c928183019260a0928290030181865afa15801561051b573d6000803e3d6000fd5b505050506040513d601f19601f8201168201806040525081019061053f9190611e88565b5050600480546040805163313ce56760e01b81529051949650600095506001600160a01b039091169363313ce5679350818301926020928290030181865afa15801561058f573d6000803e3d6000fd5b505050506040513d601f19601f820116820180604052508101906105b39190611ed8565b905060006105c5633b9aca0084611f11565b6105d083600a612017565b6105da9087612026565b6105e49190611f11565b95945050505050565b600060208190529081526040902080546001820180546001600160a01b0390921692916106199061203d565b80601f01602080910402602001604051908101604052809291908181526020018280546106459061203d565b80156106925780601f1061066757610100808354040283529160200191610692565b820191906000526020600020905b81548152906001019060200180831161067557829003601f168201915b5050505050908060020180546106a79061203d565b80601f01602080910402602001604051908101604052809291908181526020018280546106d39061203d565b80156107205780601f106106f557610100808354040283529160200191610720565b820191906000526020600020905b81548152906001019060200180831161070357829003601f168201915b5050505050905083565b6000818152600160205260409020805482146107585760405162461bcd60e51b815260040161041190611e2c565b6001600982015460ff16600681111561077357610773611ca0565b146107ce5760405162461bcd60e51b815260206004820152602560248201527f4f72646572206d75737420626520696e207468652070726f63657373696e6720604482015264737461746560d81b6064820152608401610411565b6003810180546001600160a01b031916331790556009810180546002919060ff19166001836104c9565b33600081815260026020526040902080546001600160a01b0319169091178155600181016108278385836120d8565b50505050565b60008181526001602052604090208054821461085b5760405162461bcd60e51b815260040161041190611e2c565b600281015460018201546001600160a01b0391821691166000600984015460ff16600681111561088d5761088d611ca0565b14806108b157506001600984015460ff1660068111156108af576108af611ca0565b145b806108d457506002600984015460ff1660068111156108d2576108d2611ca0565b145b1561093257816001600160a01b03166108fc846006015485600701546108fa9190612199565b6040518115909202916000818181858888f1935050505061092d5760405162461bcd60e51b8152600401610411906121ac565b610afd565b6003600984015460ff16600681111561094d5761094d611ca0565b03610a0a5760078301546040516001600160a01b0383169180156108fc02916000818181858888f193505050506109c65760405162461bcd60e51b815260206004820152601b60248201527f4661696c656420746f20726566756e642072657374617572616e7400000000006044820152606401610411565b60068301546040516001600160a01b0384169180156108fc02916000818181858888f1935050505061092d5760405162461bcd60e51b8152600401610411906121ac565b600283015460078401546040516001600160a01b039283169284169180156108fc02916000818181858888f19350505050610a875760405162461bcd60e51b815260206004820152601b60248201527f4661696c656420746f20726566756e642072657374617572616e7400000000006044820152606401610411565b60068401546040516001600160a01b0383169180156108fc02916000818181858888f19350505050610afb5760405162461bcd60e51b815260206004820152601860248201527f4661696c656420746f20726566756e6420636f757269657200000000000000006044820152606401610411565b505b5050600901805460ff1916600617905550565b600260205260009081526040902080546001820180546001600160a01b039092169291610b3c9061203d565b80601f0160208091040260200160405190810160405280929190818152602001828054610b689061203d565b8015610bb55780601f10610b8a57610100808354040283529160200191610bb5565b820191906000526020600020905b815481529060010190602001808311610b9857829003601f168201915b5050505050905082565b610bea6040518060800160405280600081526020016060815260200160608152602001600081525090565b6001600160a01b0383166000908152602081905260409020600301805483908110610c1757610c176121e3565b906000526020600020906004020160405180608001604052908160008201548152602001600182018054610c4a9061203d565b80601f0160208091040260200160405190810160405280929190818152602001828054610c769061203d565b8015610cc35780601f10610c9857610100808354040283529160200191610cc3565b820191906000526020600020905b815481529060010190602001808311610ca657829003601f168201915b50505050508152602001600282018054610cdc9061203d565b80601f0160208091040260200160405190810160405280929190818152602001828054610d089061203d565b8015610d555780601f10610d2a57610100808354040283529160200191610d55565b820191906000526020600020905b815481529060010190602001808311610d3857829003601f168201915b5050505050815260200160038201548152505090505b92915050565b336000908152602081815260409182902082516080810184528981528351601f89018490048402810184019094528784529092600384019282810191908a908a9081908401838280828437600092019190915250505090825250604080516020601f89018190048102820181019092528781529181019190889088908190840183828082843760009201829052509385525050506020918201869052835460018181018655948252908290208351600490920201908155908201519192909190820190610e3e90826121f9565b5060408201516002820190610e5390826121f9565b5060608201518160030155505050505050505050565b33600081815260208190526040902080546001600160a01b031916909117815560018101610e988587836120d8565b5060028101610ea88385836120d8565b505050505050565b600081815260016020526040902080548214610ede5760405162461bcd60e51b815260040161041190611e2c565b6001600982015460ff166006811115610ef957610ef9611ca0565b14610f0357600080fd5b60028101546001600160a01b03163314610f7a5760405162461bcd60e51b815260206004820152603260248201527f4f726465722064656c697665727920666565206d75737420626520696e637265604482015271185cd95908189e481d1a194818db1a595b9d60721b6064820152608401610411565b34816006016000828254610f8e9190612199565b90915550505050565b600160208190526000918252604090912080549181015460028201546003830154600684015460078501546008860180546001600160a01b039687169795871696909416949293919291610fea9061203d565b80601f01602080910402602001604051908101604052809291908181526020018280546110169061203d565b80156110635780601f1061103857610100808354040283529160200191611063565b820191906000526020600020905b81548152906001019060200180831161104657829003601f168201915b5050506009909301549192505060ff1688565b6001600160a01b03808916600090815260208190526040902080549091166110e05760405162461bcd60e51b815260206004820152601a60248201527f496e76616c69642072657374617572616e7420616464726573730000000000006044820152606401610411565b6000805b888110156111d85760038301548a8a83818110611103576111036121e3565b90506020020135106111495760405162461bcd60e51b815260206004820152600f60248201526e125b9d985b1a59081a5d195b481251608a1b6044820152606401610411565b6000836003018b8b84818110611161576111616121e3565b9050602002013581548110611178576111786121e3565b9060005260206000209060040201905088888381811061119a5761119a6121e3565b905060200201356111ae82600301546104d2565b6111b89190612026565b6111c29084612199565b92505080806111d0906122b9565b9150506110e4565b5060006111e4866104d2565b90506000821161124d5760405162461bcd60e51b815260206004820152602e60248201527f546f74616c207072696365206f66206f72646572206d7573742062652067726560448201526d61746572207468616e207a65726f60901b6064820152608401610411565b6112578183612199565b341461129d5760405162461bcd60e51b8152602060048201526015602482015274125b98dbdc9c9958dd08185b5bdd5b9d081c185a59605a1b6044820152606401610411565b60038054600091826112ae836122b9565b9190505590506040518061014001604052808281526020018d6001600160a01b03168152602001336001600160a01b0316815260200160006001600160a01b031681526020018c8c808060200260200160405190810160405280939291908181526020018383602002808284376000920191909152505050908252506040805160208c810282810182019093528c82529283019290918d918d918291850190849080828437600092019190915250505090825250602080820185905260408083018790528051601f8a0183900483028101830190915288815260609092019190899089908190840183828082843760009201829052509385525050602090920191509052600082815260016020818152604092839020845181558482015192810180546001600160a01b039485166001600160a01b0319918216179091559385015160028201805491851691861691909117905560608501516003820180549190941694169390931790915560808301518051611431926004850192019061193a565b5060a0820151805161144d91600584019160209091019061193a565b5060c0820151600682015560e08201516007820155610100820151600882019061147790826121f9565b5061012082015160098201805460ff1916600183600681111561149c5761149c611ca0565b02179055505050505050505050505050505050565b6000818152600160205260409020805482146114df5760405162461bcd60e51b815260040161041190611e2c565b60018101546001600160a01b0316331461154d5760405162461bcd60e51b815260206004820152602960248201527f4f6e6c79207468652072657374617572616e742063616e206465636c696e65206044820152683a34329037b93232b960b91b6064820152608401610411565b6000600982015460ff16600681111561156857611568611ca0565b146115ad5760405162461bcd60e51b81526020600482015260156024820152744f72646572206d7573742062652070656e64696e6760581b6044820152606401610411565b6002810154600682015460078301546001600160a01b039092169182916108fc916115d89190612199565b6040518115909202916000818181858888f1935050505061160b5760405162461bcd60e51b8152600401610411906121ac565b50600901805460ff1916600617905550565b60008181526001602052604090208054821461164b5760405162461bcd60e51b815260040161041190611e2c565b6004600982015460ff16600681111561166657611666611ca0565b1461167057600080fd5b60028101546001600160a01b031633146116df5760405162461bcd60e51b815260206004820152602a60248201527f4f726465722064656c6976657279206d75737420626520636f6e6669726d656460448201526908189e4818db1a595b9d60b21b6064820152608401610411565b6009810180546005919060ff19166001836104c9565b6000818152600160205260409020805482146117235760405162461bcd60e51b815260040161041190611e2c565b60018101546001600160a01b031633146117a55760405162461bcd60e51b815260206004820152603e60248201527f4f6e6c79207468652072657374617572616e7420666f7220776869636820746860448201527f65206f7264657220776173206d6164652063616e2061636365707420697400006064820152608401610411565b6000600982015460ff1660068111156117c0576117c0611ca0565b1461182c5760405162461bcd60e51b815260206004820152603660248201527f43616e206f6e6c7920616363657074206f726465727320666f7220776869636860448201527520746865207374617475732069732050454e44494e4760501b6064820152608401610411565b6009810180546001919060ff191682806104c9565b60008181526001602052604090208054821461186f5760405162461bcd60e51b815260040161041190611e2c565b6002600982015460ff16600681111561188a5761188a611ca0565b1461189457600080fd5b60018101546001600160a01b031633146119245760405162461bcd60e51b8152602060048201526044602482018190527f4f72646572206d757374206265206d61726b656420726561647920746f206465908201527f6c69766572206279207468652072657374617572616e74206f6620746865206f606482015263393232b960e11b608482015260a401610411565b6009810180546003919060ff19166001836104c9565b828054828255906000526020600020908101928215611975579160200282015b8281111561197557825182559160200191906001019061195a565b50611981929150611985565b5090565b5b808211156119815760008155600101611986565b6000602082840312156119ac57600080fd5b5035919050565b80356001600160a01b03811681146119ca57600080fd5b919050565b6000602082840312156119e157600080fd5b6119ea826119b3565b9392505050565b6000815180845260005b81811015611a17576020818501810151868301820152016119fb565b506000602082860101526020601f19601f83011685010191505092915050565b6001600160a01b0384168152606060208201819052600090611a5b908301856119f1565b8281036040840152611a6d81856119f1565b9695505050505050565b60008083601f840112611a8957600080fd5b50813567ffffffffffffffff811115611aa157600080fd5b602083019150836020828501011115611ab957600080fd5b9250929050565b60008060208385031215611ad357600080fd5b823567ffffffffffffffff811115611aea57600080fd5b611af685828601611a77565b90969095509350505050565b6001600160a01b0383168152604060208201819052600090611b26908301846119f1565b949350505050565b60008060408385031215611b4157600080fd5b611b4a836119b3565b946020939093013593505050565b60208152815160208201526000602083015160806040840152611b7e60a08401826119f1565b90506040840151601f19848303016060850152611b9b82826119f1565b915050606084015160808401528091505092915050565b60008060008060008060808789031215611bcb57600080fd5b86359550602087013567ffffffffffffffff80821115611bea57600080fd5b611bf68a838b01611a77565b90975095506040890135915080821115611c0f57600080fd5b50611c1c89828a01611a77565b979a9699509497949695606090950135949350505050565b60008060008060408587031215611c4a57600080fd5b843567ffffffffffffffff80821115611c6257600080fd5b611c6e88838901611a77565b90965094506020870135915080821115611c8757600080fd5b50611c9487828801611a77565b95989497509550505050565b634e487b7160e01b600052602160045260246000fd5b8881526001600160a01b0388811660208301528781166040830152861660608201526080810185905260a0810184905261010060c08201819052600090611cff838201866119f1565b91505060078310611d2057634e487b7160e01b600052602160045260246000fd5b8260e08301529998505050505050505050565b60008083601f840112611d4557600080fd5b50813567ffffffffffffffff811115611d5d57600080fd5b6020830191508360208260051b8501011115611ab957600080fd5b60008060008060008060008060a0898b031215611d9457600080fd5b611d9d896119b3565b9750602089013567ffffffffffffffff80821115611dba57600080fd5b611dc68c838d01611d33565b909950975060408b0135915080821115611ddf57600080fd5b611deb8c838d01611d33565b909750955060608b0135945060808b0135915080821115611e0b57600080fd5b50611e188b828c01611a77565b999c989b5096995094979396929594505050565b60208082526022908201527f4f72646572207769746820676976656e20696420646f6573206e6f74206578696040820152611cdd60f21b606082015260800190565b805169ffffffffffffffffffff811681146119ca57600080fd5b600080600080600060a08688031215611ea057600080fd5b611ea986611e6e565b9450602086015193506040860151925060608601519150611ecc60808701611e6e565b90509295509295909350565b600060208284031215611eea57600080fd5b815160ff811681146119ea57600080fd5b634e487b7160e01b600052601160045260246000fd5b600082611f2e57634e487b7160e01b600052601260045260246000fd5b500490565b600181815b80851115611f6e578160001904821115611f5457611f54611efb565b80851615611f6157918102915b93841c9390800290611f38565b509250929050565b600082611f8557506001610d6b565b81611f9257506000610d6b565b8160018114611fa85760028114611fb257611fce565b6001915050610d6b565b60ff841115611fc357611fc3611efb565b50506001821b610d6b565b5060208310610133831016604e8410600b8410161715611ff1575081810a610d6b565b611ffb8383611f33565b806000190482111561200f5761200f611efb565b029392505050565b60006119ea60ff841683611f76565b8082028115828204841417610d6b57610d6b611efb565b600181811c9082168061205157607f821691505b60208210810361207157634e487b7160e01b600052602260045260246000fd5b50919050565b634e487b7160e01b600052604160045260246000fd5b601f8211156120d357600081815260208120601f850160051c810160208610156120b45750805b601f850160051c820191505b81811015610ea8578281556001016120c0565b505050565b67ffffffffffffffff8311156120f0576120f0612077565b612104836120fe835461203d565b8361208d565b6000601f84116001811461213857600085156121205750838201355b600019600387901b1c1916600186901b178355612192565b600083815260209020601f19861690835b828110156121695786850135825560209485019460019092019101612149565b50868210156121865760001960f88860031b161c19848701351681555b505060018560011b0183555b5050505050565b80820180821115610d6b57610d6b611efb565b60208082526017908201527f4661696c656420746f20726566756e6420636c69656e74000000000000000000604082015260600190565b634e487b7160e01b600052603260045260246000fd5b815167ffffffffffffffff81111561221357612213612077565b61222781612221845461203d565b8461208d565b602080601f83116001811461225c57600084156122445750858301515b600019600386901b1c1916600185901b178555610ea8565b600085815260208120601f198616915b8281101561228b5788860151825594840194600190910190840161226c565b50858210156122a95787850151600019600388901b60f8161c191681555b5050505050600190811b01905550565b6000600182016122cb576122cb611efb565b506001019056fea26469706673582212202e27d9016186cdadf36a817894f3a2c474ccfb83aa5337c8c04ef857c5bbd47764736f6c63430008110033","bytecodeSha1":"67c9b22e59030ffd81f207bd8b6dc662101fbfe4","type":"contract","abi":[{"inputs":[{"internalType":"address","name":"priceFeedAddress","type":"address"}],"stateMutability":"nonpayable","type":"constructor","name":"constructor"},{"inputs":[{"internalType":"uint256","name":"orderId","type":"uint256"}],"name":"acceptOrder","outputs":[],"stateMutability":"nonpayable","type":"function"},{"inputs":[{"internalType":"uint256","name":"id","type":"uint256"},{"internalType":"string","name":"name","type":"string"},{"internalType":"string","name":"description","type":"string"},{"internalType":"uint256","name":"price","type":"uint256"}],"name":"addItem","outputs":[],"stateMutability":"nonpayable","type":"function"},{"inputs":[{"internalType":"uint256","name":"orderId","type":"uint256"}],"name":"cancelOrder","outputs":[],"stateMutability":"nonpayable","type":"function"},{"inputs":[{"internalType":"address","name":"","type":"address"}],"name":"clients","outputs":[{"internalType":"address","name":"addr","type":"address"},{"internalType":"string","name":"name","type":"string"}],"stateMutability":"view","type":"function"},{"inputs":[{"internalType":"uint256","name":"orderId","type":"uint256"}],"name":"declineOrder","outputs":[],"stateMutability":"nonpayable","type":"function"},{"inputs":[],"name":"ethUsdPriceFeed","outputs":[{"internalType":"contract AggregatorV3Interface","name":"","type":"address"}],"stateMutability":"view","type":"function"},{"inputs":[{"internalType":"address","name":"restaurant","type":"address"},{"internalType":"uint256","name":"index","type":"uint256"}],"name":"getMenuEntryAtIndex","outputs":[{"components":[{"internalType":"uint256","name":"id","type":"uint256"},{"internalType":"string","name":"name","type":"string"},{"internalType":"string","name":"description","type":"string"},{"internalType":"uint256","name":"price","type":"uint256"}],"internalType":"struct FoodDelivery.Item","name":"","type":"tuple"}],"stateMutability":"view","type":"function"},{"inputs":[{"internalType":"address","name":"restaurant","type":"address"}],"name":"getNumberOfItemsInMenu","outputs":[{"internalType":"uint256","name":"","type":"uint256"}],"stateMutability":"view","type":"function"},{"inputs":[{"internalType":"uint256","name":"usdPrice","type":"uint256"}],"name":"getPriceInEth","outputs":[{"internalType":"uint256","name":"","type":"uint256"}],"stateMutability":"view","type":"function"},{"inputs":[{"internalType":"uint256","name":"orderId","type":"uint256"}],"name":"increaseDeliveryFee","outputs":[],"stateMutability":"payable","type":"function"},{"inputs":[{"internalType":"uint256","name":"orderId","type":"uint256"}],"name":"orderDelivered","outputs":[],"stateMutability":"nonpayable","type":"function"},{"inputs":[{"internalType":"uint256","name":"orderId","type":"uint256"}],"name":"orderDelivering","outputs":[],"stateMutability":"nonpayable","type":"function"},{"inputs":[{"internalType":"uint256","name":"orderId","type":"uint256"}],"name":"orderReadyToDeliver","outputs":[],"stateMutability":"nonpayable","type":"function"},{"inputs":[{"internalType":"uint256","name":"","type":"uint256"}],"name":"orders","outputs":[{"internalType":"uint256","name":"id","type":"uint256"},{"internalType":"address","name":"restaurantAddr","type":"address"},{"internalType":"address","name":"clientAddr","type":"address"},{"internalType":"address","name":"courierAddr","type":"address"},{"internalType":"uint256","name":"deliveryFee","type":"uint256"},{"internalType":"uint256","name":"totalPrice","type":"uint256"},{"internalType":"string","name":"deliveryAddress","type":"string"},{"internalType":"enum FoodDelivery.OrderStatus","name":"status","type":"uint8"}],"stateMutability":"view","type":"function"},{"inputs":[{"internalType":"address","name":"restaurantAddr","type":"address"},{"internalType":"uint256[]","name":"itemIds","type":"uint256[]"},{"internalType":"uint256[]","name":"quantities","type":"uint256[]"},{"internalType":"uint256","name":"deliveryFee","type":"uint256"},{"internalType":"string","name":"deliveryAddress","type":"string"}],"name":"placeOrder","outputs":[],"stateMutability":"payable","type":"function"},{"inputs":[{"internalType":"string","name":"name","type":"string"}],"name":"registerClient","outputs":[],"stateMutability":"nonpayable","type":"function"},{"inputs":[{"internalType":"string","name":"name","type":"string"},{"internalType":"string","name":"description","type":"string"}],"name":"registerRestaurant","outputs":[],"stateMutability":"nonpayable","type":"function"},{"inputs":[{"internalType":"address","name":"","type":"address"}],"name":"restaurants","outputs":[{"internalType":"address","name":"addr","type":"address"},{"internalType":"string","name":"name","type":"string"},{"internalType":"string","name":"description","type":"string"}],"stateMutability":"view","type":"function"},{"inputs":[{"internalType":"uint256","name":"orderId","type":"uint256"}],"name":"takeOrder","outputs":[],"stateMutability":"nonpayable","type":"function"}],"compiler":{"version":"0.8.17+commit.8df45f5f","evm_version":"istanbul","optimizer":{"enabled":true,"runs":200}},"contractName":"FoodDelivery","language":"Solidity","natspec":{"methods":{},"kind":"dev","version":1},"opcodes":"PUSH1 0x80 PUSH1 0x40 MSTORE PUSH1 0x4 CALLDATASIZE LT PUSH2 0x114 JUMPI PUSH1 0x0 CALLDATALOAD PUSH1 0xE0 SHR DUP1 PUSH4 0x82B14CF3 GT PUSH2 0xA0 JUMPI DUP1 PUSH4 0xC59C521A GT PUSH2 0x64 JUMPI DUP1 PUSH4 0xC59C521A EQ PUSH2 0x32A JUMPI DUP1 PUSH4 0xCCBDB85C EQ PUSH2 0x363 JUMPI DUP1 PUSH4 0xE742A182 EQ PUSH2 0x383 JUMPI DUP1 PUSH4 0xEF18E9ED EQ PUSH2 0x3A3 JUMPI DUP1 PUSH4 0xFEDF1A87 EQ PUSH2 0x3C3 JUMPI PUSH1 0x0 DUP1 REVERT JUMPDEST DUP1 PUSH4 0x82B14CF3 EQ PUSH2 0x290 JUMPI DUP1 PUSH4 0x880D4EE8 EQ PUSH2 0x2B0 JUMPI DUP1 PUSH4 0x9B51BD21 EQ PUSH2 0x2D0 JUMPI DUP1 PUSH4 0xA85C38EF EQ PUSH2 0x2E3 JUMPI DUP1 PUSH4 0xABFD0687 EQ PUSH2 0x317 JUMPI PUSH1 0x0 DUP1 REVERT JUMPDEST DUP1 PUSH4 0x42F6FB29 GT PUSH2 0xE7 JUMPI DUP1 PUSH4 0x42F6FB29 EQ PUSH2 0x1BD JUMPI DUP1 PUSH4 0x4C6448FE EQ PUSH2 0x1F5 JUMPI DUP1 PUSH4 0x514FCAC7 EQ PUSH2 0x215 JUMPI DUP1 PUSH4 0x61EED2A9 EQ PUSH2 0x235 JUMPI DUP1 PUSH4 0x68AD5B83 EQ PUSH2 0x263 JUMPI PUSH1 0x0 DUP1 REVERT JUMPDEST DUP1 PUSH4 0x1AE78A85 EQ PUSH2 0x119 JUMPI DUP1 PUSH4 0x226AFFB8 EQ PUSH2 0x13B JUMPI DUP1 PUSH4 0x236CD7DC EQ PUSH2 0x16E JUMPI DUP1 PUSH4 0x3B5D1A24 EQ PUSH2 0x19D JUMPI JUMPDEST PUSH1 0x0 DUP1 REVERT JUMPDEST CALLVALUE DUP1 ISZERO PUSH2 0x125 JUMPI PUSH1 0x0 DUP1 REVERT JUMPDEST POP PUSH2 0x139 PUSH2 0x134 CALLDATASIZE PUSH1 0x4 PUSH2 0x199A JUMP JUMPDEST PUSH2 0x3E3 JUMP JUMPDEST STOP JUMPDEST CALLVALUE DUP1 ISZERO PUSH2 0x147 JUMPI PUSH1 0x0 DUP1 REVERT JUMPDEST POP PUSH2 0x15B PUSH2 0x156 CALLDATASIZE PUSH1 0x4 PUSH2 0x199A JUMP JUMPDEST PUSH2 0x4D2 JUMP JUMPDEST PUSH1 0x40 MLOAD SWAP1 DUP2 MSTORE PUSH1 0x20 ADD JUMPDEST PUSH1 0x40 MLOAD DUP1 SWAP2 SUB SWAP1 RETURN JUMPDEST CALLVALUE DUP1 ISZERO PUSH2 0x17A JUMPI PUSH1 0x0 DUP1 REVERT JUMPDEST POP PUSH2 0x18E PUSH2 0x189 CALLDATASIZE PUSH1 0x4 PUSH2 0x19CF JUMP JUMPDEST PUSH2 0x5ED JUMP JUMPDEST PUSH1 0x40 MLOAD PUSH2 0x165 SWAP4 SWAP3 SWAP2 SWAP1 PUSH2 0x1A37 JUMP JUMPDEST CALLVALUE DUP1 ISZERO PUSH2 0x1A9 JUMPI PUSH1 0x0 DUP1 REVERT JUMPDEST POP PUSH2 0x139 PUSH2 0x1B8 CALLDATASIZE PUSH1 0x4 PUSH2 0x199A JUMP JUMPDEST PUSH2 0x72A JUMP JUMPDEST CALLVALUE DUP1 ISZERO PUSH2 0x1C9 JUMPI PUSH1 0x0 DUP1 REVERT JUMPDEST POP PUSH1 0x4 SLOAD PUSH2 0x1DD SWAP1 PUSH1 0x1 PUSH1 0x1 PUSH1 0xA0 SHL SUB AND DUP2 JUMP JUMPDEST PUSH1 0x40 MLOAD PUSH1 0x1 PUSH1 0x1 PUSH1 0xA0 SHL SUB SWAP1 SWAP2 AND DUP2 MSTORE PUSH1 0x20 ADD PUSH2 0x165 JUMP JUMPDEST CALLVALUE DUP1 ISZERO PUSH2 0x201 JUMPI PUSH1 0x0 DUP1 REVERT JUMPDEST POP PUSH2 0x139 PUSH2 0x210 CALLDATASIZE PUSH1 0x4 PUSH2 0x1AC0 JUMP JUMPDEST PUSH2 0x7F8 JUMP JUMPDEST CALLVALUE DUP1 ISZERO PUSH2 0x221 JUMPI PUSH1 0x0 DUP1 REVERT JUMPDEST POP PUSH2 0x139 PUSH2 0x230 CALLDATASIZE PUSH1 0x4 PUSH2 0x199A JUMP JUMPDEST PUSH2 0x82D JUMP JUMPDEST CALLVALUE DUP1 ISZERO PUSH2 0x241 JUMPI PUSH1 0x0 DUP1 REVERT JUMPDEST POP PUSH2 0x255 PUSH2 0x250 CALLDATASIZE PUSH1 0x4 PUSH2 0x19CF JUMP JUMPDEST PUSH2 0xB10 JUMP JUMPDEST PUSH1 0x40 MLOAD PUSH2 0x165 SWAP3 SWAP2 SWAP1 PUSH2 0x1B02 JUMP JUMPDEST CALLVALUE DUP1 ISZERO PUSH2 0x26F JUMPI PUSH1 0x0 DUP1 REVERT JUMPDEST POP PUSH2 0x283 PUSH2 0x27E CALLDATASIZE PUSH1 0x4 PUSH2 0x1B2E JUMP JUMPDEST PUSH2 0xBBF JUMP JUMPDEST PUSH1 0x40 MLOAD PUSH2 0x165 SWAP2 SWAP1 PUSH2 0x1B58 JUMP JUMPDEST CALLVALUE DUP1 ISZERO PUSH2 0x29C JUMPI PUSH1 0x0 DUP1 REVERT JUMPDEST POP PUSH2 0x139 PUSH2 0x2AB CALLDATASIZE PUSH1 0x4 PUSH2 0x1BB2 JUMP JUMPDEST PUSH2 0xD71 JUMP JUMPDEST CALLVALUE DUP1 ISZERO PUSH2 0x2BC JUMPI PUSH1 0x0 DUP1 REVERT JUMPDEST POP PUSH2 0x139 PUSH2 0x2CB CALLDATASIZE PUSH1 0x4 PUSH2 0x1C34 JUMP JUMPDEST PUSH2 0xE69 JUMP JUMPDEST PUSH2 0x139 PUSH2 0x2DE CALLDATASIZE PUSH1 0x4 PUSH2 0x199A JUMP JUMPDEST PUSH2 0xEB0 JUMP JUMPDEST CALLVALUE DUP1 ISZERO PUSH2 0x2EF JUMPI PUSH1 0x0 DUP1 REVERT JUMPDEST POP PUSH2 0x303 PUSH2 0x2FE CALLDATASIZE PUSH1 0x4 PUSH2 0x199A JUMP JUMPDEST PUSH2 0xF97 JUMP JUMPDEST PUSH1 0x40 MLOAD PUSH2 0x165 SWAP9 SWAP8 SWAP7 SWAP6 SWAP5 SWAP4 SWAP3 SWAP2 SWAP1 PUSH2 0x1CB6 JUMP JUMPDEST PUSH2 0x139 PUSH2 0x325 CALLDATASIZE PUSH1 0x4 PUSH2 0x1D78 JUMP JUMPDEST PUSH2 0x1076 JUMP JUMPDEST CALLVALUE DUP1 ISZERO PUSH2 0x336 JUMPI PUSH1 0x0 DUP1 REVERT JUMPDEST POP PUSH2 0x15B PUSH2 0x345 CALLDATASIZE PUSH1 0x4 PUSH2 0x19CF JUMP JUMPDEST PUSH1 0x1 PUSH1 0x1 PUSH1 0xA0 SHL SUB AND PUSH1 0x0 SWAP1 DUP2 MSTORE PUSH1 0x20 DUP2 SWAP1 MSTORE PUSH1 0x40 SWAP1 KECCAK256 PUSH1 0x3 ADD SLOAD SWAP1 JUMP JUMPDEST CALLVALUE DUP1 ISZERO PUSH2 0x36F JUMPI PUSH1 0x0 DUP1 REVERT JUMPDEST POP PUSH2 0x139 PUSH2 0x37E CALLDATASIZE PUSH1 0x4 PUSH2 0x199A JUMP JUMPDEST PUSH2 0x14B1 JUMP JUMPDEST CALLVALUE DUP1 ISZERO PUSH2 0x38F JUMPI PUSH1 0x0 DUP1 REVERT JUMPDEST POP PUSH2 0x139 PUSH2 0x39E CALLDATASIZE PUSH1 0x4 PUSH2 0x199A JUMP JUMPDEST PUSH2 0x161D JUMP JUMPDEST CALLVALUE DUP1 ISZERO PUSH2 0x3AF JUMPI PUSH1 0x0 DUP1 REVERT JUMPDEST POP PUSH2 0x139 PUSH2 0x3BE CALLDATASIZE PUSH1 0x4 PUSH2 0x199A JUMP JUMPDEST PUSH2 0x16F5 JUMP JUMPDEST CALLVALUE DUP1 ISZERO PUSH2 0x3CF JUMPI PUSH1 0x0 DUP1 REVERT JUMPDEST POP PUSH2 0x139 PUSH2 0x3DE CALLDATASIZE PUSH1 0x4 PUSH2 0x199A JUMP JUMPDEST PUSH2 0x1841 JUMP JUMPDEST PUSH1 0x0 DUP2 DUP2 MSTORE PUSH1 0x1 PUSH1 0x20 MSTORE PUSH1 0x40 SWAP1 KECCAK256 DUP1 SLOAD DUP3 EQ PUSH2 0x41A JUMPI PUSH1 0x40 MLOAD PUSH3 0x461BCD PUSH1 0xE5 SHL DUP2 MSTORE PUSH1 0x4 ADD PUSH2 0x411 SWAP1 PUSH2 0x1E2C JUMP JUMPDEST PUSH1 0x40 MLOAD DUP1 SWAP2 SUB SWAP1 REVERT JUMPDEST PUSH1 0x3 PUSH1 0x9 DUP3 ADD SLOAD PUSH1 0xFF AND PUSH1 0x6 DUP2 GT ISZERO PUSH2 0x435 JUMPI PUSH2 0x435 PUSH2 0x1CA0 JUMP JUMPDEST EQ PUSH2 0x43F JUMPI PUSH1 0x0 DUP1 REVERT JUMPDEST PUSH1 0x3 DUP2 ADD SLOAD PUSH1 0x1 PUSH1 0x1 PUSH1 0xA0 SHL SUB AND CALLER EQ PUSH2 0x4B7 JUMPI PUSH1 0x40 MLOAD PUSH3 0x461BCD PUSH1 0xE5 SHL DUP2 MSTORE PUSH1 0x20 PUSH1 0x4 DUP3 ADD MSTORE PUSH1 0x33 PUSH1 0x24 DUP3 ADD MSTORE PUSH32 0x4F72646572206D7573742062652064656C69766572656420627920636F757269 PUSH1 0x44 DUP3 ADD MSTORE PUSH19 0x195C881D1A185D081858D8D95C1D1959081A5D PUSH1 0x6A SHL PUSH1 0x64 DUP3 ADD MSTORE PUSH1 0x84 ADD PUSH2 0x411 JUMP JUMPDEST PUSH1 0x9 DUP2 ADD DUP1 SLOAD PUSH1 0x4 SWAP2 SWAP1 PUSH1 0xFF NOT AND PUSH1 0x1 DUP4 JUMPDEST MUL OR SWAP1 SSTORE POP POP POP JUMP JUMPDEST PUSH1 0x4 DUP1 SLOAD PUSH1 0x40 DUP1 MLOAD PUSH4 0x3FABE5A3 PUSH1 0xE2 SHL DUP2 MSTORE SWAP1 MLOAD PUSH1 0x0 SWAP4 DUP5 SWAP4 PUSH1 0x1 PUSH1 0x1 PUSH1 0xA0 SHL SUB AND SWAP3 PUSH4 0xFEAF968C SWAP3 DUP2 DUP4 ADD SWAP3 PUSH1 0xA0 SWAP3 DUP3 SWAP1 SUB ADD DUP2 DUP7 GAS STATICCALL ISZERO DUP1 ISZERO PUSH2 0x51B JUMPI RETURNDATASIZE PUSH1 0x0 DUP1 RETURNDATACOPY RETURNDATASIZE PUSH1 0x0 REVERT JUMPDEST POP POP POP POP PUSH1 0x40 MLOAD RETURNDATASIZE PUSH1 0x1F NOT PUSH1 0x1F DUP3 ADD AND DUP3 ADD DUP1 PUSH1 0x40 MSTORE POP DUP2 ADD SWAP1 PUSH2 0x53F SWAP2 SWAP1 PUSH2 0x1E88 JUMP JUMPDEST POP POP PUSH1 0x4 DUP1 SLOAD PUSH1 0x40 DUP1 MLOAD PUSH4 0x313CE567 PUSH1 0xE0 SHL DUP2 MSTORE SWAP1 MLOAD SWAP5 SWAP7 POP PUSH1 0x0 SWAP6 POP PUSH1 0x1 PUSH1 0x1 PUSH1 0xA0 SHL SUB SWAP1 SWAP2 AND SWAP4 PUSH4 0x313CE567 SWAP4 POP DUP2 DUP4 ADD SWAP3 PUSH1 0x20 SWAP3 DUP3 SWAP1 SUB ADD DUP2 DUP7 GAS STATICCALL ISZERO DUP1 ISZERO PUSH2 0x58F JUMPI RETURNDATASIZE PUSH1 0x0 DUP1 RETURNDATACOPY RETURNDATASIZE PUSH1 0x0 REVERT JUMPDEST POP POP POP POP PUSH1 0x40 MLOAD RETURNDATASIZE PUSH1 0x1F NOT PUSH1 0x1F DUP3 ADD AND DUP3 ADD DUP1 PUSH1 0x40 MSTORE POP DUP2 ADD SWAP1 PUSH2 0x5B3 SWAP2 SWAP1 PUSH2 0x1ED8 JUMP JUMPDEST SWAP1 POP PUSH1 0x0 PUSH2 0x5C5 PUSH4 0x3B9ACA00 DUP5 PUSH2 0x1F11 JUMP JUMPDEST PUSH2 0x5D0 DUP4 PUSH1 0xA PUSH2 0x2017 JUMP JUMPDEST PUSH2 0x5DA SWAP1 DUP8 PUSH2 0x2026 JUMP JUMPDEST PUSH2 0x5E4 SWAP2 SWAP1 PUSH2 0x1F11 JUMP JUMPDEST SWAP6 SWAP5 POP POP POP POP POP JUMP JUMPDEST PUSH1 0x0 PUSH1 0x20 DUP2 SWAP1 MSTORE SWAP1 DUP2 MSTORE PUSH1 0x40 SWAP1 KECCAK256 DUP1 SLOAD PUSH1 0x1 DUP3 ADD DUP1 SLOAD PUSH1 0x1 PUSH1 0x1 PUSH1 0xA0 SHL SUB SWAP1 SWAP3 AND SWAP3 SWAP2 PUSH2 0x619 SWAP1 PUSH2 0x203D JUMP JUMPDEST DUP1 PUSH1 0x1F ADD PUSH1 0x20 DUP1 SWAP2 DIV MUL PUSH1 0x20 ADD PUSH1 0x40 MLOAD SWAP1 DUP2 ADD PUSH1 0x40 MSTORE DUP1 SWAP3 SWAP2 SWAP1 DUP2 DUP2 MSTORE PUSH1 0x20 ADD DUP3 DUP1 SLOAD PUSH2 0x645 SWAP1 PUSH2 0x203D JUMP JUMPDEST DUP1 ISZERO PUSH2 0x692 JUMPI DUP1 PUSH1 0x1F LT PUSH2 0x667 JUMPI PUSH2 0x100 DUP1 DUP4 SLOAD DIV MUL DUP4 MSTORE SWAP2 PUSH1 0x20 ADD SWAP2 PUSH2 0x692 JUMP JUMPDEST DUP3 ADD SWAP2 SWAP1 PUSH1 0x0 MSTORE PUSH1 0x20 PUSH1 0x0 KECCAK256 SWAP1 JUMPDEST DUP2 SLOAD DUP2 MSTORE SWAP1 PUSH1 0x1 ADD SWAP1 PUSH1 0x20 ADD DUP1 DUP4 GT PUSH2 0x675 JUMPI DUP3 SWAP1 SUB PUSH1 0x1F AND DUP3 ADD SWAP2 JUMPDEST POP POP POP POP POP SWAP1 DUP1 PUSH1 0x2 ADD DUP1 SLOAD PUSH2 0x6A7 SWAP1 PUSH2 0x203D JUMP JUMPDEST DUP1 PUSH1 0x1F ADD PUSH1 0x20 DUP1 SWAP2 DIV MUL PUSH1 0x20 ADD PUSH1 0x40 MLOAD SWAP1 DUP2 ADD PUSH1 0x40 MSTORE DUP1 SWAP3 SWAP2 SWAP1 DUP2 DUP2 MSTORE PUSH1 0x20 ADD DUP3 DUP1 SLOAD PUSH2 0x6D3 SWAP1 PUSH2 0x203D JUMP JUMPDEST DUP1 ISZERO PUSH2 0x720 JUMPI DUP1 PUSH1 0x1F LT PUSH2 0x6F5 JUMPI PUSH2 0x100 DUP1 DUP4 SLOAD DIV MUL DUP4 MSTORE SWAP2 PUSH1 0x20 ADD SWAP2 PUSH2 0x720 JUMP JUMPDEST DUP3 ADD SWAP2 SWAP1 PUSH1 0x0 MSTORE PUSH1 0x20 PUSH1 0x0 KECCAK256 SWAP1 JUMPDEST DUP2 SLOAD DUP2 MSTORE SWAP1 PUSH1 0x1 ADD SWAP1 PUSH1 0x20 ADD DUP1 DUP4 GT PUSH2 0x703 JUMPI DUP3 SWAP1 SUB PUSH1 0x1F AND DUP3 ADD SWAP2 JUMPDEST POP POP POP POP POP SWAP1 POP DUP4 JUMP JUMPDEST PUSH1 0x0 DUP2 DUP2 MSTORE PUSH1 0x1 PUSH1 0x20 MSTORE PUSH1 0x40 SWAP1 KECCAK256 DUP1 SLOAD DUP3 EQ PUSH2 0x758 JUMPI PUSH1 0x40 MLOAD PUSH3 0x461BCD PUSH1 0xE5 SHL DUP2 MSTORE PUSH1 0x4 ADD PUSH2 0x411 SWAP1 PUSH2 0x1E2C JUMP JUMPDEST PUSH1 0x1 PUSH1 0x9 DUP3 ADD SLOAD PUSH1 0xFF AND PUSH1 0x6 DUP2 GT ISZERO PUSH2 0x773 JUMPI PUSH2 0x773 PUSH2 0x1CA0 JUMP JUMPDEST EQ PUSH2 0x7CE JUMPI PUSH1 0x40 MLOAD PUSH3 0x461BCD PUSH1 0xE5 SHL DUP2 MSTORE PUSH1 0x20 PUSH1 0x4 DUP3 ADD MSTORE PUSH1 0x25 PUSH1 0x24 DUP3 ADD MSTORE PUSH32 0x4F72646572206D75737420626520696E207468652070726F63657373696E6720 PUSH1 0x44 DUP3 ADD MSTORE PUSH5 0x7374617465 PUSH1 0xD8 SHL PUSH1 0x64 DUP3 ADD MSTORE PUSH1 0x84 ADD PUSH2 0x411 JUMP JUMPDEST PUSH1 0x3 DUP2 ADD DUP1 SLOAD PUSH1 0x1 PUSH1 0x1 PUSH1 0xA0 SHL SUB NOT AND CALLER OR SWAP1 SSTORE PUSH1 0x9 DUP2 ADD DUP1 SLOAD PUSH1 0x2 SWAP2 SWAP1 PUSH1 0xFF NOT AND PUSH1 0x1 DUP4 PUSH2 0x4C9 JUMP JUMPDEST CALLER PUSH1 0x0 DUP2 DUP2 MSTORE PUSH1 0x2 PUSH1 0x20 MSTORE PUSH1 0x40 SWAP1 KECCAK256 DUP1 SLOAD PUSH1 0x1 PUSH1 0x1 PUSH1 0xA0 SHL SUB NOT AND SWAP1 SWAP2 OR DUP2 SSTORE PUSH1 0x1 DUP2 ADD PUSH2 0x827 DUP4 DUP6 DUP4 PUSH2 0x20D8 JUMP JUMPDEST POP POP POP POP JUMP JUMPDEST PUSH1 0x0 DUP2 DUP2 MSTORE PUSH1 0x1 PUSH1 0x20 MSTORE PUSH1 0x40 SWAP1 KECCAK256 DUP1 SLOAD DUP3 EQ PUSH2 0x85B JUMPI PUSH1 0x40 MLOAD PUSH3 0x461BCD PUSH1 0xE5 SHL DUP2 MSTORE PUSH1 0x4 ADD PUSH2 0x411 SWAP1 PUSH2 0x1E2C JUMP JUMPDEST PUSH1 0x2 DUP2 ADD SLOAD PUSH1 0x1 DUP3 ADD SLOAD PUSH1 0x1 PUSH1 0x1 PUSH1 0xA0 SHL SUB SWAP2 DUP3 AND SWAP2 AND PUSH1 0x0 PUSH1 0x9 DUP5 ADD SLOAD PUSH1 0xFF AND PUSH1 0x6 DUP2 GT ISZERO PUSH2 0x88D JUMPI PUSH2 0x88D PUSH2 0x1CA0 JUMP JUMPDEST EQ DUP1 PUSH2 0x8B1 JUMPI POP PUSH1 0x1 PUSH1 0x9 DUP5 ADD SLOAD PUSH1 0xFF AND PUSH1 0x6 DUP2 GT ISZERO PUSH2 0x8AF JUMPI PUSH2 0x8AF PUSH2 0x1CA0 JUMP JUMPDEST EQ JUMPDEST DUP1 PUSH2 0x8D4 JUMPI POP PUSH1 0x2 PUSH1 0x9 DUP5 ADD SLOAD PUSH1 0xFF AND PUSH1 0x6 DUP2 GT ISZERO PUSH2 0x8D2 JUMPI PUSH2 0x8D2 PUSH2 0x1CA0 JUMP JUMPDEST EQ JUMPDEST ISZERO PUSH2 0x932 JUMPI DUP2 PUSH1 0x1 PUSH1 0x1 PUSH1 0xA0 SHL SUB AND PUSH2 0x8FC DUP5 PUSH1 0x6 ADD SLOAD DUP6 PUSH1 0x7 ADD SLOAD PUSH2 0x8FA SWAP2 SWAP1 PUSH2 0x2199 JUMP JUMPDEST PUSH1 0x40 MLOAD DUP2 ISZERO SWAP1 SWAP3 MUL SWAP2 PUSH1 0x0 DUP2 DUP2 DUP2 DUP6 DUP9 DUP9 CALL SWAP4 POP POP POP POP PUSH2 0x92D JUMPI PUSH1 0x40 MLOAD PUSH3 0x461BCD PUSH1 0xE5 SHL DUP2 MSTORE PUSH1 0x4 ADD PUSH2 0x411 SWAP1 PUSH2 0x21AC JUMP JUMPDEST PUSH2 0xAFD JUMP JUMPDEST PUSH1 0x3 PUSH1 0x9 DUP5 ADD SLOAD PUSH1 0xFF AND PUSH1 0x6 DUP2 GT ISZERO PUSH2 0x94D JUMPI PUSH2 0x94D PUSH2 0x1CA0 JUMP JUMPDEST SUB PUSH2 0xA0A JUMPI PUSH1 0x7 DUP4 ADD SLOAD PUSH1 0x40 MLOAD PUSH1 0x1 PUSH1 0x1 PUSH1 0xA0 SHL SUB DUP4 AND SWAP2 DUP1 ISZERO PUSH2 0x8FC MUL SWAP2 PUSH1 0x0 DUP2 DUP2 DUP2 DUP6 DUP9 DUP9 CALL SWAP4 POP POP POP POP PUSH2 0x9C6 JUMPI PUSH1 0x40 MLOAD PUSH3 0x461BCD PUSH1 0xE5 SHL DUP2 MSTORE PUSH1 0x20 PUSH1 0x4 DUP3 ADD MSTORE PUSH1 0x1B PUSH1 0x24 DUP3 ADD MSTORE PUSH32 0x4661696C656420746F20726566756E642072657374617572616E740000000000 PUSH1 0x44 DUP3 ADD MSTORE PUSH1 0x64 ADD PUSH2 0x411 JUMP JUMPDEST PUSH1 0x6 DUP4 ADD SLOAD PUSH1 0x40 MLOAD PUSH1 0x1 PUSH1 0x1 PUSH1 0xA0 SHL SUB DUP5 AND SWAP2 DUP1 ISZERO PUSH2 0x8FC MUL SWAP2 PUSH1 0x0 DUP2 DUP2 DUP2 DUP6 DUP9 DUP9 CALL SWAP4 POP POP POP POP PUSH2 0x92D JUMPI PUSH1 0x40 MLOAD PUSH3 0x461BCD PUSH1 0xE5 SHL DUP2 MSTORE PUSH1 0x4 ADD PUSH2 0x411 SWAP1 PUSH2 0x21AC JUMP JUMPDEST PUSH1 0x2 DUP4 ADD SLOAD PUSH1 0x7 DUP5 ADD SLOAD PUSH1 0x40 MLOAD PUSH1 0x1 PUSH1 0x1 PUSH1 0xA0 SHL SUB SWAP3 DUP4 AND SWAP3 DUP5 AND SWAP2 DUP1 ISZERO PUSH2 0x8FC MUL SWAP2 PUSH1 0x0 DUP2 DUP2 DUP2 DUP6 DUP9 DUP9 CALL SWAP4 POP POP POP POP PUSH2 0xA87 JUMPI PUSH1 0x40 MLOAD PUSH3 0x461BCD PUSH1 0xE5 SHL DUP2 MSTORE PUSH1 0x20 PUSH1 0x4 DUP3 ADD MSTORE PUSH1 0x1B PUSH1 0x24 DUP3 ADD MSTORE PUSH32 0x4661696C656420746F20726566756E642072657374617572616E740000000000 PUSH1 0x44 DUP3 ADD MSTORE PUSH1 0x64 ADD PUSH2 0x411 JUMP JUMPDEST PUSH1 0x6 DUP5 ADD SLOAD PUSH1 0x40 MLOAD PUSH1 0x1 PUSH1 0x1 PUSH1 0xA0 SHL SUB DUP4 AND SWAP2 DUP1 ISZERO PUSH2 0x8FC MUL SWAP2 PUSH1 0x0 DUP2 DUP2 DUP2 DUP6 DUP9 DUP9 CALL SWAP4 POP POP POP POP PUSH2 0xAFB JUMPI PUSH1 0x40 MLOAD PUSH3 0x461BCD PUSH1 0xE5 SHL DUP2 MSTORE PUSH1 0x20 PUSH1 0x4 DUP3 ADD MSTORE PUSH1 0x18 PUSH1 0x24 DUP3 ADD MSTORE PUSH32 0x4661696C656420746F20726566756E6420636F75726965720000000000000000 PUSH1 0x44 DUP3 ADD MSTORE PUSH1 0x64 ADD PUSH2 0x411 JUMP JUMPDEST POP JUMPDEST POP POP PUSH1 0x9 ADD DUP1 SLOAD PUSH1 0xFF NOT AND PUSH1 0x6 OR SWAP1 SSTORE POP JUMP JUMPDEST PUSH1 0x2 PUSH1 0x20 MSTORE PUSH1 0x0 SWAP1 DUP2 MSTORE PUSH1 0x40 SWAP1 KECCAK256 DUP1 SLOAD PUSH1 0x1 DUP3 ADD DUP1 SLOAD PUSH1 0x1 PUSH1 0x1 PUSH1 0xA0 SHL SUB SWAP1 SWAP3 AND SWAP3 SWAP2 PUSH2 0xB3C SWAP1 PUSH2 0x203D JUMP JUMPDEST DUP1 PUSH1 0x1F ADD PUSH1 0x20 DUP1 SWAP2 DIV MUL PUSH1 0x20 ADD PUSH1 0x40 MLOAD SWAP1 DUP2 ADD PUSH1 0x40 MSTORE DUP1 SWAP3 SWAP2 SWAP1 DUP2 DUP2 MSTORE PUSH1 0x20 ADD DUP3 DUP1 SLOAD PUSH2 0xB68 SWAP1 PUSH2 0x203D JUMP JUMPDEST DUP1 ISZERO PUSH2 0xBB5 JUMPI DUP1 PUSH1 0x1F LT PUSH2 0xB8A JUMPI PUSH2 0x100 DUP1 DUP4 SLOAD DIV MUL DUP4 MSTORE SWAP2 PUSH1 0x20 ADD SWAP2 PUSH2 0xBB5 JUMP JUMPDEST DUP3 ADD SWAP2 SWAP1 PUSH1 0x0 MSTORE PUSH1 0x20 PUSH1 0x0 KECCAK256 SWAP1 JUMPDEST DUP2 SLOAD DUP2 MSTORE SWAP1 PUSH1 0x1 ADD SWAP1 PUSH1 0x20 ADD DUP1 DUP4 GT PUSH2 0xB98 JUMPI DUP3 SWAP1 SUB PUSH1 0x1F AND DUP3 ADD SWAP2 JUMPDEST POP POP POP POP POP SWAP1 POP DUP3 JUMP JUMPDEST PUSH2 0xBEA PUSH1 0x40 MLOAD DUP1 PUSH1 0x80 ADD PUSH1 0x40 MSTORE DUP1 PUSH1 0x0 DUP2 MSTORE PUSH1 0x20 ADD PUSH1 0x60 DUP2 MSTORE PUSH1 0x20 ADD PUSH1 0x60 DUP2 MSTORE PUSH1 0x20 ADD PUSH1 0x0 DUP2 MSTORE POP SWAP1 JUMP JUMPDEST PUSH1 0x1 PUSH1 0x1 PUSH1 0xA0 SHL SUB DUP4 AND PUSH1 0x0 SWAP1 DUP2 MSTORE PUSH1 0x20 DUP2 SWAP1 MSTORE PUSH1 0x40 SWAP1 KECCAK256 PUSH1 0x3 ADD DUP1 SLOAD DUP4 SWAP1 DUP2 LT PUSH2 0xC17 JUMPI PUSH2 0xC17 PUSH2 0x21E3 JUMP JUMPDEST SWAP1 PUSH1 0x0 MSTORE PUSH1 0x20 PUSH1 0x0 KECCAK256 SWAP1 PUSH1 0x4 MUL ADD PUSH1 0x40 MLOAD DUP1 PUSH1 0x80 ADD PUSH1 0x40 MSTORE SWAP1 DUP2 PUSH1 0x0 DUP3 ADD SLOAD DUP2 MSTORE PUSH1 0x20 ADD PUSH1 0x1 DUP3 ADD DUP1 SLOAD PUSH2 0xC4A SWAP1 PUSH2 0x203D JUMP JUMPDEST DUP1 PUSH1 0x1F ADD PUSH1 0x20 DUP1 SWAP2 DIV MUL PUSH1 0x20 ADD PUSH1 0x40 MLOAD SWAP1 DUP2 ADD PUSH1 0x40 MSTORE DUP1 SWAP3 SWAP2 SWAP1 DUP2 DUP2 MSTORE PUSH1 0x20 ADD DUP3 DUP1 SLOAD PUSH2 0xC76 SWAP1 PUSH2 0x203D JUMP JUMPDEST DUP1 ISZERO PUSH2 0xCC3 JUMPI DUP1 PUSH1 0x1F LT PUSH2 0xC98 JUMPI PUSH2 0x100 DUP1 DUP4 SLOAD DIV MUL DUP4 MSTORE SWAP2 PUSH1 0x20 ADD SWAP2 PUSH2 0xCC3 JUMP JUMPDEST DUP3 ADD SWAP2 SWAP1 PUSH1 0x0 MSTORE PUSH1 0x20 PUSH1 0x0 KECCAK256 SWAP1 JUMPDEST DUP2 SLOAD DUP2 MSTORE SWAP1 PUSH1 0x1 ADD SWAP1 PUSH1 0x20 ADD DUP1 DUP4 GT PUSH2 0xCA6 JUMPI DUP3 SWAP1 SUB PUSH1 0x1F AND DUP3 ADD SWAP2 JUMPDEST POP POP POP POP POP DUP2 MSTORE PUSH1 0x20 ADD PUSH1 0x2 DUP3 ADD DUP1 SLOAD PUSH2 0xCDC SWAP1 PUSH2 0x203D JUMP JUMPDEST DUP1 PUSH1 0x1F ADD PUSH1 0x20 DUP1 SWAP2 DIV MUL PUSH1 0x20 ADD PUSH1 0x40 MLOAD SWAP1 DUP2 ADD PUSH1 0x40 MSTORE DUP1 SWAP3 SWAP2 SWAP1 DUP2 DUP2 MSTORE PUSH1 0x20 ADD DUP3 DUP1 SLOAD PUSH2 0xD08 SWAP1 PUSH2 0x203D JUMP JUMPDEST DUP1 ISZERO PUSH2 0xD55 JUMPI DUP1 PUSH1 0x1F LT PUSH2 0xD2A JUMPI PUSH2 0x100 DUP1 DUP4 SLOAD DIV MUL DUP4 MSTORE SWAP2 PUSH1 0x20 ADD SWAP2 PUSH2 0xD55 JUMP JUMPDEST DUP3 ADD SWAP2 SWAP1 PUSH1 0x0 MSTORE PUSH1 0x20 PUSH1 0x0 KECCAK256 SWAP1 JUMPDEST DUP2 SLOAD DUP2 MSTORE SWAP1 PUSH1 0x1 ADD SWAP1 PUSH1 0x20 ADD DUP1 DUP4 GT PUSH2 0xD38 JUMPI DUP3 SWAP1 SUB PUSH1 0x1F AND DUP3 ADD SWAP2 JUMPDEST POP POP POP POP POP DUP2 MSTORE PUSH1 0x20 ADD PUSH1 0x3 DUP3 ADD SLOAD DUP2 MSTORE POP POP SWAP1 POP JUMPDEST SWAP3 SWAP2 POP POP JUMP JUMPDEST CALLER PUSH1 0x0 SWAP1 DUP2 MSTORE PUSH1 0x20 DUP2 DUP2 MSTORE PUSH1 0x40 SWAP2 DUP3 SWAP1 KECCAK256 DUP3 MLOAD PUSH1 0x80 DUP2 ADD DUP5 MSTORE DUP10 DUP2 MSTORE DUP4 MLOAD PUSH1 0x1F DUP10 ADD DUP5 SWAP1 DIV DUP5 MUL DUP2 ADD DUP5 ADD SWAP1 SWAP5 MSTORE DUP8 DUP5 MSTORE SWAP1 SWAP3 PUSH1 0x3 DUP5 ADD SWAP3 DUP3 DUP2 ADD SWAP2 SWAP1 DUP11 SWAP1 DUP11 SWAP1 DUP2 SWAP1 DUP5 ADD DUP4 DUP3 DUP1 DUP3 DUP5 CALLDATACOPY PUSH1 0x0 SWAP3 ADD SWAP2 SWAP1 SWAP2 MSTORE POP POP POP SWAP1 DUP3 MSTORE POP PUSH1 0x40 DUP1 MLOAD PUSH1 0x20 PUSH1 0x1F DUP10 ADD DUP2 SWAP1 DIV DUP2 MUL DUP3 ADD DUP2 ADD SWAP1 SWAP3 MSTORE DUP8 DUP2 MSTORE SWAP2 DUP2 ADD SWAP2 SWAP1 DUP9 SWAP1 DUP9 SWAP1 DUP2 SWAP1 DUP5 ADD DUP4 DUP3 DUP1 DUP3 DUP5 CALLDATACOPY PUSH1 0x0 SWAP3 ADD DUP3 SWAP1 MSTORE POP SWAP4 DUP6 MSTORE POP POP POP PUSH1 0x20 SWAP2 DUP3 ADD DUP7 SWAP1 MSTORE DUP4 SLOAD PUSH1 0x1 DUP2 DUP2 ADD DUP7 SSTORE SWAP5 DUP3 MSTORE SWAP1 DUP3 SWAP1 KECCAK256 DUP4 MLOAD PUSH1 0x4 SWAP1 SWAP3 MUL ADD SWAP1 DUP2 SSTORE SWAP1 DUP3 ADD MLOAD SWAP2 SWAP3 SWAP1 SWAP2 SWAP1 DUP3 ADD SWAP1 PUSH2 0xE3E SWAP1 DUP3 PUSH2 0x21F9 JUMP JUMPDEST POP PUSH1 0x40 DUP3 ADD MLOAD PUSH1 0x2 DUP3 ADD SWAP1 PUSH2 0xE53 SWAP1 DUP3 PUSH2 0x21F9 JUMP JUMPDEST POP PUSH1 0x60 DUP3 ADD MLOAD DUP2 PUSH1 0x3 ADD SSTORE POP POP POP POP POP POP POP POP POP JUMP JUMPDEST CALLER PUSH1 0x0 DUP2 DUP2 MSTORE PUSH1 0x20 DUP2 SWAP1 MSTORE PUSH1 0x40 SWAP1 KECCAK256 DUP1 SLOAD PUSH1 0x1 PUSH1 0x1 PUSH1 0xA0 SHL SUB NOT AND SWAP1 SWAP2 OR DUP2 SSTORE PUSH1 0x1 DUP2 ADD PUSH2 0xE98 DUP6 DUP8 DUP4 PUSH2 0x20D8 JUMP JUMPDEST POP PUSH1 0x2 DUP2 ADD PUSH2 0xEA8 DUP4 DUP6 DUP4 PUSH2 0x20D8 JUMP JUMPDEST POP POP POP POP POP POP JUMP JUMPDEST PUSH1 0x0 DUP2 DUP2 MSTORE PUSH1 0x1 PUSH1 0x20 MSTORE PUSH1 0x40 SWAP1 KECCAK256 DUP1 SLOAD DUP3 EQ PUSH2 0xEDE JUMPI PUSH1 0x40 MLOAD PUSH3 0x461BCD PUSH1 0xE5 SHL DUP2 MSTORE PUSH1 0x4 ADD PUSH2 0x411 SWAP1 PUSH2 0x1E2C JUMP JUMPDEST PUSH1 0x1 PUSH1 0x9 DUP3 ADD SLOAD PUSH1 0xFF AND PUSH1 0x6 DUP2 GT ISZERO PUSH2 0xEF9 JUMPI PUSH2 0xEF9 PUSH2 0x1CA0 JUMP JUMPDEST EQ PUSH2 0xF03 JUMPI PUSH1 0x0 DUP1 REVERT JUMPDEST PUSH1 0x2 DUP2 ADD SLOAD PUSH1 0x1 PUSH1 0x1 PUSH1 0xA0 SHL SUB AND CALLER EQ PUSH2 0xF7A JUMPI PUSH1 0x40 MLOAD PUSH3 0x461BCD PUSH1 0xE5 SHL DUP2 MSTORE PUSH1 0x20 PUSH1 0x4 DUP3 ADD MSTORE PUSH1 0x32 PUSH1 0x24 DUP3 ADD MSTORE PUSH32 0x4F726465722064656C697665727920666565206D75737420626520696E637265 PUSH1 0x44 DUP3 ADD MSTORE PUSH18 0x185CD95908189E481D1A194818DB1A595B9D PUSH1 0x72 SHL PUSH1 0x64 DUP3 ADD MSTORE PUSH1 0x84 ADD PUSH2 0x411 JUMP JUMPDEST CALLVALUE DUP2 PUSH1 0x6 ADD PUSH1 0x0 DUP3 DUP3 SLOAD PUSH2 0xF8E SWAP2 SWAP1 PUSH2 0x2199 JUMP JUMPDEST SWAP1 SWAP2 SSTORE POP POP POP POP JUMP JUMPDEST PUSH1 0x1 PUSH1 0x20 DUP2 SWAP1 MSTORE PUSH1 0x0 SWAP2 DUP3 MSTORE PUSH1 0x40 SWAP1 SWAP2 KECCAK256 DUP1 SLOAD SWAP2 DUP2 ADD SLOAD PUSH1 0x2 DUP3 ADD SLOAD PUSH1 0x3 DUP4 ADD SLOAD PUSH1 0x6 DUP5 ADD SLOAD PUSH1 0x7 DUP6 ADD SLOAD PUSH1 0x8 DUP7 ADD DUP1 SLOAD PUSH1 0x1 PUSH1 0x1 PUSH1 0xA0 SHL SUB SWAP7 DUP8 AND SWAP8 SWAP6 DUP8 AND SWAP7 SWAP1 SWAP5 AND SWAP5 SWAP3 SWAP4 SWAP2 SWAP3 SWAP2 PUSH2 0xFEA SWAP1 PUSH2 0x203D JUMP JUMPDEST DUP1 PUSH1 0x1F ADD PUSH1 0x20 DUP1 SWAP2 DIV MUL PUSH1 0x20 ADD PUSH1 0x40 MLOAD SWAP1 DUP2 ADD PUSH1 0x40 MSTORE DUP1 SWAP3 SWAP2 SWAP1 DUP2 DUP2 MSTORE PUSH1 0x20 ADD DUP3 DUP1 SLOAD PUSH2 0x1016 SWAP1 PUSH2 0x203D JUMP JUMPDEST DUP1 ISZERO PUSH2 0x1063 JUMPI DUP1 PUSH1 0x1F LT PUSH2 0x1038 JUMPI PUSH2 0x100 DUP1 DUP4 SLOAD DIV MUL DUP4 MSTORE SWAP2 PUSH1 0x20 ADD SWAP2 PUSH2 0x1063 JUMP JUMPDEST DUP3 ADD SWAP2 SWAP1 PUSH1 0x0 MSTORE PUSH1 0x20 PUSH1 0x0 KECCAK256 SWAP1 JUMPDEST DUP2 SLOAD DUP2 MSTORE SWAP1 PUSH1 0x1 ADD SWAP1 PUSH1 0x20 ADD DUP1 DUP4 GT PUSH2 0x1046 JUMPI DUP3 SWAP1 SUB PUSH1 0x1F AND DUP3 ADD SWAP2 JUMPDEST POP POP POP PUSH1 0x9 SWAP1 SWAP4 ADD SLOAD SWAP2 SWAP3 POP POP PUSH1 0xFF AND DUP9 JUMP JUMPDEST PUSH1 0x1 PUSH1 0x1 PUSH1 0xA0 SHL SUB DUP1 DUP10 AND PUSH1 0x0 SWAP1 DUP2 MSTORE PUSH1 0x20 DUP2 SWAP1 MSTORE PUSH1 0x40 SWAP1 KECCAK256 DUP1 SLOAD SWAP1 SWAP2 AND PUSH2 0x10E0 JUMPI PUSH1 0x40 MLOAD PUSH3 0x461BCD PUSH1 0xE5 SHL DUP2 MSTORE PUSH1 0x20 PUSH1 0x4 DUP3 ADD MSTORE PUSH1 0x1A PUSH1 0x24 DUP3 ADD MSTORE PUSH32 0x496E76616C69642072657374617572616E742061646472657373000000000000 PUSH1 0x44 DUP3 ADD MSTORE PUSH1 0x64 ADD PUSH2 0x411 JUMP JUMPDEST PUSH1 0x0 DUP1 JUMPDEST DUP9 DUP2 LT ISZERO PUSH2 0x11D8 JUMPI PUSH1 0x3 DUP4 ADD SLOAD DUP11 DUP11 DUP4 DUP2 DUP2 LT PUSH2 0x1103 JUMPI PUSH2 0x1103 PUSH2 0x21E3 JUMP JUMPDEST SWAP1 POP PUSH1 0x20 MUL ADD CALLDATALOAD LT PUSH2 0x1149 JUMPI PUSH1 0x40 MLOAD PUSH3 0x461BCD PUSH1 0xE5 SHL DUP2 MSTORE PUSH1 0x20 PUSH1 0x4 DUP3 ADD MSTORE PUSH1 0xF PUSH1 0x24 DUP3 ADD MSTORE PUSH15 0x125B9D985B1A59081A5D195B481251 PUSH1 0x8A SHL PUSH1 0x44 DUP3 ADD MSTORE PUSH1 0x64 ADD PUSH2 0x411 JUMP JUMPDEST PUSH1 0x0 DUP4 PUSH1 0x3 ADD DUP12 DUP12 DUP5 DUP2 DUP2 LT PUSH2 0x1161 JUMPI PUSH2 0x1161 PUSH2 0x21E3 JUMP JUMPDEST SWAP1 POP PUSH1 0x20 MUL ADD CALLDATALOAD DUP2 SLOAD DUP2 LT PUSH2 0x1178 JUMPI PUSH2 0x1178 PUSH2 0x21E3 JUMP JUMPDEST SWAP1 PUSH1 0x0 MSTORE PUSH1 0x20 PUSH1 0x0 KECCAK256 SWAP1 PUSH1 0x4 MUL ADD SWAP1 POP DUP9 DUP9 DUP4 DUP2 DUP2 LT PUSH2 0x119A JUMPI PUSH2 0x119A PUSH2 0x21E3 JUMP JUMPDEST SWAP1 POP PUSH1 0x20 MUL ADD CALLDATALOAD PUSH2 0x11AE DUP3 PUSH1 0x3 ADD SLOAD PUSH2 0x4D2 JUMP JUMPDEST PUSH2 0x11B8 SWAP2 SWAP1 PUSH2 0x2026 JUMP JUMPDEST PUSH2 0x11C2 SWAP1 DUP5 PUSH2 0x2199 JUMP JUMPDEST SWAP3 POP POP DUP1 DUP1 PUSH2 0x11D0 SWAP1 PUSH2 0x22B9 JUMP JUMPDEST SWAP2 POP POP PUSH2 0x10E4 JUMP JUMPDEST POP PUSH1 0x0 PUSH2 0x11E4 DUP7 PUSH2 0x4D2 JUMP JUMPDEST SWAP1 POP PUSH1 0x0 DUP3 GT PUSH2 0x124D JUMPI PUSH1 0x40 MLOAD PUSH3 0x461BCD PUSH1 0xE5 SHL DUP2 MSTORE PUSH1 0x20 PUSH1 0x4 DUP3 ADD MSTORE PUSH1 0x2E PUSH1 0x24 DUP3 ADD MSTORE PUSH32 0x546F74616C207072696365206F66206F72646572206D75737420626520677265 PUSH1 0x44 DUP3 ADD MSTORE PUSH14 0x61746572207468616E207A65726F PUSH1 0x90 SHL PUSH1 0x64 DUP3 ADD MSTORE PUSH1 0x84 ADD PUSH2 0x411 JUMP JUMPDEST PUSH2 0x1257 DUP2 DUP4 PUSH2 0x2199 JUMP JUMPDEST CALLVALUE EQ PUSH2 0x129D JUMPI PUSH1 0x40 MLOAD PUSH3 0x461BCD PUSH1 0xE5 SHL DUP2 MSTORE PUSH1 0x20 PUSH1 0x4 DUP3 ADD MSTORE PUSH1 0x15 PUSH1 0x24 DUP3 ADD MSTORE PUSH21 0x125B98DBDC9C9958DD08185B5BDD5B9D081C185A59 PUSH1 0x5A SHL PUSH1 0x44 DUP3 ADD MSTORE PUSH1 0x64 ADD PUSH2 0x411 JUMP JUMPDEST PUSH1 0x3 DUP1 SLOAD PUSH1 0x0 SWAP2 DUP3 PUSH2 0x12AE DUP4 PUSH2 0x22B9 JUMP JUMPDEST SWAP2 SWAP1 POP SSTORE SWAP1 POP PUSH1 0x40 MLOAD DUP1 PUSH2 0x140 ADD PUSH1 0x40 MSTORE DUP1 DUP3 DUP2 MSTORE PUSH1 0x20 ADD DUP14 PUSH1 0x1 PUSH1 0x1 PUSH1 0xA0 SHL SUB AND DUP2 MSTORE PUSH1 0x20 ADD CALLER PUSH1 0x1 PUSH1 0x1 PUSH1 0xA0 SHL SUB AND DUP2 MSTORE PUSH1 0x20 ADD PUSH1 0x0 PUSH1 0x1 PUSH1 0x1 PUSH1 0xA0 SHL SUB AND DUP2 MSTORE PUSH1 0x20 ADD DUP13 DUP13 DUP1 DUP1 PUSH1 0x20 MUL PUSH1 0x20 ADD PUSH1 0x40 MLOAD SWAP1 DUP2 ADD PUSH1 0x40 MSTORE DUP1 SWAP4 SWAP3 SWAP2 SWAP1 DUP2 DUP2 MSTORE PUSH1 0x20 ADD DUP4 DUP4 PUSH1 0x20 MUL DUP1 DUP3 DUP5 CALLDATACOPY PUSH1 0x0 SWAP3 ADD SWAP2 SWAP1 SWAP2 MSTORE POP POP POP SWAP1 DUP3 MSTORE POP PUSH1 0x40 DUP1 MLOAD PUSH1 0x20 DUP13 DUP2 MUL DUP3 DUP2 ADD DUP3 ADD SWAP1 SWAP4 MSTORE DUP13 DUP3 MSTORE SWAP3 DUP4 ADD SWAP3 SWAP1 SWAP2 DUP14 SWAP2 DUP14 SWAP2 DUP3 SWAP2 DUP6 ADD SWAP1 DUP5 SWAP1 DUP1 DUP3 DUP5 CALLDATACOPY PUSH1 0x0 SWAP3 ADD SWAP2 SWAP1 SWAP2 MSTORE POP POP POP SWAP1 DUP3 MSTORE POP PUSH1 0x20 DUP1 DUP3 ADD DUP6 SWAP1 MSTORE PUSH1 0x40 DUP1 DUP4 ADD DUP8 SWAP1 MSTORE DUP1 MLOAD PUSH1 0x1F DUP11 ADD DUP4 SWAP1 DIV DUP4 MUL DUP2 ADD DUP4 ADD SWAP1 SWAP2 MSTORE DUP9 DUP2 MSTORE PUSH1 0x60 SWAP1 SWAP3 ADD SWAP2 SWAP1 DUP10 SWAP1 DUP10 SWAP1 DUP2 SWAP1 DUP5 ADD DUP4 DUP3 DUP1 DUP3 DUP5 CALLDATACOPY PUSH1 0x0 SWAP3 ADD DUP3 SWAP1 MSTORE POP SWAP4 DUP6 MSTORE POP POP PUSH1 0x20 SWAP1 SWAP3 ADD SWAP2 POP SWAP1 MSTORE PUSH1 0x0 DUP3 DUP2 MSTORE PUSH1 0x1 PUSH1 0x20 DUP2 DUP2 MSTORE PUSH1 0x40 SWAP3 DUP4 SWAP1 KECCAK256 DUP5 MLOAD DUP2 SSTORE DUP5 DUP3 ADD MLOAD SWAP3 DUP2 ADD DUP1 SLOAD PUSH1 0x1 PUSH1 0x1 PUSH1 0xA0 SHL SUB SWAP5 DUP6 AND PUSH1 0x1 PUSH1 0x1 PUSH1 0xA0 SHL SUB NOT SWAP2 DUP3 AND OR SWAP1 SWAP2 SSTORE SWAP4 DUP6 ADD MLOAD PUSH1 0x2 DUP3 ADD DUP1 SLOAD SWAP2 DUP6 AND SWAP2 DUP7 AND SWAP2 SWAP1 SWAP2 OR SWAP1 SSTORE PUSH1 0x60 DUP6 ADD MLOAD PUSH1 0x3 DUP3 ADD DUP1 SLOAD SWAP2 SWAP1 SWAP5 AND SWAP5 AND SWAP4 SWAP1 SWAP4 OR SWAP1 SWAP2 SSTORE PUSH1 0x80 DUP4 ADD MLOAD DUP1 MLOAD PUSH2 0x1431 SWAP3 PUSH1 0x4 DUP6 ADD SWAP3 ADD SWAP1 PUSH2 0x193A JUMP JUMPDEST POP PUSH1 0xA0 DUP3 ADD MLOAD DUP1 MLOAD PUSH2 0x144D SWAP2 PUSH1 0x5 DUP5 ADD SWAP2 PUSH1 0x20 SWAP1 SWAP2 ADD SWAP1 PUSH2 0x193A JUMP JUMPDEST POP PUSH1 0xC0 DUP3 ADD MLOAD PUSH1 0x6 DUP3 ADD SSTORE PUSH1 0xE0 DUP3 ADD MLOAD PUSH1 0x7 DUP3 ADD SSTORE PUSH2 0x100 DUP3 ADD MLOAD PUSH1 0x8 DUP3 ADD SWAP1 PUSH2 0x1477 SWAP1 DUP3 PUSH2 0x21F9 JUMP JUMPDEST POP PUSH2 0x120 DUP3 ADD MLOAD PUSH1 0x9 DUP3 ADD DUP1 SLOAD PUSH1 0xFF NOT AND PUSH1 0x1 DUP4 PUSH1 0x6 DUP2 GT ISZERO PUSH2 0x149C JUMPI PUSH2 0x149C PUSH2 0x1CA0 JUMP JUMPDEST MUL OR SWAP1 SSTORE POP POP POP POP POP POP POP POP POP POP POP POP POP POP POP JUMP JUMPDEST PUSH1 0x0 DUP2 DUP2 MSTORE PUSH1 0x1 PUSH1 0x20 MSTORE PUSH1 0x40 SWAP1 KECCAK256 DUP1 SLOAD DUP3 EQ PUSH2 0x14DF JUMPI PUSH1 0x40 MLOAD PUSH3 0x461BCD PUSH1 0xE5 SHL DUP2 MSTORE PUSH1 0x4 ADD PUSH2 0x411 SWAP1 PUSH2 0x1E2C JUMP JUMPDEST PUSH1 0x1 DUP2 ADD SLOAD PUSH1 0x1 PUSH1 0x1 PUSH1 0xA0 SHL SUB AND CALLER EQ PUSH2 0x154D JUMPI PUSH1 0x40 MLOAD PUSH3 0x461BCD PUSH1 0xE5 SHL DUP2 MSTORE PUSH1 0x20 PUSH1 0x4 DUP3 ADD MSTORE PUSH1 0x29 PUSH1 0x24 DUP3 ADD MSTORE PUSH32 0x4F6E6C79207468652072657374617572616E742063616E206465636C696E6520 PUSH1 0x44 DUP3 ADD MSTORE PUSH9 0x3A34329037B93232B9 PUSH1 0xB9 SHL PUSH1 0x64 DUP3 ADD MSTORE PUSH1 0x84 ADD PUSH2 0x411 JUMP JUMPDEST PUSH1 0x0 PUSH1 0x9 DUP3 ADD SLOAD PUSH1 0xFF AND PUSH1 0x6 DUP2 GT ISZERO PUSH2 0x1568 JUMPI PUSH2 0x1568 PUSH2 0x1CA0 JUMP JUMPDEST EQ PUSH2 0x15AD JUMPI PUSH1 0x40 MLOAD PUSH3 0x461BCD PUSH1 0xE5 SHL DUP2 MSTORE PUSH1 0x20 PUSH1 0x4 DUP3 ADD MSTORE PUSH1 0x15 PUSH1 0x24 DUP3 ADD MSTORE PUSH21 0x4F72646572206D7573742062652070656E64696E67 PUSH1 0x58 SHL PUSH1 0x44 DUP3 ADD MSTORE PUSH1 0x64 ADD PUSH2 0x411 JUMP JUMPDEST PUSH1 0x2 DUP2 ADD SLOAD PUSH1 0x6 DUP3 ADD SLOAD PUSH1 0x7 DUP4 ADD SLOAD PUSH1 0x1 PUSH1 0x1 PUSH1 0xA0 SHL SUB SWAP1 SWAP3 AND SWAP2 DUP3 SWAP2 PUSH2 0x8FC SWAP2 PUSH2 0x15D8 SWAP2 SWAP1 PUSH2 0x2199 JUMP JUMPDEST PUSH1 0x40 MLOAD DUP2 ISZERO SWAP1 SWAP3 MUL SWAP2 PUSH1 0x0 DUP2 DUP2 DUP2 DUP6 DUP9 DUP9 CALL SWAP4 POP POP POP POP PUSH2 0x160B JUMPI PUSH1 0x40 MLOAD PUSH3 0x461BCD PUSH1 0xE5 SHL DUP2 MSTORE PUSH1 0x4 ADD PUSH2 0x411 SWAP1 PUSH2 0x21AC JUMP JUMPDEST POP PUSH1 0x9 ADD DUP1 SLOAD PUSH1 0xFF NOT AND PUSH1 0x6 OR SWAP1 SSTORE POP JUMP JUMPDEST PUSH1 0x0 DUP2 DUP2 MSTORE PUSH1 0x1 PUSH1 0x20 MSTORE PUSH1 0x40 SWAP1 KECCAK256 DUP1 SLOAD DUP3 EQ PUSH2 0x164B JUMPI PUSH1 0x40 MLOAD PUSH3 0x461BCD PUSH1 0xE5 SHL DUP2 MSTORE PUSH1 0x4 ADD PUSH2 0x411 SWAP1 PUSH2 0x1E2C JUMP JUMPDEST PUSH1 0x4 PUSH1 0x9 DUP3 ADD SLOAD PUSH1 0xFF AND PUSH1 0x6 DUP2 GT ISZERO PUSH2 0x1666 JUMPI PUSH2 0x1666 PUSH2 0x1CA0 JUMP JUMPDEST EQ PUSH2 0x1670 JUMPI PUSH1 0x0 DUP1 REVERT JUMPDEST PUSH1 0x2 DUP2 ADD SLOAD PUSH1 0x1 PUSH1 0x1 PUSH1 0xA0 SHL SUB AND CALLER EQ PUSH2 0x16DF JUMPI PUSH1 0x40 MLOAD PUSH3 0x461BCD PUSH1 0xE5 SHL DUP2 MSTORE PUSH1 0x20 PUSH1 0x4 DUP3 ADD MSTORE PUSH1 0x2A PUSH1 0x24 DUP3 ADD MSTORE PUSH32 0x4F726465722064656C6976657279206D75737420626520636F6E6669726D6564 PUSH1 0x44 DUP3 ADD MSTORE PUSH10 0x8189E4818DB1A595B9D PUSH1 0xB2 SHL PUSH1 0x64 DUP3 ADD MSTORE PUSH1 0x84 ADD PUSH2 0x411 JUMP JUMPDEST PUSH1 0x9 DUP2 ADD DUP1 SLOAD PUSH1 0x5 SWAP2 SWAP1 PUSH1 0xFF NOT AND PUSH1 0x1 DUP4 PUSH2 0x4C9 JUMP JUMPDEST PUSH1 0x0 DUP2 DUP2 MSTORE PUSH1 0x1 PUSH1 0x20 MSTORE PUSH1 0x40 SWAP1 KECCAK256 DUP1 SLOAD DUP3 EQ PUSH2 0x1723 JUMPI PUSH1 0x40 MLOAD PUSH3 0x461BCD PUSH1 0xE5 SHL DUP2 MSTORE PUSH1 0x4 ADD PUSH2 0x411 SWAP1 PUSH2 0x1E2C JUMP JUMPDEST PUSH1 0x1 DUP2 ADD SLOAD PUSH1 0x1 PUSH1 0x1 PUSH1 0xA0 SHL SUB AND CALLER EQ PUSH2 0x17A5 JUMPI PUSH1 0x40 MLOAD PUSH3 0x461BCD PUSH1 0xE5 SHL DUP2 MSTORE PUSH1 0x20 PUSH1 0x4 DUP3 ADD MSTORE PUSH1 0x3E PUSH1 0x24 DUP3 ADD MSTORE PUSH32 0x4F6E6C79207468652072657374617572616E7420666F72207768696368207468 PUSH1 0x44 DUP3 ADD MSTORE PUSH32 0x65206F7264657220776173206D6164652063616E206163636570742069740000 PUSH1 0x64 DUP3 ADD MSTORE PUSH1 0x84 ADD PUSH2 0x411 JUMP JUMPDEST PUSH1 0x0 PUSH1 0x9 DUP3 ADD SLOAD PUSH1 0xFF AND PUSH1 0x6 DUP2 GT ISZERO PUSH2 0x17C0 JUMPI PUSH2 0x17C0 PUSH2 0x1CA0 JUMP JUMPDEST EQ PUSH2 0x182C JUMPI PUSH1 0x40 MLOAD PUSH3 0x461BCD PUSH1 0xE5 SHL DUP2 MSTORE PUSH1 0x20 PUSH1 0x4 DUP3 ADD MSTORE PUSH1 0x36 PUSH1 0x24 DUP3 ADD MSTORE PUSH32 0x43616E206F6E6C7920616363657074206F726465727320666F72207768696368 PUSH1 0x44 DUP3 ADD MSTORE PUSH22 0x20746865207374617475732069732050454E44494E47 PUSH1 0x50 SHL PUSH1 0x64 DUP3 ADD MSTORE PUSH1 0x84 ADD PUSH2 0x411 JUMP JUMPDEST PUSH1 0x9 DUP2 ADD DUP1 SLOAD PUSH1 0x1 SWAP2 SWAP1 PUSH1 0xFF NOT AND DUP3 DUP1 PUSH2 0x4C9 JUMP JUMPDEST PUSH1 0x0 DUP2 DUP2 MSTORE PUSH1 0x1 PUSH1 0x20 MSTORE PUSH1 0x40 SWAP1 KECCAK256 DUP1 SLOAD DUP3 EQ PUSH2 0x186F JUMPI PUSH1 0x40 MLOAD PUSH3 0x461BCD PUSH1 0xE5 SHL DUP2 MSTORE PUSH1 0x4 ADD PUSH2 0x411 SWAP1 PUSH2 0x1E2C JUMP JUMPDEST PUSH1 0x2 PUSH1 0x9 DUP3 ADD SLOAD PUSH1 0xFF AND PUSH1 0x6 DUP2 GT ISZERO PUSH2 0x188A JUMPI PUSH2 0x188A PUSH2 0x1CA0 JUMP JUMPDEST EQ PUSH2 0x1894 JUMPI PUSH1 0x0 DUP1 REVERT JUMPDEST PUSH1 0x1 DUP2 ADD SLOAD PUSH1 0x1 PUSH1 0x1 PUSH1 0xA0 SHL SUB AND CALLER EQ PUSH2 0x1924 JUMPI PUSH1 0x40 MLOAD PUSH3 0x461BCD PUSH1 0xE5 SHL DUP2 MSTORE PUSH1 0x20 PUSH1 0x4 DUP3 ADD MSTORE PUSH1 0x44 PUSH1 0x24 DUP3 ADD DUP2 SWAP1 MSTORE PUSH32 0x4F72646572206D757374206265206D61726B656420726561647920746F206465 SWAP1 DUP3 ADD MSTORE PUSH32 0x6C69766572206279207468652072657374617572616E74206F6620746865206F PUSH1 0x64 DUP3 ADD MSTORE PUSH4 0x393232B9 PUSH1 0xE1 SHL PUSH1 0x84 DUP3 ADD MSTORE PUSH1 0xA4 ADD PUSH2 0x411 JUMP JUMPDEST PUSH1 0x9 DUP2 ADD DUP1 SLOAD PUSH1 0x3 SWAP2 SWAP1 PUSH1 0xFF NOT AND PUSH1 0x1 DUP4 PUSH2 0x4C9 JUMP JUMPDEST DUP3 DUP1 SLOAD DUP3 DUP3 SSTORE SWAP1 PUSH1 0x0 MSTORE PUSH1 0x20 PUSH1 0x0 KECCAK256 SWAP1 DUP2 ADD SWAP3 DUP3 ISZERO PUSH2 0x1975 JUMPI SWAP2 PUSH1 0x20 MUL DUP3 ADD JUMPDEST DUP3 DUP2 GT ISZERO PUSH2 0x1975 JUMPI DUP3 MLOAD DUP3 SSTORE SWAP2 PUSH1 0x20 ADD SWAP2 SWAP1 PUSH1 0x1 ADD SWAP1 PUSH2 0x195A JUMP JUMPDEST POP PUSH2 0x1981 SWAP3 SWAP2 POP PUSH2 0x1985 JUMP JUMPDEST POP SWAP1 JUMP JUMPDEST JUMPDEST DUP1 DUP3 GT ISZERO PUSH2 0x1981 JUMPI PUSH1 0x0 DUP2 SSTORE PUSH1 0x1 ADD PUSH2 0x1986 JUMP JUMPDEST PUSH1 0x0 PUSH1 0x20 DUP3 DUP5 SUB SLT ISZERO PUSH2 0x19AC JUMPI PUSH1 0x0 DUP1 REVERT JUMPDEST POP CALLDATALOAD SWAP2 SWAP1 POP JUMP JUMPDEST DUP1 CALLDATALOAD PUSH1 0x1 PUSH1 0x1 PUSH1 0xA0 SHL SUB DUP2 AND DUP2 EQ PUSH2 0x19CA JUMPI PUSH1 0x0 DUP1 REVERT JUMPDEST SWAP2 SWAP1 POP JUMP JUMPDEST PUSH1 0x0 PUSH1 0x20 DUP3 DUP5 SUB SLT ISZERO PUSH2 0x19E1 JUMPI PUSH1 0x0 DUP1 REVERT JUMPDEST PUSH2 0x19EA DUP3 PUSH2 0x19B3 JUMP JUMPDEST SWAP4 SWAP3 POP POP POP JUMP JUMPDEST PUSH1 0x0 DUP2 MLOAD DUP1 DUP5 MSTORE PUSH1 0x0 JUMPDEST DUP2 DUP2 LT ISZERO PUSH2 0x1A17 JUMPI PUSH1 0x20 DUP2 DUP6 ADD DUP2 ADD MLOAD DUP7 DUP4 ADD DUP3 ADD MSTORE ADD PUSH2 0x19FB JUMP JUMPDEST POP PUSH1 0x0 PUSH1 0x20 DUP3 DUP7 ADD ADD MSTORE PUSH1 0x20 PUSH1 0x1F NOT PUSH1 0x1F DUP4 ADD AND DUP6 ADD ADD SWAP2 POP POP SWAP3 SWAP2 POP POP JUMP JUMPDEST PUSH1 0x1 PUSH1 0x1 PUSH1 0xA0 SHL SUB DUP5 AND DUP2 MSTORE PUSH1 0x60 PUSH1 0x20 DUP3 ADD DUP2 SWAP1 MSTORE PUSH1 0x0 SWAP1 PUSH2 0x1A5B SWAP1 DUP4 ADD DUP6 PUSH2 0x19F1 JUMP JUMPDEST DUP3 DUP2 SUB PUSH1 0x40 DUP5 ADD MSTORE PUSH2 0x1A6D DUP2 DUP6 PUSH2 0x19F1 JUMP JUMPDEST SWAP7 SWAP6 POP POP POP POP POP POP JUMP JUMPDEST PUSH1 0x0 DUP1 DUP4 PUSH1 0x1F DUP5 ADD SLT PUSH2 0x1A89 JUMPI PUSH1 0x0 DUP1 REVERT JUMPDEST POP DUP2 CALLDATALOAD PUSH8 0xFFFFFFFFFFFFFFFF DUP2 GT ISZERO PUSH2 0x1AA1 JUMPI PUSH1 0x0 DUP1 REVERT JUMPDEST PUSH1 0x20 DUP4 ADD SWAP2 POP DUP4 PUSH1 0x20 DUP3 DUP6 ADD ADD GT ISZERO PUSH2 0x1AB9 JUMPI PUSH1 0x0 DUP1 REVERT JUMPDEST SWAP3 POP SWAP3 SWAP1 POP JUMP JUMPDEST PUSH1 0x0 DUP1 PUSH1 0x20 DUP4 DUP6 SUB SLT ISZERO PUSH2 0x1AD3 JUMPI PUSH1 0x0 DUP1 REVERT JUMPDEST DUP3 CALLDATALOAD PUSH8 0xFFFFFFFFFFFFFFFF DUP2 GT ISZERO PUSH2 0x1AEA JUMPI PUSH1 0x0 DUP1 REVERT JUMPDEST PUSH2 0x1AF6 DUP6 DUP3 DUP7 ADD PUSH2 0x1A77 JUMP JUMPDEST SWAP1 SWAP7 SWAP1 SWAP6 POP SWAP4 POP POP POP POP JUMP JUMPDEST PUSH1 0x1 PUSH1 0x1 PUSH1 0xA0 SHL SUB DUP4 AND DUP2 MSTORE PUSH1 0x40 PUSH1 0x20 DUP3 ADD DUP2 SWAP1 MSTORE PUSH1 0x0 SWAP1 PUSH2 0x1B26 SWAP1 DUP4 ADD DUP5 PUSH2 0x19F1 JUMP JUMPDEST SWAP5 SWAP4 POP POP POP POP JUMP JUMPDEST PUSH1 0x0 DUP1 PUSH1 0x40 DUP4 DUP6 SUB SLT ISZERO PUSH2 0x1B41 JUMPI PUSH1 0x0 DUP1 REVERT JUMPDEST PUSH2 0x1B4A DUP4 PUSH2 0x19B3 JUMP JUMPDEST SWAP5 PUSH1 0x20 SWAP4 SWAP1 SWAP4 ADD CALLDATALOAD SWAP4 POP POP POP JUMP JUMPDEST PUSH1 0x20 DUP2 MSTORE DUP2 MLOAD PUSH1 0x20 DUP3 ADD MSTORE PUSH1 0x0 PUSH1 0x20 DUP4 ADD MLOAD PUSH1 0x80 PUSH1 0x40 DUP5 ADD MSTORE PUSH2 0x1B7E PUSH1 0xA0 DUP5 ADD DUP3 PUSH2 0x19F1 JUMP JUMPDEST SWAP1 POP PUSH1 0x40 DUP5 ADD MLOAD PUSH1 0x1F NOT DUP5 DUP4 SUB ADD PUSH1 0x60 DUP6 ADD MSTORE PUSH2 0x1B9B DUP3 DUP3 PUSH2 0x19F1 JUMP JUMPDEST SWAP2 POP POP PUSH1 0x60 DUP5 ADD MLOAD PUSH1 0x80 DUP5 ADD MSTORE DUP1 SWAP2 POP POP SWAP3 SWAP2 POP POP JUMP JUMPDEST PUSH1 0x0 DUP1 PUSH1 0x0 DUP1 PUSH1 0x0 DUP1 PUSH1 0x80 DUP8 DUP10 SUB SLT ISZERO PUSH2 0x1BCB JUMPI PUSH1 0x0 DUP1 REVERT JUMPDEST DUP7 CALLDATALOAD SWAP6 POP PUSH1 0x20 DUP8 ADD CALLDATALOAD PUSH8 0xFFFFFFFFFFFFFFFF DUP1 DUP3 GT ISZERO PUSH2 0x1BEA JUMPI PUSH1 0x0 DUP1 REVERT JUMPDEST PUSH2 0x1BF6 DUP11 DUP4 DUP12 ADD PUSH2 0x1A77 JUMP JUMPDEST SWAP1 SWAP8 POP SWAP6 POP PUSH1 0x40 DUP10 ADD CALLDATALOAD SWAP2 POP DUP1 DUP3 GT ISZERO PUSH2 0x1C0F JUMPI PUSH1 0x0 DUP1 REVERT JUMPDEST POP PUSH2 0x1C1C DUP10 DUP3 DUP11 ADD PUSH2 0x1A77 JUMP JUMPDEST SWAP8 SWAP11 SWAP7 SWAP10 POP SWAP5 SWAP8 SWAP5 SWAP7 SWAP6 PUSH1 0x60 SWAP1 SWAP6 ADD CALLDATALOAD SWAP5 SWAP4 POP POP POP POP JUMP JUMPDEST PUSH1 0x0 DUP1 PUSH1 0x0 DUP1 PUSH1 0x40 DUP6 DUP8 SUB SLT ISZERO PUSH2 0x1C4A JUMPI PUSH1 0x0 DUP1 REVERT JUMPDEST DUP5 CALLDATALOAD PUSH8 0xFFFFFFFFFFFFFFFF DUP1 DUP3 GT ISZERO PUSH2 0x1C62 JUMPI PUSH1 0x0 DUP1 REVERT JUMPDEST PUSH2 0x1C6E DUP9 DUP4 DUP10 ADD PUSH2 0x1A77 JUMP JUMPDEST SWAP1 SWAP7 POP SWAP5 POP PUSH1 0x20 DUP8 ADD CALLDATALOAD SWAP2 POP DUP1 DUP3 GT ISZERO PUSH2 0x1C87 JUMPI PUSH1 0x0 DUP1 REVERT JUMPDEST POP PUSH2 0x1C94 DUP8 DUP3 DUP9 ADD PUSH2 0x1A77 JUMP JUMPDEST SWAP6 SWAP9 SWAP5 SWAP8 POP SWAP6 POP POP POP POP JUMP JUMPDEST PUSH4 0x4E487B71 PUSH1 0xE0 SHL PUSH1 0x0 MSTORE PUSH1 0x21 PUSH1 0x4 MSTORE PUSH1 0x24 PUSH1 0x0 REVERT JUMPDEST DUP9 DUP2 MSTORE PUSH1 0x1 PUSH1 0x1 PUSH1 0xA0 SHL SUB DUP9 DUP2 AND PUSH1 0x20 DUP4 ADD MSTORE DUP8 DUP2 AND PUSH1 0x40 DUP4 ADD MSTORE DUP7 AND PUSH1 0x60 DUP3 ADD MSTORE PUSH1 0x80 DUP2 ADD DUP6 SWAP1 MSTORE PUSH1 0xA0 DUP2 ADD DUP5 SWAP1 MSTORE PUSH2 0x100 PUSH1 0xC0 DUP3 ADD DUP2 SWAP1 MSTORE PUSH1 0x0 SWAP1 PUSH2 0x1CFF DUP4 DUP3 ADD DUP7 PUSH2 0x19F1 JUMP JUMPDEST SWAP2 POP POP PUSH1 0x7 DUP4 LT PUSH2 0x1D20 JUMPI PUSH4 0x4E487B71 PUSH1 0xE0 SHL PUSH1 0x0 MSTORE PUSH1 0x21 PUSH1 0x4 MSTORE PUSH1 0x24 PUSH1 0x0 REVERT JUMPDEST DUP3 PUSH1 0xE0 DUP4 ADD MSTORE SWAP10 SWAP9 POP POP POP POP POP POP POP POP POP JUMP JUMPDEST PUSH1 0x0 DUP1 DUP4 PUSH1 0x1F DUP5 ADD SLT PUSH2 0x1D45 JUMPI PUSH1 0x0 DUP1 REVERT JUMPDEST POP DUP2 CALLDATALOAD PUSH8 0xFFFFFFFFFFFFFFFF DUP2 GT ISZERO PUSH2 0x1D5D JUMPI PUSH1 0x0 DUP1 REVERT JUMPDEST PUSH1 0x20 DUP4 ADD SWAP2 POP DUP4 PUSH1 0x20 DUP3 PUSH1 0x5 SHL DUP6 ADD ADD GT ISZERO PUSH2 0x1AB9 JUMPI PUSH1 0x0 DUP1 REVERT JUMPDEST PUSH1 0x0 DUP1 PUSH1 0x0 DUP1 PUSH1 0x0 DUP1 PUSH1 0x0 DUP1 PUSH1 0xA0 DUP10 DUP12 SUB SLT ISZERO PUSH2 0x1D94 JUMPI PUSH1 0x0 DUP1 REVERT JUMPDEST PUSH2 0x1D9D DUP10 PUSH2 0x19B3 JUMP JUMPDEST SWAP8 POP PUSH1 0x20 DUP10 ADD CALLDATALOAD PUSH8 0xFFFFFFFFFFFFFFFF DUP1 DUP3 GT ISZERO PUSH2 0x1DBA JUMPI PUSH1 0x0 DUP1 REVERT JUMPDEST PUSH2 0x1DC6 DUP13 DUP4 DUP14 ADD PUSH2 0x1D33 JUMP JUMPDEST SWAP1 SWAP10 POP SWAP8 POP PUSH1 0x40 DUP12 ADD CALLDATALOAD SWAP2 POP DUP1 DUP3 GT ISZERO PUSH2 0x1DDF JUMPI PUSH1 0x0 DUP1 REVERT JUMPDEST PUSH2 0x1DEB DUP13 DUP4 DUP14 ADD PUSH2 0x1D33 JUMP JUMPDEST SWAP1 SWAP8 POP SWAP6 POP PUSH1 0x60 DUP12 ADD CALLDATALOAD SWAP5 POP PUSH1 0x80 DUP12 ADD CALLDATALOAD SWAP2 POP DUP1 DUP3 GT ISZERO PUSH2 0x1E0B JUMPI PUSH1 0x0 DUP1 REVERT JUMPDEST POP PUSH2 0x1E18 DUP12 DUP3 DUP13 ADD PUSH2 0x1A77 JUMP JUMPDEST SWAP10 SWAP13 SWAP9 SWAP12 POP SWAP7 SWAP10 POP SWAP5 SWAP8 SWAP4 SWAP7 SWAP3 SWAP6 SWAP5 POP POP POP JUMP JUMPDEST PUSH1 0x20 DUP1 DUP3 MSTORE PUSH1 0x22 SWAP1 DUP3 ADD MSTORE PUSH32 0x4F72646572207769746820676976656E20696420646F6573206E6F7420657869 PUSH1 0x40 DUP3 ADD MSTORE PUSH2 0x1CDD PUSH1 0xF2 SHL PUSH1 0x60 DUP3 ADD MSTORE PUSH1 0x80 ADD SWAP1 JUMP JUMPDEST DUP1 MLOAD PUSH10 0xFFFFFFFFFFFFFFFFFFFF DUP2 AND DUP2 EQ PUSH2 0x19CA JUMPI PUSH1 0x0 DUP1 REVERT JUMPDEST PUSH1 0x0 DUP1 PUSH1 0x0 DUP1 PUSH1 0x0 PUSH1 0xA0 DUP7 DUP9 SUB SLT ISZERO PUSH2 0x1EA0 JUMPI PUSH1 0x0 DUP1 REVERT JUMPDEST PUSH2 0x1EA9 DUP7 PUSH2 0x1E6E JUMP JUMPDEST SWAP5 POP PUSH1 0x20 DUP7 ADD MLOAD SWAP4 POP PUSH1 0x40 DUP7 ADD MLOAD SWAP3 POP PUSH1 0x60 DUP7 ADD MLOAD SWAP2 POP PUSH2 0x1ECC PUSH1 0x80 DUP8 ADD PUSH2 0x1E6E JUMP JUMPDEST SWAP1 POP SWAP3 SWAP6 POP SWAP3 SWAP6 SWAP1 SWAP4 POP JUMP JUMPDEST PUSH1 0x0 PUSH1 0x20 DUP3 DUP5 SUB SLT ISZERO PUSH2 0x1EEA JUMPI PUSH1 0x0 DUP1 REVERT JUMPDEST DUP2 MLOAD PUSH1 0xFF DUP2 AND DUP2 EQ PUSH2 0x19EA JUMPI PUSH1 0x0 DUP1 REVERT JUMPDEST PUSH4 0x4E487B71 PUSH1 0xE0 SHL PUSH1 0x0 MSTORE PUSH1 0x11 PUSH1 0x4 MSTORE PUSH1 0x24 PUSH1 0x0 REVERT JUMPDEST PUSH1 0x0 DUP3 PUSH2 0x1F2E JUMPI PUSH4 0x4E487B71 PUSH1 0xE0 SHL PUSH1 0x0 MSTORE PUSH1 0x12 PUSH1 0x4 MSTORE PUSH1 0x24 PUSH1 0x0 REVERT JUMPDEST POP DIV SWAP1 JUMP JUMPDEST PUSH1 0x1 DUP2 DUP2 JUMPDEST DUP1 DUP6 GT ISZERO PUSH2 0x1F6E JUMPI DUP2 PUSH1 0x0 NOT DIV DUP3 GT ISZERO PUSH2 0x1F54 JUMPI PUSH2 0x1F54 PUSH2 0x1EFB JUMP JUMPDEST DUP1 DUP6 AND ISZERO PUSH2 0x1F61 JUMPI SWAP2 DUP2 MUL SWAP2 JUMPDEST SWAP4 DUP5 SHR SWAP4 SWAP1 DUP1 MUL SWAP1 PUSH2 0x1F38 JUMP JUMPDEST POP SWAP3 POP SWAP3 SWAP1 POP JUMP JUMPDEST PUSH1 0x0 DUP3 PUSH2 0x1F85 JUMPI POP PUSH1 0x1 PUSH2 0xD6B JUMP JUMPDEST DUP2 PUSH2 0x1F92 JUMPI POP PUSH1 0x0 PUSH2 0xD6B JUMP JUMPDEST DUP2 PUSH1 0x1 DUP2 EQ PUSH2 0x1FA8 JUMPI PUSH1 0x2 DUP2 EQ PUSH2 0x1FB2 JUMPI PUSH2 0x1FCE JUMP JUMPDEST PUSH1 0x1 SWAP2 POP POP PUSH2 0xD6B JUMP JUMPDEST PUSH1 0xFF DUP5 GT ISZERO PUSH2 0x1FC3 JUMPI PUSH2 0x1FC3 PUSH2 0x1EFB JUMP JUMPDEST POP POP PUSH1 0x1 DUP3 SHL PUSH2 0xD6B JUMP JUMPDEST POP PUSH1 0x20 DUP4 LT PUSH2 0x133 DUP4 LT AND PUSH1 0x4E DUP5 LT PUSH1 0xB DUP5 LT AND OR ISZERO PUSH2 0x1FF1 JUMPI POP DUP2 DUP2 EXP PUSH2 0xD6B JUMP JUMPDEST PUSH2 0x1FFB DUP4 DUP4 PUSH2 0x1F33 JUMP JUMPDEST DUP1 PUSH1 0x0 NOT DIV DUP3 GT ISZERO PUSH2 0x200F JUMPI PUSH2 0x200F PUSH2 0x1EFB JUMP JUMPDEST MUL SWAP4 SWAP3 POP POP POP JUMP JUMPDEST PUSH1 0x0 PUSH2 0x19EA PUSH1 0xFF DUP5 AND DUP4 PUSH2 0x1F76 JUMP JUMPDEST DUP1 DUP3 MUL DUP2 ISZERO DUP3 DUP3 DIV DUP5 EQ OR PUSH2 0xD6B JUMPI PUSH2 0xD6B PUSH2 0x1EFB JUMP JUMPDEST PUSH1 0x1 DUP2 DUP2 SHR SWAP1 DUP3 AND DUP1 PUSH2 0x2051 JUMPI PUSH1 0x7F DUP3 AND SWAP2 POP JUMPDEST PUSH1 0x20 DUP3 LT DUP2 SUB PUSH2 0x2071 JUMPI PUSH4 0x4E487B71 PUSH1 0xE0 SHL PUSH1 0x0 MSTORE PUSH1 0x22 PUSH1 0x4 MSTORE PUSH1 0x24 PUSH1 0x0 REVERT JUMPDEST POP SWAP2 SWAP1 POP JUMP JUMPDEST PUSH4 0x4E487B71 PUSH1 0xE0 SHL PUSH1 0x0 MSTORE PUSH1 0x41 PUSH1 0x4 MSTORE PUSH1 0x24 PUSH1 0x0 REVERT JUMPDEST PUSH1 0x1F DUP3 GT ISZERO PUSH2 0x20D3 JUMPI PUSH1 0x0 DUP2 DUP2 MSTORE PUSH1 0x20 DUP2 KECCAK256 PUSH1 0x1F DUP6 ADD PUSH1 0x5 SHR DUP2 ADD PUSH1 0x20 DUP7 LT ISZERO PUSH2 0x20B4 JUMPI POP DUP1 JUMPDEST PUSH1 0x1F DUP6 ADD PUSH1 0x5 SHR DUP3 ADD SWAP2 POP JUMPDEST DUP2 DUP2 LT ISZERO PUSH2 0xEA8 JUMPI DUP3 DUP2 SSTORE PUSH1 0x1 ADD PUSH2 0x20C0 JUMP JUMPDEST POP POP POP JUMP JUMPDEST PUSH8 0xFFFFFFFFFFFFFFFF DUP4 GT ISZERO PUSH2 0x20F0 JUMPI PUSH2 0x20F0 PUSH2 0x2077 JUMP JUMPDEST PUSH2 0x2104 DUP4 PUSH2 0x20FE DUP4 SLOAD PUSH2 0x203D JUMP JUMPDEST DUP4 PUSH2 0x208D JUMP JUMPDEST PUSH1 0x0 PUSH1 0x1F DUP5 GT PUSH1 0x1 DUP2 EQ PUSH2 0x2138 JUMPI PUSH1 0x0 DUP6 ISZERO PUSH2 0x2120 JUMPI POP DUP4 DUP3 ADD CALLDATALOAD JUMPDEST PUSH1 0x0 NOT PUSH1 0x3 DUP8 SWAP1 SHL SHR NOT AND PUSH1 0x1 DUP7 SWAP1 SHL OR DUP4 SSTORE PUSH2 0x2192 JUMP JUMPDEST PUSH1 0x0 DUP4 DUP2 MSTORE PUSH1 0x20 SWAP1 KECCAK256 PUSH1 0x1F NOT DUP7 AND SWAP1 DUP4 JUMPDEST DUP3 DUP2 LT ISZERO PUSH2 0x2169 JUMPI DUP7 DUP6 ADD CALLDATALOAD DUP3 SSTORE PUSH1 0x20 SWAP5 DUP6 ADD SWAP5 PUSH1 0x1 SWAP1 SWAP3 ADD SWAP2 ADD PUSH2 0x2149 JUMP JUMPDEST POP DUP7 DUP3 LT ISZERO PUSH2 0x2186 JUMPI PUSH1 0x0 NOT PUSH1 0xF8 DUP9 PUSH1 0x3 SHL AND SHR NOT DUP5 DUP8 ADD CALLDATALOAD AND DUP2 SSTORE JUMPDEST POP POP PUSH1 0x1 DUP6 PUSH1 0x1 SHL ADD DUP4 SSTORE JUMPDEST POP POP POP POP POP JUMP JUMPDEST DUP1 DUP3 ADD DUP1 DUP3 GT ISZERO PUSH2 0xD6B JUMPI PUSH2 0xD6B PUSH2 0x1EFB JUMP JUMPDEST PUSH1 0x20 DUP1 DUP3 MSTORE PUSH1 0x17 SWAP1 DUP3 ADD MSTORE PUSH32 0x4661696C656420746F20726566756E6420636C69656E74000000000000000000 PUSH1 0x40 DUP3 ADD MSTORE PUSH1 0x60 ADD SWAP1 JUMP JUMPDEST PUSH4 0x4E487B71 PUSH1 0xE0 SHL PUSH1 0x0 MSTORE PUSH1 0x32 PUSH1 0x4 MSTORE PUSH1 0x24 PUSH1 0x0 REVERT JUMPDEST DUP2 MLOAD PUSH8 0xFFFFFFFFFFFFFFFF DUP2 GT ISZERO PUSH2 0x2213 JUMPI PUSH2 0x2213 PUSH2 0x2077 JUMP JUMPDEST PUSH2 0x2227 DUP2 PUSH2 0x2221 DUP5 SLOAD PUSH2 0x203D JUMP JUMPDEST DUP5 PUSH2 0x208D JUMP JUMPDEST PUSH1 0x20 DUP1 PUSH1 0x1F DUP4 GT PUSH1 0x1 DUP2 EQ PUSH2 0x225C JUMPI PUSH1 0x0 DUP5 ISZERO PUSH2 0x2244 JUMPI POP DUP6 DUP4 ADD MLOAD JUMPDEST PUSH1 0x0 NOT PUSH1 0x3 DUP7 SWAP1 SHL SHR NOT AND PUSH1 0x1 DUP6 SWAP1 SHL OR DUP6 SSTORE PUSH2 0xEA8 JUMP JUMPDEST PUSH1 0x0 DUP6 DUP2 MSTORE PUSH1 0x20 DUP2 KECCAK256 PUSH1 0x1F NOT DUP7 AND SWAP2 JUMPDEST DUP3 DUP2 LT ISZERO PUSH2 0x228B JUMPI DUP9 DUP7 ADD MLOAD DUP3 SSTORE SWAP5 DUP5 ADD SWAP5 PUSH1 0x1 SWAP1 SWAP2 ADD SWAP1 DUP5 ADD PUSH2 0x226C JUMP JUMPDEST POP DUP6 DUP3 LT ISZERO PUSH2 0x22A9 JUMPI DUP8 DUP6 ADD MLOAD PUSH1 0x0 NOT PUSH1 0x3 DUP9 SWAP1 SHL PUSH1 0xF8 AND SHR NOT AND DUP2 SSTORE JUMPDEST POP POP POP POP POP PUSH1 0x1 SWAP1 DUP2 SHL ADD SWAP1 SSTORE POP JUMP JUMPDEST PUSH1 0x0 PUSH1 0x1 DUP3 ADD PUSH2 0x22CB JUMPI PUSH2 0x22CB PUSH2 0x1EFB JUMP JUMPDEST POP PUSH1 0x1 ADD SWAP1 JUMP INVALID LOG2 PUSH5 0x6970667358 0x22 SLT KECCAK256 0x2E 0x27 0xD9 ADD PUSH2 0x86CD 0xAD RETURN PUSH11 0x817894F3A2C474CCFB83AA MSTORE8 CALLDATACOPY 0xC8 0xC0 0x4E 0xF8 JUMPI 0xC5 0xBB 0xD4 PUSH24 0x64736F6C6343000811003300000000000000000000000000 ","sha1":"5c8e951e6b00499f0ddfa0012f0117575473d5bc","source":"// SPDX-License-Identifier: MIT\n\npragma solidity ^0.8.13;\n\nimport \"@chainlink/contracts/src/v0.8/interfaces/AggregatorV3Interface.sol\";\n\ncontract FoodDelivery {\n    struct Item{\n        uint256 id;\n        string name;\n        string description;\n        uint256 price;\n    }\n\n    struct Restaurant{\n        address addr;\n        string name;\n        string description;\n        Item[] items;\n    }\n\n    struct Client {\n        address addr;\n        string name;\n    }\n\n    enum OrderStatus {\n        PENDING,                // order submitted by client, but before the restaurant accepts the order\n        WAITING_COURIER,        // order ready for courier (after being accepted by restaurant)\n        ASSIGNED_COURIER,       // order accepted by a courier\n        READY_TO_DELIVER,       // order finished by restaurant, ready to deliver\n        DELIVERING,             // order being delivered by the courier\n        DELIVERED,              // order delivered, confirmed by client\n        CANCELLED               // order was cancelled\n    }\n\n    struct Order {\n        uint256 id;\n        address restaurantAddr;\n        address clientAddr;\n        address courierAddr;\n        uint256[] itemIndices;\n        uint256[] quantities;\n        uint256 deliveryFee;\n        uint256 totalPrice;\n        string deliveryAddress;\n        OrderStatus status;\n    }\n\n\n    mapping(address => Restaurant) public restaurants;\n    mapping(uint256 => Order) public orders;\n    mapping(address => Client) public clients;\n    uint256 numberOfOrders = 0;\n    AggregatorV3Interface public ethUsdPriceFeed;\n\n    constructor (address priceFeedAddress) public {\n        ethUsdPriceFeed = AggregatorV3Interface(priceFeedAddress);\n    }\n\n    function getNumberOfItemsInMenu(address restaurant) public view returns(uint) {\n        return restaurants[restaurant].items.length;\n    }\n\n    function getMenuEntryAtIndex(address restaurant, uint index) public view returns(Item memory) {\n        return restaurants[restaurant].items[index];\n    }\n\n    function getPriceInEth(uint256 usdPrice) public view returns (uint256) {\n        (,int256 price,,, ) = ethUsdPriceFeed.latestRoundData();\n        uint8 decimals = ethUsdPriceFeed.decimals();\n        uint256 cost = (usdPrice * 10 ** decimals) / (uint256(price) / 10 ** 9);\n        return cost;\n    }\n\n    function registerRestaurant(string calldata name, string calldata description) public {\n        Restaurant storage restaurant = restaurants[msg.sender];\n        restaurant.addr = msg.sender;\n        restaurant.name = name;\n        restaurant.description = description;\n    }\n\n    function registerClient(string calldata name) public {\n        Client storage client = clients[msg.sender];\n        client.addr = msg.sender;\n        client.name = name;\n    }\n\n    function addItem(uint256 id, string calldata name, string calldata description, uint256 price) public {\n        Restaurant storage restaurant = restaurants[msg.sender];\n        restaurant.items.push(Item({\n            id: id,\n            name: name,\n            description: description,\n            price: price\n        }));\n    }\n\n    function placeOrder(address restaurantAddr, uint256[] calldata itemIds, uint256[] calldata quantities, uint256 deliveryFee, string calldata deliveryAddress) public payable {\n        Restaurant storage restaurant = restaurants[restaurantAddr];\n        require(restaurant.addr != address(0), \"Invalid restaurant address\");\n\n        uint256 totalPrice = 0;\n        for (uint256 i = 0; i < itemIds.length; i++) {\n            require(itemIds[i] < restaurant.items.length, \"Invalid item ID\");\n            Item storage item = restaurant.items[itemIds[i]];\n            totalPrice += getPriceInEth(item.price) * quantities[i];\n        }\n\n        uint256 ethDeliveryFee = getPriceInEth(deliveryFee);\n        require(totalPrice > 0, \"Total price of order must be greater than zero\");\n        require(msg.value == totalPrice + ethDeliveryFee, \"Incorrect amount paid\");\n\n        uint256 id = numberOfOrders++;\n\n        orders[id] = Order({\n            id: id,\n            restaurantAddr: restaurantAddr,\n            clientAddr: msg.sender,\n            courierAddr: address(0),\n            itemIndices: itemIds,\n            quantities: quantities,\n            deliveryFee: ethDeliveryFee,\n            totalPrice: totalPrice,\n            deliveryAddress: deliveryAddress,\n            status: OrderStatus.PENDING\n        });\n    }\n\n    function acceptOrder(uint256 orderId) public {\n        Order storage order = orders[orderId];\n        require(order.id == orderId, \"Order with given id does not exist\");\n        require(order.restaurantAddr == msg.sender, \"Only the restaurant for which the order was made can accept it\");\n        require(order.status == OrderStatus.PENDING, \"Can only accept orders for which the status is PENDING\");\n\n        order.status = OrderStatus.WAITING_COURIER;\n    }\n\n    function declineOrder(uint256 orderId) public {\n        Order storage order = orders[orderId];\n        require(order.id == orderId, \"Order with given id does not exist\");\n        require(order.restaurantAddr == msg.sender, \"Only the restaurant can decline the order\");\n        require(order.status == OrderStatus.PENDING, \"Order must be pending\");\n\n        // refund the client\n        address payable clientAddr = payable(order.clientAddr);\n        require(clientAddr.send(order.totalPrice + order.deliveryFee), \"Failed to refund client\");\n\n        order.status = OrderStatus.CANCELLED;\n    }\n\n    function increaseDeliveryFee(uint256 orderId) public payable {\n        Order storage order = orders[orderId];\n        require(order.id == orderId, \"Order with given id does not exist\");\n        require(order.status == OrderStatus.WAITING_COURIER);\n        require(order.clientAddr == msg.sender, \"Order delivery fee must be increased by the client\");\n\n        order.deliveryFee += msg.value;\n    }\n\n    function takeOrder(uint256 orderId) public {\n        Order storage order = orders[orderId];\n        require(order.id == orderId, \"Order with given id does not exist\");\n        require(order.status == OrderStatus.WAITING_COURIER, \"Order must be in the processing state\");\n        order.courierAddr = msg.sender;\n        order.status = OrderStatus.ASSIGNED_COURIER;\n    }\n\n    function orderReadyToDeliver(uint256 orderId) public {\n        Order storage order = orders[orderId];\n        require(order.id == orderId, \"Order with given id does not exist\");\n        require(order.status == OrderStatus.ASSIGNED_COURIER);\n        require(order.restaurantAddr == msg.sender, \"Order must be marked ready to deliver by the restaurant of the order\");\n\n        order.status = OrderStatus.READY_TO_DELIVER;\n    }\n\n    function orderDelivering(uint256 orderId) public {\n        Order storage order = orders[orderId];\n        require(order.id == orderId, \"Order with given id does not exist\");\n        require(order.status == OrderStatus.READY_TO_DELIVER);\n        require(order.courierAddr == msg.sender, \"Order must be delivered by courier that accepted it\");\n\n        order.status = OrderStatus.DELIVERING;\n    }\n\n    function orderDelivered(uint256 orderId) public {\n        Order storage order = orders[orderId];\n        require(order.id == orderId, \"Order with given id does not exist\");\n        require(order.status == OrderStatus.DELIVERING);\n        require(order.clientAddr == msg.sender, \"Order delivery must be confirmed by client\");\n\n        order.status = OrderStatus.DELIVERED;\n    }\n\n    function cancelOrder(uint256 orderId) public {\n        Order storage order = orders[orderId];\n        require(order.id == orderId, \"Order with given id does not exist\");\n        \n        // refund the client\n        address payable clientAddr = payable(order.clientAddr);\n        address payable restaurantAddr = payable(order.restaurantAddr);\n        if (order.status == OrderStatus.PENDING || order.status == OrderStatus.WAITING_COURIER\n            || order.status == OrderStatus.ASSIGNED_COURIER) {      // full refund\n            require(clientAddr.send(order.totalPrice + order.deliveryFee), \"Failed to refund client\");\n        } else if (order.status == OrderStatus.READY_TO_DELIVER) {  // partial refund, as the restaurant did finish the order\n            require(restaurantAddr.send(order.totalPrice), \"Failed to refund restaurant\");\n            require(clientAddr.send(order.deliveryFee), \"Failed to refund client\");\n        } else {        // no refund for client, order was just being delivered\n            address payable courierAddr = payable(order.clientAddr);\n            require(restaurantAddr.send(order.totalPrice), \"Failed to refund restaurant\");\n            require(courierAddr.send(order.deliveryFee), \"Failed to refund courier\");\n        }\n\n        order.status = OrderStatus.CANCELLED;\n    }\n}\n","sourcePath":"contracts/food_delivery.sol","deployment":{"address":"0x7A8915F028c4AA6af70C83bC6EDd17B91aBDF162","chainid":"5777","blockHeight":34}}